:020000040000FA
:100000000212FF022003FFFFFFFFFF02200BFFFF92
:10001000FFFFFF020E61FFFFFFFFFF02201BFFFF3C
:10002000FFFFFF022023FFFFFFFFFF02202BFFFF48
:10003000FFFFFF022033FFFFFFFFFF020EA4FFFFC1
:10004000FFFFFF022043FFFFFFFFFF02204BFFFFE8
:10005000FFFFFF022053FFFFFFFFFF02205BFFFFB8
:10006000FFFFFF022063FFFFFFFFFF02206BFFFF88
:10007000FFFFFF022073FFFFFFFFFF02207BFFFF58
:10008000FFFFFF022083FFFFFFFFFF02208BFFFF28
:10009000FFFF70DFFFFF040000000002000000C847
:1000A0000300030369A5020269A501000000000026
:1000B00004003273000074F8121046900393E0605D
:1000C0001590030274FEF0900304744DF0A37405C0
:1000D000F07A011206857F0102116374F71210464F
:1000E00074FF12126B7E00801F851882851983E0D1
:1000F00064FE70069003877401F085188285198369
:10010000E0F8900384E068F07C017D00AA18AB1948
:10011000120E1C8B09EA450970030201F38518824F
:10012000851983E064EF70027E07E0C0E0900387EA
:10013000E0FA900385E0F8EA28F8E43400F9740264
:1001400028F582740339F583D0E0F0900387E060EE
:100150009814600E14602C14603C14605214606893
:100160008098900384E4F0851882851983E09003D9
:1001700086F0C394809003874004E40200F974027F
:100180000200F9851882851983E0900382F09003BC
:100190008774030200F9851882851983E090038330
:1001A000F0900386E0601990038774040200F990D0
:1001B0000385E004F0F8900386E06860030200FA2B
:1001C00090038774050200F9900385E4F09003879B
:1001D000F0900384E0F8851882851983E068600355
:1001E0000200FA900382E0644D60030200FA1203F9
:1001F000288002EEF974011212377F020211637433
:10020000F712104674FB12126BEAFEEBFF7508043E
:1002100075090078081212CF74021212E87A907BE6
:10022000007904120EC574021212371206771213E7
:1002300039E0687003A3E06970128518828519831C
:10024000E0F47003A3E0F4600302030874041212E4
:10025000E01206DD8A088B09A808A90974021213A6
:1002600039E8F0A3E9F07404121339E06008790169
:100270001200B6020321851882851983E068700395
:10028000A3E0697076851882851983E0F47003A372
:10029000E0F4701974021213397410F0A37420F092
:1002A0008518828519837410F0A37420F0750801F5
:1002B00075090078081212CF74021212E87A247BB2
:1002C00008120F49740212123775080478081212C6
:1002D000CF74021212E87A907B007904120EC57472
:1002E00002121237120677121339E0687003A3E086
:1002F000697004790280067904800279031200B6DD
:100300008E828F83741E80058E828F83E4F01206A6
:1003100077121339E0687003A3E0697004790180F3
:1003200002790074050201F774ED12104674F81298
:10033000126B900307E0FD900306E0FCFAEDF8E491
:10034000C8F9EA28FEE93408FF751001750B00753D
:100350000A068E088F0974027808121296C395084F
:10036000F8E49509F9740228F50E740339F50F8E37
:10037000088F09740978081212F0E508F511EE24C7
:1003800010F508E43FF509EEF50CEF5401F50D907A
:100390000383E014605914700302046414700302B0
:1003A00004DF14601024FE700302059A1470030227
:1003B000064A02065A750A03794E120C5B9003072F
:1003C00012066D7402F0A3744012066B74081206D4
:1003D0006BF0A3F07418C3940704F510AA10A90BCE
:1003E000120685A90A74081212377F0C0211637570
:1003F0000A04794E120C5BEE450D7005A911120F1F
:10040000AFC3EE9425EF9408503CC3E5089424E56F
:100410000994084031E50E2496F8E50F3420F98858
:10042000828983E0701BA3AA82AB83E070139003E0
:10043000887401F08882898374A5F08A828B838016
:1004400004900388E4F0750810750900780812120A
:10045000CF7C087D03EEFAEFFB120F4974021212F3
:10046000370203DC750A05E511C394794006750B64
:10047000010203DC75124075130078121212CF7C52
:10048000097D037402780C121296AA0CAB0DA91107
:10049000120EC57402121237900307E0A3F0900306
:1004A00006E0A3F0751043C3EE9425EF94084003D3
:1004B0000203DCC3E5089424E50994085003020311
:1004C000DC900388E070030203DCE50E2497F8E576
:1004D0000F3420F988828983E4F0A3F00203DC75ED
:1004E000080475090078081212CF74021212E87A13
:1004F000907B007904120EC5740212123774021236
:100500001339E0F8A3E0F9851882851983E0687053
:1005100003A3E069851882851983700BE0F47003EA
:10052000A3E0F470578009E0F47003A3E0F4700DC9
:100530008518828519837410F0A37420F012067751
:10054000121339E8F0A3E9F075080178081212CF08
:1005500074021212E87A247B08120F4974021212F4
:100560003775080478081212CF74021212E87A90D4
:100570007B007904120EC57402121237120677122C
:100580001339E0687003A3E0697006750A0102037D
:10059000DC750A02750B070203DC900391E060072B
:1005A000640260030203DCEDFF7A01790012068524
:1005B000E0600302063E8003120D1C120D26E97056
:1005C000F7740412133912065F7404121339780891
:1005D00012131D85080C85090D850A0E850B0F90D9
:1005E00005A2780C1212BC7404121339780C121381
:1005F0000EE5084509450A450B70CE8EC2E5C55487
:10060000E04FF5C5740412133912065F7404121317
:1006100039780812131D85080C85090D850A0E8589
:100620000B0F9005A2780C1212BC740412133978C7
:100630000C12130EE5084509450A450B70CE7A01E8
:10064000790012068579080203E5EC900393F070B7
:10065000030203DC750A090203DC79060203E5E400
:10066000F0A37426F0A3E4F0A3F022F0A3E4F0A337
:10067000F0A3F0A3F0A322851882851983E0F8A3E4
:10068000E0F974022274F8121046EAFE900305E0C5
:10069000D2E7F0E9A3F0EE900303F08E0874042A89
:1006A000FE7C028004E062080CECFA3395E0FB74F7
:1006B000022AF58274033BF583EEF8C3EA98EB94C3
:1006C00000A2D265D03340DDE508F074012A0C3376
:1006D00095E0FD7A027B03120E4C0200D674E912FB
:1006E00010467582007583FE1211FE8A168B1775EF
:1006F00014007515008A828B83E4F0900391E070FA
:1007000006D2AAD2AF80046402700579001200B646
:10071000750C00750D20750E00750F00900391E0AB
:10072000600464027015120D1C1200DBE9F87409F4
:1007300068600302080D79001200B675080075099B
:100740000278081212CF74021212E8850C08850D87
:1007500009AA08E5095407FB850E0A850F0B740BDF
:100760007808121252A908120EC574021212377EAE
:10077000007F009005AAC0828E10EFF5113395E03E
:10078000F512F513850C08850D09850E0A850F0BEA
:10079000780879101212A99005A678081212BC7573
:1007A0008305D08278081211DF501D8518828519C3
:1007B00083E5822EF582E5833FF583E0F9AA14AB49
:1007C0001512083C8A148B150EEE70010FC3EF94BE
:1007D0000240A09005AE780C1212BC9005B2780CC5
:1007E0001211DF400302071C7900AA14AB1512088E
:1007F0003C790012083C8B15900391E07004C2AF65
:10080000C2AAEA451570277AA57BA58021E8700366
:1008100002073B740668700302073B7407687003A5
:1008200002073B8516828517837401F080BA7582B2
:10083000007583021211FE7F10021163C008C00907
:100840007C088A088B09740F78081212F0E508F802
:10085000EA25E0FAEB33FBE9A2E7500474014AFA17
:10086000E8A2E0500874216AFA74106BFBE9C33304
:10087000F91CEC70CDD009D0082274F8121046781B
:10088000007900802274942EF582E43403F583E02D
:100890008A828B83F09004141209FA4005900414A4
:1008A000E4F008E8700109900414E0FEA3E06E6033
:1008B00007C3E89CE99D40CDE8FAE9FB7F010211FE
:1008C0006374F7121046900498E0F509A3E0F50868
:1008D000F8E509C398F895E0F9E508C39509E850EB
:1008E0000B120ADC701178007900801B247F500104
:1008F00009C39CE99D50EF7A007B008041E004F041
:10090000D2E908E8700109C3E89CE99D502C8A826D
:100910008B83E0C0E0900499E0FE74182EF582E429
:100920003404F583D0E0120ACC90049AE4F09004E9
:1009300099E0C3947F40C6E480C5E8FAE9FB7F02F2
:10094000021163C082C083C2E9900498E0F8A3E07A
:10095000686017741828F582E43404F583E0F5C163
:10096000900498120AF34002E4F0020D3A74F8126F
:1009700010467800790090051DE07055A3E0705195
:1009800075F900C28FC284A28340FCA28F4004A2EA
:100990008350F8AEF9C28FA2835004D2848032EE25
:1009A000C0E0E0FE1209EFD0E0F090051E120AF35D
:1009B00040D9E4F080D51209EFE08A828B83F09071
:1009C000051D1209FA400590051DE4F008E87001C4
:1009D0000990051DE0FEA3E06E6007C3E89CE99D59
:1009E00040D4E8497006E4F090051DF00208B874A0
:1009F0009D2EF582E43404F58322E004120AD0C36C
:100A000094802274F81210469005A0E0FEF890053C
:100A10009FE0FFEEC39FE0500DC398F895E0F912F8
:100A20000ADB70188012C398F895E0F9E8247F502B
:100A30000109C39CE99D4004EC4D70077A007B00DE
:100A4000020AC98A828B83E0F5F9A3AA82AB837874
:100A50000179008008E004F008E8700109C3E89C0F
:100A6000E99D50278A828B83E0C0E09005A0E0FEDC
:100A7000741F2EF582E43405F583D0E0120ACC9081
:100A800005A0E0C3947F40CDE480CCC28FA2834018
:100A9000FCC284A28F4004A28350F890059F120AE2
:100AA000E6E0F5F9C28F90059FE0FAA3E06A9005B1
:100AB0009F7005120AE68005120AF34002E4F0A2D4
:100AC0008350D0D284E8FAE9FB0208BC120AD02293
:100AD000F08A828B83A3AA82AB8322E824FF18E9E1
:100AE00034FFF9E84922E0FA741F2AF582E434055C
:100AF000F58322E004F0C394802274FB12126B7E13
:100B0000009005CA780812131D9005CA7401F0A35D
:100B1000F0A37469F0A374A5F09005B678081212DA
:100B20008170047E0180159005BA780812128160E8
:100B300008E59D541864107003022000120C81EE29
:100B4000A2E05003020BFEAA18AB191201FFE970D4
:100B500003020BFE851882851983E0C3943C500C78
:100B6000E0F8743CC398FA95E0FB80047A007B00BF
:100B7000120D3FE97003020BFE900391E0640170D7
:100B80000C75F800C2AB539AF7D2EA805E7907126F
:100B900000B68003120D1C120D26E970F7740112C5
:100BA0001339E4F0A37426F0A3E4F0A3F074011267
:100BB0001339780812131D85080C85090D850A0E56
:100BC000850B0F9005A2780C1212BC740112133918
:100BD000780C12130EE5084509450A450B70CE75D1
:100BE0008600C2AAC28B539AFBC2E990000174CD61
:100BF000F0022000C2AF75C9AB75C95B80FE7508F5
:100C000000750900750A00750B00900391E0701BD8
:100C1000D2AAD2AF79051200B6E07003120D1C12F1
:100C200000DBE9F8740968700980E9794E120C5B01
:100C300080ED74016870E2E07017120D1C9005BE23
:100C400078081212BC9005C278081211DF50EBC26E
:100C5000AAC2AF75C9AB75C95B80FEC082C083787C
:100C6000109005A1E0C399501575B60FE5B4A2E741
:100C700050FAE5BBC39940F118E870EDE9F0020DB8
:100C80003AC082C08353BEFBE59DA2E650FA0078CD
:100C9000F8790100120ADB70FA75C6807480659ECF
:100CA00070FA43BE049062707408F0794A120C5BCB
:100CB00090000174F5F07403F5D575D489A2A0E411
:100CC00033900391F0A2E05029D28453F3F753F309
:100CD000EF53FDF743FD10538FF753F7DF43FC202D
:100CE00043F10253F5DF75F82043F4F0D2FED2ABA6
:100CF000802853FF3F85FFFF53F1FE43F30C53F26F
:100D0000F375868075C48090049BE4F0A3F075C2EF
:100D1000D875C50B75C402438640801E8003120936
:100D200043A2E940F922C082C083900498E0F8A36E
:100D3000E0686004790180027900D083D082227457
:100D4000F112104674FF12126B7E00900391E06462
:100D500001706CC2849003927401F07508388E099A
:100D60008E0A8E0B7C017D00AA18AB19120E1C8B0B
:100D70000DEA450D6018851882851983E0641060BE
:100D80002DE064EF70088E088E098E0A8E0B8508A0
:100D90000C85090D850A0E850B0F9005A2780812A7
:100DA00012BCE50C450D450E450F70347E019003D5
:100DB00091E064017056D284900392E4F08051D2A5
:100DC000AAD2AF8A088B09E4F50AF50B9005C6781C
:100DD0000C12131D7808790C120FC679061200B692
:100DE000900391E06003020D64120D1C1200DBE918
:100DF000F8740968700779061200B6809174076864
:100E00006084E8608974066870A48082C2AFC2AA58
:100E1000EEF974011212377F08021163C082C08399
:100E2000900391E0700512087A801E900392E060B2
:100E300015A28F500BE5F98A828B83F07A0180022C
:100E40007A007B00800312096D020D3AC082C083D4
:100E5000900391E070051208C18003120A03020D8D
:100E60003AC0E074F21210AC900001E064CD70055D
:100E7000122013802AE064F57024E5C1C28BC0E023
:100E8000900415E0F8749428F582E43403F583D0D7
:100E9000E0F0900415120AF34005E4F08001007FB1
:100EA0000102110BC0E074F21210AC900001E0647A
:100EB000CD700512203B800BE064F57005120943EC
:100EC00080010080DA74F6121046890A740F550A00
:100ED000F508750900740B7808121296EA2400F8D8
:100EE000EB3480F9E82400E93509F985C709A2AF98
:100EF000E433F508C2AFE50AC4540FFAE5C754F865
:100F00004AF5C7740A121339E0FAA3E0FB801C8883
:100F1000828983E08C828D83F088828983A3A88272
:100F2000A9838C828D83A3AC82AD83EAFEEBFFEEB6
:100F300024FF1AEF34FFFBEE4F70D48509C7E50894
:100F4000A2E092AF7F0302116374F7121046ED9096
:100F50000389F0ECA3F0A37462F0A37473F0A3E030
:100F6000541FF07409121339E0F508A3E0F509E500
:100F700008333354FC90038EF0740678081212F094
:100F8000E50890038DF090038F7412F0A37442F083
:100F900075D1FE75D601EA906271F0EBA3F0906214
:100FA00070E0D2E1F0E0A2E740FB7F02021163C0F3
:100FB00082C083E9C333906272F0906270E0D2E045
:100FC000F0D083D08222080808EAC0E0EBC0E086B7
:100FD000F0E7A4FA180986F0E7A42AFA180986F0BF
:100FE000E7A42AFA180986F0E7A42AFA1986F0E796
:100FF000A4FBE5F02AFA190886F0E7A42BFBE5F03C
:101000003AFA190886F0E7A42BFBE5F03AFA18182B
:101010000986F0E7A4C5F02BFBE43AFA1908E7C506
:10102000F0C6A426F6E5F03BFBE43AFA1886F0E7B2
:10103000A4F6E5F00826F6E43B08F6E43A08F6D014
:10104000E0FBD0E0FA222518C582C0E0E51934FFA4
:10105000C583C0E0E518C3958224F910AF088583E5
:10106000198582188008858319858218D2AFCEF041
:10107000A3E520F0A37808E608F0A3DEFAEFF0A3DA
:10108000E58124FBF8E608F0A3E608F0A30808E6EB
:1010900008F0A3E608F0A315811581D0E0FED0E0AA
:1010A000F815811581E8C0E0EEC0E022C0D0251817
:1010B000C582C0E0E51934FFC583C0E0E518C395DB
:1010C0008224F310AF0885831985821880088583F0
:1010D00019858218D2AFC8F0A3E9F0A3EAF0A3EB18
:1010E000F0A37908E709F0A3D8FAECF0A3EDF0A398
:1010F000EEF0A3EFF0A3D0E0F0A3D0E0F0A3D0E0B7
:10110000F0A3E520F0A3E5F0F0A32285198385186C
:1011100082E0C0E0A3E0F9A3E0FAA3E0FBA3780833
:10112000E0F608A3DFFAE0FCA3E0FDA3E0FEA3E005
:10113000FFA3E0C0E0A3E0C0E0A3E0F5D0A3E0F5AA
:1011400020A3E0A3F5F010AF0885831985821880ED
:1011500008858319858218D2AFD082D083D0E0F879
:10116000D0E032851983851882E0A3FEE0A3F52044
:101170007808E0A3F608DFFAE0A3FFE0A3C0E0E010
:10118000A3C0E0E0A3C0E0E0A3C0E010AF08858208
:10119000188583198008858218858319D2AFD0837A
:1011A000D08222E490030278A179038002F0A3D8D0
:1011B000FCD9FA7AA27B0590008E782979018015F6
:1011C000E493A3AD82AE838A828B83F0A3AA82AB21
:1011D000838D828E83D8E9D9E7120AFA121343C0AD
:1011E00008C3E096F50808A3E096420808A3E09635
:1011F000420808A3E09645087001D3D00822C582B2
:101200002518C582C583351910AF07F519858218D1
:101210008007F519858218D2AFC583222518F5827B
:1012200010AF08F518400C15198008F51840021584
:1012300019D2AF8519832200C0D0251810AF08F548
:1012400018500C05198008F51850020519D2AFD0B6
:10125000D0226016080808C6C313C618C613C618DD
:10126000C613C618C613C6D5E0EA22251810AF0863
:10127000F518400C15198008F51840021519D2AF61
:1012800022E066701008A3E066700A08A3E06670AA
:101290000408A3E06622700422600D18C6C333C69A
:1012A00008C633C6D5E0F41822E627F60809E63763
:1012B000F60809E637F60809E637F622E026F608CA
:1012C000A3E036F608A3E036F608A3E036F622746B
:1012D000028000C0E0F40412121CD0E012132C2291
:1012E0002518FAE43519FB222518FCE43519FD22EE
:1012F000600C08C6C313C618C613C6D5E0F4227521
:10130000D00075813F7518027519030211A3E6F02C
:1013100008A3E6F008A3E6F008A3E6F022E0F6084A
:10132000A3E0F608A3E0F608A3E0F622CAC0E0E6D0
:10133000F0A308DAFAD0E0FA222518F582E435198C
:10134000F5832200000080FBFFFFFFFFFFFFFFFF90
:10135000FFFFFFFFFFFFFFFFFFFFFFFFFFFFFFFF9D
:10136000FFFFFFFFFFFFFFFFFFFFFFFFFFFFFFFF8D
:10137000FFFFFFFFFFFFFFFFFFFFFFFFFFFFFFFF7D
:10138000FFFFFFFFFFFFFFFFFFFFFFFFFFFFFFFF6D
:0A1FF600CA05094338860000000008
:020000040003F7
:01FFF000F020
:020000040000FA
:10200000022C6A0221FBFFFFFFFFFFFFFFFFFFFF24
:10201000FFFFFFFFFFFFFFFFFFFFFFFFFFFFFFFFD0
:10202000FFFFFFFFFFFFFFFFFFFFFF022904FFFF8E
:10203000FFFFFFFFFFFFFFFFFFFFFFFFFFFFFFFFB0
:10204000FFFFFF022759FFFFFFFFFFFFFFFFFFFF1B
:10205000FFFFFF022135FFFFFFFFFFFFFFFFFFFF35
:10206000FFFFFFFFFFFFFFFFFFFFFF02292DFFFF25
:10207000FFFFFFFFFFFFFFFFFFFFFFFFFFFFFFFF70
:10208000FFFFFF02218C01FFFFFFFFFFFFFFFFFFAC
:1020900010201020010105030101FF0F10FEFFDADF
:1020A0004B00000000104B00000000FF000000FF8C
:1020B000000196511800020000613D00000000FB85
:1020C0003CDF3D313DA93D0000253D000000000002
:1020D0000000000000000000000000000000000000
:1020E00000000006FFFFFF01010400D41B000000F8
:1020F000E8030000FFFFA31CE80300006400640085
:10210000B801A0BB0D00A0BB0D000202000800003A
:102110000502070101051E02051E020A0A01080840
:1021200003B80B02803E0102FEFFE8030A0500012E
:10213000FFFF0A01E0C0E074F2122577A2AFE4339A
:10214000F508D2AFAFA7AEA1EE5F54106006123A09
:102150007F75A1EFEE5F54086008123A8575A1F70C
:102160008023EEA2E092F0EFA2E082F0501790619F
:1021700098E0F8900B51E0C398A2D265D03350029A
:10218000E8F075A1FE751A00E5088066C0E074F2FB
:10219000122577A2AFE433FED2AF9061A4E0F875C8
:1021A0009B00E59158540860087591F7123ACD806C
:1021B00023E59158541060087591EF123AD38014BA
:1021C000E591A2E092F0E8A2E082F05007E0C2E0E0
:1021D000F0123C299061A3E0F8E5E9585404600E40
:1021E000123BFF75E9FB906193E0A2E640F2751A9D
:1021F00000EEA2E092AF7F010225D6C0E074F21299
:102200002577A2AFE433FED2AF9061A5E0F8E5BF39
:10221000585404600675BFFB123C4180D1C3E4985A
:10222000F8E499F912225E8026C3E49AFAE49BFB53
:10223000E920E7E912225EE498F8E499F922C3E480
:1022400098F8E499F912225EE498F8E499F9C3E465
:102250009AFAE49BFB22EB20E7CFE920E7E0B90004
:1022600010BB0008E88AF084F8AAF022E4FBC8FA60
:1022700022EB70227B10C833C8C933C9335007C35F
:102280009AC3DBF280069A50012ADBEAC833F4C80D
:10229000C933F4C9FA2275F008E4C833C8C933C990
:1022A00033C99AC99B5004C92AC93BD5F0ECFBC875
:1022B00033F4C8E4C9FA2274F512251174FA122A0B
:1022C000C77508047509007808122A517404122A87
:1022D000A77AF87B0779031239597402122A2E90D3
:1022E00080F17808122C7A7402122D077808122ACD
:1022F000F370497508027509007808122A517402B2
:10230000122AA77AF67B0779031239597402122A26
:102310002E851882851983E0F47003A3E0F4601C15
:10232000851882851983E0F8A3E0F988828983748F
:1023300002F0A3F0A37469F0A374A5F0C2AF75D640
:102340009F0200007406122A2E7F0402279C0808B0
:1023500008EAC0E0EBC0E086F0E7A4FA180986F0CE
:10236000E7A42AFA180986F0E7A42AFA180986F0E1
:10237000E7A42AFA1986F0E7A4FBE5F02AFA19087F
:1023800086F0E7A42BFBE5F03AFA190886F0E7A4FB
:102390002BFBE5F03AFA18180986F0E7A4C5F02BF4
:1023A000FBE43AFA1908E7C5F0C6A426F6E5F03BC7
:1023B000FBE43AFA1886F0E7A4F6E5F00826F6E41E
:1023C0003B08F6E43A08F6D0E0FBD0E0FA22E4CF8E
:1023D000C0E0E4CEC0E0E4CDC0E0E4CCC0E075F005
:1023E00020E626F608E633F608E633F608E633F686
:1023F000181818EC33FCED33FDEE33FEEF33FFC35A
:10240000EC9709ED9709EE9709EF97191919400F05
:10241000FFEC97FC09ED97FD09EE97FE191906D51B
:10242000F0BFECF709EDF709EEF709EFF719191905
:10243000D0E0FCD0E0FDD0E0FED0E0FF222518C5C2
:1024400082C0E0E51934FFC583C0E0E518C395827A
:1024500024F810AF088583198582188008858319B0
:10246000858218D2AFCEF0A3E520F0A37808E60865
:10247000F0A3DEFAEFF0A3E58124FAF8E608F0A372
:10248000E608F0A3E608F0A30808E608F0A3E608CB
:10249000F0A315811581D0E0FED0E0F815811581FB
:1024A0001581E8C0E0EEC0E022122CFCB900030266
:1024B00024FBE49004D17889791A8002F0A3D8FC37
:1024C000D9FA781A9020867A01BA00028007E4933C
:1024D000A3F608DAF97A597B1E90209478A2790144
:1024E0008015E493A3AD82AE838A828B83F0A3AA86
:1024F00082AB838D828E83D8E9D9E775824D75834F
:102500009B74061229F575820D7583497400122992
:10251000F52518C582C0E0E51934FFC583C0E0E5A4
:1025200018C3958224F910AF088583198582188015
:1025300008858319858218D2AFCEF0A3E520F0A3D9
:102540007808E608F0A3DEFAEFF0A3E58124FBF8B3
:10255000E608F0A3E608F0A30808E608F0A3E608FA
:10256000F0A315811581D0E0FED0E0F8158115812A
:10257000E8C0E0EEC0E022C0D02518C582C0E0E58A
:102580001934FFC583C0E0E518C3958224F310AF6A
:10259000088583198582188008858319858218D259
:1025A000AFC8F0A3E9F0A3EAF0A3EBF0A37908E742
:1025B00009F0A3D8FAECF0A3EDF0A3EEF0A3EFF04E
:1025C000A3D0E0F0A3D0E0F0A3D0E0F0A3E520F0AA
:1025D000A3E5F0F0A322851983851882E0C0E0A36B
:1025E000E0F9A3E0FAA3E0FBA37808E0F608A3DF94
:1025F000FAE0FCA3E0FDA3E0FEA3E0FFA3E0C0E05F
:10260000A3E0C0E0A3E0F5D0A3E0F520A3E0A3F5AC
:10261000F010AF0885831985821880088583198595
:102620008218D2AFD082D083D0E0F8D0E032E47309
:1026300075F0108E218F228582268583258518824C
:10264000851983E0CEA3E0CF852682852583EBC95B
:10265000EAC8EDCBECCAC3E833C8E933C9EA33CAE8
:10266000EB33CBC3EA9EF524EB9FF523B35004ABC9
:1026700023AA24EC33CCED33CDD5F0DAAE21AF2252
:1026800022D083D082ECC0E0EDC0E0E493A3FCE470
:1026900093A3FDED4C600D1227DCEC24FFFCED3420
:1026A000FFFD80EFE493A3FCE493A3FDED4C600DEC
:1026B0001228AFEC24FFFCED34FFFD80EFD0E0FDED
:1026C000D0E0FCE493A3C0E0E493C0E0228519834A
:1026D000851882E0A3FEE0A3F5207808E0A3F608C1
:1026E000DFFAE0A3FFE0A3C0E0E0A3C0E0E0A3C006
:1026F000E0E0A3C0E0E0A3C0E010AF088582188549
:1027000083198008858218858319D2AFD083D0823F
:102710000229FBD083D082E9C0E0E493A3C386F012
:10272000C5F095F0F908E493A386F0C5F095F07034
:102730000BE493A3C3994005E9048002A3E475F078
:1027400002A42582F582E5F03583F583D0E0F9E433
:1027500093A3C0E0E493C0E022C0E074F2122577B6
:10276000A2AFE433FED2AFC2C0901D51E0700BE5C2
:10277000D1A2E4501D1239DD8018E5D1A2E3500644
:1027800075D1F71239B3E5D1A2E4500675D1EF1235
:1027900039B9EEA2E092AF7F010225D68519838573
:1027A0001882E0A3FEE0A3F5207808E0A3F608DF96
:1027B000FAE0A3FFE0A3C0E0E0A3C0E0E0A3C0E034
:1027C000E0A3C0E010AF08858218858319800885D2
:1027D0008218858319D2AFD083D08222C0E0C3E4AF
:1027E0009396087401939618400FE4936670080856
:1027F000740193661870007019A3A3C3E49396083C
:102800007401939618A3A3400DD0E0D0E0D0E0026D
:1028100026BDA3A3A3A3A3A3D0E022D083D082C5C7
:10282000F0E493A3C5F0C395F0F5F0E493A3C3954A
:10283000F04005E5F0048001E475F002A42582F57E
:1028400082E5F03583F583E493A3C0E0E493C0E030
:10285000227404800474028000CCC0E0EDC0E0E586
:1028600018C39CCCAD1950011D10AF068C188D19E2
:1028700080068C188D19D2AF122977D0E0FDD0E0F8
:10288000FC2274028000CCC0E0EDC0E0E518C39CDF
:10289000CCAD1950011D10AF068C188D1980068C17
:1028A000188D19D2AF122955D0E0FDD0E0FC22C01E
:1028B000E0C0F088F0E4936670080874019366182D
:1028C0007000A8F0A3A3700BD0F0D0E0D0E0D0E06F
:1028D0000226BDA3A3D0F0D0E022D083D082CCC00A
:1028E000E0E493A360061229D61470FAE493A3607F
:1028F00006122ADD1470FAD0E0FCE493A3C0E0E4F1
:1029000093C0E022C0E0C0D0E8C0E0E9C0E0A9A8E0
:10291000D2AFC2C7751A00E9A2E7E433F8E9A2E72B
:1029200092AFD0E0F9D0E0F8D0D0D0E032C0E0747F
:10293000F2122577758900C2C5901D51E0700E7A9C
:10294000007B10900BE7E0F9123F11800312476300
:102950007F010225D6CAC0E0E493A3C582CCC5821C
:10296000C583CDC583F0A3C582CCC582C583CDC543
:1029700083DAE5D0E0CA22CAC0E0E0A3C582CCC5B4
:1029800082C583CDC583F0A3C582CCC582C583CD66
:10299000C583DAE6D0E0CA2270090808082260166A
:1029A000181818C6C333C608C633C608C633C608C7
:1029B000C633C6D5E0EA22C008C3E096F50808A3EE
:1029C000E096420808A3E096420808A3E09645086E
:1029D0007001D3D00822C0E0E493A3D39C5010E44C
:1029E00093A3C39C400AD0E0D0E0D0E00228F7A334
:1029F000A3A3D0E022C09FF59FE473D09F22D08391
:102A0000D082C09FE493C0E0740193C0E07402934D
:102A1000F59F222518F58210AF08F518400C1519FE
:102A20008008F51840021519D2AF8519832200C01D
:102A3000D0251810AF08F518500C05198008F518A6
:102A400050020519D2AFD0D0227404800A740380DA
:102A500006740280027401C0E0F404122A13D0E06C
:102A6000122CA722BB0102E722C082C08389828A7E
:102A700083BB0003E08002E493D083D082226016FF
:102A8000080808C6C313C618C613C618C613C61846
:102A9000C613C6D5E0EA222518F8E43519F922252F
:102AA00018FAE43519FB222518FCE43519FD22C378
:102AB000E0C696F608A3E0C696F608A3E0C696F62A
:102AC00008A3E0C696F622251810AF08F518400CAA
:102AD00015198008F51840021519D2AF22C0E0E49C
:102AE00093A36C7009D0E0D0E0D0E00228F7A3A354
:102AF000D0E022E066701008A3E066700A08A3E048
:102B000066700408A3E06622E76670100809E766AD
:102B1000700A0809E76670040809E76622C3E096B0
:102B200008A3E09608A3E09608A3E096A2D265D099
:102B30003322C3E096F008A3E096F008A3E096F0F5
:102B400008A3E096F022C3E697F60809E697F60890
:102B500009E697F60809E697F622C3E49396087407
:102B60000193960874029396087403939622E627BD
:102B7000F60809E637F60809E637F60809E637F6F3
:102B800022E026F608A3E036F608A3E036F608A30E
:102B9000E036F622E493F608740193F60874029383
:102BA000F608740393F622E647F60809E647F608A6
:102BB00009E647F60809E647F622E657F60809E669
:102BC00057F60809E657F60809E657F622E056F6E2
:102BD00008A3E056F608A3E056F608A3E056F6224E
:102BE000E056F008A3E056F008A3E056F008A3E092
:102BF00056F022E026F008A3E036F008A3E036F015
:102C000008A3E036F022700422600D18C6C333C654
:102C100008C633C6D5E0F41822E4C396F608E49655
:102C2000F608E496F608E496F622C6F4C608C6F45A
:102C3000C608C6F4C608C6F4C622600D08C6A2E7D8
:102C400013C618C613C6D5E0F322C3E7960809E7F2
:102C5000960809E7960809E79622C3E09608A3E0DC
:102C60009608A3E09608A3E0962275D00075813FF0
:102C70007518D1751904000224A9E0F608A3E0F63E
:102C800008A3E0F608A3E0F622600C08C6C313C64A
:102C900018C613C6D5E0F422E6F008A3E6F008A3B0
:102CA000E6F008A3E6F022CAC0E0E6F0A308DAFAEC
:102CB000D0E0FA22E0F8A3E0F9A3E0FAA3E0FB22D7
:102CC000E0FCA3E0FDA3E0FEA3E0FF22EAF0A3EB1B
:102CD000F0A3ECF0A3EDF022E0FAA3E0FBA3E0FC0C
:102CE000A3E0FD22ECF0A3EDF0A3EEF0A3EFF022C1
:102CF000E8F0A3E9F0A3EAF0A3EBF022E5C754F86B
:102D00004401F5C77901222518F582E43519F583C8
:102D1000221229FE1FA5021229FE50A6021229FE28
:102D20008CA6021229FE66A8021229FEECAB021242
:102D300029FE00AC021229FE0AAC021229FE14ACD4
:102D4000021229FE1EAC021229FE28AC021229FE34
:102D500041AC021229FE4BAC021229FEC2AC021297
:102D600029FECDAC021229FEFCAC021229FE24ADD4
:102D7000021229FE2FAD021229FE94AD021229FE85
:102D80009EAD021229FEA9AD021229FECDAD02129E
:102D900029FEF1AD021229FE5FAE021229FEA8AE95
:102DA000021229FEC4AE021229FE39AF021229FE18
:102DB00085AF021229FECEAF021229FE53B00212D5
:102DC00029FEFAB0021229FECBB2021229FE30B35C
:102DD000021229FE5EB4021229FE84B4021229FEF8
:102DE000CCB5021229FE06B9021229FE04BB02125A
:102DF00029FECFBC021229FE68BD021229FE66BF61
:102E0000021229FE1BC0021229FE54C0021229FE22
:102E1000C4C0021229FECEC0021229FEFBC2021259
:102E200029FEFEC3021229FE3BC5021229FE92C5ED
:102E3000021229FE3DC6021229FEEDC7021229FE2A
:102E40003AC9021229FE5AC9021229FEAFC902125A
:102E500029FEB0CA021229FED8CA021229FE37CBB7
:102E6000021229FE2FCC021229FEA6CC021229FE44
:102E7000B9CD021229FE27CE021229FE26CF021258
:102E800029FE7CD1021229FEA5D1021229FE0BD304
:102E9000021229FE8DD4021229FEE4D4021229FE68
:102EA00097D5021229FE34D6021229FE97D60212B5
:102EB00029FE55D7021229FEE7D7021229FE46D86D
:102EC000021229FE88D8021229FEC0D8021229FE59
:102ED00016DA021229FE0080031229FE3280031244
:102EE00029FE6B80031229FEB481031229FEF881AA
:102EF000031229FECA82031229FE2283031229FE2D
:102F00003884031229FE8484031229FEEA86031200
:102F100029FE8989031229FECC8A031229FE668BB9
:102F2000031229FE728B031229FEB28B031229FEB3
:102F3000F18C031229FEEA8D031229FE148E03126E
:102F400029FE678E031229FEC08E031229FE218FEF
:102F5000031229FE3C91031229FECD92031229FE91
:102F6000B793031229FEF994031229FE3597031231
:102F700029FE019A031229FE109A031229FEA49A2F
:102F8000031229FE589B031229FE9B9B031229FE64
:102F9000E49B031229FE2D9C031229FE919C03122F
:102FA00029FEFF9C031229FE1B9D031229FE4A9D48
:102FB000031229FE899D031229FE7C9E031229FE1D
:102FC0002B9F031229FEA3A1031229FEF0A20312D4
:102FD00029FEC3A3031229FE45A4031229FE3CA81F
:102FE000031229FE6BA8031229FEC6A8031229FEAC
:102FF000F9A8031229FE69A9031229FEA1A9031247
:1030000029FEF1A9031229FE99AB031229FEBDABDB
:10301000031229FEE4AB031229FEF1AB031229FED1
:10302000F4AB031229FE23AC031229FEF8AD031200
:1030300029FEB7AE031229FEE6AE031229FE03B045
:10304000031229FED7B0031229FE99B2031229FEFA
:1030500009B3031229FE3BB3031229FEA1B30312E5
:1030600029FEB0B3031229FEDDB3031229FEF7B324
:10307000031229FE6AB4031229FEB8B6031229FE10
:1030800017B7031229FE6BB7031229FEA6B9031264
:1030900029FE92BA031229FE1ABB031229FE01BCB3
:1030A000031229FE8BBC031229FE9FBC031229FECA
:1030B000B3BC031229FEC7BC031229FEDBBC0312FA
:1030C00029FE08BD031229FE38BD031229FE12BFD6
:1030D000031229FED9BF031229FE82C0031229FE62
:1030E000DFC0031229FE2DC1031229FEA7C103125E
:1030F00029FEE2C1031229FE54C2031229FEA9C30C
:10310000031229FE57C4031229FE6FC4031229FEBD
:1031100012C5031229FE90C7031229FE24C9031207
:1031200029FE42C9031229FE4681011229FE888127
:10313000011229FE9086011229FEDC86011229FE69
:103140002287011229FE5488011229FEB988011232
:1031500029FEFD88011229FE838A011229FE928E22
:10316000011229FEEF8F011229FE7F9B011229FE19
:10317000029C011229FEEC9E011229FE51A00112AF
:1031800029FEB4A0011229FED6A1011229FE42A3F4
:10319000011229FE27A4011229FE9CA6011229FE74
:1031A0002AA8011229FEBBA8011229FEDAA90112E0
:1031B00029FE67AA011229FE71AA011229FE99AA05
:1031C000011229FE39AB011229FE26AC011229FE9B
:1031D000EEAC011229FE7BAD011229FE91AD011268
:1031E00029FEAEAD011229FED7AD011229FE04AEB3
:1031F000011229FE5FB0011229FE3AB1011229FE27
:103200007EB1011229FE00B2011229FEA1B2011203
:1032100029FED3B2011229FE27B3011229FE5AB3A7
:10322000011229FEB8B3011229FE07B4011229FECA
:103230000CB4011229FE68B4011229FEBAB40112BD
:1032400029FEA6B5011229FE0BB6011229FE69B6A8
:10325000011229FEE8B6011229FE54BA011229FE14
:1032600039BB011229FEE2BC011229FE30C0011255
:1032700029FED2C0011229FE27C3011229FEE2C392
:10328000011229FE2AC4011229FEE1C5011229FEFC
:10329000FEC5011229FE07C6011229FE10C6011241
:1032A00029FE1BC6011229FE3AC6011229FE5EC87C
:1032B000011229FEBBC8011229FEC5C8011229FE50
:1032C000CFC8011229FE2AC9011229FE86C901129E
:1032D00029FE9ECA011229FEFFCA011229FE10CC46
:1032E000011229FE59CC011229FE07CD011229FE37
:1032F00017CE011229FEDBCE011229FE17D00112D2
:1033000029FE28D1011229FE33D2011229FE4BD207
:10331000011229FE82D2011229FE8CD2011229FE4D
:1033200096D2011229FEA1D2011229FEBFD20112AA
:1033300029FE07D3011229FE65D3011229FE8FD37E
:10334000011229FEA1D3011229FE4AD4011229FE3D
:1033500083D4011229FEAFD5011229FE0CD6011229
:1033600029FEFDD6011229FE33D7011229FEA4D76A
:10337000011229FE20D8011229FEC4D9011229FE0A
:10338000EADA011229FEA8DB011229FE76DC01121D
:1033900029FEFBDC011229FEA6DD011229FE8FDECB
:1033A000011229FE28DF011229FE04E0011229FE84
:1033B0006CE0011229FE2BE1011229FE87E10112C6
:1033C00029FEEBE1011229FEB1E2011229FED4E24D
:1033D000011229FE7EE3011229FEA0E3011229FE5B
:1033E00001E4011229FE31E6011229FE1AE7011259
:1033F00029FEC6E7011229FEF3E9011229FE3CEA83
:10340000011229FE87EA011229FEDAEA011229FED9
:1034100038EB011229FE6AEB011229FE8EEB011234
:1034200029FEC3EB011229FEEBEB011229FE30EC61
:10343000011229FE8EEC011229FEECEC011229FE8C
:10344000DFED011229FE53EF011229FE98EF011260
:1034500029FEC1EF011229FE46F0011229FEABF050
:10346000011229FEB9F0011229FEDDF0011229FE38
:1034700033F1011229FE4EF1011229FE09F2011267
:1034800029FE35F2011229FE78F2011229FEDBF243
:10349000011229FED7F4011229FE03F5011229FEBB
:1034A000BEF5011229FEA2F6011229FE36F701121D
:1034B00029FE78B3051229FEB0B3051229FED1B357
:1034C000051229FE13B4051229FE77B4051229FE50
:1034D00081B4051229FE91B4051229FEC8B4051263
:1034E00029FE71B8051229FE39BA051229FE1DBC44
:1034F000051229FEBFBC051229FE49BD051229FE91
:103500005080041229FEF980041229FED881041289
:1035100029FEE482041229FE0483041229FE268473
:10352000041229FED685041229FE4386041229FEC0
:103530001487041229FE1A88041229FE92880412A4
:1035400029FECD88041229FE2689041229FE6189EC
:10355000041229FEAA89041229FE3E8A041229FEB9
:10356000D48A041229FEA98B041229FE7C8C041231
:1035700029FE0A8D041229FE308D041229FE5D8D6C
:10358000041229FE8E8D041229FE5B8E041229FE80
:103590006B8E041229FEBE8E041229FECB8E0412FD
:1035A00029FED88E041229FEE18E041229FE458FD1
:1035B000041229FEA38F041229FEEE8F041229FEA5
:1035C0000990041229FE3090041229FE4D90041235
:1035D00029FE5990041229FEEA91041229FE039251
:1035E000041229FE7F92041229FE9292041229FEEF
:1035F000A292041229FE4693041229FEB2940412E8
:1036000029FEC595041229FE6596041229FE6F96BF
:10361000041229FEEE96041229FEFF96041229FEDA
:103620003E97041229FE6C97041229FE3998041261
:1036300029FE9098041229FEC998041229FE1F99A8
:10364000041229FE3D99041229FE8B99041229FEC9
:10365000569A041229FEA49A041229FEF19A041221
:1036600029FE749B041229FE9E9B041229FED49B02
:10367000041229FEE39B041229FE429C041229FE37
:10368000BA9C041229FEFB9C041229FE4B9D0412D5
:1036900029FE769D041229FE909D041229FEAA9D02
:1036A000041229FE7F9E041229FE899E041229FE1F
:1036B000C49E041229FED49E041229FEDD9E04122B
:1036C00029FE2E9F041229FE429F041229FE64A0A7
:1036D000041229FE77A0041229FE8EA0041229FEEE
:1036E000A3A0041229FE36A1041229FEAAA10412E5
:1036F00029FE4FA2041229FE5AA2041229FEBDA3DC
:10370000041229FED9A3041229FE25A4041229FEBD
:1037100093A4041229FEC5A4041229FEDFA40412F6
:1037200029FE3FA5041229FEDEA5041229FE29A6C2
:10373000041229FE7CA8041229FE14A9041229FEF1
:103740008BA9041229FEE8AB041229FE00AC041276
:1037500029FE03AC041229FE0FAC041229FE23AC8F
:10376000041229FE2BAC041229FE62AC041229FEBD
:1037700056AD041229FEE0AD041229FE62AE041219
:1037800029FEE2AE041229FEB9AF041229FEDBAF16
:10379000041229FE74B0041229FED1B0041229FECD
:1037A000D4B0041229FE01B1041229FE16B104128C
:1037B00029FE85B1041229FED1B2041229FEE4B318
:1037C000041229FE6FB4041229FE82B5041229FEE8
:1037D00049B6041229FE7AB6041229FEA0B60412D4
:1037E00029FEA9B6041229FED8B6041229FE88B70C
:1037F000041229FE38B8041229FEABB8041229FEBF
:103800004EB9041229FEC1B9041229FE00BA0412ED
:1038100029FE49BA041229FE7EBA041229FE00804C
:10382000051229FE6D80051229FEB480051229FEBD
:103830002A81051229FE7C81051229FE02820512C9
:1038400029FE4684051229FE7586051229FE528A34
:10385000051229FED28A051229FE0D8B051229FEBA
:103860002B8B051229FE8B8B051229FEB38B0512BB
:1038700029FEE38B051229FE148C051229FE418CCA
:10388000051229FE9A8C051229FEE58C051229FEE7
:103890001C8D051229FE988D051229FEC48D051276
:1038A00029FEF68D051229FE588F051229FE748F08
:1038B000051229FEB28F051229FE3F90051229FE3E
:1038C0009B90051229FE6191051229FE2092051296
:1038D00029FE6592051229FEC692051229FE3B9328
:1038E000051229FE7593051229FECD93051229FEB6
:1038F000EF93051229FE8794051229FE2E950512D5
:1039000029FE7B95051229FEA495051229FEE59551
:10391000051229FE9297051229FE7698051229FEB6
:103920002799051229FEB4A6061229FEC5A606127D
:1039300029FE63A7061229FEF17F001229FED6FF99
:10394000021229FE7DA7061229FE8DA7061229FE66
:10395000A2A7061229FE33A8061229FEBEA406124B
:1039600029FE42A5061229FEA8A5061229FEF47F0B
:10397000001229FEBDFF021229FECDFF021229FE10
:10398000D0FF021229FED3FF021229FEF87F001297
:1039900029FE3999061229FE5B99061229FEC69A5C
:1039A000061229FE4A9B061229FEC87F001229FE34
:1039B000D17F001229FEDA7F001229FEE87F001273
:1039C00029FEF779001229FE637A001229FE2B7B6B
:1039D000001229FE207C001229FE0D7E001229FE15
:1039E000677E001229FEBA7E001229FECB7E0012ED
:1039F00029FEDD7E001229FE497F001229FE5D7F2F
:103A0000001229FE687F001229FE767F001229FE2F
:103A1000887F001229FE45D5051229FE71D50512B1
:103A200029FE17D8051229FE6ED8051229FEAAD83C
:103A3000051229FEBED8051229FED7D8051229FE87
:103A4000F19D021229FEA4DA051229FEB8DA051248
:103A500029FE41FE031229FE65FE031229FE7EFEA9
:103A6000031229FEBCFE031229FEF2FE031229FEF8
:103A700025FF031229FE2FFF031229FE9BFF0312CD
:103A800029FE9EFF031229FEA8FF031229FEB5FF9F
:103A9000031229FE708F061229FE938F061229FE4B
:103AA000DE8F061229FEA0A4021229FE179006122C
:103AB00029FE7D90061229FE8990061229FEE690C5
:103AC000061229FE0A91061229FED091061229FE3D
:103AD000DD91061229FEEE91061229FE70FF0412F6
:103AE00029FE88FF041229FEB4FF041229FE63E5B3
:103AF000051229FEC7E6051229FED5E6051229FEA4
:103B0000E9E6051229FE06E7051229FE1BE7051264
:103B100029FE2EE7051229FEB0E7051229FE16E858
:103B2000051229FE9FE8051229FE17E9051229FE54
:103B3000F0E9051229FE00EA051229FE0FEA051236
:103B400029FEADA9061229FED1A9061229FEF9A95E
:103B5000061229FE21AA061229FE1C92061229FE2F
:103B60004392061229FE6292061229FED79206128D
:103B700029FE8AFC051229FEA3FC051229FEBAFCC7
:103B8000051229FEC3FC051229FEE1FC051229FEDF
:103B9000EBFC051229FEF5FC051229FE08FD0512B5
:103BA00029FE95FD051229FE04FE051229FE32FEAE
:103BB000051229FE83FE051229FECFFE051229FEFD
:103BC000EAFE051229FEF4FE051229FE05FF051284
:103BD00029FE48FF051229FE4EAA061229FE99AABF
:103BE000061229FEF8BD051229FE24BE051229FE83
:103BF00047BE051229FE5ABE051229FE75BE0512E2
:103C000029FED9BE051229FE07BF051229FE14C3DD
:103C1000051229FE56C4051229FE88C4051229FE84
:103C2000F3C4051229FE77C6051229FE9FC60512A8
:103C300029FEB4C6051229FEC4C6051229FE04C712
:103C4000051229FE46C7051229FE56C7051229FE90
:103C500002A0061229FE12A0061229FE36A00612A4
:103C600029FE5FA0061229FE89A0061229FEADA03A
:103C7000061229FEC4A0061229FEF2A0061229FE91
:103C800015A1061229FE43A8061229FE89A80612CC
:103C900029FEBC8B061229FECC8B061229FEEA8C6B
:103CA000061229FE1E8D061229FE408D061229FEDF
:103CB000688D061229FE818D061229FEBD8D061221
:103CC00029FE238E061229FE688E061229FEAD8E6D
:103CD000061229FEDA8E061229FE128F061229FE1E
:103CE0000580061229FE6780061229FE0E81061243
:103CF00029FE4681061229FED1E9041229FE80EA36
:103D0000041229FEB4EC041229FE87EF041229FEE6
:103D100007F1041229FE69F1041229FE74F4041259
:103D200029FEB8F5041229FE4DA1061229FE98A11C
:103D3000061229FEF4DF051229FEB3E2051229FE60
:103D400050E3051229FE7CE3051229FEAAE30512C1
:103D500029FEDFE3051229FE07E4051229FE67E4C8
:103D6000051229FE09A7051229FEF2AA051229FE4D
:103D7000E9AC051229FE17AE051229FEF3AE0512B5
:103D800029FE9EB0051229FE39B2051229FE06B39E
:103D9000051229FE5AB3051229FEA994061229FE1E
:103DA000B394061229FED494061229FE149A051221
:103DB00029FE3B9F051229FE6AA0051229FE46A294
:103DC000051229FE3FA3051229FE76A4051229FE3D
:103DD00083A5051229FE68A6051229FE8DC90312C6
:103DE00029FEC5C9031229FE22D4031229FE0CD5CF
:103DF000031229FE5CD6031229FEA7D7031229FE5F
:103E000052D8031229FE25D9031229FEBCD9031268
:103E100029FEA0DA031229FEA3DB031229FE65DCCA
:103E2000031229FE93DC031229FE0BDE031229FE86
:103E300094DE031229FEADDE031229FE07E0031211
:103E400029FEB9E0031229FE48E1031229FEF7E139
:103E5000031229FE5AE2031229FEF6E2031229FE9A
:103E60006FE3031229FE8DE3031229FE5AE40312C5
:103E700029FE29E5031229FEDFE5031229FE399DFB
:103E8000061229FE639D061229FE779E061229FE60
:103E90007A9E061229FEF7A8061229FE4AA90612E2
:103EA00029FE8CA9061229FE9CA9061229FEBFCE66
:103EB000051229FE06CF051229FE6FCF051229FE35
:103EC00090CF051229FEA9CF051229FE59D005125F
:103ED00029FE62D0051229FEB3D0051229FEE9D0D1
:103EE000051229FE00D1051229FE6DD1051229FE09
:103EF000FDD1051229FE33D2051229FE7CD205120E
:103F000029FEDDD2051229FE17D3051229FE7FD323
:103F1000051229FED2D3051229FE15D4051229FE59
:103F200052D4051229FE64D4051229FE76D4051256
:103F300029FEB0D4051229FEF0D4051229FE19D5A8
:103F4000051229FE40EA051229FE86EB051229FE1C
:103F5000AFEB051229FEC0EB051229FED8ED0512C4
:103F600029FEF8ED051229FEF596061229FE2B977B
:103F7000061229FE7A97061229FED698061229FE05
:103F8000BFD5041229FEFDD6041229FE39D704122A
:103F900029FEFED8041229FE28D9041229FEAEDB20
:103FA000041229FEEEDB041229FE84DD041229FE30
:103FB00019DE041229FE77DE041229FEFDDE04124A
:103FC00029FE35DF041229FE77DF041229FEE4E022
:103FD000041229FE68E2041229FEA2E4041229FE5A
:103FE000D0E4041229FEFCE4041229FE05E50412C3
:103FF00029FE5BE5041229FEEBE5041229FEF2E836
:10400000041229FE74E9041229FE53FF051229FE49
:1040100069FF051229FE73FF051229FECFFF051265
:1040200029FE16F4051229FE2FF4051229FED4F4F8
:10403000051229FE14F5051229FE2DF5051229FE9B
:1040400060F5051229FEADF5051229FEE1F5051210
:1040500029FE23F6051229FEFCF7051229FE67F852
:10406000051229FE81A2061229FED6A2061229FEF9
:1040700030A3061229FEABA3061229FE1DA40612C8
:1040800029FE5BA4061229FE9CA4061229FEF7F75E
:10409000011229FEFDF7011229FE44F8011229FE42
:1040A00050FA011229FE80FA011229FEEAFA0112E1
:1040B00029FEA5FB011229FEE8FB011229FE19FCCD
:1040C000011229FEA3FC011229FEBAFC011229FEED
:1040D000C7FC011229FED1FC011229FE71FE01125A
:1040E00029FE63FF011229FEC1FF011229FEF6F627
:1040F000041229FE0CF7041229FEBEF7041229FE51
:10410000E8F8041229FEDDF9041229FE74FA0412FB
:1041100029FEAFFA041229FE21FB041229FE7FFBBF
:10412000041229FE8FFB041229FEB6FB041229FE9D
:1041300008FC041229FE74FD041229FE79FD041204
:1041400029FE9BFD041229FE72DA021229FECADA48
:10415000021229FE6ADB021229FEE7DC021229FEA6
:10416000D3DD021229FE90DE021229FEA7DE021222
:1041700029FEF6DE021229FE6ADF021229FEC5DFE1
:10418000021229FED8DF021229FE3CE0021229FEAB
:10419000ABE0021229FE5EE3021229FE63E4021282
:1041A00029FEBEE4021229FE04E5021229FEB5E74B
:1041B000021229FE05E8021229FE86E8021229FEF3
:1041C000C8E8021229FEA2E9021229FEDBE9021266
:1041D00029FEFAE9021229FE45EA021229FE5BEAEB
:1041E000021229FE2FEB021229FEFDEB021229FE1C
:1041F00008EC021229FE56EC021229FEABEC021268
:1042000029FEF7EC021229FE52EE021229FE7CEE84
:10421000021229FE14F1021229FE3EF1021229FEB9
:1042200049F2021229FE78F2021229FEF0F202127D
:1042300029FEB4F3021229FEF6F3021229FE6AF4F3
:10424000021229FE88F5021229FECFF5021229FE7C
:10425000E2F5021229FEE5F5021229FEEEF5021240
:1042600029FE09F6021229FE73F6021229FEACF6A7
:10427000021229FEC8F6021229FEF4F6021229FEE5
:104280001BF7021229FE3FF7021229FEB8F70212AD
:1042900029FE2BF8021229FE6EF8021229FE78F888
:1042A000021229FEA7F8021229FEBDF8021229FE09
:1042B000D9F8021229FE08F9021229FE28F9021281
:1042C00029FE71F9021229FEACF9021229FEB8FA90
:1042D000021229FE1BFC021229FE3AFC021229FEE0
:1042E00051FC021229FE63FC021229FEC1A506122E
:1042F00029FED2A5061229FE5BA6061229FECCDAFB
:10430000051229FE0ADB051229FEA3DB051229FE90
:10431000AEDC051229FEF6DE051229FE73DF05125A
:1043200029FE86C7051229FED5C7051229FE93C9A5
:10433000051229FE67CB051229FEA5CB051229FE21
:1043400086CC051229FE90CD051229FEB2CD0512AC
:1043500029FE0ECE051229FE8FCE051229FEF84E3B
:10436000001229FE1A4F001229FE8950001229FE60
:10437000D250001229FE4351001229FEC6510012EC
:1043800029FE3D52001229FE8452001229FEFB52E2
:10439000001229FE9F53001229FE1454001229FE18
:1043A0005154001229FE9958001229FEBC5A0012DD
:1043B00029FEF55A001229FE345B001229FE2A5EFE
:1043C000001229FEBA5E001229FE6E60001229FE5C
:1043D000A861001229FEC862001229FE396300128A
:1043E00029FE1A64001229FE9D64001229FEB164A0
:1043F000001229FE8065001229FEB766001229FE10
:10440000D668001229FEE56A001229FED16B00125F
:1044100029FE686E001229FE3D6F001229FE7C7095
:10442000001229FEAC73001229FEBC73001229FE93
:10443000F274001229FE8B75001229FEBC76001260
:1044400029FE2A77001229FE6378001229FE9E7841
:10445000001229FE4779001229FEE9BA041229FE4A
:104460008BBB041229FEF7BB041229FE11BC0412F7
:1044700029FE93BC041229FECDBC041229FECFBD37
:10448000041229FE11BE041229FE83BE041229FE65
:10449000D3BE041229FE32BF041229FEDEBF04126D
:1044A00029FEC8C2041229FE8FC3041229FEF5C3D7
:1044B000041229FE9DC5041229FE36C6041229FEE7
:1044C000CFC6041229FE32C7041229FEA8C704125F
:1044D00029FEA9C8041229FE9AC9041229FED5C9C9
:1044E000041229FEECC9041229FEB9CA041229FEDD
:1044F000F7CA041229FE7FCB041229FECCCC041289
:1045000029FE90CE041229FECECF041229FE01D13D
:10451000041229FE15D2041229FEACD2041229FE7F
:104520001BD3041229FE28D4041229FEA4E6031288
:1045300029FE0FE7031229FE57E7031229FEBEE703
:10454000031229FE1AE8031229FE55E8031229FE78
:10455000F1E8031229FE4BE9031229FEB7EA031220
:1045600029FE30EB031229FE67EC031229FE8FECC3
:10457000031229FE6DED031229FE7EED031229FEC2
:1045800096ED031229FE8DEE031229FEB0EE031202
:1045900029FE79EF031229FEA3EF031229FEBAEFD9
:1045A000031229FED4EF031229FE00F0031229FEA4
:1045B00020F0031229FE46F0031229FE5DF00312DB
:1045C00029FE32F1031229FE8CF1031229FE5DF25D
:1045D000031229FED9F2031229FEF0F2031229FE7A
:1045E00073F3031229FEBBF3031229FEE1F3031256
:1045F00029FE39F5031229FE3EF5031229FE7CF54A
:10460000031229FEF3F5031229FE5FF6031229FEB9
:104610005AF7031229FE34F8031229FE80F8031218
:1046200029FE98F9031229FE94FA031229FE36FB9B
:10463000031229FE7CFB031229FE91FB031229FEC3
:10464000A3FC031229FE44FD031229FEA0FD031260
:1046500029FE0084061229FEBB85061229FE8386E8
:10466000061229FED886061229FE5E87061229FE4A
:1046700074F8051229FE92F8051229FED6F80512E3
:1046800029FEFCF8051229FE23F9051229FE3BF943
:10469000051229FE53F9051229FE6BF9051229FEB0
:1046A00011FA051229FE53FA051229FE68FA0512BD
:1046B00029FE6FFB051229FE8AFB051229FE93FBDA
:1046C000051229FE9CFB051229FEA5FB051229FEF9
:1046D000AFFB051229FE2CFC051229FE4CEF05123A
:1046E00029FE8EF3051229FEAAF3051229FEAFF367
:1046F000051229FEBF9B061229FEF287061229FE2B
:104700000888061229FEA689061229FEF1890612DA
:1047100029FE5D8A061229FE5C8B061229FE8B8B10
:10472000061229FE9D8B061229FEA79E061229FE5F
:1047300096FC021229FEF2FC021229FE32FD021240
:1047400029FE34FE021229FE4CFE021229FE5EFEF4
:10475000021229FE8AFE021229FEC1FE021229FE61
:10476000D1FE021229FEE7FE021229FE0CFF021200
:1047700029FE9AFF021229FE9C7F001229FED99C75
:10478000021229FEB49C021229FEC49B021229FEC9
:10479000509B021229FEBF9A021229FE4D9A021264
:1047A00029FE3C9A021229FE179A021229FE339919
:1047B000021229FE4F98021229FE6895021229FE64
:1047C0002594021229FE8C91021229FE47910212B1
:1047D00029FEED90021229FE4E90021229FEFB8F57
:1047E000021229FE288F021229FE628E021229FE71
:1047F000268E021229FEB98D021229FEB18D0212F7
:1048000029FE268D021229FEB68C021229FE65A30E
:10481000021229FE078C021229FE55A3021229FE5C
:1048200029A2021229FE48A0021229FE3FA002126C
:1048300029FE32A0021229FE359F021229FEAD9EEA
:10484000021229FE9E9E021229FEFC8B021229FEF4
:10485000ED8B021229FECC8B021229FE988B0212DC
:1048600029FE2B9E021229FE6C8B021229FE408A21
:10487000021229FE2C88021229FEFD87021229FE4F
:10488000FC8F061229FEE187021229FE0F9E0212FA
:1048900029FE8B87021229FE5287021229FECA8640
:1048A000021229FE7E86021229FE3786021229FE96
:1048B0006A85021229FEEE84021229FE4684021243
:1048C00029FE9F83021229FE4183021229FE1683CC
:1048D000021229FEC782021229FE8982021229FED3
:1048E0006682021229FE4D82021229FE0582021200
:1048F00029FE4F81021229FE0080021229FEC38088
:10490000021229FE5780021229FEC8D905000000B4
:1049100080FB8F000100441D87000100431D35000E
:104920000400BD1E25000200C11E26000200C31E99
:1049300027000200C51E28000100CF1E290001002B
:10494000D01E84000400D11E86000100D51E2A005E
:104950000100D61E2B000100D71E2C000100DB1E1B
:104960002D000800251D2E000100DC1E2F00010077
:10497000DD1E30000100DE1E31000100DF1E3200AE
:1049800001002D1D330001002E1D34000100E01E2A
:10499000360001002F1D38000100E11E3900010022
:1049A000DA1E83000200F51E63000100401D640052
:1049B0000100D81E65000100D91E6D000100411DD7
:1049C000710008001D1D66000100F41E4300010077
:1049D000E51E44000200E61E45000100E81E4600F8
:1049E0000200E91E47000800381D48000100EB1EC8
:1049F0004B000100EC1E04000100F71EA1000100A5
:104A0000F91E37000100F81E88000100451D3C001A
:104A10000100301D3D000100E21E49000200ED1EB4
:104A200067000100421D4D000200EF1E4E00010014
:104A3000F11E4F000200F21E3E000100371D510022
:104A40000100311D52000100E31E53000100E41E6D
:104A500054000100321D0000000000000001363645
:104A60000101000102010001030100010401060629
:104A700005020000070100340801000F09040101CC
:104A80000D0100FF0E08000017020000190100FFD1
:104A90001A0100011B0100FE1C0100081D0200009C
:104AA0001F01000120010001210200002301000F6D
:104AB000240200002601000127010008280200FF4F
:104AC0002A0100072B0102402C0100002D010001EA
:104AD0002E0100012F0100FF30010B1D31080000E5
:104AE0003A0100083B01000F3C0100013D0100FFBD
:104AF0003E04000042040000460400004A04000096
:104B00004E04000052040000560400005A04000045
:104B100001037103010301030103010301032203E4
:104B2000020301031003000300030003000300035A
:104B300000030003420300032403060300030003F1
:104B4000040312032503230325032303040304039F
:104B500000030003000344030003000323030003D6
:104B600065032100350381030003050300030003EF
:104B700000030003250323030304710402046004FB
:104B8000110470040204020401040204100461040C
:104B900000041404630473047204620443040004F4
:104BA00013040604000400040404120400040004B6
:104BB00000040004510464000004000400044404E0
:104BC00000040004000400046504000435048104AA
:104BD0006400050400048304000403007100300134
:104BE00060001100700031022003500480001000AA
:104BF0006100000014006300730072006200430053
:104C00000000130006000000000004001200000075
:104C100000000000000004000400370037003C02E0
:104C200044000000000000000000650000003500A6
:104C300081000000050000008300000001017101F7
:104C40000101010111010101310101010101800195
:104C5000100161013B0014006301730172016201E4
:104C600043010001130106013D0135000401120159
:104C700000010001000100010401040133013301BE
:104C80003C014401320136000001000165010001D0
:104C90003500810100010501820183010001030249
:104CA000710230016002110270020102020202026E
:104CB0008002100261023A00410063027302720234
:104CC00062024302000213023800000200020402E2
:104CD0001202000200020002000204020402370075
:104CE00037003C0244020002390000020002650263
:104CF00000023502810200020502820283020002E4
:104D000036000100060000000F0000000000000057
:104D100000000000000003FFFF00000403FFFF008D
:104D200000FFFF0FF4010005C40403200001000090
:104D30000B000000000000000003010F0000000055
:104D40000000000000000000000000000000000063
:104D50000000000000000000000000000000000053
:104D600099441300F7431F00FD431F8003440100D3
:104D7000994402007F430300854304008B430500F0
:104D8000914306009D433000BB433100B5433200E0
:104D9000C7433300CD433500D3433400D9433600F5
:104DA000DF431100EB431400F1431500AF43FFFF55
:104DB00000000A00000002000000040000000800DB
:104DC00000001000000020000000400000008000F3
:104DD00000000001000000020000000400000008C4
:104DE0000000001000000020000000400000016DE5
:104DF0003106A331089D310BBB3110852E0ACD3110
:104E00000273310591310779310C55310D613164EF
:104E1000D547FF000007ECFDFDFDECDCDCCCBCACB5
:104E2000AC9C9C8C7C7C6C6C5C5C5C4C4C3C3C2CF2
:104E30002C1C1C03EAF5E5D5D5C5B5A5959585854A
:104E40007575656555554545353525251515050097
:104E5000160F00000B150B020002220F3300000E8C
:104E60005A6967426565416C6C69616E636530398A
:104E700001030507090B0D0F00020406080A0C0DBB
:104E800000034A49434E181A250502000119161855
:104E90001616182303000C0E020B040B0A07080059
:104EA0000F303016181920231A1C1E3000393D3FD0
:104EB000373C3C362C442D303017181921301B1D3F
:104EC0001F30020402010101010902E80300000091
:104ED000BE040A000000007F00E8030E00100C0A68
:104EE000030305090008000CFF1E1E280508030423
:104EF000040910150401080CC082C083901C9BE4B7
:104F0000F0A3F07CED7D047AB47B1B124085124740
:104F1000A5122ED312479F0264AA74F312243D7483
:104F2000F5122AC789098A088B0A8C0BE9705F740D
:104F3000026508703F79081242D1750C00780C1296
:104F40002A55E50BF50C780C122A55E50AF50C7874
:104F50000C122A55901BD0122851901ED5E0F97CD6
:104F6000387D1D901EF5126EF212477B7407122ACF
:104F70002E025051740165086003025056790812E0
:104F800042D17B00AA0AA90A1248170250517401A3
:104F900065096009740265096003025056EA6006FB
:104FA00074036508704779021242D1901ED5E0F96A
:104FB000901BD0122CD812478DE9F9901BDFE0A28C
:104FC000E34010E9700D901C9FE004F0640470034E
:104FD00012507774036508707A901CA0E0F8740191
:104FE00028F0E8C39405406B125077806674016521
:104FF00008706374016509790A702E1242D1740138
:10500000122D07E4F07402122D077403F004122D20
:1050100007E4F0A3F0A3F0A3F07408122D07E4F066
:10502000AA18AB1912317F80441242D1901ECB12C4
:1050300028517A007B20901BD4E0F9124037740489
:10504000122A2E901ED5E0F9901BD0122CD81248AF
:1050500035E9F9E960179080CD1228517A017B007B
:10506000901BD4E0F91240377404122A2E740B12EC
:105070002A2E7F050226CD901BD0E4F0A374F8F011
:10508000A374FFF0A37407F02274F612243DE9FF25
:10509000EAFE7AD1F9123EED8A828B83E58245835E
:1050A000702A7A027B00123ECFEA4B700E7A107B98
:1050B00000901BD4E0F9123F1180148A828B837414
:1050C000D1F0EFA3F0EEF9123EDB8003EFA3F00284
:1050D00052F674F712243D89089006FA126415906E
:1050E0001EB9E0F47003A3E0F4702D900BE7E0909C
:1050F0001EB9F0A3E4F080208E828F83A31261A2F8
:10510000600F8E828F83A3A312619CFAA9081243B9
:10511000678E828F831251B9EE4F70DC901EB9E01A
:10512000F47003A3E0F4600A901EB9E0FAA9081233
:10513000436712328D901B9E125AEF1232877F0105
:105140000226CD74F012243D890B8C0C7508007575
:1051500009007410122D0712522D7412122D07120D
:1051600051B9803CA80A12521DF50EA3E0F50FA814
:1051700009125210F583E0650E7004A3E0650F700C
:10518000141251B0EE28F582EF39F583E50EF0A345
:10519000E50FF00508050AE50AC3950C40C60509A8
:1051A000E509C3950B5005750A0080EBA90880112D
:1051B000A808E828F8E433F922126BCBE8FEE9FFEF
:1051C000227F080226CD74F412243D890B8C0A75C7
:1051D0000800740C122D0712522D80020508E508F4
:1051E000C3950B502775090080020509E509C39591
:1051F0000A50E9A808125210126413A80912521D8D
:105200006E7003A3E06F70E279018002790080285C
:10521000E828F8E433F9EA28F582EB3922E828F89F
:10522000E433F9EC28F582ED39F583E022126BCBFB
:10523000E8FCE9FD22122A2E7F040226CD74F61224
:10524000243D1252E07003A3E06D70177508DD7500
:10525000091B7808122A51EEFA12449F7402122A8E
:105260002E801F7508027509807808122A518C0853
:105270008D097808122A511252CB1244C3740412B9
:105280002A2E807274F612243D1252E07003A3E0BD
:105290006D70177508EA75091B7808122A51EEFA25
:1052A0001244A57402122A2E801F75080375098006
:1052B0007808122A518C088D097808122A51125246
:1052C000CB1244C37404122A2E802B1252D93FF5FC
:1052D00083E0FD7C8012655222EE240EF582E422EA
:1052E000EAFEEBFF126567FCE439FD901B9EE06C63
:1052F000227402122A2E7F020226CD74F612243D59
:1053000074FE122AC7EAFEEBFF851882851983E432
:10531000F0A3125A9F126498FCA3E0FBECFA888277
:105320008983A3A3E0F9750900750800600574FF7F
:10533000697005750882803D901B9EE06A7003A32A
:10534000E06B701AAA18AB1912385DE9F5098518D7
:10535000828519831268C9701C7508838017901D97
:1053600043E06004640170057508818008E0640210
:1053700070037508808518828519831268B2A908A0
:10538000EEFAEFFB1244ABE509601185188285192E
:10539000831268C96006126EEC123F770252F174F4
:1053A000F212243DEAFEEBFF750800750900126554
:1053B00063F50AE439F50B12328DEA650A7003EBE6
:1053C000650B701212386FE914F50879017A677B62
:1053D0001C12387580037509801268B8F50C780CBA
:1053E000122A55750C67750D1C780C122A51780815
:1053F000122A55780A122A51E509F5087808122A66
:105400005512632E1268BBF97A057B801244B17481
:105410000702768874F612243D89097508008027F2
:105420008A828B83E0FE12784BEE28E439FF12511A
:10543000B0EC28F582ED39F583EEF0A3EFF0EA2425
:1054400002FA50010B0508E508C3950940D2025243
:10545000F674E812243D74FB122AC78A168B17854E
:105460001882851983E4F07403122D07E4F0A3F089
:1054700004122D07E4F0A3F01258623517125A7186
:10548000F50B850A82F583127937FEE439FF850A28
:1054900082850B83A3A3E0FA850A82850B83A3A3ED
:1054A000A3E0F9EAF508E439F509E50A2404F50A68
:1054B0005002050BEEFAEFFB123329E96401601686
:1054C000EEFAEFFB123329E9703D901B9EE06E70FF
:1054D00003A3E06F60311266A8122A55E4F508F5BF
:1054E000097808122A517808122A55901B9E122812
:1054F000557508807808122A551258491244B1741B
:1055000007122A2E02583F12587C8810602B127402
:10551000D6123F717403122D07125AEF7403122D25
:10552000071268C960137403122D07125874A9106A
:105530001243978A0A8B0B800375100012587C88DF
:105540000F60271274D6123F717401122D07125A80
:10555000EF7401122D071268C9600F7401122D0734
:10556000125874A90F1243978003750F009006FA22
:10557000805C850A82850B83A3A3A3A3A3A3A3A313
:10558000E4F0A3F0AA0AAB0B851482851583A3A3CC
:10559000E0F812619CF9123EDB851282851383E0EC
:1055A000C0E0851882851983E0F8746728F582E4E5
:1055B000341CF583D0E01268CD04F0E511A2E05070
:1055C00007AA12AB13123F77851482851583E0F585
:1055D00014A3E0F515E514451570030257AC8514C6
:1055E00082851583A31261A260DE851482851583EE
:1055F000A3A3A3A3A3A3A3A3E0A2E050CB851482FB
:10560000851583A3A3A3A31268C985148285158376
:10561000A3A3601F1261A3FA790185148285158303
:10562000A3A3A3A312586712262E8A128B137511F7
:10563000018010125867A3A3A3E0F512A3E0F513AD
:10564000751100E512451370030255BB8512828562
:105650001383A3E065087004A3E06509600F74FF7D
:105660006508700474FF650960030255BB851282EA
:10567000851383A3A3A3A3A3A3A3122855851282F2
:10568000851383A3A3A3A3A3A3E0FC7405122D0792
:10569000126EF2A9101243797402122A2EE9703C9C
:1056A000851282851383A3A3A3A3A3A3A3A3A3A368
:1056B000122855851282851383A3A3A3A3A3A3A3B2
:1056C000A3A3E0FC7403122D07126EF2A90F12437C
:1056D000797402122A2EE970030255BBE50F2510DA
:1056E000C333240AFA7B00123ECF8A0A8B0BEA45A9
:1056F0000B70030255998A828B8374D2126AD88AFE
:10570000828B83A3A3E8F0A3E91277B1A3E510127B
:10571000793FE50FF0E510603CEA2405FAE4350B2B
:10572000FBE50A240AF8E4350BF98A828B831260C0
:10573000687403122D0712588C122A4DAC10EC2CF1
:10574000FCE433FD8A828B83126EF2123EAB74034B
:10575000122A2E800D8A828B83A3A3A3A3A3E4F035
:10576000A3F0E50F7003025572A8101251B2E50ABA
:1057700028F8E50B39F9E8240AFAE439FB850A82AE
:10578000850B83A3A3A3A3A3A3A3A3125AEF74011E
:10579000122D0712588C122A4DAC0FEC2CFCE4335E
:1057A000FD123EAB7403122A2E02558485188285A1
:1057B0001983E060271266A8122A557508677509D3
:1057C0001C7808122A517403122D071266B1122A8E
:1057D00055901B9E1228557508008029EEFAEFFBA4
:1057E000123329E9702F1266A8122A5575086775B9
:1057F000091C7808122A517508007808122A559059
:105800001B9E1228557808122A551258491244B185
:105810007407122A2E7403122D071268C9600B74C4
:1058200003122D07126EF2123F777401122D071228
:1058300068C9600B7401122D07126EF2123F777463
:1058400005122A2E7F100226CDE5162402FCE4352F
:1058500017FDE5161262C23517F583E0F97A067B6B
:105860008022EA12648F2212586B22E0F8A3E0F53E
:10587000838882221268B2AA0AAB0B22850A82852B
:105880000B83E0F8A385820A85830B22E0F50CA345
:10589000E0F50D750E00780C2274F112243D74F4BD
:1058A000122AC78A088B09ECFEEDFF740B122D0734
:1058B0007403F0122A9F1240851232878A0A8B0BDA
:1058C000AC0AAD0B7403122A9F12407FE9600A12E2
:1058D0005A6B6010E06401600B851882851983742F
:1058E00084025A198E828F83A3A3A3A3A3A3A3A385
:1058F000E06013F46010125A6B7016EE24141268F4
:10590000BB6003F4700B8518828519837482025A78
:1059100019127659E064217002A3E060030259F085
:10592000851882851983748C125A9F640360030260
:1059300059DA7401122AA712604D122FF9E9600397
:105940000259DA1242BF8A0A8B0BEA450B70030236
:105950005A1A8E0C8F0D750E00780C122A4D7C157C
:105960007D00123EAB7403122A2E850882850983BE
:10597000A3A3E50A2415FCE4350BFD74091229776D
:105980001272E5C0E0E50A241E125A59D0E0125EF8
:10599000B4C0E0E50A241F125A59D0E0F0E50A2409
:1059A00020125A597405F0EE240BFE50010FFAEF45
:1059B000FB1238F37D007C007900EEFAEFFB124415
:1059C000699080CD1228517A007B10901BD4E0F9A9
:1059D0001240377404122A2E8078125A61122A5506
:1059E000125A79122FE17401122A2EE9702C8014B8
:1059F000125A61122A55125A79122FE77401122A8B
:105A00002EE9700D851882851983E4F012428F808B
:105A1000098518828519837488F01272E5F50A7871
:105A20000A122A557401122A97880A890B780A12D9
:105A30002A51E508240CF582E43509125A71448094
:105A4000F50B780A122A511263FE12445D74051296
:105A50002A2E740C122A2E805EF582E4350BF58313
:105A600022EE12605AE0F50A780A22125AA4640360
:105A700022F583E0F50AA3E022EE240BFCE43FFDCF
:105A80008E828F83A3A3A3A3A3A3A3A3A3126F2F89
:105A90008E828F83A3A3A3A3A3A3A3A3E0F922F0E1
:105AA000125AA422125AA822EE2413F582E43FF5DA
:105AB00083E022EEFAEFFB7F070226CDC082C0838F
:105AC00074F3122AC7851882851983E4F004122D15
:105AD00007125AEF7403122D07AA82AB831248E310
:105AE000AA18AB191248AD740D122A2E0264AAEA44
:105AF000F0A3EBF02274F612243D126482FAA3E0C4
:105B0000F9EAF8901BE5E058F508A3E059F509E536
:105B1000084509601C7808122A51901B9E122855CE
:105B20001268B8FD7C0012654E1244BD7404122A3E
:105B30002E0252F674EA12243D74DB122AC78A142C
:105B40008B157512007513001258623515F5831206
:105B500061A3F50EAC18AD197A007B00799C122D6B
:105B6000117A047900124877EAF50C8518828519B4
:105B700083E02AF0F8E50EC3984003025D50E0C3CD
:105B8000950EF509C394044003750903E50975F002
:105B90001AA4FAABF0123F718A128B13EA45137004
:105BA00003025D53750D00AE12AF13850E08807EA3
:105BB000125DCB123EB7850A82850B83A3A3A3A3F4
:105BC000E0702D850A82850B831268C9700C1270F3
:105BD0003BF0EE241812703E8010125DD9F0900553
:105BE0005EE014C0E0125DB3D0E0125E04E48034E5
:105BF00090055EE004C0E0125DB3D0E0125DFCC32E
:105C00009403EE4003025CBA1260567402125DFC0B
:105C100064017003025CC7EE2415125DDCF0EE2413
:105C200016125DDCF0EE241AFE50010F050DE50D95
:105C3000C395094003025CF2E508C3950C400302DA
:105C40005CD0AA087B001247ED8A0A8B0B050890EE
:105C5000054B125DE5124085850A82850B83126B28
:105C6000C7125DC1E8F0A3E9125E16850A82850BB2
:105C700083A3A3A3A3A3A3A3A3A3A3E0C0E0125D54
:105C8000A9D0E0F07401122D07E4127805126BC759
:105C90007402122D071260687401122A9F1248BF05
:105CA000E964016003025BB07404122D07AC82AD9D
:105CB00083125DD1124085025BB6125DDA125DFC83
:105CC00064036003025C17EE241512703E025C1D33
:105CD000E50CC3950E4005750800801DE50EC395C3
:105CE0000CF5088014125DD9F0EE241AFE50010F55
:105CF000050DE50DC39509505A740E122AA7AA087E
:105D00007B007987122D1105087418122D07125D7A
:105D1000E5124085125DCB123EB7EE2412F8E43F47
:105D2000F9740E122D07126EF288828983EAF0A3AD
:105D3000EB125E047403125E16741D122D07E0C090
:105D4000E0125DA9D0E0126E61709A12703B8098EB
:105D5000750900750A00780A122A557812122A511C
:105D60007809122A55E50EF5097809122A557405A5
:105D7000122D07E0FD7C00E5141262B93515FBE534
:105D8000141262BE3515F583E0F91244F974051258
:105D90002A2EE51245136007AA12AB13123F77743F
:105DA00025122A2E7F0E0226CDEE2419F582E43F1D
:105DB000F58322125DB722EE2418F582E43FF583C5
:105DC00022EE2412F582E43FF583227C087D0079DF
:105DD000FFEE240AFAE43FFB22EE2414F582E43FAE
:105DE000F583740122126BCB8E828F83E8F0A3E9D6
:105DF000F07C5F7D05EE1262B93FFB22127800A3B2
:105E0000A3A3E022F0EE1270327402F0EE2416F535
:105E100082E43FF58322F0EE2417F582E43FF58318
:105E20007402F0125DB774FFF02274F612243D7410
:105E3000F9122AC7125EA91279C1123EC3EAF8EB21
:105E4000F9ECFAEDFB851882851983122CF0EE240B
:105E500004FE50010F8E828F83E0C0E07404122D87
:105E600007D0E0126E38F87405122D077401F07433
:105E700006122D077401F0901BA8F0901BB10412BC
:105E8000781DA3126EF2901BA9125AEFE8901BB274
:105E9000125EB4901BA7F0AA18AB19124787E960ED
:105EA0000312478174070252F38A088B09EA1264CD
:105EB0008F350922F012777DE02274F212243D74AE
:105EC000FF122AC77508007E007F001231AF8A0AD0
:105ED0008B0B1231AF8A0C8B0DA80CA90D80050518
:105EE00008126BC1E84970F7901D43E06007640138
:105EF0006003025FC51231AF8A0C8B0DA80CA90D8F
:105F00008003126BC1E849603688828983126EF281
:105F100090054BE06A7003A3E06B600D126061397D
:105F2000F583126EF2EA4B70D988828983126BC7AF
:105F300090054BE0687003A3E0697003025FC57AC7
:105F4000167B00123F718A0C8B0DAE0CAF0DEE4F1D
:105F5000607390054B126BC78E828F8312606890BE
:105F60000540E08E828F83A3A3F0123311E98E8265
:105F70008F83A3A3A3A3A3F0901ED61277F4F07C83
:105F80005F7D0512604D124085AA18AB1979411248
:105F90004679851882851983E06008901B9E126BF4
:105FA000C7800478FE79FF8E828F83A3A3A3A3A367
:105FB000A3A3126068126055E50AF0A3E50BF08E0A
:105FC0000A8F0B0508901BB2E0F8E508C39850044F
:105FD00079008027E508C398F9C394064002790543
:105FE0007800800DE50A126062350B125A71F50BCC
:105FF00008901BB2E0FAE8C39A40E97509007809F5
:10600000122A55780A122A51E9F5097809122A55F7
:10601000901BB2E0F5097809122A55AD087C007A88
:10602000A97B1B901BA7E0F91244F37405122A2EDA
:10603000901D43E060046401700BEE4F6007EEFAC0
:10604000EFFB123F771247817401027688EE240B32
:10605000FAE43FFB22EE12605A221260623FF5839F
:1060600022E82414F582E422E8F0A3E9F02274F097
:1060700012243D74FF122AC78A0A8B0B7E008E0EF3
:106080008E0F125862125A5C1261A3FFAC18AD1940
:106090007A007B00799D122D11851882851983E085
:1060A000F8EFC3984003026147E0C39FFEC3940B1F
:1060B00040027E0AEE75F007A4FAABF0123F718A37
:1060C000088B098A0E8B0FEA450F6079750C0080EA
:1060D0001A850882850983A3A3A3A3A37403F0E50B
:1060E000082407F50850020509050CE50CC39E506D
:1060F00056AC08AD09E50C2FFAE43400FB798B129D
:106100002D11850882850983A3A3A3A3A3E01460AE
:106110000814601314601F80B8850882850983A362
:10612000A3A3A3A3E480B7850882850983A3A3A3BF
:10613000A3A3740180A8850882850983A3A3A3A3D0
:10614000A3740280997E007508007808122A557899
:106150000E122A51EEF5087808122A55EFF5087844
:1061600008122A557405122D07E0FD7C00E50A127D
:1061700062B9350BFBE50A1262BE125A5CE0F912F5
:1061800044FF7405122A2EE50E450F6007AA0EABD8
:106190000F123F777401122A2E0251C1A3E0F5833A
:1061A0008882A312586BE02274EE12243D74FE1212
:1061B0002AC78A0C8B0D75100075110012586235B4
:1061C0000DF5831261A3F50AAC18AD197A007B00B6
:1061D00079A3122FED126EECC3E50A9AE49B507678
:1061E000851882851983A80AE0C398FEA3E094006D
:1061F000FFC3EE9404EF940040067E037F0080040A
:10620000EE4F6052EEFAEFFBEA75F015A4FAA8F033
:1062100075F015EBA428FB123F718A088B098A10D0
:106220008B11EA4511602F750B00750E00C3E50E4A
:106230009EE49F5026AC08AD09A80AE50E28FAE4B2
:106240003400FB79A2122FEDE5082415F508500261
:106250000509050E80D7750B8B7E00750800780840
:10626000122A557810122A51EEF5087808122A558C
:10627000E50AF5087808122A557405122D07E0FD85
:10628000AC0BE50C1262B9350DFBE50C1262BE35A4
:106290000DF583E0F91245057405122A2EE5104527
:1062A000116007AA10AB11123F777402122A2E7FD9
:1062B0000A0226CDFCEFFDE5082402FAE422126270
:1062C000C222240FF582E42274F612243D74FF12D8
:1062D0002AC7EAFEEBFFEE1258633F1276ADA3A386
:1062E000A3A3A3A3A3A3E0F9124841E985188285DB
:1062F0001983F07508007808122A557401122A973C
:10630000880889097808122A517508357509807836
:1063100008122A5112632412445D7405122A2E7445
:10632000010252F3790112632EFAE43FFB22EE24BC
:1063300002FCE43FFDEE240F2274F412243D74FAB3
:10634000122AC7125EA9126413EEFAEFFB1248DD9F
:10635000E960171232878A0A8B0BAC0AAD0BEEFA92
:10636000EFFB12407FE96401700A7401122D07E40B
:10637000F0A380097401122D07EEF0A3EF12783913
:10638000A3A3A3A3A3E0F8A2E650087403122D0769
:106390007401F0E8A2E750087404122D077401F0AC
:1063A0007405122D07E4F004122A9F12480BE985A8
:1063B0001882851983F09080B5122CD81232AB7AEE
:1063C000007B001232B77A007B001232B1750A00EE
:1063D000780A122A557401122A97880A890B780ABA
:1063E000122A51750A34750B80780A122A511263E9
:1063F000FE12445D7405122A2E740602523579018C
:10640000E5082402FCE43509FDE508240FFAE4352B
:1064100009FB22F5831276B7FF2274F612243D742D
:10642000FF122AC7126482F509A3E0F508A9091230
:106430003A3DE9851882851983F0901D43E0700B81
:10644000740165087005A9091245ADEE240B1268A8
:10645000BB702C7508007808122A557401122A970F
:10646000880889097808122A5175083675098078D4
:1064700008122A5112632412445D7405122A2E0256
:10648000631FEAFEEBFF12648E3F12649522EE2436
:1064900013F582E422F583E0126577E022C082C022
:1064A00083901D43E070031245B3D083D08202294C
:1064B000FB74F412243D74EF122AC7EAFEEBFF12BC
:1064C0006563F508E439F509901B9EE065087004E2
:1064D000A3E065097052A818A919880A890B780ADF
:1064E000122A51750A11750B00780A122A517C0084
:1064F0007D007A817B00123FFB7404122A2EE97022
:1065000027750A00780A122A557401122A97880AF8
:10651000890B780A122A51AC08AD0912654E124453
:10652000B77403122A2E8021750A11750B80780A20
:10653000122A517808122A511268B8FD7C8412651B
:106540004E1244C37404122A2E741102523512657D
:106550005222EE2402FAE43FFBEE1262C23FF583C0
:10656000E0F92212656722125AA81265771277683D
:10657000F8E4C8F9EA2822F8A3E0F988828983229E
:1065800074F112243D74EB122AC7126482FCA3E05A
:10659000FAE4CAFBEC2AF508E43BF509901B9EE0FF
:1065A00065087004A3E06509600302664F8882896C
:1065B00083A3A3E09410500F88828983A3A3E0856E
:1065C000188285198380088518828519837410F0D4
:1065D000E0C0E07404122D07D0E0127699A3A3A9BD
:1065E00082AA83890C8A0D750E00780C122A4D74CC
:1065F00007122D07E0FC7D007408122D07AA82AB5C
:1066000083123EAB7403122A2E7404122A97880A4E
:10661000890B780A122A51750A11750B00780A1233
:106620002A517C007D007A817B00123FF5740412B0
:106630002A2E7404122D07E0901BDD6005E0D2E4E1
:106640008003E0C2E4F0851882851983E480088520
:1066500018828519837484F0E0C0E07401122D075C
:10666000D0E0F07402122D07E508F07403122D0734
:10667000E508F01252D93F1266AF122A5574021281
:106680002A97880889097808122A5175081475090B
:10669000807808122A51790312632612445D74052A
:1066A000122A2E7415025A54E5161252DA3517F5CD
:1066B00083E0F50878082274F612243D74E0122A6B
:1066C000C7EAFEEBFFAC18AD19124445901D43E03C
:1066D0006402702F1232877402122D07AC82AD83D0
:1066E00012407FE9601D12328D8A088B09A808A923
:1066F00009851882851983E0687003A3E069700337
:106700000268AD12345B7402122D07AC82AD8312A5
:106710006EEC123359E9640170030268AD7418120B
:106720002A9F1232997402122D07AC82AD8374181D
