:020000040000FA
:100000000212FF022003FFFFFFFFFF02200BFFFF92
:10001000FFFFFF020E61FFFFFFFFFF02201BFFFF3C
:10002000FFFFFF022023FFFFFFFFFF02202BFFFF48
:10003000FFFFFF022033FFFFFFFFFF020EA4FFFFC1
:10004000FFFFFF022043FFFFFFFFFF02204BFFFFE8
:10005000FFFFFF022053FFFFFFFFFF02205BFFFFB8
:10006000FFFFFF022063FFFFFFFFFF02206BFFFF88
:10007000FFFFFF022073FFFFFFFFFF02207BFFFF58
:10008000FFFFFF022083FFFFFFFFFF02208BFFFF28
:10009000FFFF70DFFFFF040000000002000000C847
:1000A0000300030369A5020269A501000000000026
:1000B00004003273000074F8121046900393E0605D
:1000C0001590030274FEF0900304744DF0A37405C0
:1000D000F07A011206857F0102116374F71210464F
:1000E00074FF12126B7E00801F851882851983E0D1
:1000F00064FE70069003877401F085188285198369
:10010000E0F8900384E068F07C017D00AA18AB1948
:10011000120E1C8B09EA450970030201F38518824F
:10012000851983E064EF70027E07E0C0E0900387EA
:10013000E0FA900385E0F8EA28F8E43400F9740264
:1001400028F582740339F583D0E0F0900387E060EE
:100150009814600E14602C14603C14605214606893
:100160008098900384E4F0851882851983E09003D9
:1001700086F0C394809003874004E40200F974027F
:100180000200F9851882851983E0900382F09003BC
:100190008774030200F9851882851983E090038330
:1001A000F0900386E0601990038774040200F990D0
:1001B0000385E004F0F8900386E06860030200FA2B
:1001C00090038774050200F9900385E4F09003879B
:1001D000F0900384E0F8851882851983E068600355
:1001E0000200FA900382E0644D60030200FA1203F9
:1001F000288002EEF974011212377F020211637433
:10020000F712104674FB12126BEAFEEBFF7508043E
:1002100075090078081212CF74021212E87A907BE6
:10022000007904120EC574021212371206771213E7
:1002300039E0687003A3E06970128518828519831C
:10024000E0F47003A3E0F4600302030874041212E4
:10025000E01206DD8A088B09A808A90974021213A6
:1002600039E8F0A3E9F07404121339E06008790169
:100270001200B6020321851882851983E068700395
:10028000A3E0697076851882851983E0F47003A372
:10029000E0F4701974021213397410F0A37420F092
:1002A0008518828519837410F0A37420F0750801F5
:1002B00075090078081212CF74021212E87A247BB2
:1002C00008120F49740212123775080478081212C6
:1002D000CF74021212E87A907B007904120EC57472
:1002E00002121237120677121339E0687003A3E086
:1002F000697004790280067904800279031200B6DD
:100300008E828F83741E80058E828F83E4F01206A6
:1003100077121339E0687003A3E0697004790180F3
:1003200002790074050201F774ED12104674F81298
:10033000126B900307E0FD900306E0FCFAEDF8E491
:10034000C8F9EA28FEE93408FF751001750B00753D
:100350000A068E088F0974027808121296C395084F
:10036000F8E49509F9740228F50E740339F50F8E37
:10037000088F09740978081212F0E508F511EE24C7
:1003800010F508E43FF509EEF50CEF5401F50D907A
:100390000383E014605914700302046414700302B0
:1003A00004DF14601024FE700302059A1470030227
:1003B000064A02065A750A03794E120C5B9003072F
:1003C00012066D7402F0A3744012066B74081206D4
:1003D0006BF0A3F07418C3940704F510AA10A90BCE
:1003E000120685A90A74081212377F0C0211637570
:1003F0000A04794E120C5BEE450D7005A911120F1F
:10040000AFC3EE9425EF9408503CC3E5089424E56F
:100410000994084031E50E2496F8E50F3420F98858
:10042000828983E0701BA3AA82AB83E070139003E0
:10043000887401F08882898374A5F08A828B838016
:1004400004900388E4F0750810750900780812120A
:10045000CF7C087D03EEFAEFFB120F4974021212F3
:10046000370203DC750A05E511C394794006750B64
:10047000010203DC75124075130078121212CF7C52
:10048000097D037402780C121296AA0CAB0DA91107
:10049000120EC57402121237900307E0A3F0900306
:1004A00006E0A3F0751043C3EE9425EF94084003D3
:1004B0000203DCC3E5089424E50994085003020311
:1004C000DC900388E070030203DCE50E2497F8E576
:1004D0000F3420F988828983E4F0A3F00203DC75ED
:1004E000080475090078081212CF74021212E87A13
:1004F000907B007904120EC5740212123774021236
:100500001339E0F8A3E0F9851882851983E0687053
:1005100003A3E069851882851983700BE0F47003EA
:10052000A3E0F470578009E0F47003A3E0F4700DC9
:100530008518828519837410F0A37420F012067751
:10054000121339E8F0A3E9F075080178081212CF08
:1005500074021212E87A247B08120F4974021212F4
:100560003775080478081212CF74021212E87A90D4
:100570007B007904120EC57402121237120677122C
:100580001339E0687003A3E0697006750A0102037D
:10059000DC750A02750B070203DC900391E060072B
:1005A000640260030203DCEDFF7A01790012068524
:1005B000E0600302063E8003120D1C120D26E97056
:1005C000F7740412133912065F7404121339780891
:1005D00012131D85080C85090D850A0E850B0F90D9
:1005E00005A2780C1212BC7404121339780C121381
:1005F0000EE5084509450A450B70CE8EC2E5C55487
:10060000E04FF5C5740412133912065F7404121317
:1006100039780812131D85080C85090D850A0E8589
:100620000B0F9005A2780C1212BC740412133978C7
:100630000C12130EE5084509450A450B70CE7A01E8
:10064000790012068579080203E5EC900393F070B7
:10065000030203DC750A090203DC79060203E5E400
:10066000F0A37426F0A3E4F0A3F022F0A3E4F0A337
:10067000F0A3F0A3F0A322851882851983E0F8A3E4
:10068000E0F974022274F8121046EAFE900305E0C5
:10069000D2E7F0E9A3F0EE900303F08E0874042A89
:1006A000FE7C028004E062080CECFA3395E0FB74F7
:1006B000022AF58274033BF583EEF8C3EA98EB94C3
:1006C00000A2D265D03340DDE508F074012A0C3376
:1006D00095E0FD7A027B03120E4C0200D674E912FB
:1006E00010467582007583FE1211FE8A168B1775EF
:1006F00014007515008A828B83E4F0900391E070FA
:1007000006D2AAD2AF80046402700579001200B646
:10071000750C00750D20750E00750F00900391E0AB
:10072000600464027015120D1C1200DBE9F87409F4
:1007300068600302080D79001200B675080075099B
:100740000278081212CF74021212E8850C08850D87
:1007500009AA08E5095407FB850E0A850F0B740BDF
:100760007808121252A908120EC574021212377EAE
:10077000007F009005AAC0828E10EFF5113395E03E
:10078000F512F513850C08850D09850E0A850F0BEA
:10079000780879101212A99005A678081212BC7573
:1007A0008305D08278081211DF501D8518828519C3
:1007B00083E5822EF582E5833FF583E0F9AA14AB49
:1007C0001512083C8A148B150EEE70010FC3EF94BE
:1007D0000240A09005AE780C1212BC9005B2780CC5
:1007E0001211DF400302071C7900AA14AB1512088E
:1007F0003C790012083C8B15900391E07004C2AF65
:10080000C2AAEA451570277AA57BA58021E8700366
:1008100002073B740668700302073B7407687003A5
:1008200002073B8516828517837401F080BA7582B2
:10083000007583021211FE7F10021163C008C00907
:100840007C088A088B09740F78081212F0E508F802
:10085000EA25E0FAEB33FBE9A2E7500474014AFA17
:10086000E8A2E0500874216AFA74106BFBE9C33304
:10087000F91CEC70CDD009D0082274F8121046781B
:10088000007900802274942EF582E43403F583E02D
:100890008A828B83F09004141209FA4005900414A4
:1008A000E4F008E8700109900414E0FEA3E06E6033
:1008B00007C3E89CE99D40CDE8FAE9FB7F010211FE
:1008C0006374F7121046900498E0F509A3E0F50868
:1008D000F8E509C398F895E0F9E508C39509E850EB
:1008E0000B120ADC701178007900801B247F500104
:1008F00009C39CE99D50EF7A007B008041E004F041
:10090000D2E908E8700109C3E89CE99D502C8A826D
:100910008B83E0C0E0900499E0FE74182EF582E429
:100920003404F583D0E0120ACC90049AE4F09004E9
:1009300099E0C3947F40C6E480C5E8FAE9FB7F02F2
:10094000021163C082C083C2E9900498E0F8A3E07A
:10095000686017741828F582E43404F583E0F5C163
:10096000900498120AF34002E4F0020D3A74F8126F
:1009700010467800790090051DE07055A3E0705195
:1009800075F900C28FC284A28340FCA28F4004A2EA
:100990008350F8AEF9C28FA2835004D2848032EE25
:1009A000C0E0E0FE1209EFD0E0F090051E120AF35D
:1009B00040D9E4F080D51209EFE08A828B83F09071
:1009C000051D1209FA400590051DE4F008E87001C4
:1009D0000990051DE0FEA3E06E6007C3E89CE99D59
:1009E00040D4E8497006E4F090051DF00208B874A0
:1009F0009D2EF582E43404F58322E004120AD0C36C
:100A000094802274F81210469005A0E0FEF890053C
:100A10009FE0FFEEC39FE0500DC398F895E0F912F8
:100A20000ADB70188012C398F895E0F9E8247F502B
:100A30000109C39CE99D4004EC4D70077A007B00DE
:100A4000020AC98A828B83E0F5F9A3AA82AB837874
:100A50000179008008E004F008E8700109C3E89C0F
:100A6000E99D50278A828B83E0C0E09005A0E0FEDC
:100A7000741F2EF582E43405F583D0E0120ACC9081
:100A800005A0E0C3947F40CDE480CCC28FA2834018
:100A9000FCC284A28F4004A28350F890059F120AE2
:100AA000E6E0F5F9C28F90059FE0FAA3E06A9005B1
:100AB0009F7005120AE68005120AF34002E4F0A2D4
:100AC0008350D0D284E8FAE9FB0208BC120AD02293
:100AD000F08A828B83A3AA82AB8322E824FF18E9E1
:100AE00034FFF9E84922E0FA741F2AF582E434055C
:100AF000F58322E004F0C394802274FB12126B7E13
:100B0000009005CA780812131D9005CA7401F0A35D
:100B1000F0A37469F0A374A5F09005B678081212DA
:100B20008170047E0180159005BA780812128160E8
:100B300008E59D541864107003022000120C81EE29
:100B4000A2E05003020BFEAA18AB191201FFE970D4
:100B500003020BFE851882851983E0C3943C500C78
:100B6000E0F8743CC398FA95E0FB80047A007B00BF
:100B7000120D3FE97003020BFE900391E0640170D7
:100B80000C75F800C2AB539AF7D2EA805E7907126F
:100B900000B68003120D1C120D26E970F7740112C5
:100BA0001339E4F0A37426F0A3E4F0A3F074011267
:100BB0001339780812131D85080C85090D850A0E56
:100BC000850B0F9005A2780C1212BC740112133918
:100BD000780C12130EE5084509450A450B70CE75D1
:100BE0008600C2AAC28B539AFBC2E990000174CD61
:100BF000F0022000C2AF75C9AB75C95B80FE7508F5
:100C000000750900750A00750B00900391E0701BD8
:100C1000D2AAD2AF79051200B6E07003120D1C12F1
:100C200000DBE9F8740968700980E9794E120C5B01
:100C300080ED74016870E2E07017120D1C9005BE23
:100C400078081212BC9005C278081211DF50EBC26E
:100C5000AAC2AF75C9AB75C95B80FEC082C083787C
:100C6000109005A1E0C399501575B60FE5B4A2E741
:100C700050FAE5BBC39940F118E870EDE9F0020DB8
:100C80003AC082C08353BEFBE59DA2E650FA0078CD
:100C9000F8790100120ADB70FA75C6807480659ECF
:100CA00070FA43BE049062707408F0794A120C5BCB
:100CB00090000174F5F07403F5D575D489A2A0E411
:100CC00033900391F0A2E05029D28453F3F753F309
:100CD000EF53FDF743FD10538FF753F7DF43FC202D
:100CE00043F10253F5DF75F82043F4F0D2FED2ABA6
:100CF000802853FF3F85FFFF53F1FE43F30C53F26F
:100D0000F375868075C48090049BE4F0A3F075C2EF
:100D1000D875C50B75C402438640801E8003120936
:100D200043A2E940F922C082C083900498E0F8A36E
:100D3000E0686004790180027900D083D082227457
:100D4000F112104674FF12126B7E00900391E06462
:100D500001706CC2849003927401F07508388E099A
:100D60008E0A8E0B7C017D00AA18AB19120E1C8B0B
:100D70000DEA450D6018851882851983E0641060BE
:100D80002DE064EF70088E088E098E0A8E0B8508A0
:100D90000C85090D850A0E850B0F9005A2780812A7
:100DA00012BCE50C450D450E450F70347E019003D5
:100DB00091E064017056D284900392E4F08051D2A5
:100DC000AAD2AF8A088B09E4F50AF50B9005C6781C
:100DD0000C12131D7808790C120FC679061200B692
:100DE000900391E06003020D64120D1C1200DBE918
:100DF000F8740968700779061200B6809174076864
:100E00006084E8608974066870A48082C2AFC2AA58
:100E1000EEF974011212377F08021163C082C08399
:100E2000900391E0700512087A801E900392E060B2
:100E300015A28F500BE5F98A828B83F07A0180022C
:100E40007A007B00800312096D020D3AC082C083D4
:100E5000900391E070051208C18003120A03020D8D
:100E60003AC0E074F21210AC900001E064CD70055D
:100E7000122013802AE064F57024E5C1C28BC0E023
:100E8000900415E0F8749428F582E43403F583D0D7
:100E9000E0F0900415120AF34005E4F08001007FB1
:100EA0000102110BC0E074F21210AC900001E0647A
:100EB000CD700512203B800BE064F57005120943EC
:100EC00080010080DA74F6121046890A740F550A00
:100ED000F508750900740B7808121296EA2400F8D8
:100EE000EB3480F9E82400E93509F985C709A2AF98
:100EF000E433F508C2AFE50AC4540FFAE5C754F865
:100F00004AF5C7740A121339E0FAA3E0FB801C8883
:100F1000828983E08C828D83F088828983A3A88272
:100F2000A9838C828D83A3AC82AD83EAFEEBFFEEB6
:100F300024FF1AEF34FFFBEE4F70D48509C7E50894
:100F4000A2E092AF7F0302116374F7121046ED9096
:100F50000389F0ECA3F0A37462F0A37473F0A3E030
:100F6000541FF07409121339E0F508A3E0F509E500
:100F700008333354FC90038EF0740678081212F094
:100F8000E50890038DF090038F7412F0A37442F083
:100F900075D1FE75D601EA906271F0EBA3F0906214
:100FA00070E0D2E1F0E0A2E740FB7F02021163C0F3
:100FB00082C083E9C333906272F0906270E0D2E045
:100FC000F0D083D08222080808EAC0E0EBC0E086B7
:100FD000F0E7A4FA180986F0E7A42AFA180986F0BF
:100FE000E7A42AFA180986F0E7A42AFA1986F0E796
:100FF000A4FBE5F02AFA190886F0E7A42BFBE5F03C
:101000003AFA190886F0E7A42BFBE5F03AFA18182B
:101010000986F0E7A4C5F02BFBE43AFA1908E7C506
:10102000F0C6A426F6E5F03BFBE43AFA1886F0E7B2
:10103000A4F6E5F00826F6E43B08F6E43A08F6D014
:10104000E0FBD0E0FA222518C582C0E0E51934FFA4
:10105000C583C0E0E518C3958224F910AF088583E5
:10106000198582188008858319858218D2AFCEF041
:10107000A3E520F0A37808E608F0A3DEFAEFF0A3DA
:10108000E58124FBF8E608F0A3E608F0A30808E6EB
:1010900008F0A3E608F0A315811581D0E0FED0E0AA
:1010A000F815811581E8C0E0EEC0E022C0D0251817
:1010B000C582C0E0E51934FFC583C0E0E518C395DB
:1010C0008224F310AF0885831985821880088583F0
:1010D00019858218D2AFC8F0A3E9F0A3EAF0A3EB18
:1010E000F0A37908E709F0A3D8FAECF0A3EDF0A398
:1010F000EEF0A3EFF0A3D0E0F0A3D0E0F0A3D0E0B7
:10110000F0A3E520F0A3E5F0F0A32285198385186C
:1011100082E0C0E0A3E0F9A3E0FAA3E0FBA3780833
:10112000E0F608A3DFFAE0FCA3E0FDA3E0FEA3E005
:10113000FFA3E0C0E0A3E0C0E0A3E0F5D0A3E0F5AA
:1011400020A3E0A3F5F010AF0885831985821880ED
:1011500008858319858218D2AFD082D083D0E0F879
:10116000D0E032851983851882E0A3FEE0A3F52044
:101170007808E0A3F608DFFAE0A3FFE0A3C0E0E010
:10118000A3C0E0E0A3C0E0E0A3C0E010AF08858208
:10119000188583198008858218858319D2AFD0837A
:1011A000D08222E490030278A179038002F0A3D8D0
:1011B000FCD9FA7AA27B0590008E782979018015F6
:1011C000E493A3AD82AE838A828B83F0A3AA82AB21
:1011D000838D828E83D8E9D9E7120AFA121343C0AD
:1011E00008C3E096F50808A3E096420808A3E09635
:1011F000420808A3E09645087001D3D00822C582B2
:101200002518C582C583351910AF07F519858218D1
:101210008007F519858218D2AFC583222518F5827B
:1012200010AF08F518400C15198008F51840021584
:1012300019D2AF8519832200C0D0251810AF08F548
:1012400018500C05198008F51850020519D2AFD0B6
:10125000D0226016080808C6C313C618C613C618DD
:10126000C613C618C613C6D5E0EA22251810AF0863
:10127000F518400C15198008F51840021519D2AF61
:1012800022E066701008A3E066700A08A3E06670AA
:101290000408A3E06622700422600D18C6C333C69A
:1012A00008C633C6D5E0F41822E627F60809E63763
:1012B000F60809E637F60809E637F622E026F608CA
:1012C000A3E036F608A3E036F608A3E036F622746B
:1012D000028000C0E0F40412121CD0E012132C2291
:1012E0002518FAE43519FB222518FCE43519FD22EE
:1012F000600C08C6C313C618C613C6D5E0F4227521
:10130000D00075813F7518027519030211A3E6F02C
:1013100008A3E6F008A3E6F008A3E6F022E0F6084A
:10132000A3E0F608A3E0F608A3E0F622CAC0E0E6D0
:10133000F0A308DAFAD0E0FA222518F582E435198C
:10134000F5832200000080FBFFFFFFFFFFFFFFFF90
:10135000FFFFFFFFFFFFFFFFFFFFFFFFFFFFFFFF9D
:10136000FFFFFFFFFFFFFFFFFFFFFFFFFFFFFFFF8D
:10137000FFFFFFFFFFFFFFFFFFFFFFFFFFFFFFFF7D
:10138000FFFFFFFFFFFFFFFFFFFFFFFFFFFFFFFF6D
:0A1FF600CA05094338860000000008
:020000040003F7
:01FFF000F020
:020000040000FA
:10200000022C6A0221FCFFFFFFFFFFFFFFFFFFFF23
:10201000FFFFFFFFFFFFFFFFFFFFFFFFFFFFFFFFD0
:10202000FFFFFFFFFFFFFFFFFFFFFF022904FFFF8E
:10203000FFFFFFFFFFFFFFFFFFFFFFFFFFFFFFFFB0
:10204000FFFFFF022759FFFFFFFFFFFFFFFFFFFF1B
:10205000FFFFFF022136FFFFFFFFFFFFFFFFFFFF34
:10206000FFFFFFFFFFFFFFFFFFFFFF02292DFFFF25
:10207000FFFFFFFFFFFFFFFFFFFFFFFFFFFFFFFF70
:10208000FFFFFF02218D01FFFFFFFFFFFFFFFFFFAB
:1020900010201020010105030101FF0F10FEFF6C4D
:1020A0004C00000000A24B00000000FF000000FFF9
:1020B000000196511800020000B53D000000004FDD
:1020C0003D333E853DFD3D0000793D0000000000B0
:1020D0000000000000000000000000000000000000
:1020E00000000006FFFFFF01010400491B00000083
:1020F000E8030000FFFF181C03E80300006400640D
:1021000000B801A0BB0D00A0BB0D0002020008003A
:10211000000502070401051E02051E020A0A010845
:102120000803B80B02803E0102FEFFE8030A050027
:1021300001FFFF0A01E0C0E074F2122578A2AFE4CB
:1021400033F508D2AFAFA7AEA1EE5F541060061210
:102150003AD375A1EFEE5F54086008123AD975A121
:10216000F78023EEA2E092F0EFA2E082F050179009
:102170006198E0F8900B52E0C398A2D265D033503A
:1021800002E8F075A1FE751A00E5088066C0E074EB
:10219000F2122578A2AFE433FED2AF9061A4E0F84A
:1021A000759B00E59158540860087591F7123B2122
:1021B0008023E59158541060087591EF123B2780F9
:1021C00014E591A2E092F0E8A2E082F05007E0C2AC
:1021D000E0F0123C7D9061A3E0F8E5E9585404601A
:1021E0000E123C5375E9FB906193E0A2E640F27554
:1021F0001A00EEA2E092AF7F010225D7C0E074F290
:10220000122578A2AFE433FED2AF9061A5E0F8E5E5
:10221000BF585404600675BFFB123C9580D1C3E4DF
:1022200098F8E499F912225F8026C3E49AFAE49BB5
:10223000FBE920E7E912225FE498F8E499F922C368
:10224000E498F8E499F912225FE498F8E499F9C364
:10225000E49AFAE49BFB22EB20E7CFE920E7E0B920
:102260000010BB0008E88AF084F8AAF022E4FBC85A
:10227000FA22EB70227B10C833C8C933C933500728
:10228000C39AC3DBF280069A50012ADBEAC833F412
:10229000C8C933F4C9FA2275F008E4C833C8C93391
:1022A000C933C99AC99B5004C92AC93BD5F0ECFB74
:1022B000C833F4C8E4C9FA2274F512251274FA126C
:1022C0002AC77508047509007808122A5174041287
:1022D0002AA77AF87B0779031239AD7402122A2EE5
:1022E0009080F17808122C7A7402122D0778081267
:1022F0002AF370497508027509007808122A51748A
:1023000002122AA77AF67B0779031239AD740212FA
:102310002A2E851882851983E0F47003A3E0F46007
:102320001C851882851983E0F8A3E0F988828983E7
:102330007402F0A3F0A37469F0A374A5F0C2AF75A2
:10234000D69F0200007406122A2E7F0402279C08E2
:102350000808EAC0E0EBC0E086F0E7A4FA180986B6
:10236000F0E7A42AFA180986F0E7A42AFA180986E1
:10237000F0E7A42AFA1986F0E7A4FBE5F02AFA1997
:102380000886F0E7A42BFBE5F03AFA190886F0E797
:10239000A42BFBE5F03AFA18180986F0E7A4C5F07B
:1023A0002BFBE43AFA1908E7C5F0C6A426F6E5F0D7
:1023B0003BFBE43AFA1886F0E7A4F6E5F00826F6C7
:1023C000E43B08F6E43A08F6D0E0FBD0E0FA22E479
:1023D000CFC0E0E4CEC0E0E4CDC0E0E4CCC0E07526
:1023E000F020E626F608E633F608E633F608E6338C
:1023F000F6181818EC33FCED33FDEE33FEEF33FF27
:10240000C3EC9709ED9709EE9709EF971919194051
:102410000FFFEC97FC09ED97FD09EE97FE191906E1
:10242000D5F0BFECF709EDF709EEF709EFF7191949
:1024300019D0E0FCD0E0FDD0E0FED0E0FF2225186E
:10244000C582C0E0E51934FFC583C0E0E518C39537
:102450008224F810AF088583198582188008858347
:1024600019858218D2AFCEF0A3E520F0A37808E654
:1024700008F0A3DEFAEFF0A3E58124FAF8E608F00D
:10248000A3E608F0A3E608F0A30808E608F0A3E630
:1024900008F0A315811581D0E0FED0E0F815811574
:1024A000811581E8C0E0EEC0E022122CFCB90003E7
:1024B0000224FCE49004D17885791A8002F0A3D834
:1024C000FCD9FA781A9020867A01BA00028007E4D3
:1024D00093A3F608DAF97A557B1E90209478A379B5
:1024E000018015E493A3AD82AE838A828B83F0A32F
:1024F000AA82AB838D828E83D8E9D9E77582BC75B9
:1025000083B274061229F575829D75834974001291
:1025100029F52518C582C0E0E51934FFC583C0E060
:10252000E518C3958224F910AF08858319858218B0
:102530008008858319858218D2AFCEF0A3E520F0FC
:10254000A37808E608F0A3DEFAEFF0A3E58124FB08
:10255000F8E608F0A3E608F0A30808E608F0A3E60A
:1025600008F0A315811581D0E0FED0E0F8158115A3
:1025700081E8C0E0EEC0E022C0D02518C582C0E0EE
:10258000E51934FFC583C0E0E518C3958224F31034
:10259000AF0885831985821880088583198582187C
:1025A000D2AFC8F0A3E9F0A3EAF0A3EBF0A3790857
:1025B000E709F0A3D8FAECF0A3EDF0A3EEF0A3EF57
:1025C000F0A3D0E0F0A3D0E0F0A3D0E0F0A3E520AA
:1025D000F0A3E5F0F0A322851983851882E0C0E01E
:1025E000A3E0F9A3E0FAA3E0FBA37808E0F608A3D0
:1025F000DFFAE0FCA3E0FDA3E0FEA3E0FFA3E0C060
:10260000E0A3E0C0E0A3E0F5D0A3E0F520A3E0A3C1
:10261000F5F010AF08858319858218800885831925
:10262000858218D2AFD082D083D0E0F8D0E03210CB
:1026300075F0108E218F228582268583258518824C
:10264000851983E0CEA3E0CF852682852583EBC95B
:10265000EAC8EDCBECCAC3E833C8E933C9EA33CAE8
:10266000EB33CBC3EA9EF524EB9FF523B35004ABC9
:1026700023AA24EC33CCED33CDD5F0DAAE21AF2252
:1026800022D083D082ECC0E0EDC0E0E493A3FCE470
:1026900093A3FDED4C600D1227DCEC24FFFCED3420
:1026A000FFFD80EFE493A3FCE493A3FDED4C600DEC
:1026B0001228AFEC24FFFCED34FFFD80EFD0E0FDED
:1026C000D0E0FCE493A3C0E0E493C0E0228519834A
:1026D000851882E0A3FEE0A3F5207808E0A3F608C1
:1026E000DFFAE0A3FFE0A3C0E0E0A3C0E0E0A3C006
:1026F000E0E0A3C0E0E0A3C0E010AF088582188549
:1027000083198008858218858319D2AFD083D0823F
:102710000229FBD083D082E9C0E0E493A3C386F012
:10272000C5F095F0F908E493A386F0C5F095F07034
:102730000BE493A3C3994005E9048002A3E475F078
:1027400002A42582F582E5F03583F583D0E0F9E433
:1027500093A3C0E0E493C0E022C0E074F2122578B5
:10276000A2AFE433FED2AFC2C0901D4DE0700BE5C6
:10277000D1A2E4501D123A318018E5D1A2E35006EF
:1027800075D1F7123A07E5D1A2E4500675D1EF12E0
:102790003A0DEEA2E092AF7F010225D7851983851D
:1027A0001882E0A3FEE0A3F5207808E0A3F608DF96
:1027B000FAE0A3FFE0A3C0E0E0A3C0E0E0A3C0E034
:1027C000E0A3C0E010AF08858218858319800885D2
:1027D0008218858319D2AFD083D08222C0E0C3E4AF
:1027E0009396087401939618400FE4936670080856
:1027F000740193661870007019A3A3C3E49396083C
:102800007401939618A3A3400DD0E0D0E0D0E0026D
:1028100026BDA3A3A3A3A3A3D0E022D083D082C5C7
:10282000F0E493A3C5F0C395F0F5F0E493A3C3954A
:10283000F04005E5F0048001E475F002A42582F57E
:1028400082E5F03583F583E493A3C0E0E493C0E030
:10285000227404800474028000CCC0E0EDC0E0E586
:1028600018C39CCCAD1950011D10AF068C188D19E2
:1028700080068C188D19D2AF122977D0E0FDD0E0F8
:10288000FC2274028000CCC0E0EDC0E0E518C39CDF
:10289000CCAD1950011D10AF068C188D1980068C17
:1028A000188D19D2AF122955D0E0FDD0E0FC22C01E
:1028B000E0C0F088F0E4936670080874019366182D
:1028C0007000A8F0A3A3700BD0F0D0E0D0E0D0E06F
:1028D0000226BDA3A3D0F0D0E022D083D082CCC00A
:1028E000E0E493A360061229D61470FAE493A3607F
:1028F00006122ADD1470FAD0E0FCE493A3C0E0E4F1
:1029000093C0E022C0E0C0D0E8C0E0E9C0E0A9A8E0
:10291000D2AFC2C7751A00E9A2E7E433F8E9A2E72B
:1029200092AFD0E0F9D0E0F8D0D0D0E032C0E0747F
:10293000F2122578758900C2C5901D4DE0700E7A9F
:10294000007B10900BE8E0F9123F6580031247F31B
:102950007F010225D7CAC0E0E493A3C582CCC5821B
:10296000C583CDC583F0A3C582CCC582C583CDC543
:1029700083DAE5D0E0CA22CAC0E0E0A3C582CCC5B4
:1029800082C583CDC583F0A3C582CCC582C583CD66
:10299000C583DAE6D0E0CA2270090808082260166A
:1029A000181818C6C333C608C633C608C633C608C7
:1029B000C633C6D5E0EA22C008C3E096F50808A3EE
:1029C000E096420808A3E096420808A3E09645086E
:1029D0007001D3D00822C0E0E493A3D39C5010E44C
:1029E00093A3C39C400AD0E0D0E0D0E00228F7A334
:1029F000A3A3D0E022C09FF59FE473D09F22D08391
:102A0000D082C09FE493C0E0740193C0E07402934D
:102A1000F59F222518F58210AF08F518400C1519FE
:102A20008008F51840021519D2AF8519832200C01D
:102A3000D0251810AF08F518500C05198008F518A6
:102A400050020519D2AFD0D0227404800A740380DA
:102A500006740280027401C0E0F404122A13D0E06C
:102A6000122CA722BB0102E722C082C08389828A7E
:102A700083BB0003E08002E493D083D082226016FF
:102A8000080808C6C313C618C613C618C613C61846
:102A9000C613C6D5E0EA222518F8E43519F922252F
:102AA00018FAE43519FB222518FCE43519FD22C378
:102AB000E0C696F608A3E0C696F608A3E0C696F62A
:102AC00008A3E0C696F622251810AF08F518400CAA
:102AD00015198008F51840021519D2AF22C0E0E49C
:102AE00093A36C7009D0E0D0E0D0E00228F7A3A354
:102AF000D0E022E066701008A3E066700A08A3E048
:102B000066700408A3E06622E76670100809E766AD
:102B1000700A0809E76670040809E76622C3E096B0
:102B200008A3E09608A3E09608A3E096A2D265D099
:102B30003322C3E096F008A3E096F008A3E096F0F5
:102B400008A3E096F022C3E697F60809E697F60890
:102B500009E697F60809E697F622C3E49396087407
:102B60000193960874029396087403939622E627BD
:102B7000F60809E637F60809E637F60809E637F6F3
:102B800022E026F608A3E036F608A3E036F608A30E
:102B9000E036F622E493F608740193F60874029383
:102BA000F608740393F622E647F60809E647F608A6
:102BB00009E647F60809E647F622E657F60809E669
:102BC00057F60809E657F60809E657F622E056F6E2
:102BD00008A3E056F608A3E056F608A3E056F6224E
:102BE000E056F008A3E056F008A3E056F008A3E092
:102BF00056F022E026F008A3E036F008A3E036F015
:102C000008A3E036F022700422600D18C6C333C654
:102C100008C633C6D5E0F41822E4C396F608E49655
:102C2000F608E496F608E496F622C6F4C608C6F45A
:102C3000C608C6F4C608C6F4C622600D08C6A2E7D8
:102C400013C618C613C6D5E0F322C3E7960809E7F2
:102C5000960809E7960809E79622C3E09608A3E0DC
:102C60009608A3E09608A3E0962275D00075813FF0
:102C70007518D1751904000224AAE0F608A3E0F63D
:102C800008A3E0F608A3E0F622600C08C6C313C64A
:102C900018C613C6D5E0F422E6F008A3E6F008A3B0
:102CA000E6F008A3E6F022CAC0E0E6F0A308DAFAEC
:102CB000D0E0FA22E0F8A3E0F9A3E0FAA3E0FB22D7
:102CC000E0FCA3E0FDA3E0FEA3E0FF22EAF0A3EB1B
:102CD000F0A3ECF0A3EDF022E0FAA3E0FBA3E0FC0C
:102CE000A3E0FD22ECF0A3EDF0A3EEF0A3EFF022C1
:102CF000E8F0A3E9F0A3EAF0A3EBF022E5C754F86B
:102D00004401F5C77901222518F582E43519F583C8
:102D1000221229FEC2A4021229FE41A5021229FE96
:102D200072A6021229FEAEA6021229FE88A802127D
:102D300029FE0EAC021229FE22AC021229FE2CAC96
:102D4000021229FE36AC021229FE40AC021229FE04
:102D50004AAC021229FE63AC021229FE6DAC0212CB
:102D600029FEE4AC021229FEEFAC021229FE1EADD0
:102D7000021229FE46AD021229FE51AD021229FEB1
:102D8000B6AD021229FEC0AD021229FECBAD021271
:102D900029FEEFAD021229FE13AE021229FE81AE0A
:102DA000021229FECAAE021229FEE6AE021229FE66
:102DB0005BAF021229FEA7AF021229FEF0AF02128A
:102DC00029FE75B0021229FE1CB1021229FEEDB2D5
:102DD000021229FE52B3021229FE80B4021229FE09
:102DE000A6B4021229FEEEB5021229FE28B902127B
:102DF00029FE26BB021229FEF1BC021229FE8ABD61
:102E0000021229FE88BF021229FE3DC0021229FECD
:102E100076C0021229FEE6C0021229FEF0C002129C
:102E200029FE1DC3021229FE20C4021229FE5DC51F
:102E3000021229FEB4C5021229FE5FC6021229FE43
:102E40000FC8021229FE5CC9021229FE7CC90212B7
:102E500029FED1C9021229FED2CA021229FEFACADB
:102E6000021229FE59CB021229FE51CC021229FE70
:102E7000C8CC021229FEDBCD021229FE49CE021275
:102E800029FE48CF021229FE9ED1021229FEC7D187
:102E9000021229FE2DD3021229FEAFD4021229FEFE
:102EA00006D5021229FEB9D5021229FE56D6021203
:102EB00029FEB9D6021229FE77D7021229FE09D8B7
:102EC000021229FE68D8021229FEAAD8021229FE8F
:102ED000E2D8021229FE38DA021229FE008003121B
:102EE00029FE3280031229FE6B80031229FEB48171
:102EF000031229FEF881031229FECA82031229FE59
:102F00002283031229FE3884031229FE84840312CB
:102F100029FEEA86031229FE8989031229FECC8A3A
:102F2000031229FE668B031229FE728B031229FEFF
:102F3000B28B031229FEF18C031229FEEA8D0312D3
:102F400029FE148E031229FE678E031229FEC08EFD
:102F5000031229FE218F031229FE3C91031229FE40
:102F6000CD92031229FEB993031229FEFB9403129A
:102F700029FE3797031229FE039A031229FE129A9B
:102F8000031229FEA69A031229FE5A9B031229FE58
:102F90009D9B031229FEE69B031229FE2F9C031220
:102FA00029FE939C031229FE019D031229FE1D9DFB
:102FB000031229FE4C9D031229FE8B9D031229FE4C
:102FC0007E9E031229FE2D9F031229FEA5A1031246
:102FD00029FEF2A2031229FEC5A3031229FE47A46B
:102FE000031229FE3EA8031229FE6DA8031229FE32
:102FF000C8A8031229FEFBA8031229FE6BA903121D
:1030000029FE9EA9031229FEFFA9031229FE4FAA39
:10301000031229FE28AB031229FEE2AB031229FE9C
:10302000BCAC031229FE42AF031229FEA0B003126A
:1030300029FEF3B1031229FE07B3031229FE0AB3D6
:10304000031229FE39B3031229FE0EB5031229FE1D
:10305000CDB5031229FEFCB5031229FE19B70312E0
:1030600029FEEDB7031229FEAFB9031229FE1FBADC
:10307000031229FE51BA031229FE71BA031229FE66
:10308000DDBA031229FED7BB031229FEFBBB0312D4
:1030900029FE6EBC031229FEC1BE031229FE20BF09
:1030A000031229FE74BF031229FEAFC1031229FEC9
:1030B0009BC2031229FE23C3031229FE0AC4031272
:1030C00029FE94C4031229FEA8C4031229FEBCC41D
:1030D000031229FED0C4031229FEE4C4031229FE00
:1030E00011C5031229FE41C5031229FE1BC7031295
:1030F00029FEE2C7031229FE8BC8031229FEE8C885
:10310000031229FE4BC9031229FE99C9031229FE95
:10311000B4C9031229FE7ECA031229FE23CB03126F
:1031200029FEA0CC031229FE2BCD031229FE66CD69
:10313000031229FED8CD031229FE2DCF031229FE3A
:10314000DBCF031229FE0FD0031229FE27D0031272
:1031500029FECAD0031229FE48D3031229FEDCD46B
:10316000031229FEFAD4031229FE18D5031229FEF0
:10317000E4D5031229FE3DD9031229FE4A8101122A
:1031800029FE8C81011229FE9486011229FEE08617
:10319000011229FE2687011229FE5888011229FEF4
:1031A000BD88011229FE0189011229FE878A0112B8
:1031B00029FE968E011229FEF38F011229FE839BB0
:1031C000011229FE069C011229FEF09E011229FE21
:1031D00055A0011229FEB8A0011229FEDAA10112A0
:1031E00029FE46A3011229FE2BA4011229FEA0A646
:1031F000011229FE2EA8011229FEBFA8011229FEE4
:10320000DEA9011229FE6BAA011229FE75AA01127C
:1032100029FE9DAA011229FE3DAB011229FE2AAC0E
:10322000011229FEF2AC011229FE7FAD011229FE26
:1032300095AD011229FEB2AD011229FEDBAD0112DE
:1032400029FE08AE011229FE63B0011229FE3EB12B
:10325000011229FE82B1011229FE04B2011229FED7
:10326000A5B2011229FED7B2011229FE2BB3011219
:1032700029FE5EB3011229FEBCB3011229FE0BB474
:10328000011229FE10B4011229FE6CB4011229FEAC
:10329000BEB4011229FEAAB5011229FE0FB6011211
:1032A00029FE6DB6011229FEECB6011229FE58BAAC
:1032B000011229FE3DBB011229FEE6BC011229FEC6
:1032C00034C0011229FED6C0011229FE2BC30112FF
:1032D00029FEE6C3011229FE2EC4011229FEE5C50E
:1032E000011229FE02C6011229FE0BC6011229FE97
:1032F00014C6011229FE1FC6011229FE3EC6011284
:1033000029FE62C8011229FEBFC8011229FEC9C8E0
:10331000011229FED3C8011229FE2EC9011229FE6D
:103320008AC9011229FEA2CA011229FE03CB011289
:1033300029FE14CC011229FE5DCC011229FE0BCD11
:10334000011229FE1BCE011229FEDFCE011229FE39
:103350001BD0011229FE2CD1011229FE37D20112F5
:1033600029FE4FD2011229FE86D2011229FE90D2E7
:10337000011229FE9AD2011229FEA5D2011229FEBC
:10338000C3D2011229FE0BD3011229FE69D3011207
:1033900029FE93D3011229FEA5D3011229FE4ED492
:1033A000011229FE87D4011229FEB3D5011229FE8C
:1033B00010D6011229FE01D7011229FE37D70112BA
:1033C00029FEA8D7011229FE24D8011229FEC8D946
:1033D000011229FEEEDA011229FEACDB011229FEF0
:1033E0007ADC011229FEFFDC011229FEAADD01129E
:1033F00029FE93DE011229FE2CDF011229FE08E0CE
:10340000011229FE70E0011229FE2FE1011229FEAE
:103410008BE1011229FEEFE1011229FEB5E2011252
:1034200029FED8E2011229FE82E3011229FEA4E35B
:10343000011229FE05E4011229FE35E6011229FEDA
:103440001EE7011229FECAE7011229FEF7E901125F
:1034500029FE40EA011229FE8BEA011229FEDEEA6A
:10346000011229FE3CEB011229FE6EEB011229FE2E
:1034700092EB011229FEC7EB011229FEEFEB0112BC
:1034800029FE34EC011229FE92EC011229FEF0EC27
:10349000011229FEE3ED011229FE57EF011229FE68
:1034A0009CEF011229FEC5EF011229FE4AF001121C
:1034B00029FEAFF0011229FEBDF0011229FEE1F054
:1034C000011229FE37F1011229FE52F1011229FEE3
:1034D0000DF2011229FE39F2011229FE7CF20112CD
:1034E00029FEDFF2011229FEDBF4011229FE07F5A5
:1034F000011229FEC2F5011229FEA6F6011229FECB
:103500003AF7011229FE8AC7051229FEC2C7051221
:1035100029FEE3C7051229FE25C8051229FE89C820
:10352000051229FE93C8051229FEA3C8051229FE1B
:10353000DAC8051229FE83CC051229FE4BCE0512EE
:1035400029FE2FD0051229FED1D0051229FE5BD10C
:10355000051229FE5080041229FEF980041229FE6A
:10356000D881041229FEE482041229FE0483041285
:1035700029FE2684041229FED685041229FE4386DC
:10358000041229FE1487041229FE1A88041229FE47
:103590009288041229FECD88041229FE268904127D
:1035A00029FE6189041229FEAA89041229FE3E8A95
:1035B000041229FED48A041229FEA98B041229FEC2
:1035C0007C8C041229FE0A8D041229FE308D04120F
:1035D00029FE5D8D041229FE8E8D041229FE5B8E5C
:1035E000041229FE6B8E041229FEBE8E041229FEDF
:1035F000CB8E041229FED88E041229FEE18E04120D
:1036000029FE458F041229FEA38F041229FEEE8F96
:10361000041229FE0990041229FE3090041229FE9A
:103620004D90041229FE5990041229FEEA910412C9
:1036300029FE0392041229FE7F92041229FE92921F
:10364000041229FEA292041229FE4693041229FEB6
:10365000B294041229FEC595041229FE659604123F
:1036600029FE6F96041229FEEE96041229FEFF969B
:10367000041229FE3E97041229FE6C97041229FEBB
:103680003998041229FE9098041229FEC998041250
:1036900029FE1F99041229FE3D99041229FE8B99D7
:1036A000041229FE569A041229FEA49A041229FE35
:1036B000F19A041229FE749B041229FE9E9B0412A7
:1036C00029FED49B041229FEE39B041229FE429C8E
:1036D000041229FEBA9C041229FEFB9C041229FE46
:1036E0004B9D041229FE769D041229FE909D041222
:1036F00029FEAA9D041229FE7F9E041229FE899E9E
:10370000041229FEC49E041229FED49E041229FE2E
:10371000DD9E041229FE2E9F041229FE429F0412F0
:1037200029FE64A0041229FE77A0041229FE8EA0AF
:10373000041229FEA3A0041229FE36A1041229FEB8
:10374000AAA1041229FE4FA2041229FE5AA20412B1
:1037500029FEBDA3041229FED9A3041229FE25A423
:10376000041229FE93A4041229FEC5A4041229FE02
:10377000DFA4041229FE3FA5041229FEDEA50412CF
:1037800029FE29A6041229FE7CA8041229FE14A9E8
:10379000041229FE8BA9041229FEE8AB041229FEAB
:1037A00000AC041229FE03AC041229FE0FAC041273
:1037B00029FE23AC041229FE2BAC041229FE62ACB4
:1037C000041229FE56AD041229FEE0AD041229FEB2
:1037D00062AE041229FEE2AE041229FEB9AF041251
:1037E00029FEDBAF041229FE74B0041229FED1B009
:1037F000041229FED4B0041229FE01B1041229FEDC
:1038000016B1041229FE85B1041229FED1B20412A8
:1038100029FEE4B3041229FE6FB4041229FE82B516
:10382000041229FE49B6041229FE7AB6041229FEB2
:10383000A0B6041229FEA9B6041229FED8B60412B5
:1038400029FE88B7041229FE38B8041229FEABB845
:10385000041229FE4EB9041229FEC1B9041229FE30
:1038600000BA041229FE49BA041229FE7EBA0412D3
:1038700029FE1294051229FE7F94051229FEC69492
:10388000051229FE3C95051229FE8E95051229FE8A
:103890001496051229FE5898051229FE879A0512DA
:1038A00029FE649E051229FEE49E051229FE1F9F33
:1038B000051229FE3D9F051229FE9D9F051229FE36
:1038C000C59F051229FEF59F051229FE26A00512A7
:1038D00029FE53A0051229FEACA0051229FEF7A06F
:1038E000051229FE2EA1051229FEAAA1051229FE04
:1038F000D6A1051229FE08A2051229FE6AA3051207
:1039000029FE86A3051229FEC4A3051229FE51A48F
:10391000051229FEADA4051229FE73A5051229FE84
:1039200032A6051229FE77A6051229FED8A6051291
:1039300029FE4DA7051229FE87A7051229FEDFA73C
:10394000051229FE01A8051229FE99A8051229FED3
:1039500040A9051229FE8DA9051229FEB6A9051256
:1039600029FEF7A9051229FEA4AB051229FE88AC91
:10397000051229FE39AD051229FEA1BF061229FE46
:10398000B2BF061229FE50C0061229FEF57F0012B2
:1039900029FEE6FF031229FE6AC0061229FE7AC03C
:1039A000061229FE8FC0061229FE20C1061229FE2A
:1039B000ABBD061229FE2FBE061229FE95BE0612C9
:1039C00029FEF9FF031229FEDC7F001229FEEC7F9D
:1039D000001229FEEF7F001229FEF27F001229FE5D
:1039E000F87F001229FEA8B0061229FECAB00612FE
:1039F00029FE35B2061229FEB9B2061229FE10C4FC
:103A0000061229FE19C4061229FE22C4061229FE36
:103A100030C4061229FE41FA031229FEADFA031240
:103A200029FE75FB031229FE6AFC031229FE57FECC
:103A3000031229FEB1FE031229FE04FF031229FE20
:103A400015FF031229FE27FF031229FE93FF03121D
:103A500029FEA7FF031229FEB2FF031229FEC0FFB1
:103A6000031229FED2FF031229FED1F1051229FE0D
:103A7000FDF1051229FEA3F4051229FEFAF4051240
:103A800029FE36F5051229FEFB9C021229FE63F57C
:103A9000051229FE54F6051229FE30F7051229FEFB
:103AA00044F7051229FEA8B4061229FECCB406126A
:103AB00029FEE5B4061229FE23B5061229FE59B5E2
:103AC000061229FE8CB5061229FE96B5061229FEAD
:103AD00002B6061229FE05B6061229FE0FB6061218
:103AE00029FE1CB6061229FEDFA6061229FE87A3B0
:103AF000021229FE4DA7061229FE6BA7061229FE07
:103B000086A7061229FEECA7061229FEF8A70612C0
:103B100029FE55A8061229FE79A8061229FE3FA9FA
:103B2000061229FE4CA9061229FE5DA9061229FEDD
:103B30002CC3061229FE44C3061229FE70C30612C6
:103B400029FE4880061229FEAC81061229FEBA81A0
:103B5000061229FECE81061229FEEB81061229FEED
:103B60000082061229FE1382061229FE9582061291
:103B700029FEFB82061229FE8483061229FEFC839D
:103B8000061229FED584061229FEE584061229FEB6
:103B9000F484061229FE93C2061229FEB7C2061249
:103BA00029FEDFC2061229FE07C3061229FE8BA9D1
:103BB000061229FEB2A9061229FED1A9061229FE73
:103BC00046AA061229FE7FFC051229FE98FC051262
:103BD00029FEAFFC051229FEB8FC051229FED6FC11
:103BE000051229FEE0FC051229FEEAFC051229FE59
:103BF000FDFC051229FE8AFD051229FEF9FD0512BC
:103C000029FE27FE051229FE78FE051229FEC4FEB4
:103C1000051229FEDFFE051229FEE9FE051229FE26
:103C2000FAFE051229FE3DFF051229FEB9C3061250
:103C300029FE04C4061229FE0AD2051229FE36D234
:103C4000051229FE59D2051229FE6CD2051229FE51
:103C500087D2051229FEEBD2051229FE19D30512CF
:103C600029FE26D7051229FE68D8051229FE9AD802
:103C7000051229FE05D9051229FE89DA051229FE49
:103C8000B1DA051229FEC6DA051229FED6DA0512C6
:103C900029FE16DB051229FE58DB051229FE68DB1A
:103CA000051229FEEFB8061229FEFFB8061229FEFA
:103CB00023B9061229FE4CB9061229FE76B906125E
:103CC00029FE9AB9061229FEB1B9061229FEDFB9FA
:103CD000061229FE02BA061229FE48FF051229FE25
:103CE0008EFF051229FE2BA3061229FE3BA3061206
:103CF00029FE59A4061229FE8DA4061229FEAFA49E
:103D0000061229FED7A4061229FEF0A4061229FEE7
:103D10002CA5061229FE92A5061229FED7A5061289
:103D200029FE1CA6061229FE49A6061229FE81A616
:103D3000061229FE7497061229FED697061229FE4E
:103D40007D98061229FEB598061229FED6F20412B5
:103D500029FE85F3041229FEB9F5041229FE8CF818
:103D6000041229FE0CFA041229FE6EFA041229FE2E
:103D700079FD041229FEBDFE041229FE3ABA06128C
:103D800029FE85BA061229FE58F7051229FE17FAF0
:103D9000051229FEB4FA051229FEE0FA051229FEE1
:103DA0000EFB051229FE43FB051229FE6BFB0512D3
:103DB00029FECBFB051229FE1BBB051229FE04BF01
:103DC000051229FEFBC0051229FE29C2051229FE93
:103DD00005C3051229FEB0C4051229FE4BC6051203
:103DE00029FE18C7051229FE6CC7051229FE18AC5A
:103DF000061229FE22AC061229FE43AC061229FE49
:103E000026AE051229FE4DB3051229FE7CB405121B
:103E100029FE58B6051229FE51B7051229FE88B8A9
:103E2000051229FE95B9051229FE7ABA051229FE56
:103E3000E9BA041229FE21BB041229FE7EC5041230
:103E400029FE68C6041229FEB8C7041229FE03C958
:103E5000041229FEAEC9041229FE81CA041229FEE9
:103E600018CB041229FEFCCB041229FEFFCC04124D
:103E700029FEC1CD041229FEEFCD041229FE67CF21
:103E8000041229FEF0CF041229FE09D0041229FEE3
:103E900063D1041229FE15D2041229FEA4D2041201
:103EA00029FE53D3041229FEB6D3041229FE52D49C
:103EB000041229FECBD4041229FEE9D4041229FEEF
:103EC000B6D5041229FE85D6041229FE3BD704126A
:103ED00029FE26B6061229FE50B6061229FE64B740
:103EE000061229FE67B7061229FE30C1061229FE06
:103EF00083C1061229FEC5C1061229FED5C10612CC
:103F000029FE4BEB051229FE92EB051229FEFBEB75
:103F1000051229FE1CEC051229FE35EC051229FEBE
:103F2000E5EC051229FEEEEC051229FE3FED051227
:103F300029FE75ED051229FE8CED051229FEF9ED1D
:103F4000051229FE89EE051229FEBFEE051229FE93
:103F500008EF051229FE69EF051229FEA3EF0512ED
:103F600029FE0BF0051229FE5EF0051229FEA1F0D4
:103F7000051229FEDEF0051229FEF0F0051229FED9
:103F800002F1051229FE3CF1051229FE7CF1051211
:103F900029FEA5F1051229FE2585061229FE6B864C
:103FA000061229FE9486061229FEA586061229FE0F
:103FB000BD88061229FEDD88061229FE64AE0612AF
:103FC00029FE9AAE061229FEE9AE061229FE45B078
:103FD000061229FE0080051229FE3E81051229FEE7
:103FE0007A81051229FE3F83051229FE6983051295
:103FF00029FEEF85051229FE2F86051229FEC587A9
:10400000051229FE5A88051229FEB888051229FED4
:104010003E89051229FE7689051229FEB889051206
:1040200029FE258B051229FEA98C051229FEE38E97
:10403000051229FE118F051229FE3D8F051229FE5A
:10404000468F051229FE9C8F051229FE2C90051221
:1040500029FE3393051229FEB593051229FEDFC10F
:10406000061229FEF5C1061229FEFFC1061229FE1D
:104070005BC2061229FEFB8E061229FE148F061261
:1040800029FEB98F061229FEF98F061229FE129019
:10409000061229FE4590061229FE9290061229FE6C
:1040A000C690061229FE0891061229FEE192061218
:1040B00029FE4C93061229FE6EBB061229FEC3BBD5
:1040C000061229FE1DBC061229FE98BC061229FE06
:1040D0000ABD061229FE48BD061229FE89BD061238
:1040E00029FEFBF7011229FE01F8011229FE48F80A
:1040F000011229FE54FA011229FE84FA011229FE46
:10410000EEFA011229FEA9FB011229FEECFB0112B5
:1041100029FE1DFC011229FEA7FC011229FEBEFC8E
:10412000011229FECBFC011229FED5FC011229FE49
:1041300075FE011229FE67FF011229FEC5FF01125B
:1041400029FE98DB051229FEAEDB051229FE60DC94
:10415000051229FE8ADD051229FE7FDE051229FEE1
:1041600016DF051229FE51DF051229FEC3DF0512F5
:1041700029FE21E0051229FE31E0051229FE58E052
:10418000051229FEAAE0051229FE16E2051229FEF3
:104190001BE2051229FE3DE2051229FE94DA021205
:1041A00029FEECDA021229FE8CDB021229FE09DD5F
:1041B000021229FEF5DD021229FEB2DE021229FEEC
:1041C000C9DE021229FE18DF021229FE8CDF02125C
:1041D00029FEE7DF021229FEFADF021229FE5EE065
:1041E000021229FECDE0021229FE7CE3021229FE12
:1041F00081E4021229FEDCE4021229FE30E50212FB
:1042000029FEDFE7021229FE2FE8021229FEB0E89C
:10421000021229FEF2E8021229FECCE9021229FE5E
:1042200005EA021229FE24EA021229FE6FEA0212AE
:1042300029FE85EA021229FE59EB021229FE40EC02
:10424000021229FE4BEC021229FE99EC021229FE01
:10425000EEEC021229FE3AED021229FE95EE021250
:1042600029FEBFEE021229FE57F1021229FE81F14A
:10427000021229FE8CF2021229FEBBF2021229FE62
:1042800033F3021229FEF7F3021229FE39F4021267
:1042900029FEADF4021229FECBF5021229FE12F618
:1042A000021229FE25F6021229FE28F6021229FE24
:1042B00031F6021229FE4CF6021229FEB6F602125F
:1042C00029FEEFF6021229FE0BF7021229FE37F73C
:1042D000021229FE5EF7021229FE82F7021229FE5F
:1042E000FBF7021229FE6EF8021229FEB1F8021243
:1042F00029FEBBF8021229FEEAF8021229FE00F993
:10430000021229FE1CF9021229FE4BF9021229FEA3
:104310006BF9021229FEB4F9021229FEEFF902121A
:1043200029FEFBFA021229FE5EFC021229FE7DFC28
:10433000021229FE94FC021229FEA6FC021229FE9A
:10434000AEBE061229FEBFBE061229FE48BF0612E7
:1043500029FE887A001229FEC67A001229FE5F7BA8
:10436000001229FE6A7C001229FEB27E001229FE8C
:104370002F7F001229FE12E4051229FE61E40512C6
:1043800029FE1FE6051229FEF3E7051229FE31E892
:10439000051229FE12E9051229FE1CEA051229FE62
:1043A0003EEA051229FE9AEA051229FE1BEB0512C8
:1043B00029FE894F001229FEAB4F001229FE1A5127
:1043C000001229FE6351001229FED451001229FE69
:1043D0005752001229FECE52001229FE1553001228
:1043E00029FE8C53001229FE3054001229FEA554D8
:1043F000001229FEE254001229FE2A59001229FE59
:104400004D5B001229FE865B001229FEC55B00127F
:1044100029FEBB5E001229FE4B5F001229FEFF60E1
:10442000001229FE3962001229FE5963001229FE8A
:10443000CA63001229FEAB64001229FE2E65001229
:1044400029FE4265001229FE1166001229FE486706
:10445000001229FE6769001229FE766B001229FE00
:10446000626C001229FEF96E001229FECE6F001256
:1044700029FE0D71001229FE3D74001229FE4D74B3
:10448000001229FE8375001229FE1C76001229FEF7
:104490004D77001229FEBB77001229FEF478001236
:1044A00029FE2F79001229FED879001229FE00D8A2
:1044B000041229FEA2D8041229FE0ED9041229FEE4
:1044C00028D9041229FEAAD9041229FEE4D904121B
:1044D00029FEE6DA041229FE28DB041229FE9ADB03
:1044E000041229FEEADB041229FE49DC041229FE2B
:1044F000F5DC041229FEDFDF041229FEA6E0041217
:1045000029FE0CE1041229FEB4E2041229FE4DE357
:10451000041229FEE6E3041229FE49E4041229FEEE
:10452000BFE4041229FEC0E5041229FEB1E604121C
:1045300029FEECE6041229FE03E7041229FED0E767
:10454000041229FE0EE8041229FE96E8041229FE40
:10455000E3E9041229FEA7EB041229FEE5EC04129C
:1045600029FE18EE041229FE2CEF041229FEC3EFD7
:10457000041229FE32F0041229FE3FF1041229FE32
:104580005BD9031229FEC4D9031229FE0CDA0312E7
:1045900029FE50DA031229FEC3DA031229FE1DDBBD
:1045A000031229FE58DB031229FEF2DB031229FE57
:1045B0004CDC031229FEB8DD031229FE31DE0312A2
:1045C00029FE5BDE031229FE6FDF031229FE83E062
:1045D000031229FEABE0031229FEA9E1031229FE12
:1045E000BAE1031229FED2E1031229FED8E2031236
:1045F00029FEFBE2031229FECAE3031229FEF4E3BB
:10460000031229FE0BE4031229FE31E4031229FEF2
:1046100070E4031229FE90E4031229FEB7E40312AA
:1046200029FECFE4031229FEA9E5031229FE03E6C1
:10463000031229FE73E7031229FEF1E7031229FE94
:1046400015E8031229FE2CE8031229FE00E90312E3
:1046500029FE99E9031229FEBFE9031229FE0FEB97
:10466000031229FE2EEB031229FEADEB031229FEE5
:10467000E4EB031229FE22EC031229FEB8EC03122C
:1046800029FE2DED031229FE11EE031229FEEFEF94
:10469000031229FEC4F0031229FE10F1031229FEB1
:1046A00041F2031229FEB1F3031229FE10F50312A1
:1046B00029FE1EF5031229FE1AF6031229FEC1F681
:1046C000031229FE07F7031229FE1CF7031229FE25
:1046D0002BF8031229FE44F9031229FEA0F9031254
:1046E00029FE6F9B061229FE2A9D061229FEF29DC5
:1046F000061229FE479E061229FECD9E061229FEAD
:104700005993061229FE7793061229FEBB930612CF
:1047100029FEE193061229FE0894061229FE209430
:10472000061229FE3894061229FE5094061229FE1C
:10473000F694061229FE3895061229FE4D950612AA
:1047400029FE5496061229FE6F96061229FE7896C7
:10475000061229FE8196061229FE8A96061229FE65
:104760009496061229FE1197061229FE318A061226
:1047700029FE738E061229FE8F8E061229FE948E54
:10478000061229FE2EB3061229FE619F061229FE8B
:10479000779F061229FE15A1061229FE60A10612B6
:1047A00029FECCA1061229FECBA2061229FEFAA2EE
:1047B000061229FE0CA3061229FE94B7061229FE42
:1047C000D9FC021229FE35FD021229FE75FD0212E6
:1047D00029FE77FE021229FE8FFE021229FEA1FE9B
:1047E000021229FECDFE021229FE04FF021229FE4A
:1047F00014FF021229FE2AFF021229FE4FFF0212A5
:1048000029FEDDFF021229FEB07F001229FED69C90
:10481000021229FEE69B021229FE729B021229FE59
:10482000E19A021229FE6F9A021229FE5E9A021282
:1048300029FE399A021229FE5599021229FE719811
:10484000021229FE8A95021229FE4794021229FEBD
:10485000AE91021229FE6991021229FE0F910212F5
:1048600029FE7090021229FE1D90021229FE4A8F25
:10487000021229FE848E021229FE488E021229FE9F
:10488000DB8D021229FED38D021229FE488D021201
:1048900029FED88C021229FE298C021229FE77A348
:1048A000021229FE1E8C021229FE4BA2021229FEC0
:1048B0006AA0021229FE61A0021229FE54A002126F
:1048C00029FE579F021229FECF9E021229FEC09E8A
:1048D000021229FE4D9E021229FE0F8C021229FEA1
:1048E000EE8B021229FEBA8B021229FE8E8B021267
:1048F00029FE319E021229FE628A021229FE4E888A
:10490000021229FE1F88021229FE0388021229FEC4
:1049100002A7061229FEAD87021229FE139E02127B
:1049200029FE7487021229FEEC86021229FEA08657
:10493000021229FE5986021229FE8C85021229FED6
:104940001085021229FE6884021229FEC183021218
:1049500029FE6383021229FE3883021229FEE982AE
:10496000021229FEAB82021229FE8982021229FE5E
:104970006682021229FE4D82021229FE058202126F
:1049800029FE4F81021229FE0080021229FEC380F7
:10499000021229FE5780021229FE4AF50500000086
:1049A00080FBE4738F000100401D870001003F1D64
:1049B00035000400BA1E25000200BE1E26000200BB
:1049C000C01E27000200C21E28000100CC1E2900C4
:1049D0000100CD1E84000400CE1E86000100D21E00
:1049E0002A000100D31E2B000100D41E2C00010060
:1049F000D81E2D000800211D2E000100D91E2F00F9
:104A00000100DA1E30000100DB1E31000100DC1E57
:104A100032000100291D330001002A1D340001006D
:104A2000DD1E360001002B1D38000100DE1E39009E
:104A30000100D71E83000200F21E630001003C1D2E
:104A400064000100D51E65000100D61E6D00010046
:104A50003D1D71000800191D66000100F11E430094
:104A60000100E21E44000200E31E45000100E51EB5
:104A700046000200E61E47000800341D4800010001
:104A8000E81E4B000100E91E04000100F41EA10015
:104A90000100F61E37000100F51E88000100411DCF
:104AA0003C0001002C1D3D000100DF1E49000200FA
:104AB000EA1E670001003E1D4D000200EC1E4E0084
:104AC0000100EE1E4F000200EF1E3E000100331DEC
:104AD000510001002D1D52000100E01E5300010095
:104AE000E11E540001002E1D000000000000000126
:104AF0003636010100010201000103010001040139
:104B0000060605020000070100340801000F090431
:104B100001010D0100FF0E0800001702000019013D
:104B200000FF1A0100011B0100FE1C0100081D020C
:104B300000001F01000120010001210200002301EB
:104B4000000F2402000026010001270100082802AE
:104B500000FF2A0100072B0102402C0100002D015B
:104B600000012E0100012F0100FF30010B1D310853
:104B700000003A0100083B01000F3C0100013D012B
:104B800000FF3E04000042040000460400004A0406
:104B900000004E04000052040000560400005A04B5
:104BA0000000010371030103010301030103010379
:104BB00022030203010310030003000300030003A8
:104BC0000003000300034203000324030603000361
:104BD0000003040312032503230325032303040313
:104BE0000403000300030003440300030003230342
:104BF000000365032100350381030003050300035F
:104C000000030003000325032303030471040204CB
:104C1000600411047004020402040104020410047C
:104C20006104000414046304730472046204430402
:104C30000004130406040004000404041204000425
:104C40000004000400045104640000040004000493
:104C50004404000400040004000465040004350456
:104C6000810464000504000483040004030071004F
:104C700030016000110070003102200350048000F8
:104C800010006100000014006300730072006200F5
:104C900043000000130006000000000004001200A2
:104CA000000000000000000004000400370037008E
:104CB0003C0244000000000000000000650000000D
:104CC00035008100000005000000830000000101A4
:104CD0007101010101011101010131010101010114
:104CE0008001100161013B00140063017301720136
:104CF000620143010001130106013D013500040179
:104D0000120100010001000100010401040133014E
:104D100033013C014401320136000001000165010C
:104D200000013500810100010501820183010001BC
:104D300003027102300160021102700201020202DC
:104D400002028002100261023A0041006302730213
:104D500072026202430200021302380000020002E3
:104D60000402120200020002000200020402040215
:104D7000370037003C024402000239000002000202
:104D800065020002350281020002050282028302EE
:104D9000000236000100060000000F0000000000C5
:104DA000000000000000000003FFFF00000403FFFC
:104DB000FF0000FFFF0FF4010005C4040320000101
:104DC00000000B000000000000000003010F0000C5
:104DD00000000000000000000000000000000000D3
:104DE00000000000000000000000000000000000C3
:104DF0000000ED4413004B441F0051441F805744F2
:104E00000100ED440200D3430300D9430400DF4313
:104E10000500E5430600F14330000F44310009442A
:104E200032001B44330021443500274434002D4414
:104E30003600334411003F44140045441500034438
:104E4000FFFF00000A000000020000000400000054
:104E500008000000100000002000000040000000DA
:104E600080000000000100000002000000040000BB
:104E700000080000001000000020000000400000BA
:104E800001C13106F73108F1310B0F32108B2E0AB8
:104E9000213202C73105E53107CD310CA9310DB5FD
:104EA00031645F48FF000007ECFDFDFDECDCDCCC6D
:104EB000BCACAC9C9C8C7C7C6C6C5C5C5C4C4C3C62
:104EC0003C2C2C1C1C03EAF5E5D5D5C5B5A595955C
:104ED0008585757565655555454535352525151502
:104EE0000500160F00000B150B020002220F330005
:104EF000000E5A6967426565416C6C69616E636555
:104F0000303901030507090B0D0F00020406080ADA
:104F10000C0D00034A49434E181A250502000119D9
:104F200016181616182303000C0E020B040B0A07A2
:104F300008000F303016181920231A1C1E300039B3
:104F40003D3F373C3C362C442D303017181921306A
:104F50001B1D1F30020402010101010902E80300C8
:104F60000000BE040A000000007F00E8030E000CF1
:104F70000A030305090008000CFF1E1E280508038C
:104F800004040910150401080CC082C083901C1091
:104F9000E4F0A3F07CED7D047A297B1B1240D9124A
:104FA000482F122ED912482902653B74F312243E71
:104FB00074F5122AC789098A088B0A8C0BE9705F7D
:104FC00074026508703F7908124325750C00780C4F
:104FD000122A55E50BF50C780C122A55E50AF50C4A
:104FE000780C122A55901B45122851901ED2E0F9D8
:104FF0007C347D1D901EF2126F83123A8574071265
:105000002A2E0250E27401650860030250E7790815
:105010001243257B00AA0AA90A12489B0250E27497
:1050200001650960097402650960030250E7EA60DE
:10503000067403650870477902124325901ED2E07A
:10504000F9901B45122CD8124817E9F9901B54E02F
:10505000A2E34010E9700D901C14E004F0640470A9
:105060000312510874036508707A901C15E0F874F7
:105070000128F0E8C39405406B1251088066740162
:105080006508706374016509790A702E12432574EE
:1050900001122D07E4F07402122D077403F00412BC
:1050A0002D07E4F0A3F0A3F0A3F07408122D07E499
:1050B000F0AA18AB191231D38044124325901EC8B0
:1050C0001228517A007B20901B49E0F912408B7422
:1050D00004122A2E901ED2E0F9901B45122CD812F1
:1050E00048BFE9F9E960179080CD1228517A017B19
:1050F00000901B49E0F912408B7404122A2E740BA5
:10510000122A2E7F050226CD901B45E4F0A374F8E9
:10511000F0A374FFF0A37407F02274F612243EE9A2
:10512000FFEAFE7AD1F9123F418A828B83E58245FC
:1051300083702A7A027B00123F23EA4B700E7A10AA
:105140007B00901B49E0F9123F6580148A828B83B3
:1051500074D1F0EFA3F0EEF9123F2F8003EFA3F02C
:1051600002538774F712243E89089006FB1264A646
:10517000901EB5E0F47003A3E0F4702D900BE8E00E
:10518000901EB5F0A3E4F080208E828F83A312627C
:1051900033600F8E828F83A3A312622DFAA90812A7
:1051A00043BB8E828F8312524AEE4F70DC901EB545
:1051B000E0F47003A3E0F4600A901EB5E0FAA908D9
:1051C0001243BB1232E1901B13125B801232DB7F61
:1051D000010226CD74F012243E890B8C0C75080058
:1051E0007509007410122D071252BE7412122D0789
:1051F00012524A803CA80A1252AEF50EA3E0F50FF7
:10520000A8091252A1F583E0650E7004A3E0650FB2
:105210007014125241EE28F582EF39F583E50EF055
:10522000A3E50FF00508050AE50AC3950C40C6057D
:1052300009E509C3950B5005750A0080EBA90880A4
:1052400011A808E828F8E433F922126C5CE8FEE9BA
:10525000FF227F080226CD74F412243E890B8C0AAB
:10526000750800740C122D071252BE80020508E565
:1052700008C3950B502775090080020509E509C38D
:10528000950A50E9A8081252A11264A4A809125262
:10529000AE6E7003A3E06F70E27901800279008046
:1052A00028E828F8E433F9EA28F582EB3922E828DF
:1052B000F8E433F9EC28F582ED39F583E022126C3D
:1052C0005CE8FCE9FD22122A2E7F040226CD74F64A
:1052D00012243E1253717003A3E06D7017750852CB
:1052E00075091B7808122A51EEFA1244F37402125F
:1052F0002A2E801F7508027509807808122A518CA1
:10530000088D097808122A5112535C12451774044B
:10531000122A2E807274F612243E1253717003A367
:10532000E06D701775085F75091B7808122A51EE39
:10533000FA1244F97402122A2E801F7508037509A7
:10534000807808122A518C088D097808122A511287
:10535000535C1245177404122A2E802B12536A3F95
:10536000F583E0FD7C801265E322EE240EF582E4F5
:1053700022EAFEEBFF1265F8FCE439FD901B13E016
:105380006C227402122A2E7F020226CD74F6122499
:105390003E74FE122AC7EAFEEBFF85188285198348
:1053A000E4F0A3125B30126529FCA3E0FBECFA8861
:1053B000828983A3A3E0F97509007508006005746C
:1053C000FF697005750882803D901B13E06A7003C9
:1053D000A3E06B701AAA18AB191238B1E9F5098568
:1053E000188285198312695A701C7508838017907A
:1053F0001D3FE06004640170057508818008E06469
:10540000027003750880851882851983126943A983
:1054100008EEFAEFFB1244FFE5096011851882855A
:10542000198312695A6006126F7D123FCB025382B4
:1054300074F212243EEAFEEBFF75080075090012B3
:1054400065F4F50AE439F50B1232E1EA650A7003F6
:10545000EB650B70121238C3E914F50879017ADC98
:105460007B1B1238C98003750980126949F50C78D5
:105470000C122A55750CDC750D1B780C122A51780C
:1054800008122A55780A122A51E509F508780812F7
:105490002A551263BF12694CF97A057B80124505C3
:1054A000740702771974F612243E89097508008082
:1054B000278A828B83E0FE1278DCEE28E439FF1223
:1054C0005241EC28F582ED39F583EEF0A3EFF0EAD6
:1054D0002402FA50010B0508E508C3950940D202E1
:1054E000538774E812243E74FB122AC78A168B175E
:1054F000851882851983E4F07403122D07E4F0A364
:10550000F004122D07E4F0A3F01258F33517125BE4
:1055100002F50B850A82F5831279C8FEE439FF850E
:105520000A82850B83A3A3E0FA850A82850B83A3F5
:10553000A3A3E0F9EAF508E439F509E50A2404F53E
:105540000A5002050BEEFAEFFB12337DE9640160AD
:1055500016EEFAEFFB12337DE9703D901B13E06EFF
:105560007003A3E06F6031126739122A55E4F50821
:10557000F5097808122A517808122A55901B13123F
:1055800028557508807808122A551258DA124505F0
:105590007407122A2E0258D012590D8810602B124F
:1055A0007567123FC57403122D07125B80740312D6
:1055B0002D0712695A60137403122D07125905A999
:1055C000101243EB8A0A8B0B800375100012590DE1
:1055D000880F6027127567123FC57401122D0712DC
:1055E0005B807401122D0712695A600F7401122D2D
:1055F00007125905A90F1243EB8003750F0090069F
:10560000FB805C850A82850B83A3A3A3A3A3A3A32A
:10561000A3E4F0A3F0AA0AAB0B851482851583A33B
:10562000A3E0F812622DF9123F2F851282851383B1
:10563000E0C0E0851882851983E0F874DC28F582E3
:10564000E4341BF583D0E012695E04F0E511A2E0BA
:105650005007AA12AB13123FCB851482851583E045
:10566000F514A3E0F515E5144515700302583D85C2
:105670001482851583A312623360DE85148285153A
:1056800083A3A3A3A3A3A3A3A3E0A2E050CB851469
:1056900082851583A3A3A3A312695A851482851555
:1056A00083A3A3601F126234FA79018514828515E1
:1056B00083A3A3A3A31258F81249A28A128B1375CD
:1056C000110180101258F8A3A3A3E0F512A3E0F58E
:1056D00013751100E5124513700302564C851282B2
:1056E000851383A3E065087004A3E06509600F7467
:1056F000FF6508700474FF6509600302564C85124B
:1057000082851383A3A3A3A3A3A3A3122855851261
:1057100082851383A3A3A3A3A3A3E0FC7405122D86
:1057200007126F83A9101243CD7402122A2EE9705A
:105730003C851282851383A3A3A3A3A3A3A3A3A33E
:10574000A3122855851282851383A3A3A3A3A3A321
:10575000A3A3A3E0FC7403122D07126F83A90F12F9
:1057600043CD7402122A2EE9700302564CE50F2530
:1057700010C333240AFA7B00123F238A0A8B0BEAF8
:10578000450B700302562A8A828B8374D2126B698E
:105790008A828B83A3A3E8F0A3E9127842A3E510E1
:1057A0001279D0E50FF0E510603CEA2405FAE43503
:1057B0000BFBE50A240AF8E4350BF98A828B831285
:1057C00060F97403122D0712591D122A4DAC10EC0A
:1057D0002CFCE433FD8A828B83126F83123EFF74AC
:1057E00003122A2E800D8A828B83A3A3A3A3A3E492
:1057F000F0A3F0E50F7003025603A810125243E520
:105800000A28F8E50B39F9E8240AFAE439FB850A95
:1058100082850B83A3A3A3A3A3A3A3A3125B80747A
:1058200001122D0712591D122A4DAC0FEC2CFCE46D
:1058300033FD123EFF7403122A2E0256158518827C
:10584000851983E06027126739122A557508DC75BF
:10585000091B7808122A517403122D07126742128D
:105860002A55901B131228557508008029EEFAEF6F
:10587000FB12337DE9702F126739122A557508DC47
:1058800075091B7808122A517508007808122A55E4
:10589000901B131228557808122A551258DA12450F
:1058A000057407122A2E7403122D0712695A600B11
:1058B0007403122D07126F83123FCB7401122D0750
:1058C00012695A600B7401122D07126F83123FCBBD
:1058D0007405122A2E7F100226CDE5162402FCE460
:1058E0003517FDE5161263533517F583E0F97A068F
:1058F0007B8022EA126520221258FC22E0F8A3E005
:10590000F583888222126943AA0AAB0B22850A8298
:10591000850B83E0F8A385820A85830B22E0F50CD2
:10592000A3E0F50D750E00780C2274F112243E747C
:10593000F4122AC78A088B09ECFEEDFF740B122DB6
:10594000077403F0122A9F1240D91232DB8A0A8BA5
:105950000BAC0AAD0B7403122A9F1240D3E9600A04
:10596000125AFC6010E06401600B8518828519836F
:105970007484025AAA8E828F83A3A3A3A3A3A3A392
:10598000A3E06013F46010125AFC7016EE24141297
:10599000694C6003F4700B85188285198374820248
:1059A0005AAA1276EAE064217002A3E06003025A68
:1059B00081851882851983748C125B3064036003BF
:1059C000025A6B7401122AA71260DE123005E960D8
:1059D00003025A6B1243138A0A8B0BEA450B7003BE
:1059E000025AAB8E0C8F0D750E00780C122A4D7C6E
:1059F000157D00123EFF7403122A2E850882850948
:105A000083A3A3E50A2415FCE4350BFD74091229D0
:105A100077127376C0E0E50A241E125AEAD0E0122B
:105A20005F45C0E0E50A241F125AEAD0E0F0E50A1B
:105A30002420125AEA7405F0EE240BFE50010FFAEE
:105A4000EFFB1239477D007C007900EEFAEFFB1284
:105A500044BD9080CD1228517A007B10901B49E004
:105A6000F912408B7404122A2E8078125AF2122AEC
:105A700055125B0A122FE77401122A2EE9702C804E
:105A800014125AF2122A55125B0A122FED740112E7
:105A90002A2EE9700D851882851983E4F01242E3FD
:105AA00080098518828519837488F0127376F50A47
:105AB000780A122A557401122A97880A890B780AE3
:105AC000122A51E508240CF582E43509125B0244E0
:105AD00080F50B780A122A5112648F1244B17405B2
:105AE000122A2E740C122A2E805EF582E4350BF5F4
:105AF0008322EE1260EBE0F50A780A22125B35642D
:105B00000322F583E0F50AA3E022EE240BFCE43F38
:105B1000FD8E828F83A3A3A3A3A3A3A3A3A3126F2A
:105B2000C08E828F83A3A3A3A3A3A3A3A3E0F92280
:105B3000F0125B3522125B3922EE2413F582E43F2A
:105B4000F583E022EEFAEFFB7F070226CDC082C08C
:105B50008374F3122AC7851882851983E4F004122E
:105B60002D07125B807403122D07AA82AB831249A2
:105B700073AA18AB19124937740D122A2E02653B0D
:105B8000EAF0A3EBF02274F612243E126513FAA396
:105B9000E0F9EAF8901B5AE058F508A3E059F50936
:105BA000E5084509601C7808122A51901B13122839
:105BB00055126949FD7C001265DF1245117404120B
:105BC0002A2E02538774EA12243E74DB122AC78AF3
:105BD000148B157512007513001258F33515F583E3
:105BE000126234F50EAC18AD197A007B00799C1264
:105BF0002D177A047900124901EAF50C851882857F
:105C00001983E02AF0F8E50EC3984003025DE1E055
:105C1000C3950EF509C394044003750903E509759E
:105C2000F01AA4FAABF0123FC58A128B13EA45139F
:105C30007003025DE4750D00AE12AF13850E08808F
:105C40007E125E5C123F0B850A82850B83A3A3A3A1
:105C5000A3E0702D850A82850B8312695A700C129D
:105C600070CCF0EE24181270CF8010125E6AF090A3
:105C7000055FE014C0E0125E44D0E0125E95E4805F
:105C80003490055FE004C0E0125E44D0E0125E8D07
:105C9000C39403EE4003025D4B1260E77402125E90
:105CA0008D64017003025D58EE2415125E6DF0EEF6
:105CB0002416125E6DF0EE241AFE50010F050DE55C
:105CC0000DC395094003025D83E508C3950C4003AD
:105CD000025D61AA087B001248778A0A8B0B0508CF
:105CE00090054C125E761240D9850A82850B83128C
:105CF0006C58125E52E8F0A3E9125EA7850A82850D
:105D00000B83A3A3A3A3A3A3A3A3A3A3E0C0E01215
:105D10005E3AD0E0F07401122D07E4127896126C0E
:105D2000587402122D071260F97401122A9F124949
:105D300049E964016003025C417404122D07AC82DE
:105D4000AD83125E621240D9025C47125E6B125E36
:105D50008D64036003025CA8EE24151270CF025C10
:105D6000AEE50CC3950E4005750800801DE50EC319
:105D7000950CF5088014125E6AF0EE241AFE5001AC
:105D80000F050DE50DC39509505A740E122AA7AAE6
:105D9000087B007987122D1705087418122D071239
:105DA0005E761240D9125E5C123F0BEE2412F8E4CC
:105DB0003FF9740E122D07126F8388828983EAF0EF
:105DC000A3EB125E957403125EA7741D122D07E0FB
:105DD000C0E0125E3AD0E0126EF2709A1270CC807F
:105DE00098750900750A00780A122A557812122A45
:105DF000517809122A55E50EF5097809122A5574C9
:105E000005122D07E0FD7C00E51412634A3515FBF1
:105E1000E51412634F3515F583E0F912454D74050D
:105E2000122A2EE51245136007AA12AB13123FCBBC
:105E30007425122A2E7F0E0226CDEE2419F582E457
:105E40003FF58322125E4822EE2418F582E43FF5E6
:105E50008322EE2412F582E43FF583227C087D0044
:105E600079FFEE240AFAE43FFB22EE2414F582E4E3
:105E70003FF583740122126C5C8E828F83E8F0A35D
:105E8000E9F07C607D05EE12634A3FFB22127891B7
:105E9000A3A3A3E022F0EE1270C37402F0EE241666
:105EA000F582E43FF58322F0EE2417F582E43FF516
:105EB000837402F0125E4874FFF02274F612243EDE
:105EC00074F9122AC7125F3A127A52123F17EAF88F
:105ED000EBF9ECFAEDFB851882851983122CF0EEB4
:105EE0002404FE50010F8E828F83E0C0E074041200
:105EF0002D07D0E0126EC9F87405122D077401F059
:105F00007406122D077401F0901B1DF0901B2604DF
:105F10001278AEA3126F83901B1E125B80E8901B59
:105F200027125F45901B1CF0AA18AB19124811E903
:105F3000600312480B74070253848A088B09EA1223
:105F40006520350922F012780EE02274F212243E08
:105F500074FF122AC77508007E007F001232038A80
:105F60000A8B0B1232038A0C8B0DA80CA90D80052D
:105F70000508126C52E84970F7901D3FE060076415
:105F80000160030260561232038A0C8B0DA80CA923
:105F90000D8003126C52E849603688828983126F43
:105FA0008390054CE06A7003A3E06B600D1260F211
:105FB00039F583126F83EA4B70D988828983126C1A
:105FC0005890054CE0687003A3E0697003026056C6
:105FD0007A167B00123FC58A0C8B0DAE0CAF0DEE0E
:105FE0004F607390054C126C588E828F831260F94B
:105FF000900541E08E828F83A3A3F0123365E98E72
:10600000828F83A3A3A3A3A3F0901ED3127885F05D
:106010007C607D051260DE1240D9AA18AB19794167
:10602000124709851882851983E06008901B1312B6
:106030006C58800478FE79FF8E828F83A3A3A3A37C
:10604000A3A3A31260F91260E6E50AF0A3E50BF042
:106050008E0A8F0B0508901B27E0F8E508C39850BF
:106060000479008027E508C398F9C39406400279B3
:10607000057800800DE50A1260F3350B125B02F51E
:106080000B08901B27E0FAE8C39A40E975090078ED
:1060900009122A55780A122A51E9F5097809122AB3
:1060A00055901B27E0F5097809122A55AD087C00A8
:1060B0007A1E7B1B901B1CE0F91245477405122ABF
:1060C0002E901D3FE060046401700BEE4F6007EE00
:1060D000FAEFFB123FCB12480B7401027719EE2442
:1060E0000BFAE43FFB22EE1260EB221260F33FF565
:1060F0008322E82414F582E422E8F0A3E9F0227474
:10610000F012243E74FF122AC78A0A8B0B7E008E7F
:106110000E8E0F1258F3125AED126234FFAC18AD06
:10612000197A007B00799D122D17851882851983B5
:10613000E0F8EFC39840030261D8E0C39FFEC39428
:106140000B40027E0AEE75F007A4FAABF0123FC5D1
:106150008A088B098A0E8B0FEA450F6079750C004F
:10616000801A850882850983A3A3A3A3A37403F0DF
:10617000E5082407F50850020509050CE50CC39E47
:106180005056AC08AD09E50C2FFAE43400FB798BCE
:10619000122D17850882850983A3A3A3A3A3E01466
:1061A000600814601314601F80B885088285098315
:1061B000A3A3A3A3A3E480B7850882850983A3A32F
:1061C000A3A3A3740180A8850882850983A3A3A340
:1061D000A3A3740280997E007508007808122A55DE
:1061E000780E122A51EEF5087808122A55EFF508B4
:1061F0007808122A557405122D07E0FD7C00E50A87
:1062000012634A350BFBE50A12634F125AEDE0F9AF
:106210001245537405122A2EE50E450F6007AA0E8B
:10622000AB0F123FCB7401122A2E025252A3E0F59B
:10623000838882A31258FCE02274EE12243E74FE7E
:10624000122AC78A0C8B0D7510007511001258F3B5
:10625000350DF583126234F50AAC18AD197A007B5E
:106260000079A3122FF3126F7DC3E50A9AE49B50C5
:1062700076851882851983A80AE0C398FEA3E09466
:1062800000FFC3EE9404EF940040067E037F00807D
:1062900004EE4F6052EEFAEFFBEA75F015A4FAA88F
:1062A000F075F015EBA428FB123FC58A088B098A0C
:1062B000108B11EA4511602F750B00750E00C3E5B8
:1062C0000E9EE49F5026AC08AD09A80AE50E28FAF8
:1062D000E43400FB79A2122FF3E5082415F50850E9
:1062E000020509050E80D7750B8B7E0075080078B6
:1062F00008122A557810122A51EEF5087808122A49
:1063000055E50AF5087808122A557405122D07E09C
:10631000FDAC0BE50C12634A350DFBE50C12634F27
:10632000350DF583E0F91245597405122A2EE51052
:1063300045116007AA10AB11123FCB7402122A2E2E
:106340007F0A0226CDFCEFFDE5082402FAE42212C2
:10635000635322240FF582E42274F612243E74FF64
:10636000122AC7EAFEEBFFEE1258F43F12773EA363
:10637000A3A3A3A3A3A3A3E0F91248CBE9851882A2
:10638000851983F07508007808122A557401122ABD
:1063900097880889097808122A5175083575098087
:1063A0007808122A511263B51244B17405122A2ECC
:1063B000740102538479011263BFFAE43FFB22EEB9
:1063C0002402FCE43FFDEE240F2274F412243E74F8
:1063D000FA122AC7125F3A1264A4EEFAEFFB1249CE
:1063E0006DE960171232DB8A0A8B0BAC0AAD0BEE3B
:1063F000FAEFFB1240D3E96401700A7401122D0711
:10640000E4F0A380097401122D07EEF0A3EF1278D7
:10641000CAA3A3A3A3A3E0F8A2E650087403122D15
:10642000077401F0E8A2E750087404122D07740104
:10643000F07405122D07E4F004122A9F123AEBE9DA
:10644000851882851983F09080B5122CD81232FFFE
:106450007A007B0012330B7A007B00123305750A39
:1064600000780A122A557401122A97880A890B7833
:106470000A122A51750A34750B80780A122A5112B1
:10648000648F1244B17405122A2E74060252C67922
:1064900001E5082402FCE43509FDE508240FFAE4CF
:1064A0003509FB22F583127748FF2274F612243E49
:1064B00074FF122AC7126513F509A3E0F508A909AC
:1064C000124919E9851882851983F0901D3FE07003
:1064D0000B740165087005A909124613EE240B120E
:1064E000694C702C7508007808122A557401122A1C
:1064F00097880889097808122A5175083675098025
:106500007808122A511263B51244B17405122A2E6A
:106510000263B0EAFEEBFF12651F3F12652622EE12
:106520002413F582E422F583E0126608E022C0829B
:10653000C083901D3FE07003124619D083D08202C1
:1065400029FB74F412243E74EF122AC7EAFEEBFF13
:106550001265F4F508E439F509901B13E06508703D
:1065600004A3E065097052A818A919880A890B7854
:106570000A122A51750A11750B00780A122A517CE9
:10658000007D007A817B0012404F7404122A2EE9AC
:106590007027750A00780A122A557401122A978802
:1065A0000A890B780A122A51AC08AD091265DF126C
:1065B000450B7403122A2E8021750A11750B807801
:1065C0000A122A517808122A51126949FD7C841254
:1065D00065DF1245177404122A2E74110252C61276
:1065E00065E322EE2402FAE43FFBEE1263533FF52B
:1065F00083E0F9221265F822125B391266081277DD
:10660000F9F8E4C8F9EA2822F8A3E0F98882898336
:106610002274F112243E74EB122AC7126513FCA3F4
:10662000E0FAE4CAFBEC2AF508E43BF509901B13F9
:10663000E065087004A3E0650960030266E08882F3
:106640008983A3A3E09410500F88828983A3A3E0D9
:1066500085188285198380088518828519837410AE
:10666000F0E0C0E07404122D07D0E012772AA3A353
:10667000A982AA83890C8A0D750E00780C122A4D06
:106680007407122D07E0FC7D007408122D07AA8202
:10669000AB83123EFF7403122A2E7404122A9788C9
:1066A0000A890B780A122A51750A11750B00780AAB
:1066B000122A517C007D007A817B001240497404CB
:1066C000122A2E7404122D07E0901B526005E0D2AE
:1066D000E48003E0C2E4F0851882851983E4800831
:1066E0008518828519837484F0E0C0E07401122D4E
:1066F00007D0E0F07402122D07E508F07403122DA4
:1067000007E508F012536A3F126740122A557402D7
:10671000122A97880889097808122A517508147571
:1067200009807808122A5179031263B71244B174B0
