:020000040000FA
:100000000212FF022003FFFFFFFFFF02200BFFFF92
:10001000FFFFFF020E61FFFFFFFFFF02201BFFFF3C
:10002000FFFFFF022023FFFFFFFFFF02202BFFFF48
:10003000FFFFFF022033FFFFFFFFFF020EA4FFFFC1
:10004000FFFFFF022043FFFFFFFFFF02204BFFFFE8
:10005000FFFFFF022053FFFFFFFFFF02205BFFFFB8
:10006000FFFFFF022063FFFFFFFFFF02206BFFFF88
:10007000FFFFFF022073FFFFFFFFFF02207BFFFF58
:10008000FFFFFF022083FFFFFFFFFF02208BFFFF28
:10009000FFFF70DFFFFF040000000002000000C847
:1000A0000300030369A5020269A501000000000026
:1000B00004003273000074F8121046900393E0605D
:1000C0001590030274FEF0900304744DF0A37405C0
:1000D000F07A011206857F0102116374F71210464F
:1000E00074FF12126B7E00801F851882851983E0D1
:1000F00064FE70069003877401F085188285198369
:10010000E0F8900384E068F07C017D00AA18AB1948
:10011000120E1C8B09EA450970030201F38518824F
:10012000851983E064EF70027E07E0C0E0900387EA
:10013000E0FA900385E0F8EA28F8E43400F9740264
:1001400028F582740339F583D0E0F0900387E060EE
:100150009814600E14602C14603C14605214606893
:100160008098900384E4F0851882851983E09003D9
:1001700086F0C394809003874004E40200F974027F
:100180000200F9851882851983E0900382F09003BC
:100190008774030200F9851882851983E090038330
:1001A000F0900386E0601990038774040200F990D0
:1001B0000385E004F0F8900386E06860030200FA2B
:1001C00090038774050200F9900385E4F09003879B
:1001D000F0900384E0F8851882851983E068600355
:1001E0000200FA900382E0644D60030200FA1203F9
:1001F000288002EEF974011212377F020211637433
:10020000F712104674FB12126BEAFEEBFF7508043E
:1002100075090078081212CF74021212E87A907BE6
:10022000007904120EC574021212371206771213E7
:1002300039E0687003A3E06970128518828519831C
:10024000E0F47003A3E0F4600302030874041212E4
:10025000E01206DD8A088B09A808A90974021213A6
:1002600039E8F0A3E9F07404121339E06008790169
:100270001200B6020321851882851983E068700395
:10028000A3E0697076851882851983E0F47003A372
:10029000E0F4701974021213397410F0A37420F092
:1002A0008518828519837410F0A37420F0750801F5
:1002B00075090078081212CF74021212E87A247BB2
:1002C00008120F49740212123775080478081212C6
:1002D000CF74021212E87A907B007904120EC57472
:1002E00002121237120677121339E0687003A3E086
:1002F000697004790280067904800279031200B6DD
:100300008E828F83741E80058E828F83E4F01206A6
:1003100077121339E0687003A3E0697004790180F3
:1003200002790074050201F774ED12104674F81298
:10033000126B900307E0FD900306E0FCFAEDF8E491
:10034000C8F9EA28FEE93408FF751001750B00753D
:100350000A068E088F0974027808121296C395084F
:10036000F8E49509F9740228F50E740339F50F8E37
:10037000088F09740978081212F0E508F511EE24C7
:1003800010F508E43FF509EEF50CEF5401F50D907A
:100390000383E014605914700302046414700302B0
:1003A00004DF14601024FE700302059A1470030227
:1003B000064A02065A750A03794E120C5B9003072F
:1003C00012066D7402F0A3744012066B74081206D4
:1003D0006BF0A3F07418C3940704F510AA10A90BCE
:1003E000120685A90A74081212377F0C0211637570
:1003F0000A04794E120C5BEE450D7005A911120F1F
:10040000AFC3EE9425EF9408503CC3E5089424E56F
:100410000994084031E50E2496F8E50F3420F98858
:10042000828983E0701BA3AA82AB83E070139003E0
:10043000887401F08882898374A5F08A828B838016
:1004400004900388E4F0750810750900780812120A
:10045000CF7C087D03EEFAEFFB120F4974021212F3
:10046000370203DC750A05E511C394794006750B64
:10047000010203DC75124075130078121212CF7C52
:10048000097D037402780C121296AA0CAB0DA91107
:10049000120EC57402121237900307E0A3F0900306
:1004A00006E0A3F0751043C3EE9425EF94084003D3
:1004B0000203DCC3E5089424E50994085003020311
:1004C000DC900388E070030203DCE50E2497F8E576
:1004D0000F3420F988828983E4F0A3F00203DC75ED
:1004E000080475090078081212CF74021212E87A13
:1004F000907B007904120EC5740212123774021236
:100500001339E0F8A3E0F9851882851983E0687053
:1005100003A3E069851882851983700BE0F47003EA
:10052000A3E0F470578009E0F47003A3E0F4700DC9
:100530008518828519837410F0A37420F012067751
:10054000121339E8F0A3E9F075080178081212CF08
:1005500074021212E87A247B08120F4974021212F4
:100560003775080478081212CF74021212E87A90D4
:100570007B007904120EC57402121237120677122C
:100580001339E0687003A3E0697006750A0102037D
:10059000DC750A02750B070203DC900391E060072B
:1005A000640260030203DCEDFF7A01790012068524
:1005B000E0600302063E8003120D1C120D26E97056
:1005C000F7740412133912065F7404121339780891
:1005D00012131D85080C85090D850A0E850B0F90D9
:1005E00005A2780C1212BC7404121339780C121381
:1005F0000EE5084509450A450B70CE8EC2E5C55487
:10060000E04FF5C5740412133912065F7404121317
:1006100039780812131D85080C85090D850A0E8589
:100620000B0F9005A2780C1212BC740412133978C7
:100630000C12130EE5084509450A450B70CE7A01E8
:10064000790012068579080203E5EC900393F070B7
:10065000030203DC750A090203DC79060203E5E400
:10066000F0A37426F0A3E4F0A3F022F0A3E4F0A337
:10067000F0A3F0A3F0A322851882851983E0F8A3E4
:10068000E0F974022274F8121046EAFE900305E0C5
:10069000D2E7F0E9A3F0EE900303F08E0874042A89
:1006A000FE7C028004E062080CECFA3395E0FB74F7
:1006B000022AF58274033BF583EEF8C3EA98EB94C3
:1006C00000A2D265D03340DDE508F074012A0C3376
:1006D00095E0FD7A027B03120E4C0200D674E912FB
:1006E00010467582007583FE1211FE8A168B1775EF
:1006F00014007515008A828B83E4F0900391E070FA
:1007000006D2AAD2AF80046402700579001200B646
:10071000750C00750D20750E00750F00900391E0AB
:10072000600464027015120D1C1200DBE9F87409F4
:1007300068600302080D79001200B675080075099B
:100740000278081212CF74021212E8850C08850D87
:1007500009AA08E5095407FB850E0A850F0B740BDF
:100760007808121252A908120EC574021212377EAE
:10077000007F009005AAC0828E10EFF5113395E03E
:10078000F512F513850C08850D09850E0A850F0BEA
:10079000780879101212A99005A678081212BC7573
:1007A0008305D08278081211DF501D8518828519C3
:1007B00083E5822EF582E5833FF583E0F9AA14AB49
:1007C0001512083C8A148B150EEE70010FC3EF94BE
:1007D0000240A09005AE780C1212BC9005B2780CC5
:1007E0001211DF400302071C7900AA14AB1512088E
:1007F0003C790012083C8B15900391E07004C2AF65
:10080000C2AAEA451570277AA57BA58021E8700366
:1008100002073B740668700302073B7407687003A5
:1008200002073B8516828517837401F080BA7582B2
:10083000007583021211FE7F10021163C008C00907
:100840007C088A088B09740F78081212F0E508F802
:10085000EA25E0FAEB33FBE9A2E7500474014AFA17
:10086000E8A2E0500874216AFA74106BFBE9C33304
:10087000F91CEC70CDD009D0082274F8121046781B
:10088000007900802274942EF582E43403F583E02D
:100890008A828B83F09004141209FA4005900414A4
:1008A000E4F008E8700109900414E0FEA3E06E6033
:1008B00007C3E89CE99D40CDE8FAE9FB7F010211FE
:1008C0006374F7121046900498E0F509A3E0F50868
:1008D000F8E509C398F895E0F9E508C39509E850EB
:1008E0000B120ADC701178007900801B247F500104
:1008F00009C39CE99D50EF7A007B008041E004F041
:10090000D2E908E8700109C3E89CE99D502C8A826D
:100910008B83E0C0E0900499E0FE74182EF582E429
:100920003404F583D0E0120ACC90049AE4F09004E9
:1009300099E0C3947F40C6E480C5E8FAE9FB7F02F2
:10094000021163C082C083C2E9900498E0F8A3E07A
:10095000686017741828F582E43404F583E0F5C163
:10096000900498120AF34002E4F0020D3A74F8126F
:1009700010467800790090051DE07055A3E0705195
:1009800075F900C28FC284A28340FCA28F4004A2EA
:100990008350F8AEF9C28FA2835004D2848032EE25
:1009A000C0E0E0FE1209EFD0E0F090051E120AF35D
:1009B00040D9E4F080D51209EFE08A828B83F09071
:1009C000051D1209FA400590051DE4F008E87001C4
:1009D0000990051DE0FEA3E06E6007C3E89CE99D59
:1009E00040D4E8497006E4F090051DF00208B874A0
:1009F0009D2EF582E43404F58322E004120AD0C36C
:100A000094802274F81210469005A0E0FEF890053C
:100A10009FE0FFEEC39FE0500DC398F895E0F912F8
:100A20000ADB70188012C398F895E0F9E8247F502B
:100A30000109C39CE99D4004EC4D70077A007B00DE
:100A4000020AC98A828B83E0F5F9A3AA82AB837874
:100A50000179008008E004F008E8700109C3E89C0F
:100A6000E99D50278A828B83E0C0E09005A0E0FEDC
:100A7000741F2EF582E43405F583D0E0120ACC9081
:100A800005A0E0C3947F40CDE480CCC28FA2834018
:100A9000FCC284A28F4004A28350F890059F120AE2
:100AA000E6E0F5F9C28F90059FE0FAA3E06A9005B1
:100AB0009F7005120AE68005120AF34002E4F0A2D4
:100AC0008350D0D284E8FAE9FB0208BC120AD02293
:100AD000F08A828B83A3AA82AB8322E824FF18E9E1
:100AE00034FFF9E84922E0FA741F2AF582E434055C
:100AF000F58322E004F0C394802274FB12126B7E13
:100B0000009005CA780812131D9005CA7401F0A35D
:100B1000F0A37469F0A374A5F09005B678081212DA
:100B20008170047E0180159005BA780812128160E8
:100B300008E59D541864107003022000120C81EE29
:100B4000A2E05003020BFEAA18AB191201FFE970D4
:100B500003020BFE851882851983E0C3943C500C78
:100B6000E0F8743CC398FA95E0FB80047A007B00BF
:100B7000120D3FE97003020BFE900391E0640170D7
:100B80000C75F800C2AB539AF7D2EA805E7907126F
:100B900000B68003120D1C120D26E970F7740112C5
:100BA0001339E4F0A37426F0A3E4F0A3F074011267
:100BB0001339780812131D85080C85090D850A0E56
:100BC000850B0F9005A2780C1212BC740112133918
:100BD000780C12130EE5084509450A450B70CE75D1
:100BE0008600C2AAC28B539AFBC2E990000174CD61
:100BF000F0022000C2AF75C9AB75C95B80FE7508F5
:100C000000750900750A00750B00900391E0701BD8
:100C1000D2AAD2AF79051200B6E07003120D1C12F1
:100C200000DBE9F8740968700980E9794E120C5B01
:100C300080ED74016870E2E07017120D1C9005BE23
:100C400078081212BC9005C278081211DF50EBC26E
:100C5000AAC2AF75C9AB75C95B80FEC082C083787C
:100C6000109005A1E0C399501575B60FE5B4A2E741
:100C700050FAE5BBC39940F118E870EDE9F0020DB8
:100C80003AC082C08353BEFBE59DA2E650FA0078CD
:100C9000F8790100120ADB70FA75C6807480659ECF
:100CA00070FA43BE049062707408F0794A120C5BCB
:100CB00090000174F5F07403F5D575D489A2A0E411
:100CC00033900391F0A2E05029D28453F3F753F309
:100CD000EF53FDF743FD10538FF753F7DF43FC202D
:100CE00043F10253F5DF75F82043F4F0D2FED2ABA6
:100CF000802853FF3F85FFFF53F1FE43F30C53F26F
:100D0000F375868075C48090049BE4F0A3F075C2EF
:100D1000D875C50B75C402438640801E8003120936
:100D200043A2E940F922C082C083900498E0F8A36E
:100D3000E0686004790180027900D083D082227457
:100D4000F112104674FF12126B7E00900391E06462
:100D500001706CC2849003927401F07508388E099A
:100D60008E0A8E0B7C017D00AA18AB19120E1C8B0B
:100D70000DEA450D6018851882851983E0641060BE
:100D80002DE064EF70088E088E098E0A8E0B8508A0
:100D90000C85090D850A0E850B0F9005A2780812A7
:100DA00012BCE50C450D450E450F70347E019003D5
:100DB00091E064017056D284900392E4F08051D2A5
:100DC000AAD2AF8A088B09E4F50AF50B9005C6781C
:100DD0000C12131D7808790C120FC679061200B692
:100DE000900391E06003020D64120D1C1200DBE918
:100DF000F8740968700779061200B6809174076864
:100E00006084E8608974066870A48082C2AFC2AA58
:100E1000EEF974011212377F08021163C082C08399
:100E2000900391E0700512087A801E900392E060B2
:100E300015A28F500BE5F98A828B83F07A0180022C
:100E40007A007B00800312096D020D3AC082C083D4
:100E5000900391E070051208C18003120A03020D8D
:100E60003AC0E074F21210AC900001E064CD70055D
:100E7000122013802AE064F57024E5C1C28BC0E023
:100E8000900415E0F8749428F582E43403F583D0D7
:100E9000E0F0900415120AF34005E4F08001007FB1
:100EA0000102110BC0E074F21210AC900001E0647A
:100EB000CD700512203B800BE064F57005120943EC
:100EC00080010080DA74F6121046890A740F550A00
:100ED000F508750900740B7808121296EA2400F8D8
:100EE000EB3480F9E82400E93509F985C709A2AF98
:100EF000E433F508C2AFE50AC4540FFAE5C754F865
:100F00004AF5C7740A121339E0FAA3E0FB801C8883
:100F1000828983E08C828D83F088828983A3A88272
:100F2000A9838C828D83A3AC82AD83EAFEEBFFEEB6
:100F300024FF1AEF34FFFBEE4F70D48509C7E50894
:100F4000A2E092AF7F0302116374F7121046ED9096
:100F50000389F0ECA3F0A37462F0A37473F0A3E030
:100F6000541FF07409121339E0F508A3E0F509E500
:100F700008333354FC90038EF0740678081212F094
:100F8000E50890038DF090038F7412F0A37442F083
:100F900075D1FE75D601EA906271F0EBA3F0906214
:100FA00070E0D2E1F0E0A2E740FB7F02021163C0F3
:100FB00082C083E9C333906272F0906270E0D2E045
:100FC000F0D083D08222080808EAC0E0EBC0E086B7
:100FD000F0E7A4FA180986F0E7A42AFA180986F0BF
:100FE000E7A42AFA180986F0E7A42AFA1986F0E796
:100FF000A4FBE5F02AFA190886F0E7A42BFBE5F03C
:101000003AFA190886F0E7A42BFBE5F03AFA18182B
:101010000986F0E7A4C5F02BFBE43AFA1908E7C506
:10102000F0C6A426F6E5F03BFBE43AFA1886F0E7B2
:10103000A4F6E5F00826F6E43B08F6E43A08F6D014
:10104000E0FBD0E0FA222518C582C0E0E51934FFA4
:10105000C583C0E0E518C3958224F910AF088583E5
:10106000198582188008858319858218D2AFCEF041
:10107000A3E520F0A37808E608F0A3DEFAEFF0A3DA
:10108000E58124FBF8E608F0A3E608F0A30808E6EB
:1010900008F0A3E608F0A315811581D0E0FED0E0AA
:1010A000F815811581E8C0E0EEC0E022C0D0251817
:1010B000C582C0E0E51934FFC583C0E0E518C395DB
:1010C0008224F310AF0885831985821880088583F0
:1010D00019858218D2AFC8F0A3E9F0A3EAF0A3EB18
:1010E000F0A37908E709F0A3D8FAECF0A3EDF0A398
:1010F000EEF0A3EFF0A3D0E0F0A3D0E0F0A3D0E0B7
:10110000F0A3E520F0A3E5F0F0A32285198385186C
:1011100082E0C0E0A3E0F9A3E0FAA3E0FBA3780833
:10112000E0F608A3DFFAE0FCA3E0FDA3E0FEA3E005
:10113000FFA3E0C0E0A3E0C0E0A3E0F5D0A3E0F5AA
:1011400020A3E0A3F5F010AF0885831985821880ED
:1011500008858319858218D2AFD082D083D0E0F879
:10116000D0E032851983851882E0A3FEE0A3F52044
:101170007808E0A3F608DFFAE0A3FFE0A3C0E0E010
:10118000A3C0E0E0A3C0E0E0A3C0E010AF08858208
:10119000188583198008858218858319D2AFD0837A
:1011A000D08222E490030278A179038002F0A3D8D0
:1011B000FCD9FA7AA27B0590008E782979018015F6
:1011C000E493A3AD82AE838A828B83F0A3AA82AB21
:1011D000838D828E83D8E9D9E7120AFA121343C0AD
:1011E00008C3E096F50808A3E096420808A3E09635
:1011F000420808A3E09645087001D3D00822C582B2
:101200002518C582C583351910AF07F519858218D1
:101210008007F519858218D2AFC583222518F5827B
:1012200010AF08F518400C15198008F51840021584
:1012300019D2AF8519832200C0D0251810AF08F548
:1012400018500C05198008F51850020519D2AFD0B6
:10125000D0226016080808C6C313C618C613C618DD
:10126000C613C618C613C6D5E0EA22251810AF0863
:10127000F518400C15198008F51840021519D2AF61
:1012800022E066701008A3E066700A08A3E06670AA
:101290000408A3E06622700422600D18C6C333C69A
:1012A00008C633C6D5E0F41822E627F60809E63763
:1012B000F60809E637F60809E637F622E026F608CA
:1012C000A3E036F608A3E036F608A3E036F622746B
:1012D000028000C0E0F40412121CD0E012132C2291
:1012E0002518FAE43519FB222518FCE43519FD22EE
:1012F000600C08C6C313C618C613C6D5E0F4227521
:10130000D00075813F7518027519030211A3E6F02C
:1013100008A3E6F008A3E6F008A3E6F022E0F6084A
:10132000A3E0F608A3E0F608A3E0F622CAC0E0E6D0
:10133000F0A308DAFAD0E0FA222518F582E435198C
:10134000F5832200000080FBFFFFFFFFFFFFFFFF90
:10135000FFFFFFFFFFFFFFFFFFFFFFFFFFFFFFFF9D
:10136000FFFFFFFFFFFFFFFFFFFFFFFFFFFFFFFF8D
:10137000FFFFFFFFFFFFFFFFFFFFFFFFFFFFFFFF7D
:10138000FFFFFFFFFFFFFFFFFFFFFFFFFFFFFFFF6D
:0A1FF600CA05094338860000000008
:020000040003F7
:01FFF000F020
:020000040000FA
:10200000022C560221FAFFFFFFFFFFFFFFFFFFFF39
:10201000FFFFFFFFFFFFFFFFFFFFFFFFFFFFFFFFD0
:10202000FFFFFFFFFFFFFFFFFFFFFF022904FFFF8E
:10203000FFFFFFFFFFFFFFFFFFFFFFFFFFFFFFFFB0
:10204000FFFFFF022759FFFFFFFFFFFFFFFFFFFF1B
:10205000FFFFFF022134FFFFFFFFFFFFFFFFFFFF36
:10206000FFFFFFFFFFFFFFFFFFFFFF02292DFFFF25
:10207000FFFFFFFFFFFFFFFFFFFFFFFFFFFFFFFF70
:10208000FFFFFF02218B01FFFFFFFFFFFFFFFFFFAD
:1020900010201020010105030101FF0F10FEFF1C9D
:1020A0004A00000000524900000000FF000000FF4D
:1020B0000001965118000200007B3C000000001552
:1020C0003CF93C4B3CC33C00003F3C00000000009E
:1020D0000000000000000000000000000000000000
:1020E00000000006FFFFFF01010400D21B000000FA
:1020F000E8030000FFFF9F1CE80300006400640089
:10210000B801A0BB0D00A0BB0D000202000800003A
:1021100005020701051E02051E020A0A010808033E
:10212000B80B02803E0102FEFFE8030A050001FF32
:10213000FF0A01E0C0E074F2122576A2AFE433F5A5
:1021400008D2AFAFA7AEA1EE5F5410600612399966
:1021500075A1EFEE5F5408600812399F75A1F780F2
:1021600023EEA2E092F0EFA2E082F0501790619887
:10217000E0F8900B4FE0C398A2D265D0335002E84C
:10218000F075A1FE751A00E5088066C0E074F212D1
:102190002576A2AFE433FED2AF9061A4E0F8759B40
:1021A00000E59158540860087591F71239E78023CB
:1021B000E59158541060087591EF1239ED8014E5DF
:1021C00091A2E092F0E8A2E082F05007E0C2E0F0D5
:1021D000123B439061A3E0F8E5E9585404600E1205
:1021E0003B1975E9FB906193E0A2E640F2751A0095
:1021F000EEA2E092AF7F010225D5C0E074F2122575
:1022000076A2AFE433FED2AF9061A5E0F8E5BF5807
:102210005404600675BFFB123B5B80D1C3E498F8A1
:10222000E499F912225D8026C3E49AFAE49BFBE963
:1022300020E7E912225DE498F8E499F922C3E498D2
:10224000F8E499F912225DE498F8E499F9C3E49A64
:10225000FAE49BFB22EB20E7CFE920E7E0B900108E
:10226000BB0008E88AF084F8AAF022E4FBC8FA224E
:10227000EB70227B10C833C8C933C9335007C39AE7
:10228000C3DBF280069A50012ADBEAC833F4C8C9DE
:1022900033F4C9FA2275F008E4C833C8C933C93326
:1022A000C99AC99B5004C92AC93BD5F0ECFBC83375
:1022B000F4C8E4C9FA2274F512251074FA122AC778
:1022C0007508047509007808122A517404122AA7A7
:1022D0007AF87B0779031238737402122A2E9080E1
:1022E000ED7808122C667402122CF37808122AF387
:1022F00070497508027509007808122A5174021293
:102300002AA77AF67B0779031238737402122A2EF1
:10231000851882851983E0F47003A3E0F4601C85BE
:102320001882851983E0F8A3E0F988828983740212
:10233000F0A3F0A37469F0A374A5F0C2AF75D69FA3
:102340000200007406122A2E7F0402279C08080847
:10235000EAC0E0EBC0E086F0E7A4FA180986F0E7EF
:10236000A42AFA180986F0E7A42AFA180986F0E7E1
:10237000A42AFA1986F0E7A4FBE5F02AFA190886E0
:10238000F0E7A42BFBE5F03AFA190886F0E7A42B56
:10239000FBE5F03AFA18180986F0E7A4C5F02BFB24
:1023A000E43AFA1908E7C5F0C6A426F6E5F03BFBC7
:1023B000E43AFA1886F0E7A4F6E5F00826F6E43BDE
:1023C00008F6E43A08F6D0E0FBD0E0FA22E4CFC009
:1023D000E0E4CEC0E0E4CDC0E0E4CCC0E075F020A5
:1023E000E626F608E633F608E633F608E633F6188E
:1023F0001818EC33FCED33FDEE33FEEF33FFC3EC86
:102400009709ED9709EE9709EF97191919400FFFF2
:10241000EC97FC09ED97FD09EE97FE191906D5F02A
:10242000BFECF709EDF709EEF709EFF7191919D025
:10243000E0FCD0E0FDD0E0FED0E0FF222518C58210
:10244000C0E0E51934FFC583C0E0E518C3958224D8
:10245000F810AF088583198582188008858319854F
:102460008218D2AFCEF0A3E520F0A37808E608F0FA
:10247000A3DEFAEFF0A3E58124FAF8E608F0A3E67C
:1024800008F0A3E608F0A30808E608F0A3E608F0C1
:10249000A315811581D0E0FED0E0F81581158115D6
:1024A00081E8C0E0EEC0E022122CE8B9000302246B
:1024B000FAE49004D1787B791A8002F0A3D8FCD991
:1024C000FA781A9020867A01BA00028007E493A372
:1024D000F608DAF97A4B7B1E90209478A179018076
:1024E00015E493A3AD82AE838A828B83F0A3AA8284
:1024F000AB838D828E83D8E9D9E77582387583F1F5
:1025000074051229F575824F75834774001229F5F9
:102510002518C582C0E0E51934FFC583C0E0E51881
:10252000C3958224F910AF08858319858218800825
:10253000858319858218D2AFCEF0A3E520F0A37869
:1025400008E608F0A3DEFAEFF0A3E58124FBF8E645
:1025500008F0A3E608F0A30808E608F0A3E608F0F0
:10256000A315811581D0E0FED0E0F815811581E832
:10257000C0E0EEC0E022C0D02518C582C0E0E51959
:1025800034FFC583C0E0E518C3958224F310AF087B
:102590008583198582188008858319858218D2AFB2
:1025A000C8F0A3E9F0A3EAF0A3EBF0A37908E709E8
:1025B000F0A3D8FAECF0A3EDF0A3EEF0A3EFF0A3B4
:1025C000D0E0F0A3D0E0F0A3D0E0F0A3E520F0A3AA
:1025D000E5F0F0A322851983851882E0C0E0A3E02E
:1025E000F9A3E0FAA3E0FBA37808E0F608A3DFFA7A
:1025F000E0FCA3E0FDA3E0FEA3E0FFA3E0C0E0A3B6
:10260000E0C0E0A3E0F5D0A3E0F520A3E0A3F5F05F
:1026100010AF088583198582188008858319858203
:1026200018D2AFD082D083D0E0F8D0E032E4730883
:1026300075F0108E218F228582268583258518824C
:10264000851983E0CEA3E0CF852682852583EBC95B
:10265000EAC8EDCBECCAC3E833C8E933C9EA33CAE8
:10266000EB33CBC3EA9EF524EB9FF523B35004ABC9
:1026700023AA24EC33CCED33CDD5F0DAAE21AF2252
:1026800022D083D082ECC0E0EDC0E0E493A3FCE470
:1026900093A3FDED4C600D1227DCEC24FFFCED3420
:1026A000FFFD80EFE493A3FCE493A3FDED4C600DEC
:1026B0001228AFEC24FFFCED34FFFD80EFD0E0FDED
:1026C000D0E0FCE493A3C0E0E493C0E0228519834A
:1026D000851882E0A3FEE0A3F5207808E0A3F608C1
:1026E000DFFAE0A3FFE0A3C0E0E0A3C0E0E0A3C006
:1026F000E0E0A3C0E0E0A3C0E010AF088582188549
:1027000083198008858218858319D2AFD083D0823F
:102710000229FBD083D082E9C0E0E493A3C386F012
:10272000C5F095F0F908E493A386F0C5F095F07034
:102730000BE493A3C3994005E9048002A3E475F078
:1027400002A42582F582E5F03583F583D0E0F9E433
:1027500093A3C0E0E493C0E022C0E074F2122576B7
:10276000A2AFE433FED2AFC2C0901D43E0700BE5D0
:10277000D1A2E4501D1238F78018E5D1A2E350062B
:1027800075D1F71238CDE5D1A2E4500675D1EF121C
:1027900038D3EEA2E092AF7F010225D5851983855B
:1027A0001882E0A3FEE0A3F5207808E0A3F608DF96
:1027B000FAE0A3FFE0A3C0E0E0A3C0E0E0A3C0E034
:1027C000E0A3C0E010AF08858218858319800885D2
:1027D0008218858319D2AFD083D08222C0E0C3E4AF
:1027E0009396087401939618400FE4936670080856
:1027F000740193661870007019A3A3C3E49396083C
:102800007401939618A3A3400DD0E0D0E0D0E0026D
:1028100026BDA3A3A3A3A3A3D0E022D083D082C5C7
:10282000F0E493A3C5F0C395F0F5F0E493A3C3954A
:10283000F04005E5F0048001E475F002A42582F57E
:1028400082E5F03583F583E493A3C0E0E493C0E030
:10285000227404800474028000CCC0E0EDC0E0E586
:1028600018C39CCCAD1950011D10AF068C188D19E2
:1028700080068C188D19D2AF122977D0E0FDD0E0F8
:10288000FC2274028000CCC0E0EDC0E0E518C39CDF
:10289000CCAD1950011D10AF068C188D1980068C17
:1028A000188D19D2AF122955D0E0FDD0E0FC22C01E
:1028B000E0C0F088F0E4936670080874019366182D
:1028C0007000A8F0A3A3700BD0F0D0E0D0E0D0E06F
:1028D0000226BDA3A3D0F0D0E022D083D082CCC00A
:1028E000E0E493A360061229D61470FAE493A3607F
:1028F00006122ADD1470FAD0E0FCE493A3C0E0E4F1
:1029000093C0E022C0E0C0D0E8C0E0E9C0E0A9A8E0
:10291000D2AFC2C7751A00E9A2E7E433F8E9A2E72B
:1029200092AFD0E0F9D0E0F8D0D0D0E032C0E0747F
:10293000F2122576758900C2C5901D43E0700E7AAB
:10294000007B10900BE5E0F9123E2B80031245ABA3
:102950007F010225D5CAC0E0E493A3C582CCC5821D
:10296000C583CDC583F0A3C582CCC582C583CDC543
:1029700083DAE5D0E0CA22CAC0E0E0A3C582CCC5B4
:1029800082C583CDC583F0A3C582CCC582C583CD66
:10299000C583DAE6D0E0CA2270090808082260166A
:1029A000181818C6C333C608C633C608C633C608C7
:1029B000C633C6D5E0EA22C008C3E096F50808A3EE
:1029C000E096420808A3E096420808A3E09645086E
:1029D0007001D3D00822C0E0E493A3D39C5010E44C
:1029E00093A3C39C400AD0E0D0E0D0E00228F7A334
:1029F000A3A3D0E022C09FF59FE473D09F22D08391
:102A0000D082C09FE493C0E0740193C0E07402934D
:102A1000F59F222518F58210AF08F518400C1519FE
:102A20008008F51840021519D2AF8519832200C01D
:102A3000D0251810AF08F518500C05198008F518A6
:102A400050020519D2AFD0D0227404800A740380DA
:102A500006740280027401C0E0F404122A13D0E06C
:102A6000122C9322BB0102E722C082C08389828A92
:102A700083BB0003E08002E493D083D082226016FF
:102A8000080808C6C313C618C613C618C613C61846
:102A9000C613C6D5E0EA222518F8E43519F922252F
:102AA00018FAE43519FB222518FCE43519FD22C378
:102AB000E0C696F608A3E0C696F608A3E0C696F62A
:102AC00008A3E0C696F622251810AF08F518400CAA
:102AD00015198008F51840021519D2AF22C0E0E49C
:102AE00093A36C7009D0E0D0E0D0E00228F7A3A354
:102AF000D0E022E066701008A3E066700A08A3E048
:102B000066700408A3E06622E76670100809E766AD
:102B1000700A0809E76670040809E76622C3E096B0
:102B200008A3E09608A3E09608A3E096A2D265D099
:102B30003322C3E697F60809E697F60809E697F602
:102B40000809E697F622C3E096F008A3E096F0089D
:102B5000A3E096F008A3E096F022E627F60809E63F
:102B600037F60809E637F60809E637F622E026F6D2
:102B700008A3E036F608A3E036F608A3E036F6220E
:102B8000E026F008A3E036F008A3E036F008A3E062
:102B900036F022E493F608740193F608740293F673
:102BA00008740393F622E647F60809E647F6080993
:102BB000E647F60809E647F622E657F60809E6571B
:102BC000F60809E657F60809E657F622E056F60831
:102BD000A3E056F608A3E056F608A3E056F622E076
:102BE00056F008A3E056F008A3E056F008A3E0561C
:102BF000F022700422600D18C6C333C608C633C65F
:102C0000D5E0F41822E4C396F608E496F608E496B4
:102C1000F608E496F622C6F4C608C6F4C608C6F45A
:102C2000C608C6F4C622600D08C6A2E713C618C6B9
:102C300013C6D5E0F322C3E7960809E7960809E72B
:102C4000960809E79622C3E09608A3E09608A3E059
:102C50009608A3E0962275D00075813F7518D1754E
:102C60001904000224A8E0F608A3E0F608A3E0F6A1
:102C700008A3E0F622600C08C6C313C618C613C624
:102C8000D5E0F422E6F008A3E6F008A3E6F008A3F6
:102C9000E6F022CAC0E0E6F0A308DAFAD0E0FA22B1
:102CA000E0F8A3E0F9A3E0FAA3E0FB22E0FCA3E054
:102CB000FDA3E0FEA3E0FF22EAF0A3EBF0A3ECF01B
:102CC000A3EDF022E0FAA3E0FBA3E0FCA3E0FD22E9
:102CD000ECF0A3EDF0A3EEF0A3EFF022E8F0A3E90F
:102CE000F0A3EAF0A3EBF022E5C754F84401F5C7DE
:102CF0007901222518F582E43519F583221229FE7F
:102D000018A5021229FE49A6021229FE85A6021262
:102D100029FE5FA8021229FEE5AB021229FEF9ABDB
:102D2000021229FE03AC021229FE0DAC021229FE8A
:102D300017AC021229FE21AC021229FE3AAC021293
:102D400029FE44AC021229FEBBAC021229FEC6AC1D
:102D5000021229FEF5AC021229FE1DAD021229FE57
:102D600028AD021229FE8DAD021229FE97AD021286
:102D700029FEA2AD021229FEC6AD021229FEEAAD5D
:102D8000021229FE58AE021229FEA1AE021229FE3D
:102D9000BDAE021229FE32AF021229FE7EAF021230
:102DA00029FEC7AF021229FE4CB0021229FEF3B071
:102DB000021229FEC4B2021229FE29B3021229FE10
:102DC00057B4021229FE7DB4021229FEC5B50212C3
:102DD00029FEFFB8021229FEFDBA021229FEC8BC64
:102DE000021229FE61BD021229FE5FBF021229FEF6
:102DF00014C0021229FE4DC0021229FEBDC00212EB
:102E000029FEC7C0021229FEF4C2021229FEF7C32E
:102E1000021229FE34C5021229FE8BC5021229FEB8
:102E200036C6021229FEE6C7021229FE33C9021273
:102E300029FE53C9021229FEA8C9021229FEA9CAF5
:102E4000021229FED1CA021229FE30CB021229FE3B
:102E500028CC021229FE9FCC021229FEB2CD02120A
:102E600029FE20CE021229FE1FCF021229FE75D1A3
:102E7000021229FE9ED1021229FE04D3021229FE5B
:102E800086D4021229FEDDD4021229FE90D5021248
:102E900029FE2DD6021229FE90D6021229FE4ED707
:102EA000021229FEE0D7021229FE3FD8021229FEA3
:102EB00081D8021229FEB9D8021229FE0FDA0212B5
:102EC00029FE0080031229FE3280031229FE6B8046
:102ED000031229FEB481031229FEF881031229FE90
:102EE000C882031229FE2083031229FE36840312AE
:102EF00029FE8284031229FEE886031229FE8789AF
:102F0000031229FECA8A031229FE648B031229FECA
:102F1000708B031229FEB08B031229FEEF8C031273
:102F200029FEE58D031229FE0F8E031229FE628E03
:102F3000031229FEBB8E031229FE1C8F031229FEE9
:102F40003791031229FEC892031229FEAE93031291
:102F500029FEF094031229FE2C97031229FEF899FA
:102F6000031229FE079A031229FE9B9A031229FED7
:102F70004F9B031229FE929B031229FEDB9B031237
:102F800029FE249C031229FE889C031229FEF69C2C
:102F9000031229FE129D031229FE419D031229FEF0
:102FA000809D031229FE739E031229FE229F0312A5
:102FB00029FE9AA1031229FEE7A2031229FEBAA351
:102FC000031229FE3CA4031229FE33A8031229FE92
:102FD00062A8031229FEBDA8031229FEF0A803125D
:102FE00029FE6CA9031229FEBCA9031229FE5EABBF
:102FF000031229FE82AB031229FEA6AB031229FE9F
:10300000B3AB031229FEB6AB031229FEE5AB0312E4
:1030100029FEBAAD031229FE79AE031229FEA5AE30
:10302000031229FE5EB0031229FE61B0031229FECD
:10303000D4B0031229FE22B3031229FE81B3031276
:1030400029FED5B3031229FE06B6031229FE0DB7D9
:10305000031229FEF4B7031229FE7EB8031229FEDB
:1030600092B8031229FEBFB8031229FEEFB803126B
:1030700029FEA4BB031229FE16BC031229FE7BBD48
:10308000031229FE99BD031229FE3681011229FE81
:103090007881011229FE8086011229FECC86011258
:1030A00029FE1287011229FE4488011229FEA988EF
:1030B000011229FEED88011229FE738A011229FEF0
:1030C000828E011229FEDF8F011229FE6F9B0112F1
:1030D00029FEF29B011229FEDC9E011229FE41A06D
:1030E000011229FEA4A0011229FEC6A1011229FE87
:1030F00032A3011229FE17A4011229FE8CA6011287
:1031000029FE1AA8011229FEABA8011229FECAA99C
:10311000011229FE57AA011229FE61AA011229FEF5
:1031200089AA011229FE29AB011229FE16AC01124F
:1031300029FEDEAC011229FE6BAD011229FE81AD24
:10314000011229FE9EAD011229FEC7AD011229FE12
:10315000F4AD011229FE4FB0011229FE2AB101126D
:1031600029FE6EB1011229FEF0B1011229FE91B2C1
:10317000011229FEC3B2011229FE17B3011229FE62
:103180004AB3011229FEA8B3011229FEF7B30112B6
:1031900029FEFCB3011229FE58B4011229FEAAB47B
:1031A000011229FE96B5011229FEFBB5011229FE76
:1031B00059B6011229FED8B6011229FE44BA0112ED
:1031C00029FE29BB011229FED2BC011229FE20C012
:1031D000011229FEC2C0011229FE17C3011229FEE5
:1031E000D2C3011229FE1AC4011229FED1C501124F
:1031F00029FEEEC5011229FEF7C5011229FE00C6FF
:10320000011229FE0BC6011229FE2AC6011229FE4F
:103210004EC8011229FEABC8011229FEB5C8011221
:1032200029FEBFC8011229FE1AC9011229FE76C95A
:10323000011229FE8ECA011229FEEFCA011229FECF
:1032400000CC011229FE49CC011229FEF7CC011253
:1032500029FE07CE011229FECBCE011229FE07D08E
:10326000011229FE18D1011229FE23D2011229FED2
:103270003BD2011229FE72D2011229FE7CD2011228
:1032800029FE86D2011229FE91D2011229FEAFD267
:10329000011229FEF7D2011229FE55D3011229FE8F
:1032A0007FD3011229FE91D3011229FE3AD40112D3
:1032B00029FE73D4011229FE9FD5011229FEFCD5E7
:1032C000011229FEEDD6011229FE23D7011229FE93
:1032D00094D7011229FE10D8011229FEB4D9011287
:1032E00029FEDADA011229FE98DB011229FE66DCDA
:1032F000011229FEEBDC011229FE96DD011229FEE6
:103300007FDE011229FE18DF011229FEF4DF01120F
:1033100029FE5CE0011229FE1BE1011229FE77E182
:10332000011229FEDBE1011229FEA1E2011229FEB0
:10333000C4E2011229FE6EE3011229FE90E301129C
:1033400029FEF1E3011229FE21E6011229FE0AE716
:10335000011229FEB6E7011229FEE3E9011229FE56
:103360002CEA011229FE77EA011229FECAEA0112AB
:1033700029FE28EB011229FE5AEB011229FE7EEBF1
:10338000011229FEB3EB011229FEDBEB011229FE2B
:1033900020EC011229FE7EEC011229FEDCEC011268
:1033A00029FECFED011229FE43EF011229FE88EF1D
:1033B000011229FEB1EF011229FE36F0011229FE99
:1033C0009BF0011229FEA9F0011229FECDF0011295
:1033D00029FE23F1011229FE3EF1011229FEF9F125
:1033E000011229FE25F2011229FE88F2011229FE9E
:1033F00084F4011229FEB0F4011229FE6BF50112CA
:1034000029FE4FF6011229FEE3F6011229FEA7FF5D
:10341000011229FEE6FF011229FE25BE031229FE34
:10342000CEBE031229FEADBF031229FEB9C003129E
:1034300029FED9C0031229FEFBC1031229FEABC32A
:10344000031229FE18C4031229FEE9C4031229FE3F
:10345000EFC5031229FE67C6031229FEA2C6031296
:1034600029FEFBC6031229FE36C7031229FE7FC7B9
:10347000031229FE13C8031229FEA9C8031229FE4C
:103480007EC9031229FE51CA031229FEDFCA0312A4
:1034900029FE05CB031229FE32CB031229FE63CB92
:1034A000031229FE30CC031229FE40CC031229FE60
:1034B00093CC031229FEA0CC031229FEADCC03123B
:1034C00029FEB6CC031229FE1ACD031229FE78CDAF
:1034D000031229FEC3CD031229FEDECD031229FEFD
:1034E00005CE031229FE22CE031229FE2ECE031290
:1034F00029FEBFCF031229FED8CF031229FE54D0D4
:10350000031229FE67D0031229FE77D0031229FE89
:103510001BD1031229FE87D2031229FE9AD303126C
:1035200029FE3AD4031229FE44D4031229FEC3D43F
:10353000031229FED4D4031229FE13D5031229FE47
:1035400041D5031229FE0ED6031229FE65D60312B9
:1035500029FE9ED6031229FEF4D6031229FE12D7A5
:10356000031229FE60D7031229FE2BD8031229FE6D
:1035700079D8031229FEC6D8031229FE49D90312AD
:1035800029FE73D9031229FEA9D9031229FEB8D93D
:10359000031229FE17DA031229FE8FDA031229FE1D
:1035A000D0DA031229FE20DB031229FE4BDB0312C3
:1035B00029FE65DB031229FE7FDB031229FE54DCA2
:1035C000031229FE5EDC031229FE99DC031229FE98
:1035D000A9DC031229FEB2DC031229FE03DD03126B
:1035E00029FE17DD031229FE39DE031229FE4CDE07
:1035F000031229FE63DE031229FE78DE031229FE80
:103600000BDF031229FE7FDF031229FE24E00312E1
:1036100029FE2FE0031229FE92E1031229FEAEE1FA
:10362000031229FEFAE1031229FE68E2031229FEC1
:103630009AE2031229FEB4E2031229FE14E30312F4
:1036400029FEB3E3031229FEFEE3031229FE51E62D
:10365000031229FEE9E6031229FE60E7031229FEA0
:10366000BDE9031229FED5E9031229FED8E90312A8
:1036700029FEE4E9031229FEF8E9031229FE00EA13
:10368000031229FE37EA031229FE2BEB031229FE4F
:10369000B5EB031229FE37EC031229FEB7EC031237
:1036A00029FE8EED031229FEB0ED031229FE49EE2C
:1036B000031229FEA6EE031229FEA9EE031229FE2B
:1036C000D6EE031229FEEBEE031229FE5AEF031287
:1036D00029FEA6F0031229FEB9F1031229FE44F2D5
:1036E000031229FE57F3031229FE1EF4031229FECA
:1036F0004FF4031229FE75F4031229FE7EF403121F
:1037000029FEADF4031229FE5DF5031229FE0DF624
:10371000031229FE80F6031229FE23F7031229FE65
:1037200096F7031229FED5F7031229FE1EF803129D
:1037300029FE53F8031229FED3D8041229FE40D9DA
:10374000041229FE87D9041229FEFDD9041229FE8C
:103750004FDA041229FED5DA041229FE19DD04120B
:1037600029FE48DF041229FE25E3041229FEA5E301
:10377000041229FEE0E3041229FEFEE3041229FEEE
:103780005EE4041229FE86E4041229FEB6E4041263
:1037900029FEE7E4041229FE14E5041229FE6DE572
:1037A000041229FEB8E5041229FEEFE5041229FEF1
:1037B0006BE6041229FE97E6041229FEC9E60412FC
:1037C00029FE2BE8041229FE47E8041229FE85E8A9
:1037D000041229FE12E9041229FE6EE9041229FEE0
:1037E00034EA041229FEF3EA041229FE38EB04122B
:1037F00029FE99EB041229FE0EEC041229FE48EC76
:10380000041229FEA0EC041229FEC2EC041229FEC7
:103810005AED041229FE01EE041229FE4EEE0412A6
:1038200029FE77EE041229FEB8EE041229FE65F097
:10383000041229FE49F1041229FEFAF1041229FEAC
:1038400029FF021229FE3AFF021229FED8FF0212B6
:1038500029FEF3FF011229FEDCFF041229FE327F4C
:10386000001229FE427F001229FE577F001229FE16
:10387000E87F001229FEA7FA051229FE2BFB05128C
:1038800029FE91FB051229FEF0FF011229FEE1FF3E
:10389000031229FEF1FF031229FEF4FF031229FE91
:1038A000F7FF031229FEF87F001229FE24EF05120C
:1038B00029FE46EF051229FEB1F0051229FE35F169
:1038C000051229FE5F80061229FE6880061229FE75
:1038D0007180061229FE7F80061229FEBEF80312AF
:1038E00029FE2AF9031229FEF2F9031229FEE7FA4A
:1038F000031229FED4FC031229FE2EFD031229FE19
:1039000081FD031229FE92FD031229FEA4FD03127C
:1039100029FE10FE031229FE24FE031229FE2FFEAB
:10392000031229FE3DFE031229FE4FFE031229FE5B
:103930002EA9051229FE5AA9051229FE00AC05126E
:1039400029FE57AC051229FE93AC051229FEA7AC3F
:10395000051229FEC0AC051229FED99C021229FECF
:103960008DAE051229FEA1AE051229FE63FE0312DB
:1039700029FE87FE031229FEA0FE031229FEDEFEA9
:10398000031229FE14FF031229FE47FF031229FE2A
:1039900051FF031229FEBDFF031229FEC0FF0312CF
:1039A00029FECAFF031229FED7FF031229FE5BE599
:1039B000051229FE7EE5051229FEC9E5051229FE3C
:1039C00099A4021229FE02E6051229FE68E60512F4
:1039D00029FE74E6051229FED1E6051229FEF5E658
:1039E000051229FEBBE7051229FEC8E7051229FECC
:1039F000D9E7051229FE4DFF051229FE65FF0512C4
:103A000029FE91FF051229FE4CB9051229FEB0BA14
:103A1000051229FEBEBA051229FED2BA051229FEE8
:103A2000EFBA051229FE04BB051229FE17BB0512C9
:103A300029FE99BB051229FEFFBB051229FE88BC91
:103A4000051229FE00BD051229FED9BD051229FE69
:103A5000E9BD051229FEF8BD051229FEB4FE0512C6
:103A600029FED8FE051229FE00FF051229FE28FFB7
:103A7000051229FE07E8051229FE2EE8051229FE87
:103A80004DE8051229FEC2E8051229FE88E205125A
:103A900029FEA1E2051229FEB8E2051229FEC1E2C3
:103AA000051229FEDFE2051229FEE9E2051229FED0
:103AB000F3E2051229FE06E3051229FE93E305123F
:103AC00029FE02E4051229FE30E4051229FE81E4F4
:103AD000051229FECDE4051229FEE8E4051229FEAF
:103AE000F2E4051229FE03E5051229FE46E505125A
:103AF00029FE0880061229FE5380061229FE269709
:103B0000051229FE5297051229FE7597051229FE06
:103B10008897051229FEA397051229FE079805121A
:103B200029FE3598051229FE429C051229FE849D26
:103B3000051229FEB69D051229FE219E051229FEB9
:103B4000A59F051229FECD9F051229FEE29F0512B1
:103B500029FEF29F051229FE32A0051229FE74A04B
:103B6000051229FE84A0051229FEEBF5051229FE97
:103B7000FBF5051229FE1FF6051229FE48F605126F
:103B800029FE72F6051229FE96F6051229FEADF6FB
:103B9000051229FEDBF6051229FEFEF6051229FEA6
:103BA0009DFC051229FEE3FC051229FE3DD80512F5
:103BB00029FE4DD8051229FE6BD9051229FE9FD981
:103BC000051229FEC1D9051229FEE9D9051229FEDF
:103BD00002DA051229FE3EDA051229FEA4DA0512E0
:103BE00029FEE9DA051229FE2EDB051229FE5BDB30
:103BF000051229FE93DB051229FE78D0051229FE55
:103C0000DAD0051229FE81D1051229FEB9D105129B
:103C100029FEAECB041229FE5DCC041229FE91CE02
:103C2000041229FE64D1041229FEE4D2041229FEF2
:103C300046D3041229FE51D6041229FE95D7041248
:103C400029FE36F7051229FE81F7051229FEDDB39C
:103C5000051229FE9CB6051229FE39B7051229FE68
:103C600065B7051229FE93B7051229FEC8B70512DC
:103C700029FEF0B7051229FE50B8051229FE008072
:103C8000051229FEE983051229FEE085051229FEA9
:103C90000E87051229FEEA87051229FE958905126D
:103CA00029FE308B051229FEFD8B051229FE518C51
:103CB000051229FE94EA051229FE9EEA051229FE44
:103CC000BFEA051229FEE7F2041229FE0EF80412DB
:103CD00029FE3DF9041229FE19FB041229FE12FCEB
:103CE000041229FE49FD041229FE56FE041229FE83
:103CF0003BFF041229FE0080041229FE38800412C2
:103D000029FE448A041229FE2E8B041229FE7E8C81
:103D1000041229FEC98D041229FE748E041229FE94
:103D2000478F041229FEDE8F041229FEC29004126E
:103D300029FEC591041229FE8792041229FEB5922C
:103D4000041229FE2D94041229FEB694041229FEB1
:103D5000CF94041229FE2996041229FEDB96041240
:103D600029FE6A97041229FE1998041229FE7C98EC
:103D7000041229FE1899041229FE9199041229FEB1
:103D8000AF99041229FE7C9A041229FE4B9B04125F
:103D900029FE019C041229FE24F3051229FE4EF38C
:103DA000051229FE60F4051229FE63F4051229FEAE
:103DB00051FD051229FEA4FD051229FEE6FD05129E
:103DC00029FEF6FD051229FECFF8021229FE16F98A
:103DD000021229FE7FF9021229FEA0F9021229FE21
:103DE000B9F9021229FE69FA021229FE72FA0212C8
:103DF00029FEC3FA021229FEF9FA021229FE10FB6B
:103E0000021229FE7DFB021229FE0DFC021229FE80
:103E100043FC021229FE8CFC021229FEEDFC021268
:103E200029FE27FD021229FE8FFD021229FEE2FD66
:103E3000021229FE25FE021229FE62FE021229FE4E
:103E400074FE021229FE86FE021229FEC0FE021234
:103E500029FE00FF021229FE29BE051229FE6FBFAE
:103E6000051229FE98BF051229FEA9BF051229FED9
:103E7000C1C1051229FEE1C1051229FEE0EC0512BF
:103E800029FE16ED051229FE65ED051229FEC1EE8B
:103E9000051229FE9CB7041229FEDAB8041229FE85
:103EA00016B9041229FEDBBA041229FE05BB04125E
:103EB00029FE8BBD041229FECBBD041229FE61BF71
:103EC000041229FEF6BF041229FE54C0041229FE72
:103ED000DAC0041229FE12C1041229FE54C10412D0
:103EE00029FEC1C2041229FE45C4041229FE7FC660
:103EF000041229FEADC6041229FED9C6041229FEF9
:103F0000E2C6041229FE38C7041229FEC8C70412EB
:103F100029FECFCA041229FE51CB041229FE00FE4D
:103F2000051229FE16FE051229FE20FE051229FEA5
:103F30007CFE051229FEFFC7051229FE18C80512CE
:103F400029FEBDC8051229FEFDC8051229FE16C9A5
:103F5000051229FE49C9051229FE96C9051229FE36
:103F6000CAC9051229FE0CCA051229FEE5CB0512A5
:103F700029FE50CC051229FE6AF8051229FEBFF869
:103F8000051229FE19F9051229FE94F9051229FED8
:103F900006FA051229FE44FA051229FE85FA0512D1
:103FA00029FEA4F7011229FEAAF7011229FEF1F752
:103FB000011229FEFDF9011229FE2DFA011229FE36
:103FC00097FA011229FE52FB011229FE95FB0112FC
:103FD00029FEC6FB011229FE50FC011229FE67FCD6
:103FE000011229FE74FC011229FE7EFC011229FE39
:103FF0001EFE011229FE10FF011229FE6EFF0112A2
:1040000029FEB4A0051229FECAA0051229FE7CA132
:10401000051229FEA6A2051229FE9BA3051229FE60
:1040200032A4051229FE6DA4051229FEDFA4051293
:1040300029FE3DA5051229FE4DA5051229FE74A5F0
:10404000051229FEC6A5051229FE32A7051229FE72
:1040500037A7051229FE59A7051229FE6BDA0212AD
:1040600029FEC3DA021229FE40DC021229FEFDDC21
:10407000021229FE14DD021229FE63DD021229FE5E
:10408000D7DD021229FEEADD021229FE38DE021215
:1040900029FEA7DE021229FE18E1021229FE25E2FE
:1040A000021229FE80E2021229FE0FE5021229FE09
:1040B00090E5021229FED2E5021229FEACE60212B8
:1040C00029FEE5E6021229FE30E7021229FE46E744
:1040D000021229FE1AE8021229FEECE8021229FE59
:1040E000F7E8021229FE45E9021229FE9AE90212B6
:1040F00029FEE6E9021229FE43EB021229FE6DEBCE
:10410000021229FEF6ED021229FE20EE021229FE0D
:104110003AEF021229FE69EF021229FEDBEF0212CA
:1041200029FEF0EF021229FE32F0021229FEA6F05B
:10413000021229FEBEF1021229FE05F2021229FE28
:104140000FF2021229FE12F2021229FE1CF20212D2
:1041500029FE38F2021229FEB4F2021229FEEDF213
:10416000021229FE09F3021229FE35F3021229FE7A
:104170005CF3021229FE80F3021229FEF9F3021207
:1041800029FE6CF4021229FEAFF4021229FEB9F4E2
:10419000021229FEE8F4021229FEFEF4021229FEA0
:1041A0001AF5021229FE49F5021229FE69F50212DA
:1041B00029FEB2F5021229FEEDF5021229FEF9F6EA
:1041C000021229FE53F8021229FE72F8021229FE89
:1041D0008AF8021229FE9CF8021229FEAAFB051297
:1041E00029FEBBFB051229FE44FC051229FEB5AED3
:1041F000051229FEF3AE051229FE8CAF051229FE29
:1042000097B0051229FEDFB2051229FE5CB3051234
:1042100029FEF977001229FE4878001229FE067A55
:10422000001229FEDA7B001229FE187C001229FEFA
:10423000F97C001229FE037E001229FE257E001261
:1042400029FE817E001229FE027F001229FE154DF3
:10425000001229FE374D001229FEA64E001229FE3B
:10426000EF4E001229FE604F001229FEE34F0012AC
:1042700029FE5A50001229FEA150001229FE1851A1
:10428000001229FEB951001229FE2E52001229FEF9
:104290006B52001229FEAE56001229FECF580012B2
:1042A00029FE0859001229FE5A59001229FE555CB0
:1042B000001229FEE55C001229FE925E001229FE22
:1042C000C05F001229FEEC60001229FE5761001247
:1042D00029FE3862001229FE9662001229FE9962B8
:1042E000001229FE5F63001229FEA864001229FE55
:1042F000C766001229FED668001229FEBE690012A8
:1043000029FE556C001229FE2E6D001229FE6D6EDD
:10431000001229FE9D71001229FEAD71001229FEC6
:10432000F372001229FE9173001229FECC74001260
:1043300029FE3A75001229FE6576001229FEA07644
:10434000001229FE4977001229FEC69C041229FE9C
:10435000689D041229FED49D041229FEEE9D0412CC
:1043600029FE709E041229FEAA9E041229FEAC9F0B
:10437000041229FEEE9F041229FE60A0041229FEF9
:10438000B0A0041229FE0FA1041229FEBBA1041241
:1043900029FEA5A4041229FE6CA5041229FED2A5AB
:1043A000041229FE7AA7041229FE13A8041229FE7A
:1043B000ACA8041229FE0FA9041229FE85A9041233
:1043C00029FE86AA041229FE77AB041229FEB2AB9D
:1043D000041229FEC9AB041229FE96AC041229FE70
:1043E000D4AC041229FE5CAD041229FEA9AE04125D
:1043F00029FE6DB0041229FEABB1041229FEDEB213
:10440000041229FEF2B3041229FE89B4041229FE13
:10441000F8B4041229FE05B6041229FE6F8C0512A9
:1044200029FEDA8C051229FE228D051229FE898DBE
:10443000051229FEE58D051229FE208E051229FEA2
:10444000BC8E051229FE168F051229FE82900512D8
:1044500029FE0991051229FE4A91051229FE75913E
:10446000051229FEF691051229FE3E92051229FE3B
:104470006492051229FEB693051229FEBB9305121C
:1044800029FE3294051229FE9E94051229FE999563
:10449000051229FE8596051229FEE7DB051229FE85
:1044A0002ADD051229FEF2DD051229FE47DE05127E
:1044B00029FECDDE051229FE5DCC051229FE7BCC3E
:1044C000051229FEBFCC051229FEE5CC051229FEF6
:1044D0000CCD051229FE24CD051229FE3CCD051276
:1044E00029FE54CD051229FEFACD051229FE3CCE37
:1044F000051229FE51CE051229FE58CF051229FEBC
:1045000073CF051229FE7CCF051229FE85CF051237
:1045100029FE8ECF051229FE98CF051229FE15D04F
:10452000051229FE35C3051229FE77C7051229FE9B
:1045300093C7051229FE98C7051229FEAAF1051294
:1045400029FE73D4051229FE89D4051229FE27D627
:10455000051229FE72D6051229FEDED6051229FEA5
:10456000DDD7051229FE0CD8051229FE1ED805122A
:1045700029FE90F4051229FE61DF051229FEBDDF38
:10458000051229FEFDDF051229FEFFE0051229FEB6
:1045900017E1051229FE29E1051229FE55E1051250
:1045A00029FE8CE1051229FE9CE1051229FEB2E1EB
:1045B000051229FED7E1051229FE65E2051229FE42
:1045C000D2FF051229FEB49C021229FEC49B0212DE
:1045D00029FE509B021229FEBF9A021229FE4D9A13
:1045E000021229FE3C9A021229FE179A021229FE93
:1045F0003399021229FE4F98021229FE6895021281
:1046000029FE2594021229FE8C91021229FE47915F
:10461000021229FEED90021229FE4E90021229FE8E
:10462000FB8F021229FE288F021229FE628E0212CF
:1046300029FE268E021229FEB98D021229FEB18DA5
:10464000021229FE268D021229FEB68C021229FEC4
:104650005EA3021229FE078C021229FE4EA302124B
:1046600029FE22A2021229FE41A0021229FE38A030
:10467000021229FE359F021229FEAD9E021229FE6A
:104680009E9E021229FE2B9E021229FEFC8B021214
:1046900029FEED8B021229FECC8B021229FE988B8B
:1046A000021229FE0F9E021229FE6C8B021229FEB5
:1046B000408A021229FE2C88021229FEFD8702126E
:1046C00029FEE7E5051229FEE187021229FEF19D88
:1046D000021229FE8B87021229FE5287021229FE3E
:1046E000CA86021229FE7E86021229FE378602122F
:1046F00029FE6A85021229FEEE84021229FE4684F2
:10470000021229FE9F83021229FE4183021229FE12
:104710001683021229FEC782021229FE8982021222
:1047200029FE6682021229FE4D82021229FE0582AE
:10473000021229FE4F81021229FE0080021229FE78
:10474000C380021229FE5780021229FEB1AD050076
:10475000000080FB8F000100361D87000100351D21
:1047600035000400AF1E25000200B31E2600020023
:10477000B51E27000200B71E28000100C11E290037
:104780000100C21E84000400C31E86000100C71E73
:104790002A000100C81E2B000100C91E2C000100C8
:1047A000CC1E2D000800171D2E000100CD1E2F006D
:1047B0000100CE1E30000100CF1E31000100D01ECE
:1047C000320001001F1D33000100201D34000100D4
:1047D000D11E36000100211D38000100D21E390013
:1047E0000100CB1E83000200E61E63000100321DA3
:1047F000640001000E1D65000100CA1E6D0001006D
:10480000331D710008000F1D66000100E51E430006
:104810000100D61E44000200D71E45000100D91E2B
:1048200046000200DA1E470008002A1D4800010069
:10483000DC1E4B000100DD1E04000100E81EA1008B
:104840000100EA1E37000100E91E88000100371D43
:104850003C000100221D3D000100D31E4900020062
:10486000DE1E67000100341D4D000200E01E4E00F8
:104870000100E21E4F000200E31E3E000100291D60
:1048800051000100231D52000100D41E53000100FD
:10489000D51E54000100241D00000000000000018E
:1048A000363601010001020100010301000104018B
:1048B000060605020000070100340801000F090484
:1048C00001010D0100FF0E08000017020000190190
:1048D00000FF1A0100011B0100FE1C0100081D025F
:1048E00000001F010001200100012102000023013E
:1048F000000F240200002601000127010008280201
:1049000000FF2A0100072B0102402C0100002D01AD
:1049100000012E0100012F0100FF30010B1D3108A5
:1049200000003A0100083B01000F3C0100013D017D
:1049300000FF3E04000042040000460400004A0458
:1049400000004E04000052040000560400005A0407
:1049500000000103710301030103010301030103CB
:1049600022030203010310030003000300030003FA
:1049700000030003000342030003240306030003B3
:104980000003040312032503230325032303040365
:104990000403000300030003440300030003230394
:1049A00000036503210035038103000305030003B1
:1049B000000300030003250323030304710402041E
:1049C00060041104700402040204010402041004CF
:1049D0006104000414046304730472046204430455
:1049E0000004130406040004000404041204000478
:1049F00000040004000451046400000400040004E6
:104A000044040004000400040004650400043504A8
:104A100081046400050400048304000403007100A1
:104A2000300160001100700031022003500480004A
:104A30001000610000001400630073007200620047
:104A400043000000130006000000000004001200F4
:104A500000000000000000000400040037003700E0
:104A60003C0244000000000000000000650000005F
:104A700035008100000005000000830000000101F6
:104A80007101010101011101010131010101010166
:104A90008001100161013B00140063017301720188
:104AA000620143010001130106013D0135000401CB
:104AB00012010001000100010001040104013301A1
:104AC00033013C014401320136000001000165015F
:104AD000000135008101000105018201830100010F
:104AE000030271023001600211027002010202022F
:104AF00002028002100261023A0041006302730266
:104B00007202620243020002130238000002000235
:104B10000402120200020002000200020402040267
:104B2000370037003C024402000239000002000254
:104B30006502000235028102000205028202830240
:104B4000000236000100060000000F000000000017
:104B5000000000000000000003FFFF00000403FF4E
:104B6000FF0000FFFF0FF4010005C4040320000153
:104B700000000B000000000000000003010F000017
:104B80000000000000000000000000000000000025
:104B90000000000000000000000000000000000015
:104BA000000089431300E7421F00ED421F80F342DB
:104BB0000100894302006F420300754204007B42FA
:104BC0000500814206008D423000AB423100A54213
:104BD0003200B7423300BD423500C3423400C942FF
:104BE0003600CF421100DB421400E14215009F4223
:104BF000FFFF00000A0000000200000004000000A7
:104C0000080000001000000020000000400000002C
:104C1000800000000001000000020000000400000D
:104C2000000800000010000000200000004000000C
:104C300001CF3006053108FF300B1D3110712E0AEF
:104C40002F3102D53005F33007DB300CB7300DC300
:104C500030641746FF000007ECFDFDFDECDCDCCC0A
:104C6000BCACAC9C9C8C7C7C6C6C5C5C5C4C4C3CB4
:104C70003C2C2C1C1C03EAF5E5D5D5C5B5A59595AE
:104C80008585757565655555454535352525151554
:104C90000500160F00000B150B020002220F330057
:104CA000000E0C0E020B040B0A0708000F0001197E
:104CB000161816161823030000034A49434E181A03
:104CC000250502303016181920231A1C1E30003911
:104CD0003D3F373C3C362C442D30301718192130DD
:104CE0001B1D1F3002040201010101090200BE0464
:104CF0000A7F00E8030E00000000000C08100C0AF8
:104D00001503090900040003FF1E1E01050C04041D
:104D10000810050328C082C083901C97E4F0A3F01C
:104D20007CED7D047AB27B1B123F991245E7122E6F
:104D3000BF1245E1026CD674F312243C74F5122ABA
:104D4000C789098A088B0A8C0BE9705F74026508B1
:104D5000703F79081241C1750C00780C122A55E594
:104D60000BF50C780C122A55E50AF50C780C122A72
:104D700055901BCE122851901EC7E0F97C2A7D1D4C
:104D8000901EE6126CE31239577407122A2E024E57
:104D90006E740165086003024E7379081241C17B8D
:104DA00000AA0AA90A124659024E6E7401650960EA
:104DB00009740265096003024E73EA6006740365B4
:104DC00008704779021241C1901EC7E0F9901BCECE
:104DD000122CC41245CFE9F9901BDBE0A2E340108E
:104DE000E9700D901C9BE004F064047003124E9473
:104DF00074036508707A901C9CE0F8740128F0E850
:104E0000C39405406B124E9480667401650870630C
:104E100074016509790A702E1241C17401122CF3D4
:104E2000E4F07402122CF37403F004122CF3E4F097
:104E3000A3F0A3F0A3F07408122CF3E4F0AA18ABCB
:104E4000191230E180441241C1901EBD1228517ADE
:104E5000007B20901BD2E0F9123F4B7404122A2EE3
:104E6000901EC7E0F9901BCE122CC4124671E9F9CE
:104E7000E960179080C91228517A017B00901BD2FB
:104E8000E0F9123F4B7404122A2E740B122A2E7F63
:104E9000050226CD901BCEE4F0A374F8F0A374FFB6
:104EA000F0A37407F02274F612243CE9FFEAFE7ABC
:104EB000D1F9123E078A828B83E5824583702A7A74
:104EC000027B00123DE9EA4B700E7A107B00901BCA
:104ED000D2E0F9123E2B80148A828B8374D1F0EFDA
:104EE000A3F0EEF9123DF58003EFA3F00251137425
:104EF000F712243C89089006F8126233901EABE04A
:104F0000F47003A3E0F4702D900BE5E0901EABF07D
:104F1000A3E4F080208E828F83A31260E6600F8E60
:104F2000828F83A3A31260E0FAA9081242578E82EF
:104F30008F83124FD6EE4F70DC901EABE0F47003FF
:104F4000A3E0F4600A901EABE0FAA90812425712DF
:104F500031EF901B9C1259021231E97F010226CDDC
:104F600074F012243C890B8C0C75080075090074D0
:104F700010122CF312504A7412122CF3124FD680D6
:104F80003CA80A12503AF50EA3E0F50FA8091250FA
:104F90002DF583E0650E7004A3E0650F7014124FC9
:104FA000CDEE28F582EF39F583E50EF0A3E50FF09D
:104FB0000508050AE50AC3950C40C60509E509C3BD
:104FC000950B5005750A0080EBA9088011A808E828
:104FD00028F8E433F9221272B6E8FEE9FF227F08CE
:104FE0000226CD74F412243C890B8C0A75080074D7
:104FF0000C122CF312504A80020508E508C3950BE9
:10500000502775090080020509E509C3950A50E992
:10501000A80812502D126231A80912503A6E70037E
:10502000A3E06F70E27901800279008028E828F817
:10503000E433F9EA28F582EB3922E828F8E433F979
:10504000EC28F582ED39F583E0221272B6E8FCE92E
:10505000FD22122A2E7F040226CD74F612243C1261
:1050600050FD7003A3E06D70177508D975091B78A2
:1050700008122A51EEFA12438F7402122A2E801F50
:105080007508027509807808122A518C088D0978F4
:1050900008122A511250E81243B37404122A2E80C7
:1050A0007274F612243C1250FD7003A3E06D701769
:1050B0007508E675091B7808122A51EEFA12439515
:1050C0007402122A2E801F75080375098078081251
:1050D0002A518C088D097808122A511250E812437F
:1050E000B37404122A2E802B1250F63FF583E0FD94
:1050F0007C8012633A22EE240EF582E422EAFEEB73
:10510000FF12634FFCE439FD901B9CE06C2274029B
:10511000122A2E7F020226CD74F612243C74FE124F
:105120002AC7EAFEEBFF851882851983E4F0A312F3
:1051300058B4126488FBECFA88828983A3A3E0F94F
:10514000750900750800600574FF697005750882AF
:10515000803D901B9CE06A7003A3E06B701AAA1854
:10516000AB19123777E9F50985188285198312661C
:10517000BA701C7508838017901D35E060046401C7
:1051800070057508818008E06402700375088085E9
:1051900018828519831266A3A908EEFAEFFB124361
:1051A0009BE50960118518828519831266BA60062D
:1051B000126CDD123E8B02510E74F212243CEAFE98
:1051C000EBFF75080075090012634BF50AE439F529
:1051D0000B1231EFEA650A7003EB650B70121237A0
:1051E00089E914F50879017A637B1C12378F8003F3
:1051F0007509801266A9F50C780C122A55750C6396
:10520000750D1C780C122A517808122A55780A124A
:105210002A51E509F5087808122A5512614C1266E0
:10522000ACF97A057B801243A1740702749874F676
:1052300012243C890975080080278A828B83E0FE4E
:1052400012764DEE28E439FF124FCDEC28F582EDB1
:1052500039F583EEF0A3EFF0EA2402FA50010B05D2
:1052600008E508C3950940D202511374E812243CA2
:1052700074FB122AC78A168B17851882851983E456
:10528000F07403122CF3E4F0A3F004122CF3E4F016
:10529000A3F0125C0B3517125886F50B850A82F5C0
:1052A00083127739FEE439FF850A82850B83A3A335
:1052B000E0FA850A82850B83A3A3A3E0F9EAF50847
:1052C000E439F509E50A2404F50A5002050BEEFA63
:1052D000EFFB12328BE964016016EEFAEFFB12323B
:1052E0008BE9703D901B9CE06E7003A3E06F603112
:1052F000126499122A55E4F508F5097808122A5122
:105300007808122A55901B9C122855750880780839
:10531000122A551256631243A17407122A2E0256FE
:10532000591256918810602B1272D7123E85740361
:10533000122CF31259027403122CF31266BA601382
:105340007403122CF3125689A9101242878A0A8B11
:105350000B8003751000125691880F60271272D7C8
:10536000123E857401122CF31259027401122CF3AF
:105370001266BA600F7401122CF3125689A90F122B
:1053800042878003750F009006F8805C850A82854D
:105390000B83A3A3A3A3A3A3A3A3E4F0A3F0AA0A4C
:1053A000AB0B851482851583A3A3E0F81260E0F9A6
:1053B000123DF5851282851383E0C0E08518828551
:1053C0001983E0F8746328F582E4341CF583D0E097
:1053D0001266BE04F0E511A2E05007AA12AB131248
:1053E0003E8B851482851583E0F514A3E0F515E561
:1053F00014451570030255C6851482851583A312C2
:1054000060E660DE851482851583A3A3A3A3A3A30E
:10541000A3A3E0A2E050CB851482851583A3A3A3A8
:10542000A31266BA851482851583A3A3601F126038
:10543000E7FA7901851482851583A3A3A3A31256E5
:105440007C12262D8A128B13751101801012567C46
:10545000A3A3A3E0F512A3E0F513751100E512452F
:105460001370030253D5851282851383A3E0650868
:105470007004A3E06509600F74FF6508700474FF91
:10548000650960030253D5851282851383A3A3A304
:10549000A3A3A3A3122855851282851383A3A3A3D4
:1054A000A3A3A3E0FC7405122CF3126CE3A9101261
:1054B00042697402122A2EE9703C85128285138398
:1054C000A3A3A3A3A3A3A3A3A3A3122855851282D6
:1054D000851383A3A3A3A3A3A3A3A3A3E0FC7403A3
:1054E000122CF3126CE3A90F1242697402122A2ED5
:1054F000E970030253D5E50F2510C333240AFA7B64
:1055000000123DE98A0A8B0BEA450B70030253B384
:105510008A828B8374D21268C98A828B83A3A3E8A0
:10552000F0A3E91275CBA3E510127741E50FF0E582
:1055300010603CEA2405FAE4350BFBE50A240AF87E
:10554000E4350BF98A828B83125E8C7403122CF380
:105550001256A1122A4DAC10EC2CFCE433FD8A82C9
:105560008B83126CE3123DC57403122A2E800D8AC0
:10557000828B83A3A3A3A3A3E4F0A3F0E50F70039E
:1055800002538CA810124FCFE50A28F8E50B39F921
:10559000E8240AFAE439FB850A82850B83A3A3A3D6
:1055A000A3A3A3A3A31259027401122CF31256A1B0
:1055B000122A4DAC0FEC2CFCE433FD123DC57403F4
:1055C000122A2E02539E851882851983E0602712C5
:1055D0006499122A5575086375091C7808122A51B6
:1055E0007403122CF31264A2122A55901B9C1228E9
:1055F000557508008029EEFAEFFB12328BE9702F07
:10560000126499122A5575086375091C7808122AC4
:10561000517508007808122A55901B9C122855785D
:1056200008122A551256631243A17407122A2E74C7
:1056300003122CF31266BA600B7403122CF3126C73
:10564000E3123E8B7401122CF31266BA600B7401E4
:10565000122CF3126CE3123E8B7405122A2E7F106B
:105660000226CDE5162402FCE43517FDE51612608E
:10567000DA3517F583E0F97A067B8022125680220C
:10568000E0F8A3E0F5838882221266A3AA0AAB0B96
:1056900022850A82850B83E0F8A385820A85830B25
:1056A00022E0F50CA3E0F50D750E00780C2274F1E4
:1056B00012243C74F4122AC78A088B09ECFEEDFF11
:1056C000740B122CF37403F0122A9F123F991231BB
:1056D000E98A0A8B0BAC0AAD0B7403122A9F123FA6
:1056E00093E9600A1258806010E06401600B85182D
:1056F00082851983748402582E8E828F83A3A3A37C
:10570000A3A3A3A3A3E06013F46010125880701643
:10571000EE24141266AC6003F4700B8518828519B0
:1057200083748202582E12745DE064217002A3E03B
:105730006003025805851882851983748C1258B449
:10574000640360030257EF7401122AA7125E7812F5
:105750002FDFE960030257EF1241AF8A0A8B0BEA91
:10576000450B700302582F8E0C8F0D750E00780CB0
:10577000122A4D7C157D00123DC57403122A2E8518
:105780000882850983A3A3E50A2415FCE4350BFDF3
:1057900074091229771270D6C0E0E50A241E125847
:1057A0006ED0E0125CDFC0E0E50A241F12586ED014
:1057B000E0F0E50A242012586E7405F0EE240BFE8A
:1057C00050010FFAEFFB12380D7D007C007900EEDE
:1057D000FAEFFB1243599080C91228517A007B10CE
:1057E000901BD2E0F9123F4B7404122A2E807812DB
:1057F0005876122A5512588E122FCD7401122A2E65
:10580000E9702C8014125876122A5512588E122FD5
:10581000D37401122A2EE9700D851882851983E44C
:10582000F012417F80098518828519837488F012EF
:1058300070D6F50A780A122A557401122A97880A36
:10584000890B780A122A51E508240CF582E43509FF
:105850001258864480F50B780A122A5112621C12E3
:10586000434D7405122A2E740C122A2E805CF58288
:10587000E4350BF58322EE125E85E0F50A780A2204
:105880001258B9640322F583E0F50AA3E022EE245E
:105890000BFCE43FFD8E828F83A3A3A3A3A3A3A34A
:1058A000A3A3126D208E828F83A3A3A3A3A3A3A37C
:1058B000A3E0F922F01258B9221258BD22EE126963
:1058C000A63FF583E022EEFAEFFB7F070226CDC06C
:1058D00082C08374F3122AC7851882851983E4F085
:1058E00004122CF31259027403122CF3AA82AB8314
:1058F000124725AA18AB191246EF740D122A2E0270
:105900006CD6EAF0A3EBF02274F612243C12594C48
:105910001272B088828983127475F8901BE1E05886
:10592000F508A3E059F509E5084509601C78081257
:105930002A51901B9C1228551266A9FD7C00126307
:10594000361243AD7404122A2E025113EAFEEBFF05
:105950001259553F22EE1269A62274EA12243C74B1
:10596000DB122AC78A148B15751200751300125C9E
:105970000B3515F5831260E7F50EAC18AD197A00FA
:105980007B00799C122CFD7A0479001246B9EAF565
:105990000C851882851983E02AF0F8E50EC398403B
:1059A00003025B76E0C3950EF509C39404400375CA
:1059B0000903E50975F01AA4FAABF0123E858A12C4
:1059C0008B13EA45137003025B79750D00AE12AFBD
:1059D00013850E08807E125BF1123DD1850A828507
:1059E0000B83A3A3A3A3E0702D850A82850B8312EA
:1059F00066BA700C126E2CF0EE2418126E2F801006
:105A0000125BFFF090055EE014C0E0125BD9D0E0BD
:105A1000125C2FE4803490055EE004C0E0125BD994
:105A2000D0E0125C27C39403EE4003025AE0125EFA
:105A3000817402125C2764017003025AEDEE241592
:105A4000125C02F0EE2416125C02F0EE241AFE50F4
:105A5000010F050DE50DC395094003025B18E5082C
:105A6000C3950C4003025AF6AA087B0012462F8AFF
:105A70000A8B0B050890054B125C10123F99850AA2
:105A800082850B831272B2125BE7E8F0A3E9125C25
:105A900041850A82850B83A3A3A3A3A3A3A3A3A3E6
:105AA000A3E0C0E0125BCFD0E0F07401122CF3E46D
:105AB00012760A1272B27402122CF3125E8C740106
:105AC000122A9F124701E9640160030259D6740447
:105AD000122CF3AC82AD83125BF7123F990259DCB2
:105AE000125C00125C2764036003025A3DEE241529
:105AF000126E2F025A43E50CC3950E40057508003F
:105B0000801DE50EC3950CF5088014125BFFF0EEC6
:105B1000241AFE50010F050DE50DC39509505A7466
:105B20000E122AA7AA087B007987122CFD0508749B
:105B300018122CF3125C10123F99125BF1123DD136
:105B4000EE2412F8E43FF9740E122CF3126CE38881
:105B5000828983EAF0A3EB125C2F7403125C417418
:105B60001D122CF3E0C0E0125BCFD0E0126C4E703F
:105B70009A126E2C8098750900750A00780A122A0C
:105B8000557812122A517809122A55E50EF509782E
:105B900009122A557405122CF3E0FD7C00E514125D
:105BA00060D13515FBE5141260D63515F583E0F9A3
:105BB0001243E97405122A2EE51245136007AA1252
:105BC000AB13123E8B7425122A2E7F0E0226CDEEC9
:105BD0002419F582E43FF58322125BDD22EE2418BE
:105BE000F582E43FF58322EE2412F582E43FF5834B
:105BF000227C087D0079FFEE240AFAE43FFB22EEC6
:105C00002414F582E43FF583740122EA12595622E6
:105C10001272B68E828F83E8F0A3E9F07C5F7D0577
:105C2000EE1260D13FFB22127605A3A3A3E022F07F
:105C3000EE126E237402F0EE2416F582E43FF58333
:105C400022F0EE2417F582E43FF5837402F0125B34
:105C5000DD74FFF02274F612243C74F9122AC71284
:105C60005CD41277C3123DDDEAF8EBF9ECFAEDFBF8
:105C7000851882851983122CDCEE2404FE50010F56
:105C80008E828F83E0C0E07404122CF3D0E0126C9B
:105C900025F87405122CF37401F07406122CF374B9
:105CA00001F0901BA6F0901BAF0412761FA3126C9C
:105CB000E3901BA7125902E8901BB0125CDF901B07
:105CC000A5F0AA18AB191245C9E960031245C374BF
:105CD000070251108A088B09EA125956350922F039
:105CE000127597E02274F212243C74FF122AC775D1
:105CF00008007E007F001231118A0A8B0B123111CD
:105D00008A0C8B0DA80CA90D800505081272ACE851
:105D10004970F7901D35E0600764016003025DF093
:105D20001231118A0C8B0DA80CA90D80031272ACD4
:105D3000E849603688828983126CE390054BE06AFB
:105D40007003A3E06B600D12738339F583126CE36B
:105D5000EA4B70D9888289831272B290054BE06851
:105D60007003A3E0697003025DF07A167B00123EB7
:105D7000858A0C8B0DAE0CAF0DEE4F607390054B0A
:105D80001272B28E828F83125E8C900540E08E82FA
:105D90008F83A3A3F0123273E98E828F83A3A3A310
:105DA000A3A3F0901EC81275F9F07C5F7D05125E0A
:105DB00078123F99AA18AB1979411244C18518820B
:105DC000851983E06008901B9C1272B2800478FEF3
:105DD00079FF8E828F83A3A3A3A3A3A3A3125E8CB8
:105DE000125E80E50AF0A3E50BF08E0A8F0B050822
:105DF000901BB0E0F8E508C398500479008027E5CF
:105E000008C398F9C39406400279057800800DE52F
:105E10000A127384350B125886F50B08901BB0E0FC
:105E2000FAE8C39A40E97509007809122A55780AF8
:105E3000122A51E9F5097809122A55901BB0E0F5AC
:105E4000097809122A55AD087C007AA77B1B901BA4
:105E5000A5E0F91243E37405122A2E901D35E06087
:105E6000046401700BEE4F6007EEFAEFFB123E8BFD
:105E70001245C37401027498EE240BFAE43FFB222E
:105E8000EE125E85221273843FF58322E8F0A3E9C7
:105E9000F02274F012243C74FF122AC78A0A8B0B7A
:105EA0007E008E0E8E0F125C0B1258711260E7FF8F
:105EB000AC18AD197A007B00799D122CFD851882F3
:105EC000851983E0F8EFC3984003025F6BE0C39F3E
:105ED000FEC3940B40027E0AEE75F007A4FAABF005
:105EE000123E858A088B098A0E8B0FEA450F60796E
:105EF000750C00801A850882850983A3A3A3A3A338
:105F00007403F0E5082407F50850020509050CE5BF
:105F10000CC39E5056AC08AD09E50C2FFAE43400D2
:105F2000FB798B122CFD850882850983A3A3A3A38B
:105F3000A3E014600814601314601F80B885088201
:105F4000850983A3A3A3A3A3E480B7850882850959
:105F500083A3A3A3A3A3740180A8850882850983D2
:105F6000A3A3A3A3A3740280997E007508007808F8
:105F7000122A55780E122A51EEF5087808122A5581
:105F8000EFF5087808122A557405122CF3E0FD7C11
:105F900000E50A1260D1350BFBE50A1260D61258F3
:105FA00071E0F91243EF7405122A2EE50E450F60D9
:105FB00007AA0EAB0F123E8B7401122A2E024FDE7F
:105FC00074EE12243C74FE122AC78A0C8B0D7510D5
:105FD00000751100125C0B350DF5831260E7F50AB0
:105FE000AC18AD197A007B0079A3122FD9126CDDA1
:105FF000C3E50A9AE49B5076851882851983A80A1E
:10600000E0C398FEA3E09400FFC3EE9404EF940075
:1060100040067E037F008004EE4F6052EEFAEFFBF5
:10602000EA75F015A4FAA8F075F015EBA428FB1298
:106030003E858A088B098A108B11EA4511602F75FD
:106040000B00750E00C3E50E9EE49F5026AC08AD14
:1060500009A80AE50E28FAE43400FB79A2122FD928
:10606000E5082415F50850020509050E80D7750BC3
:106070008B7E007508007808122A557810122A5174
:10608000EEF5087808122A55E50AF5087808122A6C
:10609000557405122CF3E0FDAC0BE50C1260D13504
:1060A0000DFBE50C1260D6350DF583E0F91243F5D2
:1060B0007405122A2EE51045116007AA10AB1112C3
:1060C0003E8B7402122A2E7F0A0226CDFCEFFDE5DC
:1060D000082402FAE4221260DA22240FF582E42274
:1060E000A3E0F5838882A3125680E02274F612247E
:1060F0003C74FF122AC712594C1274BDA3A3A3A368
:10610000A3A3A3A3E0F912467DE98518828519832C
:10611000F07508007808122A557401122A97880829
:1061200089097808122A517508357509807808128E
:106130002A5112614212434D7405122A2E74010233
:106140005110790112614CFAE43FFB22EE2402FC6B
:10615000E43FFDEE240F2274F412243C74FA122A58
:10616000C7125CD4126231EEFAEFFB12471FE960EE
:10617000171231E98A0A8B0BAC0AAD0BEEFAEFFB72
:10618000123F93E96401700A7401122CF3E4F0A346
:1061900080097401122CF3EEF0A3EF12763BA3A357
:1061A000A3A3A3E0F8A2E650087403122CF3740131
:1061B000F0E8A2E750087404122CF37401F074059F
:1061C000122CF3E4F004122A9F12464DE98518823E
:1061D000851983F09080B1122CC412320D7A007BA5
:1061E000001232197A007B00123213750A00780A05
:1061F000122A557401122A97880A890B780A122AE2
:1062000051750A34750B80780A122A5112621C12D9
:10621000434D7405122A2E74060250527901E50886
:106220002402FCE43509FDE508240FFAE43509FBF6
:1062300022F5831274C7FF2274F612243C74FF12F5
:106240002AC712628B1260E7F91246CBE9851882E1
:10625000851983F0EE240B1266AC702C750800785B
:1062600008122A557401122A978808890978081299
:106270002A517508367509807808122A5112614230
:1062800012434D7405122A2E02613DEAFEEBFF1205
:1062900059553FF583220229FB74F412243C74EF14
:1062A000122AC7EAFEEBFF12634BF508E439F50941
:1062B000901B9CE065087004A3E065097052A81863
:1062C000A919880A890B780A122A51750A11750BC7
:1062D00000780A122A517C007D007A817B00123FEF
:1062E0000F7404122A2EE97027750A00780A122A00
:1062F000557401122A97880A890B780A122A51AC20
:1063000008AD091263361243A77403122A2E8021A6
:10631000750A11750B80780A122A517808122A51D1
:106320001266A9FD7C841263361243B37404122AE8
:106330002E741102505212633A22EE2402FAE43F04
:10634000FBEE1260DA3FF583E0F92212634F22126E
:1063500058BD126490127578F8E4C8F9EA282274DE
:10636000F112243C74EB122AC712628BE01264888B
:10637000FAE4CAFBEC2AF508E43BF509901B9CE023
:1063800065087004A3E06509600302642F888289B0
:1063900083A3A3E09410500F88828983A3A3E08590
:1063A000188285198380088518828519837410F0F6
:1063B000E0C0E07404122CF3D0E01274A9A3A3A9E6
:1063C00082AA83890C8A0D750E00780C122A4D74EE
:1063D00007122CF3E0FC7D007408122CF3AA82ABA8
:1063E00083123DC57403122A2E7404122A97880A58
:1063F000890B780A122A51750A11750B00780A1256
:106400002A517C007D007A817B00123F09740412BE
:106410002A2E7404122CF3E0901BD96005E0D2E41C
:106420008003E0C2E4F0851882851983E480088542
:1064300018828519837484F0E0C0E07401122CF393
:10644000D0E0F07402122CF3E508F07403122CF380
:10645000E508F01250F63F1264A0122A5574021299
:106460002A97880889097808122A5175081475092D
:10647000807808122A51790312614412434D740541
:10648000122A2E7415025869126490E0FCA3E022CF
:10649000F8A3E0F98882898322E5161250F73517B0
:1064A000F583E0F50878082274F612243C74E012B3
:1064B0002AC7EAFEEBFFAC18AD19124335901D3523
:1064C000E06402702F1231E97402122CF3AC82AD39
:1064D00083123F93E9601D1231EF8A088B09A808E7
:1064E000A909851882851983E0687003A3E06970A3
:1064F0000302669E1233BD7402122CF3AC82AD838C
:10650000126CDD1232BBE96401700302669E7418DE
:10651000122A9F1231FB7402122CF3AC82AD8374E9
:1065200018122A9F123F93E960321231F58A088BC4
:1065300009A808A909851882851983E0687003A352
:10654000E06960188518828519831272B29005413E
:10655000125E8C7A417B05794B1244C7901D35E061
:106560006004640170751231EF8A088B09A808A9CC
:1065700009EE24111266AC687003A3E069605C74D4
:1065800002122CF3AA82AB831246898A088B09A8CF
:1065900008A909E849602688828983A3A3A3A3E008
:1065A0006401600D88828983A3A3A3A3E0640270C1
:1065B0000C7402122CF3AA82AB831246479005DBBF
:1065C0001266BA6016901D29E06401700E126CDD2F
:1065D0009005DCE0F583888212262D7900126CDDAF
:1065E000122E3B90054B1266A3126CDD12337574AC
:1065F0000B122CF3E41266BEF8A3E0F9740C122C13
:10660000F3125E8C740B122A9F124701E9603F7CE3
:10661000087D0079007418122A9F123DD1740E1261
:106620002CF3AC82AD837418122A9F123F93E96059
:106630001D7402122CF3AC82AD83740E122CF3AADB
:1066400082AB83124725740B122A9F1246EF740205
:10665000122CF3AC82AD83740E122CF3AA82AB839E
:10666000124725740B122A9F1246FBE96030740C06
:10667000122CF31272B2851882851983E0687003B8
:10668000A3E06960198518828519831272B2740CAF
:10669000122CF3125E8C740B122A9F1246EF742098
:1066A000025110E0FCA3E0FD22EE240EF582E43F4F
:1066B000F583E022F582E438F583126E6522F085D9
:1066C0001882851983E02274E812243C74F7122A98
:1066D000C78A168B177F008F088F0912433B8A12D7
:1066E0008B13EA4513700302689C7E00800DEE75E3
:1066F000F00CA4F81268B91246470E851282851371
:1067000083E0F8EEC39840030267D1750CFF750D66
:10671000FF750EFF750FFFEE75F00CA4F8A9F012CF
:1067200068B9124689EA4B60D18A828B83A3A3A3FE
