:020000040000FA
:10000000021F4E022003FFFFFFFFFF02200BFFFF36
:10001000FFFFFF022013FFFFFFFFFF02201BFFFF78
:10002000FFFFFF022023FFFFFFFFFF02202BFFFF48
:10003000FFFFFF022033FFFFFFFFFF02203BFFFF18
:10004000FFFFFF022043FFFFFFFFFF02204BFFFFE8
:10005000FFFFFF022053FFFFFFFFFF02205BFFFFB8
:10006000FFFFFF022063FFFFFFFFFF02206BFFFF88
:10007000FFFFFF022073FFFFFFFFFF02207BFFFF58
:10008000FFFFFF022083FFFFFFFFFF02208BFFFF28
:10009000FFFF70DFFFFF040000000002000000C847
:1000A000030002030369A5020269A532730000017F
:1000B00000000000000400FFFFFFFFFFFFFFFF0440
:1000C00003090424035400650078006100730020D4
:1000D0000049006E0073007400720075006D0065C9
:1000E000006E007400730024035400490020004394
:1000F000004300320035003300310020005500532A
:10010000004200200043004400430000035F005F02
:100110000030005800000000000000000000000057
:1001200000000000000000000000000000000000CF
:100130000000000000303132333435363738394171
:1001400042434445463C1C911C911C911C911C99B6
:100150001C74F8121BD6900391E060159003027492
:10016000FEF0900304744DF0A37405F07A011207B9
:100170000C7F01021D7B74F8121BD674FF121EC582
:100180007E00801F851882851983E064FE700690CA
:1001900003877401F0851882851983E0F890038441
:1001A000E068F07901AA18AB191210DFE9700302B8
:1001B000027E851882851983E064EF70027E07E075
:1001C000C0E0900387E0F8900385E0FAE82AF8E4BD
:1001D000340012075BD0E0F0900387E060A6146063
:1001E0000E14602A14603A14605014606680A69061
:1001F0000384E4F0851882851983E0900386F0C3B8
:1002000094809003874003E4808A74028086851876
:1002100082851983E0900382F090038774030201C2
:1002200094851882851983E0900383F0900386E01B
:1002300060199003877404020194900385E004F030
:10024000F8900386E06860030201959003877405C7
:10025000020194900385E4F0900387F0900384E01A
:10026000F8851882851983E0686003020195900380
:1002700082E0644D60030201951203B68002EEF93C
:100280007401121E4602017174F7121BD674FB1220
:100290001EC5EAFEEBFF7508047509007808121EFA
:1002A000DF7402121F467A907B0079041218F274F0
:1002B00002121E461206FE121F97E0687003A3E0AA
:1002C000697012851882851983E0F47003A3E0F445
:1002D00060030203917404121F3E1207678A088BA1
:1002E00009A808A9097402121F97E8F0A3E9F0749D
:1002F00004121F97E0600879011201510203AA85D8
:100300001882851983E0687003A3E0697076851808
:1003100082851983E0F47003A3E0F470197402126B
:100320001F977410F0A37420F085188285198374C8
:1003300010F0A37420F07508017509007808121EEA
:10034000DF7402121F467A247B0812197774021296
:100350001E467508047808121EDF7402121F467AC2
:10036000907B0079041218F27402121E461206FEE7
:10037000121F97E0687003A3E06970047902800699
:100380007904800279031201518E828F83741E805A
:10039000058E828F83E4F01206FE121F97E06870CC
:1003A00003A3E06970047901800279007405121ECC
:1003B000467F02021D7B74ED121BD674F8121EC517
:1003C000900307E0FA900306E0FB8B08EAF8E4C824
:1003D000F9EB28FEE93408FF751001880C750D064D
:1003E0008F0974027808121F2BC39508F8E4950949
:1003F000F9740228F50E740339F50F8E088F09740D
:10040000097808121F5DE508F511EE2410F508E4DF
:100410003FF509EEF50AEF5401F50B900383E01464
:1004200060541470030204EB147003020566146038
:100430001024FE70030206211470030206D1020686
:10044000E1750D03794E1213B29003071206F4748E
:1004500002F0A374401206F274081206F2F0A3F040
:10046000751012AA10A90C12070CA90D7408121EFF
:10047000467F0C021D7B750D04794E1213B2EE45BA
:100480000B7005A9111219DDC3EE9425EF940850E5
:100490003CC3E5089424E50994084031E50E249610
:1004A000F8E50F3420F988828983E0701BA3AA82C3
:1004B000AB83E070139003887401F08882898374A1
:1004C000A5F08A828B838004900388E4F07508107D
:1004D0007509007808121EDF7C087D03EEFAEFFB39
:1004E0001219777402121E46020463750D05E51198
:1004F000C394794006750C010204637512407513AC
:10050000007812121EDF7C097D037402780A121F24
:100510002BAA0AAB0BA9111218F27402121E4690F4
:100520000307E0A3F0900306E0A3F0751043C3EEC9
:100530009425EF94084003020463C3E5089424E57E
:100540000994085003020463900388E070030204D6
:1005500063E50E2497F8E50F3420F988828983E457
:10056000F0A3F00204637508047509007808121EF0
:10057000DF7402121F467A907B0079041218F2741D
:1005800002121E467402121F97E0F8A3E0F98518C4
:1005900082851983E0687003A3E069851882851954
:1005A00083700BE0F47003A3E0F470578009E0F46B
:1005B0007003A3E0F4700D8518828519837410F020
:1005C000A37420F01206FE121F97E8F0A3E9F0755D
:1005D00008017808121EDF7402121F467A247B0875
:1005E0001219777402121E467508047808121EDF6D
:1005F0007402121F467A907B0079041218F274027A
:10060000121E461206FE121F97E0687003A3E069EF
:100610007006750D01020463750D02750C07020466
:10062000639003D6E0600764026003020463EAFF9C
:100630007A01790012070CE060030206C5800312FC
:10064000117B121162E970F77404121F971206E60B
:100650007404121F977808121F7B85080C85090DFA
:10066000850A0E850B0F9003C2780C121F057404C7
:10067000121F97780C121F6CE5084509450A450BB7
:1006800070CE8EC2E5C554E04FF5C57404121F97B5
:100690001206E67404121F977808121F7B85080C57
:1006A00085090D850A0E850B0F9003C2780C121F69
:1006B000057404121F97780C121F6CE50845094554
:1006C0000A450B70CE7A01790012070C79080204F2
:1006D0006CEB900391F07003020463750D09020442
:1006E00063790602046CE4F0A37426F0A3E4F0A39B
:1006F000F022F0A3E4F0A3F0A3F0A3F0A322851866
:1007000082851983E0F8A3E0F974022274F6121BC3
:10071000D6EAFE900305E0D2E7F0E9A3F0EE9003FD
:1007200003F08E0A74042AFE7A028004E0620A0A48
:10073000EAF83395E012075B8E08C3E89508E99460
:1007400000A2D265D03340E4E50AF0740128F97ABA
:10075000027B0312111D7F03021D7BF9740228F531
:1007600082740339F5832274E9121BD675820075F1
:1007700083FE121E288A168B177514007515008AC1
:10078000828B83E4F09003D6E07006D2AAD2AF80C9
:1007900004640270057900120151750C00750D207A
:1007A000750E00750F009003D6E0600464027015AA
:1007B00012117B120176E9F874096860030208A33C
:1007C0007900120151E064027007A292400302080E
:1007D0007E7508007509027808121EDF7402121F68
:1007E00046850C08850D09AA08E5095407FB850E06
:1007F0000A850F0B740B7808121E96A9081218F2BE
:100800007402121E467E007F009003CAC0828E10C2
:10081000EFF5113395E0F512F513850C08850D09F8
:10082000850E0A850F0B78087910121F189003C6E1
:100830007808121F05758303D0827808121E0950AC
:100840001D851882851983E5822EF582E5833FF5A3
:1008500083E0F9AA14AB151208D28A148B150EEE98
:1008600070010FC3EF940240A09003CE780C121FCA
:10087000059003D2780C121E0940030207A67900E6
:10088000AA14AB151208D279001208D28B15900366
:10089000D6E07004C2AFC2AAEA451570277AA57BDC
:1008A000A58021E870030207C5740668700302077B
:1008B000C574076870030207C5851682851783749F
:1008C00001F080BA758200758302121E287F100223
:1008D0001D7BC008C0097C088A088B09740F780842
:1008E000121F5DEA25E0FAEB33FBE9A2E75004743E
:1008F000014AFAE508A2E0500874216AFA74106B04
:10090000FBE9C333F91CEC70CFD009D0082274F78F
:10091000121BD6120F2860030209E9A3E0F8A3E036
:1009200060030209E9A3E064027002A3E06003022D
:1009300009E99003B8E02480600914604F14605CFA
:100940000209E9E860030209E99003B2E060047873
:1009500001800278009003C0E8F0A3E4F09003B1B6
:10096000E0600A9003C0E04402F0A3E4F09003A624
:10097000E0640460149003B374C0F0A37403F0A3A4
:10098000E4F0A37402120F8AF002100A90039FE0B1
:10099000640470559003C0E4F0A380D0E8547FF560
:1009A0000890039FE064047040E508C39406503942
:1009B000749F2508F582E43403F583E854806018B9
:1009C000A3A3A3A3A3A3A3E06403700478018002FC
:1009D00078009003C0E88091E582240CF5825002F3
:1009E0000583E0640370E980E39003A674048098B3
:1009F00074F7121BD6E9FE9003BE120F2B600302A0
:100A00000AD190039FE06404600B9003BC120F2B8B
:100A10006003020AD19003B8E0541F6009146030EB
:100A2000146020020AD19003BAE064017022EE90B3
:100A300003B1F060047905800279067A00121BD4B4
:100A4000020AD79003BCE0547FFA9003BAE0600535
:100A50007900020AD9EAC394065076EA90620EF051
:100A6000749F2AF8E43403F99003BCE05480602CAE
:100A7000EE6004741080027440906211F0EE600425
:100A800074038001E488828983A3A3A3A3A3A3A3FF
:100A9000F0EE6004790880307907802CEE600474F1
:100AA0002080027480906214F0EE60047403800170
:100AB000E4C0E0E8240CF582E439F583D0E0F0EE00
:100AC0006004790A80027909121BD490620EE480D6
:100AD000059003A67404F0790102100A7900120946
:100AE000F0E97003121BC32279011209F0E97003C7
:100AF000121BD222C082C0839003BC120F2B701530
:100B0000A3120F2B700F9003BA120CD05480FAE985
:100B1000FBEA4B60079003A67404801AE890620019
:100B2000F090039F6009E06402700C74038007E09A
:100B3000640370037402F0D083D0822274F3121B1A
:100B4000D69003BAE0FAA3E01460081460101460B1
:100B500039805712175F120CADA37B80804179005A
:100B6000121781120CAD7B80E92402F9E43AFA12E3
:100B70001E7CFC1919E0FAA3E92403F9E43AFA12FD
:100B80001E7CF9ECA3F0A3E9801CEAF91217EF90A0
:100B900003B3EAF0A3EBF0A3E4120CBCA37B0012B6
:100BA0001E7CA3F0A3E4F0020C679003B3E4F0A36F
:100BB000F0A3F0F50B90047DE0FAA3E0FB020C42F9
:100BC00075090074037808121F2BEA2508F8EB3525
:100BD00009F99003BA120CC6E493C0E0EFFCD0E030
:100BE0006C705DA3E4936E70579003BC120CC6A3A7
:100BF000A3E493C0E0EFFCD0E06C7044888289836A
:100C0000A3A3A3E4936E703888828983A3A3A3A3CC
:100C1000E493F508740193F5099003B3E508F0A394
:100C2000E509F0A37480F088828983A3A3A3A3A31A
:100C3000A3E493F8740193F99003B6E8F0A3E9F004
:100C4000050B850B0890047F120CD0C39AF50CE9B4
:100C50009BF50D7403780C121F5DC3E508950CE439
:100C6000950D5003020BC09003B3E0FCA3E0FDA37D
:100C7000E0FEEC4D4E9003A6700474048029E064FD
:100C80000460259003BEE0FAA3E0FB9003B6E0F811
:100C9000A3E0F9C3EA98EB9950089003B6EAF0A3F1
:100CA000EBF09003A67401F07F06021D7B9003B366
:100CB000EAF0A3EBF0A37480120CBC22F09003B313
:100CC000E0F9A3E0FA22E0FEA3E0FF888289832214
:100CD000E0F8A3E0F9E82274EE121BD6EA2404F847
:100CE000E43BF9880889098882F583E493602590BC
:100CF0000481120CD0FEE9FF8007EE2404FE5001AF
:100D00000F8E828F83E493F8740193F9EA6870027E
:100D1000EB6970E6750C00803F9062147490F0747B
:100D200010120E2A7003750D408E828F83A3A3A329
:100D3000E49355106006E50DD2E0F50DE50D9062E7
:100D400015F0EA906213F0EC240CF582E43DF58393
:100D5000E4F090620EF0050C850882850983E49327
:100D6000F8E50CC3984003020E257A0079051216A7
:100D7000F28A0E8B0FEA450F60DCEA2402F8E435B4
:100D80000FF9880A890B8882F583E493540FF512D2
:100D900090620EF0750D008A828B83A3A3A3A3E457
:100DA000932407F510A3E4933400F511740378102D
:100DB000121F5DAA10851210749F2510F8E43403E9
:100DC000F9E8FCE9FD751001751100E512781012C3
:100DD0001F2BE50E2403F8E4350FF9850A82850BF5
:100DE00083E493A2E74003020D199062117448F066
:100DF0007408120E2A7003750D408E828F83A3A390
:100E0000E49355106006E50DD2E0F50DE50D906216
:100E100012F0EA906210F08C828D83A3A3A3A3A3A7
:100E2000A3A3020D507F0B021D7BF088828983E40F
:100E3000935403640122C082C083120F287010A350
:100E4000120F2B700AA3E064017002A3E060079008
:100E500003A67404800C9003B374A0F0A37403126F
:100E60000F80F0020B3774F4121BD690039FE064DE
:100E70000260149003BC120F2B700CA3120F2B7086
:100E8000069003BBE060099003A67404F0020F23F0
:100E90007A007901121BD49003BAE060717A00F9EC
:100EA0001217818A088B09EA4509605A90039F74DA
:100EB00004F09003BAE09003A0F0750C008508825E
:100EC000850983A3A3A3A3E493F8E50CC398504C2E
:100ED000850C0A74A1250AF8E43403F9E8FEE9FF59
:100EE0008E828F83E4F07A0079041216F28A828B64
:100EF00083A3A3A3E493F88E828F83E06870E71244
:100F00000CD7050C80B79003A67404F0800E9003F4
:100F1000A0F090039F7403F0F91216587A0079023A
:100F2000121BD47F05021D7B9003BAE0F8A3E0F901
:100F3000E8492274F6121BD690039FE064047019EE
:100F40009003B8E064817011120F28700C9003BEFA
:100F5000E064017002A3E060079003A67404801AA5
:100F60009003BCE024A1F508A3E03403F509900345
:100F7000B3E508F0A3E509120F80F07F03021D7BA3
:100F8000F0A3E4F0A304120F8A22F0A3E4F090038C
:100F9000A6042274F7121BD690039FE064047064C9
:100FA0009003B8E06401705C9003BE120F2B705484
:100FB0009003BAE0FB9003BCE0FA9003A0E0F912C2
:100FC00017B98A088B09AE08AF09EE4F6036900357
:100FD000BCE0FA7903121BD49003BAE0C0E090039E
:100FE000BCE024A1F8A3E03403F988828983D0E02F
:100FF000F0EEFAEFFB120CD79003BCE0FA79041282
:101000001BD480069003A67404F07F02021D7BC0EF
:1010100082C0838003121A39A2E840F9A823E85459
:101020000460097823E654FBF6121402A823E8545E
:101030001060097823E654EFF6121420A823E8A2E2
:10104000E05005782354FCF690620EE0FA7404F048
:10105000906214E0A2E0503AE5A8F8C2AF906216A0
:10106000E0F9A3E0E9FBE8A2E792AF8017906228DD
:10107000E0C0E0900393E0F8121112D0E0F090038A
:1010800093E004F0EBFC74FF2C1B0470E0906214FE
:10109000E4F0EA90620EF0E0FD7404F0906211E07A
:1010A000A2E04031900395E0F8900394E068602559
:1010B0007A40900394121155E0906228F0900394C6
:1010C000E004F008900395E06860041AEA70E39089
:1010D00062117401F0ED90620EF0D083D082227420
:1010E000F8121BD6E9FE79008012121112E08A82F2
:1010F0008B83F0900392E00412114A09900392E06E
:10110000F8900393E0686005E9C39E40DD7F01022B
:101110001D7B748528F582E43404F58322C082C0E7
:1011200083E9FC80188A828B83E0C0E090039512EB
:101130001155D0E012114A900395E004F0ECF874D8
:10114000FF281C0470DF79018090F08A828B83A3D2
:10115000AA82AB8322E0F8748528F582E43405F591
:101160008322C082C083900395E0F8900394E068E6
:1011700060047901800279000210DA02100F74FB1A
:10118000121EC57E009006857808121F7B794A12D0
:1011900013B29006857401F0A3F0A37469F0A374F0
:1011A000A5F09003D77808121EF070030E801590FA
:1011B00003DB7808121EF06008E59D541864107077
:1011C00003022000EEF9121329C280D291EEA2E0B0
:1011D00050030212DCAA18AB19120288E97003024C
:1011E00012DCC291851882851983E0C3943C500EAD
:1011F000E0F8743CC398F50895E0F5098006750899
:1012000000750900E4F50AF50B9003DF780C121F56
:101210007B7808790C121ADA790612015112100F34
:10122000120176E9F8740968700779061201518095
:10123000277407686016A2935012E8600874066865
:1012400060030212DCA292400F0212DC75080075E6
:101250000900750A00750B0085080C85090D850AC3
:101260000E850B0F9003C27808121F05E50C450D83
:10127000450E450F70A7D2807907120151800312E5
:10128000100F121162E970F77E007F007401121FC7
:1012900097E4F0A37426F0A3E4F0A3F07401121F06
:1012A000977808121F7B85080C85090D850A0E8525
:1012B0000B0F9003C2780C121F057401121F977850
:1012C0000C121F6CE5084509450A450B70CEA29229
:1012D00050FCA29350F81213AD022000D280D2919C
:1012E000794E1213B2750800750900750A00750B66
:1012F00000790512015112100F120176E9F87409F4
:101300006860EE74016870EE12100F9003E37808C5
:10131000121F059003E77808121E0950EB1213AD57
:101320000220007405121E462274F8121BD6E9FE34
:1013300053BEFBE59DA2E650FA0078F8790100E87B
:1013400024FF18E934FFF9E84970F375C68074800A
:10135000659E70FA43BE049062707408F01213A286
:10136000EE700853F4FEC29043FE017403F5D57588
:10137000D489900396E4F0A374C2F0A37401F0A39F
:10138000E4F0A3F0A3F0A37408F01213C87AFF7B73
:10139000FF1219F453F4FED29043FE011213A2027D
:1013A000110DD28043FD01C29143FE0222D280C2C0
:1013B0009122781075B60FE5B4A2E750FAE5BBC3E9
:1013C0009940F118E870ED22C082C0837A0079015B
:1013D0001217818A828B83A3A3A3A3A3A3A3E4935D
:1013E000A2E69003B2500474018001E4F09003B1CE
:1013F000E4F090620F7403F0E0A2E750FBD083D0DA
:101400008222C082C08390039F7402F0A3E4F09014
:1014100003A6F0790312165875210075220080DDAD
:1014200074F6121BD690620EE0FEE4F0906211E0BA
:10143000FFA2E4501D7480F09003A67407F0E5212C
:1014400045226009852182852283121FA69003A66A
:10145000E4F0EFA2E2500B906211E4F09003A6F0EA
:1014600080669003A6E0F87402687045906216E00A
:10147000FF9003B3121DBBEFF97A207B6212168C2A
:101480007403121E468F089003B612163C121634CF
:101490002F121647E0F8A3E0F9E849600474408091
:1014A000027448906211F0E849600302162A02169D
:1014B000067406687009852182852283121FA69012
:1014C00003A6E060030215B1EFA2E0400302162A72
:1014D0007508B8750903750A007808121EDB7908CB
:1014E0007A207B6212168C7403121E4675210075D9
:1014F00022009003B8E054E0601D24E07003021560
:101500008D24E0607224C0604824E07003021598C6
:1015100024E0606E0215A3A3E014602624FE601D83
:1015200024FE600A24FC601F24FE60208075120ADD
:10153000F49003A6E06404707274608070120AE88C
:1015400080EF120ADC80EA120E6680E5120F9380AB
:10155000E0A3E0600E24FA600F24FE601024FE6019
:1015600011804012090E80C9120B3C80C4120E3645
:1015700080BF120F3380BA7521BF75221B121BBFAB
:1015800080AF7521C175221B121BC180A475215A21
:1015900075221B121B5A809975218A75221B121BFA
:1015A0008A808E9003A67404F0808E74409062113D
:1015B000F09003A6E0F874016870617F029003B6B2
:1015C000E0F8A3E0F9C3E89420E994005007E8F5B7
:1015D0000A7F0A8003750A209003B3121DBBA90A73
:1015E0007A207B621216B77403121E46850A08120F
:1015F0001634250812164712163CEF906211F0E5DA
:101600000AC394205024E521452260098521828562
:101610002283121FA69003A6E4F0800E7405687062
:1016200009852182852283121FA6EE90620EF07F2B
:1016300003021D7B9003B31216E4E922C3E0950870
:10164000F0A3E09400F022F9E43AFA9003B3E9F051
:10165000A3EAF0A3EBF0A32274F7121BD678007470
:10166000A728F582E43403F583E9F008E8C394057C
:1016700040ED780074AC28F582E43403F583E9F09A
:1016800008E8C3940540ED7F02021D7B74F8121B2D
:10169000D6EAFCEBFDE9F87408121F971216DF601A
:1016A000118C828D83E0121EAFE9240109E43AFA1D
:1016B000D8EF7F01021D7B74F8121BD6EAFCEBFD0C
:1016C000E9F87408121F971216DF6011121E7C8C45
:1016D000828D83F0E9240109E43AFAD8EF80D3122D
:1016E00016E4E822E0F9A3E0FAA3E0FB22D083D0DD
:1016F0008222C082C083E9FCEAFD7A007B0080037D
:1017000012173D90039DE0F8A3E0F990047BE06898
:101710007003A3E069602490039EE0F5838882A3B0
:10172000E493F8EC68700D90039DE0FAA3E0FB12DF
:10173000173D8007ED6870C8ED60C580B090039DCF
:10174000E0F8A3E0F5838882E493F890039DE02815
:10175000F8A3E03400F990039DE8F0A3E9F022C07B
:1017600082C0831217707A0079011216F20216ED08
:10177000900479E0F8A3E0F990039DE8F0A3E9F084
:101780002274F7121BD6E9FEEAFF1217707A00796D
:10179000021216F2EA4B601CEE60108A828B83A361
:1017A000A3A3A3A3E4936E70E48009EFF874FF2869
:1017B0001F0470D97F02021D7B74F5121BD6EAFF4D
:1017C0008B087A001217817A0279041216F2EA4B1A
:1017D00060188A828B83A3A3E4936F70EA8A828B5A
:1017E00083A3A3A3E493650870DD7F04021D7B74CB
:1017F000F7121BD674F0121EC5E97A007B00600C4C
:101800001460101460141460180218DB7AF37B0360
:101810000218DB7AF77B030218DB7A1B7B040218C1
:10182000DB90043FE060030218D79003EB740812CA
:101830001F467408121DE8750808F5097808121E7D
:10184000DF7402121F467AE87B07797F1218F27460
:1018500002121E467808121EDF740A121F46740216
:10186000121F3E121C997402121E468B09EA45098A
:1018700070197509007808121EDF7C0C7D787402DF
:10188000121F3E121D357402121E467C287D0085F3
:101890001882851983E5822DF582E43583F583E08E
:1018A000FF743F2CF8E43404F9EF1218E3888289BE
:1018B00083F0EFC41218E3C0E0E824FEF582E934B7
:1018C000FFF583D0E0F00D74FC2CFCEDC3940840D0
:1018D000BE90043F742AF07A3F7B047410121E46B7
:1018E0000217B4540FFA74692AF582E43404F583BC
:1018F000E02274F5121BD68908740F5508F50A7595
:101900000B00740B780A121F2BEA2400F8EB3480CA
:10191000F9E82400E9350BF9E5C7F509A2AFE4338E
:10192000F50AC2AFE508C4540FFAE5C754F84AF502
:10193000C7740B121F97E0FAA3E0FB801C88828912
:1019400083E08C828D83F088828983A3A882A98317
:101950008C828D83A3AC82AD83EAFEEBFFEE24FF85
:101960001AEF34FFFBEE4F70D48509C7E50AA2E0F9
:1019700092AF7F04021D7B74F7121BD6ED90038992
:10198000F0ECA3F0A37462F0A37473F0A3E0541F0F
:10199000F07409121F97E0F508A3E0F509E5083394
:1019A0003354FC90038EF074067808121F5DE5082E
:1019B00090038DF090038F7412F0A37442F075D1F0
:1019C000FE75D601EA906271F0EBA3F0906270E0D0
:1019D000D2E1F0E0A2E740FB7F02021D7BC082C0A3
:1019E00083E9C333906272F0906270E0D2E0F0D08D
:1019F00083D0822274F7121BD675230075240075DC
:101A000025008A268B27EA90620BF08A088B0974DE
:101A1000047808121F5DE508906207F08A088B09B8
:101A200074097808121F5DE508543E906209F0754C
:101A30008B00C2E87F02021D7B74F7121BD6E59D66
:101A4000A2E650FA906206E0FAA2E25035A826E833
:101A500090620BF0F50885270974047808121F5D61
:101A6000E508906207F0852608852709740978083B
:101A7000121F5DE508543E906209F0906201E0D2C9
:101A8000E0F07823EA46F6906202E0F50875090076
:101A900074047808121F2B7823E50846F608E50938
:101AA00046F6906204E0F50875090074097808129A
:101AB0001F2B7824E50946F6EAA2E05003752501BC
:101AC00074065A6003752500E58BA2E55006758BF8
:101AD000DF752500121BD5021A2F080808EAC0E09E
:101AE000EBC0E086F0E7A4FA180986F0E7A42AFA2A
:101AF000180986F0E7A42AFA180986F0E7A42AFA5A
:101B00001986F0E7A4FBE5F02AFA190886F0E7A4A5
:101B10002BFBE5F03AFA190886F0E7A42BFBE5F079
:101B20003AFA18180986F0E7A4C5F02BFBE43AFA54
:101B30001908E7C5F0C6A426F6E5F03BFBE43AFA3F
:101B40001886F0E7A4F6E5F00826F6E43B08F6E48C
:101B50003A08F6D0E0FBD0E0FA22C082C0839003BE
:101B6000B9E0F874226870089003A6E0701A80113A
:101B70007420689003A6700DE0700D121BB19003E5
:101B8000A6740280027404F08043C082C083900374
:101B9000B9E064219003A67013E07013121BB1A387
:101BA0007407F0A3E4F09003A60480027404F080AC
:101BB0001C9003B37496F0A37403F0A3E4F02280A6
:101BC000028000C082C0839003A67404F0D083D04A
:101BD000822280EF22222518C582C0E0E51934FF59
:101BE000C583C0E0E518C3958224F910AF0885834A
:101BF000198582188008858319858218D2AFCEF0A6
:101C0000A3E520F0A37808E608F0A3DEFAEFF0A33E
:101C1000E58124FBF8E608F0A3E608F0A30808E64F
:101C200008F0A3E608F0A315811581D0E0FED0E00E
:101C3000F815811581E8C0E0EEC0E0221201000233
:101C4000020000205104A816090001020301090244
:101C50004300020100801909040000010202010092
:101C600005240010010424020205240600010524B5
:101C70000100010705820340004009040100020A37
:101C80000000000705840240000007050402400030
:101C900000571C00007A1C000074F5121BD6740B50
:101CA000121F97E0F8A3E08015A3AA82AB838C8271
:101CB0008D83A3AC82AD83E824FF18E934FFF9E8F3
:101CC00049601F8C828D83E0F5088A828B83E0F562
:101CD0000AE508650A60D2E50AC39508FA95E0FBB3
:101CE00080047A007B007F04021D7BE47921780761
:101CF000B800028004F709D8FCE490030278C179A7
:101D0000018002F0A3D8FCD9FA7AC27B0390008E3E
:101D100078C479018015E493A3AD82AE838A828B67
:101D200083F0A3AA82AB838D828E83D8E9D9E71290
:101D3000117E121FA174F7121BD6EAF8EBF9740991
:101D4000121F97E0FEA3E0FF80188C828D83E0884D
:101D5000828983F0A3A882A9838C828D83A3AC821D
:101D6000AD838E088F09E50824FF1EE50934FFFFC7
:101D7000E508450970D47F02021D7B85198385180B
:101D800082E0A3FEE0A3F5207808E0A3F608DFFADE
:101D9000E0A3FFE0A3C0E0E0A3C0E0E0A3C0E0E078
:101DA000A3C0E010AF08858218858319800885825A
:101DB00018858319D2AFD083D0822274038000CCDF
:101DC000C0E0EDC0E0E518C39CCCAD1950011D107A
:101DD000AF068C188D1980068C188D19D2AF121D84
:101DE000E8D0E0FDD0E0FC22CAC0E0E0A3C582CC90
:101DF000C582C583CDC583F0A3C582CCC582C5830A
:101E0000CDC583DAE6D0E0CA22C008C3E096F50863
:101E100008A3E096420808A3E096420808A3E096CB
:101E200045087001D3D00822C5822518C582C58314
:101E3000351910AF07F5198582188007F5198582C5
:101E400018D2AFC5832200C0D0251810AF08F518EE
:101E5000500C05198008F51850020519D2AFD0D0E2
:101E6000222518F58210AF08F518400C15198008C6
:101E7000F51840021519D2AF85198322BB0102E77C
:101E800022C082C08389828A83BB0003E08002E48F
:101E900093D083D082226016080808C6C313C618E0
:101EA000C613C618C613C618C613C6D5E0EA22BBA9
:101EB000000EC082C0838A838982F0D083D08222C0
:101EC000BB0101F722251810AF08F518400C1519B1
:101ED0008008F51840021519D2AF227403800474EB
:101EE000028000C0E0F404121E61D0E0121F8A22BA
:101EF000E066701008A3E066700A08A3E06670044C
:101F000008A3E06622E026F608A3E036F608A3E080
:101F100036F608A3E036F622E627F60809E637F695
:101F20000809E637F60809E637F622700422600D44
:101F300018C6C333C608C633C6D5E0F41822251820
:101F4000FAE43519FB222518FCE43519FD2275D079
:101F50000075813F751802751903021CEB600C08AF
:101F6000C6C313C618C613C6D5E0F422E6F008A30C
:101F7000E6F008A3E6F008A3E6F022E0F608A3E006
:101F8000F608A3E0F608A3E0F622CAC0E0E6F0A354
:101F900008DAFAD0E0FA222518F582E43519F5833B
:101FA0002200000080FBE473FFFFFFFFFFFFFFFF45
:101FB000FFFFFFFFFFFFFFFFFFFFFFFFFFFFFFFF31
:101FC000FFFFFFFFFFFFFFFFFFFFFFFFFFFFFFFF21
:101FD000FFFFFFFFFFFFFFFFFFFFFFFFFFFFFFFF11
:101FE000FFFFFFFFFFFFFFFFFFFFFFFFFFFFFFFF01
:0A1FF600850609433886000000004C
:020000040003F7
:01FFF000F020
:020000040000FA
:10200000022DA8022220FFFFFFFFFFFFFFFFFFFFBF
:10201000FFFFFFFFFFFFFFFFFFFFFFFFFFFFFFFFD0
:10202000FFFFFFFFFFFFFFFFFFFFFF022A6CFFFF25
:10203000FFFFFF022243FFFFFFFFFFFFFFFFFFFF46
:10204000FFFFFFFFFFFFFFFFFFFFFFFFFFFFFFFFA0
:10205000FFFFFF02215CFFFFFFFFFFFFFFFFFFFF0E
:10206000FFFFFFFFFFFFFFFFFFFFFF022A44FFFF0D
:10207000FFFFFFFFFFFFFFFFFFFFFF022895FFFFAE
:10208000FFFFFF0221BC01FFFFFFFFFFFFFFFFFF7C
:102090001020102001FF01010503010F10FEFFF4C5
:1020A0004E000000008C4E00000000FF000000FF0A
:1020B00000010000153B00000000673A5F3CAF3AAA
:1020C000C93B00009D3A0000000000000000000035
:1020D0000000000000000000000000000000FF0100
:1020E0000100A907000000E803FFFF2408E80364DB
:1020F000006400B8010202000800000502070101A7
:10210000051E02051E020A0A0103B80B02803E01E9
:1021100002FEFFE8030A050001FFFF0A01E00020BC
:10212000FD000206FFFF00035F005F003000580063
:10213000000000000000000000000000000000009F
:10214000000000000000000000000000000000008F
:10215000B42609270927092709271127C0E074F2A7
:10216000122655A2AFE433FED2AFE5A7FFE5A1F5F5
:10217000085F541060061245CB75A1EFE5085F5467
:102180000860081245D175A1F78024E508A2E09205
:10219000F0EFA2E082F05017906198E0F89009818A
:1021A000E0C398A2D265D0335002E8F075A1FE7565
:1021B0001A00EEA2E092AF7F01022711C0E074F294
:1021C000122655A2AFE433FED2AF9061A4E0F875B9
:1021D0009B00E59158540860087591F712461980E4
:1021E00023E59158541060087591EF12461F801432
:1021F000E591A2E092F0E8A2E082F05007E0C2E0B0
:10220000F01247759061A3E0F8E5E9585404600EB8
:1022100012474B75E9FB906193E0A2E640F2808F94
:10222000C0E074F2122655A2AFE433FED2AF906143
:10223000A5E0F8E5BF585404600675BFFB12478D52
:102240000221AFC0E074F1122655E59DA2E650FAD6
:10225000906206E0FAA2E25035A82CE890620BF0FA
:10226000F508852D0974047808122DB8E5089062E8
:1022700007F0852C08852D0974097808122DB8E51A
:1022800008543E906209F0906201E0D2E0F07829B3
:10229000EA46F6906202E0F50875090074047808D1
:1022A000122D447829E50846F608E50946F69062BD
:1022B00004E0F50875090074097808122D44782A9D
:1022C000E50946F6EAA2E05003752B0174065A6050
:1022D00003752B00E58BA2E55006758BDF752B008F
:1022E00012493D758B00C2E87F02022711C3E498B2
:1022F000F8E499F912232E8026C3E49AFAE49BFBB2
:10230000E920E7E912232EE498F8E499F922C3E4DE
:1023100098F8E499F912232EE498F8E499F9C3E4C3
:102320009AFAE49BFB22EB20E7CFE920E7E0B90033
:1023300010BB0008E88AF084F8AAF022E4FBC8FA8F
:1023400022EB70227B10C833C8C933C9335007C38E
:102350009AC3DBF280069A50012ADBEAC833F4C83C
:10236000C933F4C9FA2275F008E4C833C8C933C9BF
:1023700033C99AC99B5004C92AC93BD5F0ECFBC8A4
:1023800033F4C8E4C9FA2274F51225EF74FA122C5A
:10239000187508047509007808122B567404122B5E
:1023A000FA7AF87B0779031244A57402122B849001
:1023B00080FC7808122DD67402122E2D7808122C6B
:1023C0004470497508027509007808122B5674028A
:1023D000122BFA7AF67B0779031244A57402122BAA
:1023E00084851882851983E0F47003A3E0F4601CEF
:1023F000851882851983E0F8A3E0F98882898374BF
:1024000002F0A3F0A37469F0A374A5F0C2AF75D66F
:102410009F0200007406122B847F040228D808084B
:1024200008EAC0E0EBC0E086F0E7A4FA180986F0FD
:10243000E7A42AFA180986F0E7A42AFA180986F010
:10244000E7A42AFA1986F0E7A4FBE5F02AFA1908AE
:1024500086F0E7A42BFBE5F03AFA190886F0E7A42A
:102460002BFBE5F03AFA18180986F0E7A4C5F02B23
:10247000FBE43AFA1908E7C5F0C6A426F6E5F03BF6
:10248000FBE43AFA1886F0E7A4F6E5F00826F6E44D
:102490003B08F6E43A08F6D0E0FBD0E0FA22122E30
:1024A00022B900030224FEE47921780DB8000280ED
:1024B00004F709D8FCE49004D17865790C8002F027
:1024C000A3D8FCD9FA781A9020867A01BA00028043
:1024D00007E493A3F608DAF97A357B109020947814
:1024E000C979018015E493A3AD82AE838A828B8380
:1024F000F0A3AA82AB838D828E83D8E9D9E7758257
:10250000DC7583987406122B3075821F75834C74AA
:1025100000122B30E4CFC0E0E4CEC0E0E4CDC0E058
:10252000E4CCC0E075F020E626F608E633F608E6CF
:1025300033F608E633F6181818EC33FCED33FDEEED
:1025400033FEEF33FFC3EC9709ED9709EE9709EFE0
:1025500097191919400FFFEC97FC09ED97FD09EE4B
:1025600097FE191906D5F0BFECF709EDF709EEF75C
:1025700009EFF7191919D0E0FCD0E0FDD0E0FED04A
:10258000E0FF222518C582C0E0E51934FFC583C0ED
:10259000E0E518C3958224F810AF08858319858279
:1025A000188008858319858218D2AFCEF0A3E52064
:1025B000F0A37808E608F0A3DEFAEFF0A3E58124A3
:1025C000FAF8E608F0A3E608F0A3E608F0A3080886
:1025D000E608F0A3E608F0A315811581D0E0FED04F
:1025E000E0F8158115811581E8C0E0EEC0E02225F4
:1025F00018C582C0E0E51934FFC583C0E0E518C303
:10260000958224F910AF0885831985821880088582
:102610008319858218D2AFCEF0A3E520F0A3780805
:10262000E608F0A3DEFAEFF0A3E58124FBF8E60864
:10263000F0A3E608F0A30808E608F0A3E608F0A374
:1026400015811581D0E0FED0E0F815811581E8C034
:10265000E0EEC0E022C0D02518C582C0E0E5193404
:10266000FFC583C0E0E518C3958224F310AF088549
:1026700083198582188008858319858218D2AFC88E
:10268000F0A3E9F0A3EAF0A3EBF0A37908E709F0DF
:10269000A3D8FAECF0A3EDF0A3EEF0A3EFF0A3D0F3
:1026A000E0F0A3D0E0F0A3D0E0F0A3E520F0A3E5B4
:1026B000F0F0A32212010002020000205104A8162B
:1026C0000900010203010902430002010080190907
:1026D000040000010202010005240010010424028C
:1026E00002052406000105240100010705820340BC
:1026F000004009040100020A0000000705840240AE
:10270000000007050402400000CF260000F226006A
:1027100000851983851882E0C0E0A3E0F9A3E0FA00
:10272000A3E0FBA37808E0F608A3DFFAE0FCA3E04F
:10273000FDA3E0FEA3E0FFA3E0C0E0A3E0C0E0A3B0
:10274000E0F5D0A3E0F520A3E0A3F5F010AF0885F5
:1027500083198582188008858319858218D2AFD0A5
:1027600082D083D0E0F8D0E032E4730875F0108EA8
:10277000218F22858226858325851882851983E00D
:10278000CEA3E0CF852682852583EBC9EAC8EDCBB1
:10279000ECCAC3E833C8E933C9EA33CAEB33CBC365
:1027A000EA9EF524EB9FF523B35004AB23AA24EC57
:1027B00033CCED33CDD5F0DAAE21AF2222D083D0A9
:1027C00082ECC0E0EDC0E0E493A3FCE493A3FDED54
:1027D0004C600D122918EC24FFFCED34FFFD80EF56
:1027E000E493A3FCE493A3FDED4C600D1229EFEC00
:1027F00024FFFCED34FFFD80EFD0E0FDD0E0FCE4F1
:1028000093A3C0E0E493C0E022851983851882E099
:10281000A3FEE0A3F5207808E0A3F608DFFAE0A322
:10282000FFE0A3C0E0E0A3C0E0E0A3C0E0E0A3C0FD
:10283000E0E0A3C0E010AF08858218858319800806
:10284000858218858319D2AFD083D082022B36D0EF
:1028500083D082E9C0E0E493A3C386F0C5F095F08D
:10286000F908E493A386F0C5F095F0700BE493A308
:10287000C3994005E9048002A3E475F002A425820F
:10288000F582E5F03583F583D0E0F9E493A3C0E069
:10289000E493C0E022C0E074F2122655A2AFE43304
:1028A000FED2AFE58AA2E25007900942E0D2E0F002
:1028B000E58AA2E35007900942E0D2E1F0758A0070
:1028C000C2EB7A107B0090093EE0F9123DF1EEA2D6
:1028D000E092AF7F01022711851983851882E0A35A
:1028E000FEE0A3F5207808E0A3F608DFFAE0A3FFF6
:1028F000E0A3C0E0E0A3C0E0E0A3C0E0E0A3C0E04C
:1029000010AF088582188583198008858218858311
:1029100019D2AFD083D08222C0E0C3E4939608746A
:1029200001939618400FE49366700808740193664B
:102930001870007019A3A3C3E493960874019396CA
:1029400018A3A3400DD0E0D0E0D0E00227F9A3A364
:10295000A3A3A3A3D0E022D083D082C5F0E493A3A5
:10296000C5F0C395F0F5F0E493A3C395F04005E5F9
:10297000F0048001E475F002A42582F582E5F035CB
:1029800083F583E493A3C0E0E493C0E02274048061
:10299000087403800474028000CCC0E0EDC0E0E560
:1029A00018C39CCCAD1950011D10AF068C188D19A1
:1029B00080068C188D19D2AF122AB2D0E0FDD0E07B
:1029C000FC2274028000CCC0E0EDC0E0E518C39C9E
:1029D000CCAD1950011D10AF068C188D1980068CD6
:1029E000188D19D2AF122A90D0E0FDD0E0FC22C0A1
:1029F000E0C0F088F0E493667008087401936618EC
:102A00007000A8F0A3A3700BD0F0D0E0D0E0D0E02D
:102A10000227F9A3A3D0F0D0E022D083D082CCC08B
:102A2000E0E493A36006122AD31470FAE493A3603F
:102A300006122C021470FAD0E0FCE493A3C0E0E488
:102A400093C0E022C0E074F2122655758900C2C519
:102A500090102DE0700E7A007B1090071DE0F912A7
:102A60003DF18003124A817F01022711C0E0C0D0EE
:102A7000E8C0E0E9C0E0E5A8D2AFC2C7751A00A27D
:102A8000E7A2E792AFD0E0F9D0E0F8D0D0D0E032C2
:102A9000CAC0E0E493A3C582CCC582C583CDC583FB
:102AA000F0A3C582CCC582C583CDC583DAE5D0E06D
:102AB000CA22CAC0E0E0A3C582CCC582C583CDC509
:102AC00083F0A3C582CCC582C583CDC583DAE6D0A9
:102AD000E0CA22C0E0E493A3D39C5010E493A3C3C4
:102AE0009C400AD0E0D0E0D0E0022A37A3A3A3D0D4
:102AF000E0227009080808226016181818C6C333A7
:102B0000C608C633C608C633C608C633C6D5E0EA0B
:102B100022C008C3E096F50808A3E096420808A37F
:102B2000E096420808A3E09645087001D3D0082239
:102B3000C09FF59FE473D09F22D083D082C09FE4D2
:102B400093C0E0740193C0E0740293F59F22740473
:102B5000800A74038006740280027401C0E0F404E9
:102B6000122B69D0E0122DE5222518F58210AF084E
:102B7000F518400C15198008F51840021519D2AF48
:102B80008519832200C0D0251810AF08F518500C05
:102B900005198008F51850020519D2AFD0D022BB14
:102BA0000102E722C082C08389828A83BB0003E0DE
:102BB0008002E493D083D082226016080808C6C33E
:102BC00013C618C613C618C613C618C613C6D5E052
:102BD000EA22C3E0C696F608A3E0C696F608A3E08C
:102BE000C696F608A3E0C696F6222518F8E435192D
:102BF000F9222518FAE43519FB222518FCE43519C9
:102C0000FD22C0E0E493A36C7009D0E0D0E0D0E0F6
:102C1000022A37A3A3D0E022251810AF08F51840E8
:102C20000C15198008F51840021519D2AF22BB0007
:102C30000EC082C0838A838982F0D083D08222BB77
:102C40000101F722E066701008A3E066700A08A38D
:102C5000E066700408A3E06622C3E09608A3E0964D
:102C600008A3E09608A3E096A2D265D03322E766D7
:102C700070100809E766700A0809E7667004080919
:102C8000E76622C3E096F008A3E096F008A3E0967A
:102C9000F008A3E096F022C3E4939608740193969B
:102CA0000874029396087403939622C3E697F60875
:102CB00009E697F60809E697F60809E697F622E08E
:102CC00026F608A3E036F608A3E036F608A3E036B9
:102CD000F622E657F60809E657F60809E657F60819
:102CE00009E657F622E056F608A3E056F608A3E0F8
:102CF00056F608A3E056F622E056F008A3E056F098
:102D000008A3E056F008A3E056F022E627F60809EB
:102D1000E637F60809E637F60809E637F622E02630
:102D2000F008A3E036F008A3E036F008A3E036F0A0
:102D300022E647F60809E647F60809E647F60809D5
:102D4000E647F622700422600D18C6C333C608C6D3
:102D500033C6D5E0F41822E4C396F608E496F608E4
:102D6000E496F608E496F622C6F4C608C6F4C60849
:102D7000C6F4C608C6F4C622600D08C6A2E713C68C
:102D800018C613C6D5E0F322C3E7960809E79608EC
:102D900009E7960809E79622C3E09608A3E096089B
:102DA000A3E09608A3E0962275D00075813F7518C0
:102DB000D17519040002249E600C08C6C313C618FE
:102DC000C613C6D5E0F422E6F008A3E6F008A3E6B1
:102DD000F008A3E6F022E0F608A3E0F608A3E0F688
:102DE00008A3E0F622CAC0E0E6F0A308DAFAD0E0D1
:102DF000FA22EAF0A3EBF0A3ECF0A3EDF022E0FA64
:102E0000A3E0FBA3E0FCA3E0FD22E0F8A3E0F9A32C
:102E1000E0FAA3E0FB22E8F0A3E9F0A3EAF0A3EBD9
:102E2000F022E5C754F84401F5C77901222518F5C9
:102E300082E43519F58322122B39D9A903122B39D3
:102E40003AAA03122B3979AC03122B394DAE031277
:102E50002B392CAF03122B3965B003122B3918B361
:102E600003122B392BB603122B393AB603122B3926
:102E7000C6B603122B397CB703122B39C3B7031222
:102E80002B390CB803122B3948B803122B39BEB8B2
:102E900003122B392AB903122B3946B903122B39E5
:102EA00077B903122B39B6B903122B39B7BA03120B
:102EB0002B3966BB03122B39F7BD03122B3950BFD8
:102EC00003122B39E3BF03122B396DC003122B39C8
:102ED000D3C003122B3912C103122B3988C103123C
:102EE0002B39DDC203122B3980C303122B3998C34F
:102EF00003122B393BC403122B39C5C603122B39DD
:102F000066C803122B3984C803122B3900800212C1
:102F10002B395A8002122B39C48002122B394D8171
:102F200002122B39098202122B39518202122B39DB
:102F30008C8202122B39E28202122B394A8302124E
:102F40002B39CE8302122B39E78302122B390C84E2
:102F500002122B394A8402122B39998402122B391E
:102F6000C28402122B39118502122B39BD8502123F
:102F70002B39858602122B39EA8602122B39B78744
:102F800002122B39FD8702122B39198802122B39B4
:102F90004B8802122B39F38902122B39CA8A02128A
:102FA0002B39F68A02122B392C8B02122B394D8BBE
:102FB00002122B395C8B02122B39678B02122B39D0
:102FC0001B8C02122B398E8C02122B39008D0212AF
:102FD0002B39088D02122B39838D02122B39DC8D8F
:102FE00002122B391F8E02122B39B19002122B398B
:102FF000F79102122B39879402122B396F95021226
:103000002B39A29502122B39649602122B39139791
:1030100002122B395B9702122B39BD9702122B3902
:10302000E29702122B39F39702122B396B98021296
:103030002B39F39802122B39579902122B393C9AEB
:1030400002122B39619A02122B39829B02122B3900
:10305000A09B02122B39B39B02122B39269C021221
:103060002B39359C02122B39BD9C02122B39059D40
:1030700002122B39129D02122B391B9D02122B3981
:103080001B9F02122B396FA002122B397FA0021254
:103090002B399BA102122B3914A202122B394AA3FD
:1030A00002122B398CA302122B39C8A302122B391E
:1030B0009CA502122B3901A802122B3915A8021265
:1030C0002B391FA802122B3929A802122B3933A839
:1030D00002122B393DA802122B3956A802122B39A5
:1030E00060A802122B396AA802122B3974A80212A6
:1030F0002B39A3A802122B39CBA802122B39D6A840
:1031000002122B3920A902122B392AA902122B39BB
:1031100035A902122B3959A902122B397DA90212A5
:103120002B39DEA902122B3929AA02122B3945AA02
:1031300002122B39AFAA02122B39FBAA02122B3929
:1031400043AB02122B39BEAB02122B3958AC021220
:103150002B391CAE02122B398AAE02122B39BCAFAE
:1031600002122B39E2AF02122B3952B102122B3963
:1031700006B502122B3906B702122B39DEB802123D
:103180002B3977B902122B3989BB02122B394BBC70
:1031900002122B3997BC02122B39FDBC02122B39BB
:1031A0000FBD02122B395FBF02122B394EC0021223
:1031B0002B398DC102122B39DFC102122B3984C287
:1031C00002122B393FC402122B3970C502122B395F
:1031D0008EC502122B39E3C502122B39E1C6021249
:1031E0002B3909C702122B396CC702122B396DC853
:1031F00002122B39E0C802122B390ECA02122B39E7
:1032000079CA02122B3969CB02122B39CFCD0212A7
:103210002B39FDCD02122B39F8CE02122B3996D064
:1032200002122B39E6D002122B399ED102122B3911
:1032300053D202122B39B7D202122B3970D3021299
:103240002B3910D402122B3974D402122B39BED46C
:1032500002122B39FBD402122B3963D602122B39FE
:103260006D8101122B39AF8101122B39AA84011211
:103270002B39FD8401122B39438501122B398486A9
:1032800001122B39E98601122B39298701122B39BA
:103290006C8801122B39AE8B01122B39D78C01129D
:1032A0002B39189801122B39B89801122B39AB9B86
:1032B00001122B39E29C01122B39589D01122B3936
:1032C000829E01122B39D29F01122B39B9A0011213
:1032D0002B3922A301122B3930A501122B39C1A59C
:1032E00001122B3995A601122B3921A701122B3976
:1032F0002BA701122B3953A701122B3900A8011259
:103300002B39EBA801122B39BEA901122B394BAA7C
:1033100001122B3961AA01122B39C5AA01122B39CE
:10332000EEAA01122B391BAB01122B3960AD011231
:103330002B393BAE01122B397FAE01122B39F0AE87
:1033400001122B39A9AF01122B39DBAF01122B3936
:1033500022B001122B3955B001122B39BAB001122B
:103360002B3909B101122B390EB101122B3962B17F
:1033700001122B39ACB101122B39A8B201122B3931
:103380000DB301122B396BB301122B39B5B60112F3
:103390002B3989B701122B3916B901122B39F0BB21
:1033A00001122B39A3BC01122B39CABE01122B39D1
:1033B0006FBF01122B39ADBF01122B397DC1011234
:1033C0002B3990C101122B3999C101122B39A2C19D
:1033D00001122B39B7C101122B39D6C101122B3979
:1033E0000BC401122B395EC401122B3968C40112BF
:1033F0002B3972C401122B39CDC401122B3929C5C6
:1034000001122B3941C601122B39A2C601122B39E8
:10341000F1C701122B393AC801122B3912C9011216
:103420002B393DCA01122B39F3CA01122B39F5CBC6
:1034300001122B39F7CC01122B39DCCD01122B39BB
:10344000F3CD01122B3930CE01122B393ACE0112B5
:103450002B3944CE01122B394FCE01122B396DCEB0
:1034600001122B39AFCE01122B390DCF01122B399E
:1034700032CF01122B394CCF01122B39D9CF011287
:103480002B3912D001122B3962D101122B39B9D14B
:1034900001122B39D3D201122B3909D301122B3946
:1034A000A5D301122B3921D401122B3991D5011248
:1034B0002B39ACD601122B3972D701122B391CD8FB
:1034C00001122B39A1D801122B3909D901122B393C
:1034D000BED901122B3910DA01122B3985DA01120B
:1034E0002B394EDB01122B3971DB01122B3935DC04
:1034F00001122B3959DC01122B397BDC01122B39DB
:10350000DCDC01122B3927DF01122B3902E001121A
:103510002B39ACE001122B39EDE201122B393BE3E0
:1035200001122B397EE301122B39D6E301122B391C
:1035300034E401122B395EE401122B3982E40112CA
:103540002B39B3E401122B39DDE401122B3924E5C8
:1035500001122B3982E501122B39DEE501122B39DC
:10356000DFE601122B3949E801122B3987E80112F5
:103570002B39B0E801122B3941E901122B398BE9C3
:1035800001122B39AFE901122B3905EA01122B394F
:1035900020EA01122B39DBEA01122B3905EB01126B
:1035A0002B3948EB01122B399EEB01122B39A3EE7C
:1035B00001122B39D6EE01122B3993EF01122B3960
:1035C0006EF001122B39FEF001122B393FF101127E
:1035D0002B39C2A605122B39FAA605122B391BA7C7
:1035E00005122B395DA705122B39C1A705122B39FE
:1035F000CBA705122B39DBA705122B3912A8051210
:103600002B39BBAB05122B3983AD05122B3977AFA4
:1036100005122B3915B005122B399CB005122B3928
:103620004D8004122B39F68004122B39D5810412F7
:103630002B39F08204122B39108304122B39328477
:1036400004122B39CF8504122B393C8604122B39F6
:10365000128704122B39188804122B397D88041222
:103660002B39B98804122B39128904122B394B8952
:1036700004122B39948904122B39268A04122B390F
:10368000C38A04122B39988B04122B39658C0412CF
:103690002B39F28C04122B39188D04122B39458DDD
:1036A00004122B39768D04122B394B8E04122B39D0
:1036B0005B8E04122B39AE8E04122B39BB8E041292
:1036C0002B39C88E04122B39D18E04122B39358F29
:1036D00004122B39938F04122B39DE8F04122B39ED
:1036E000F98F04122B39209004122B393D900412CB
:1036F0002B39499004122B39ED9104122B39069283
:1037000004122B39829204122B39959204122B3910
:10371000A59204122B394B9304122B39BB9404123B
:103720002B39CE9504122B396E9604122B397896CC
:1037300004122B39E69604122B39F79604122B3912
:10374000369704122B39649704122B3931980412DE
:103750002B39889804122B39CD9804122B392399D0
:1037600004122B39419904122B398F9904122B39E9
:103770005D9A04122B39AB9A04122B39ED9A04127C
:103780002B39709B04122B399A9B04122B39D09B36
:1037900004122B39DF9B04122B393D9C04122B3968
:1037A000B59C04122B39F69C04122B39459D04124A
:1037B0002B39709D04122B398A9D04122B39A49D3C
:1037C00004122B39799E04122B39839E04122B3953
:1037D000BE9E04122B39CE9E04122B39D79E0412A2
:1037E0002B39289F04122B393C9F04122B395AA0E5
:1037F00004122B396DA004122B3984A004122B392A
:1038000099A004122B3933A104122B39B2A104124E
:103810002B3955A204122B3960A204122B39ADA307
:1038200004122B39C9A304122B3921A404122B39F9
:103830008FA404122B39DBA404122B39F5A4041233
:103840002B3955A504122B39F3A504122B393EA6AA
:1038500004122B39A1A804122B3939A904122B39CF
:10386000B0A904122B39F6AB04122B390EAC04129A
:103870002B3911AC04122B391DAC04122B3931AC8D
:1038800004122B3939AC04122B3970AC04122B39C9
:1038900064AD04122B39EEAD04122B3970AE041254
:1038A0002B39E5AE04122B39BDAF04122B39DFAF33
:1038B00004122B3976B004122B3982B004122B3942
:1038C000DFB004122B39E2B004122B390FB104120D
:1038D0002B3924B104122B3993B104122B39DFB2E6
:1038E00004122B39F2B304122B397DB404122B3994
:1038F00090B504122B395AB604122B398BB6041228
:103900002B39B1B604122B39BAB604122B39E9B6E9
:1039100004122B3999B704122B3949B804122B39E8
:10392000BCB804122B396EB904122B39E1B9041258
:103930002B3920BA04122B3969BA04122B399EBADA
:1039400004122B390F8E05122B397A8E05122B3962
:10395000C18E05122B39378F05122B39878F05122F
:103960002B390B9005122B394F9205122B397A9473
:1039700005122B39579805122B39D49805122B397B
:103980000F9905122B392D9905122B398D99051296
:103990002B39B59905122B39E59905122B39169A51
:1039A00005122B39439A05122B399C9A05122B3993
:1039B000E79A05122B3900F201122B397CF2011221
:1039C0002B39A2F201122B39D9F201122B3932F420
:1039D00001122B394EF401122B3993F401122B39B9
:1039E00023F501122B397BF501122B3950F6011208
:1039F0002B392EF701122B3978F701122B39D9F711
:103A000001122B395DF801122B3986F801122B397E
:103A1000C7F801122B3975FA01122B3945FB011237
:103A20002B390CFC01122B39DFFC01122B3919FD4B
:103A300001122B3971FD01122B3993FD01122B3923
:103A400027FE01122B39DAFE01122B390BF2051277
:103A50002B3970F205122B3917F305122B394FF35E
:103A600005122B39008005122B39AB8005122B393A
:103A7000488205122B39C48205122B39FC820512AB
:103A80002B39E78505122B39798705122B39E38706
:103A900005122B391B8B05122B39BC8C05122B39C7
:103AA000B5A006122B39DDA006122B39C9A10612CA
:103AB0002B398FCF05122B3912D005122B3929D073
:103AC00005122B399CD005122B3902D105122B3946
:103AD0002BD105122B39B0D105122B3952D2051238
:103AE0002B39B5D205122B391AD305122B393AD3FB
:103AF00005122B396AD305122B3986D305122B39BF
:103B0000B5D305122B39E5D305122B391BD4051279
:103B10002B397BD405122B391E9B05122B39EE9BBA
:103B200005122B39139C05122B39339C05122B39A6
:103B3000479C05122B39AF9C05122B39D39C0512DB
:103B40002B39519E05122B39779F05122B3958A01E
:103B500005122B39BCA005122B39E8A005122B3910
:103B60006CA105122B39BDA105122B39DEA105125E
:103B70002B3956A205122B397BA205122B39DEA256
:103B800005122B396EA405122B393BA505122B39D2
:103B900072A505122B3997A505122B39B7A5051269
:103BA0002B39DDA505122B39F1A505122B395AA6A3
:103BB00005122B39AEA605122B39A0FD05122B39A3
:103BC000AAFD05122B39CBFD05122B3938E9041259
:103BD0002B3952EC04122B397FED04122B395AEF9A
:103BE00004122B39E4EF04122B3998F004122B390C
:103BF000C1F004122B39F6F004122B39A4F104128F
:103C00002B3934F204122B39A7F204122B3929F381
:103C100004122B392CF304122B392FF304122B39F5
:103C200032F304122B3952F304122B3955F30412D8
:103C30002B396EF304122B39D2F304122B39C4F44E
:103C400004122B39F9F504122B3946F604122B39DC
:103C50004DF704122B391FF804122B39BDA403129F
:103C60002B390ED702122B39CCDB02122B399EDCFA
:103C700002122B3925DD02122B3956DD02122B39A7
:103C800084DD02122B39D8DD02122B3906DE021236
:103C90002B3927DF02122B3955DF02122B3983DF34
:103CA00002122B39B9DF02122B3966E002122B39CE
:103CB0008CE002122B39EBE002122B3961E2021286
:103CC0002B39FBE202122B3980A903122B39C9E4EC
:103CD00002122B3913E502122B3962E502122B393D
:103CE000CEE502122B3936E602122B3983E6021298
:103CF0002B39F3E602122B3904E802122B39F8E8CB
:103D000002122B39A9E902122B39DEE902122B39F2
:103D100033EA02122B39D5EA02122B3903EB0212D5
:103D20002B3988EC02122B390DED02122B394DED97
:103D300002122B398CED02122B39A5ED02122B3910
:103D400054EE02122B391EEF02122B39C5EF02126C
:103D50002B3959F002122B39FFF002122B3969F17D
:103D600002122B39F4F102122B3987F202122B398D
:103D7000A5F202122B3978F302122B3936F4021213
:103D80002B39ECF402122B398AF502122B3925C992
:103D900005122B3966C905122B39CFC905122B39EB
:103DA000F0C905122B3909CA05122B39C3CA0512ED
:103DB0002B39CCCA05122B391DCB05122B3946CB1A
:103DC00005122B395DCB05122B39C1CB05122B39CE
:103DD00053CC05122B3984CC05122B39E0CC0512BB
:103DE0002B3946CD05122B397ACD05122B39EDCD65
:103DF00005122B392FCE05122B396FCE05122B3918
:103E0000A7CE05122B39B9CE05122B39CBCE051210
:103E10002B39FCCE05122B393CCF05122B3965CF3F
:103E200005122B39B7DA05122B39FADB05122B39BB
:103E300020DC05122B3931DC05122B3949DE051245
:103E40002B3968DE05122B399C9406122B39D2943B
:103E500006122B391D9506122B39699606122B393D
:103E60000CD504122B394AD604122B3986D60412EB
:103E70002B394BD804122B3975D804122B39FBDAA5
:103E800004122B393BDB04122B39D0DC04122B3902
:103E900065DD04122B39C3DD04122B3954DE041204
:103EA0002B398CDE04122B39CEDE04122B3948E07C
:103EB00004122B39D1E104122B3907E404122B39F7
:103EC00035E404122B3961E404122B396AE404123C
:103ED0002B39C0E404122B3950E504122B3957E872
:103EE00004122B39DBE804122B39AEA906122B3948
:103EF000C4A906122B39CEA906122B391EAA061206
:103F00002B398FE905122B39A8E905122B394DEA17
:103F100005122B398DEA05122B39A6EA05122B3929
:103F2000DAEA05122B3927EB05122B395BEB051268
:103F30002B399DEB05122B3973ED05122B39DEED74
:103F400005122B39FAA106122B394FA206122B3972
:103F5000A8A206122B3910A906122B3952A9061253
:103F60002B3994A906122B39A4A906122B39BDC8E6
:103F700003122B3918C903122B39B8C903122B3974
:103F8000D0CA03122B39BCCB03122B3989CC0312B4
:103F90002B399ECC03122B39E8CC03122B393FCDA1
:103FA00003122B39ABCD03122B39BECD03122B39A3
:103FB00016CE03122B3985CE03122B399DCE031258
:103FC0002B3938D103122B3934D203122B398FD22B
:103FD00003122B39D5D203122B39F3D403122B3908
:103FE00043D503122B39C4D503122B3996D60312AD
:103FF0002B39CFD603122B39EED603122B3939D7F2
:1040000003122B394FD703122B3966D703122B39E2
:1040100095D703122B39A7D703122B397DD803125A
:104020002B3988D803122B390DD903122B3965D9B6
:1040300003122B39B1D903122B39E8DA03122B39C9
:1040400019DB03122B3995DD03122B39C6DD031260
:104050002B39E1DE03122B3910DF03122B3988DFF5
:1040600003122B394AE003122B397EE003122B395D
:10407000EEE003122B39CBE103122B3904E20312D9
:104080002B390EE203122B3911E203122B391BE2FA
:1040900003122B3937E203122B39B3E203122B3907
:1040A000ECE203122B3908E303122B3934E3031239
:1040B0002B396FE303122B398AE303122B3994E374
:1040C00003122B39C3E303122B39D9E303122B3923
:1040D000F5E303122B3924E403122B3944E40312D1
:1040E0002B398DE403122B39D6E403122B39E0E58A
:1040F00003122B3933A506122B3944A506122B398E
:10410000CDA506122B39CDF804122B391CF9041257
:104110002B39DAFA04122B39ADFC04122B39EBFCE3
:1041200004122B39C1FD04122B39C6FE04122B399F
:10413000E8FE04122B3944FF04122B39C5FF041288
:104140002B39D95100122B39FB5100122B394D5309
:1041500000122B39965300122B390F5400122B39B1
:104160008A5400122B39F35400122B393A5500129D
:104170002B39A85500122B394D5600122B39D35626
:1041800000122B390F5700122B39635B00122B39A9
:10419000715D00122B39A45D00122B39E35D001212
:1041A0002B39F05E00122B39D96100122B39836252
:1041B00000122B392E6400122B39616500122B3945
:1041C000776600122B39EC6600122B39B8670012A3
:1041D0002B394F6800122B395F6800122B39166992
:1041E00000122B394C6A00122B39906C00122B39BB
:1041F000336F00122B39117000122B394E710012DF
:104200002B39937400122B39A37400122B39DA75F1
:1042100000122B398D7600122B39BE7700122B3904
:104220002C7800122B39637900122B39B8790012DF
:104230002B3906BB04122B39ADBB04122B391FBC22
:1042400004122B392FBC04122B39B1BC04122B39A8
:1042500008BD04122B39FDBD04122B3924BE0412F3
:104260002B39C9BE04122B3918BF04122B3976BF63
:1042700004122B39D1BF04122B39ACC204122B39D2
:1042800065C304122B39CAC304122B395DC504124D
:104290002B39FDC504122B3996C604122B39F3C6EF
:1042A00004122B3969C704122B3965C804122B3943
:1042B00058C904122B39B1C904122B39C7C90412C9
:1042C0002B39E8C904122B3927CA04122B39B7CA73
:1042D00004122B39FACB04122B39B7CD04122B3927
:1042E00001CF04122B393BD004122B3946D10412D2
:1042F0002B39E6D104122B3955D204122B3972D343
:1043000004122B392BE703122B3996E703122B39B2
:10431000DEE703122B3945E803122B39A1E803121B
:104320002B39DCE803122B3978E903122B39D2E957
:1043300003122B393EEB03122B39B7EB03122B3947
:10434000EEEC03122B3916ED03122B39F4ED0312A8
:104350002B3905EE03122B391BEE03122B390DEF0F
:1043600003122B3930EF03122B39F8EF03122B39DC
:1043700020F003122B3937F003122B3951F00312BE
:104380002B397DF003122B399DF003122B39C3F02A
:1043900003122B39DAF003122B39AFF103122B3948
:1043A00009F203122B39E1F203122B395DF30312E8
:1043B0002B3974F303122B39EEF303122B3936F435
:1043C00003122B395CF403122B39B9F503122B3984
:1043D000BEF503122B39FBF503122B3972F60312CB
:1043E0002B39DEF603122B39D9F703122B39B3F828
:1043F00003122B39FFF803122B3917FA03122B394A
:1044000011FB03122B39B3FB03122B39FCFB0312F4
:104410002B3911FC03122B3923FD03122B39C4FD58
:1044200003122B3922FE03122B39747A00122B3916
:10443000B17A00122B394A7B00122B39557C0012BD
:104440002B399D7E00122B39197F00122B390080E9
:1044500006122B392E8106122B39F68106122B39C2
:104460004B8206122B39CE8206122B39589906122E
:104470002B392EFF01122B393FFF01122B39DFFFA1
:1044800001122B39F5FF04122B39E57F00122B396D
:1044900026A606122B3936A606122B394EA6061270
:1044A0002B3902A706122B392FA406122B39B4A4DC
:1044B00006122B391AA506122B39C3A706122B395F
:1044C000C6A706122B39FFA706122B3952A80612CF
:1044D0002B3964A806122B3967A806122B3909F666
:1044E00005122B3917F605122B3990F605122B39C8
:1044F00065F705122B3924F905122B3989F90512B4
:104500002B39ECF905122B39F87F00122B39CC9698
:1045100006122B39049706122B39559806122B399F
:10452000D99806122B39F79106122B399892061258
:104530002B39C99206122B39149306122B39D893B2
:1045400006122B390B9406122B39319406122B3993
:10455000439406122B39579406122B396594061290
:104560002B392FD505122B395BD505122B3902D8E3
:1045700005122B3957D805122B3993D805122B3930
:10458000A7D805122B39C0D805122B39B3D905127B
:104590002B398FDA05122B39A3DA05122B39E59D59
:1045A00006122B39099E06122B39229E06122B3930
:1045B000619E06122B39949E06122B39C49E061258
:1045C0002B39CE9E06122B39369F06122B39399F76
:1045D00006122B39439F06122B39509F06122B3996
:1045E000518F06122B39798F06122B39BA8F06128A
:1045F0002B39D88F06122B39F38F06122B395B908B
:1046000006122B39679006122B39C69006122B39E9
:10461000EA9006122B39AB9106122B39B89106128B
:104620002B39C99106122B39CCAA06122B39E4AAD0
:1046300006122B390AAB06122B3900E005122B3972
:1046400049E105122B394FE105122B3966E10512BC
:104650002B3987E105122B399DE105122B39B1E188
:1046600005122B3930E205122B3995E205122B3950
:104670001DE305122B3996E305122B396FE4051261
:104680002B397FE405122B398EE405122B3977A8DC
:1046900006122B399BA806122B39C3A806122B39F8
:1046A000EBA806122B39928C06122B39FE8C0612BF
:1046B0002B391D8D06122B39838D06122B39C98992
:1046C00006122B39E28906122B39F98906122B3989
:1046D000028A06122B39208A06122B392A8A0612E0
:1046E0002B39348A06122B39478A06122B39D48A81
:1046F00006122B39438B06122B39718B06122B397C
:10470000C28B06122B390E8C06122B39298C0612FD
:104710002B39338C06122B39448C06122B39878C9B
:1047200006122B3953AB06122B399EAB06122B39CE
:104730004FF602122B397BF602122B3999F6021230
:104740002B39ACF602122B39C7F602122B3926F799
:1047500002122B3954F702122B3960FB02122B394B
:10476000A2FC02122B39D4FC02122B393FFD02129B
:104770002B39C3FE02122B39EBFE02122B3900FF3C
:1047800002122B3910FF02122B3950FF02122B3963
:1047900092FF02122B39A2FF02122B39C3FE031221
:1047A0002B39D3FE03122B39F1FE03122B390CFFE8
:1047B00003122B3933FF03122B3954FF03122B3909
:1047C0006EFF03122B39A6FF03122B39C9FF031208
:1047D0002B390FA706122B3955A706122B3900FAD1
:1047E00005122B3910FA05122B392EFB05122B3925
:1047F00060FB05122B3982FB05122B39AAFB05122F
:104800002B39C3FB05122B39FFFB05122B3968FC32
:1048100005122B39A4FC05122B39EBFC05122B39A0
:1048200018FD05122B3944FD05122B39569C061232
:104830002B398D9C06122B39B59D06122B39B89D4C
:1048400006122B391CA306122B398EA306122B3904
:10485000CCA306122B390DA406122B39C5B90512AB
:104860002B39CBB905122B3912BA05122B391EBCC4
:1048700005122B394EBC05122B39B8BC05122B3949
:1048800073BD05122B39BABD05122B39EDBD0512CA
:104890002B3977BE05122B398EBE05122B399BBEE4
:1048A00005122B39A5BE05122B3945C005122B392F
:1048B00037C105122B3995C105122B3948B10512A4
:1048C0002B395EB105122B3910B205122B393AB3D0
:1048D00005122B392FB405122B39C6B405122B390A
:1048E00001B505122B3973B505122B39D1B5051257
:1048F0002B39E1B505122B3908B605122B395AB6FA
:1049000005122B39C9B705122B39CEB705122B3931
:10491000F0B705122B394CAA06122B397AAA0612C7
:104920002B39AFAA06122B39B1AA06122B39B3AA1A
:1049300006122B39C4AA06122B39C6AA06122B3925
:10494000C9AA06122B39CD9A06122B393B9B0612A7
:104950002B395D9B06122B39959B06122B39CB9B6D
:1049600006122B39A08606122B39E38606122B3944
:10497000018706122B39348906122B3968890612F1
:104980002B39938906122B399A7F00122B39CEC10D
:1049900005122B39B1C205122B3999C305122B39D7
:1049A000AAC305122B39BBC305122B3907C4051244
:1049B0002B39F6C505122B3951C705122B3981C782
:1049C00005122B394CC805122B39A9C805122B39F1
:1049D000EBED05122B3909EE05122B394DEE0512C0
:1049E0002B3973EE05122B3995EE05122B39ADEEEE
:1049F00005122B39C5EE05122B39DDEE05122B39C8
:104A000083EF05122B39C5EF05122B39CFEF0512B5
:104A10002B39E4EF05122B39EBF005122B3906F197
:104A200005122B390FF105122B3918F105122B390C
:104A300021F105122B392BF105122B39A8F10512A2
:104A40002B39BFE405122B3904E905122B3920E973
:104A500005122B3925E905122B39608306122B39F3
:104A6000768306122B39F78406122B39218506121C
:104A70002B39688506122B39718606122B395A9FFD
:104A800006122B39CDAB06122B39D2FF02122B396D
:104A9000A9A403122B3995A403122B3981A4031264
:104AA0002B39EDA303122B3907A303122B397FA255
:104AB00003122B39CCA103122B397B9F03122B3904
:104AC000509F03122B39F19E03122B39629D031262
:104AD0002B39F09C03122B39D79C03122B399A9C4B
:104AE00003122B398C9C03122B39219C03122B3976
:104AF000E69B03122B39579B03122B39099A031299
:104B00002B398F9903122B39CC9803122B39C2976A
:104B100003122B39799703122B39539703122B3930
:104B20008F9603122B39D99403122B3907A903123C
:104B30002B39DDA803122B399FA803122B394AA861
:104B400003122B3992A703122B39D6A603122B3945
:104B50003DA503122B39799403122B394A94031281
:104B60002B39479403122B39329403122B390DA59C
:104B700003122B39EF9303122B39D69303122B39DF
:104B8000DE9203122B399D9203122B39ECE30212B1
:104B90002B396A9203122B39D1A403122B39FE91BF
:104BA00003122B39CB9103122B39709103122B393D
:104BB0003F9103122B39088E03122B391A8D0312E1
:104BC0002B39D48B03122B39808B03122B39748B26
:104BD00003122B39DB8A03122B39A98903122B39D3
:104BE000FA8603122B399D8403122B395184031248
:104BF0002B39368303122B39CB8203122B39F381E5
:104C000003122B39008003122B39AF8103122B3989
:104C10006B8003122B39328003122B39D6D6020057
:104C2000000080FB8F0001001309870001001209BA
:104C3000240002008E1025000200901026000200C1
:104C400092102700020094102800010096102900FD
:104C500001009710840004009810860001009C1049
:104C60002A0001009D102B0001009E102C00010065
:104C7000A2102D000800FA082E000100A3102F003A
:104C80000100A41030000100A51031000100A610A1
:104C90003200010002093300010003093400010061
:104CA000A71036000100040938000100A8103900DF
:104CB0000100A11083000200BA10630001000F0977
:104CC000640001009F1065000100A0106D0001004C
:104CD000100971000800F20866000100B9104300D5
:104CE0000100AA1044000200AB1045000100AD1005
:104CF00046000200AE104700080007094800010006
:104D0000B0104B000100B11004000100BC10A10064
:104D10000100BE1037000100BD1088000100140919
:104D20003C00010005093D000100A91049000200F6
:104D3000B2106700010011094D000200B4104E00CE
:104D40000100B6104F000200B7103E000100060936
:104D500000000000000000013636010100010201E0
:104D6000000103010001040106060502000007011D
:104D700000340801000F090401010D0100FF0E08B5
:104D8000000017020000190100FF1A0100011B01B9
:104D900000FE1C0100081D0200001F01000120018F
:104DA0000001210200002301000F2402000026015F
:104DB000000127010008280200FF2A0100072B013B
:104DC00002402C0100002D0100012E0100012F01E5
:104DD00000FF30010B1C310800003A0100083B01C4
:104DE000000F3C0100013D0100FF3E0400004204B1
:104DF0000000460400004A0400004E040000520473
:104E00000000560400005A0400005E20FFFF360038
:104E10000100060000000F0000000000000000007C
:104E20000000000003FFFF00000403FFFF0000FF7D
:104E3000FF0FF4010005C4040320000100000B0073
:104E40000000000000000003010F0000000000004F
:104E50000000000000000000000000000000000052
:104E60000000000000000000000000000000000042
:104E70000000000000000000000000000000000032
:104E800000000000000000000000000001037103AA
:104E900001030103010301030103220302030103D0
:104EA00010030003000300030003000300030003DA
:104EB0004203000324030603000300030403120358
:104EC0002503230325032303040304030003000332
:104ED00000034403000300032303000365032100D0
:104EE00035038103000305030003000300030003EF
:104EF00025032303030071003001600011007000DE
:104F000031022003500480001000610000001400F2
:104F1000630073007200620043000000130006008B
:104F2000000000000400120000000000000000006B
:104F300004000400370037003C0244000000000079
:104F40000000000065000000350081000000050041
:104F50000000830000000101710101010101110144
:104F600001013101010101018001100161013B00DA
:104F70001400630173017201620143010001130116
:104F800006013D013500040112010001000100018C
:104F9000000104010401330133013C0144013201E9
:104FA00036000001000165010001350081010001AA
:104FB00005018201830100010302710230016002D8
:104FC000110270020102020202028002100261025A
:104FD0003A0041006302730272026202430200025D
:104FE0001302380000020002040212020002000252
:104FF0000002000204020402370037003C024402AF
:10500000000239000002000265020002350281023E
:1050100000020502820283020002030471040204FA
:105020006004110470040204020401040204100468
:1050300061040004140463047304720462044304EE
:105040000004130406040004000404041204000411
:10505000000400040004510464000004000400047F
:105060004404000400040004000465040004350442
:1050700081046400050400048304000400007142FC
:105080001300E141010071420200634103006941E4
:1050900004006F4105007541060081413000A541C3
:1050A00031009F413200B1413300B7413500BD416D
:1050B0003400C3413600C9411100D5411400DB4121
:1050C000150093411F009941FFFF000001A5320622
:1050D000DB3208D5320BF332100F320A053302AB44
:1050E0003205C93207B1320C8D320D99326411305C
:1050F000FF000007ECFDFDFDECDCDCCCBCACAC9CA7
:105100009C8C7C7C6C6C5C5C5C4C4C3C3C2C2C1C0F
:105110001C03EAF5E5D5D5C5B5A5959585857575C5
:105120006565555545453535252515150500160F79
:1051300000000B150B020002220F3300000E0103CA
:105140000507090B0D0F00020406080A0C0D5A6929
:1051500067426565416C6C69616E636530393030FA
:1051600017181921301B1D1F303030161819202335
:105170001A1C1E3000034A49434E181A2505020026
:10518000011916181616182303000C0E020B040B37
:105190000A0708000F00393D3F373C3C362C442DB0
:1051A000020402010101010902E803000000BE043B
:1051B0000A7F003C00000000000E00E8033C0010E5
:1051C0000C0A0C03150900040009FF1E1E0305014B
:1051D0000C0504040810080328C082C08390081C32
:1051E000E4F0A3F07CD57D047A8D7B07124853123E
:1051F0003017124C0112301D026FB474F312258364
:1052000074F5122C1889098A088B0AE9705F7402F8
:105210006508703E9007AC7408F0750C00780C12AD
:105220002B5AECF50C780C122B5AEBF50C780C126F
:105230002B5A90109812298D90109CE0F97C077DD4
:10524000099010BA126FC51230417407122B8402F4
:10525000530D7401650860030253109007AC740885
:10526000F07B00AA0AA90A12308302530D7401656B
:10527000096009740265096003025310EA6006744C
:1052800003650870409007AC7402125331122DFE72
:1052900012302F9007B4E0A2E34010E9700D90089F
:1052A00020E004F06404700312533B74036508703B
:1052B0005C900821E0F8740128F0E8C39405404DA3
:1052C00012533B804874016508704574016509906C
:1052D00007AC702E740AF07401122E2DE4F07402E3
:1052E000122E2D7403F004122E2DE4F0A3F0A3F07F
:1052F000A3F07408122E2DE4F0AA18AB191232B7DD
:105300008025740A125331122DFE123065E96017A0
:105310009080F812298D7A017B009007A9E0F9129C
:105320003F177404122B84740B122B847F05022800
:1053300009F090109CE0F990109822901098E4F0F9
:10534000A374F8F0A374FFF0A37407F02274F612AC
:105350002583E9FFEAFE7AD1F9123DCD8A828B835B
:10536000E5824583702A7A027B00123DAFEA4B70DA
:105370000E7A107B009007A9E0F9123DF180148AA3
:10538000828B8374D1F0EFA3F0EEF9123DBB800362
:10539000EFA3F00255A374F712258389089007063E
:1053A000127681FF90108AE0F47003A3E0F4703667
:1053B00090071DE090108AF0A3E4F080298E828F80
:1053C00083A3A3127A6F60168E828F83A3A3A3E0B8
:1053D000F5838882A3127A6FFAA90812414B8E8254
:1053E0008F83127997FFEE4F70D390108AE0F4709C
:1053F00003A3E0F4600A90108AE0FAA90812414B76
:105400001233BF900777125B141233B90277B97465
:10541000F1122583890A8C08750900750B00740F39
:10542000122E2D12626D7411122E2D125B3B8049CB
:10543000AE0E1254DBF50CA3E0F50DAE0BEE2EFE16
:10544000E433FFEA2EF582EB126826650C7004A3A4
:10545000E0650D7019AE09EE2EFEE433FFEC2EF57B
:1054600082ED3FF583E50CF0A3E50DF00509050E8F
:10547000E50EC3950840B9050BE50BC3950A500529
:10548000750E0080EBA909026ED174F41225838990
:105490000B7D00740C122E2D12626D80010DEDC378
:1054A000950B5032750A008002050AE50AC39C502C
:1054B000ECED25E0FEE433FFEA2EF582EB3F1254DB
:1054C000EBF509AE0A1254DB65087004A3E0650928
:1054D00070D7790180027900026C78EE2EFEE433F9
:1054E000FFE82EF582E93FF583E022F583E0F50839
:1054F000A3E02274F612258312558E7003A3E06D8B
:1055000070177508B27509077808122B56EEFA1253
:1055100042777402122B84801F7508027509807807
:1055200008122B568C088D097808122B56125581BB
:1055300012429B7404122B84806974F61225831224
:10554000558E7003A3E06D70177508BF7509077855
:1055500008122B56EEFA12427D7402122B84801F21
:105560007508037509807808122B568C088D097808
:1055700008122B5612558112429B7404122B848000
:1055800022125EDCF583E0FD7C801268FA2212684C
:105590002F1279A9FCE439FD900777E06C227402A0
:1055A000122B847F0202280974F612258374FE12DE
:1055B0002C18EAFEEBFF851882851983E4F0A3120C
:1055C0005D6B126846E0FCA3E0FBECFA88828983FD
:1055D000A3A3E0F9750900750800600574FF697000
:1055E00005750882803D900777E06A7003A3E06B41
:1055F000701AAA18AB19123983E9F5098518828542
:105600001983126C83701C7508838017900912E04F
:105610006004640170057508818008E0640270030D
:10562000750880851882851983125B3BA908EEFAFC
:10563000EFFB124283E509601185188285198312F8
:105640006C836006126FBF123E5702559E74F212B1
:105650002583EAFEEBFF750A00750B001256BF1298
:1056600033BFEA65087003EB65097012123995E9DA
:1056700014F50A79017AE87B0712399B8003750BD0
:1056800080126820F50C780C122B5A750CE8750DF9
:1056900007780C122B56780A122B5A7808122B56C0
:1056A000E50BF5087808122B5A1266E1126823F907
:1056B0007A057B801242897407122B8402642912B6
:1056C00078E2126271888289831279A8F508E43938
:1056D000F5092274F6122583E9FE7F0080298A826B
:1056E0008B831254EDF8E4C8F9E50828E439F5098C
:1056F000EF25E0F8E433F9EC28F582ED125EE5EAF7
:105700002402FA50010B0FEFC39E40D20255A3743E
:10571000E812258374FB122C188A168B17851882C1
:10572000851983E4F07403122E2DE4F0A3F0041223
:105730002E2DE4F0A3F012625E3517125D3DF50BDD
:10574000850A82F5831279A4FEE439FF850A8285F1
:105750000B83A3A3E0FA850A82850B83A3A3A3E0AE
:10576000F9EAF508E439F509E50A2404F50A5002D6
:10577000050BEEFAEFFB12345BE964016016EEFAFA
:10578000EFFB12345BE9703D900777E06E7003A386
:10579000E06F6031126A3D122B5AE4F508F5097882
:1057A00008122B567808122B5A90077712299575F4
:1057B00008807808122B5A125B1A12428974071259
:1057C0002B84025B0A125B418810602B1275BE129B
:1057D0003E517403122E2D125B147403122E2D12DF
:1057E0006C8360137403122E2D125B33A9101241C7
:1057F0007B8A0A8B0B8003751000125B41880F6057
:10580000271275BE123E517401122E2D125B1474B4
:1058100001122E2D126C83600F7401122E2D125B5B
:1058200033A90F12417B8003750F00900706805D3E
:10583000850A82850B83A3A3A3A3A3A3A3A3E4F058
:10584000A3F0AA0AAB0B851482851583A3A3125B70
:1058500051127A6FF9123DBB851282851383E0C025
:10586000E0851882851983E0F874E828F582E4342D
:1058700007F583D0E0126C8704F0E511A2E0500731
:10588000AA12AB13123E57851482851583E0F514D6
:10589000A3E0F515E51445157003025A77851482C7
:1058A000851583A3A3127A6F60DD85148285158325
:1058B000A3A3A3A3A3A3A3A3E0A2E050CA85148239
:1058C000851583A3A3A3A3126C83851482851583F6
:1058D000A3A3601F127A6FFA79018514828515835C
:1058E000A3A3A3A3126EFA1227698A128B13751150
:1058F00001800F125B51A3A3E0F512A3E0F513752D
:105900001100E5124513700302587A85128285133F
:1059100083A3E065087004A3E06509600F74FF6568
:1059200008700474FF6509600302587A8512828545
:105930001383A3A3A3A3A3A3A312299585128285EE
:105940001383A3A3A3A3A3A3E0FC7405122E2D121B
:105950006FC5A91012415D7402122B84E9703C8559
:105960001282851383A3A3A3A3A3A3A3A3A3A31218
:105970002995851282851383A3A3A3A3A3A3A3A31D
:10598000A3E0FC7403122E2D126FC5A90F12415D06
:105990007402122B84E9700302587AE50F2510C3B4
:1059A00033240AFA7B00123DAF8A0A8B0BEA450BBF
:1059B00070030258588A828B8374D2F085168285D0
:1059C0001783A3A312626D8A828B83A3A3E8F0A33B
:1059D000E912789FA3E5101279B0E50FF0E51060A9
:1059E0003CEA2405FAE4350BFBE50A240AF8E43521
:1059F0000BF98A828B831262777403122E2D125B4D
:105A000056122B52AC10EC2CFCE433FD8A828B83B3
:105A1000126FC5123D8B7403122B84800D8A828B0A
:105A200083A3A3A3A3A3E4F0A3F0E50F700302589C
:105A300030A810E828F8E433F9E50A28F8E50B392E
:105A4000F9E8240AFAE439FB850A82850B83A3A3CB
:105A5000A3A3A3A3A3A3125B147401122E2D125BA4
:105A600056122B52AC0FEC2CFCE433FD123D8B7420
:105A700003122B84025842851882851983E060271F
:105A8000126A3D122B5A7508E87509077808122B1F
:105A9000567403122E2D126A46122B5A9007771253
:105AA00029957508008029EEFAEFFB12345BE97046
:105AB0002F126A3D122B5A7508E8750907780812EB
:105AC0002B567508007808122B5A900777122995E3
