:020000040000FA
:10000000021F4E022003FFFFFFFFFF02200BFFFF36
:10001000FFFFFF022013FFFFFFFFFF02201BFFFF78
:10002000FFFFFF022023FFFFFFFFFF02202BFFFF48
:10003000FFFFFF022033FFFFFFFFFF02203BFFFF18
:10004000FFFFFF022043FFFFFFFFFF02204BFFFFE8
:10005000FFFFFF022053FFFFFFFFFF02205BFFFFB8
:10006000FFFFFF022063FFFFFFFFFF02206BFFFF88
:10007000FFFFFF022073FFFFFFFFFF02207BFFFF58
:10008000FFFFFF022083FFFFFFFFFF02208BFFFF28
:10009000FFFF70DFFFFF040000000002000000C847
:1000A000030002030369A5020269A532730000017F
:1000B00000000000000400FFFFFFFFFFFFFFFF0440
:1000C00003090424035400650078006100730020D4
:1000D0000049006E0073007400720075006D0065C9
:1000E000006E007400730024035400490020004394
:1000F000004300320035003300310020005500532A
:10010000004200200043004400430000035F005F02
:100110000030005800000000000000000000000057
:1001200000000000000000000000000000000000CF
:100130000000000000303132333435363738394171
:1001400042434445463C1C911C911C911C911C99B6
:100150001C74F8121BD6900391E060159003027492
:10016000FEF0900304744DF0A37405F07A011207B9
:100170000C7F01021D7B74F8121BD674FF121EC582
:100180007E00801F851882851983E064FE700690CA
:1001900003877401F0851882851983E0F890038441
:1001A000E068F07901AA18AB191210DFE9700302B8
:1001B000027E851882851983E064EF70027E07E075
:1001C000C0E0900387E0F8900385E0FAE82AF8E4BD
:1001D000340012075BD0E0F0900387E060A6146063
:1001E0000E14602A14603A14605014606680A69061
:1001F0000384E4F0851882851983E0900386F0C3B8
:1002000094809003874003E4808A74028086851876
:1002100082851983E0900382F090038774030201C2
:1002200094851882851983E0900383F0900386E01B
:1002300060199003877404020194900385E004F030
:10024000F8900386E06860030201959003877405C7
:10025000020194900385E4F0900387F0900384E01A
:10026000F8851882851983E0686003020195900380
:1002700082E0644D60030201951203B68002EEF93C
:100280007401121E4602017174F7121BD674FB1220
:100290001EC5EAFEEBFF7508047509007808121EFA
:1002A000DF7402121F467A907B0079041218F274F0
:1002B00002121E461206FE121F97E0687003A3E0AA
:1002C000697012851882851983E0F47003A3E0F445
:1002D00060030203917404121F3E1207678A088BA1
:1002E00009A808A9097402121F97E8F0A3E9F0749D
:1002F00004121F97E0600879011201510203AA85D8
:100300001882851983E0687003A3E0697076851808
:1003100082851983E0F47003A3E0F470197402126B
:100320001F977410F0A37420F085188285198374C8
:1003300010F0A37420F07508017509007808121EEA
:10034000DF7402121F467A247B0812197774021296
:100350001E467508047808121EDF7402121F467AC2
:10036000907B0079041218F27402121E461206FEE7
:10037000121F97E0687003A3E06970047902800699
:100380007904800279031201518E828F83741E805A
:10039000058E828F83E4F01206FE121F97E06870CC
:1003A00003A3E06970047901800279007405121ECC
:1003B000467F02021D7B74ED121BD674F8121EC517
:1003C000900307E0FA900306E0FB8B08EAF8E4C824
:1003D000F9EB28FEE93408FF751001880C750D064D
:1003E0008F0974027808121F2BC39508F8E4950949
:1003F000F9740228F50E740339F50F8E088F09740D
:10040000097808121F5DE508F511EE2410F508E4DF
:100410003FF509EEF50AEF5401F50B900383E01464
:1004200060541470030204EB147003020566146038
:100430001024FE70030206211470030206D1020686
:10044000E1750D03794E1213B29003071206F4748E
:1004500002F0A374401206F274081206F2F0A3F040
:10046000751012AA10A90C12070CA90D7408121EFF
:10047000467F0C021D7B750D04794E1213B2EE45BA
:100480000B7005A9111219DDC3EE9425EF940850E5
:100490003CC3E5089424E50994084031E50E249610
:1004A000F8E50F3420F988828983E0701BA3AA82C3
:1004B000AB83E070139003887401F08882898374A1
:1004C000A5F08A828B838004900388E4F07508107D
:1004D0007509007808121EDF7C087D03EEFAEFFB39
:1004E0001219777402121E46020463750D05E51198
:1004F000C394794006750C010204637512407513AC
:10050000007812121EDF7C097D037402780A121F24
:100510002BAA0AAB0BA9111218F27402121E4690F4
:100520000307E0A3F0900306E0A3F0751043C3EEC9
:100530009425EF94084003020463C3E5089424E57E
:100540000994085003020463900388E070030204D6
:1005500063E50E2497F8E50F3420F988828983E457
:10056000F0A3F00204637508047509007808121EF0
:10057000DF7402121F467A907B0079041218F2741D
:1005800002121E467402121F97E0F8A3E0F98518C4
:1005900082851983E0687003A3E069851882851954
:1005A00083700BE0F47003A3E0F470578009E0F46B
:1005B0007003A3E0F4700D8518828519837410F020
:1005C000A37420F01206FE121F97E8F0A3E9F0755D
:1005D00008017808121EDF7402121F467A247B0875
:1005E0001219777402121E467508047808121EDF6D
:1005F0007402121F467A907B0079041218F274027A
:10060000121E461206FE121F97E0687003A3E069EF
:100610007006750D01020463750D02750C07020466
:10062000639003D6E0600764026003020463EAFF9C
:100630007A01790012070CE060030206C5800312FC
:10064000117B121162E970F77404121F971206E60B
:100650007404121F977808121F7B85080C85090DFA
:10066000850A0E850B0F9003C2780C121F057404C7
:10067000121F97780C121F6CE5084509450A450BB7
:1006800070CE8EC2E5C554E04FF5C57404121F97B5
:100690001206E67404121F977808121F7B85080C57
:1006A00085090D850A0E850B0F9003C2780C121F69
:1006B000057404121F97780C121F6CE50845094554
:1006C0000A450B70CE7A01790012070C79080204F2
:1006D0006CEB900391F07003020463750D09020442
:1006E00063790602046CE4F0A37426F0A3E4F0A39B
:1006F000F022F0A3E4F0A3F0A3F0A3F0A322851866
:1007000082851983E0F8A3E0F974022274F6121BC3
:10071000D6EAFE900305E0D2E7F0E9A3F0EE9003FD
:1007200003F08E0A74042AFE7A028004E0620A0A48
:10073000EAF83395E012075B8E08C3E89508E99460
:1007400000A2D265D03340E4E50AF0740128F97ABA
:10075000027B0312111D7F03021D7BF9740228F531
:1007600082740339F5832274E9121BD675820075F1
:1007700083FE121E288A168B177514007515008AC1
:10078000828B83E4F09003D6E07006D2AAD2AF80C9
:1007900004640270057900120151750C00750D207A
:1007A000750E00750F009003D6E0600464027015AA
:1007B00012117B120176E9F874096860030208A33C
:1007C0007900120151E064027007A292400302080E
:1007D0007E7508007509027808121EDF7402121F68
:1007E00046850C08850D09AA08E5095407FB850E06
:1007F0000A850F0B740B7808121E96A9081218F2BE
:100800007402121E467E007F009003CAC0828E10C2
:10081000EFF5113395E0F512F513850C08850D09F8
:10082000850E0A850F0B78087910121F189003C6E1
:100830007808121F05758303D0827808121E0950AC
:100840001D851882851983E5822EF582E5833FF5A3
:1008500083E0F9AA14AB151208D28A148B150EEE98
:1008600070010FC3EF940240A09003CE780C121FCA
:10087000059003D2780C121E0940030207A67900E6
:10088000AA14AB151208D279001208D28B15900366
:10089000D6E07004C2AFC2AAEA451570277AA57BDC
:1008A000A58021E870030207C5740668700302077B
:1008B000C574076870030207C5851682851783749F
:1008C00001F080BA758200758302121E287F100223
:1008D0001D7BC008C0097C088A088B09740F780842
:1008E000121F5DEA25E0FAEB33FBE9A2E75004743E
:1008F000014AFAE508A2E0500874216AFA74106B04
:10090000FBE9C333F91CEC70CFD009D0082274F78F
:10091000121BD6120F2860030209E9A3E0F8A3E036
:1009200060030209E9A3E064027002A3E06003022D
:1009300009E99003B8E02480600914604F14605CFA
:100940000209E9E860030209E99003B2E060047873
:1009500001800278009003C0E8F0A3E4F09003B1B6
:10096000E0600A9003C0E04402F0A3E4F09003A624
:10097000E0640460149003B374C0F0A37403F0A3A4
:10098000E4F0A37402120F8AF002100A90039FE0B1
:10099000640470559003C0E4F0A380D0E8547FF560
:1009A0000890039FE064047040E508C39406503942
:1009B000749F2508F582E43403F583E854806018B9
:1009C000A3A3A3A3A3A3A3E06403700478018002FC
:1009D00078009003C0E88091E582240CF5825002F3
:1009E0000583E0640370E980E39003A674048098B3
:1009F00074F7121BD6E9FE9003BE120F2B600302A0
:100A00000AD190039FE06404600B9003BC120F2B8B
:100A10006003020AD19003B8E0541F6009146030EB
:100A2000146020020AD19003BAE064017022EE90B3
:100A300003B1F060047905800279067A00121BD4B4
:100A4000020AD79003BCE0547FFA9003BAE0600535
:100A50007900020AD9EAC394065076EA90620EF051
:100A6000749F2AF8E43403F99003BCE05480602CAE
:100A7000EE6004741080027440906211F0EE600425
:100A800074038001E488828983A3A3A3A3A3A3A3FF
:100A9000F0EE6004790880307907802CEE600474F1
:100AA0002080027480906214F0EE60047403800170
:100AB000E4C0E0E8240CF582E439F583D0E0F0EE00
:100AC0006004790A80027909121BD490620EE480D6
:100AD000059003A67404F0790102100A7900120946
:100AE000F0E97003121BC32279011209F0E97003C7
:100AF000121BD222C082C0839003BC120F2B701530
:100B0000A3120F2B700F9003BA120CD05480FAE985
:100B1000FBEA4B60079003A67404801AE890620019
:100B2000F090039F6009E06402700C74038007E09A
:100B3000640370037402F0D083D0822274F3121B1A
:100B4000D69003BAE0FAA3E01460081460101460B1
:100B500039805712175F120CADA37B80804179005A
:100B6000121781120CAD7B80E92402F9E43AFA12E3
:100B70001E7CFC1919E0FAA3E92403F9E43AFA12FD
:100B80001E7CF9ECA3F0A3E9801CEAF91217EF90A0
:100B900003B3EAF0A3EBF0A3E4120CBCA37B0012B6
:100BA0001E7CA3F0A3E4F0020C679003B3E4F0A36F
:100BB000F0A3F0F50B90047DE0FAA3E0FB020C42F9
:100BC00075090074037808121F2BEA2508F8EB3525
:100BD00009F99003BA120CC6E493C0E0EFFCD0E030
:100BE0006C705DA3E4936E70579003BC120CC6A3A7
:100BF000A3E493C0E0EFFCD0E06C7044888289836A
:100C0000A3A3A3E4936E703888828983A3A3A3A3CC
:100C1000E493F508740193F5099003B3E508F0A394
:100C2000E509F0A37480F088828983A3A3A3A3A31A
:100C3000A3E493F8740193F99003B6E8F0A3E9F004
:100C4000050B850B0890047F120CD0C39AF50CE9B4
:100C50009BF50D7403780C121F5DC3E508950CE439
:100C6000950D5003020BC09003B3E0FCA3E0FDA37D
:100C7000E0FEEC4D4E9003A6700474048029E064FD
:100C80000460259003BEE0FAA3E0FB9003B6E0F811
:100C9000A3E0F9C3EA98EB9950089003B6EAF0A3F1
:100CA000EBF09003A67401F07F06021D7B9003B366
:100CB000EAF0A3EBF0A37480120CBC22F09003B313
:100CC000E0F9A3E0FA22E0FEA3E0FF888289832214
:100CD000E0F8A3E0F9E82274EE121BD6EA2404F847
:100CE000E43BF9880889098882F583E493602590BC
:100CF0000481120CD0FEE9FF8007EE2404FE5001AF
:100D00000F8E828F83E493F8740193F9EA6870027E
:100D1000EB6970E6750C00803F9062147490F0747B
:100D200010120E2A7003750D408E828F83A3A3A329
:100D3000E49355106006E50DD2E0F50DE50D9062E7
:100D400015F0EA906213F0EC240CF582E43DF58393
:100D5000E4F090620EF0050C850882850983E49327
:100D6000F8E50CC3984003020E257A0079051216A7
:100D7000F28A0E8B0FEA450F60DCEA2402F8E435B4
:100D80000FF9880A890B8882F583E493540FF512D2
:100D900090620EF0750D008A828B83A3A3A3A3E457
:100DA000932407F510A3E4933400F511740378102D
:100DB000121F5DAA10851210749F2510F8E43403E9
:100DC000F9E8FCE9FD751001751100E512781012C3
:100DD0001F2BE50E2403F8E4350FF9850A82850BF5
:100DE00083E493A2E74003020D199062117448F066
:100DF0007408120E2A7003750D408E828F83A3A390
:100E0000E49355106006E50DD2E0F50DE50D906216
:100E100012F0EA906210F08C828D83A3A3A3A3A3A7
:100E2000A3A3020D507F0B021D7BF088828983E40F
:100E3000935403640122C082C083120F287010A350
:100E4000120F2B700AA3E064017002A3E060079008
:100E500003A67404800C9003B374A0F0A37403126F
:100E60000F80F0020B3774F4121BD690039FE064DE
:100E70000260149003BC120F2B700CA3120F2B7086
:100E8000069003BBE060099003A67404F0020F23F0
:100E90007A007901121BD49003BAE060717A00F9EC
:100EA0001217818A088B09EA4509605A90039F74DA
:100EB00004F09003BAE09003A0F0750C008508825E
:100EC000850983A3A3A3A3E493F8E50CC398504C2E
:100ED000850C0A74A1250AF8E43403F9E8FEE9FF59
:100EE0008E828F83E4F07A0079041216F28A828B64
:100EF00083A3A3A3E493F88E828F83E06870E71244
:100F00000CD7050C80B79003A67404F0800E9003F4
:100F1000A0F090039F7403F0F91216587A0079023A
:100F2000121BD47F05021D7B9003BAE0F8A3E0F901
:100F3000E8492274F6121BD690039FE064047019EE
:100F40009003B8E064817011120F28700C9003BEFA
:100F5000E064017002A3E060079003A67404801AA5
:100F60009003BCE024A1F508A3E03403F509900345
:100F7000B3E508F0A3E509120F80F07F03021D7BA3
:100F8000F0A3E4F0A304120F8A22F0A3E4F090038C
:100F9000A6042274F7121BD690039FE064047064C9
:100FA0009003B8E06401705C9003BE120F2B705484
:100FB0009003BAE0FB9003BCE0FA9003A0E0F912C2
:100FC00017B98A088B09AE08AF09EE4F6036900357
:100FD000BCE0FA7903121BD49003BAE0C0E090039E
:100FE000BCE024A1F8A3E03403F988828983D0E02F
:100FF000F0EEFAEFFB120CD79003BCE0FA79041282
:101000001BD480069003A67404F07F02021D7BC0EF
:1010100082C0838003121A39A2E840F9A823E85459
:101020000460097823E654FBF6121402A823E8545E
:101030001060097823E654EFF6121420A823E8A2E2
:10104000E05005782354FCF690620EE0FA7404F048
:10105000906214E0A2E0503AE5A8F8C2AF906216A0
:10106000E0F9A3E0E9FBE8A2E792AF8017906228DD
:10107000E0C0E0900393E0F8121112D0E0F090038A
:1010800093E004F0EBFC74FF2C1B0470E0906214FE
:10109000E4F0EA90620EF0E0FD7404F0906211E07A
:1010A000A2E04031900395E0F8900394E068602559
:1010B0007A40900394121155E0906228F0900394C6
:1010C000E004F008900395E06860041AEA70E39089
:1010D00062117401F0ED90620EF0D083D082227420
:1010E000F8121BD6E9FE79008012121112E08A82F2
:1010F0008B83F0900392E00412114A09900392E06E
:10110000F8900393E0686005E9C39E40DD7F01022B
:101110001D7B748528F582E43404F58322C082C0E7
:1011200083E9FC80188A828B83E0C0E090039512EB
:101130001155D0E012114A900395E004F0ECF874D8
:10114000FF281C0470DF79018090F08A828B83A3D2
:10115000AA82AB8322E0F8748528F582E43405F591
:101160008322C082C083900395E0F8900394E068E6
:1011700060047901800279000210DA02100F74FB1A
:10118000121EC57E009006857808121F7B794A12D0
:1011900013B29006857401F0A3F0A37469F0A374F0
:1011A000A5F09003D77808121EF070030E801590FA
:1011B00003DB7808121EF06008E59D541864107077
:1011C00003022000EEF9121329C280D291EEA2E0B0
:1011D00050030212DCAA18AB19120288E97003024C
:1011E00012DCC291851882851983E0C3943C500EAD
:1011F000E0F8743CC398F50895E0F5098006750899
:1012000000750900E4F50AF50B9003DF780C121F56
:101210007B7808790C121ADA790612015112100F34
:10122000120176E9F8740968700779061201518095
:10123000277407686016A2935012E8600874066865
:1012400060030212DCA292400F0212DC75080075E6
:101250000900750A00750B0085080C85090D850AC3
:101260000E850B0F9003C27808121F05E50C450D83
:10127000450E450F70A7D2807907120151800312E5
:10128000100F121162E970F77E007F007401121FC7
:1012900097E4F0A37426F0A3E4F0A3F07401121F06
:1012A000977808121F7B85080C85090D850A0E8525
:1012B0000B0F9003C2780C121F057401121F977850
:1012C0000C121F6CE5084509450A450B70CEA29229
:1012D00050FCA29350F81213AD022000D280D2919C
:1012E000794E1213B2750800750900750A00750B66
:1012F00000790512015112100F120176E9F87409F4
:101300006860EE74016870EE12100F9003E37808C5
:10131000121F059003E77808121E0950EB1213AD57
:101320000220007405121E462274F8121BD6E9FE34
:1013300053BEFBE59DA2E650FA0078F8790100E87B
:1013400024FF18E934FFF9E84970F375C68074800A
:10135000659E70FA43BE049062707408F01213A286
:10136000EE700853F4FEC29043FE017403F5D57588
:10137000D489900396E4F0A374C2F0A37401F0A39F
:10138000E4F0A3F0A3F0A37408F01213C87AFF7B73
:10139000FF1219F453F4FED29043FE011213A2027D
:1013A000110DD28043FD01C29143FE0222D280C2C0
:1013B0009122781075B60FE5B4A2E750FAE5BBC3E9
:1013C0009940F118E870ED22C082C0837A0079015B
:1013D0001217818A828B83A3A3A3A3A3A3A3E4935D
:1013E000A2E69003B2500474018001E4F09003B1CE
:1013F000E4F090620F7403F0E0A2E750FBD083D0DA
:101400008222C082C08390039F7402F0A3E4F09014
:1014100003A6F0790312165875210075220080DDAD
:1014200074F6121BD690620EE0FEE4F0906211E0BA
:10143000FFA2E4501D7480F09003A67407F0E5212C
:1014400045226009852182852283121FA69003A66A
:10145000E4F0EFA2E2500B906211E4F09003A6F0EA
:1014600080669003A6E0F87402687045906216E00A
:10147000FF9003B3121DBBEFF97A207B6212168C2A
:101480007403121E468F089003B612163C121634CF
:101490002F121647E0F8A3E0F9E849600474408091
:1014A000027448906211F0E849600302162A02169D
:1014B000067406687009852182852283121FA69012
:1014C00003A6E060030215B1EFA2E0400302162A72
:1014D0007508B8750903750A007808121EDB7908CB
:1014E0007A207B6212168C7403121E4675210075D9
:1014F00022009003B8E054E0601D24E07003021560
:101500008D24E0607224C0604824E07003021598C6
:1015100024E0606E0215A3A3E014602624FE601D83
:1015200024FE600A24FC601F24FE60208075120ADD
:10153000F49003A6E06404707274608070120AE88C
:1015400080EF120ADC80EA120E6680E5120F9380AB
:10155000E0A3E0600E24FA600F24FE601024FE6019
:1015600011804012090E80C9120B3C80C4120E3645
:1015700080BF120F3380BA7521BF75221B121BBFAB
:1015800080AF7521C175221B121BC180A475215A21
:1015900075221B121B5A809975218A75221B121BFA
:1015A0008A808E9003A67404F0808E74409062113D
:1015B000F09003A6E0F874016870617F029003B6B2
:1015C000E0F8A3E0F9C3E89420E994005007E8F5B7
:1015D0000A7F0A8003750A209003B3121DBBA90A73
:1015E0007A207B621216B77403121E46850A08120F
:1015F0001634250812164712163CEF906211F0E5DA
:101600000AC394205024E521452260098521828562
:101610002283121FA69003A6E4F0800E7405687062
:1016200009852182852283121FA6EE90620EF07F2B
:1016300003021D7B9003B31216E4E922C3E0950870
:10164000F0A3E09400F022F9E43AFA9003B3E9F051
:10165000A3EAF0A3EBF0A32274F7121BD678007470
:10166000A728F582E43403F583E9F008E8C394057C
:1016700040ED780074AC28F582E43403F583E9F09A
:1016800008E8C3940540ED7F02021D7B74F8121B2D
:10169000D6EAFCEBFDE9F87408121F971216DF601A
:1016A000118C828D83E0121EAFE9240109E43AFA1D
:1016B000D8EF7F01021D7B74F8121BD6EAFCEBFD0C
:1016C000E9F87408121F971216DF6011121E7C8C45
:1016D000828D83F0E9240109E43AFAD8EF80D3122D
:1016E00016E4E822E0F9A3E0FAA3E0FB22D083D0DD
:1016F0008222C082C083E9FCEAFD7A007B0080037D
:1017000012173D90039DE0F8A3E0F990047BE06898
:101710007003A3E069602490039EE0F5838882A3B0
:10172000E493F8EC68700D90039DE0FAA3E0FB12DF
:10173000173D8007ED6870C8ED60C580B090039DCF
:10174000E0F8A3E0F5838882E493F890039DE02815
:10175000F8A3E03400F990039DE8F0A3E9F022C07B
:1017600082C0831217707A0079011216F20216ED08
:10177000900479E0F8A3E0F990039DE8F0A3E9F084
:101780002274F7121BD6E9FEEAFF1217707A00796D
:10179000021216F2EA4B601CEE60108A828B83A361
:1017A000A3A3A3A3E4936E70E48009EFF874FF2869
:1017B0001F0470D97F02021D7B74F5121BD6EAFF4D
:1017C0008B087A001217817A0279041216F2EA4B1A
:1017D00060188A828B83A3A3E4936F70EA8A828B5A
:1017E00083A3A3A3E493650870DD7F04021D7B74CB
:1017F000F7121BD674F0121EC5E97A007B00600C4C
:101800001460101460141460180218DB7AF37B0360
:101810000218DB7AF77B030218DB7A1B7B040218C1
:10182000DB90043FE060030218D79003EB740812CA
:101830001F467408121DE8750808F5097808121E7D
:10184000DF7402121F467AE87B07797F1218F27460
:1018500002121E467808121EDF740A121F46740216
:10186000121F3E121C997402121E468B09EA45098A
:1018700070197509007808121EDF7C0C7D787402DF
:10188000121F3E121D357402121E467C287D0085F3
:101890001882851983E5822DF582E43583F583E08E
:1018A000FF743F2CF8E43404F9EF1218E3888289BE
:1018B00083F0EFC41218E3C0E0E824FEF582E934B7
:1018C000FFF583D0E0F00D74FC2CFCEDC3940840D0
:1018D000BE90043F742AF07A3F7B047410121E46B7
:1018E0000217B4540FFA74692AF582E43404F583BC
:1018F000E02274F5121BD68908740F5508F50A7595
:101900000B00740B780A121F2BEA2400F8EB3480CA
:10191000F9E82400E9350BF9E5C7F509A2AFE4338E
:10192000F50AC2AFE508C4540FFAE5C754F84AF502
:10193000C7740B121F97E0FAA3E0FB801C88828912
:1019400083E08C828D83F088828983A3A882A98317
:101950008C828D83A3AC82AD83EAFEEBFFEE24FF85
:101960001AEF34FFFBEE4F70D48509C7E50AA2E0F9
:1019700092AF7F04021D7B74F7121BD6ED90038992
:10198000F0ECA3F0A37462F0A37473F0A3E0541F0F
:10199000F07409121F97E0F508A3E0F509E5083394
:1019A0003354FC90038EF074067808121F5DE5082E
:1019B00090038DF090038F7412F0A37442F075D1F0
:1019C000FE75D601EA906271F0EBA3F0906270E0D0
:1019D000D2E1F0E0A2E740FB7F02021D7BC082C0A3
:1019E00083E9C333906272F0906270E0D2E0F0D08D
:1019F00083D0822274F7121BD675230075240075DC
:101A000025008A268B27EA90620BF08A088B0974DE
:101A1000047808121F5DE508906207F08A088B09B8
:101A200074097808121F5DE508543E906209F0754C
:101A30008B00C2E87F02021D7B74F7121BD6E59D66
:101A4000A2E650FA906206E0FAA2E25035A826E833
:101A500090620BF0F50885270974047808121F5D61
:101A6000E508906207F0852608852709740978083B
:101A7000121F5DE508543E906209F0906201E0D2C9
:101A8000E0F07823EA46F6906202E0F50875090076
:101A900074047808121F2B7823E50846F608E50938
:101AA00046F6906204E0F50875090074097808129A
:101AB0001F2B7824E50946F6EAA2E05003752501BC
:101AC00074065A6003752500E58BA2E55006758BF8
:101AD000DF752500121BD5021A2F080808EAC0E09E
:101AE000EBC0E086F0E7A4FA180986F0E7A42AFA2A
:101AF000180986F0E7A42AFA180986F0E7A42AFA5A
:101B00001986F0E7A4FBE5F02AFA190886F0E7A4A5
:101B10002BFBE5F03AFA190886F0E7A42BFBE5F079
:101B20003AFA18180986F0E7A4C5F02BFBE43AFA54
:101B30001908E7C5F0C6A426F6E5F03BFBE43AFA3F
:101B40001886F0E7A4F6E5F00826F6E43B08F6E48C
:101B50003A08F6D0E0FBD0E0FA22C082C0839003BE
:101B6000B9E0F874226870089003A6E0701A80113A
:101B70007420689003A6700DE0700D121BB19003E5
:101B8000A6740280027404F08043C082C083900374
:101B9000B9E064219003A67013E07013121BB1A387
:101BA0007407F0A3E4F09003A60480027404F080AC
:101BB0001C9003B37496F0A37403F0A3E4F02280A6
:101BC000028000C082C0839003A67404F0D083D04A
:101BD000822280EF22222518C582C0E0E51934FF59
:101BE000C583C0E0E518C3958224F910AF0885834A
:101BF000198582188008858319858218D2AFCEF0A6
:101C0000A3E520F0A37808E608F0A3DEFAEFF0A33E
:101C1000E58124FBF8E608F0A3E608F0A30808E64F
:101C200008F0A3E608F0A315811581D0E0FED0E00E
:101C3000F815811581E8C0E0EEC0E0221201000233
:101C4000020000205104A816090001020301090244
:101C50004300020100801909040000010202010092
:101C600005240010010424020205240600010524B5
:101C70000100010705820340004009040100020A37
:101C80000000000705840240000007050402400030
:101C900000571C00007A1C000074F5121BD6740B50
:101CA000121F97E0F8A3E08015A3AA82AB838C8271
:101CB0008D83A3AC82AD83E824FF18E934FFF9E8F3
:101CC00049601F8C828D83E0F5088A828B83E0F562
:101CD0000AE508650A60D2E50AC39508FA95E0FBB3
:101CE00080047A007B007F04021D7BE47921780761
:101CF000B800028004F709D8FCE490030278C179A7
:101D0000018002F0A3D8FCD9FA7AC27B0390008E3E
:101D100078C479018015E493A3AD82AE838A828B67
:101D200083F0A3AA82AB838D828E83D8E9D9E71290
:101D3000117E121FA174F7121BD6EAF8EBF9740991
:101D4000121F97E0FEA3E0FF80188C828D83E0884D
:101D5000828983F0A3A882A9838C828D83A3AC821D
:101D6000AD838E088F09E50824FF1EE50934FFFFC7
:101D7000E508450970D47F02021D7B85198385180B
:101D800082E0A3FEE0A3F5207808E0A3F608DFFADE
:101D9000E0A3FFE0A3C0E0E0A3C0E0E0A3C0E0E078
:101DA000A3C0E010AF08858218858319800885825A
:101DB00018858319D2AFD083D0822274038000CCDF
:101DC000C0E0EDC0E0E518C39CCCAD1950011D107A
:101DD000AF068C188D1980068C188D19D2AF121D84
:101DE000E8D0E0FDD0E0FC22CAC0E0E0A3C582CC90
:101DF000C582C583CDC583F0A3C582CCC582C5830A
:101E0000CDC583DAE6D0E0CA22C008C3E096F50863
:101E100008A3E096420808A3E096420808A3E096CB
:101E200045087001D3D00822C5822518C582C58314
:101E3000351910AF07F5198582188007F5198582C5
:101E400018D2AFC5832200C0D0251810AF08F518EE
:101E5000500C05198008F51850020519D2AFD0D0E2
:101E6000222518F58210AF08F518400C15198008C6
:101E7000F51840021519D2AF85198322BB0102E77C
:101E800022C082C08389828A83BB0003E08002E48F
:101E900093D083D082226016080808C6C313C618E0
:101EA000C613C618C613C618C613C6D5E0EA22BBA9
:101EB000000EC082C0838A838982F0D083D08222C0
:101EC000BB0101F722251810AF08F518400C1519B1
:101ED0008008F51840021519D2AF227403800474EB
:101EE000028000C0E0F404121E61D0E0121F8A22BA
:101EF000E066701008A3E066700A08A3E06670044C
:101F000008A3E06622E026F608A3E036F608A3E080
:101F100036F608A3E036F622E627F60809E637F695
:101F20000809E637F60809E637F622700422600D44
:101F300018C6C333C608C633C6D5E0F41822251820
:101F4000FAE43519FB222518FCE43519FD2275D079
:101F50000075813F751802751903021CEB600C08AF
:101F6000C6C313C618C613C6D5E0F422E6F008A30C
:101F7000E6F008A3E6F008A3E6F022E0F608A3E006
:101F8000F608A3E0F608A3E0F622CAC0E0E6F0A354
:101F900008DAFAD0E0FA222518F582E43519F5833B
:101FA0002200000080FBE473FFFFFFFFFFFFFFFF45
:101FB000FFFFFFFFFFFFFFFFFFFFFFFFFFFFFFFF31
:101FC000FFFFFFFFFFFFFFFFFFFFFFFFFFFFFFFF21
:101FD000FFFFFFFFFFFFFFFFFFFFFFFFFFFFFFFF11
:101FE000FFFFFFFFFFFFFFFFFFFFFFFFFFFFFFFF01
:0A1FF600850609433886000000004C
:020000040003F7
:01FFF000F020
:020000040000FA
:10200000022DA8022221FFFFFFFFFFFFFFFFFFFFBE
:10201000FFFFFFFFFFFFFFFFFFFFFFFFFFFFFFFFD0
:10202000FFFFFFFFFFFFFFFFFFFFFF022A6CFFFF25
:10203000FFFFFF022244FFFFFFFFFFFFFFFFFFFF45
:10204000FFFFFFFFFFFFFFFFFFFFFFFFFFFFFFFFA0
:10205000FFFFFF02215DFFFFFFFFFFFFFFFFFFFF0D
:10206000FFFFFFFFFFFFFFFFFFFFFF022A44FFFF0D
:10207000FFFFFFFFFFFFFFFFFFFFFF022895FFFFAE
:10208000FFFFFF0221BD01FFFFFFFFFFFFFFFFFF7B
:102090001020102001FF01010503010F10FEFFA217
:1020A0004F000000003A4F00000000FF000000FF5A
:1020B00000010000873B00000000D93AD13C213BE1
:1020C0003B3C00000F3B000000000000000000004F
:1020D0000000000000000000000000000000FF0100
:1020E0000100AA07000000E803FFFF250803E8033A
:1020F00064006400B8010202000800000502070441
:1021000001051E02051E020A0A0103B80B02803EE9
:102110000102FEFFE8030A050001FFFF0A01E000DB
:1021200020FD000206FFFF00035F005F0030005843
:10213000000000000000000000000000000000009F
:10214000000000000000000000000000000000008F
:1021500000B5260A270A270A270A271227C0E07493
:10216000F2122656A2AFE433FED2AFE5A7FFE5A1F7
:10217000F5085F5410600612467975A1EFE5085F17
:102180005408600812467F75A1F78024E508A2E094
:1021900092F0EFA2E082F05017906198E0F8900A78
:1021A00009E0C398A2D265D0335002E8F075A1FED1
:1021B000751A00EEA2E092AF7F01022712C0E07410
:1021C000F2122656A2AFE433FED2AF9061A4E0F83B
:1021D000759B00E59158540860087591F71246C741
:1021E0008023E59158541060087591EF1246CD8018
:1021F00014E591A2E092F0E8A2E082F05007E0C27C
:10220000E0F01248239061A3E0F8E5E95854046037
:102210000E1247F975E9FB906193E0A2E640F28067
:102220008FC0E074F2122656A2AFE433FED2AF9014
:1022300061A5E0F8E5BF585404600675BFFB12487D
:102240003B0221B0C0E074F1122656E59DA2E65093
:10225000FA906206E0FAA2E25035A82CE890620BF0
:10226000F0F508852D0974047808122DB8E508905A
:102270006207F0852C08852D0974097808122DB89D
:10228000E508543E906209F0906201E0D2E0F078F7
:1022900029EA46F6906202E0F508750900740478B0
:1022A00008122D447829E50846F608E50946F69017
:1022B0006204E0F50875090074097808122D447865
:1022C0002AE50946F6EAA2E05003752B0174065A86
:1022D0006003752B00E58BA2E55006758BDF752B2F
:1022E000001249EB758B00C2E87F02022712C3E49B
:1022F00098F8E499F912232F8026C3E49AFAE49B14
:10230000FBE920E7E912232FE498F8E499F922C3C6
:10231000E498F8E499F912232FE498F8E499F9C3C2
:10232000E49AFAE49BFB22EB20E7CFE920E7E0B94F
:102330000010BB0008E88AF084F8AAF022E4FBC889
:10234000FA22EB70227B10C833C8C933C933500757
:10235000C39AC3DBF280069A50012ADBEAC833F441
:10236000C8C933F4C9FA2275F008E4C833C8C933C0
:10237000C933C99AC99B5004C92AC93BD5F0ECFBA3
:10238000C833F4C8E4C9FA2274F51225F074FA12BD
:102390002C187508047509007808122B567404125D
:1023A0002BFA7AF87B0779031245537402122B84B7
:1023B0009080FC7808122DD67402122E2D78081207
:1023C0002C4470497508027509007808122B567460
:1023D00002122BFA7AF67B07790312455374021224
:1023E0002B84851882851983E0F47003A3E0F460E0
:1023F0001C851882851983E0F8A3E0F98882898317
:102400007402F0A3F0A37469F0A374A5F0C2AF75D1
:10241000D69F0200007406122B847F040228D8087D
:102420000808EAC0E0EBC0E086F0E7A4FA180986E5
:10243000F0E7A42AFA180986F0E7A42AFA18098610
:10244000F0E7A42AFA1986F0E7A4FBE5F02AFA19C6
:102450000886F0E7A42BFBE5F03AFA190886F0E7C6
:10246000A42BFBE5F03AFA18180986F0E7A4C5F0AA
:102470002BFBE43AFA1908E7C5F0C6A426F6E5F006
:102480003BFBE43AFA1886F0E7A4F6E5F00826F6F6
:10249000E43B08F6E43A08F6D0E0FBD0E0FA22127A
:1024A0002E22B900030224FFE47921780DB800023E
:1024B0008004F709D8FCE49004D178ED790C80020F
:1024C000F0A3D8FCD9FA781A9020867A01BA0002D3
:1024D0008007E493A3F608DAF97ABD7B1090209484
:1024E00078CA79018015E493A3AD82AE838A828B8A
:1024F00083F0A3AA82AB838D828E83D8E9D9E77556
:10250000820D7583B27406122B307582CD75834CA3
:102510007400122B30E4CFC0E0E4CEC0E0E4CDC0C4
:10252000E0E4CCC0E075F020E626F608E633F608D5
:10253000E633F608E633F6181818EC33FCED33FDF5
:10254000EE33FEEF33FFC3EC9709ED9709EE9709E1
:10255000EF97191919400FFFEC97FC09ED97FD094A
:10256000EE97FE191906D5F0BFECF709EDF709EE65
:10257000F709EFF7191919D0E0FCD0E0FDD0E0FE23
:10258000D0E0FF222518C582C0E0E51934FFC583DD
:10259000C0E0E518C3958224F810AF08858319853B
:1025A00082188008858319858218D2AFCEF0A3E502
:1025B00020F0A37808E608F0A3DEFAEFF0A3E581A7
:1025C00024FAF8E608F0A3E608F0A3E608F0A3086A
:1025D00008E608F0A3E608F0A315811581D0E0FE17
:1025E000D0E0F8158115811581E8C0E0EEC0E02249
:1025F0002518C582C0E0E51934FFC583C0E0E518A1
:10260000C3958224F910AF08858319858218800844
:10261000858319858218D2AFCEF0A3E520F0A37888
:1026200008E608F0A3DEFAEFF0A3E58124FBF8E664
:1026300008F0A3E608F0A30808E608F0A3E608F00F
:10264000A315811581D0E0FED0E0F815811581E851
:10265000C0E0EEC0E022C0D02518C582C0E0E51978
:1026600034FFC583C0E0E518C3958224F310AF089A
:102670008583198582188008858319858218D2AFD1
:10268000C8F0A3E9F0A3EAF0A3EBF0A37908E70907
:10269000F0A3D8FAECF0A3EDF0A3EEF0A3EFF0A3D3
:1026A000D0E0F0A3D0E0F0A3D0E0F0A3E520F0A3C9
:1026B000E5F0F0A32212010002020000205104A85C
:1026C00016090001020301090243000201008019FA
:1026D0000904000001020201000524001001042485
:1026E00002020524060001052401000107058203FA
:1026F00040004009040100020A00000007058402AE
:1027000040000007050402400000D0260000F32628
:102710000000851983851882E0C0E0A3E0F9A3E0FA
:10272000FAA3E0FBA37808E0F608A3DFFAE0FCA335
:10273000E0FDA3E0FEA3E0FFA3E0C0E0A3E0C0E073
:10274000A3E0F5D0A3E0F520A3E0A3F5F010AF08D7
:102750008583198582188008858319858218D2AFF0
:10276000D082D083D0E0F8D0E032E47375F0108EE0
:10277000218F22858226858325851882851983E00D
:10278000CEA3E0CF852682852583EBC9EAC8EDCBB1
:10279000ECCAC3E833C8E933C9EA33CAEB33CBC365
:1027A000EA9EF524EB9FF523B35004AB23AA24EC57
:1027B00033CCED33CDD5F0DAAE21AF2222D083D0A9
:1027C00082ECC0E0EDC0E0E493A3FCE493A3FDED54
:1027D0004C600D122918EC24FFFCED34FFFD80EF56
:1027E000E493A3FCE493A3FDED4C600D1229EFEC00
:1027F00024FFFCED34FFFD80EFD0E0FDD0E0FCE4F1
:1028000093A3C0E0E493C0E022851983851882E099
:10281000A3FEE0A3F5207808E0A3F608DFFAE0A322
:10282000FFE0A3C0E0E0A3C0E0E0A3C0E0E0A3C0FD
:10283000E0E0A3C0E010AF08858218858319800806
:10284000858218858319D2AFD083D082022B36D0EF
:1028500083D082E9C0E0E493A3C386F0C5F095F08D
:10286000F908E493A386F0C5F095F0700BE493A308
:10287000C3994005E9048002A3E475F002A425820F
:10288000F582E5F03583F583D0E0F9E493A3C0E069
:10289000E493C0E022C0E074F2122656A2AFE43303
:1028A000FED2AFE58AA2E250079009CAE0D2E0F07A
:1028B000E58AA2E350079009CAE0D2E1F0758A00E8
:1028C000C2EB7A107B009009C6E0F9123E63EEA2DB
:1028D000E092AF7F01022712851983851882E0A359
:1028E000FEE0A3F5207808E0A3F608DFFAE0A3FFF6
:1028F000E0A3C0E0E0A3C0E0E0A3C0E0E0A3C0E04C
:1029000010AF088582188583198008858218858311
:1029100019D2AFD083D08222C0E0C3E4939608746A
:1029200001939618400FE49366700808740193664B
:102930001870007019A3A3C3E493960874019396CA
:1029400018A3A3400DD0E0D0E0D0E00227F9A3A364
:10295000A3A3A3A3D0E022D083D082C5F0E493A3A5
:10296000C5F0C395F0F5F0E493A3C395F04005E5F9
:10297000F0048001E475F002A42582F582E5F035CB
:1029800083F583E493A3C0E0E493C0E02274048061
:10299000087403800474028000CCC0E0EDC0E0E560
:1029A00018C39CCCAD1950011D10AF068C188D19A1
:1029B00080068C188D19D2AF122AB2D0E0FDD0E07B
:1029C000FC2274028000CCC0E0EDC0E0E518C39C9E
:1029D000CCAD1950011D10AF068C188D1980068CD6
:1029E000188D19D2AF122A90D0E0FDD0E0FC22C0A1
:1029F000E0C0F088F0E493667008087401936618EC
:102A00007000A8F0A3A3700BD0F0D0E0D0E0D0E02D
:102A10000227F9A3A3D0F0D0E022D083D082CCC08B
:102A2000E0E493A36006122AD31470FAE493A3603F
:102A300006122C021470FAD0E0FCE493A3C0E0E488
:102A400093C0E022C0E074F2122656758900C2C518
:102A50009010B5E0700E7A007B1090071EE0F9121E
:102A60003E638003124B2F7F01022712C0E0C0D0CB
:102A7000E8C0E0E9C0E0E5A8D2AFC2C7751A00A27D
:102A8000E7A2E792AFD0E0F9D0E0F8D0D0D0E032C2
:102A9000CAC0E0E493A3C582CCC582C583CDC583FB
:102AA000F0A3C582CCC582C583CDC583DAE5D0E06D
:102AB000CA22CAC0E0E0A3C582CCC582C583CDC509
:102AC00083F0A3C582CCC582C583CDC583DAE6D0A9
:102AD000E0CA22C0E0E493A3D39C5010E493A3C3C4
:102AE0009C400AD0E0D0E0D0E0022A37A3A3A3D0D4
:102AF000E0227009080808226016181818C6C333A7
:102B0000C608C633C608C633C608C633C6D5E0EA0B
:102B100022C008C3E096F50808A3E096420808A37F
:102B2000E096420808A3E09645087001D3D0082239
:102B3000C09FF59FE473D09F22D083D082C09FE4D2
:102B400093C0E0740193C0E0740293F59F22740473
:102B5000800A74038006740280027401C0E0F404E9
:102B6000122B69D0E0122DE5222518F58210AF084E
:102B7000F518400C15198008F51840021519D2AF48
:102B80008519832200C0D0251810AF08F518500C05
:102B900005198008F51850020519D2AFD0D022BB14
:102BA0000102E722C082C08389828A83BB0003E0DE
:102BB0008002E493D083D082226016080808C6C33E
:102BC00013C618C613C618C613C618C613C6D5E052
:102BD000EA22C3E0C696F608A3E0C696F608A3E08C
:102BE000C696F608A3E0C696F6222518F8E435192D
:102BF000F9222518FAE43519FB222518FCE43519C9
:102C0000FD22C0E0E493A36C7009D0E0D0E0D0E0F6
:102C1000022A37A3A3D0E022251810AF08F51840E8
:102C20000C15198008F51840021519D2AF22BB0007
:102C30000EC082C0838A838982F0D083D08222BB77
:102C40000101F722E066701008A3E066700A08A38D
:102C5000E066700408A3E06622C3E09608A3E0964D
:102C600008A3E09608A3E096A2D265D03322E766D7
:102C700070100809E766700A0809E7667004080919
:102C8000E76622C3E096F008A3E096F008A3E0967A
:102C9000F008A3E096F022C3E4939608740193969B
:102CA0000874029396087403939622C3E697F60875
:102CB00009E697F60809E697F60809E697F622E08E
:102CC00026F608A3E036F608A3E036F608A3E036B9
:102CD000F622E657F60809E657F60809E657F60819
:102CE00009E657F622E056F608A3E056F608A3E0F8
:102CF00056F608A3E056F622E056F008A3E056F098
:102D000008A3E056F008A3E056F022E627F60809EB
:102D1000E637F60809E637F60809E637F622E02630
:102D2000F008A3E036F008A3E036F008A3E036F0A0
:102D300022E647F60809E647F60809E647F60809D5
:102D4000E647F622700422600D18C6C333C608C6D3
:102D500033C6D5E0F41822E4C396F608E496F608E4
:102D6000E496F608E496F622C6F4C608C6F4C60849
:102D7000C6F4C608C6F4C622600D08C6A2E713C68C
:102D800018C613C6D5E0F322C3E7960809E79608EC
:102D900009E7960809E79622C3E09608A3E096089B
:102DA000A3E09608A3E0962275D00075813F7518C0
:102DB000D17519040002249F600C08C6C313C618FD
:102DC000C613C6D5E0F422E6F008A3E6F008A3E6B1
:102DD000F008A3E6F022E0F608A3E0F608A3E0F688
:102DE00008A3E0F622CAC0E0E6F0A308DAFAD0E0D1
:102DF000FA22EAF0A3EBF0A3ECF0A3EDF022E0FA64
:102E0000A3E0FBA3E0FCA3E0FD22E0F8A3E0F9A32C
:102E1000E0FAA3E0FB22E8F0A3E9F0A3EAF0A3EBD9
:102E2000F022E5C754F84401F5C77901222518F5C9
:102E300082E43519F58322122B39DCAC02122B39CE
:102E40000CAD02122B39A5AE02122B3961AF021262
:102E50002B3919B002122B396EB002122B39D1B0B6
:102E600002122B390FB102122B3939B102122B3950
:102E7000C5B102122B391EB202122B397FB20212D7
:102E80002B39BEB402122B3992B602122B3971B70C
:102E900002122B39AAB802122B395DBB02122B3950
:102EA00070BE02122B397FBE02122B390BBF0212E9
:102EB0002B39C1BF02122B3908C002122B3951C065
:102EC00002122B398DC002122B3903C102122B3989
:102ED0006FC102122B398BC102122B39BCC10212F5
:102EE0002B39FBC102122B39FCC202122B39ABC3A6
:102EF00002122B393CC602122B3995C702122B390C
:102F000028C802122B39B2C802122B39D6C80212B5
:102F10002B3987C902122B3938CA02122B39B5CB8B
:102F200002122B3940CC02122B397FCC02122B39E2
:102F3000F5CC02122B394ACE02122B39EDCE0212F9
:102F40002B3921CF02122B3939CF02122B39DCCF8A
:102F500002122B3966D202122B3907D402122B39F6
:102F600025D402122B3943D402122B3913D5021265
:102F70002B3968D802122B39008003122B395A8062
:102F800003122B39C48003122B394D8103122B39C4
:102F9000098203122B39518203122B398C820312BE
:102FA0002B39E28203122B394A8303122B39CE8349
:102FB00003122B39E78303122B390C8403122B39AC
:102FC0002B8403122B39698403122B39B884031222
:102FD0002B39E18403122B39308503122B39DC8520
:102FE00003122B39A48603122B39098703122B39BC
:102FF000D68703122B391C8803122B393888031209
:103000002B396A8803122B39128A03122B39E98A69
:1030100003122B39158B03122B394B8B03122B39CF
:103020006C8B03122B397B8B03122B39868B03128B
:103030002B393A8C03122B39AD8C03122B391F8D8F
:1030400003122B39278D03122B39A28D03122B3932
:10305000FB8D03122B393E8E03122B39D0900312B5
:103060002B39169203122B39A69403122B398E9505
:1030700003122B39C19503122B39839603122B3976
:10308000329703122B397A9703122B39DC970312EC
:103090002B39019803122B39129803122B398A9875
:1030A00003122B39129903122B39769903122B39FB
:1030B0005B9A03122B39809A03122B39A19B0312BE
:1030C0002B39BF9B03122B39D29B03122B39459C02
:1030D00003122B39549C03122B39DC9C03122B391D
:1030E000249D03122B39319D03122B393A9D031273
:1030F0002B393A9F03122B398EA003122B399EA035
:1031000003122B39BAA103122B3933A203122B3924
:1031100069A303122B39ABA303122B39E7A30312C4
:103120002B39BBA503122B3920A803122B3934A845
:1031300003122B393EA803122B3948A803122B394E
:1031400052A803122B395CA803122B3975A803125D
:103150002B397FA803122B3989A803122B3993A886
:1031600003122B39C2A803122B39EAA803122B39F8
:10317000F5A803122B393FA903122B3949A90312D1
:103180002B3954A903122B3978A903122B399CA986
:1031900003122B39FDA903122B3948AA03122B392C
:1031A00064AA03122B39CEAA03122B391AAB0312CD
:1031B0002B3962AB03122B39DDAB03122B3977AC01
:1031C00003122B393BAE03122B39A9AE03122B3954
:1031D000DBAF03122B3901B003122B3971B103128B
:1031E0002B3925B503122B3925B703122B39FDB81E
:1031F00003122B3996B903122B39A8BB03122B39B2
:103200006ABC03122B39B6BC03122B391CBD031246
:103210002B392EBD03122B397EBF03122B396DC003
:1032200003122B39ACC103122B39FEC103122B3907
:10323000A3C203122B395EC403122B398FC50312AC
:103240002B39ADC503122B3902C603122B3900C727
:1032500003122B3928C703122B398BC703122B39C2
:103260008CC803122B39FFC803122B392DCA031245
:103270002B3998CA03122B3988CB03122B39EECD88
:1032800003122B391CCE03122B3917CF03122B3903
:10329000B5D003122B3905D103122B39BDD103123E
:1032A0002B3972D203122B39D6D203122B398FD37A
:1032B00003122B392FD403122B3993D403122B3939
:1032C000DDD403122B391AD503122B3982D60312FF
:1032D0002B39798101122B39BB8101122B39B6842C
:1032E00001122B39098501122B394F8501122B3917
:1032F000908601122B39F58601122B393587011280
:103300002B39788801122B39BA8B01122B39E38CB7
:1033100001122B39249801122B39C49801122B3930
:10332000B79B01122B39EE9C01122B39649D0112BF
:103330002B398E9E01122B39DE9F01122B39C5A02D
:1033400001122B392EA301122B393CA501122B3966
:10335000CDA501122B39A1A601122B392DA70112DF
:103360002B3937A701122B395FA701122B390CA873
:1033700001122B39F7A801122B39CAA901122B39D6
:1033800057AA01122B396DAA01122B39D1AA0112A9
:103390002B39FAAA01122B3927AB01122B396CAD4C
:1033A00001122B3947AE01122B398BAE01122B398A
:1033B000FCAE01122B39B5AF01122B39E7AF011268
:1033C0002B392EB001122B3961B001122B39C6B046
:1033D00001122B3915B101122B391AB101122B39F7
:1033E0006EB101122B39B8B101122B39B4B20112EE
:1033F0002B3919B301122B3977B301122B39C1B60E
:1034000001122B3995B701122B3922B901122B3930
:10341000FCBB01122B39AFBC01122B39D6BE0112F5
:103420002B397BBF01122B39B9BF01122B3989C14E
:1034300001122B399CC101122B39A5C101122B3964
:10344000AEC101122B39C3C101122B39E2C10112E5
:103450002B3917C401122B396AC401122B3974C4D9
:1034600001122B397EC401122B39D9C401122B3918
:1034700035C501122B394DC601122B39AEC60112CA
:103480002B39FDC701122B3946C801122B391EC931
:1034900001122B3949CA01122B39FFCA01122B39EB
:1034A00001CC01122B3903CD01122B39E8CD0112C9
:1034B0002B39FFCD01122B393CCE01122B3946CED0
:1034C00001122B3950CE01122B395BCE01122B3950
:1034D00079CE01122B39BBCE01122B3919CF011233
:1034E0002B393ECF01122B3958CF01122B39E5CFA2
:1034F00001122B391ED001122B396ED101122B393A
:10350000C5D101122B39DFD201122B3915D301128B
:103510002B39B1D301122B392DD401122B399DD562
:1035200001122B39B8D601122B397ED701122B3953
:1035300028D801122B39ADD801122B3915D9011217
:103540002B39CAD901122B391CDA01122B3991DA25
:1035500001122B395ADB01122B397DDB01122B3979
:1035600041DC01122B3965DC01122B3987DC011299
:103570002B39E8DC01122B3933DF01122B390EE035
:1035800001122B39B8E001122B39F9E201122B3963
:1035900047E301122B398AE301122B39E2E30112CE
:1035A0002B3940E401122B396AE401122B398EE4E5
:1035B00001122B39BFE401122B39E9E401122B3936
:1035C00030E501122B398EE501122B39EAE50112A3
:1035D0002B39EBE601122B3955E801122B3993E810
:1035E00001122B39BCE801122B394DE901122B399C
:1035F00097E901122B39BBE901122B3911EA0112AB
:103600002B392CEA01122B39E7EA01122B3911EB85
:1036100001122B3954EB01122B39AAEB01122B3971
:10362000AFEE01122B39E2EE01122B399FEF01129E
:103630002B397AF001122B390AF101122B394BF197
:1036400001122B39DFBE05122B3917BF05122B399A
:1036500038BF05122B397ABF05122B39DEBF051290
:103660002B39E8BF05122B39F8BF05122B392FC0B3
:1036700005122B39D8C305122B39A0C505122B39D9
:1036800094C705122B3932C805122B39B9C8051257
:103690002B394D8004122B39F68004122B39D58139
:1036A00004122B39F08204122B39108304122B39A7
:1036B000328404122B39CF8504122B393C86041234
:1036C0002B39128704122B39188804122B397D8864
:1036D00004122B39B98804122B39128904122B39A0
:1036E0004B8904122B39948904122B39268A04122F
:1036F0002B39C38A04122B39988B04122B39658C11
:1037000004122B39F28C04122B39188D04122B3928
:10371000458D04122B39768D04122B394B8E0412F1
:103720002B395B8E04122B39AE8E04122B39BB8ED3
:1037300004122B39C88E04122B39D18E04122B3966
:10374000358F04122B39938F04122B39DE8F04121C
:103750002B39F98F04122B39209004122B393D900C
:1037600004122B39499004122B39ED9104122B3994
:10377000069204122B39829204122B39959204126C
:103780002B39A59204122B394B9304122B39BB947D
:1037900004122B39CE9504122B396E9604122B3954
:1037A000789604122B39E69604122B39F7960412F8
:1037B0002B39369704122B39649704122B39319820
:1037C00004122B39889804122B39CD9804122B3906
:1037D000239904122B39419904122B398F99041221
:1037E0002B395D9A04122B39AB9A04122B39ED9ABE
:1037F00004122B39709B04122B399A9B04122B391B
:10380000D09B04122B39DF9B04122B393D9C0412F0
:103810002B39B59C04122B39F69C04122B39459D8B
:1038200004122B39709D04122B398A9D04122B39F6
:10383000A49D04122B39799E04122B39839E041205
:103840002B39BE9E04122B39CE9E04122B39D79EE3
:1038500004122B39289F04122B393C9F04122B3958
:103860005AA004122B396DA004122B3984A0041223
:103870002B3999A004122B3933A104122B39B2A190
:1038800004122B3955A204122B3960A204122B39D1
:10389000ADA304122B39C9A304122B3921A404129D
:1038A0002B398FA404122B39DBA404122B39F5A475
:1038B00004122B3955A504122B39F3A504122B3908
:1038C0003EA604122B39A1A804122B3939A90412DF
:1038D0002B39B0A904122B39F6AB04122B390EACDC
:1038E00004122B3911AC04122B391DAC04122B39E4
:1038F00031AC04122B3939AC04122B3970AC0412E0
:103900002B3964AD04122B39EEAD04122B3970AE95
:1039100004122B39E5AE04122B39BDAF04122B393A
:10392000DFAF04122B3976B004122B3982B00412A7
:103930002B39DFB004122B39E2B004122B390FB14E
:1039400004122B3924B104122B3993B104122B39F0
:10395000DFB204122B39F2B304122B397DB40412F6
:103960002B3990B504122B395AB604122B398BB669
:1039700004122B39B1B604122B39BAB604122B3902
:10398000E9B604122B3999B704122B3949B804123D
:103990002B39BCB804122B396EB904122B39E1B99A
:1039A00004122B3920BA04122B3969BA04122B39AC
:1039B0009EBA04122B39D0B105122B393BB2051235
:1039C0002B3982B205122B39F8B205122B3948B3C4
:1039D00005122B39CCB305122B3910B605122B3931
:1039E0003BB805122B3918BC05122B3995BC0512B2
:1039F0002B39D0BC05122B39EEBC05122B394EBD2C
:103A000005122B3976BD05122B39A6BD05122B39AF
:103A1000D7BD05122B3904BE05122B395DBE051228
:103A20002B39A8BE05122B390CF201122B3988F262
:103A300001122B39AEF201122B39E5F201122B39AA
:103A40003EF401122B395AF401122B399FF4011262
:103A50002B392FF501122B3987F501122B395CF622
:103A600001122B393AF701122B3984F701122B3945
:103A7000E5F701122B3969F801122B3992F801127E
:103A80002B39D3F801122B3981FA01122B3951FB52
:103A900001122B3918FC01122B39EBFC01122B39C6
:103AA00025FD01122B397DFD01122B399FFD0112DD
:103AB0002B3933FE01122B39E6FE01122B397F8D93
:103AC00006122B39E48D06122B398B8E06122B39F8
:103AD000C38E06122B39C1A305122B396CA4051213
:103AE0002B3909A605122B3985A605122B39BDA63F
:103AF00005122B39A8A905122B393AAB05122B391F
:103B0000A4AB05122B39DCAE05122B397DB00512A2
:103B10002B39E6B906122B390EBA06122B39FABA2E
:103B200006122B396AE805122B39EDE805122B39FC
:103B300004E905122B3977E905122B39DDE9051265
:103B40002B3906EA05122B398BEA05122B392DEB9E
:103B500005122B3990EB05122B39F5EB05122B3999
:103B600015EC05122B3945EC05122B3961EC0512C9
:103B70002B3990EC05122B39C0EC05122B39F6ECE1
:103B800005122B3956ED05122B399BF304122B39F4
:103B90006BF404122B3990F404122B39B0F4041294
:103BA0002B39C4F404122B392CF504122B3950F59F
:103BB00004122B39CEF604122B39F4F704122B39E8
:103BC000D5F804122B3939F904122B3965F904128E
:103BD0002B39E9F904122B393AFA04122B395BFA22
:103BE00004122B39D3FA04122B39F8FA04122B39A8
:103BF0005BFB04122B39EBFC04122B39B8FD0412C9
:103C00002B39EFFD04122B3914FE04122B3934FE2C
:103C100004122B395AFE04122B396EFE04122B3972
:103C2000D7FE04122B392BFF04122B39B0AD06122C
:103C30002B39BAAD06122B39DBAD06122B392C9479
:103C400005122B39469705122B39739805122B391B
:103C50004E9A05122B39D89A05122B398C9B0512D6
:103C60002B39B59B05122B39EA9B05122B39989CF1
:103C700005122B39289D05122B399B9D05122B39D6
:103C80001D9E05122B39209E05122B39239E0512ED
:103C90002B39269E05122B39469E05122B39499E3B
:103CA00005122B39629E05122B39C69E05122B393F
:103CB000B89F05122B391DA702122B393AA1051204
:103CC0002B3941A205122B3913A305122B39F5D636
:103CD00003122B392DD703122B39EBDB03122B39AF
:103CE000BDDC03122B3944DD03122B3975DD0312C1
:103CF0002B39A3DD03122B39F7DD03122B3925DE17
:103D000003122B3946DF03122B3974DF03122B39D0
:103D1000A2DF03122B39D8DF03122B39A0AC021219
:103D20002B39ABE003122B390AE103122B3980E265
:103D300003122B391AE303122B390BE403122B392C
:103D4000E8E403122B3932E503122B3981E5031223
:103D50002B39EDE503122B3955E603122B39A2E678
:103D600003122B3912E703122B3923E803122B39E4
:103D700017E903122B39C8E903122B39FDE90312A5
:103D80002B3952EA03122B39F4EA03122B3922EBB6
:103D900003122B39A7EC03122B392CED03122B390C
:103DA0006CED03122B39ABED03122B39C4ED03126A
:103DB0002B3973EE03122B393DEF03122B39E4EF4D
:103DC00003122B3978F003122B391EF103122B3911
:103DD00088F103122B3913F203122B39A6F20312C6
:103DE0002B39C4F203122B3997F303122B3955F4F4
:103DF00003122B390BF503122B39A9F503122B39BA
:103E000073F902122B39B4F902122B391DFA02127E
:103E10002B393EFA02122B3957FA02122B3911FBB9
:103E200002122B391AFB02122B396BFB02122B39AF
:103E300094FB02122B39ABFB02122B390FFC02123E
:103E40002B39A1FC02122B39D2FC02122B392EFD88
:103E500002122B3994FD02122B39C8FD02122B39A4
:103E60003BFE02122B397DFE02122B39BDFE0212DF
:103E70002B39F5FE02122B3907FF02122B3919FFDD
:103E800002122B394AFF02122B398AFF02122B39F8
:103E9000B3FF02122B39B8F805122B39FBF90512C2
:103EA0002B3921FA05122B3932FA05122B394AFC2B
:103EB00005122B3969FC05122B39BDFD05122B3972
:103EC000F3FD05122B393EFE05122B398AFF051230
:103ED0002B39008005122B393E8105122B397A814E
:103EE00005122B393F8305122B39698305122B39B3
:103EF000EF8505122B392F8605122B39C487051241
:103F00002B39598805122B39B78805122B39488966
:103F100005122B39808905122B39C28905122B39DC
:103F20003C8B05122B39C58C05122B39FB8E0512E3
:103F30002B39298F05122B39558F05122B395E8F9E
:103F400005122B39B48F05122B39449005122B39E9
:103F50004B9305122B39CF9305122B3981C30612CF
:103F60002B3997C306122B39A1C306122B39F1C383
:103F700006122B39038506122B391C8506122B39A4
:103F8000C18506122B39018606122B391A860612B4
:103F90002B394E8606122B399B8606122B39CF867B
:103FA00006122B39118706122B39E78806122B3996
:103FB000528906122B3963BC06122B39B8BC061283
:103FC0002B3911BD06122B39E3C206122B3925C33A
:103FD00006122B3967C306122B3977C306122B3909
:103FE00006BB04122B3961BB04122B3901BC04122D
:103FF0002B3919BD04122B3905BE04122B39D2BE40
:1040000004122B39E7BE04122B3931BF04122B39AD
:1040100088BF04122B39F4BF04122B3907C00412D5
:104020002B395FC004122B39CEC004122B39E6C0E5
:1040300004122B397DC304122B3979C404122B3995
:10404000D4C404122B3928C504122B3944C70412D6
:104050002B3994C704122B3915C804122B39E7C821
:1040600004122B3920C904122B393FC904122B39F1
:104070008AC904122B39A0C904122B39B7C90412FA
:104080002B39E6C904122B39F8C904122B39E7CAB7
:1040900004122B39F2CA04122B3977CB04122B39B4
:1040A000CFCB04122B391BCC04122B3952CD041266
:1040B0002B3983CD04122B39FFCF04122B3930D08A
:1040C00004122B394BD104122B397AD104122B391B
:1040D000F2D104122B39B4D204122B39E8D20412D3
:1040E0002B3958D304122B3935D404122B396ED402
:1040F00004122B3978D404122B397BD404122B39B7
:1041000085D404122B39A1D404122B391DD50412E5
:104110002B3956D504122B3972D504122B399ED562
:1041200004122B39D9D504122B39F4D504122B39AA
:10413000FED504122B392DD604122B3943D6041286
:104140002B395FD604122B398ED604122B39AED6FA
:1041500004122B39F7D604122B3940D704122B390D
:104160004AD804122B399CBF06122B39ADBF061258
:104170002B3936C006122B3942E105122B3991E159
:1041800005122B394FE305122B3922E505122B3985
:1041900060E505122B3936E605122B393BE705128F
:1041A0002B395DE705122B39B9E705122B393AE8AF
:1041B00005122B39885200122B39AA5200122B39C2
:1041C000FC5300122B39455400122B39BE540012F7
:1041D0002B39395500122B39A25500122B39E955CC
:1041E00000122B39575600122B39FC5600122B396E
:1041F000825700122B39BE5700122B39125C001265
:104200002B39205E00122B39535E00122B39925E3F
:1042100000122B399F5F00122B39886200122B3954
:10422000326300122B39DD6400122B391066001244
:104230002B39266700122B399B6700122B396768D0
:1042400000122B39FE6800122B390E6900122B392F
:10425000C56900122B39FB6A00122B393F6D001221
:104260002B39E26F00122B39C07000122B39FD710F
:1042700000122B39427500122B39527500122B395E
:10428000897600122B393C7700122B396D78001299
:104290002B39DB7800122B39127A00122B39677A0E
:1042A00000122B3995D904122B393CDA04122B3920
:1042B000AEDA04122B39BEDA04122B3940DB0412B9
:1042C0002B3997DB04122B398CDC04122B39B3DC2D
:1042D00004122B3958DD04122B39A7DD04122B39B7
:1042E00005DE04122B3960DE04122B393BE1041287
:1042F0002B39F4E104122B3959E204122B39ECE387
:1043000004122B398CE404122B3925E504122B39C5
:1043100082E504122B39F8E504122B39F4E6041275
:104320002B39E7E704122B3940E804122B3956E801
:1043300004122B3977E804122B39B6E804122B3912
:1043400046E904122B3989EA04122B3946EC04128F
:104350002B3990ED04122B39CAEE04122B39D5EF0C
:1043600004122B3975F004122B39E4F004122B39A6
:1043700001F204122B3986D802122B39EFD802121F
:104380002B3937D902122B397BD902122B39EED9AE
:1043900002122B3948DA02122B3983DA02122B3936
:1043A0001DDB02122B3977DB02122B39E3DC021200
:1043B0002B395CDD02122B3986DD02122B399ADE95
:1043C00002122B39A8DF02122B39D0DF02122B394F
:1043D000CEE002122B39DFE002122B39F5E0021297
:1043E0002B39F6E102122B3919E202122B39E6E2DF
:1043F00002122B390EE302122B3925E302122B395C
:104400004BE302122B3986E302122B39A6E3021288
:104410002B39CDE302122B39E5E302122B39C2E42A
:1044200002122B3925E502122B39A8E602122B398C
:1044300037E702122B395BE702122B3972E70212BF
:104440002B3946E802122B39E2E802122B3908E92F
:1044500002122B395DEA02122B397BEA02122B3948
:10446000F6EA02122B392CEB02122B3969EB0212FD
:104470002B39F5EB02122B3961EC02122B3945ED89
:1044800002122B3923EF02122B39F8EF02122B39CB
:1044900044F002122B397CF102122B39C9F20212BC
:1044A0002B393FF402122B394DF402122B3947F508
:1044B00002122B39EEF502122B3937F602122B3984
:1044C0004CF602122B395BF702122B3974F80212E8
:1044D0002B39D2F802122B3992F305122B39CFF374
:1044E00005122B3968F405122B3973F505122B3997
:1044F000BBF705122B3937F805122B390C99061228
:104500002B393A9A06122B39029B06122B39579BEC
:1045100006122B39DA9B06122B3989B206122B3977
:1045200078C106122B3989C106122B3929C206120D
:104530002B39DDFF02122B39EEFF01122B398FC010
:1045400006122B399FC006122B39B7C006122B3921
:104550006BC106122B3998BE06122B391DBF0612ED
:104560002B3983BF06122B393FFF04122B3942FF30
:1045700004122B397BFF04122B39CEFF04122B3986
:10458000E0FF04122B39E3FF04122B397D91061250
:104590002B398B9106122B39049206122B39D992A2
:1045A00006122B39989406122B39FD9406122B39DA
:1045B000609506122B39F87F00122B39FDAF0612D9
:1045C0002B3935B006122B3986B106122B390AB2B7
:1045D00006122B3903AB06122B39A4AB06122B396A
:1045E000D5AB06122B3920AC06122B39E4AC0612DF
:1045F0002B3917AD06122B393DAD06122B394FADB5
:1046000006122B3963AD06122B3971AD06122B3908
:104610000AEE05122B3936EE05122B39DDF00512A4
:104620002B3932F105122B396EF105122B3982F13B
:1046300005122B399BF105122B398EF205122B39FD
:104640006AF305122B397EF305122B3916B70612C1
:104650002B393AB706122B3953B706122B3992B7BA
:1046600006122B39C5B706122B39F5B706122B39AE
:10467000FFB706122B3967B806122B396AB8061233
:104680002B3974B806122B3981B806122B395DA864
:1046900006122B3985A806122B39C6A806122B390B
:1046A000E4A806122B39FFA806122B3967A90612B7
:1046B0002B3973A906122B39D2A906122B39F6A968
:1046C00006122B39B7AA06122B39C4AA06122B39A7
:1046D000D5AA06122B399FC406122B39B7C406126D
:1046E0002B39DDC406122B39448006122B398D81FB
:1046F00006122B39938106122B39AA8106122B3907
:10470000CB8106122B39E18106122B39F581061275
:104710002B39748206122B39D98206122B39618308
:1047200006122B39DA8306122B39B38406122B3981
:10473000C38406122B39D28406122B394AC20612C0
:104740002B396EC206122B3996C206122B39BEC205
:1047500006122B399EA506122B390AA606122B39F2
:1047600029A606122B398FA606122B39D5A20612BE
:104770002B39EEA206122B3905A306122B390EA3F4
:1047800006122B392CA306122B3936A306122B390D
:1047900040A306122B3953A306122B39E0A30612AD
:1047A0002B394FA406122B397DA406122B39CEA427
:1047B00006122B391AA506122B3935A506122B39EC
:1047C0003FA506122B3950A506122B3993A50612C8
:1047D0002B3926C506122B3971C506122B396EF6F8
:1047E00003122B399AF603122B39B8F603122B3920
:1047F000CBF603122B39E6F603122B3945F70312D9
:104800002B3973F703122B397FFB03122B39C1FCB1
:1048100003122B39F3FC03122B395EFD03122B39E3
:10482000E2FE03122B390AFF03122B391FFF03127A
:104830002B392FFF03122B396FFF03122B39B1FFD6
:1048400003122B39C1FF03122B392BBB06122B3954
:104850003BBB06122B3959BB06122B3974BB06120F
:104860002B399BBB06122B39BCBB06122B39D6BB8E
:1048700006122B390EBC06122B3931BC06122B390D
:104880003AFF01122B3980FF01122B397495061261
:104890002B39849506122B39A29606122B39D49601
:1048A00006122B39F69606122B391E9706122B3953
:1048B000379706122B39739706122B39DC9706129D
:1048C0002B39189806122B395F9806122B398C98C1
:1048D00006122B39B89806122B3987B506122B39D8
:1048E000BEB506122B39E6B606122B39E9B606120A
:1048F0002B3985BD06122B39F7BD06122B3935BE73
:1049000006122B3976BE06122B39E2D105122B394D
:10491000E8D105122B392FD205122B393BD40512C1
:104920002B396BD405122B39D5D405122B3990D5E0
:1049300005122B39D7D505122B390AD605122B397A
:1049400094D605122B39ABD605122B39B8D60512E1
:104950002B39C2D605122B3962D805122B3954D9FE
:1049600005122B39B2D905122B3965C905122B391D
:104970007BC905122B392DCA05122B3957CB0512CD
:104980002B394CCC05122B39E3CC05122B391ECD1B
:1049900005122B3990CD05122B39EECD05122B398E
:1049A000FECD05122B3925CE05122B3977CE0512F7
:1049B0002B39E6CF05122B39EBCF05122B390DD051
:1049C00005122B391FC406122B394DC406122B3980
:1049D00082C406122B3984C406122B3986C40612EF
:1049E0002B3997C406122B3999C406122B399CC453
:1049F00006122B39FEB306122B396CB406122B3972
:104A00008EB406122B39C6B406122B39FCB406122A
:104A10002B39AC9F06122B39EF9F06122B390DA0B4
:104A200006122B3940A206122B3974A206122B391A
:104A30009FA206122B397DC506122B39EBD9051220
:104A40002B39CEDA05122B39B6DB05122B39C7DB31
:104A500005122B39D8DB05122B3924DC05122B3932
:104A600013DE05122B396EDF05122B399EDF05127E
:104A70002B3969E005122B39C6E005122B395F8905
:104A800006122B397D8906122B39C18906122B3962
:104A9000E78906122B39098A06122B39218A061258
:104AA0002B39398A06122B39518A06122B39F78A8B
:104AB00006122B39398B06122B39438B06122B39F0
:104AC000588B06122B395F8C06122B397A8C061202
:104AD0002B39838C06122B398C8C06122B39958C32
:104AE00006122B399F8C06122B391C8D06122B397E
:104AF000237B00122B39687F00122B39847F001230
:104B00002B39897F00122B396C9C06122B39829C21
:104B100006122B39039E06122B392D9E06122B39B5
:104B2000749E06122B397D9F06122B398BB8061204
:104B30002B39EBC506122B3910C606122B39BEA62F
:104B400002122B392FA502122B39BDA402122B39C8
:104B500089A402122B395EA402122B393AA4021244
:104B60002B395DA302122B3927A302122B39E7A29E
:104B700002122B39B5A202122B3926A202122B39AE
:104B8000D8A002122B395EA002122B399B9F021271
:104B90002B39919E02122B39489E02122B39229EEC
:104BA00002122B395E9D02122B39A89B02122B395F
:104BB000489B02122B39199B02122B39169B0212A9
:104BC0002B39DC9902122B39C89802122B3988979D
:104BD00002122B39BA9602122B398CAC02122B39E5
:104BE00078AC02122B3964AC02122B3950AC021291
:104BF0002B39BCAB02122B39D4AA02122B394CAA86
:104C000002122B39329602122B39529502122B398D
:104C1000B99402122B39139402122B3999A902125A
:104C20002B39D59302122B393B9302122B39FA926E
:104C300002122B399D9202122B3985E003122B3977
:104C40006A9202122B3948A702122B39FE910212E6
:104C50002B39CB9102122B39709102122B393F91D3
:104C600002122B39088E02122B391A8D02122B399F
:104C7000D48B02122B39808B02122B39748B0212C7
:104C80002B39DB8A02122B39A98902122B39FA86B9
:104C900002122B399D8402122B39518402122B39B6
:104CA000368302122B39CB8202122B39F381021286
:104CB0002B39008002122B39AF8102122B396B8005
:104CC00002122B39328002122B39EDA005000000B0
:104CD00080FB8F0001009B09870001009A092400D6
:104CE00002001711250002001911260002001B11F5
:104CF000270002001D11280001001F1129000100DA
:104D000020118400040021118600010025112A00D1
:104D1000010026112B00010027112C0001002B118E
:104D20002D00080082092E0001002C112F00010027
:104D30002D11300001002E11310001002F11320021
:104D400001008A09330001008B0934000100301191
:104D5000360001008C0938000100311139000100D2
:104D60002A118300020043116300010097096400C7
:104D7000010028116500010029116D00010098094A
:104D8000710008007A096600010042114300010029
:104D90003311440002003411450001003611460071
:104DA00002003711470008008F094800010039113F
:104DB0004B0001003A11040001004511A10001005F
:104DC0004711370001004611880001009C093C0092
:104DD00001008D093D0001003211490002003B1124
:104DE0006700010099094D0002003D114E000100CD
:104DF0003F114F00020040113E0001008E090000EB
:104E0000000000000001363601010001020100012E
:104E10000301000104010606050200000701003439
:104E20000801000F090401010D0100FF0E08000038
:104E300017020000190100FF1A0100011B0100FE0A
:104E40001C0100081D0200001F01000120010001DB
:104E5000210200002301000F2402000026010001AE
:104E600027010008280200FF2A0100072B01024049
:104E70002C0100002D0100012E0100012F0100FF77
:104E800030010B1C310800003A0100083B01000F03
:104E90003C0100013D0100FF3E040000420400000F
:104EA000460400004A0400004E04000052040000C2
:104EB000560400005A0400005E20FFFF3600010087
:104EC000060000000F0000000000000000000000CD
:104ED000000003FFFF00000403FFFF0000FFFF0FBF
:104EE000F4010005C4040320000100000B000000D1
:104EF000000000000003010F00000000000000009F
:104F000000000000000000000000000000000000A1
:104F10000000000000000000000000000000000091
:104F20000000000000000000000000000000000081
:104F300000000000000000000000010371030103F5
:104F40000103010301030103220302030103100310
:104F500000030003000300030003000300034203F7
:104F600000032403060300030003040312032503C4
:104F700023032503230304030403000300030003A6
:104F800044030003000323030003650321003503EA
:104F9000810300030503000300030003000325034E
:104FA0002303030071003001600011007000310222
:104FB0002003500480001000610000001400630012
:104FC000730072006200430000001300060000003E
:104FD00000000400120000000000000000000400B7
:104FE0000400370037003C024400000000000000CD
:104FF0000000650000003500810000000500000091
:105000008300000001017101010101011101010191
:105010003101010101018001100161013B00140017
:105020006301730172016201430100011301060172
:105030003D013500040112010001000100010001E1
:1050400004010401330133013C0144013201360003
:105050000001000165010001350081010001050129
:10506000820183010001030271023001600211021A
:1050700070020102020202028002100261023A0082
:1050800041006302730272026202430200021302D1
:1050900038000002000204021202000200020002B4
:1050A000000204020402370037003C0244020002FE
:1050B000390000020002650200023502810200028E
:1050C00005028202830200020304710402046004E8
:1050D00011047004020402040104020410046104B7
:1050E000000414046304730472046204430400049F
:1050F0001304060400040004040412040004000461
:10510000000400045104640000040004000444048A
:105110000004000400040004650400043504810454
:10512000640005040004830400040000E34213004B
:1051300053420100E3420200D5410300DB41040079
:10514000E1410500E7410600F3413000174231001C
:105150001142320023423300294235002F423400ED
:10516000354236003B421100474214004D421500C3
:1051700005421F000B42FFFF0000011733064D33AD
:105180000847330B65331081320A7733021D33052C
:105190003B330723330CFF320D0B33648330FF00A6
:1051A0000007ECFDFDFDECDCDCCCBCACAC9C9C8CCD
:1051B0007C7C6C6C5C5C5C4C4C3C3C2C2C1C1C0368
:1051C000EAF5E5D5D5C5B5A595958585757565656A
:1051D000555545453535252515150500160F000093
:1051E0000B150B020002220F3300000E010305070E
:1051F000090B0D0F00020406080A0C0D5A696742DC
:105200006565416C6C69616E6365303930301718C3
:105210001921301B1D1F30303016181920231A1C7D
:105220001E3000034A49434E181A25050200011991
:1052300016181616182303000C0E020B040B0A078F
:1052400008000F00393D3F373C3C362C442D02040A
:1052500002010101010902E803000000BE040A7F07
:10526000003C00000000000E00E8033C0008100CA9
:105270000A0C03150900040009FF1E1E0305010C9A
:105280000504040810080328C082C08390081DE4A8
:10529000F0A3F07CD57D047A8E7B07124901123091
:1052A00089124CAF12308F02706374F3122584742C
:1052B000F5122C1889098A088B0AE9705F74026557
:1052C00008703E9007AD7408F0750C00780C122B36
:1052D0005AECF50C780C122B5AEBF50C780C122BBF
:1052E0005A90112112298D901125E0F97C8F7D09AA
:1052F0009011431270741230B37407122B8402534E
:10530000BC7401650860030253BF9007AD7408F0D8
:105310007B00AA0AA90A1230F50253BC7401650980
:1053200060097402650960030253BFEA60067403F2
:10533000650870409007AD74021253E0122DFE1202
:1053400030A19007B5E0A2E34010E9700D9008216C
:10535000E004F0640470031253EA74036508705C9F
:10536000900822E0F8740128F0E8C39405404D123B
:1053700053EA804874016508704574016509900717
:10538000AD702E740AF07401122E2DE4F074021226
:105390002E2D7403F004122E2DE4F0A3F0A3F0A33D
:1053A000F07408122E2DE4F0AA18AB1912332980DC
:1053B00025740A1253E0122DFE1230D7E9601790BF
:1053C000810012298D7A017B009007AAE0F9123F33
:1053D000897404122B84740B122B847F0502280914
:1053E000F0901125E0F990112122901121E4F0A311
:1053F00074F8F0A374FFF0A37407F02274F612257A
:1054000084E9FFEAFE7AD1F9123E3F8A828B83E576
:10541000824583702A7A027B00123E21EA4B700E8D
:105420007A107B009007AAE0F9123E6380148A820A
:105430008B8374D1F0EFA3F0EEF9123E2D8003EFD1
:10544000A3F002565274F7122584890890070712B8
:105450007730FF901112E0F47003A3E0F4703690FF
:10546000071EE0901112F0A3E4F080298E828F8352
:10547000A3A3127B1E60168E828F83A3A3A3E0F5E5
:10548000838882A3127B1EFAA9081241BD8E828FE7
:1054900083127A46FFEE4F70D3901112E0F470033E
:1054A000A3E0F4600A901112E0FAA9081241BD12BB
:1054B0003431900778125BC312342B02786874F190
:1054C000122584890A8C08750900750B00740F1267
:1054D0002E2D12631C7411122E2D125BEA8049AE20
:1054E0000E12558AF50CA3E0F50DAE0BEE2EFEE480
:1054F00033FFEA2EF582EB1268D5650C7004A3E049
:10550000650D7019AE09EE2EFEE433FFEC2EF58228
:10551000ED3FF583E50CF0A3E50DF00509050EE57B
:105520000EC3950840B9050BE50BC3950A500575E8
:105530000E0080EBA909026F8074F4122584890B98
:105540007D00740C122E2D12631C80010DEDC3958D
:105550000B5032750A008002050AE50AC39C50EC24
:10556000ED25E0FEE433FFEA2EF582EB3F12559A7B
:10557000F509AE0A12558A65087004A3E065097042
:10558000D7790180027900026D27EE2EFEE433FF09
:10559000E82EF582E93FF583E022F583E0F508A3E4
:1055A000E02274F612258412563D7003A3E06D705C
:1055B000177508B37509077808122B56EEFA1242D0
:1055C000E97402122B84801F75080275098078081F
:1055D000122B568C088D097808122B561256301251
:1055E000430D7404122B84806974F61225841256BC
:1055F0003D7003A3E06D70177508C0750907780842
:10560000122B56EEFA1242EF7402122B84801F7591
:1056100008037509807808122B568C088D097808C4
:10562000122B5612563012430D7404122B84802212
:10563000125F8BF583E0FD7C801269A9221268DE7F
:10564000127A58FCE439FD900778E06C227402125B
:105650002B847F0202280974F612258474FE122C12
:1056600018EAFEEBFF851882851983E4F0A3125E29
:105670001A1268F5E0FCA3E0FBECFA88828983A3A8
:10568000A3E0F9750900750800600574FF697005ED
:10569000750882803D900778E06A7003A3E06B7024
:1056A0001AAA18AB191239F5E9F509851882851976
:1056B00083126D32701C750883801790099AE06020
:1056C00004640170057508818008E0640270037548
:1056D0000880851882851983125BEAA908EEFAEF23
:1056E000FB1242F5E5096011851882851983126D58
:1056F00032600612706E123EC902564D74F21225C7
:1057000084EAFEEBFF750A00750B0012576E123427
:1057100031EA65087003EB65097012123A07E91463
:10572000F50A79017AE97B07123A0D8003750B803F
:105730001268CFF50C780C122B5A750CE9750D0711
:10574000780C122B56780A122B5A7808122B56E531
:105750000BF5087808122B5A1267901268D2F97A62
:10576000057B801242FB7407122B840264D81279E5
:105770009112632088828983127A57F508E439F5FB
:10578000092274F6122584E9FE7F0080298A828B23
:105790008312559CF8E4C8F9E50828E439F509EFC7
:1057A00025E0F8E433F9EC28F582ED125F94EA2461
:1057B00002FA50010B0FEFC39E40D202565274E81A
:1057C00012258474FB122C188A168B178518828573
:1057D0001983E4F07403122E2DE4F0A3F004122ECA
:1057E0002DE4F0A3F012630D3517125DECF50B8577
:1057F0000A82F583127A53FEE439FF850A82850B0B
:1058000083A3A3E0FA850A82850B83A3A3A3E0F90F
:10581000EAF508E439F509E50A2404F50A50020519
:105820000BEEFAEFFB1234CDE964016016EEFAEFED
:10583000FB1234CDE9703D900778E06E7003A3E071
:105840006F6031126AEC122B5AE4F508F5097808FA
:10585000122B567808122B5A900778122995750842
:10586000807808122B5A125BC91242FB7407122B64
:1058700084025BB9125BF08810602B12766D123EC9
:10588000C37403122E2D125BC37403122E2D126DDE
:105890003260137403122E2D125BE2A9101241ED37
:1058A0008A0A8B0B8003751000125BF0880F60274B
:1058B00012766D123EC37401122E2D125BC3740159
:1058C000122E2D126D32600F7401122E2D125BE21A
:1058D000A90F1241ED8003750F00900707805D85C9
:1058E0000A82850B83A3A3A3A3A3A3A3A3E4F0A38A
:1058F000F0AA0AAB0B851482851583A3A3125C0062
:10590000127B1EF9123E2D851282851383E0C0E0C2
:10591000851882851983E0F874E928F582E4340754
:10592000F583D0E0126D3604F0E511A2E05007AA2D
:1059300012AB13123EC9851482851583E0F514A3BA
:10594000E0F515E51445157003025B268514828584
:105950001583A3A3127B1E60DD851482851583A3A6
:10596000A3A3A3A3A3A3A3E0A2E050CA85148285A6
:105970001583A3A3A3A3126D32851482851583A377
:10598000A3601F127B1EFA7901851482851583A3FB
:10599000A3A3A3126FA912276A8A128B1375110190
:1059A000800F125C00A3A3E0F512A3E0F5137511BC
:1059B00000E512451370030259298512828513836D
:1059C000A3E065087004A3E06509600F74FF650833
:1059D000700474FF650960030259298512828513DA
:1059E00083A3A3A3A3A3A3A312299585128285133E
:1059F00083A3A3A3A3A3A3E0FC7405122E2D12700E
:105A000074A9101241CF7402122B84E9703C8512E4
:105A100082851383A3A3A3A3A3A3A3A3A3A3122950
:105A200095851282851383A3A3A3A3A3A3A3A3A3F2
:105A3000E0FC7403122E2D127074A90F1241CF7462
:105A400002122B84E97003025929E50F2510C33394
:105A5000240AFA7B00123E218A0A8B0BEA450B705E
:105A6000030259078A828B8374D2F08516828517C8
:105A700083A3A312631C8A828B83A3A3E8F0A3E908
:105A800012794EA3E510127A5FE50FF0E510603C45
:105A9000EA2405FAE4350BFBE50A240AF8E4350BA1
:105AA000F98A828B831263267403122E2D125C05F1
:105AB000122B52AC10EC2CFCE433FD8A828B831247
:105AC0007074123DFD7403122B84800D8A828B83C7
