:020000040020DA
:1000000048720020359E2100659E2100699E2100D6
:100010006D9E21006D9E21006D9E2100000000005C
:100020000000000000000000000000006D9E2100A4
:100030006D9E2100000000006D9E2100619B21004B
:100040006D9E21006D9E21006D9E21006D9E210000
:10005000000000006D9E2100934B21006D9E210049
:100060006D9E210000000000000000000000000064
:1000700000000000000000006D9E21000000000054
:1000800000000000000000006D9E21006D9E210018
:100090006D9E21006D9E21006D9E21006D9E2100B0
:1000A0006D9E21006D9E210041312100A73121006C
:1000B0006D9E21006D9E21006D9E21006D9E210090
:1000C0003D9F2100ED3021006D9E21006D9E21009D
:1000D0006D9E2100000000000000000000000000F4
:1000E0000000000000000000000000000000000010
:1000F0006D9E2100000000006D9E210000000000A8
:100100002DE9F04700254FF6FE7A94B00446A94643
:10011000D04602F0FFFA002840F0ED80207FDFF8A3
:10012000746CE0B1DFF8700C0078410141EA8000A6
:100130002077FF20618802F06BFD50B1E08A40F02B
:100140000400E0820125207F40F001004FF6FF7897
:1001500020773078002814BF01284FF040096088CC
:1001600000F068FF08B100206076A07E18B9DFF8C3
:100170002C0C0078A0762078DFF89C7C010603D553
:1001800000F00300207006E0E07E20B93878E076C9
:100190003878401C3870207E01280BD1DFF87C0CA9
:1001A000007828B1F87A002804BF2078002801D10F
:1001B000002020763078002818BF012818D1B87B9D
:1001C000800715D555B9608800F034FF80B12078DC
:1001D00020B12069007800F0FBFE48B1E18AA07EE2
:1001E0004A0675D5012873D14FF6FB700840E082AE
:1001F0002078012802BF20690078022803D1E08A14
:1002000040F04000E082A07D400639D4002D37D177
:100210003078002818BF012832D1B87B80072FD54D
:100220006188607E4B46A21D04F0CCF828B1002006
:100230006076E08A40F02000E082A07970B16188A9
:1002400004F1080000F0A6F980466088804504BFEC
:100250000020A071E08A40F04000E0822078012870
:1002600004D0A18860884A4603F0E8FCA188608831
:100270004A4602F01AFF18B1E08A40F02000E082FE
:1002800004A9204600F0DEF8D045054608BFB4F8C2
:10029000028095B320789DF810308DF814000694F4
:1002A0004146608DADF8160005A8039094F82C0027
:1002B0000290E08A0190607D00902846FA8A00F062
:1002C00050F80446102C19D1284604F087FA15E09E
:1002D0008DF82E006088ADF82600A088ADF82800C3
:1002E000E07E8DF82F00627DA18807A803F032FE22
:1002F00000287FF47DAF112001E01024204614B0C7
:10030000BDE8F08710B58EB0044601A8342104F092
:1003100095FAA088ADF8100000226088ADF80E00B4
:1003200000A9207D8DF8200020690B90207F8DF89A
:100330000900208DADF81400207E8DF80A00607E43
:100340008DF80800FF208DF800008DF801004FF0B7
:10035000FF308DF8020001A804F0F0FA00200EB082
:1003600010BD2DE9F04F804687B00D4693469A4662
:100370001027242004F0CCF9002800905ED000263D
:10038000242201F040FDDFF80C9A99F80000119C3E
:10039000002818BF01280FD1284604F06BFD40B19A
:1003A0000079012818BF032803D1600658BF44F420
:1003B0008064600548BF0126DFF85C0A0099808CE4
:1003C0004881ADF818B002200099087300990872AE
:1003D00000980580009880F81FA00098109D457334
:1003E0000098C0F82080ADF80A408DF80C50139AA0
:1003F000D2E90001CDE9040112988DF81A003146C6
:1004000000A802F09CF9012815D199F800000028F5
:1004100018BF01280DD166B1284602F0BAFA0400CF
:1004200007D02068008802F04FFA10B1204602F091
:100430000DFB002702E0009804F0D0F9384607B021
:10044000BDE8F08FF8B504460E46617F082001B183
:100450001020A17F01B10830217F01B1401CA1799A
:1004600019B1217A4900891C08186070207E002883
:10047000DFF82009007814BF0E250025022802BFEE
:10048000DFF8440C0078012808D12078012805D035
:10049000DFF8380C007810B1012000E0002084F86B
:1004A00034006178207DDFF87079081828183070E2
:1004B000207E28B1387B05F01AF931784018307069
:1004C00030787528A8BF002662DA04F021F906000A
:1004D0005ED02078B97C40EA8100617E01F00301A2
:1004E00040EA8110217F09B14FF480710843217ED9
:1004F00040EA4120617F40EAC120A17F40EA01300B
:10050000A17940EA812094F8341040EA413080B269
:1005100030700827000A70706088B0706088000A28
:10052000F070A0883071A088000A7071A07EB07150
:10053000E07EF071607F28B1216A06F1080005F0C5
:100540000DF91027A07F28B1616AB81905F006F9E6
:100550000837FFB2A07980B1207AB855781CC0B2B4
:10056000617A8155471C207AE168FFB24200B819D0
:1005700005F0F8F8207A07EB4007207F08B1FFB2BA
:10058000B8556078227D21698019281805F0EAF8AD
:100590003046F2BD30B583B004460D4601AA00A92D
:1005A000284603F00BFAA0B99DF8000020700198CE
:1005B00060609DF8000048B1401E60709DF800101A
:1005C000019800EB410030F8020C3EBD60702846F7
:1005D0003EBD4FF6FE703EBD2DE9F04104460F468C
:1005E0001546012634220021284605F0D3F8082FAD
:1005F0005DDB2F702078627800EB0220294680B204
:1006000000F069F800B10026A078E17800EB012045
:1006100068816179207900EB0120A881A079A87414
:10062000E079E87408206870E87918B104F10800EE
:1006300000F0D3F8287A20B168780019A86100F09A
:10064000CDF8002085F820006862687920B16878CC
:10065000015D6971401C6870687F20B36878411C37
:1006600069704B1C005D85F82000C9B26B70095D94
:1006700085F82110814214D2DFF8B01BDFF8588CC6
:100680000978814238BF0C204700DBB23A4619197D
:10069000404605F067F8C5F8248068783818687017
:1006A00001E00020687768782978814201D2002033
:1006B0000FE00219AA62081A2877A97941B10E3809
:1006C000287702F10E0000F08DF8297F081A2877AC
:1006D0003046BDE8F08100F003028A70C0F3830366
:1006E0008A1C537003069B0F9370430A03F00103A7
:1006F0001371030A03F00103D370830A03F00103AB
:10070000D376C30A03F001035371030B03F0010313
:100710009371420B02F0010281F83120800B704787
:1007200010B5DFF8AC298479D37A00212CB1002BE5
:1007300004BF8078002807D105E0002B1EBF408948
:10074000D28A904200D00121084610BDF8B5064675
:100750001546307872780C4600EB0220294680B2AC
:10076000FFF7B9FFB078F17800EB0120688171796B
:10077000307900EB0120A881B079A874F079E87491
:1007800008206870E87918B106F1080000F025F833
:10079000287A20B168788019A86100F01FF868797C
:1007A00020B16878815D6971401C68702846FFF748
:1007B000B7FF07000FD16878AA79811912B9A96229
:1007C000201A07E001F10E0000F00CF86978611AB8
:1007D0000E39081A28773846F2BD68616878083003
:1007E00068707047A862DFF8A80C007B04F07FBF38
:1007F00010B5DFF8A04C2146E22005F0EFF92046C5
:1008000010BDDFF88C0CC08A7047DFF8840C408B79
:10081000704701464A2005F0E1B938B5DFF8784C59
:100820002578681C2070284602F0B3F80028F7D11C
:10083000002DF5D0284632BD2DE9F74F002781461F
:100840009A46B84601F0BCFBDFF804670C9CDFF861
:10085000C8B5050030780BD1002C54D19DF8082084
:10086000BDF80410484603B0BDE8F04F01F0EDBC00
:1008700094B3002818BF012805D1DFF8200C806848
:10088000010018BF8047BAF1000F08BF2F7037D0A2
:100890003078002818BF012845D19BF80E0080074A
:1008A00041D5DFF8F80BC268100002D05146284647
:1008B0009047DFF8EC0B00782978421C9142BCBFCE
:1008C000491C2970297881422DD10127484603F01F
:1008D000E0FD85F8018026E0BAF1000F0AD1A87882
:1008E0009DF8081008180004400CA870A87808B9F2
:1008F0000120A870DFF8AC0BA9780078884212D2EA
:100900004FF001080FE0012C0DD1BAF1000F0AD011
:10091000002818BF012806D19BF80E00800744BFAD
:10092000484603F0B6FD3178DFF8700B00780229F5
:1009300008BF012C0BD1BAF1000F07D0DFF8603CE3
:100940001B78401CC0B2984201D301270020DFF879
:100950004C3B187057EA080041D0002918BF012904
:1009600014D19BF80E00800710D5484604F082FA97
:1009700060B1B8F1000F03D0417901F0FE0141717F
:100980006FB3417941F00101417100E03FB330782C
:10099000002818BF01280ED19BF80E0080070AD549
:1009A000484604F041FA30B1494603B0BDE8F04F83
:1009B000002004F0FEB8BBF81A0081450FD149466B
:1009C000012004F0F6F83078022808D103B0BDE821
:1009D000F04FDFF8280C0078012105F03ABABDE8A5
:1009E000F78FDFF8181C0B78012803D10121184676
:1009F00005F022B8DFF85C1C086020B10246012136
:100A0000184605F0FAB90121184605F022BADFF8B8
:100A1000481C08807047DFF8441C0880704710B5F8
:100A2000DFF8F4237421212005F09EFE044606F031
:100A30003EFA044300F04BFC18BF012802D104F039
:100A4000A2FB0443DFF8B80C0068010001D0804726
:100A5000044302F052F9044306F007FC204310BDA2
:100A600080B506F0C8FC00F0A5F806F030FADFF813
:100A7000E0040078002814BF012804F09DFBDFF893
:100A8000840C0068010018BF804702F047F9BDE8F8
:100A9000014006F038BC38B5DF4D00242A467421E9
:100AA000212005F061FE002850D12B467422002140
:100AB000212005F098FF002848D105F10E004FF6DF
:100AC000FE720189914241D0007E0124082818BF9E
:100AD000042838D18DF8004000A9422005F08CF898
:100AE00005F12F01432005F087F805F12C0147207F
:100AF00005F082F805F11C014A2005F07DF805F1AA
:100B00001A014B2005F078F805F12401502005F07A
:100B100073F805F11601532005F06EF805F12D016B
:100B2000542005F069F805F11801E12005F064F89A
:100B3000A87BC00800F001008DF8000000A9522039
:100B400005F05AF802E006F056FC002406F07FF9A2
:100B5000DFF8FC030078002814BF012804F01AFC19
:100B6000DFF8B00C0068010018BF804702F00EF9F2
:100B7000204632BD10B50446E00701D500F01AF852
:100B8000200748BF06F075F9DFF8C4030078002895
:100B900018BF012803D1A00748BF04F09EFC6007DE
:100BA00007D5DFF8740C006801001CBFBDE81040D9
:100BB000004710BDDFF8D83874220021212005F04D
:100BC00012BEF0B5DFF8545CDFF8544C297887B0DA
:100BD00001AA204608F0A2F900208DF808008DF83F
:100BE0000A00042104F03FF8DFF8381C0E78B04208
:100BF0001ED206F018F9D8B9DFF82C0C078837B1E7
:100C00000421032004F02FF8F11B884202DA0120AE
:100C10008DF80800DFF8140C078837B10221012095
:100C200004F021F8F11B884202DA01208DF80A0055
:100C300021462A7801A808F044F92146452004F00D
:100C4000DBFF9DF80A0030B99DF8081001B10121C1
:100C50008DF8001002E001208DF80000DFF84C1C38
:100C6000DFF8AC2C097812789DF80000114008409C
:100C70008DF8000000A9412004F0BEFF07B0F0BDD0
:100C800070B504466448DFF8946BDFF8945B317804
:100C900080F8724086B000AA284608F03FF9327802
:100CA0008DF81240294600A808F00BF92946452086
:100CB00004F0A2FF06B070BD70B5DFF8585C0446C2
:100CC00028884FF6FE71884222D1162004F092FD4A
:100CD00006001DD001203070A079002814BF02202A
:100CE00001207070A06A4078B07200075CBFA089D4
:100CF00001F029FFA169B01C04F030FD0020F07460
:100D00003146DFF8F808007804F095FDA0892880C6
:100D100070BD2DE9F04182B0054604208DF8010038
:100D20000E46904600A800F05CF90700DFF8E44B9F
:100D300029D0386907210170A98A00F8011FA98A02
:100D4000090A00F8011FA97D00F8011F012078772A
:100D500005F10B0038620120B877FFF749FD786292
:100D60000120B876032E16BF012E4FF48860402074
:100D7000F882B8F1010F2088788004BF002038760F
:100D800000F03EFC00E010204FF6FE712180BDE82F
:100D9000F68100003C520020ED430020E69D21003A
:100DA00070B5DFF85858044628784FF4806105F094
:100DB00050F8DFF8E80BDFF8A41800880880DFF8A7
:100DC0009818DFF84C0C008808800920DFF8C0165E
:100DD00081F82600FFF70CFD0146606904F0B0FCC5
:100DE000C0B1102004F006FD060013D002203070C0
:100DF000A06A4178827801EB02217180C07870701E
:100E00004A20A16904F0F8FE28783146BDE8704018
:100E100004F011BD70BD0000EC4A002032520020E9
:100E200038B5044602208DF8010000A800F0D9F87A
:100E300005003AD028690421017000214170217A0F
:100E4000012904BF20214170617A012903D1417831
:100E500041F040014170A17A012904D1417841F06B
:100E60008001417001E00120A876607A012805D157
:100E7000606808B10120687760682862E07A01281C
:100E800008BFE882208800F0D5F818B1E88A40F061
:100E90000400E8820120A877FFF7AAFC6862208896
:100EA0006880284608F0E4F832BD102032BD7FB5D6
:100EB00004460D46002600F086F8A86A407810F037
:100EC0001F0103D000F06EFB00203FE0810644BF0D
:100ED00001218DF80C10010644BF01218DF80B1083
:100EE000400603D501208DF80A0003E09DF80A00B2
:100EF000012803D1E87950B16E6902E0287A30B157
:100F0000AE6926B131460DF1020004F027FCA88934
:100F1000ADF800009DF80A00012813D1688900F09F
:100F200089F8002801BFA889DFF86415498B884239
:100F30000BD13EB1FFF75CFC01460DF1020004F05D
:100F4000FFFB10B100A803F011FE204604B070BDF5
:100F50003C52002010B5044692B020684189CA076F
:100F60002FD54FF6FE721140418104AA0068C17F5F
:100F7000006AFFF7EBFB002802BF0E9800780428F8
:100F80001FD100F020F8BDF81A00ADF800000E984F
:100F90004078810644BF01218DF80B10010644BF43
:100FA00001218DF80A1040064CBF09990A990DF1EC
:100FB000020004F0D3FB20798DF80C0000A803F0A8
:100FC000D3FD12B010BD0E22002100A804F0E2BB38
:100FD000002104281CBF0A28032800D1012108464B
:100FE000704710B5382101700121817008F06EF84A
:100FF000040005D001202070A077FFF7F9FB6062A4
:10100000204610BDDFF88804807C7047DFF8DC0BD9
:1010100000787047DFF8D41B087070470121020781
:1010200048BF03218007DFF8C80B48BF41F0040127
:10103000017070474FF6F87300210022C01A032890
:101040000BD9001F05D0401E05D0801E06D10122FD
:1010500004E0042202E0022200E00822DFF8900B04
:101060000078104218BF022101D102B101210846C7
:10107000704738B504460D4603F0FFFE00281CBF3C
:10108000017900290ED005290CDA012D1CBF012998
:10109000022902D1008802F062FB2046BDE83240FE
:1010A00003F020BF31BD017821B94068002818BF86
:1010B00008F01CBD00207047054991F8261008294A
:1010C00008BF00F04EB87047395200203752002058
:1010D000EC4A002010B50021DFF8182B02EB810349
:1010E0005B88834203D100F023F8C52010BD491C62
:1010F000C9B20329F2DB00214FF6FE7402EB810333
:101100005B88A34207D0491CC9B20329F6DB002142
:1011100012F8213033B902EB8103588000F008F84F
:10112000002010BD491CC9B20329F1DBC72010BD46
:10113000DFF8C40A007802F8210070470021DFF8C8
:10114000B42A02EB81035B88834204D112F8213078
:101150000BB101207047491CC9B20329F1DB002003
:101160007047F0B50546DFF8980C00780026002897
:1011700018BF01288BB040D1C54FF88A854204D1F1
:10118000BDB3012600F03CF837E0284603F072FEBC
:1011900004002ED02079012818BF022829D18DF80B
:1011A00000606088ADF80C0000A805F0B7FD00B342
:1011B0002088DFF860170880002002F097FA20806E
:1011C00001A90DF11B0004F0C9FA2088ADF8240034
:1011D0008DF826600222217904A8FFF79AFD208865
:1011E000ADF8020000A805F0BBFD00200126E0607C
:1011F00003E0B98C284600F096FE30460BB0F0BDF7
:1012000080B500F064F818BF01280ED1012002F06B
:1012100082FA9F49ADF80000C88200A9532004F06B
:10122000EBFCBDF8000009F0F0FE01BDD89D2100E7
:101230007FB504461226002C0D4646D09448C08A3D
:10124000844209D1FFF7D4FA0146284604F078FA1F
:1012500000F0010080F0010600208DF80000ADF8DC
:10126000024000A805F000FD58B101A805F090FC6F
:10127000012806D1012601A9284604F061FA00B12F
:10128000002600F024F814BF0128122E05D12946AB
:10129000204603F091FD00B100262946204600F0CB
:1012A000AAFE0A2808BF01260AD0A02806D129468E
:1012B000204600F09BFF204600F0EBFF012E03D1FB
:1012C0000021204600F00AF8304604B070BDDFF877
:1012D000300B0078002870474850002038B504468D
:1012E000FFF7F5FF18BF01280D460BD12046FFF789
:1012F00038FF2B46214601B0BDE830400D224FF6A5
:10130000FC701BE031BD10B50446207A38B1A169EC
:10131000A089FFF78DFF012808BFA08908D0E079D8
:1013200050B161696089FFF783FF012804D16089AA
:10133000FFF7D0FE012010BD002010BD2DE9F041C7
:1013400082B0044604208DF801000D4616461F4663
:101350004FF0010800F001FAA0B147B100218177F8
:101360008580017841F0800101700021C17603225F
:1013700001690A704E708D702A0ACA70448007F0A5
:1013800077FE80464046BDE8F68100002DE9F8432F
:1013900004468846A06A90F801908178C07801EBF5
:1013A0000025207F0126042802D000F0FBF86BE026
:1013B000DFF84C0A364F0078B9F10E0F4FD8DFE84E
:1013C00009F00808085050504250505050503827EB
:1013D0005000002818BF012843D1B87B800740D5B2
:1013E0000021A8B202F061FF00281EBF81791822F7
:1013F000114208D0A18900910022438861890088A8
:1014000003F022F813E00121A8B203F0E7FB28E083
:10141000002818BF012824D1B87B800721D5A8B2A5
:10142000FFF74AFEA8B2FFF755FEC52819D10026DE
:1014300017E0002818BF012813D1B87B800710D50A
:1014400009F09DFE0DE0002818BF012809D1B87BE6
:10145000800706D50021A8B202F037FC01E04FF06A
:1014600000086089AAB2494603F0F0FB6089FFF7E3
:10147000E1FD48B1A07C022806DBA089F98A8842F8
:101480001CBF002E404600D10020BDE8F2830000C2
:10149000EC4A00209851002041520020CC500020FE
:1014A000DA9D2100D64300202DE9F04585B00446A1
:1014B0000A200D4690469A4601268DF8010025B96E
:1014C0004FEA4A000A308DF8010000F046F90700A3
:1014D0002CD03E69092006F8010B41464AEA451026
:1014E00006F8010B304604F039F906F1080175B928
:1014F0000C98002209E030F8123001F8013B30F876
:1015000012301B0A01F8013B521C5245F3DB01204B
:10151000B877FFF76DF900F01AF918B10120787764
:1015200001A838627C8000F06BF80646304605B0B2
:10153000BDE8F085FEB50446A06A10F8017F461CA0
:1015400007F01F05314601A804F008F9083601A983
:10155000DFF89C0B04F0F4F808B3E02007421CD13C
:10156000680003F0D5F8070019D0002007E03178B3
:10157000727801EB022127F81010B61C401CC0B293
:10158000A842F4D300972B46A08901AA002100F0BD
:101590000CF8384603F022F9F7BD00F003F8F7BD68
:1015A000DA430020D3200AF033B82DE9F843DFF8FE
:1015B000745C04462868884691461F46D8B1780076
:1015C0000E3080B204F016F9060014D0D42030702A
:1015D000748086F804804946701D04F0BFF8777364
:1015E0007A00089906F10E0004F0BCF8296830462C
:1015F000BDE8F4430847BDE8F1830000A85100208E
:10160000384607F035BD7CB50446886A10F8015F9E
:1016100005F01F01461C012917D1314600A804F02E
:101620009DF8083600A9DFF8C80A04F089F878B1F7
:10163000E020054209D17078B17800EB01213078C3
:1016400089B200F035F9204676BDFFF7ABFF0020E8
:1016500076BD000080430020BE430020C043002030
:101660002DE9F84300F07CF8994600F075F8060083
:1016700012D030690B21017000F8018F00F8019F32
:10168000B777FFF7B5F87062777735627480B77611
:10169000304607F0EDFC07463846BDE8F283F8B562
:1016A00004460025A06A10F8016F10F8017FA069B8
:1016B00003F0E3FB00281CBF017900291FD0032998
:1016C0001DDA0F2E00DA0FB1012510E00575002E8E
:1016D000DFF81C1C0FBF096851F826103C2251434B
:1016E000C1618161012180F8201009F009FE2946BD
:1016F000DFF83C0C0278A089BDE8F84004E0F1BDB9
:1017000004500020085000202DE9F04184B000F082
:1017100027F8012600F021F8070014D038690C21C1
:10172000017000F8015F00F8018FBE77FFF760F8E5
:1017300000F00DF810B17E7701A838627C80BE768B
:10174000FFF75EFF0646304604B0BDE8F0817862E0
:1017500001A9204605F029BA012700A8FFF741BCDE
:10176000044603208DF801000D469046704710B5E1
:10177000806A10F8011F10F8014F59BB012C18BFE7
:10178000022C27D1DFF8A83B01221C70512005F064
:101790002AF8022C1ED1DFF8F80BDFF8542B007862
:1017A00000280FBF106852F820003C22504303224B
:1017B0004FF47A71B0FBF2F04843DFF8D81B0860B1
:1017C0000246DFF82C0C0078BDE810404FF4804151
:1017D00004F022BB10BD10B504468EB02168086A23
:1017E000A8B1C97F01AAFEF7F7FEDFF8080CBDF823
:1017F0000E10C08A81420AD0206800889DF82120FE
:1018000000904FF6FE73BDF8100002F01DFE0EB002
:1018100010BD00000C500020105000205843002044
:101820005C430020C89D2100D29D2100D09D210055
:1018300070B5DFF8CC2512780021002A18BF012AE4
:1018400019D1002200E0521CDFF8AC3B1B789A4211
:1018500011DADFF8A83B242404FB02342379FF2BA0
:101860001CBF238A002BEED0002819BF002323823F
:10187000591889B2E7E700F07CFB00E0521CDFF862
:10188000644C2478A2420FDA1C245443E55AB54232
:101890001EBFE5182C8B002CF0D0002819BF0024A7
:1018A0002C83611889B2E9E7084670BDD243002055
:1018B00038B5DFF8405B0C4695F87210814211D2C2
:1018C000FFF7DEF9DFF8380B04806421E87901FBCB
:1018D00000F2BDE83840DFF8180B00784FF40071D3
:1018E00004F08BBA31BD38B5DFF8205C04462868B7
:1018F00003E00188A1420AD040680028F9D10820FD
:1019000002F006FF18B1048029684160286031BDEB
:10191000F4430020D043002070B5DFF8F05B286866
:1019200082B0002401E04068641C0028FBD1E4B2CE
:10193000600002F0EDFE06001FD02868002105E0DF
:101940000288C9B226F81120491C40680028F7D146
:10195000DFF8A01AB1F86E00CA8A009690422346BA
:1019600001F1390203D10021FFF71FFE02E000213F
:10197000FFF79AFD304602F031FFBDE8734007F0F3
:101980001FBC10B5DFF8844B03E04168216002F012
:1019900025FF20680028F8D110BD00002252002049
:1019A000F8B5DFF8500ADFF8585A848C298881840A
:1019B0005020294604F020F92E88002704E0B14287
:1019C00018BF00F0DCFA7F1CDFF8180B00788742A4
:1019D00009DADFF8980B1C2101FB07004189A142BD
:1019E000EDD14681EFE72C88DFF8445C286870B1C0
:1019F000062003F0FFFE50B1D52101700021817057
:101A00000121C17084802968BDE8F4400847F1BD18
:101A100024520020DFF81C0CC18A4FF6FE7291425E
:101A200000D1704780B5807B800704D500F00EFBA5
:101A3000BDE801401BE001BD10B5DFF8B80990F822
:101A4000660098B14FF47A7101FB00F403F0D0FE08
:101A5000DFF8E41B098808400219DFF894090078D0
:101A6000BDE810404FF4807104F0D6B910BD2DE9E7
:101A7000F84F00250024A84603F0D3FA47460FE0AC
:101A8000484603F0B5FA48B10179002918BF042986
:101A900004D1807A00F0C8FB00B16D1C09F1010788
:101AA000DFF8540906785FFA87F9B145E8D300F00A
:101AB00022FA8146002709E0384600F041FA20B1B9
:101AC000807C00F0B1FB00B1641C7F1CFFB24F456D
:101AD000F2DB6419E4B2002C49D0A00002F018FE39
:101AE0005FEA000842D04FF0000AA200FF2103F095
:101AF00051FE00271CE0384603F07AFA5FEA000B3B
:101B000015D09BF80400002818BF04280FD19BF8BB
:101B10000A0000F089FB50B1009401469BF80920AF
:101B2000BBF800000AF1010A434600F067F87F1C89
:101B3000FFB2B7423EBF5FFA8AFAEDB2AA45DAD3E6
:101B40000027FEB24E4512DA304600F0F9F90500E2
:101B50000AD0A87C00F068FB30B1009401466A7C92
:101B60002888434600F04AF8771CEAE70024DFF8AB
:101B7000C40A007B622518B103F0B9FDC0F1540519
:101B8000EDB2032095FBF0F6F6B2202EA8BF1F267B
:101B9000C14600270DB120270025E4B2A64232BF7E
:101BA000B346A34647F040074A463946584600F038
:101BB00057F8824678060BD4ABF10100C1B2002081
:101BC00002E009F10409401CC0B28842F9DB641A42
:101BD000BAF1000F01D17806DBD5B8F1000F1CBFB8
:101BE000404602F0FBFD5046BDE8F28FF343002073
:101BF0004052002028510020DF9D2100F0B5059CB7
:101C0000002500264FF6FF7702E01D461B1D761CBF
:101C1000F6B2A64223D2B3F800C0BC451CD015B121
:101C20002D888542F1D26045EFD29C46BCF8005029
:101C3000BD4205D0761CF6B2A6420CF1040CF5D3D9
:101C400065463CF8044D2C8063459CF80240AC701E
:101C50009CF80340EC70F3D318809A70D970F0BDF3
:101C6000F8B5044604EB4400801C8DF801000E46D4
:101C70001546FFF771FD30B3016908220A7004F0C0
:101C80001F0232434A70891C002212E02B8801F89F
:101C9000013B521C2B881B0A01F8013BAE78EB7804
:101CA00003F0070306F0070643EA061301F8013BB9
:101CB0002D1DD2B2A242E9D34FF6FC714180877646
:101CC00007F0D6F907463846F2BD2DE9F843044639
:101CD0000026A36A5A7803F1020C4FF6FE71130630
:101CE000084602F01F0930D409EB4905237FAD1CDB
:101CF000EDB2AB4229D1B9F1000F05D09CF800003C
:101D00009CF8013000EB0320DFF82859EF8AB64633
:101D10000AE01CF8013B1FFA81F803F00703B845FD
:101D200008BF1E460EF1010E5FFA8EFECE4511D29F
:101D30009CF800109CF8013001EB03211CF8023FD5
:101D40004FF0880813EA080FE3D0BDE8F243D32030
:101D500009F05EBC2EB989B280B200F057F80028B5
:101D60004CD0A08903F086F806F1010988B1002162
:101D7000C171DFF8C818027A09788A4207D3491C72
:101D800001EBD1714910072E0172B8BF4E46467261
:101D900034E0A0894FF6FF7100F070F8070010D111
:101DA00000F089F8070029D000F02CF8A0893880CD
:101DB000A88C7881AA20B87400F063FA38740120E6
:101DC0007874DFF878080178387C884207D3481C9B
:101DD00000EBD0704010072E3874B8BF4E467E74AA
:101DE00000203873B81C04F0D3FE38B9207A28B12B
:101DF000A169B81CBDE8F44303F0B0BCBDE8F183B1
:101E00003C5200201C22002103F0C4BC4FF6FE739C
:101E100010B598421CBF02F06003602B0ED0DFF8B3
:101E20001438DB8A940607D4520603D5834205D2C0
:101E3000002010BD8342FBD39942F9D3012010BD8D
:101E400038B50024DFF8245705E01C2000FB0450BF
:101E500000F095F8641C00F046F98442F5DB0020A0
:101E6000DFF8DC1701EB80034FF6FE725A80002288
:101E700001F82020401C0328F4DB31BD30B50023DD
:101E8000DFF8E84601E05B1CDBB2DFF8E4261278FD
:101E900093420EDA1C225A43155B8542F3D1121984
:101EA00055898D421CBF4FF6FF75A942EBD11046F4
:101EB00030BD002030BD70B54FF6FF714FF6FE709B
:101EC000FFF7DCFFB0B90025DFF8A0460DE01C21CC
:101ED00069430E19B27C002A1CBF727C002A03D110
:101EE000085B02F0D6FA30466D1CDFF884160978DC
:101EF0008D42ECDB70BD10B500200021DFF86C26B0
:101F00004FF6FE7407E01C2303FB01231B88A3424A
:101F100018BF401C491CDFF858361B78C9B29942DB
:101F2000F1D380B210BD38B504460D4603E000F091
:101F300026F829462046FFF7A1FF0028F7D131BD3A
:101F400070B5002100F015F801E0491C521CDFF8C3
:101F500020462478D2B2A24209D21C245443E55A26
:101F6000B542F3D0CDB28542EFD1E01870BD00206C
:101F700070BD0022DFF8F4354FF6FE76704710B5DD
:101F8000040007D0FFF73EFF4FF6FE7020804FF6AB
:101F9000FF70608110BD38B5044600250AE0DFF807
:101FA000CC051C2101FB05004189A14218BFFFF7A8
:101FB000E6FF6D1CDFF8B80500788542EFDB31BD28
:101FC00038B50446DFF87C0600780D46002811BFBE
:101FD0000128DFF86006808C854205D1204602F09A
:101FE00049FF08B1083032BD29462046FFF746FFB9
:101FF00000B1103032BD2DE9F04704468A46002674
:102000000027DFF8688517E01C2000FB07F909EBC3
:102010000805A81C04F0BCFD60B139F80800A04216
:1020200008BF46F00A065146A81C03F089FB08B118
:1020300046F0A0067F1CFFB200F055F8874202DA96
:10204000F0B20028E0D0F0B2BDE8F08770B500250E
:10205000DFF8A04316E0284602F0CAFF00281EBFA2
:102060000179012902290CD0C1794A1CC27194F866
:1020700067208A4205D2002181724172008802F0F5
:1020800008FA6D1CDFF870030078EDB28542E2D3E8
:102090000025DFF8D86415E01C2068434FF6FE7277
:1020A000815B91420DD081190A7B531C0B7394F80C
:1020B0006730934205D200228A744A74805B02F032
:1020C000E8F96D1C00F00FF88542E5DB0020DFF831
:1020D000701511F8202012B1521E01F82020401C6A
:1020E0000328F6DB70BDDFF8880400787047000035
:1020F000254B00202DE9F0470546884692460024EE
:1021000000200121BD4EDFF864744FF6FE7909E02E
:1021100003F06EFBC0B290FBF4F104FB1100C0B2FF
:1021200000240021002201E0521CD2B2DFF8B433B7
:102130001B789A421CDA1C23534333F807C0CC4562
:1021400018BFAC45F0D0C4451FBFD44503EB070C06
:102150009CF811C0BCF1000FE6D0BCF1070FE3DA28
:10216000641C0029E0D1E4B28442DDDBD85B3BE0B3
:10217000DFF8D0241278002A18BF012A2CD10022BF
:1021800001E0521CD2B29C4B1B789A4224DA2423E1
:10219000534333F806C0CC4518BFAC45F1D0C44515
:1021A0001FBFD44503EB060C9CF809E0BEF1000FFD
:1021B000E7D0BEF1070FE4DA9CF804C0BCF1010FD0
:1021C00018BFBCF1020FDCD0641C0029D9D1E4B2E5
:1021D0008442D6DB985B07E0E4B224B118B9012C45
:1021E00096D101209CE74846BDE8F0872DE9F041F3
:1021F000044688460027DFF8746300E07F1CFFF781
:1022000072FFFFB287420AD21C2000FB07F5A81913
:102210004146801C03F094FA0028EFD0AC53BDE88F
:10222000F0810000D851002007210D28A8BF01210E
:1022300009DA0728A8BF032105DA0328A8BF05216A
:1022400001DA00B9002108467047F8B505460E4688
:102250001746FFF730FE040012D0FFF7D3FD2580AC
:10226000668107B90127DFF8CC03A77490F86C00EA
:1022700001280CBF00200720607400F002F82074D1
:10228000F1BDDFF8B8030078401C00EBD0704010BF
:102290007047F8B504460025B44E15E01C2068438D
:1022A000815BA14207D04FF6FF7294420BD14FF6EB
:1022B000FE72914207D08719B81C04F069FC10B96E
:1022C0003846FFF75CFE6D1CFFF70DFF8542E5DB2E
:1022D000F1BD4FF6FF70DCE7DFF86C030FF215017C
:1022E00041600FF2310181600FF24901C160704716
:1022F000F09D210080B5DFF8541309688A7942B94E
:10230000C2680968407802F07BFCBDE8014006F035
:1023100057BF01BDC748B0F87010491CA0F8701035
:1023200089B2002904BF0120FFF782BA704700007C
:102330003752002010B5C64A127882B00AB9E12996
:1023400025D10189491C018189B22A4829B9A0F8FF
:1023500070100120FFF76CFA13BDBE490978B1B1C6
:10236000B0F87040A14212D20020FFF761FA642158
:10237000414391FBF4F11A2909DBB74909680A00C6
:1023800005D0ADF80200ADF8004000A8884713BDA5
:10239000E9430020E851002000B583B000A90022E5
:1023A00000230CC100A903F0CBF908B100200EBD39
:1023B00001200EBDA948AA490160AA494160AA4965
:1023C000097801290ED10FF2211181600FF241111C
:1023D000C1600FF2A11101610FF2092141610FF2F9
:1023E000250181618068010018BF00477047000027
:1023F000A8510020EC4A0020C89D2100F84300208D
:102400002052002070B58AB0054602208DF80500E4
:1024100001A8FEF7E6FD040061D0206904210170E7
:10242000602141700120A076A077FEF7E1F960629B
:102430006580E07E7F4D20B92878E0762878401CC2
:102440002870207E01280AD18848007828B1E87ACF
:10245000002804BF2078002801D1002020760DF14B
:1024600002012046FDF7EEFF060035D0242002F0E1
:102470004FF9029068B32422FFF7C5FC00A9502051
:1024800003F0ACFB0299BDF800004881E88A02998C
:10249000ADF8200002200873029908720299608842
:1024A000088001200299C88102999DF80200C8772E
:1024B0000299607D487302980662E08AADF81200C6
:1024C000607D8DF8140002A806F086FD029802F0E7
:1024D00085F9304602F082F9204602F07FF90AB011
:1024E00070BD0000D79D210038B50024604D06E086
:1024F0000422FF2105EB840003F04CF9641C5D48C5
:102500000078E4B28442F3D331BD0000F8510020DA
:102510002DE9F04184B00024464DDFF854814FF698
:10252000FF7602E030187880641C524800788442BC
:1025300019DA38F82400B042F6D008EB840778881E
:102540000028EFD102208DF8080038F82400A98C6B
:10255000ADF8000000A803F0E6FB0422FF21384696
:1025600003F018F9E0E7BDE8FF810000EC46002029
:10257000D79D2100FEB5044602202E4F8DF808009D
:102580000D46B98CADF80040FF2600A803F0C9FB4A
:102590001A2824D03749364A097800204FF6FF7CA4
:1025A00004E0FF2E08BF0646401CC0B2884208DA8D
:1025B00032F820306345F4D0A342F5D102EB80001D
:1025C00006E006D1FF2E06D022F8264002EB860058
:1025D00045800120FEBDB98C00A803F0A4FB0020BB
:1025E000FEBD00003EB5044602208DF80800ADF89F
:1025F00000401048818C00A803F095FB1D491C4B3E
:10260000097800204FF6FF7501E0401CC0B28842F7
:1026100005DA33F82020AA42F7D0A242F5D1884249
:1026200005DA0422FF2103EB800003F0B3F837BD85
:10263000DC510020EC4A0020E89D2100DA9D2100B9
:10264000285100203C520020CC5000201452002081
:10265000E09D2100F0430020704F00201450002026
:10266000A95020000F512000375200203252002084
:1026700078500020EA9D21002DE9F04104460D46E6
:102680000026AC4203D004F08FF8070001D10126E8
:1026900027E0284604F088F818B10146284604F0DF
:1026A000DDF900223946284604F05EF8C8B1384604
:1026B00002F02EF85FEA000812D043463A460021A5
:1026C000204604F090F930B943463A4600212846A6
:1026D00004F089F800B10126404602F07FF800E0DE
:1026E00010263046BDE8F081DFF89C140020086019
:1026F000704780B506F06DFC58B90022012100F04A
:1027000039F930B1016800291CBFBDE8024005F06D
:102710000AB901BD80B5042000F01EF9DFF86C1481
:102720000978814207D3FF2000F016F9DFF8601422
:102730000978814201D2012002BD002002BD2DE9AD
:10274000F04107468846387B002400F022F9054610
:10275000012625BB7A89397B386800F0B7F8050077
:1027600062D02C81387C2874788A688207F1100046
:10277000FEF799FC68614FF67F41388B288301246E
:10278000B87EA87668890840688141074FBF40F04D
:102790008000DFF80014097840EAC1106881688978
:1027A000C109B8F1000F01F0070112D002226A73CB
:1027B0002A68927B520703D5DFF8DC23128A2A812C
:1027C00021B34FF67F421040491E40EAC110688194
:1027D0001CE009B9002619E0810605D503F008F8C8
:1027E00000F07F005F3008E0C00605D503F000F878
:1027F00000F00F000A3000E0012028812021042091
:102800006873DFF89803007803F016F96CB12A8931
:10281000697B284600F06DF838B1686908B101F0AD
:10282000DDFF284601F0DAFF00263046BDE8F081E2
:102830003EB5002400F0ADF898B3417B062930D1B5
:1028400001684489097A8DF8081001680988ADF893
:10285000001000F0E5F8200522D5BDF8001000209A
:1028600000F021F8E0B9DFF83043A18C00A803F0B4
:102870005AFA002100200CE0286801884FF6FF7208
:1028800091420DD0A18C03F04CFA1A2808D00021F7
:10289000284600F008F80500EED1002003F045FAC4
:1028A000012420463EBD18B9DFF8DC02006800E0D4
:1028B000406840B142891205FAD500291EBF02685E
:1028C00012888A42F4D170470120704770B50446DF
:1028D0000D4616461C2001F01BFF48B10021417334
:1028E0000573468101818173C17304604161416058
:1028F00070BD70B504000D4616462BD0012D28463C
:1029000006D100F029F8A649097881420CD207E0E7
:10291000042D07D100F020F89C490978814203D2A8
:10292000112070BD022D15D16573268100206060D5
:102930009548016831B100E0014648680028FBD1A4
:102940004C6000E0046095480078202103F074F8A2
:10295000002070BDC12070BD8B4A1268002105E0C7
:10296000537B5268834214BFFF28491C002AF7D1C9
:10297000C8B2704710B98448006800E0406838B1B8
:10298000437B8B42FAD11AB103689B7B5B07F5D47A
:1029900070477D49096800E0496821B10A7B82429D
:1029A000FAD108467047002070477749096800E06F
:1029B000496861B10A6813888342F9D1126A1378B1
:1029C000527803EB0222D205F2D408467047002069
:1029D0007047F8B50446002620000D460AD06A4824
:1029E000076800E07F682FB129463846A0470128D4
:1029F000F8D13E463046F2BD0020704710B562491E
:102A00000A681346002401E01C465B683BB1834220
:102A1000FAD15868934201D1086010BD606010BDC2
:102A200010B5040011D0FFF7E9FF2068006A01F03B
:102A3000D5FE206801F0D2FE606908B101F0CEFE3B
:102A40002046BDE8104001F0C9BE10BD38B5016890
:102A50004D4A098812680023002409E0557B052DA2
:102A600001BF641C15682D888D42526808BF5B1C2D
:102A7000002AF3D14B4A48491278DBB293423FBF58
:102A8000494A1278E4B294422CBF01220A8A028198
:102A90004FF6FF7305224273428942F4006242817D
:102AA000006802889A4204D0898C03F03AF91A2807
:102AB00004D1BDE83240012003F037B931BD10B573
:102AC00050B150F8081C002902BFA0F108018A7912
:102AD000FF2A03D002F0A0FE052010BD2F4C227863
:102AE0008A7132490A780146314802F082FF012892
:102AF00006D120784FF4005102F09EFF002010BD57
:102B0000042010BD70B508F05DFF294D2E6800F05F
:102B1000010080F001048EB1204856F8081C0078AE
:102B200000294FF4005102D002F086FF01E002F0CC
:102B30008FFF00223146284602F03CFF0CB108F01E
:102B40003DFF304670BD70B504460F48066800254D
:102B500014E030680088A0420FD100203081B07AA4
:102B6000400744BF307B01F0A6FA06207073F021C5
:102B70003068407B04F037FF6D1C7668002EE8D18A
:102B8000E8B270BD000000000C520020CA9D210078
:102B9000CB9D2100D9430020EC4A0020A851002001
:102BA000C99D2100CD9D2100CE9D2100D99D2100F0
:102BB0001052002070B50D460446298800F028F810
:102BC00008B1B82070BD00F08FF86E4909788842CE
:102BD00001D3B22070BD182001F09AFD060001D18A
:102BE000102070BD00203060347112222946B01DC3
:102BF00002F0B8FD6448016811B9066004E00146BE
:102C000008680028FBD10E6000F095F8002070BD28
:102C10005D4A126842B11379834212BFFF28D388FC
:102C20008B42F6D1901D70470020704710B5564A70
:102C30001468FE290CBF0123002303E0914208BF62
:102C4000012324683CB1E2888242FAD12279002B28
:102C5000F4D0104610BDFE2010BD10B500224A4B26
:102C600007E01C79844204D1DC88D2B221F81240FA
:102C7000521C1B68002BF4D1D0B210BD38B5424BAA
:102C80001A68002401E0144612688AB11579854259
:102C900004BFD5888D42F6D11068002C0CBF186097
:102CA0002060104601F09AFD00F045F8012032BD89
:102CB000002032BDF8B5344D04462868002603E0F4
:102CC000076801F08BFD384658B102790168A242CD
:102CD00004D1002E0CBF29603160F1E7064608469A
:102CE000F2E7BDE8F14026E00020274900E0401C63
:102CF00009680029FBD1C0B2704710B5214800789F
:102D000014214843811C002289B2422003F02CFD8B
:102D1000040018BF00F002F8204610BD80B5002066
:102D2000ADF8000000F001F801BD00AB0222002167
:102D3000422003F058BD10B586B00020ADF8000069
:102D40001148046818E020798DF804001222A11DB2
:102D50000DF1060002F006FDBDF8000014225043FC
:102D6000811C01AB89B2422003F03DFDBDF800009B
:102D7000401CADF800002468002CE4D1FFF7D5FF1B
:102D800006B010BD309E2100FC51002030B587B048
:102D9000002400AB02220021422003F024FEC8B927
:102DA000002512E014206843811C01AB142289B273
:102DB000422003F018FE38B99DF804000DF1060119
:102DC000FFF7F8FE00B9641C6D1CBDF80000ADB241
:102DD0008542E7D3A0B207B030BD50F8041B61B103
:102DE00050F8042BD30744BFA9F101039A1800231C
:102DF000091F42F8043BFAD1EFE7704710B501F024
:102E000061FB0021DFF8E02B4FF6FE70002407E0A5
:102E100002EBC10358805C705C6002F83140491CD1
:102E2000DFF8243C1B789942F2DB002107E0DFF851
:102E30001C2C0A2303FB0122491C50801472DFF86A
:102E4000102C12789142F2DB0021DFF8082C02E00E
:102E500022F83100491CDFF8003C1B78C9B29942C6
:102E6000F6D3DFF8F80BDFF8F81B007808704FF4A2
:102E70007A72DFF8F00B0078BDE81040102102F004
:102E8000CBBF2DE9F04380460E46F00785B0914652
:102E9000DFF8D44B08D5B0074FF6FC7854BF46F0A6
:102EA000080646F0100630E0404601F065FAE18A77
:102EB000884205D032460221404601F02FFA08B977
:102EC000002068E0334602224FF6FE71404600F0D3
:102ED00048FC00285ED106F0DF06700615D446F0E7
:102EE000200702A9404603F060FE68B9A18C404665
:102EF000FEF7C4FF050008D0A81C03F049FE20B16E
:102F0000A91C02A802F02AFC3E46DFF8605BE38AB7
:102F10002F780120009000223946184600F006FF65
:102F2000791C2970B0BBB0064CBF0E2006208DF86E
:102F3000050001A8FEF755F8040029D00120A0776C
:102F4000FDF756FC606201212069017006F07801EE
:102F50004170877080F803804FEA182101710021C9
:102F60004171B10603D502A9801D02F0F7FB4FF6AF
:102F7000FD70B9F1000F608006D0DFF8A80C007872
:102F8000814538BF84F81A90204606F071F802E0B7
:102F9000102000E0C72000F0D0BD10B5DFF8C44A13
:102FA00020784FF4805102F06DFF20B1DFF8781CDB
:102FB0000120087010BDDFF8740C0278DFF8700C87
:102FC000007801280CBF012103210020FFF759FFE1
:102FD000DFF8E80C02882078BDE810404FF48051FB
:102FE00002F00BBF2DE9F84304460D4616469846FD
:102FF000FEF720F810B14FF6FF7046E0DFF8340C12
:10300000007802283DD1DFF8300C0178204601F02D
:10301000FBFAA0BB00F056FE089901F046F9070044
:103020002FD0787901284FF6FE791AD1B9797888AE
:10303000182211420ED0DFF8881C097839718542B8
:103040001CBF8642804509D1424631462846FFF7DB
:1030500051F803E0DFF8101A097D3971484506D0B0
:1030600013E0032806D0042808BF48460DD078791D
:10307000022806D00721204601F0C6FA08B12046F2
:1030800003E02046BDE8F24301E0BDE8F28310B55D
:10309000044601F0C9FE18B9204601F0E1FE08B16E
:1030A000204610BD4FF6FE7010BD2DE9F8430446D2
:1030B000884691460027FDF7BDFF002856D100F055
:1030C00001FE494601F0F1F8060021D0707903288D
:1030D00016D1B07902251821084231D1002140468D
:1030E00001F04AF9DFF88019C98A884233D1DFF844
:1030F000EC0C027849462046FFF7C3FE012735E075
:10310000012833D17088072101F07EFA70BBE0E717
:103110002046FFF7BCFF01F0ADFE38B34179CA0786
:1031200024D501258A0707D501222146404600F013
:10313000F4F90028D2D119E041F002014171CDE744
:103140007088009001274FF6FE730022214640460A
:1031500001F07AF90AE02A462146404600F0DDF9FE
:1031600020B901274946204600F0AFFD3846BDE8AA
:10317000F2832DE9F04FDFF8F06888460446B18C01
:1031800089B093464FF0060A4046FEF719FF5FEA02
:10319000000903D099F80100002867D0A06A45789B
:1031A00081788DF80C10C178007901EB002740463A
:1031B00000F0A0FDA16A497940188DF80400A80626
:1031C00048BF4FF00E0A87210D4206D105F01800C6
:1031D000182802D0207F504503D0D32008F018FAD9
:1031E00044E0002000F095F805F07805434600F033
:1031F0009DFD03283AD04FF6FF7A98BB18210D4267
:1032000036D045F00105E80648BF45F00205A08923
:10321000294601F04AF802001EBF907918210842A1
:1032200012D0507901280FD1B9F1000F0CD0B18C18
:103230005088FEF7C5FE00281CBF4078002803D048
:1032400099F80110884211D300F06AF850B9ABF830
:1032500000A00021207A00B1A1699DF80420A08976
:1032600001F0CCFCBBF80000504510D000204DE030
:10327000707B08B100F054F82B4602224FF6FE7125
:10328000B8B200F06EFA0028ECD1ABF800A0012033
:1032900000F03FF8434600F049FD2946B8B201F07E
:1032A0006BF8F18A88422BD1B8B201F0E3FD48B146
:1032B0000079012818BF022804D104A9B8B203F08C
:1032C00074FC05E0FDF794FA014604A802F046FA02
:1032D000207A012803D1A16906A802F03FFAA06A6A
:1032E00040789DF80C3040F030000290002204A895
:1032F0000190B9B206A80090A08900F09EF8B5E749
:10330000A16A9DF804004871FDF787FA09B0BDE88D
:10331000F08F00909DF804209DF80C10A089704754
:10332000A0892B46012241461BE22DE9F04F0446BD
:10333000DFF834970846B9F8241087B00827FEF75D
:103340003FFE58B1417849B9DFF8041C0978491C9F
:1033500001EBD1714910017007214170A06AC17859
:103360000279467890F802B090F807A001EB0228A5
:103370004179827901EB0225F10648BF1027B10699
:1033800044BF07F10801CFB236F0700104BF217FBE
:10339000B94203D0D32008F03BF946E006F07006AE
:1033A0000021F20607D500F1080105A802F0D6F9C0
:1033B000082106F0EF06B00608D5A06A081800F14B
:1033C000080103A802F0CAF906F0DF0659461FFA01
:1033D00088F000F053FFDFF878160978884208DAA1
:1033E00000F095F881798A451FD280F806A0002068
:1033F00000E00420B9F816101FFA88F78F4212D0A7
:1034000018B900F015F880B901E004280DD103A81F
:103410000190029605A800905B465246A9B2384634
:1034200000F00BF801E000F003F807B0BDE8F08F02
:10343000A18933460122A8B293E12DE9FE4F8A46C5
:10344000984605469346414600F018FFDFF80016FF
:103450000978884204DA00F05AF8B0F8049001E0E4
:103460004FF6FE7908208DF801000E9CE00644BF5F
:1034700010208DF80100A00604D59DF80100083049
:103480008DF8010000A8FDF7ACFD06003DD001203D
:10349000B077FDF7ADF9706201A9484603F085FBEE
:1034A00018B10120707701A806E0E00605D54D456A
:1034B00003D1012070770C98306237690220387090
:1034C0007C7087F80280FD70280A387187F805A0A3
:1034D0004FEA1A20B871484600F00CFC5844F871C5
:1034E0000020E10605D50C9907F1080002F036F935
:1034F0000820A10604D50D99C019083002F02EF954
:10350000A6F80290304605F0B3FDBDE8F78FDFF86E
:103510003C150A2202FB00107047F8B5DFF8485549
:103520000746E88A012687420C4604D00023384625
:10353000FDF704FF06460021384600F01DFFE98A2A
:10354000884214D10021204600F0AFFE00281EBFA3
:1035500081791822114206D000F070FFE98A0088B4
:1035600000F072FF03E00121204601F037FB3046F6
:10357000F2BD2DE9F843DFF8EC54DFF85C4B287816
:10358000102102F07FFC28B928784FF47A721021BC
:1035900002F042FCDFF8C8040178491E0170C9B28C
:1035A00029BBDFF8B814097801700022052100203A
:1035B000FFF7E0F9060019E0002205213046FFF789
:1035C000D9F90546308980B1401E308180B260B99A
:1035D000B07A400744BF307B00F06DFD0620707369
:1035E000F0213068407B04F0FEF92E00E4D1002683
:1035F0004FF6FE751AE02079002818BFFF2813D077
:10360000401E2071C0B278B96079032804D12188A6
:1036100060880222FFF781FF6079012804D02580AD
:10362000658000206071A071761C0834DFF8740B8F
:103630000078F6B28642DED34FF000090FF269043B
:10364000DFF808640CE0FFF7EBF939462046FFF796
:10365000C0F90028F7D17D8008F8060009F10109BA
:10366000DFF8EC03007881450BDA0A2000FB09F84B
:1036700008EB0607387A401E3872C0B20028EDD138
:10368000E3E70020DFF8601306E011F8302012B104
:10369000521E01F83020401CDFF8AC231278904213
:1036A000F3DBBDE8F183000030B50C4600258DB09A
:1036B000002C1EBF0168086A002814D0C97F00AA28
:1036C000FCF78AFFBDF80C006188884204BF9DF8B2
:1036D0000200012807D10A980178012901BF8078EA
:1036E00021788842012528460DB030BD10B550B96B
:1036F00000F011F804464FF6FE70844207D1DFF85F
:10370000B80C007818B1012000F005F80446FDF768
:1037100058FA204610BD30B585B0D34C02F068F899
:103720000546E08A8542F9D0FDF76FF88542F5D06D
:103730002846FDF77FFC0028F0D1002DEED08DF853
:103740000000ADF8025000A803F08EFA0028E5D181
:103750004FF6FE708542E1D0284605B030BDFDF73A
:1037600030BA2DE9F04707464FF6FC70874288468D
:1037700015461E4657D00021384600F0FDFDBA4CD4
:103780000746E08A874201D1700654D53146384653
:1037900000F08BFD01004FF6FE79DFF83CA91AD14D
:1037A0000021484600F081FD010014D118210E428D
:1037B00033D0DFF8F009027800238C4601E05B1C6F
:1037C000DBB293420AEBC30103DA887910EA0C0FEB
:1037D000F5D1934221DA0F80C84518BFA1F80280C5
:1037E000F00748BF46F00406DFF8D4048E71012DBF
:1037F000007816D101224A7118238A791A420ED014
:1038000008714046A18CFEF7DBFB002841D1DFF8B0
:103810009419DFF8A85B0A7810E002203AE0207DD6
:10382000EEE74A79012A34D08A7918231A4208BF70
:10383000E07C08714D712CE0401CC0B2DFF8801BA9
:103840000978884225DA1C23002103FB00F606E0F4
:103850000AEBC103775B5B88BB42EDD0491CC9B260
:103860009142F5D3E8D177191C220021384601F0A6
:1038700091FF26F80580A08C7881AA20B8740120D9
:103880007874DFF8CC060078401C00EBD070401054
:1038900038740020BDE8F0872DE9F8430646DFF8CC
:1038A000980B00780C468442904628BF052036D2FB
:1038B000304607F040FD304600F098F881466248F7
:1038C0000578A94504D14FF6FE7000F08FF88146C7
:1038D000A94523DA444D05EBC907786808B100F023
:1038E0007DFF34B1600000F013FF786018B901204B
:1038F00015E0002078607E807C70DFF8F80B00789F
:1039000005F83900787800281CBF7868002803D0B3
:103910006200414601F026FF002000E00720BDE8DC
:10392000F2832DE9F0470446DFF80C0B00780D46D2
:103930008542904628BF05203CD2204600F056F82C
:1039400006464148DFF8A0A00778BE424FF6FE7950
:1039500014D1484600F04AF80646BE420ED19AF805
:1039600000000026012106E01AF8312082423CBF07
:1039700010460E46491CB942F6DBF6B20AEBC60702
:10398000A7F80290786818B100F028FF002078604E
:1039900045B1680000F0BCFE786068B16A0041463D
:1039A00001F0E0FE7C807D70DFF8480B00780AF8BB
:1039B00036000020BDE8F0870120FBE738B50C4653
:1039C000154600F013F8204A12789042014608D2BA
:1039D000054800EBC1004178217040682860002054
:1039E00032BD042032BD0000D04B002038B516494E
:1039F000DFF84C2C0978002401E0641CE4B28C420E
:103A000004DA02EBC4035B888342F6D18C4204BF24
:103A10004FF6FE73984214D1002401E0641CE4B216
:103A20008C4203DA12F834000028F7D18C4208DA0D
:103A300002EBC4056B80686818B100F0CFFE00206F
:103A40006860204632BD0000D59D2100E84C002072
:103A5000D69D2100D44D0020DD9D2100CC9D21006C
:103A600043520020A8510020EC4A0020425200207E
:103A70002DE9F043044685B0A06ADFF8809B4578C5
:103A80009DB1DFF8B4190978801C8D4255DA002108
:103A900007E00378477803EB072329F81230801CEE
:103AA000491CC9B20A46AA42F3DBDFF8980BC28A66
:103AB0006089904206D1A0894A46294605B0BDE8F2
:103AC000F043E9E6A17CC1B30027A846002100E04D
:103AD000491CC9B20B46AB4205DA39F813309342A0
:103AE000F6D188460127002100F0DFFB060014D044
:103AF0007079012811D1B079182108420DD072884F
:103B00004946284600F0F8FC08B9012F05D1A089E4
:103B10004A46294600F0FFFC7080A37C581EA07422
:103B2000CDF8089001200390CDF80480E07C00904F
:103B3000A269A189608900F003F805B0BDE8F083AF
:103B40002DE9F04782B080460D9D0B9C002D1ABFD9
:103B50006000001D02208DF80100894617469A4634
:103B600000A8FDF73EFA06003AD0A6F80280A6F8B3
:103B7000049086F81AA00A98F076B07F012809D13F
:103B8000FCF73FFEB188814204D0002F12BF77625C
:103B90000020B0773769052007F8010B15B907F841
:103BA000014B1AE0601C07F8010B00210C9808E09B
:103BB000028807F8012B491C30F8022B120A07F87B
:103BC000012BC9B2A142F3D3FCF71BFE07F8010B8E
:103BD000FCF717FE000A07F8010B304605F048FA1B
:103BE000BDE8F38701EB400030F8020C7047F8B5F0
:103BF0000446DFF84408007884420D4616460FD28A
:103C0000002700E07F1CFFB2A74205D2FCF7F9FDB8
:103C100036F817108142F5D1AF4201D10120F2BD33
:103C20000020F2BDE69D2100A9510020E5430020BF
:103C300035520020E4430020DB9D2100F0B589B01F
:103C400004460D4616460027FDF7F4F908B100209A
:103C500032E000F037F8314600F027FB06002AD0AA
:103C6000B079400727D5FCF7CCFD854208BF039704
:103C70000FD0284601F0E6F8012815D104208DF870
:103C80001000ADF8125004A802F0EEFF01280BD18D
:103C90000390DFF8B409037802970197009705AA0B
:103CA00029462046FFF74CFFB07981075CBF00F042
:103CB000FB00B0710127384609B0F0BDE29D21003C
:103CC000E49D21000021204656E310B50C4600215A
:103CD00000F052FB214600F0E8FA48B14FF6FE71C1
:103CE000018041800021017141718171002010BD6E
:103CF000042010BD70B5DFF84C59297A072499B912
:103D0000A98CFEF75DF906000ED0697BB078012919
:103D100005D1FEF789FA7478844203D201E0FEF7F8
:103D200083FA044604B90724204670BD2DE9F84FF4
:103D30008346884615461E4600F0A0FADFF80C19A7
:103D4000DFF80C9991F800A00A9C0A2750450ADA7E
:103D500007FB0090C1798D4203D2ECB1C57186801A
:103D60001AE0032019E000214FF6FE7000F086FAF9
:103D7000504508BF022010D074B1784300EB090110
:103D8000FF22A1F802B08E80CD718A7100F80980FF
:103D9000DFF8B008C07C08720020BDE8F28F38B5AB
:103DA0000A46002141710020DFF8A818DFF8A83882
:103DB000097800E0401CC0B2884208D2C45C157B80
:103DC000AC42F7D1BDE832401046FEF73FBE04D109
:103DD000062050730021106842E031BDE59D2100AE
:103DE00038B50546A878401EA8706879FEF7D1FD61
:103DF000040034D0A87850B9607B022804D0062093
:103E00006073F02120682BE00620607331BDA87933
:103E1000E8B1287918B3E978491EE970C9B2F1B957
:103E2000DFF820184978E970401E2871617B03296A
:103E300015D1C0B270B10420607301F0D9FC00F05C
:103E40000F00401C20812021BDE8344011E2607B3E
:103E5000032804D121462846BDE834409FE731BD00
:103E6000407BBDE8344003F0BEBD38B500210024DE
:103E7000DFF8E85707E005EBC400827812B1FFF7DE
:103E8000AFFF0121641CDFF8CC070078E4B2844264
:103E9000F1D3DFF8CC47207851B1402101F0F2FF97
:103EA00058B92078BDE838406422402101F0B4BF01
:103EB000BDE83440402101F0CCBF31BD70B50C46A7
:103EC000DFF8985700210BE0EA79C37C9A4202BFE1
:103ED0002A8883899A4201D1AA7852B9491C0835A7
:103EE000DFF870271278C9B29142EDD301D10020DA
:103EF00070BDA87948B3DFF84C07818C2046FDF7E8
:103F0000BDFF10B1A879401EA8710020DFF854173A
:103F1000DFF85427097801E0401CC0B288420BDA70
:103F2000242343439E183679FF2EF5D09B5AA34293
:103F3000F2D1A879401EA871DFF830070078081880
:103F4000A9798842BCBF0020A871012070BD000083
:103F5000DA9D21002DE9F84FDFF86444DFF8FC36E4
:103F600094F80080012404FA08FC4FF000090027AF
:103F700002E07F1CFFB20833DFF8D84694F800A0B7
:103F8000574502DA9C78002CF3D1574508BF002032
:103F900000F08F8083F806900024DFF8A876DFF821
:103FA000C8E60DE0012E18BF032E06D145894FF655
:103FB000FF76B54208BF4CEA0909641C4FEA4C0C75
:103FC000DFF8A0562D78AC4213DA2425654335F886
:103FD0000E608E421CBFB7F816B05E45EDD075443A
:103FE0002E79042E18BF002EDCD19D796D1C9D7199
:103FF000E3E74FF0000CDFF8C4E31AE01C2404FBF5
:104000000CF434F80E508D421CBF4FF6FE76B542CC
:104010000DD07444BE8C6589B54208D1657C002DF5
:104020001CBFA47C002C02D09C79641C9C710CF1F8
:10403000010CC445E2DBDFF838169C790978A1420F
:1040400038BF9971997900291CBF817C01290EBF65
:104050000021B978491C1971B9F1000FF9799970EB
:104060007978D970818919805A71C07CD87113D040
:104070000027DFF8E40501E07F1CFFB2574504DAB2
:10408000395C002918BF9142F6D1574504DA3A54F9
:10409000DFF8E00540F827904021DFF8C44520789C
:1040A00001F0F0FE20B920786422402101F0B4FE36
:1040B0000120BDE8F28F0021DFF89C2500E0491CBB
:1040C000DFF890351B78C9B2994204D28B5C8342E9
:1040D000F5D1002088547047AC480020F8B504465C
:1040E000A07A02285CD1DFF89005DFF89015A27B5A
:1040F00000780978002A39D1DFF884251268130086
:104100001EBFDFF880552B68002B29D0DFF87865BB
:104110003368002B1EBFDFF874753B68002B1FD07F
:10412000012908BF01281BD160889047C0B9DFF87A
:104130006005DFF8601500782A6800280FBF09685D
:1041400051F820003C21414360889047012827D145
:1041500060883168884760883968BDE8F44008475E
:104160006088BDE8F840012201211DE0DFF8282524
:104170001268AAB1012908BF012811D1042001F059
:1041800039FB68B16421017001214170618841806F
:104190000146BDE8F440DFF8C804007801F04BBBED
:1041A000F1BD0000D49D21002DE9F04704460E46E4
:1041B0009146FEF7FAFB002842D1002E44D0804AF7
:1041C000DFF8A4341278012191400026002202E099
:1041D000521CD2B24900DFF88C743F78BA4209DA37
:1041E00024275743FD182D79FF2DF1D0FF5AA74200
:1041F000EED10E460025DFF87C74DFF85C8402E027
:104200000020691CCDB2DFF84C1491F800A0554590
:1042100016DA15F8081000291CBF57F8252032427D
:10422000EFD00846FEF7B5FB0028E9D0417B052911
:10423000E6D157F82510B14347F825105546E0E779
:1042400010B1417B05290AD0B9F1000F0FD0DFF87A
:10425000F403818C2046BDE8F04701F06BBD016896
:104260000C80012141732021BDE8F04701E0BDE849
:10427000F087DFF8EC03007801F0DEBB30B50022F8
:10428000DFF8CC3301E0521CD2B2DFF8C04324780F
:10429000A24208DA0A245443E5186D88854204BF17
:1042A000E45C8C42EFD1104630BDF8B5DFF8EC236A
:1042B000DFF8EC63157801F0400100244FF6FE733F
:1042C00008E006EBC407BF7907F040078F421ED015
:1042D000641CE4B2AC4205DA36F834708742F7D198
:1042E0009842EED1AC4208BF984210D1002401E0C0
:1042F000641CE4B2AC4204DA06EBC4000079002886
:10430000F6D1AC42BCBF36F83400FFF7DEFCAC425D
:1043100002DA06EBC400F2BD0020F2BD70B50D4616
:10432000012D0446164603D1072100F06DF9E8B9C6
:10433000FFF7C8FC3146FFF7B8FF012D04D0C8B124
:104340004079A84216D111E020B14179A94208BFB5
:10435000458802D070060DD425464FF6FE70854282
:1043600008D00721284600F04FF908B1002070BDA1
:10437000A542F1D1012070BD38B504464806B14DC3
:1043800007D52146FF20FEF743FC88B94FF6FE70A3
:1043900032BDC4480078002818BF01280AD1204641
:1043A00000F068FD30B10079012818BF022801D162
:1043B000E88A32BD204632BDDE9D2100EC46002059
:1043C000D79D210070B5022882B00C4616461D46C6
:1043D00015D0042818BF01280FD12A4601212046F4
:1043E000FFF79CFF48B156B12046FFF7FFFAAE49F0
:1043F0000978884203D201203070002076BD002168
:104400002046FFF752FF00281EBF81791822114273
:1044100008D000F013F88B490088C98A00F014F81E
:10442000012076BDA148027829462046FEF729FDE5
:104430000028E2D1F4E70000D89D21004FF6FE717C
:104440000091002243887047F8B504460D461E4689
:1044500012B100230B2216E000212846FFF725FFAA
:10446000070015D0B879C00712D506982246314604
:10447000FDF740FE4FF6FE71884209D07880002398
:104480000C222146284601B0BDE8F040FCF756BF9B
:10449000F1BD834900220FE08B79DB070AD44B88FA
:1044A000834204BF4B79012B04D103234B714FF698
:1044B000FE734B80521C0831784B1B78D2B29A4263
:1044C000EAD37047764800214FF6FE720BE020F8E1
:1044D000022B20F8022B002300F8013B00F8013BDF
:1044E00000F8023B491C6D4B1B78C9B29942EED3D0
:1044F00070470000E643002010B5002300E05B1C7D
:10450000DBB2834205D231F813409442F7D1012047
:1045100010BD002010BD2DE9F74F00240025012615
:10452000DFF844A1DFF888914FF6FE7809E001F04A
:104530005FF9C0B290FBF4F104FB1105EDB2002469
:104540000026002701E0781CC7B24848007887425F
:104550001EDA1C2000FB07FB3BF8092042451CBF6C
:10456000BDF800008242EED000F04AF80028EAD1FF
:104570000BEB0900407C0028E5D00728E3DA641C37
:10458000002EE0D1E4B2AC42DDDB3BF8090033E0C1
:10459000002701E0781CC7B232480078874223DA4E
:1045A000242000FB07FB3BF80A2042451CBFBDF856
:1045B00000008242EED000F023F80028EAD10BEB95
:1045C0000A00417A0029E5D00729E3DA00790128B9
:1045D00018BF0228DED0641C002EDBD1E4B2AC424E
:1045E000D8DB3BF80A0007E0E4B224B11DB9012C86
:1045F0009DD10125A3E74046BDE8FE8F485000202D
:1046000002999DF8040077E770B50E4D0C46A98C11
:10461000FDF7D6FC060011D0B078FDF705FE7178E5
:10462000002918BF002809D06A7B012A02D18142E3
:1046300038BF01468C4201D3012070BD002070BDFF
:10464000D04B0020EC4A0020E69D2100D69D2100A1
:10465000E84C0020DD9D2100F8500020D44D0020C2
:10466000A8510020C89D2100F8430020D79D2100BB
:10467000DC9D2100D04F002037520020395200200D
:1046800018500020245000202C50002028500020DA
:10469000E8430020F09D210014500020D49D21000B
:1046A000AC4800203C520020D59D2100E59D210012
:1046B000EC4600205D4841F2FC72002111525C4939
:1046C00008604FF41C71018048F20401A0F87012D8
:1046D00041F28851A0F87412704738B5012000F0FB
:1046E00017F8040008BF07F05BFA07F06BF90546FE
:1046F0004F49201F0860204600F070F84D49012006
:104700000870002D04BFBDE8314007F057B931BD36
:10471000F8B500240025061D16F003001CBF311D4E
:104720000E1A07F04FF94349414A097800F0010099
:1047300080F0010011B1B6B2112E01D2176800E06D
:104740003D4F3B68C3F3C03CBCF1000F18BF0025D0
:1047500024D1E5B1D4F800C063445B044FEADC3EE9
:104760005B0C43EACE332360B6B25B045B0CB3420E
:1047700014D3274647B33B685C04640CA41BA4B263
:10478000082C14D3F45346F400433B8012E05B043E
:104790005B0CB6B2B342EDD201253C463B685B04EC
:1047A00017EB53473B88002BCBD100270CE043F499
:1047B00000433B6039B11168B94204D139684904FA
:1047C00017EB514111603F1D08B107F0F7F817F0E2
:1047D000030018BF07F0E4F93846F2BD10B5041F16
:1047E0001249884203D301F5C051884201D307F032
:1047F000D7F92068C0F3C03008B907F0D1F907F045
:10480000E1F8216821F40041216000F0010008492D
:104810000A68944280F0010038BF0C6000281CBF79
:10482000BDE8104007F0CAB810BD00004852002093
:10483000487200202E520020BC540020002207F0B5
:10484000B1B9F9CD70B504462568002D75D0DFF8F3
:10485000CC030268100002D0217928469047687B7B
:10486000022838D1A87A800735D52079E9281CBFDD
:10487000CD28F0282FD0A87C00060CD5A87E50B1FA
:10488000A87328680088FCF7D5FB48B94FF49870E6
:1048900006F0BEFE04E0DFF888030078401CA87331
:1048A000207950B9002604E04FF49B7006F0B0FE6A
:1048B000761C6079F6B28642F6D3A87B401EA873B8
:1048C000A876202104206873D64800882881D6481D
:1048D000007801F0B1F8687B022818BF06282CD1B7
:1048E000A87AC00729D52179284607F075F9688983
:1048F0004FF6FE710840688128680088FCF79AFB33
:104900000028207912D170B940F22F1006F080FEF5
:1049100000256079EDB285420FD24FF49B7006F00E
:1049200077FE6D1CF5E740F2311002E028B940F245
:104930002D10BDE8704006F06BBE70BD2DE9F04F44
:1049400099B08846044691460027002504A907F03F
:10495000A9F99DF81D00002804BF9DF82400002837
:1049600008D09DF81000261D400606D5F088FCF7FB
:1049700061FB10B140F235106FE09DF8100000F0BF
:104980000C0004289DF810000CBF4FF0010ABA4635
:1049900080061BD50125BAF1000F17D1FBF731FFB7
:1049A0003189814203D196F82A0000062FD4FBF703
:1049B00028FF01463089884208D096F82A10090657
:1049C00004D404A905F07CFA002844D1718D0806AE
:1049D00012D49DF8100040060ED59DF81100032258
:1049E000104209D19DF8100000F00C020C2A1EBFE5
:1049F00000F00C00082801279DF8100000F00300CB
:104A0000022808D1308904A907F03EFA9DE0F08819
:104A1000ADF82A10D5E7012812D12FB1080603D42A
:104A2000308904A907F0BEF904A80C903089ADF8CC
:104A30002C00B0788DF82E000BA807F0D8FA84E08F
:104A40000028FCD1DFF8E4B19BF80B00012804BF7B
:104A5000B078002804D14FF49A7006F0D9FD74E0C4
:104A600002208DF85C003089ADF8540096F82A00D9
:104A700000063CD502208DF83C00F088ADF83400EB
:104A80009DF813008DF83E009DF812008DF83F0050
:104A9000BBF82400ADF84000BDF81600ADF84200A8
:104AA000BDF81800ADF844009DF82400ADF84600AC
:104AB00008981290708DADF84C009DF826008DF886
:104AC0004E0020798DF84F00B07B8DF850009DF896
:104AD00025008DF851009DF827008DF8520094F8BC
:104AE00030008DF853000DA804F0A4FE2DE01FB196
:104AF000308904A907F056F9BAF1000F17D0B08930
:104B00004B4E8DF826003068F8B1FBF77AFEBDF801
:104B10005410814219D1CDF8089001953B46207977
:104B200000904246346804A915A8A0470DE0B07B68
:104B30000390CDF8089001954346F07BBBF8242004
:104B4000009015A904A807F058F819B0BDE8F08F37
:104B500006F0A4B806F044B906F0E4B906F05AB974
:104B600006F0FEB906F074BA06F085BA10B5044630
:104B700030480078002818BF012815D12B48807BC9
:104B8000800711D5A07A01280ED0FBF73EFE2188C0
:104B900081421CBFE07A012806D0084600F052F995
:104BA00010B12088FDF7CFFF2046BDE8104006F089
:104BB00087BA06F0C8BA10B504461C48807B0007C7
:104BC00007D41D48006820B11C480078082100F077
:104BD00033FF2046BDE8104006F0D3BA10B50129D6
:104BE00004460AD10021FFF770F8154802782046E4
:104BF000BDE810400021FEF744B910BD06F02DBA03
:104C000010B5104B1B681C0084B005D08DF8000057
:104C10000191029200A898471FBD0000E4500020B7
:104C2000EA430020C4430020A8510020EC4A0020A1
:104C3000E85000203C5200204C4300203843002024
:104C4000E59D2100784F002006F072BB06F09ABA6D
:104C5000DFF864090078242101FB00F2FF21DFF86E
:104C60005C0900F097BD30B500220023242509E03F
:104C7000DFF8484905FB03442479844224BFA1425C
:104C8000521C5B1CDFF830492478A342F0DBD0B221
:104C900030BD2DE9F0468146DFF81C0907785FEA50
:104CA000010A85B0164604D0504600F0E6F804002C
:104CB00046D10020242200E0401CC0B2B84207D2F6
:104CC000DFF8F81802FB00142179FF29F4D100E085
:104CD0000024002C5FD0DFF8E808058855B1032ECA
:104CE00018BF042E06D104210320FFF7BCFF791B57
:104CF00088420CDADFF8CC08058855B1012E18BFC0
:104D0000022E06D100F055F8791B884201DB002005
:104D10004CE001208DF80000ADF80290514601A84A
:104D200001F02FFF00A802F01BF8BDF80C00608016
:104D30000020A071DFF89008818C4846FDF7F3F859
:104D4000002016B1052EB8BF0420A4F800902671EB
:104D5000607100F0BBFB207201206072AA20A0727B
:104D600000202082E071E072E06086B1032E0EDA4E
:104D700000F003FA00280FBF086851F820003C211A
:104D80004843E061A061012084F8200003E06FF057
:104D90000100E061A06100F0CEF8B84203D3DFF873
:104DA0002C1800200870FBF70CFF204605B0BDE86A
:104DB000F0860221012056E77FB504460D46002605
:104DC000284600F05AF800281CBF0188A14228D0CC
:104DD0000179052925DA048089B103290FDADFF882
:104DE000F017DFF8F027097800290FBF116852F893
:104DF00021103C225143C16180F8206002E06FF035
:104E00000101C1618161C66001208DF80000ADF82B
:104E10000240294601A801F0B4FE00A801F0A0FF5D
:104E20000126304604B070BD80B500F023F800289C
:104E30001CBF0079002803D0052801DA012002BD3B
:104E4000002002BD80B500F015F800281CBF0079D5
:104E5000002803D0032801DA012002BD002002BD92
:104E600080B500F007F818B1007908B9012002BD3B
:104E7000002002BD0146002000E000212DE9FF4294
:104E8000044689464FF6F870814500DB34B30027AD
:104E9000DFF8286708E04FF6FF71894502D0805B94
:104EA000814519D07F1CFFB200F071FA874215DAF4
:104EB0002420784385192979FF29F3D0002CEAD0E2
:104EC00000F031F801F02AFF0028EBD001A92046BC
:104ED00000F036FC0028E5D0284600E0002004B0B1
:104EE000BDE8F08230B585B00024FFF7C6FF0500AD
:104EF00009D000F018F801F082FE2422FF21284694
:104F000000F048FC012400F016F8DFF8AC16097830
:104F1000884205D2DFF8B41601200870FBF751FE75
:104F2000204605B030BD01208DF800006888ADF83E
:104F30000C0000A870470421002094E6F0B5DFF8CB
:104F40007826DFF87856137824244FF6FE729042C4
:104F500008BF002619D0002600E03E469E4214DA23
:104F6000771C664306EB050CFFB29CF804C0BCF14D
:104F7000FF0FF2D0765B8642EFD13E4605E0012876
:104F800018BF03280DD0761CF6B29E420BDA04FB44
:104F900006F7781900290079F1D00028F3D0052808
:104FA000F1DA785BF0BD1046F0BD0121C6E72DE9CE
:104FB000F04104460421FFF7FDFE050013D0680010
:104FC00080B2FFF7A5FB06000BD04FF6FE78374600
:104FD0004046FFF7EAFF404518BF27F8020BF8D11B
:104FE00002E0002500E0002625703046BDE8F08193
:104FF000002201E0401E521CDFF8BC150978D2B235
:105000008A420CD2DFF8B415242303FB02110B797A
:10501000052BF0DA80B20028ECD10846704700205A
:1050200070472DE9F04385B00024DFF8AC85DFF848
:105030008C651CE01C20684300EB080930F8081060
:10504000B85B81421CBFBDF80200814205D009F166
:10505000020101A800F074FB10B14846FCF78FFF75
:105060006D1CDFF8780500788542E3DB641C00F0F6
:105070008EF9844215DA242000FB04F74FF6FF7105
:10508000B85B8842F2D001208DF80000B819408842
:10509000ADF80C0000A801F041FE0028E6D0002584
:1050A000DFE705B0BDE8F083F0B585B00026DFF896
:1050B0003045DFF8085506E0B86910F1020F1CBF53
:1050C000481EF861761C00F062F986421DDA242041
:1050D0007043471939790029F4D00329F2DAF969C4
:1050E0000029E9D12178012907D1DFF8F8140A68ED
:1050F000110002D0B969405B904700F07BFA0028AC
:10510000E0D001A8FFF7EEFEDCE705B0F0BD80B50A
:10511000FFF7B0FE48B1017931B1032904DA8169A2
:10512000C161012180F82010012002BD70B5044644
:10513000DFF8B404016808001EBFDFF8A85428682F
:10514000002819D0DFF8A4643068A8B160888847C7
:1051500090B900F012F82A6800280FBF096851F8CA
:1051600020003C21414360889047012804D1608899
:105170003168BDE87040084770BDDFF85404DFF8BF
:1051800054140078704738B5DFF82C0404780B20ED
:105190006043811C002289B2222001F0E5FA054615
:1051A0000A2D04D00022E1003F2001F0DDFA0DB10C
:1051B00000F002F8284632BD80B50020ADF80000AE
:1051C00000F0B9F901BD2DE9F04780468CB08A4660
:1051D00091461C460026222001F0E6FA05463F20B3
:1051E00001F0E2FA002D18BF5545074603D02946C5
:1051F000222001F033FC002F18BFA74203D039460C
:105200003F2001F02BFC00225146222001F0ACFA95
:105210000A2861D0002221463F2001F0A5FA0A2881
:105220005AD040F2013A01AB02220021504601F06F
:10523000DAFB002850D1ADF80000002440F202351E
:105240000B2732E0E4B207FB04F0811C02AB0B2217
:1052500089B2504601F0C7FB00283DD1BDF80A00D5
:105260004FF6FF7188421FD0BDF800007843811CC3
:1052700002AB0B2289B2222001F0B5FA60BB0DF11E
:1052800002030822E100284601F0ADFB50B9BDF849
:105290000000C1000DF10203082289B23F2001F095
:1052A000A2FAC8B900F041F9641CC349BDF8000076
:1052B000097888423CBFBDF804108842C2D300F090
:1052C0003AF948B94146504601F0C8FB20B9494671
:1052D000284601F0C3FB00B1012630460CB0BDE802
:1052E000F0872DE9F84F00F052F80B2100244143DC
:1052F000C600ADF800408D1C222001F055FA83460F
:105300003F2001F051FA804600F0DAF840F2013A0D
:10531000504601F049FA074640F20239484601F08A
:1053200043FA17B9ADB2AB450AD108B9B04507D1B8
:1053300057B3BBF1000F1CBFBDF80010002919D0F6
:1053400051462220FDF798F904001DD149463F201F
:10535000FDF792F9040017D15946222001F07EFB97
:1053600008B1012410E041463F2001F077FB0028FE
:10537000F7D102E0BB4600B1804633464246A9B2AF
:105380005846FFF720FF04462046BDE8F28F8A48C2
:10539000007870472DE9F04F91B00020ADF8000083
:1053A000FFF79FFF002802D100F08AF8002840F0A4
:1053B00081808148BDF8001090F80090894579D32C
:1053C00000250024DFF804A2DFF808B2DFF8F88136
:1053D0006FF0010610E0F8610298B861002087F8CC
:1053E0002000FFF7A8FD484524BF00208AF80000F0
:1053F000FBF7E7FB601CC4B24C455BDABDF800006C
:10540000ADB2854256D20B2202FB04F0811C07ABE1
:1054100089B2222001F0E7FA0028EBD1BDF81E0086
:105420004FF6FF718842E5D001208DF80C006D1C0D
:10543000BDF81E00ADF8180003A801F06FFC0028AD
:10544000D8D0B8F82410BDF81C00FCF76CFD5B4800
:10545000242101FB04070B2207A9384600F082F93A
:1054600000F034F8387201AB012078720822AA20CB
:10547000B872E10000203882F872F8603F2001F035
:10548000B2FA0028ADD1029810F1010FA3D13879FA
:1054900068B103280BDA4E48007800280FBFDBF80C
:1054A00000005BF820003C214843F86195E7FE616D
:1054B000BE6196E7BDF80000C0B211B0BDE8F08F44
:1054C00000AB02220021222001F08DBA484800786A
:1054D000401C00EBD0704010704738B50020ADF88C
:1054E000000000241AE03548242101FB04050B20AC
:1054F0006043811C2B460B2289B2222001F073F9F4
:10550000E10005F11403082289B23F2001F06BF994
:105510002879FF2801D000F008F8641CFFF737FF56
:105520008442E0DB00F007F831BDBDF80000401C0C
:10553000ADF80000704700AB02220021222001F0EC
:1055400052B9F0B5054685B0FFF733FC28702878CE
:1055500060B30C214843FFF7DBF8040027D0254651
:10556000002604E0284600F0F0FA0546761CFFF716
:105570000EFF86421BDA1148242101FB0607387909
:10558000012818BF0228F1D100F034F820B101A998
:10559000284600F0E3F8054697F8200000281DBFD4
:1055A000B869F969411A4FF0FF31DBE70024204662
:1055B00005B0F0BD00000000C89D2100F8430020A8
:1055C000D29D2100D09D2100EC4A0020F443002010
:1055D000E8430020F09D2100EC460020D79D2100EB
:1055E0003752002024500020185000202C5000205A
:1055F000DA9D210001208DF800007888ADF80C00BC
:1056000000A801F08BBB0A0000B585B010228DF810
:10561000001001460DF1010000F0A4F800AB1122CA
:1056200000213B2001F0DFF81122002100A800F04A
:10563000B1F805B000BD70B5054686B01120FFF782
:1056400067F8040043D02346112200213B2001F0DB
:10565000CAF9002804BF2078A84230D11120FFF7F2
:1056600057F805002BD02B4600F033F8F8B9234645
:10567000112200213A2001F0B6F82B461122002118
:105680003B2001F0B0F81F491D4E012081F8410078
:10569000112200207060214600A800F063F87068B5
:1056A000059000AB18220021822001F09CF8112205
:1056B0000021284600F06EF82846FFF78FF81122E7
:1056C0000021204600F066F82046FFF787F806B074
:1056D00070BD112200213A2001F085B938B5074C80
:1056E0002468250001D0A04732BD012032BD034906
:1056F00049680A0018BF084700207047B8510020C9
:10570000B0510020EC4A0020027A0B7A9A420CD168
:105710005AB1022A05D100880988884205D10120A2
:105720007047032A08BF00F00BB8002070470A7AC0
:105730000272032A08BF00F011B80988018070477F
:1057400010B5082210F8013B11F8014BA34201D01B
:10575000002010BD521EF5D1012010BD082200F01E
:1057600001B8000003E011F8013B00F8013B1346CB
:105770005A1E002BF7D1704710B513465A1E3BB185
:1057800010F8013B11F8014BA342F6D0002010BDE8
:10579000012010BD10B5044610460A4601462046B9
:1057A00006F050FF204610BD0178407801EB002044
:1057B00080B270470278022903D1407802EB0020C2
:1057C0007047032906D14178807802EB012101EB73
:1057D00000407047042909D1417802EB0121827809
:1057E000C07801EB024101EB006070471046704742
:1057F00006F098BF10B5040001D1002010BD04F1DF
:10580000080080B2FEF784FF28B100210160848087
:10581000FF218171083010BD80B508B9052002BD97
:1058200010F8021CFF2901D0042002BD0838FEF741
:10583000D5FF002002BD0022FFE710B50446080096
:1058400013D0DFF82C1309788C4203D3FFF7E4FF61
:10585000032010BD50F8081C002902BFA0F1080168
:105860008B79FF2B03D0FFF7D7FF052010BD8C717C
:10587000012ADFF800330146184602D100F08CF807
:1058800001E000F052F84FF40041204600F0D4F857
:10589000002010BD2DE9F04180460025002606F0CD
:1058A00091F800F00100B34C80F00107206803E09C
:1058B00006B9054650F8080C68B110F8021C4145BD
:1058C000F6D1002E08BF0646F4D04FF40041404602
:1058D00000F0B2F805E04FF40041404600F0B8F89F
:1058E00026B12A463146204600F064F80FB106F092
:1058F00065F83046BDE8F08170B500F032F89D499A
:105900000E6800F0010080F0010001E056F8086C1C
:1059100036B116F8021CA14204BF3178A942F5D174
:1059200008B106F04BF8304670BD38B500F019F8F4
:10593000002145F8081C00F00100216880F00100FA
:1059400011B9256006E0114651F8082C002AFAD159
:1059500041F8085C00281CBFBDE8314006F02EB8B5
:1059600031BD04460D4606F02DB838B50446002575
:1059700006F028F800F05AF849B10D4655F8081C11
:105980002160002145F8081CFF2105F8021C08B120
:1059900006F014F8284632BD38B5FFF7E2FF21685B
:1059A00045F8081C2560002804BFBDE8314006F01A
:1059B00005B831BD70B505460C46164606F002F82E
:1059C0002A6854F8081C94420CBF296046F8081C49
:1059D000002144F8081C00F0010080F00100FF21C4
:1059E00004F8021C00281CBFBDE8704005F0E6BFAB
:1059F00070BDF8B504460D461646002705F0E2FFD7
:105A000000F014F819B925600AE056B1114651F8B2
:105A1000082C761E002AF6B2F7D116B141F8085CC0
:105A2000012708B105F0CAFF3846F2BD00F00100B9
:105A3000216880F00100704738B500F01AF805D2EF
:105A400005F0C0FF00F010F82A4318E0032032BD33
:105A500038B500F00EF805D205F0B4FF00F004F8F8
:105A6000AA430CE0032032BD4349096831F81420F1
:105A7000704704463E48007884420D46704721F83E
:105A8000142008B905F09AFF002032BD80B5FF2828
:105A900003D105F093FF002002BD072002BD80B5B1
:105AA000FF2803D105F08EFF002002BD072002BDB4
:105AB00080B5FEF7FFFD2F490020086000F06CF96B
:105AC00006F032FE06F03AFEFEF707FE002002BDA9
:105AD00080B500F001F8FCE72DE9F041002606F062
