:020000040000FA
:10000000021F4E022003FFFFFFFFFF02200BFFFF36
:10001000FFFFFF022013FFFFFFFFFF02201BFFFF78
:10002000FFFFFF022023FFFFFFFFFF02202BFFFF48
:10003000FFFFFF022033FFFFFFFFFF02203BFFFF18
:10004000FFFFFF022043FFFFFFFFFF02204BFFFFE8
:10005000FFFFFF022053FFFFFFFFFF02205BFFFFB8
:10006000FFFFFF022063FFFFFFFFFF02206BFFFF88
:10007000FFFFFF022073FFFFFFFFFF02207BFFFF58
:10008000FFFFFF022083FFFFFFFFFF02208BFFFF28
:10009000FFFF70DFFFFF040000000002000000C847
:1000A000030002030369A5020269A532730000017F
:1000B00000000000000400FFFFFFFFFFFFFFFF0440
:1000C00003090424035400650078006100730020D4
:1000D0000049006E0073007400720075006D0065C9
:1000E000006E007400730024035400490020004394
:1000F000004300320035003300310020005500532A
:10010000004200200043004400430000035F005F02
:100110000030005800000000000000000000000057
:1001200000000000000000000000000000000000CF
:100130000000000000303132333435363738394171
:1001400042434445463C1C911C911C911C911C99B6
:100150001C74F8121BD6900391E060159003027492
:10016000FEF0900304744DF0A37405F07A011207B9
:100170000C7F01021D7B74F8121BD674FF121EC582
:100180007E00801F851882851983E064FE700690CA
:1001900003877401F0851882851983E0F890038441
:1001A000E068F07901AA18AB191210DFE9700302B8
:1001B000027E851882851983E064EF70027E07E075
:1001C000C0E0900387E0F8900385E0FAE82AF8E4BD
:1001D000340012075BD0E0F0900387E060A6146063
:1001E0000E14602A14603A14605014606680A69061
:1001F0000384E4F0851882851983E0900386F0C3B8
:1002000094809003874003E4808A74028086851876
:1002100082851983E0900382F090038774030201C2
:1002200094851882851983E0900383F0900386E01B
:1002300060199003877404020194900385E004F030
:10024000F8900386E06860030201959003877405C7
:10025000020194900385E4F0900387F0900384E01A
:10026000F8851882851983E0686003020195900380
:1002700082E0644D60030201951203B68002EEF93C
:100280007401121E4602017174F7121BD674FB1220
:100290001EC5EAFEEBFF7508047509007808121EFA
:1002A000DF7402121F467A907B0079041218F274F0
:1002B00002121E461206FE121F97E0687003A3E0AA
:1002C000697012851882851983E0F47003A3E0F445
:1002D00060030203917404121F3E1207678A088BA1
:1002E00009A808A9097402121F97E8F0A3E9F0749D
:1002F00004121F97E0600879011201510203AA85D8
:100300001882851983E0687003A3E0697076851808
:1003100082851983E0F47003A3E0F470197402126B
:100320001F977410F0A37420F085188285198374C8
:1003300010F0A37420F07508017509007808121EEA
:10034000DF7402121F467A247B0812197774021296
:100350001E467508047808121EDF7402121F467AC2
:10036000907B0079041218F27402121E461206FEE7
:10037000121F97E0687003A3E06970047902800699
:100380007904800279031201518E828F83741E805A
:10039000058E828F83E4F01206FE121F97E06870CC
:1003A00003A3E06970047901800279007405121ECC
:1003B000467F02021D7B74ED121BD674F8121EC517
:1003C000900307E0FA900306E0FB8B08EAF8E4C824
:1003D000F9EB28FEE93408FF751001880C750D064D
:1003E0008F0974027808121F2BC39508F8E4950949
:1003F000F9740228F50E740339F50F8E088F09740D
:10040000097808121F5DE508F511EE2410F508E4DF
:100410003FF509EEF50AEF5401F50B900383E01464
:1004200060541470030204EB147003020566146038
:100430001024FE70030206211470030206D1020686
:10044000E1750D03794E1213B29003071206F4748E
:1004500002F0A374401206F274081206F2F0A3F040
:10046000751012AA10A90C12070CA90D7408121EFF
:10047000467F0C021D7B750D04794E1213B2EE45BA
:100480000B7005A9111219DDC3EE9425EF940850E5
:100490003CC3E5089424E50994084031E50E249610
:1004A000F8E50F3420F988828983E0701BA3AA82C3
:1004B000AB83E070139003887401F08882898374A1
:1004C000A5F08A828B838004900388E4F07508107D
:1004D0007509007808121EDF7C087D03EEFAEFFB39
:1004E0001219777402121E46020463750D05E51198
:1004F000C394794006750C010204637512407513AC
:10050000007812121EDF7C097D037402780A121F24
:100510002BAA0AAB0BA9111218F27402121E4690F4
:100520000307E0A3F0900306E0A3F0751043C3EEC9
:100530009425EF94084003020463C3E5089424E57E
:100540000994085003020463900388E070030204D6
:1005500063E50E2497F8E50F3420F988828983E457
:10056000F0A3F00204637508047509007808121EF0
:10057000DF7402121F467A907B0079041218F2741D
:1005800002121E467402121F97E0F8A3E0F98518C4
:1005900082851983E0687003A3E069851882851954
:1005A00083700BE0F47003A3E0F470578009E0F46B
:1005B0007003A3E0F4700D8518828519837410F020
:1005C000A37420F01206FE121F97E8F0A3E9F0755D
:1005D00008017808121EDF7402121F467A247B0875
:1005E0001219777402121E467508047808121EDF6D
:1005F0007402121F467A907B0079041218F274027A
:10060000121E461206FE121F97E0687003A3E069EF
:100610007006750D01020463750D02750C07020466
:10062000639003D6E0600764026003020463EAFF9C
:100630007A01790012070CE060030206C5800312FC
:10064000117B121162E970F77404121F971206E60B
:100650007404121F977808121F7B85080C85090DFA
:10066000850A0E850B0F9003C2780C121F057404C7
:10067000121F97780C121F6CE5084509450A450BB7
:1006800070CE8EC2E5C554E04FF5C57404121F97B5
:100690001206E67404121F977808121F7B85080C57
:1006A00085090D850A0E850B0F9003C2780C121F69
:1006B000057404121F97780C121F6CE50845094554
:1006C0000A450B70CE7A01790012070C79080204F2
:1006D0006CEB900391F07003020463750D09020442
:1006E00063790602046CE4F0A37426F0A3E4F0A39B
:1006F000F022F0A3E4F0A3F0A3F0A3F0A322851866
:1007000082851983E0F8A3E0F974022274F6121BC3
:10071000D6EAFE900305E0D2E7F0E9A3F0EE9003FD
:1007200003F08E0A74042AFE7A028004E0620A0A48
:10073000EAF83395E012075B8E08C3E89508E99460
:1007400000A2D265D03340E4E50AF0740128F97ABA
:10075000027B0312111D7F03021D7BF9740228F531
:1007600082740339F5832274E9121BD675820075F1
:1007700083FE121E288A168B177514007515008AC1
:10078000828B83E4F09003D6E07006D2AAD2AF80C9
:1007900004640270057900120151750C00750D207A
:1007A000750E00750F009003D6E0600464027015AA
:1007B00012117B120176E9F874096860030208A33C
:1007C0007900120151E064027007A292400302080E
:1007D0007E7508007509027808121EDF7402121F68
:1007E00046850C08850D09AA08E5095407FB850E06
:1007F0000A850F0B740B7808121E96A9081218F2BE
:100800007402121E467E007F009003CAC0828E10C2
:10081000EFF5113395E0F512F513850C08850D09F8
:10082000850E0A850F0B78087910121F189003C6E1
:100830007808121F05758303D0827808121E0950AC
:100840001D851882851983E5822EF582E5833FF5A3
:1008500083E0F9AA14AB151208D28A148B150EEE98
:1008600070010FC3EF940240A09003CE780C121FCA
:10087000059003D2780C121E0940030207A67900E6
:10088000AA14AB151208D279001208D28B15900366
:10089000D6E07004C2AFC2AAEA451570277AA57BDC
:1008A000A58021E870030207C5740668700302077B
:1008B000C574076870030207C5851682851783749F
:1008C00001F080BA758200758302121E287F100223
:1008D0001D7BC008C0097C088A088B09740F780842
:1008E000121F5DEA25E0FAEB33FBE9A2E75004743E
:1008F000014AFAE508A2E0500874216AFA74106B04
:10090000FBE9C333F91CEC70CFD009D0082274F78F
:10091000121BD6120F2860030209E9A3E0F8A3E036
:1009200060030209E9A3E064027002A3E06003022D
:1009300009E99003B8E02480600914604F14605CFA
:100940000209E9E860030209E99003B2E060047873
:1009500001800278009003C0E8F0A3E4F09003B1B6
:10096000E0600A9003C0E04402F0A3E4F09003A624
:10097000E0640460149003B374C0F0A37403F0A3A4
:10098000E4F0A37402120F8AF002100A90039FE0B1
:10099000640470559003C0E4F0A380D0E8547FF560
:1009A0000890039FE064047040E508C39406503942
:1009B000749F2508F582E43403F583E854806018B9
:1009C000A3A3A3A3A3A3A3E06403700478018002FC
:1009D00078009003C0E88091E582240CF5825002F3
:1009E0000583E0640370E980E39003A674048098B3
:1009F00074F7121BD6E9FE9003BE120F2B600302A0
:100A00000AD190039FE06404600B9003BC120F2B8B
:100A10006003020AD19003B8E0541F6009146030EB
:100A2000146020020AD19003BAE064017022EE90B3
:100A300003B1F060047905800279067A00121BD4B4
:100A4000020AD79003BCE0547FFA9003BAE0600535
:100A50007900020AD9EAC394065076EA90620EF051
:100A6000749F2AF8E43403F99003BCE05480602CAE
:100A7000EE6004741080027440906211F0EE600425
:100A800074038001E488828983A3A3A3A3A3A3A3FF
:100A9000F0EE6004790880307907802CEE600474F1
:100AA0002080027480906214F0EE60047403800170
:100AB000E4C0E0E8240CF582E439F583D0E0F0EE00
:100AC0006004790A80027909121BD490620EE480D6
:100AD000059003A67404F0790102100A7900120946
:100AE000F0E97003121BC32279011209F0E97003C7
:100AF000121BD222C082C0839003BC120F2B701530
:100B0000A3120F2B700F9003BA120CD05480FAE985
:100B1000FBEA4B60079003A67404801AE890620019
:100B2000F090039F6009E06402700C74038007E09A
:100B3000640370037402F0D083D0822274F3121B1A
:100B4000D69003BAE0FAA3E01460081460101460B1
:100B500039805712175F120CADA37B80804179005A
:100B6000121781120CAD7B80E92402F9E43AFA12E3
:100B70001E7CFC1919E0FAA3E92403F9E43AFA12FD
:100B80001E7CF9ECA3F0A3E9801CEAF91217EF90A0
:100B900003B3EAF0A3EBF0A3E4120CBCA37B0012B6
:100BA0001E7CA3F0A3E4F0020C679003B3E4F0A36F
:100BB000F0A3F0F50B90047DE0FAA3E0FB020C42F9
:100BC00075090074037808121F2BEA2508F8EB3525
:100BD00009F99003BA120CC6E493C0E0EFFCD0E030
:100BE0006C705DA3E4936E70579003BC120CC6A3A7
:100BF000A3E493C0E0EFFCD0E06C7044888289836A
:100C0000A3A3A3E4936E703888828983A3A3A3A3CC
:100C1000E493F508740193F5099003B3E508F0A394
:100C2000E509F0A37480F088828983A3A3A3A3A31A
:100C3000A3E493F8740193F99003B6E8F0A3E9F004
:100C4000050B850B0890047F120CD0C39AF50CE9B4
:100C50009BF50D7403780C121F5DC3E508950CE439
:100C6000950D5003020BC09003B3E0FCA3E0FDA37D
:100C7000E0FEEC4D4E9003A6700474048029E064FD
:100C80000460259003BEE0FAA3E0FB9003B6E0F811
:100C9000A3E0F9C3EA98EB9950089003B6EAF0A3F1
:100CA000EBF09003A67401F07F06021D7B9003B366
:100CB000EAF0A3EBF0A37480120CBC22F09003B313
:100CC000E0F9A3E0FA22E0FEA3E0FF888289832214
:100CD000E0F8A3E0F9E82274EE121BD6EA2404F847
:100CE000E43BF9880889098882F583E493602590BC
:100CF0000481120CD0FEE9FF8007EE2404FE5001AF
:100D00000F8E828F83E493F8740193F9EA6870027E
:100D1000EB6970E6750C00803F9062147490F0747B
:100D200010120E2A7003750D408E828F83A3A3A329
:100D3000E49355106006E50DD2E0F50DE50D9062E7
:100D400015F0EA906213F0EC240CF582E43DF58393
:100D5000E4F090620EF0050C850882850983E49327
:100D6000F8E50CC3984003020E257A0079051216A7
:100D7000F28A0E8B0FEA450F60DCEA2402F8E435B4
:100D80000FF9880A890B8882F583E493540FF512D2
:100D900090620EF0750D008A828B83A3A3A3A3E457
:100DA000932407F510A3E4933400F511740378102D
:100DB000121F5DAA10851210749F2510F8E43403E9
:100DC000F9E8FCE9FD751001751100E512781012C3
:100DD0001F2BE50E2403F8E4350FF9850A82850BF5
:100DE00083E493A2E74003020D199062117448F066
:100DF0007408120E2A7003750D408E828F83A3A390
:100E0000E49355106006E50DD2E0F50DE50D906216
:100E100012F0EA906210F08C828D83A3A3A3A3A3A7
:100E2000A3A3020D507F0B021D7BF088828983E40F
:100E3000935403640122C082C083120F287010A350
:100E4000120F2B700AA3E064017002A3E060079008
:100E500003A67404800C9003B374A0F0A37403126F
:100E60000F80F0020B3774F4121BD690039FE064DE
:100E70000260149003BC120F2B700CA3120F2B7086
:100E8000069003BBE060099003A67404F0020F23F0
:100E90007A007901121BD49003BAE060717A00F9EC
:100EA0001217818A088B09EA4509605A90039F74DA
:100EB00004F09003BAE09003A0F0750C008508825E
:100EC000850983A3A3A3A3E493F8E50CC398504C2E
:100ED000850C0A74A1250AF8E43403F9E8FEE9FF59
:100EE0008E828F83E4F07A0079041216F28A828B64
:100EF00083A3A3A3E493F88E828F83E06870E71244
:100F00000CD7050C80B79003A67404F0800E9003F4
:100F1000A0F090039F7403F0F91216587A0079023A
:100F2000121BD47F05021D7B9003BAE0F8A3E0F901
:100F3000E8492274F6121BD690039FE064047019EE
:100F40009003B8E064817011120F28700C9003BEFA
:100F5000E064017002A3E060079003A67404801AA5
:100F60009003BCE024A1F508A3E03403F509900345
:100F7000B3E508F0A3E509120F80F07F03021D7BA3
:100F8000F0A3E4F0A304120F8A22F0A3E4F090038C
:100F9000A6042274F7121BD690039FE064047064C9
:100FA0009003B8E06401705C9003BE120F2B705484
:100FB0009003BAE0FB9003BCE0FA9003A0E0F912C2
:100FC00017B98A088B09AE08AF09EE4F6036900357
:100FD000BCE0FA7903121BD49003BAE0C0E090039E
:100FE000BCE024A1F8A3E03403F988828983D0E02F
:100FF000F0EEFAEFFB120CD79003BCE0FA79041282
:101000001BD480069003A67404F07F02021D7BC0EF
:1010100082C0838003121A39A2E840F9A823E85459
:101020000460097823E654FBF6121402A823E8545E
:101030001060097823E654EFF6121420A823E8A2E2
:10104000E05005782354FCF690620EE0FA7404F048
:10105000906214E0A2E0503AE5A8F8C2AF906216A0
:10106000E0F9A3E0E9FBE8A2E792AF8017906228DD
:10107000E0C0E0900393E0F8121112D0E0F090038A
:1010800093E004F0EBFC74FF2C1B0470E0906214FE
:10109000E4F0EA90620EF0E0FD7404F0906211E07A
:1010A000A2E04031900395E0F8900394E068602559
:1010B0007A40900394121155E0906228F0900394C6
:1010C000E004F008900395E06860041AEA70E39089
:1010D00062117401F0ED90620EF0D083D082227420
:1010E000F8121BD6E9FE79008012121112E08A82F2
:1010F0008B83F0900392E00412114A09900392E06E
:10110000F8900393E0686005E9C39E40DD7F01022B
:101110001D7B748528F582E43404F58322C082C0E7
:1011200083E9FC80188A828B83E0C0E090039512EB
:101130001155D0E012114A900395E004F0ECF874D8
:10114000FF281C0470DF79018090F08A828B83A3D2
:10115000AA82AB8322E0F8748528F582E43405F591
:101160008322C082C083900395E0F8900394E068E6
:1011700060047901800279000210DA02100F74FB1A
:10118000121EC57E009006857808121F7B794A12D0
:1011900013B29006857401F0A3F0A37469F0A374F0
:1011A000A5F09003D77808121EF070030E801590FA
:1011B00003DB7808121EF06008E59D541864107077
:1011C00003022000EEF9121329C280D291EEA2E0B0
:1011D00050030212DCAA18AB19120288E97003024C
:1011E00012DCC291851882851983E0C3943C500EAD
:1011F000E0F8743CC398F50895E0F5098006750899
:1012000000750900E4F50AF50B9003DF780C121F56
:101210007B7808790C121ADA790612015112100F34
:10122000120176E9F8740968700779061201518095
:10123000277407686016A2935012E8600874066865
:1012400060030212DCA292400F0212DC75080075E6
:101250000900750A00750B0085080C85090D850AC3
:101260000E850B0F9003C27808121F05E50C450D83
:10127000450E450F70A7D2807907120151800312E5
:10128000100F121162E970F77E007F007401121FC7
:1012900097E4F0A37426F0A3E4F0A3F07401121F06
:1012A000977808121F7B85080C85090D850A0E8525
:1012B0000B0F9003C2780C121F057401121F977850
:1012C0000C121F6CE5084509450A450B70CEA29229
:1012D00050FCA29350F81213AD022000D280D2919C
:1012E000794E1213B2750800750900750A00750B66
:1012F00000790512015112100F120176E9F87409F4
:101300006860EE74016870EE12100F9003E37808C5
:10131000121F059003E77808121E0950EB1213AD57
:101320000220007405121E462274F8121BD6E9FE34
:1013300053BEFBE59DA2E650FA0078F8790100E87B
:1013400024FF18E934FFF9E84970F375C68074800A
:10135000659E70FA43BE049062707408F01213A286
:10136000EE700853F4FEC29043FE017403F5D57588
:10137000D489900396E4F0A374C2F0A37401F0A39F
:10138000E4F0A3F0A3F0A37408F01213C87AFF7B73
:10139000FF1219F453F4FED29043FE011213A2027D
:1013A000110DD28043FD01C29143FE0222D280C2C0
:1013B0009122781075B60FE5B4A2E750FAE5BBC3E9
:1013C0009940F118E870ED22C082C0837A0079015B
:1013D0001217818A828B83A3A3A3A3A3A3A3E4935D
:1013E000A2E69003B2500474018001E4F09003B1CE
:1013F000E4F090620F7403F0E0A2E750FBD083D0DA
:101400008222C082C08390039F7402F0A3E4F09014
:1014100003A6F0790312165875210075220080DDAD
:1014200074F6121BD690620EE0FEE4F0906211E0BA
:10143000FFA2E4501D7480F09003A67407F0E5212C
:1014400045226009852182852283121FA69003A66A
:10145000E4F0EFA2E2500B906211E4F09003A6F0EA
:1014600080669003A6E0F87402687045906216E00A
:10147000FF9003B3121DBBEFF97A207B6212168C2A
:101480007403121E468F089003B612163C121634CF
:101490002F121647E0F8A3E0F9E849600474408091
:1014A000027448906211F0E849600302162A02169D
:1014B000067406687009852182852283121FA69012
:1014C00003A6E060030215B1EFA2E0400302162A72
:1014D0007508B8750903750A007808121EDB7908CB
:1014E0007A207B6212168C7403121E4675210075D9
:1014F00022009003B8E054E0601D24E07003021560
:101500008D24E0607224C0604824E07003021598C6
:1015100024E0606E0215A3A3E014602624FE601D83
:1015200024FE600A24FC601F24FE60208075120ADD
:10153000F49003A6E06404707274608070120AE88C
:1015400080EF120ADC80EA120E6680E5120F9380AB
:10155000E0A3E0600E24FA600F24FE601024FE6019
:1015600011804012090E80C9120B3C80C4120E3645
:1015700080BF120F3380BA7521BF75221B121BBFAB
:1015800080AF7521C175221B121BC180A475215A21
:1015900075221B121B5A809975218A75221B121BFA
:1015A0008A808E9003A67404F0808E74409062113D
:1015B000F09003A6E0F874016870617F029003B6B2
:1015C000E0F8A3E0F9C3E89420E994005007E8F5B7
:1015D0000A7F0A8003750A209003B3121DBBA90A73
:1015E0007A207B621216B77403121E46850A08120F
:1015F0001634250812164712163CEF906211F0E5DA
:101600000AC394205024E521452260098521828562
:101610002283121FA69003A6E4F0800E7405687062
:1016200009852182852283121FA6EE90620EF07F2B
:1016300003021D7B9003B31216E4E922C3E0950870
:10164000F0A3E09400F022F9E43AFA9003B3E9F051
:10165000A3EAF0A3EBF0A32274F7121BD678007470
:10166000A728F582E43403F583E9F008E8C394057C
:1016700040ED780074AC28F582E43403F583E9F09A
:1016800008E8C3940540ED7F02021D7B74F8121B2D
:10169000D6EAFCEBFDE9F87408121F971216DF601A
:1016A000118C828D83E0121EAFE9240109E43AFA1D
:1016B000D8EF7F01021D7B74F8121BD6EAFCEBFD0C
:1016C000E9F87408121F971216DF6011121E7C8C45
:1016D000828D83F0E9240109E43AFAD8EF80D3122D
:1016E00016E4E822E0F9A3E0FAA3E0FB22D083D0DD
:1016F0008222C082C083E9FCEAFD7A007B0080037D
:1017000012173D90039DE0F8A3E0F990047BE06898
:101710007003A3E069602490039EE0F5838882A3B0
:10172000E493F8EC68700D90039DE0FAA3E0FB12DF
:10173000173D8007ED6870C8ED60C580B090039DCF
:10174000E0F8A3E0F5838882E493F890039DE02815
:10175000F8A3E03400F990039DE8F0A3E9F022C07B
:1017600082C0831217707A0079011216F20216ED08
:10177000900479E0F8A3E0F990039DE8F0A3E9F084
:101780002274F7121BD6E9FEEAFF1217707A00796D
:10179000021216F2EA4B601CEE60108A828B83A361
:1017A000A3A3A3A3E4936E70E48009EFF874FF2869
:1017B0001F0470D97F02021D7B74F5121BD6EAFF4D
:1017C0008B087A001217817A0279041216F2EA4B1A
:1017D00060188A828B83A3A3E4936F70EA8A828B5A
:1017E00083A3A3A3E493650870DD7F04021D7B74CB
:1017F000F7121BD674F0121EC5E97A007B00600C4C
:101800001460101460141460180218DB7AF37B0360
:101810000218DB7AF77B030218DB7A1B7B040218C1
:10182000DB90043FE060030218D79003EB740812CA
:101830001F467408121DE8750808F5097808121E7D
:10184000DF7402121F467AE87B07797F1218F27460
:1018500002121E467808121EDF740A121F46740216
:10186000121F3E121C997402121E468B09EA45098A
:1018700070197509007808121EDF7C0C7D787402DF
:10188000121F3E121D357402121E467C287D0085F3
:101890001882851983E5822DF582E43583F583E08E
:1018A000FF743F2CF8E43404F9EF1218E3888289BE
:1018B00083F0EFC41218E3C0E0E824FEF582E934B7
:1018C000FFF583D0E0F00D74FC2CFCEDC3940840D0
:1018D000BE90043F742AF07A3F7B047410121E46B7
:1018E0000217B4540FFA74692AF582E43404F583BC
:1018F000E02274F5121BD68908740F5508F50A7595
:101900000B00740B780A121F2BEA2400F8EB3480CA
:10191000F9E82400E9350BF9E5C7F509A2AFE4338E
:10192000F50AC2AFE508C4540FFAE5C754F84AF502
:10193000C7740B121F97E0FAA3E0FB801C88828912
:1019400083E08C828D83F088828983A3A882A98317
:101950008C828D83A3AC82AD83EAFEEBFFEE24FF85
:101960001AEF34FFFBEE4F70D48509C7E50AA2E0F9
:1019700092AF7F04021D7B74F7121BD6ED90038992
:10198000F0ECA3F0A37462F0A37473F0A3E0541F0F
:10199000F07409121F97E0F508A3E0F509E5083394
:1019A0003354FC90038EF074067808121F5DE5082E
:1019B00090038DF090038F7412F0A37442F075D1F0
:1019C000FE75D601EA906271F0EBA3F0906270E0D0
:1019D000D2E1F0E0A2E740FB7F02021D7BC082C0A3
:1019E00083E9C333906272F0906270E0D2E0F0D08D
:1019F00083D0822274F7121BD675230075240075DC
:101A000025008A268B27EA90620BF08A088B0974DE
:101A1000047808121F5DE508906207F08A088B09B8
:101A200074097808121F5DE508543E906209F0754C
:101A30008B00C2E87F02021D7B74F7121BD6E59D66
:101A4000A2E650FA906206E0FAA2E25035A826E833
:101A500090620BF0F50885270974047808121F5D61
:101A6000E508906207F0852608852709740978083B
:101A7000121F5DE508543E906209F0906201E0D2C9
:101A8000E0F07823EA46F6906202E0F50875090076
:101A900074047808121F2B7823E50846F608E50938
:101AA00046F6906204E0F50875090074097808129A
:101AB0001F2B7824E50946F6EAA2E05003752501BC
:101AC00074065A6003752500E58BA2E55006758BF8
:101AD000DF752500121BD5021A2F080808EAC0E09E
:101AE000EBC0E086F0E7A4FA180986F0E7A42AFA2A
:101AF000180986F0E7A42AFA180986F0E7A42AFA5A
:101B00001986F0E7A4FBE5F02AFA190886F0E7A4A5
:101B10002BFBE5F03AFA190886F0E7A42BFBE5F079
:101B20003AFA18180986F0E7A4C5F02BFBE43AFA54
:101B30001908E7C5F0C6A426F6E5F03BFBE43AFA3F
:101B40001886F0E7A4F6E5F00826F6E43B08F6E48C
:101B50003A08F6D0E0FBD0E0FA22C082C0839003BE
:101B6000B9E0F874226870089003A6E0701A80113A
:101B70007420689003A6700DE0700D121BB19003E5
:101B8000A6740280027404F08043C082C083900374
:101B9000B9E064219003A67013E07013121BB1A387
:101BA0007407F0A3E4F09003A60480027404F080AC
:101BB0001C9003B37496F0A37403F0A3E4F02280A6
:101BC000028000C082C0839003A67404F0D083D04A
:101BD000822280EF22222518C582C0E0E51934FF59
:101BE000C583C0E0E518C3958224F910AF0885834A
:101BF000198582188008858319858218D2AFCEF0A6
:101C0000A3E520F0A37808E608F0A3DEFAEFF0A33E
:101C1000E58124FBF8E608F0A3E608F0A30808E64F
:101C200008F0A3E608F0A315811581D0E0FED0E00E
:101C3000F815811581E8C0E0EEC0E0221201000233
:101C4000020000205104A816090001020301090244
:101C50004300020100801909040000010202010092
:101C600005240010010424020205240600010524B5
:101C70000100010705820340004009040100020A37
:101C80000000000705840240000007050402400030
:101C900000571C00007A1C000074F5121BD6740B50
:101CA000121F97E0F8A3E08015A3AA82AB838C8271
:101CB0008D83A3AC82AD83E824FF18E934FFF9E8F3
:101CC00049601F8C828D83E0F5088A828B83E0F562
:101CD0000AE508650A60D2E50AC39508FA95E0FBB3
:101CE00080047A007B007F04021D7BE47921780761
:101CF000B800028004F709D8FCE490030278C179A7
:101D0000018002F0A3D8FCD9FA7AC27B0390008E3E
:101D100078C479018015E493A3AD82AE838A828B67
:101D200083F0A3AA82AB838D828E83D8E9D9E71290
:101D3000117E121FA174F7121BD6EAF8EBF9740991
:101D4000121F97E0FEA3E0FF80188C828D83E0884D
:101D5000828983F0A3A882A9838C828D83A3AC821D
:101D6000AD838E088F09E50824FF1EE50934FFFFC7
:101D7000E508450970D47F02021D7B85198385180B
:101D800082E0A3FEE0A3F5207808E0A3F608DFFADE
:101D9000E0A3FFE0A3C0E0E0A3C0E0E0A3C0E0E078
:101DA000A3C0E010AF08858218858319800885825A
:101DB00018858319D2AFD083D0822274038000CCDF
:101DC000C0E0EDC0E0E518C39CCCAD1950011D107A
:101DD000AF068C188D1980068C188D19D2AF121D84
:101DE000E8D0E0FDD0E0FC22CAC0E0E0A3C582CC90
:101DF000C582C583CDC583F0A3C582CCC582C5830A
:101E0000CDC583DAE6D0E0CA22C008C3E096F50863
:101E100008A3E096420808A3E096420808A3E096CB
:101E200045087001D3D00822C5822518C582C58314
:101E3000351910AF07F5198582188007F5198582C5
:101E400018D2AFC5832200C0D0251810AF08F518EE
:101E5000500C05198008F51850020519D2AFD0D0E2
:101E6000222518F58210AF08F518400C15198008C6
:101E7000F51840021519D2AF85198322BB0102E77C
:101E800022C082C08389828A83BB0003E08002E48F
:101E900093D083D082226016080808C6C313C618E0
:101EA000C613C618C613C618C613C6D5E0EA22BBA9
:101EB000000EC082C0838A838982F0D083D08222C0
:101EC000BB0101F722251810AF08F518400C1519B1
:101ED0008008F51840021519D2AF227403800474EB
:101EE000028000C0E0F404121E61D0E0121F8A22BA
:101EF000E066701008A3E066700A08A3E06670044C
:101F000008A3E06622E026F608A3E036F608A3E080
:101F100036F608A3E036F622E627F60809E637F695
:101F20000809E637F60809E637F622700422600D44
:101F300018C6C333C608C633C6D5E0F41822251820
:101F4000FAE43519FB222518FCE43519FD2275D079
:101F50000075813F751802751903021CEB600C08AF
:101F6000C6C313C618C613C6D5E0F422E6F008A30C
:101F7000E6F008A3E6F008A3E6F022E0F608A3E006
:101F8000F608A3E0F608A3E0F622CAC0E0E6F0A354
:101F900008DAFAD0E0FA222518F582E43519F5833B
:101FA0002200000080FBE473FFFFFFFFFFFFFFFF45
:101FB000FFFFFFFFFFFFFFFFFFFFFFFFFFFFFFFF31
:101FC000FFFFFFFFFFFFFFFFFFFFFFFFFFFFFFFF21
:101FD000FFFFFFFFFFFFFFFFFFFFFFFFFFFFFFFF11
:101FE000FFFFFFFFFFFFFFFFFFFFFFFFFFFFFFFF01
:0A1FF600850609433886000000004C
:020000040003F7
:01FFF000F020
:020000040000FA
:10200000022D9002221DFFFFFFFFFFFFFFFFFFFFDA
:10201000FFFFFFFFFFFFFFFFFFFFFFFFFFFFFFFFD0
:10202000FFFFFFFFFFFFFFFFFFFFFF022A68FFFF29
:10203000FFFFFF022240FFFFFFFFFFFFFFFFFFFF49
:10204000FFFFFFFFFFFFFFFFFFFFFFFFFFFFFFFFA0
:10205000FFFFFF022159FFFFFFFFFFFFFFFFFFFF11
:10206000FFFFFFFFFFFFFFFFFFFFFF022A40FFFF11
:10207000FFFFFFFFFFFFFFFFFFFFFF022891FFFFB2
:10208000FFFFFF0221B901FFFFFFFFFFFFFFFFFF7F
:102090001020102001FF01010503010F10FEFF2693
:1020A0004D00000000BE4C00000000FF000000FFDB
:1020B00000010000253A0000000077396F3BBF396E
:1020C000D93A0000AD390000000000000000000017
:1020D0000000000000000000000000000000FF0100
:1020E0000100A507000000FFFF1E08E8036400646C
:1020F00000B80102020008000005020701051E02E7
:10210000051E020A0A0103B80B02803E0102FEFF0F
:10211000E8030A050001FFFF0A01E00020FD0002BC
:1021200006FFFF00035F005F003000580000000062
:10213000000000000000000000000000000000009F
:1021400000000000000000000000000000B12606B2
:10215000270627062706270E27C0E074F21226520C
:10216000A2AFE433FED2AFE5A7FFE5A1F5085F54C7
:1021700010600612440375A1EFE5085F540860087B
:1021800012440975A1F78024E508A2E092F0EFA2BD
:10219000E082F05017906198E0F8900971E0C398E0
:1021A000A2D265D0335002E8F075A1FE751A00EE98
:1021B000A2E092AF7F0102270EC0E074F212265215
:1021C000A2AFE433FED2AF9061A4E0F8759B00E5C6
:1021D0009158540860087591F71244518023E59195
:1021E00058541060087591EF1244578014E591A27D
:1021F000E092F0E8A2E082F05007E0C2E0F0124581
:10220000AD9061A3E0F8E5E9585404600E124583EF
:1022100075E9FB906193E0A2E640F2808FC0E07424
:10222000F2122652A2AFE433FED2AF9061A5E0F8DD
:10223000E5BF585404600675BFFB1245C50221ACCA
:10224000C0E074F1122652E59DA2E650FA906206B3
:10225000E0FAA2E25035A82CE890620BF0F5088570
:102260002D0974047808122DA0E508906207F08506
:102270002C08852D0974097808122DA0E508543E14
:10228000906209F0906201E0D2E0F07829EA46F627
:10229000906202E0F50875090074047808122D2C8C
:1022A0007829E50846F608E50946F6906204E0F567
:1022B0000875090074097808122D2C782AE509465A
:1022C000F6EAA2E05003752B0174065A6003752BE1
:1022D00000E58BA2E55006758BDF752B0012477564
:1022E000758B00C2E87F0202270EC3E498F8E499D8
:1022F000F912232B8026C3E49AFAE49BFBE920E73A
:10230000E912232BE498F8E499F922C3E498F8E45D
:1023100099F912232BE498F8E499F9C3E49AFAE4C2
:102320009BFB22EB20E7CFE920E7E0B90010BB00E0
:1023300008E88AF084F8AAF022E4FBC8FA22EB70DD
:10234000227B10C833C8C933C9335007C39AC3DBD3
:10235000F280069A50012ADBEAC833F4C8C933F484
:10236000C9FA2275F008E4C833C8C933C933C99A19
:10237000C99B5004C92AC93BD5F0ECFBC833F4C84B
:10238000E4C9FA2274F51225EC74FA122C2A7508A5
:10239000047509007808122B527404122BF67AF88F
:1023A0007B0779031242DD7402122B809080F8784B
:1023B00008122DBE7402122E157808122C55704981
:1023C0007508027509007808122B527402122BF658
:1023D0007AF67B0779031242DD7402122B8085188E
:1023E00082851983E0F47003A3E0F4601C851882F1
:1023F000851983E0F8A3E0F9888289837402F0A349
:10240000F0A37469F0A374A5F0C2AF75D69F020063
:10241000007406122B807F040228D4080808EAC042
:10242000E0EBC0E086F0E7A4FA180986F0E7A42AFA
:10243000FA180986F0E7A42AFA180986F0E7A42A10
:10244000FA1986F0E7A4FBE5F02AFA190886F0E706
:10245000A42BFBE5F03AFA190886F0E7A42BFBE57C
:10246000F03AFA18180986F0E7A4C5F02BFBE43A15
:10247000FA1908E7C5F0C6A426F6E5F03BFBE43AF6
:10248000FA1886F0E7A4F6E5F00826F6E43B08F62D
:10249000E43A08F6D0E0FBD0E0FA22122E0AB900A6
:1024A000030224FBE47921780DB800028004F709C7
:1024B000D8FCE49004D17855790C8002F0A3D8FCC4
:1024C000D9FA781A9020867A01BA00028007E4933C
:1024D000A3F608DAF97A257B1090209478C6790162
:1024E0008015E493A3AD82AE838A828B83F0A3AA86
:1024F00082AB838D828E83D8E9D9E7758208758394
:10250000ED7405122B2C75825175834A7400122BC1
:102510002CE4CFC0E0E4CEC0E0E4CDC0E0E4CCC029
:10252000E075F020E626F608E633F608E633F6080E
:10253000E633F6181818EC33FCED33FDEE33FEEFFE
:1025400033FFC3EC9709ED9709EE9709EF97191937
:1025500019400FFFEC97FC09ED97FD09EE97FE1966
:102560001906D5F0BFECF709EDF709EEF709EFF71B
:10257000191919D0E0FCD0E0FDD0E0FED0E0FF2238
:102580002518C582C0E0E51934FFC583C0E0E51811
:10259000C3958224F810AF088583198582188008B6
:1025A000858319858218D2AFCEF0A3E520F0A378F9
:1025B00008E608F0A3DEFAEFF0A3E58124FAF8E6D6
:1025C00008F0A3E608F0A3E608F0A30808E608F080
:1025D000A3E608F0A315811581D0E0FED0E0F81540
:1025E0008115811581E8C0E0EEC0E0222518C58282
:1025F000C0E0E51934FFC583C0E0E518C395822427
:10260000F910AF088583198582188008858319859C
:102610008218D2AFCEF0A3E520F0A37808E608F048
:10262000A3DEFAEFF0A3E58124FBF8E608F0A3E6C9
:1026300008F0A30808E608F0A3E608F0A315811542
:1026400081D0E0FED0E0F815811581E8C0E0EEC051
:10265000E022C0D02518C582C0E0E51934FFC5834B
:10266000C0E0E518C3958224F310AF08858319856F
:1026700082188008858319858218D2AFC8F0A3E933
:10268000F0A3EAF0A3EBF0A37908E709F0A3D8FAE6
:10269000ECF0A3EDF0A3EEF0A3EFF0A3D0E0F0A3F5
:1026A000D0E0F0A3D0E0F0A3E520F0A3E5F0F0A3A4
:1026B0002212010002020000205104A816090001A4
:1026C000020301090243000201008019090400000D
:1026D0000102020100052400100104240202052465
:1026E000060001052401000107058203400040099E
:1026F000040100020A0000000705840240000007F0
:10270000050402400000CC260000EF2600008519D9
:1027100083851882E0C0E0A3E0F9A3E0FAA3E0FB20
:10272000A37808E0F608A3DFFAE0FCA3E0FDA3E04D
:10273000FEA3E0FFA3E0C0E0A3E0C0E0A3E0F5D08B
:10274000A3E0F520A3E0A3F5F010AF088583198579
:1027500082188008858319858218D2AFD082D083F1
:10276000D0E0F8D0E032E47375F0108E218F22852E
:102770008226858325851882851983E0CEA3E0CF44
:10278000852682852583EBC9EAC8EDCBECCAC3E870
:1027900033C8E933C9EA33CAEB33CBC3EA9EF52425
:1027A000EB9FF523B35004AB23AA24EC33CCED33D9
:1027B000CDD5F0DAAE21AF2222D083D082ECC0E0BA
:1027C000EDC0E0E493A3FCE493A3FDED4C600D1297
:1027D0002914EC24FFFCED34FFFD80EFE493A3FC0F
:1027E000E493A3FDED4C600D1229EBEC24FFFCED0E
:1027F00034FFFD80EFD0E0FDD0E0FCE493A3C0E027
:10280000E493C0E022851983851882E0A3FEE0A34B
:10281000F5207808E0A3F608DFFAE0A3FFE0A3C004
:10282000E0E0A3C0E0E0A3C0E0E0A3C0E0E0A3C01C
:10283000E010AF0885821885831980088582188585
:102840008319D2AFD083D082022B32D083D082E9D9
:10285000C0E0E493A3C386F0C5F095F0F908E493D3
:10286000A386F0C5F095F0700BE493A3C3994005DF
:10287000E9048002A3E475F002A42582F582E5F064
:102880003583F583D0E0F9E493A3C0E0E493C0E09E
:1028900022C0E074F2122652A2AFE433FED2AFE5BA
:1028A0008AA2E25007900932E0D2E0F0E58AA2E382
:1028B0005007900932E0D2E1F0758A00C2EB7A103D
:1028C0007B0090092EE0F9123D01EEA2E092AF7F6D
:1028D0000102270E851983851882E0A3FEE0A3F587
:1028E000207808E0A3F608DFFAE0A3FFE0A3C0E049
:1028F000E0A3C0E0E0A3C0E0E0A3C0E010AF088523
:1029000082188583198008858218858319D2AFD0F3
:1029100083D08222C0E0C3E4939608740193961892
:10292000400FE49366700808740193661870007095
:1029300019A3A3C3E49396087401939618A3A34024
:102940000DD0E0D0E0D0E00227F5A3A3A3A3A3A37A
:10295000D0E022D083D082C5F0E493A3C5F0C39524
:10296000F0F5F0E493A3C395F04005E5F004800191
:10297000E475F002A42582F582E5F03583F583E461
:1029800093A3C0E0E493C0E0227404800874038041
:102990000474028000CCC0E0EDC0E0E518C39CCC1C
:1029A000AD1950011D10AF068C188D1980068C18BA
:1029B0008D19D2AF122AAED0E0FDD0E0FC22740215
:1029C0008000CCC0E0EDC0E0E518C39CCCAD195050
:1029D000011D10AF068C188D1980068C188D19D228
:1029E000AF122A8CD0E0FDD0E0FC22C0E0C0F0881D
:1029F000F0E4936670080874019366187000A8F0FC
:102A0000A3A3700BD0F0D0E0D0E0D0E00227F5A374
:102A1000A3D0F0D0E022D083D082CCC0E0E493A356
:102A20006006122ACF1470FAE493A36006122BFEFC
:102A30001470FAD0E0FCE493A3C0E0E493C0E02279
:102A4000C0E074F2122652758900C2C590101DE0D4
:102A5000700E7A007B10900719E0F9123D01800397
:102A60001248B97F0102270EC0E0C0D0E8C0E0E9FB
:102A7000C0E0E5A8D2AFC2C7751A00A2E7A2E792EC
:102A8000AFD0E0F9D0E0F8D0D0D0E032CAC0E0E476
:102A900093A3C582CCC582C583CDC583F0A3C5826F
:102AA000CCC582C583CDC583DAE5D0E0CA22CAC0D1
:102AB000E0E0A3C582CCC582C583CDC583F0A3C5A4
:102AC00082CCC582C583CDC583DAE6D0E0CA22C0F8
:102AD000E0E493A3D39C5010E493A3C39C400AD09A
:102AE000E0D0E0D0E0022A33A3A3A3D0E022700913
:102AF000080808226016181818C6C333C608C6335B
:102B0000C608C633C608C633C6D5E0EA22C008C325
:102B1000E096F50808A3E096420808A3E09642086C
:102B200008A3E09645087001D3D00822C09FF59F06
:102B3000E473D09F22D083D082C09FE493C0E0741E
:102B40000193C0E0740293F59F227404800A740319
:102B50008006740280027401C0E0F404122B65D078
:102B6000E0122DCD222518F58210AF08F518400C83
:102B700015198008F51840021519D2AF851983225E
:102B800000C0D0251810AF08F518500C05198008A2
:102B9000F51850020519D2AFD0D022BB0102E722AE
:102BA000C082C08389828A83BB0003E08002E493F1
:102BB000D083D082226016080808C6C313C618C680
:102BC00013C618C613C618C613C6D5E0EA22C3E05A
:102BD000C696F608A3E0C696F608A3E0C696F608E1
:102BE000A3E0C696F6222518F8E43519F92225182F
:102BF000FAE43519FB222518FCE43519FD22C0E062
:102C0000E493A36C7009D0E0D0E0D0E0022A33A3B3
:102C1000A3D0E022BB000EC082C0838A838982F0E9
:102C2000D083D08222BB0101F722251810AF08F50E
:102C300018400C15198008F51840021519D2AF225A
:102C4000C3E09608A3E09608A3E09608A3E096A246
:102C5000D265D03322E066701008A3E066700A08DF
:102C6000A3E066700408A3E06622E7667010080916
:102C7000E766700A0809E76670040809E76622C378
:102C8000E697F60809E697F60809E697F60809E6D2
:102C900097F622C3E096F008A3E096F008A3E0962A
:102CA000F008A3E096F022E026F008A3E036F00852
:102CB000A3E036F008A3E036F022E657F60809E66E
:102CC00057F60809E657F60809E657F622E056F6E1
:102CD00008A3E056F608A3E056F608A3E056F6224D
:102CE000E056F008A3E056F008A3E056F008A3E091
:102CF00056F022E627F60809E637F60809E637F621
:102D00000809E637F622E026F608A3E036F608A31F
:102D1000E036F608A3E036F622E647F60809E6476D
:102D2000F60809E647F60809E647F622700422602D
:102D30000D18C6C333C608C633C6D5E0F41822E45E
:102D4000C396F608E496F608E496F608E496F622AA
:102D5000C6F4C608C6F4C608C6F4C608C6F4C62239
:102D6000600D08C6A2E713C618C613C6D5E0F32245
:102D7000C3E7960809E7960809E7960809E7962247
:102D8000C3E09608A3E09608A3E09608A3E0962285
:102D900075D00075813F7518D17519040002249B08
:102DA000600C08C6C313C618C613C6D5E0F422E6E5
:102DB000F008A3E6F008A3E6F008A3E6F022E0F6A8
:102DC00008A3E0F608A3E0F608A3E0F622CAC0E0F4
:102DD000E6F0A308DAFAD0E0FA22EAF0A3EBF0A3D7
:102DE000ECF0A3EDF022E0FAA3E0FBA3E0FCA3E00B
:102DF000FD22E0F8A3E0F9A3E0FAA3E0FB22E8F06B
:102E0000A3E9F0A3EAF0A3EBF022E5C754F84401EC
:102E1000F5C77901222518F582E43519F5832212C8
:102E20002B355CB303122B358DB303122B35CCB38A
:102E300003122B35CDB403122B357CB503122B3581
:102E400009B803122B3562B903122B35F5B90312F9
:102E50002B35CABA03122B3540BB03122B35A8BC45
:102E600003122B35C6BC03122B35008002122B3502
:102E70005A8002122B35C48002122B354D8102126A
:102E80002B35098202122B35518202122B358C828E
:102E900002122B35E28202122B354A8302122B35A5
:102EA000CE8302122B35E78302122B350C840212DB
:102EB0002B354A8402122B35998402122B35C28499
:102EC00002122B35118502122B35BD8502122B35CE
:102ED000858602122B35EA8602122B35B78702123D
:102EE0002B35FD8702122B35198802122B354B88A2
:102EF00002122B35F38902122B35CA8A02122B35A6
:102F0000F68A02122B352C8B02122B354D8B0212B6
:102F10002B355C8B02122B35678B02122B351B8CE9
:102F200002122B358E8C02122B35008D02122B359E
:102F3000088D02122B35838D02122B35DC8D021287
:102F40002B351F8E02122B35B19002122B35F791C3
:102F500002122B35879402122B356F9502122B35F6
:102F6000A29502122B35649602122B35139702128A
:102F70002B355B9702122B35BD9702122B35E2974A
:102F800002122B35F39702122B356B9802122B3558
:102F9000F39802122B35579902122B353C9A0212E4
:102FA0002B35619A02122B35829B02122B35A09B86
:102FB00002122B35B39B02122B35269C02122B35A5
:102FC000359C02122B35BD9C02122B350B9D021233
:102FD0002B35149D02122B35149F02122B3568A03D
:102FE00002122B3578A002122B3594A102122B3538
:102FF0000DA202122B3543A302122B3585A3021218
:103000002B35C1A302122B3595A502122B35FAA739
:1030100002122B350EA802122B3518A802122B35DE
:1030200022A802122B352CA802122B3536A8021228
:103030002B354FA802122B3559A802122B3563A845
:1030400002122B356DA802122B359CA802122B35CB
:10305000C4A802122B35CFA802122B3519A90212CF
:103060002B3523A902122B352EA902122B3552A97A
:1030700002122B3576A902122B35D7A902122B3555
:1030800022AA02122B353EAA02122B35A8AA02123E
:103090002B35F4AA02122B353CAB02122B35B7AB01
:1030A00002122B3551AC02122B3515AE02122B3504
:1030B00083AE02122B35B5AF02122B35DBAF0212F5
:1030C0002B354BB102122B35FFB402122B35FFB654
:1030D00002122B35D7B802122B3570B902122B35DC
:1030E00082BB02122B3544BC02122B3590BC02125B
:1030F0002B35F6BC02122B3508BD02122B3558BFFA
:1031000002122B3547C002122B3586C102122B3515
:10311000D8C102122B357DC202122B3538C40212DF
:103120002B3569C502122B3587C502122B35DCC53C
:1031300002122B35DAC602122B3502C702122B35CA
:1031400065C702122B3566C802122B35D9C8021288
:103150002B3507CA02122B3572CA02122B3562CBED
:1031600002122B35C8CD02122B35F6CD02122B35AB
:10317000F1CE02122B358FD002122B35DFD0021286
:103180002B3597D102122B354CD202122B35B0D2EF
:1031900002122B3569D302122B3509D402122B35BA
:1031A0006DD402122B35B7D402122B35F4D402128F
:1031B0002B355CD602122B35598101122B359B81A0
:1031C00001122B35968401122B35E98401122B351F
:1031D0002F8501122B35708601122B35D5860112F1
:1031E0002B35158701122B35588801122B359A8BF8
:1031F00001122B35C38C01122B35049801122B358B
:10320000A49801122B35979B01122B35CE9C0112ED
:103210002B35449D01122B356E9E01122B35BE9F1E
:1032200001122B35A5A001122B350EA301122B354F
:103230001CA501122B35ADA501122B3581A601125B
:103240002B350DA701122B3517A701122B353FA7E0
:1032500001122B35ECA701122B35D7A801122B3503
:10326000AAA901122B3537AA01122B354DAA01123A
:103270002B35B1AA01122B35DAAA01122B3507AB77
:1032800001122B354CAD01122B3527AE01122B3517
:103290006BAE01122B35DCAE01122B3595AF01124E
:1032A0002B35C7AF01122B350EB001122B3541B0B3
:1032B00001122B35A6B001122B35F5B001122B35BA
:1032C000FAB001122B354EB101122B3598B1011213
:1032D0002B3594B201122B35F9B201122B3557B3AD
:1032E00001122B35A1B601122B3575B701122B3502
:1032F00002B901122B35DCBB01122B358FBC011238
:103300002B35B6BE01122B355BBF01122B3599BF91
:1033100001122B3569C101122B357CC101122B35ED
:1033200085C101122B358EC101122B35A3C10112AB
:103330002B35C2C101122B35F7C301122B354AC4FC
:1033400001122B3554C401122B355EC401122B35EA
:10335000B9C401122B3515C501122B352DC601122A
:103360002B358EC601122B35DDC701122B3526C831
:1033700001122B35FEC801122B3529CA01122B353B
:10338000DFCA01122B35E1CB01122B35E3CC011240
:103390002B35C8CD01122B35DFCD01122B351CCEBC
:1033A00001122B3526CE01122B3530CE01122B35D2
:1033B0003BCE01122B3559CE01122B359BCE01127B
:1033C0002B35F9CE01122B351ECF01122B3538CFFC
:1033D00001122B35C5CF01122B35FECF01122B3533
:1033E0004ED101122B35A5D101122B35BFD20112BE
:1033F0002B35F5D201122B3591D301122B350DD47B
:1034000001122B357DD501122B3598D601122B35A3
:103410005ED701122B3508D801122B358DD8011239
:103420002B35F5D801122B35AAD901122B35FCD931
:1034300001122B3571DA01122B353ADB01122B35D3
:103440005DDB01122B3521DC01122B3545DC01122D
:103450002B3567DC01122B35C8DC01122B3513DF4D
:1034600001122B35EEDF01122B3598E001122B35BE
:10347000D9E201122B3527E301122B356AE3011241
:103480002B35C2E301122B3520E401122B354AE41F
:1034900001122B356EE401122B359FE401122B35FE
:1034A000C9E401122B3510E501122B356EE501122E
:1034B0002B35CAE501122B35CBE601122B3535E849
:1034C00001122B3573E801122B359CE801122B35C4
:1034D0002DE901122B3577E901122B359BE90112F9
:1034E0002B35F1E901122B350CEA01122B35C7EA15
:1034F00001122B35F1EA01122B3547EB01122B3566
:103500004CEE01122B357FEE01122B353CEF0112F0
:103510002B3517F001122B35A7F001122B35E8F0EF
:1035200001122B35DE8006122B351D8106122B353C
:1035300044BD03122B35EDBD03122B35CCBE031257
:103540002B35E7BF03122B3507C003122B3529C1DA
:1035500003122B35C6C203122B3533C303122B358E
:1035600009C403122B350FC503122B3574C5031282
:103570002B35B0C503122B3509C603122B3542C6B5
:1035800003122B358BC603122B351DC703122B35A7
:10359000BAC703122B358FC803122B355CC903122F
:1035A0002B35E9C903122B350FCA03122B353CCA40
:1035B00003122B356DCA03122B3542CB03122B3568
:1035C00052CB03122B35A5CB03122B35B2CB0312F2
:1035D0002B35BFCB03122B35C8CB03122B352CCC8C
:1035E00003122B358ACC03122B35D5CC03122B3585
:1035F000F0CC03122B3517CD03122B3534CD03122B
:103600002B3540CD03122B35E4CE03122B35FDCEE6
:1036100003122B3579CF03122B358CCF03122B35A8
:103620009CCF03122B3542D003122B35B2D103129B
:103630002B35C5D203122B3565D303122B356FD32F
:1036400003122B35DDD303122B35EED303122B35AA
:103650002DD403122B355BD403122B3528D503123E
:103660002B357FD503122B35C4D503122B351AD633
:1036700003122B3538D603122B3586D603122B3581
:1036800054D703122B35A2D703122B35E4D70312DC
:103690002B3567D803122B3591D803122B35C7D899
:1036A00003122B35D6D803122B3534D903122B3500
:1036B000ACD903122B35EDD903122B353CDA0312AA
:1036C0002B3567DA03122B3581DA03122B359BDA9F
:1036D00003122B3570DB03122B357ADB03122B35EB
:1036E000B5DB03122B35C5DB03122B35CEDB031202
:1036F0002B351FDC03122B3533DC03122B3551DD48
:1037000003122B3564DD03122B357BDD03122B35C1
:1037100090DD03122B352ADE03122B35A9DE0312AE
:103720002B354CDF03122B3557DF03122B35A4E06A
:1037300003122B35C0E003122B3518E103122B3591
:1037400086E103122B35D2E103122B35ECE1031293
:103750002B354CE203122B35EAE203122B3535E30D
:1037600003122B3598E503122B3530E603122B3567
:10377000A7E603122B35EDE803122B3505E90312FA
:103780002B3508E903122B3514E903122B3528E9F0
:1037900003122B3530E903122B3567E903122B3561
:1037A0005BEA03122B35E5EA03122B3567EB0312B4
:1037B0002B35DCEB03122B35B4EC03122B35D6EC96
:1037C00003122B356DED03122B3579ED03122B35DA
:1037D000D6ED03122B35D9ED03122B3506EE03126D
:1037E0002B351BEE03122B358AEE03122B35D6EF49
:1037F00003122B35E9F003122B3574F103122B352C
:1038000087F203122B3551F303122B3582F3031287
:103810002B35A8F303122B35B1F303122B35E0F34C
:1038200003122B3590F403122B3540F503122B3580
:10383000B3F503122B3565F603122B35D8F60312B8
:103840002B3517F703122B3560F703122B3595F73D
:1038500003122B35D2E404122B353DE504122B352F
:1038600084E504122B35FAE504122B354AE60412DE
:103870002B35CEE604122B3512E904122B353DEB25
:1038800004122B351AEF04122B3597EF04122B3547
:10389000D2EF04122B35F0EF04122B3550F0041246
:1038A0002B3578F004122B35A8F004122B35D9F003
:1038B00004122B3506F104122B355FF104122B355F
:1038C000AAF104122B35A4D704122B3520D80412E8
:1038D0002B3546D804122B357DD804122B35D6D97A
:1038E00004122B35F2D904122B3537DA04122B359A
:1038F000C7DA04122B351FDB04122B35F4DB04125C
:103900002B35D2DC04122B351CDD04122B357DDD6A
:1039100004122B3501DE04122B352ADE04122B355E
:103920006BDE04122B3519E004122B35E9E004128A
:103930002B35B0E104122B3583E204122B35BDE2A6
:1039400004122B3515E304122B3537E304122B3503
:10395000CBE304122B357EE404122B351AC9051271
:103960002B357FC905122B3526CA05122B355ECAA9
:1039700005122B35A9F101122B3554F201122B350A
:10398000F1F301122B356DF401122B35A5F4011260
:103990002B3590F701122B3522F901122B358CF9BA
:1039A00001122B35C4FC01122B3565FE01122B359B
:1039B000DFF405122B3507F505122B35F3F505124B
:1039C0002B3578A105122B35FBA105122B3512A240
:1039D00005122B3585A205122B35EBA205122B35CE
:1039E00014A305122B3599A305122B353BA4051200
:1039F0002B359EA405122B3503A505122B3523A5C7
:103A000005122B3553A505122B356FA505122B3545
:103A10009EA505122B35CEA505122B3504A6051241
:103A20002B3564A605122B35E1F104122B35B1F2CA
:103A300004122B35D6F204122B35F6F204122B3574
:103A40000AF304122B3572F304122B3596F3041289
:103A50002B3514F504122B353AF604122B351BF7CF
:103A600004122B357FF704122B35ABF704122B35DC
:103A70002FF804122B3580F804122B35A1F804120C
:103A80002B3519F904122B353EF904122B35A1F907
:103A900004122B3531FB04122B35FEFB04122B359F
:103AA00035FC04122B355AFC04122B357AFC041217
:103AB0002B35A0FC04122B35B4FC04122B351DFD54
:103AC00004122B3571FD04122B358DFD04122B359C
:103AD00097FD04122B35B8FD04122B350FC80412C4
:103AE0002B3529CB04122B3556CC04122B3531CE75
:103AF00004122B35BBCE04122B356FCF04122B359D
:103B000098CF04122B35CDCF04122B357BD0041265
:103B10002B350BD104122B357ED104122B3500D25C
:103B200004122B3503D204122B3506D204122B3586
:103B300009D204122B3529D204122B352CD20412AF
:103B40002B3545D204122B35A9D204122B359BD329
:103B500004122B35D0D404122B351DD504122B356D
:103B600024D604122B35F6D604122B357BAA031269
:103B70002B3507D702122B356ADB02122B353CDCC2
:103B800002122B35C3DC02122B35F4DC02122B356A
:103B900022DD02122B3576DD02122B35A4DD021256
:103BA0002B35C5DE02122B35F3DE02122B3521DF59
:103BB00002122B3557DF02122B3504E002122B358F
:103BC0002AE002122B3589E002122B3503E20212A1
:103BD0002B3540B303122B358EE302122B356BE4E9
:103BE00002122B35B5E402122B3504E502122B35F7
:103BF00070E502122B35D8E502122B3525E60212AC
:103C00002B3595E602122B35A6E702122B359AE8E2
:103C100002122B354BE902122B3580E902122B35AB
:103C2000D5E902122B3580EA02122B35AEEA0212D8
:103C30002B3533EC02122B35B8EC02122B35F8EC95
:103C400002122B3537ED02122B3550ED02122B35B7
:103C5000FFED02122B35B7EE02122B355EEF02128A
:103C60002B35F2EF02122B3598F002122B3502F1B0
:103C700002122B358DF102122B3520F202122B3558
:103C80003EF202122B3511F302122B35CFF3021242
:103C90002B3585F402122B3523F502122B35389B78
:103CA00005122B35799B05122B35E29B05122B351E
:103CB000039C05122B351C9C05122B35D69C051236
:103CC0002B35DF9C05122B35309D05122B35599D68
:103CD00005122B35709D05122B35D49D05122B3501
:103CE000669E05122B35979E05122B35F39E051205
:103CF0002B35599F05122B358D9F05122B3500A0B2
:103D000005122B3542A005122B3582A005122B354A
:103D1000BAA005122B35CCA005122B35DEA005125A
:103D20002B350FA105122B354FA105122B35C6B12E
:103D300005122B3509B305122B352FB305122B3580
:103D400040B305122B3558B505122B3577B5051242
:103D50002B35C8E805122B35FEE805122B3549E94D
:103D600005122B3595EA05122B35E3B304122B35DA
:103D700021B504122B355DB504122B3522B7041280
:103D80002B354CB704122B35D2B904122B3512BA8D
:103D900004122B35A7BB04122B353CBC04122B3567
:103DA0009ABC04122B352BBD04122B3563BD0412B3
:103DB0002B35A5BD04122B351FBF04122B35A8C00F
:103DC00004122B35DEC204122B350CC304122B3522
:103DD00038C304122B3541C304122B3597C3041288
:103DE0002B3527C404122B352EC704122B35B2C72E
:103DF00004122B3572FE05122B3588FE05122B3569
:103E000092FE05122B35E2FE05122B359EC00512DF
:103E10002B35B7C005122B355CC105122B359CC163
:103E200005122B35B5C105122B35E9C105122B350D
:103E300036C205122B356AC205122B35ACC20512EB
:103E40002B3582C405122B35EDC405122B355CF7DA
:103E500005122B35B1F705122B350AF805122B3553
:103E600010FF05122B3552FF05122B3594FF05125A
:103E70002B35A4FF05122B35069A04122B35619AB7
:103E800004122B35759B04122B35429C04122B35E2
:103E9000579C04122B35A19C04122B350F9D041244
:103EA0002B35229D04122B35669D04122B35D59D92
:103EB00004122B35ED9D04122B3549A004122B352D
:103EC0004FA104122B35AAA104122B359BA3041277
:103ED0002B351CA404122B3555A404122B35A0A499
:103EE00004122B35B6A404122B35C3A404122B35AF
:103EF000FCA404122B350EA504122B35ECA50412DC
:103F00002B35F7A504122B357CA604122B35D4A62D
:103F100004122B3520A704122B3559A804122B3577
:103F20008AA804122B3502AB04122B3533AB0412D2
:103F30002B3555AC04122B3584AC04122B35F6AC62
:103F400004122B3502AD04122B3536AD04122B357D
:103F5000A6AD04122B3583AE04122B35BCAE041271
:103F60002B35C6AE04122B35C9AE04122B35D3AE99
:103F700004122B35EFAE04122B356BAF04122B3528
:103F8000A4AF04122B35C0AF04122B35ECAF0412D2
:103F90002B3527B004122B3542B004122B354CB010
:103FA00004122B357BB004122B3591B004122B3543
:103FB000ADB004122B35DCB004122B35FCB004126A
:103FC0002B3545B104122B358EB104122B3598B226
:103FD00004122B3595FA05122B35A6FA05122B354E
:103FE0002FFB05122B35FDF703122B354CF803126E
:103FF0002B350AFA03122B35DDFB03122B351BFC84
:1040000003122B35F1FC03122B35F6FD03122B3571
:1040100018FE03122B3574FE03122B35F5FE031226
:104020002B35E84F00122B350A5000122B355C510E
:1040300000122B35A55100122B351E5200122B35C4
:10404000995200122B35025300122B35495300129E
:104050002B35BB5300122B355C5400122B35DB542F
:1040600000122B35175500122B356B5900122B35CA
:10407000795B00122B35AC5B00122B35F15B001223
:104080002B35FB5C00122B35E45F00122B357A6078
:1040900000122B35466200122B35796300122B3546
:1040A0008F6400122B35036500122B35CF6500128B
:1040B0002B35436600122B35466600122B35FD6604
:1040C00000122B35426800122B35866A00122B3500
:1040D000206D00122B35FE6D00122B353B6F001248
:1040E0002B35807200122B35907200122B35C7735E
:1040F00000122B35787400122B35C47500122B3545
:10410000327600122B35657700122B35BA77001204
:104110002B35008004122B35A78004122B35198112
:1041200004122B35298104122B35AB8104122B3557
:10413000028204122B35F78204122B351E830412DF
:104140002B35C38304122B35128404122B35708453
:1041500004122B35CB8404122B35A68704122B3581
:104160005F8804122B35C48804122B35578A041239
:104170002B35F78A04122B35908B04122B35ED8BDF
:1041800004122B35638C04122B355F8D04122B35F2
:10419000528E04122B35AB8E04122B35C18E0412B5
:1041A0002B35E28E04122B35218F04122B35B18F63
:1041B00004122B35F49004122B35B19204122B35D6
:1041C000FB9304122B35359504122B3540960412BF
:1041D0002B35E09604122B354F9704122B356C9833
:1041E00004122B35008005122B356B8005122B3500
:1041F000B38005122B351A8105122B3576810512F5
:104200002B35B18105122B354D8205122B35A78236
:1042100005122B35138405122B359A8405122B3584
:10422000D38405122B35028505122B357C850512AA
:104230002B35C48505122B35EA8505122B354187B0
:1042400005122B35468705122B35BD8705122B35F8
:10425000298805122B35248905122B35118A051260
:104260002B35A0AC05122B35DDAC05122B3576AD08
:1042700005122B3581AE05122B35C9B005122B3531
:1042800045B105122B3510DB05122B35C1DB0512AC
:104290002B3589DC05122B35DEDC05122B3561DD73
:1042A00005122B3584ED05122B3525FF03122B3516
:1042B00036FF03122B35D6FF03122B35EC7F00128D
:1042C0002B35EBFF02122B3588FB05122B3598FBA3
:1042D00005122B35B0FB05122B3564FC05122B356E
:1042E00091F905122B3516FA05122B357CFA0512B9
:1042F0002B3525FD05122B3528FD05122B3561FDCB
:1043000005122B35B4FD05122B35C6FD05122B35D4
:10431000C9FD05122B3518CD05122B3526CD0512FA
:104320002B359FCD05122B3574CE05122B3533D08E
:1043300005122B3598D005122B35FBD005122B35E5
:10434000F87F00122B35F8EA05122B3530EB0512F9
:104350002B3581EC05122B3505ED05122B3523E6A7
:1043600005122B35C4E605122B35F5E605122B3563
:1043700040E705122B3504E805122B3537E8051206
:104380002B355DE805122B356FE805122B3583E8D8
:1043900005122B3591E805122B3518A705122B3580
:1043A00044A705122B35EBA905122B3540AA05129F
:1043B0002B357CAA05122B3590AA05122B35A9AAFC
:1043C00005122B359CAB05122B3578AC05122B351D
:1043D0008CAC05122B350FF205122B3533F205127A
:1043E0002B354CF205122B358BF205122B35BEF214
:1043F00005122B35EEF205122B35F8F205122B358E
:1044000060F305122B3563F305122B356DF305129E
:104410002B357AF305122B357DE305122B35A5E3F9
:1044200005122B35E6E305122B3504E405122B3576
:104430001FE405122B3587E405122B3593E4051292
:104440002B35F2E405122B3516E505122B35D7E591
:1044500005122B35E4E505122B35F5E505122B3554
:10446000008006122B35188006122B353E8006126E
:104470002B350FB705122B3558B805122B355EB802
:1044800005122B3575B805122B3596B805122B354C
:10449000ACB805122B35C0B805122B353FB9051243
:1044A0002B35A4B905122B352CBA05122B35A5BA1C
:1044B00005122B357EBB05122B358EBB05122B3515
:1044C0009DBB05122B35D9FD05122B35FDFD0512BF
:1044D0002B3525FE05122B354DFE05122B35BEE082
:1044E00005122B352AE105122B3549E105122B3532
:1044F000AFE105122B35F5DD05122B350EDE051269
:104500002B3525DE05122B352EDE05122B354CDE24
:1045100005122B3556DE05122B3560DE05122B35C4
:1045200073DE05122B3500DF05122B356FDF051208
:104530002B359DDF05122B35EEDF05122B353AE0CA
:1045400005122B3555E005122B355FE005122B3592
:1045500070E005122B35B3E005122B35878006126B
:104560002B35D28006122B35E8F502122B3514F6C6
:1045700002122B3532F602122B3545F602122B357C
:1045800060F602122B35BFF602122B35EDF6021241
:104590002B35F9FA02122B353BFC02122B356DFC40
:1045A00002122B35D8FC02122B355CFE02122B3581
:1045B00084FE02122B3599FE02122B35A9FE02123F
:1045C0002B35E9FE02122B352BFF02122B353BFF58
:1045D00002122B3524F605122B3534F605122B3535
:1045E00052F605122B356DF605122B3594F6051291
:1045F0002B35B5F605122B35CFF605122B3507F7FF
:1046000005122B352AF705122B3571FC05122B35B7
:10461000B7FC05122B350FD105122B351FD1051212
:104620002B353DD205122B356FD205122B3591D289
:1046300005122B35B9D205122B35D2D205122B35E6
:104640000ED305122B3577D305122B35B3D30512B4
:104650002B35FAD305122B3527D405122B3553D41D
:1046600005122B3582F005122B35B9F005122B35CA
:10467000DFF105122B35E2F105122B357EF805121C
:104680002B35F0F805122B352EF905122B356FF965
:1046900005122B352F9305122B35359305122B352B
:1046A0007C9305122B35889505122B35B89505128C
:1046B0002B35229605122B35DD9605122B352497C6
:1046C00005122B35579705122B35E19705122B351F
:1046D000F89705122B35059805122B350F98051202
:1046E0002B35AF9905122B35A19A05122B35FF9A60
:1046F00005122B35B28A05122B35C88A05122B35C7
:104700007A8B05122B35A48C05122B35998D051249
:104710002B35308E05122B356B8E05122B35DD8E29
:1047200005122B353B8F05122B354B8F05122B3580
:10473000728F05122B35C48F05122B35339105125C
:104740002B35389105122B355A9105122B356BFFFD
:1047500002122B3599FF02122B35CEFF02122B3598
:10476000D0FF02122B35D2FF02122B35E3FF0212CB
:104770002B35E5FF02122B35E8FF02122B35F9EE3F
:1047800005122B3567EF05122B3589EF05122B35F6
:10479000C1EF05122B35F7EF05122B35E7D70512C0
:1047A0002B352AD805122B3548D805122B357BDA44
:1047B00005122B35AFDA05122B35DADA05122B3557
:1047C000AEFF05122B35697800122B354C7900129B
:1047D0002B35347A00122B35457A00122B35567A58
:1047E00000122B35A27A00122B35917C00122B354A
:1047F000EC7D00122B351C7E00122B35E77E00125B
:104800002B35447F00122B35FAC405122B3518C501
:1048100005122B355CC505122B3582C505122B35CB
:10482000A4C505122B35BCC505122B35D4C5051200
:104830002B35ECC505122B3592C605122B35D4C687
:1048400005122B35DEC605122B35F3C605122B35A6
:10485000FAC705122B3515C805122B351EC80512CF
:104860002B3527C805122B3530C805122B353AC811
:1048700005122B35B7C805122B35CEBB05122B35CB
:1048800013C005122B352FC005122B3534C005126D
:104890002B35A7D405122B35BDD405122B353ED6AA
:1048A00005122B3568D605122B35AFD605122B35E0
:1048B000B8D705122B3584F305122B35DBFF011217
:1048C0002B35C07F00122B3542A903122B3563A86C
:1048D00003122B358FA603122B3550A403122B3550
:1048E000EFA303122B3596A303122B351DA303123E
:1048F0002B35F3A203122B35E8A003122B35B8A0F9
:1049000003122B357CA003122B3568A003122B3524
:10491000D49F03122B35F29E03122B35249E0312D3
:104920002B35D39B03122B35A89B03122B35499BA8
:1049300003122B35BA9903122B35489903122B35E4
:10494000459903122B358D9703122B35449703128B
:104950002B351E9703122B355A9603122B35D4B2E2
:1049600003122B355EB203122B3522B203122B3504
:10497000D9B103122B3592B103122B35DCB00312DF
:104980002B3550B003122B35A49403122B354494CD
:1049900003122B35159403122B35129403122B3569
:1049A00041B003122B35FD9303122B35BD93031237
:1049B0002B35A49303122B35AE9203122B359DE2B7
:1049C00002122B356D9203122B352EAD03122B35AF
:1049D000FA9103122B35C79103122B356C910312F8
:1049E0002B353B9103122B35048E03122B35168D7C
:1049F00003122B35D08B03122B357E8B03122B35F4
:104A0000728B03122B35D98A03122B35A789031217
:104A10002B35F88603122B359B8403122B354F84DC
:104A200003122B35348303122B35C98203122B3525
:104A3000F38103122B35008003122B35AF81031253
:104A40002B356B8003122B35328003122B35CFD6DA
:104A50000200000080FB8F000100030987000100B5
:104A60000209240002007C10250002007E102600AE
:104A7000020080102700020082102800010084102C
:104A800029000100851084000400861086000100C2
:104A90008A102A0001008B102B0001008C102C00C2
:104AA00001008F102D000800EA082E000100901070
:104AB0002F00010091103000010092103100010020
:104AC000931032000100F20833000100F3083400B3
:104AD0000100941036000100F40838000100951020
:104AE000390001008E1083000200A710630001004E
:104AF000FF0864000100E108650001008D106D00F1
:104B00000100000971000800E20866000100A6101B
:104B10004300010097104400020098104500010076
:104B20009A10460002009B1047000800F708480052
:104B300001009D104B0001009E1004000100A9100F
:104B4000A1000100AB1037000100AA10880001008D
:104B500004093C000100F5083D00010096104900E1
:104B600002009F106700010001094D000200A11022
:104B70004E000100A3104F000200A4103E000100EF
:104B8000F6080000000000000001363601010001B7
:104B900002010001030100010401060605020000F4
:104BA000070100340801000F090401010D0100FF95
:104BB0000E08000017020000190100FF1A01000191
:104BC0001B0100FE1C0100081D0200001F01000166
:104BD00020010001210200002301000F2402000037
:104BE0002601000127010008280200FF2A01000712
:104BF0002B0102402C0100002D0100012E010001BB
:104C00002F0100FF30010B1C310800003A010008A1
:104C10003B01000F3C0100013D0100FF3E0400008C
:104C200042040000460400004A0400004E04000054
:104C300052040000560400005A0400005E20FFFFEA
:104C400036000100060000000F0000000000000018
:104C500000000000000003FFFF00000403FFFF004E
:104C600000FFFF0FF4010005C40403200001000051
:104C70000B000000000000000003010F0000000016
:104C80000000000000000000000000000000000024
:104C90000000000000000000000000000000000014
:104CA0000000000000000000000000000000000004
:104CB00000000000000000000000000000000103F0
:104CC0007103010301030103010301032203020332
:104CD00001031003000300030003000300030003AB
:104CE000000342030003240306030003000304033C
:104CF00012032503230325032303040304030003F2
:104D000000030003440300030003230300036503BF
:104D100021003503810300030503000300030003A2
:104D2000000325032303030071003001600011001C
:104D30007000310220035004800010006100000068
:104D4000140063007300720062004300000013004F
:104D50000600000000000400120000000000000037
:104D6000000004000400370037003C02440000004B
:104D70000000000000006500000035008100000018
:104D80000500000083000000010171010101010123
:104D900011010101310101010101800110016101D5
:104DA0003B001400630173017201620143010001C1
:104DB000130106013D01350004011201000100014B
:104DC0000001000104010401330133013C014401ED
:104DD000320136000001000165010001350081014A
:104DE000000105018201830100010302710230010B
:104DF000600211027002010202020202800210022D
:104E000061023A00410063027302720262024302CD
:104E10000002130238000002000204021202000223
:104E200000020002000204020402370037003C02C4
:104E3000440200023900000200026502000235024D
:104E4000810200020502820283020002030471044F
:104E50000204600411047004020402040104020448
:104E600010046104000414046304730472046204F3
:104E700043040004130406040004000404041204A0
:104E80000004000400040004510464000004000451
:104E90000004440400040004000400046504000449
:104EA0003504810464000504000483040004000048
:104EB00051411300C1400100514102004340030031
:104EC000494004004F400500554006006140300055
:104ED000854031007F4032009140330097403500DB
:104EE0009D403400A3403600A9401100B540140095
:104EF000BB40150073401F007940FFFF000001FD1B
:104F000031063332082D320B4B321067310A5D32D5
:104F10000203320521320709320CE5310DF131640B
:104F20006F2FFF000007ECFDFDFDECDCDCCCBCAC22
:104F3000AC9C9C8C7C7C6C6C5C5C5C4C4C3C3C2CE1
:104F40002C1C1C03EAF5E5D5D5C5B5A59595858539
:104F50007575656555554545353525251515050086
:104F6000160F00000B150B020002220F3300000E7B
:104F70000C0E020B040B0A0708000F00011916188B
:104F800016161823030000034A49434E181A250534
:104F900002303017181921301B1D1F303030161801
:104FA0001920231A1C1E3000393D3F373C3C362C5B
:104FB000442D02040201010101090200BE040A3C61
:104FC000003C007F00E803000000000E0009280CF0
:104FD00008100C030303080900040001FF1E1E0C47
:104FE000050508040415100AC082C083900816E461
:104FF000F0A3F07CD57D047A897B0712468B122FB3
:1050000075124A33122F7B026DA174F3122580743E
:10501000F5122C2A89098A088B0AE9705F740265E7
:1050200008703E9007A87408F0750C00780C122BDD
:1050300056ECF50C780C122B56EBF50C780C122B69
:105040005690108612298990108AE0F97CF77D0825
:105050009010A7126DB2122F9F7407122B8002516D
:105060001C74016508600302511F9007A87408F0C2
:105070007B00AA0AA90A122FDB02511C74016509E0
:10508000600974026509600302511FEA6006740337
:10509000650870409007A87402125140122DE61264
:1050A0002F8D9007AEE0A2E34010E9700D90081A32
:1050B000E004F06404700312514A74036508705CE4
:1050C00090081BE0F8740128F0E8C39405404D12E5
:1050D000514A80487401650870457401650990075C
:1050E000A8702E740AF07401122E15E4F0740212E6
:1050F0002E157403F004122E15E4F0A3F0A3F0A310
:10510000F07408122E15E4F0AA18AB1912320F80B1
:1051100025740A125140122DE6122FC3E960179030
:1051200080F01229897A017B009007A5E0F9123EF0
:10513000217404122B80740B122B807F050228052A
:10514000F090108AE0F990108622901086E4F0A387
:1051500074F8F0A374FFF0A37407F02274F612251C
:1051600080E9FFEAFE7AD1F9123CDD8A828B83E581
:10517000824583702A7A027B00123CBFEA4B700E94
:105180007A107B009007A5E0F9123D0180148A8215
:105190008B8374D1F0EFA3F0EEF9123CCB8003EFD8
:1051A000A3F00253B674F712258089089007021203
:1051B000746CFF901078E0F47003A3E0F470369004
:1051C0000719E0901078F0A3E4F080298E828F8395
:1051D000A3A312663560168E828F83A3A3A3E0F586
:1051E000838882A3126635FAA90812402B8E828F1B
:1051F00083127799FFEE4F70D3901078E0F470032C
:10520000A3E0F4600A901078E0FAA90812402B128B
:10521000331790077312591C1233110275A874F1D9
:10522000122580890A8C08750900750B00740F120D
:105230002E151262337411122E151259438049AE85
:105240000E1252EAF50CA3E0F50DAE0BEE2EFEE4C5
:1052500033FFEA2EF582EB126628650C7004A3E09A
:10526000650D7019AE09EE2EFEE433FFEC2EF582CB
:10527000ED3FF583E50CF0A3E50DF00509050EE51E
:105280000EC3950840B9050BE50BC3950A5005758B
:105290000E0080EBA909026CC774F4122580890BFB
:1052A0007D00740C122E1512623380010DEDC39532
:1052B0000B5032750A008002050AE50AC39C50ECC7
:1052C000ED25E0FEE433FFEA2EF582EB3F1252FAC1
:1052D000F509AE0A1252EA65087004A3E065097088
:1052E000D7790180027900026A6EEE2EFEE433FF68
:1052F000E82EF582E93FF583E022F583E0F508A387
:10530000E02274F612258012539D7003A3E06D70A5
:10531000177508AC7509077808122B52EEFA12417E
:10532000577402122B80801F750802750980780857
:10533000122B528C088D097808122B52125390129E
:10534000417B7404122B80806D74F61225801253F9
:105350009D7003A3E06D70177508B975090778088B
:10536000122B52EEFA12415D7402122B80801F75CF
:1053700008037509807808122B528C088D0978086B
:10538000122B5212539012417B7404122B808026F0
:10539000125CE7F583E0FD7C801266E122EAFEEB19
:1053A000FF1275AD1277AAFCE439FD900773E06C2B
:1053B000227402122B807F0202280574F6122580C7
:1053C00074FE122C2AEAFEEBFF851882851983E40D
:1053D000F0A3125B7312682BFBECFA88828983A31B
:1053E000A3E0F9750900750800600574FF69700590
:1053F000750882803D900773E06A7003A3E06B70CC
:105400001AAA18AB19123893E9F50985188285197B
:1054100083126A79701C7508838017900902E06016
:1054200004640170057508818008E06402700375EA
:105430000880851882851983125943A908EEFAEF6E
:10544000FB124163E5096011851882851983126A90
:10545000796006126DAC123D610253B174F21225EF
:1054600080EAFEEBFF750A00750B001254CE123372
:1054700017EA65087003EB650970121238A5E91484
:10548000F50A79017AE27B071238AB8003750B804D
:10549000126622F50C780C122B56750CE2750D076E
:1054A000780C122B52780A122B567808122B52E5E0
:1054B0000BF5087808122B561264F8126625F97A53
:1054C000057B801241697407122B800262411275BC
:1054D000AD1277AAF508E439F5092274F612258091
:1054E000E9FE7F0080298A828B831252FCF8E4C88F
:1054F000F9E50828E439F509EF25E0F8E433F9EC9B
:1055000028F582ED125CF0EA2402FA50010B0FEF4D
:10551000C39E40D20253B674E812258074FB122C4D
:105520002A8A168B17851882851983E4F074031272
:105530002E15E4F0A3F004122E15E4F0A3F012608F
:10554000693517125B45F50B850A82F5831277A63C
:10555000FEE439FF850A82850B83A3A3E0FA850A5E
:1055600082850B83A3A3A3E0F9EAF508E439F509E2
:10557000E50A2404F50A5002050BEEFAEFFB12339C
:10558000B3E964016016EEFAEFFB1233B3E9703D44
:10559000900773E06E7003A3E06F603112683312FE
:1055A0002B56E4F508F5097808122B527808122BCF
:1055B000569007731229917508807808122B56129D
:1055C00059221241697407122B800259121259494B
:1055D0008810602B1273AB123D5B7403122E1512F0
:1055E000591C7403122E15126A7960137403122E5B
:1055F0001512593BA91012405B8A0A8B0B80037568
:105600001000125949880F60271273AB123D5B746A
:1056100001122E1512591C7401122E15126A79608E
:105620000F7401122E1512593BA90F12405B800313
:10563000750F00900702805D850A82850B83A3A306
:10564000A3A3A3A3A3A3E4F0A3F0AA0AAB0B85141E
:1056500082851583A3A3125959126635F9123CCBE2
:10566000851282851383E0C0E0851882851983E066
:10567000F874E228F582E43407F583D0E0126A7DFD
:1056800004F0E511A2E05007AA12AB13123D6185A8
:105690001482851583E0F514A3E0F515E51445158E
:1056A000700302587F851482851583A3A312663583
:1056B00060DD851482851583A3A3A3A3A3A3A3A35D
:1056C000E0A2E050CA851482851583A3A3A3A31288
:1056D0006A79851482851583A3A3601F126635FA43
:1056E0007901851482851583A3A3A3A312663A12B8
:1056F00027668A128B13751101800F125959A3A3C3
:10570000E0F512A3E0F513751100E51245137003DF
:10571000025682851282851383A3E065087004A374
:10572000E06509600F74FF6508700474FF65096027
:1057300003025682851282851383A3A3A3A3A3A386
:10574000A3122991851282851383A3A3A3A3A3A3E4
:10575000E0FC7405122E15126DB2A91012403D74B2
:1057600002122B80E9703C851282851383A3A3A3C8
:10577000A3A3A3A3A3A3A3122991851282851383B4
:10578000A3A3A3A3A3A3A3A3A3E0FC7403122E15B6
:10579000126DB2A90F12403D7402122B80E9700302
:1057A000025682E50F2510C333240AFA7B00123C0F
:1057B000BF8A0A8B0BEA450B70030256608A828B04
:1057C0008374D2F0851682851783A3A31262338A6D
:1057D000828B83A3A3E8F0A3E91276B0A3E51012AD
:1057E00077B2E50FF0E510603CEA2405FAE4350BEA
:1057F000FBE50A240AF8E4350BF98A828B831260F0
:105800006E7403122E1512595E122B4EAC10EC2C36
:10581000FCE433FD8A828B83126DB2123C9B7403CD
:10582000122B80800D8A828B83A3A3A3A3A3E4F011
:10583000A3F0E50F7003025638A810E828F8E43307
:10584000F9E50A28F8E50B39F9E8240AFAE439FB06
:10585000850A82850B83A3A3A3A3A3A3A3A31259A1
:105860001C7401122E1512595E122B4EAC0FEC2C2B
:10587000FCE433FD123C9B7403122B8002564A85D4
:105880001882851983E06027126833122B56750839
:10589000E27509077808122B527403122E1512684C
:1058A0003C122B569007731229917508008029EE3F
:1058B000FAEFFB1233B3E9702F126833122B5675CF
:1058C00008E27509077808122B527508007808124B
:1058D0002B569007731229917808122B56125922D1
:1058E0001241697407122B807403122E15126A7903
:1058F000600B7403122E15126DB2123D6174011209
:105900002E15126A79600B7401122E15126DB212E7
:105910003D617405122B807F10022805EAF0A3EB8D
:10592000F022E5162402FCE43517FDE51612648921
:105930003517F583E0F97A067B8022125943AA0ACB
:10594000AB0B22E0FCA3E0FD22850A82850B83E0FD
:10595000F8A385820A85830B2212663AA322E0F51A
:105960000CA3E0F50D750E00780C2274F112258061
:1059700074F4122C2A8A088B09ECFEEDFF740B12CA
:105980002E157403F0122BEE12468B123311EAFC23
:10599000EBFD7403122BEE124685E9600FEE241323
:1059A00012662564036010E06401600B851882852F
:1059B00019837484025AFD8E828F83A3A3A3A3A3A9
:1059C000A3A3A3E06018F46015EE24131266256407
:1059D000037016EE24141266256003F4700B85180C
:1059E000828519837482025AFD127558E064217011
:1059F00002A3E06003025AD4851882851983748C4F
:105A0000125B7364036003025ABE7401122BF61218
:105A1000620D1249C1E96003025ABE123FBF8A0AF1
:105A20008B0BEA450B7003025AFE8E0C8F0D750E20
:105A300000780C122B4E7C157D00123C9B740312D7
:105A40002B80850882850983A3A3E50A2415FCE43D
:105A5000350BFD7409122AAE1271B9C0E0E50A24B3
:105A60001EF582E4350BF583D0E0126074C0E0E5EA
:105A70000A241FF582E4350BF583D0E0F0E50A2413
:105A800020F582E4350BF5837405F0EE240BFE500F
:105A9000010FFAEFFB12394D7D007C007900EEFA20
:105AA000EFFB1241219080F01229897A007B10903F
:105AB00007A5E0F9123E217404122B808078125B56
:105AC0003B122B56125B4D1249D97401122B80E9FF
