:020000040000FA
:10000000021F3F022003FFFFFFFFFF02200BFFFF45
:10001000FFFFFF022013FFFFFFFFFF02201BFFFF78
:10002000FFFFFF022023FFFFFFFFFF02202BFFFF48
:10003000FFFFFF022033FFFFFFFFFF02203BFFFF18
:10004000FFFFFF022043FFFFFFFFFF02204BFFFFE8
:10005000FFFFFF022053FFFFFFFFFF02205BFFFFB8
:10006000FFFFFF022063FFFFFFFFFF02206BFFFF88
:10007000FFFFFF022073FFFFFFFFFF02207BFFFF58
:10008000FFFFFF022083FFFFFFFFFF02208BFFFF28
:10009000FFFF70DFFFFF040000000002000000C847
:1000A000030002030369A5020269A532730000017F
:1000B00000000000000400FFFFFFFFFFFFFFFF0440
:1000C00003090424035400650078006100730020D4
:1000D0000049006E0073007400720075006D0065C9
:1000E000006E007400730024035400490020004394
:1000F000004300320035003300310020005500532A
:10010000004200200043004400430000035F005F02
:100110000030005800000000000000000000000057
:1001200000000000000000000000000000000000CF
:100130000000000000303132333435363738394171
:100140004243444546331C881C881C881C881C90EC
:100150001C74F8121BCD900391E06015900302749B
:10016000FEF0900304744DF0A37405F07A011207B9
:100170001C7F01021D6C74F8121BCD74FF121EB699
:100180007E00801F851882851983E064FE700690CA
:1001900003877401F0851882851983E0F890038441
:1001A000E068F07901AA18AB191210E9E9700302AE
:1001B0000287851882851983E064EF70027E07E06C
:1001C000C0E0900387E0FA900385E0F8EA28F8E4BD
:1001D0003400F9740228F582740339F583D0E0F015
:1001E000900387E0609E14600E14602B14603B1433
:1001F0006051146067809E900384E4F085188285C6
:100200001983E0900386F0C394809003874003E451
:1002100080827402020194851882851983E090031C
:1002200082F09003877403020194851882851983F4
:10023000E0900383F0900386E060199003877404D4
:10024000020194900385E004F0F8900386E0686072
:10025000030201959003877405020194900385E4DD
:10026000F0900387F0900384E0F885188285198365
:10027000E0686003020195900382E0644D60030230
:1002800001951203BF8002EEF97401121E370201BC
:100290007174F7121BCD74FB121EB6EAFEEBFF75EC
:1002A00008047509007808121ED07402121F377AEC
:1002B000907B0079041218EB7402121E3712070E9D
:1002C000121F88E0687003A3E069701285188285A8
:1002D0001983E0F47003A3E0F4600302039A74044A
:1002E000121F2F1207708A088B09A808A909740227
:1002F000121F88E8F0A3E9F07404121F88E0600878
:1003000079011201510203B3851882851983E068CF
:100310007003A3E0697076851882851983E0F47014
:1003200003A3E0F470197402121F887410F0A37410
:1003300020F08518828519837410F0A37420F0755D
:1003400008017509007808121ED07402121F377A4E
:10035000247B0812196F7402121E3775080478087E
:10036000121ED07402121F377A907B007904121883
:10037000EB7402121E3712070E121F88E06870031A
:10038000A3E069700479028006790480027903127F
:1003900001518E828F83741E80058E828F83E4F0DC
:1003A00012070E121F88E0687003A3E069700479D9
:1003B00001800279007405121E377F02021D6C74E1
:1003C000ED121BCD74F8121EB6900307E0FD9003EA
:1003D00006E0FCFAEDF8E4C8F9EA28FEE93408FF83
:1003E000751001750B00750A068E088F0974027866
:1003F00008121F1CC39508F8E49509F9740228F542
:100400000E740339F50F8E088F0974097808121FCE
:100410004EE508F511EE2410F508E43FF509EEF578
:100420000CEF5401F50D900383E014605914700330
:100430000204FB14700302057614601024FE70039E
:100440000206311470030206E10206F1750A03790F
:100450004E1213BD9003071207047402F0A37440F8
:100460001207027408120702F0A3F07418C394076D
:1004700004F510AA10A90B12071CA90A7408121E71
:10048000377F0C021D6C750A04794E1213BDEE45C0
:100490000D7005A9111219D5C3EE9425EF940850DB
:1004A0003CC3E5089424E50994084031E50E249600
:1004B000F8E50F3420F988828983E0701BA3AA82B3
:1004C000AB83E070139003887401F0888289837491
:1004D000A5F08A828B838004900388E4F07508106D
:1004E0007509007808121ED07C087D03EEFAEFFB38
:1004F00012196F7402121E37020473750A05E51192
:10050000C394794006750B0102047375124075138C
:10051000007812121ED07C097D037402780C121F21
:100520001CAA0CAB0DA9111218EB7402121E379005
:100530000307E0A3F0900306E0A3F0751043C3EEB9
:100540009425EF94084003020473C3E5089424E55E
:100550000994085003020473900388E070030204B6
:1005600073E50E2497F8E50F3420F988828983E437
:10057000F0A3F00204737508047509007808121ED0
:10058000D07402121F377A907B0079041218EB7432
:1005900002121E377402121F88E0F8A3E0F98518D2
:1005A00082851983E0687003A3E069851882851944
:1005B00083700BE0F47003A3E0F470578009E0F45B
:1005C0007003A3E0F4700D8518828519837410F010
:1005D000A37420F012070E121F88E8F0A3E9F0754B
:1005E00008017808121ED07402121F377A247B0883
:1005F00012196F7402121E377508047808121ED083
:100600007402121F377A907B0079041218EB74027F
:10061000121E3712070E121F88E0687003A3E069EC
:100620007006750A01020473750A02750B0702044D
:10063000739003D6E0600764026003020473EDFF69
:100640007A01790012071CE060030206D5800312CC
:10065000118512116CE970F77404121F881206F6E6
:100660007404121F887808121F6C85080C85090D08
:10067000850A0E850B0F9003C2780C121EF67404C7
:10068000121F88780C121F5DE5084509450A450BC5
:1006900070CE8EC2E5C554E04FF5C57404121F88B4
:1006A0001206F67404121F887808121F6C85080C55
:1006B00085090D850A0E850B0F9003C2780C121E5A
:1006C000F67404121F88780C121F5DE50845094571
:1006D0000A450B70CE7A01790012071C79080204D2
:1006E0007CEC900391F07003020473750A09020414
:1006F00073790602047CE4F0A37426F0A3E4F0A36B
:10070000F022F0A3E4F0A3F0A3F0A3F0A322851855
:1007100082851983E0F8A3E0F974022274F8121BB1
:10072000CDEAFE900305E0D2E7F0E9A3F0EE9003F6
:1007300003F08E0874042AFE7C028004E062080C38
:10074000ECFA3395E0FB74022AF58274033BF583DF
:10075000EEF8C3EA98EB9400A2D265D03340DDE511
:1007600008F074012AF97A027B0312112702017141
:1007700074E9121BCD7582007583FE121E198A164C
:100780008B177514007515008A828B83E4F0900333
:10079000D6E07006D2AAD2AF800464027005790058
:1007A000120151750C00750D20750E00750F00902B
:1007B00003D6E0600464027015121185120176E917
:1007C000F874096860030208AC7900120151E06412
:1007D000027007A29240030208877508007509029B
:1007E0007808121ED07402121F37850C08850D0977
:1007F000AA08E5095407FB850E0A850F0B740B78D0
:1008000008121E87A9081218EB7402121E377E0008
:100810007F009003CAC0828E10EFF5113395E0F58A
:1008200012F513850C08850D09850E0A850F0B78C6
:10083000087910121F099003C67808121EF67583F6
:1008400003D0827808121DFA501D851882851983FD
:10085000E5822EF582E5833FF583E0F9AA14AB1516
:100860001208DB8A148B150EEE70010FC3EF940291
:1008700040A09003CE780C121EF69003D2780C1292
:100880001DFA40030207AF7900AA14AB151208DB6A
:1008900079001208DB8B159003D6E07004C2AFC25A
:1008A000AAEA451570277AA57BA58021E870030286
:1008B00007CE74066870030207CE740768700302DF
:1008C00007CE8516828517837401F080BA75820081
:1008D000758302121E197F10021D6CC008C0097CAE
:1008E000088A088B09740F7808121F4EE508F8EA89
:1008F00025E0FAEB33FBE9A2E7500474014AFAE879
:10090000A2E0500874216AFA74106BFBE9C333F952
:100910001CEC70CDD009D00822C082C083120F33E6
:1009200060030209F0A3E0F8A3E060030209F0A36A
:10093000E064027002A3E060030209F09003B8E0F3
:100940002480600914604F14605C0209F0E86003C1
:100950000209F09003B2E060047801800278009010
:1009600003C0E8F0A3E4F09003B1E0600A9003C094
:10097000E04402F0A3E4F09003A6E0640460149065
:1009800003B374C0F0A37403F0A3E4F0A3740212E1
:100990000F95F0020E6E90039FE064047052900376
:1009A000C0E4F0A380D0E8547FFA90039FE0640491
:1009B000703EEAC394065038749F2AF582E43403EB
:1009C000F583E854806018A3A3A3A3A3A3A3E064C2
:1009D0000370047801800278009003C0E88094E5F9
:1009E00082240CF58250020583E0640370E980E301
:1009F0009003A67404809B74F8121BCDE9FE90034B
:100A0000BE120F366003020AD990039FE0640460AF
:100A10000B9003BC120F366003020AD99003B8E0B2
:100A2000541F6009146030146020020AD99003BA80
:100A3000E064017022EE9003B1F060047905800259
:100A400079067A00121BCB020ADF9003BCE0547FC8
:100A5000FA9003BAE060057900020AE1EAC394065D
:100A60005077EA90620EF0749F2AF8E43403F9900C
:100A700003BCE05480602EEE600474108002744069
:100A8000906211F0EE60047B0380027B00EB8882B1
:100A90008983A3A3A3A3A3A3A3F0EE600479088092
:100AA0002F7907802BEE60047B2080027B80EB9007
:100AB0006214F0EE60047B0380027B00E8240CF5F6
:100AC00082E439F583EBF0EE6004790A800279095B
:100AD000121BCB90620EE480059003A67404F0799B
:100AE000017F01021D6C79001209F7E97003121BE6
:100AF000BA2279011209F7E97003121BC922C082D8
:100B0000C0839003BC120F367015A3120F36700FFE
:100B10009003BA120CD95480FAE9FBEA4B600790B3
:100B200003A67404801AE8906200F090039F6009A5
:100B3000E06402700C74038007E0640370037402C5
:100B4000F0020E6E74F5121BCD9003BAE0FAA3E02A
:100B50001460081460101460398057121754120C76
:100B6000B6A37B8080417900121776120CB67B8089
:100B7000E92402F9E43AFA121E6DFC1919E0FAA30D
:100B8000E92403F9E43AFA121E6DF9ECA3F0A3E9A3
:100B9000801CEAF91217E49003B3EAF0A3EBF0A388
:100BA000E4120CC5A37B00121E6DA3F0A3E4F002B7
:100BB0000C709003B3E4F0A3F0A3F0750B00900465
:100BC0007DE0FAA3E0FB020C4E850B08750900746A
:100BD000037808121F1CEA2508F8EB3509F9900381
:100BE000BA120CCFE493C0E0EFFCD0E06C705DA3D0
:100BF000E4936E70579003BC120CCFA3A3E493C090
:100C0000E0EFFCD0E06C704488828983A3A3A3E466
:100C1000936E703888828983A3A3A3A3E493F50815
:100C2000740193F5099003B3E508F0A3E509F0A377
:100C30007480F088828983A3A3A3A3A3A3E493F879
:100C4000740193F99003B6E8F0A3E9F0050B900462
:100C50007F120CD9C39AF508E99BF509740378084B
:100C6000121F4EC3E50B9508E495095003020BC90A
:100C70009003B3E0FCA3E0FDA3E0FEEC4D4E900337
:100C8000A6700474048029E0640460259003BEE02B
:100C9000FAA3E0FB9003B6E0F8A3E0F9C3EA98EB0F
:100CA0009950089003B6EAF0A3EBF09003A6740104
:100CB000F07F04021D6C9003B3EAF0A3EBF0A37481
:100CC00080120CC522F09003B3E0F9A3E0FA22E011
:100CD000FEA3E0FF8882898322E0F8A3E0F9E822FE
:100CE00074EE121BCDEA2404F8E43BF98808890964
:100CF0008882F583E4936025900481120CD9FEE983
:100D0000FF8007EE2404FE50010F8E828F83E49350
:100D1000F8740193F9EA687002EB6970E6750B00EC
:100D2000803F9062147490F07410120E3570037549
:100D30000A408E828F83A3A3A3E493550E6006E539
:100D40000AD2E0F50AE50A906215F0EA906213F023
:100D5000EC240CF582E43DF583E4F090620EF0059E
:100D60000B850882850983E493F8E50BC39840035B
:100D7000020E307A0079051216E78A0C8B0DEA45CF
:100D80000D60DCEA2402F8E4350DF9881089118839
:100D900082F583E493540FF51290620EF0750A0009
:100DA0008A828B83A3A3A3A3E4932407F50EA3E471
:100DB000933400F50F7403780E121F4EAA0EA8127A
:100DC000749F28F8E43403F9E8FCE9FD750E017519
:100DD0000F00E512780E121F1CE50EF50EE50C242F
:100DE00003F8E4350DF9851082851183E493A2E7B9
:100DF0004003020D229062117448F07408120E35FF
:100E00007003750A408E828F83A3A3E493550E600E
:100E100006E50AD2E0F50AE50A906212F0EA90626D
:100E200010F08C828D83A3A3A3A3A3A3A3020D59C7
:100E30007F0B021D6CF088828983E4935403640164
:100E400022C082C083120F337010A3120F36700AB3
:100E5000A3E064017002A3E060079003A67404801D
:100E60000C9003B374A0F0A37403120F8BF0D08323
:100E7000D0822274F3121BCD90039FE064026014B1
:100E80009003BC120F36700CA3120F36700690033D
:100E9000BBE060099003A67404F0020F2E7A00797B
:100EA00001121BCB9003BAE0606F7A00F91217763B
:100EB0008A0A8B0BEA450B605890039F7404F090EC
:100EC00003BAE09003A0F0750800850A82850B83C1
:100ED000A3A3A3A3E493F8E508C398504AA8087411
:100EE000A128F8E43403F9E8FEE9FF8E828F83E459
:100EF000F07A0079041216E78A828B83A3A3A3E415
:100F000093F88E828F83E06870E7120CE00508800A
:100F1000B99003A67404F0800E9003A0F090039F94
:100F20007403F0F91216677A007902121BCB7F0660
:100F3000021D6C9003BAE0F8A3E0F9E8492274F6C8
:100F4000121BCD90039FE0640470199003B8E06415
:100F5000817011120F33700C9003BEE064017002B7
:100F6000A3E060079003A67404801A9003BCE024F9
:100F7000A1F508A3E03403F5099003B3E508F0A355
:100F8000E509120F8BF07F03021D6CF0A3E4F0A3C0
:100F900004120F9522F0A3E4F09003A6042274F744
:100FA000121BCD90039FE0640470649003B8E0646A
:100FB00001705C9003BE120F3670549003BAE0FBD0
:100FC0009003BCE0FA9003A0E0F91217AE8A088BF8
:100FD00009AE08AF09EE4F60369003BCE0FA790322
:100FE000121BCB9003BAE0C0E09003BCE024A1F850
:100FF000A3E03403F988828983D0E0F0EEFAEFFBB6
:10100000120CE09003BCE0FA7904121BCB8006902E
:1010100003A67404F07F02021D6CC082C0838003AB
:10102000121A31A2E840F9A823E854046009782391
:10103000E654FBF612140EA823E854106009782336
:10104000E654EFF612142FA823E8A2E05005782307
:1010500054FCF690620EE0FA7404F0906214E0A280
:10106000E05039A9A8C2AF906216E0F8A3E0E8FB0F
:10107000E9A2E792AF8017906228E0C0E090039366
:10108000E0F812111CD0E0F0900393E004F0EBFDC7
:1010900074FF2DFB0470E0906214E4F0EA90620E9D
:1010A000F0E0FC7404F0906211E0A2E040319003A3
:1010B00095E0F8900394E06860257A4090039412DC
:1010C000115FE0906228F0900394E004F008900330
:1010D00095E06860041AEA70E39062117401F0EC24
:1010E00090620EF0D083D0822274F8121BCDE9FEFC
:1010F0007900801212111CE08A828B83F090039297
:10110000E00412115409900392E0F8900393E06810
:101110006005E9C39E40DD7F01021D6C748528F5E2
:1011200082E43404F58322C082C083E9FC80188AFB
:10113000828B83E0C0E090039512115FD0E0121122
:1011400054900395E004F0ECF874FF28FC0470DF81
:1011500079018090F08A828B83A3AA82AB8322E0FC
:10116000F8748528F582E43405F58322C082C083B3
:10117000900395E0F8900394E068600479018002A0
:1011800079000210E402101A74FB121EB67E009061
:1011900006857808121F6C794A1213BD9006857473
:1011A00001F0A3F0A37469F0A374A5F09003D778BD
:1011B00008121EE170047E0180159003DB7808128E
:1011C0001EE16008E59D541864107003022000EED3
:1011D000F9121334C280D291EEA2E050030212E75A
:1011E000AA18AB19120291E970030212E7C29185A5
:1011F0001882851983E0C3943C500EE0F8743CC318
:1012000098F50895E0F5098006750800750900E471
:10121000F50AF50B9003DF780C121F6C7808790C37
:10122000121AD1790612015112101A120176E9F838
:101230007409687007790612015180277407686085
:1012400016A2935012E8600874066860030212E761
:10125000A292400F0212E7750800750900750A0096
:10126000750B0085080C85090D850A0E850B0F90FE
:1012700003C27808121EF6E50C450D450E450F70A9
:10128000A7D2807907120151800312101A12116C33
:10129000E970F77E007F007401121F88E4F0A374E8
:1012A00026F0A3E4F0A3F07401121F887808121F3F
:1012B0006C85080C85090D850A0E850B0F9003C2FD
:1012C000780C121EF67401121F88780C121F5DE54F
:1012D000084509450A450B70CEA29250FCA29350D6
:1012E000F81213B8022000D280D291794E1213BDA9
:1012F000750800750900750A00750B007905120163
:101300005112101A120176E9F874096860EE74013E
:101310006870EE12101A9003E37808121EF690031C
:10132000E77808121DFA50EB1213B802200074057A
:10133000121E372274F8121BCDE9FE53BEFBE59D49
:10134000A2E650FA0078F8790100E824FF18E934A1
:10135000FFF9E84970F375C6807480659E70FA43A2
:10136000BE049062707408F01213ADEE700853F46E
:10137000FEC29043FE017403F5D575D4899003969F
:10138000E4F0A374C2F0A37401F0A3E4F0A3F0A30B
:10139000F0A37408F01213D37AFF7BFF1219EC53F9
:1013A000F4FED29043FE011213AD021117D2804316
:1013B000FD01C29143FE0222D280C29122781075B3
:1013C000B60FE5B4A2E750FAE5BBC39940F118E8BF
:1013D00070ED2274F7121BCD7A0079011217768A0C
:1013E000828B83A3A3A3A3A3A3A3E493A2E6900366
:1013F000B2500474018001E4F09003B1E4F0906213
:101400000F7403F0E0A2E750FB7F02021D6CC08264
:10141000C08390039F7402F0A3E4F09003A6F079D8
:1014200003121667752100752200D083D0822274C2
:10143000F6121BCD90620EE0FEE4F0906211E0FF28
:10144000A2E4501D7480F09003A67407F0E52145D6
:10145000226009852182852283121F979003A6E4CA
:10146000F0EFA2E2500B906211E4F09003A6F0803E
:10147000679003A6E0F87402687046906216E0FF79
:101480009003B3121DACEFF97A207B6212168174BF
:1014900003121E37EFF89003B612164512164F2F9F
:1014A000121657A3E0F8A3E0F9E8496004744080FD
:1014B000027448906211F0E849600302163B02167C
:1014C000177406687009852182852283121F979000
:1014D00003A6E060030215C2EFA2E0400302163B40
:1014E0007508B8750903750A007808121ECC7908CA
:1014F0007A207B621216817403121E3775210075E3
:1015000022009003B8E054E0601D24E0700302154F
:101510009D24E0607224C0604824E070030215A896
:1015200024E0606E0215B3A3E014602624FE601D63
:1015300024FE600A24FC601F24FE60208075120ACD
:10154000FE9003A6E06404707278608070120AF264
:1015500080EF120AE680EA120E7380E5120F9E8079
:10156000E0A3E0600E24FA600F24FE601024FE6009
:1015700011804012091980C9120B4480C4120E4117
:1015800080BF120F3E80BA7521B675221B121BB6A2
:1015900080AF7521B875221B121BB880A47521512C
:1015A00075221B121B51809975218175221B121BFC
:1015B00081808E9003A67404F0808E7840E890625B
:1015C00011F09003A6E0F874016870617F02900347
:1015D000B6E0F8A3E0F9C3E89420E994005007E8E6
:1015E000F5087F0A80037508209003B3121DACA98B
:1015F000087A207B621216AC7403121E37AC0812F4
:10160000164F2C121657A808A3121645EF90621118
:10161000F0E8C394205024E5214522600985218209
:10162000852283121F979003A6E4F0800E7405684C
:101630007009852182852283121F97EE90620EF039
:101640007F03021D6CC3E098F0A3E09400F02290A9
:1016500003B31216D9E922F9E43AFA9003B3E9F098
:10166000A3EAF0A3EBF022C082C083E99003A7783D
:1016700005F0A3D8FC9003AC7805F0A3D8FC0214C5
:101680002A74F8121BCDEAFCEBFDE9F87408121F6E
:10169000881216D460118C828D83E0121EA0E9247A
:1016A0000109E43AFAD8EF7F01021D6C74F8121BAD
:1016B000CDEAFCEBFDE9F87408121F881216D4601D
:1016C00011121E6D8C828D83F0E9240109E43AFA2F
:1016D000D8EF80D31216D9E822E0F9A3E0FAA3E00C
:1016E000FB22D083D08222C082C083E9FCEAFD7A4B
:1016F000007B00800312173290039DE0F8A3E0F90D
:1017000090047BE0687003A3E069602490039EE08E
:10171000F5838882A3E493F8EC68700D90039DE054
:10172000FAA3E0FB1217328007ED6870C8ED60C5C0
:1017300080B090039DE0F8A3E0F5838882E493F8FD
:1017400090039DE028F8A3E03400F990039DE8F0B1
:10175000A3E9F022C082C0831217657A00790112D2
:1017600016E70216E2900479E0F8A3E0F990039DF1
:10177000E8F0A3E9F02274F7121BCDE9FFEAFE12AC
:1017800017657A0079021216E7EA4B601CEF6010C9
:101790008A828B83A3A3A3A3A3E4936F70E480093D
:1017A000EEF874FF28FE0470D97F02021D6C74F5F8
:1017B000121BCDEAFF8B087A001217767A027904A1
:1017C0001216E7EA4B60188A828B83A3A3E4936F17
:1017D00070EA8A828B83A3A3A3E493650870DD7FFC
:1017E00004021D6C74F7121BCD74F0121EB6E97A58
:1017F000007B00600C146010146014146018021850
:10180000D47AF37B030218D47AF77B030218D47AD4
:101810001B7B040218D490043FE060030218D090B0
:1018200003EB7408121F377408121DD9750808F5E8
:10183000097808121ED07402121F377AE87B0779E4
:101840007F1218EB7402121E377808121ED0740A29
:10185000121F377402121F2F121C907402121E37AF
:101860008B09EA450970197509007808121ED07CA9
:101870000C7D787402121F2F121D267402121E375F
:101880007C287D00EDF8851882851983E58228F58E
:1018900082E43583F583E0FFECF8743F28F8E43404
:1018A00004F9EF1218DC88828983F0EFC41218DC87
:1018B000C0E0E824FEF582E934FFF583D0E0F00DC6
:1018C00074FC2CFCEDC3940840BA90043F742AF0D9
:1018D0007A3F7B047410121E370217A9540FFA7452
:1018E000692AF582E43404F583E02274F6121BCDF4
:1018F000890A740F550AF508750900740B780812E7
:101900001F1CEA2400F8EB3480F9E82400E93509CB
:10191000F985C709A2AFE433F508C2AFE50AC4549C
:101920000FFAE5C754F84AF5C7740A121F88E0FA9F
:10193000A3E0FB801C88828983E08C828D83F08801
:10194000828983A3A882A9838C828D83A3AC82AD74
:1019500083EAFEEBFFEE24FF1AEF34FFFBEE4F703D
:10196000D48509C7E508A2E092AF7F03021D6C741D
:10197000F7121BCDED900389F0ECA3F0A37462F095
:10198000A37473F0A3E0541FF07409121F88E0F5EC
:1019900008A3E0F509E508333354FC90038EF07496
:1019A000067808121F4EE50890038DF090038F749F
:1019B00012F0A37442F075D1FE75D601EA906271FF
:1019C000F0EBA3F0906270E0D2E1F0E0A2E740FB20
:1019D0007F02021D6CC082C083E9C333906272F043
:1019E000906270E0D2E0F0D083D0822274F7121BB4
:1019F000CD7523007524007525008A268B27EA9073
:101A0000620BF08A088B0974047808121F4EE508EF
:101A1000906207F08A088B0974097808121F4EE556
:101A200008543E906209F0758B00C2E87F02021DE7
:101A30006C74F7121BCDE59DA2E650FA906206E0A9
:101A4000F9A2E25034AA26EA90620BF0F508852745
:101A50000974047808121F4EE508906207F08A089E
:101A600085270974097808121F4EE508543E9062D4
:101A700009F0906201E0D2E0F0E9782346F6906246
:101A800002E0F50875090074047808121F1C782319
:101A9000E50846F608E50946F6906204E0F50875A3
:101AA000090074097808121F1C7824E50946F6E934
:101AB000A2E050037525017406596003752500E501
:101AC0008BA2E55006758BDF752500121BCC021A20
:101AD00027080808EAC0E0EBC0E086F0E7A4FA189F
:101AE0000986F0E7A42AFA180986F0E7A42AFA186A
:101AF0000986F0E7A42AFA1986F0E7A4FBE5F02AA4
:101B0000FA190886F0E7A42BFBE5F03AFA190886E3
:101B1000F0E7A42BFBE5F03AFA18180986F0E7A4E1
:101B2000C5F02BFBE43AFA1908E7C5F0C6A426F67F
:101B3000E5F03BFBE43AFA1886F0E7A4F6E5F00896
:101B400026F6E43B08F6E43A08F6D0E0FBD0E0FAEB
:101B500022C082C0839003B9E0F8742268700890B4
:101B600003A6E0701A80117420689003A6700DE03F
:101B7000700D121BA89003A6740280027404F080FA
:101B800043C082C0839003B9E064219003A6701320
:101B9000E07013121BA8A37407F0A3E4F09003A64F
:101BA0000480027404F0801C9003B37496F0A37454
:101BB00003F0A3E4F02280028000C082C08390037F
:101BC000A67404F0D083D0822280EF22222518C58B
:101BD00082C0E0E51934FFC583C0E0E518C39582F3
:101BE00024F910AF08858319858218800885831928
:101BF000858218D2AFCEF0A3E520F0A37808E608DE
:101C0000F0A3DEFAEFF0A3E58124FBF8E608F0A3E9
:101C1000E608F0A30808E608F0A3E608F0A315819B
:101C20001581D0E0FED0E0F815811581E8C0E0EE26
:101C3000C0E02212010002020000205104A816098F
:101C40000001020301090243000201008019090496
:101C50000000010202010005240010010424020218
:101C60000524060001052401000107058203400048
:101C70004009040100020A00000007058402400038
:101C800000070504024000004E1C0000711C00000B
:101C900074F8121BCD7408121F88E0FEA3E08015B3
:101CA000A3AA82AB838C828D83A3AC82AD83EE2406
:101CB000FF1EEF34FFFFEE4F60198C828D83E0F83A
:101CC0008A828B83E0F9E86960D6E9C398FA95E0E7
:101CD000FB80047A007B007F01021D6CE47921788F
:101CE00007B800028004F709D8FCE490030278C129
:101CF00079018002F0A3D8FCD9FA7AC27B03900064
:101D00008E78C479018015E493A3AD82AE838A8274
:101D10008B83F0A3AA82AB838D828E83D8E9D9E727
:101D2000121188121F9274F7121BCDEAF8EBF974A6
:101D300009121F88E0FEA3E0FF80188C828D83E0EB
:101D400088828983F0A3A882A9838C828D83A3AC27
:101D500082AD838E088F09E50824FF1EE50934FF54
:101D6000FFE508450970D47F02021D6C8519838543
:101D70001882E0A3FEE0A3F5207808E0A3F608DFD0
:101D8000FAE0A3FFE0A3C0E0E0A3C0E0E0A3C0E06E
:101D9000E0A3C0E010AF088582188583198008850C
:101DA0008218858319D2AFD083D082227403800039
:101DB000CCC0E0EDC0E0E518C39CCCAD1950011DCE
:101DC00010AF068C188D1980068C188D19D2AF12A1
:101DD0001DD9D0E0FDD0E0FC22CAC0E0E0A3C5825E
:101DE000CCC582C583CDC583F0A3C582CCC582C5D1
:101DF00083CDC583DAE6D0E0CA22C008C3E096F5F9
:101E00000808A3E096420808A3E096420808A3E069
:101E10009645087001D3D00822C5822518C582C511
:101E200083351910AF07F5198582188007F51985D4
:101E30008218D2AFC5832200C0D0251810AF08F594
:101E400018500C05198008F51850020519D2AFD0AA
:101E5000D0222518F58210AF08F518400C1519800E
:101E600008F51840021519D2AF85198322BB01026B
:101E7000E722C082C08389828A83BB0003E080029C
:101E8000E493D083D082226016080808C6C313C624
:101E900018C613C618C613C618C613C6D5E0EA225C
:101EA000BB000EC082C0838A838982F0D083D08237
:101EB00022BB0101F722251810AF08F518400C15B8
:101EC000198008F51840021519D2AF227403800456
:101ED00074028000C0E0F404121E52D0E0121F7B96
:101EE00022E066701008A3E066700A08A3E066703E
:101EF0000408A3E06622E026F608A3E036F608A36D
:101F0000E036F608A3E036F622E627F60809E637BB
:101F1000F60809E637F60809E637F622700422606B
:101F20000D18C6C333C608C633C6D5E0F41822253B
:101F300018FAE43519FB222518FCE43519FD227541
:101F4000D00075813F751802751903021CDC600C06
:101F500008C6C313C618C613C6D5E0F422E6F008B7
:101F6000A3E6F008A3E6F008A3E6F022E0F608A353
:101F7000E0F608A3E0F608A3E0F622CAC0E0E6F027
:101F8000A308DAFAD0E0FA222518F582E43519F52B
:101F9000832200000080FBE473FFFFFFFFFFFFFFD1
:101FA000FFFFFFFFFFFFFFFFFFFFFFFFFFFFFFFF41
:101FB000FFFFFFFFFFFFFFFFFFFFFFFFFFFFFFFF31
:101FC000FFFFFFFFFFFFFFFFFFFFFFFFFFFFFFFF21
:101FD000FFFFFFFFFFFFFFFFFFFFFFFFFFFFFFFF11
:101FE000FFFFFFFFFFFFFFFFFFFFFFFFFFFFFFFF01
:0A1FF600850609433886000000004C
:020000040003F7
:01FFF000F020
:020000040000FA
:10200000022DD0022232FFFFFFFFFFFFFFFFFFFF85
:10201000FFFFFFFFFFFFFFFFFFFFFFFFFFFFFFFFD0
:10202000FFFFFFFFFFFFFFFFFFFFFF022A54FFFF3D
:10203000FFFFFF022254FFFFFFFFFFFFFFFFFFFF35
:10204000FFFFFFFFFFFFFFFFFFFFFFFFFFFFFFFFA0
:10205000FFFFFF02216CFFFFFFFFFFFFFFFFFFFFFE
:10206000FFFFFFFFFFFFFFFFFFFFFF022A7DFFFFD4
:10207000FFFFFFFFFFFFFFFFFFFFFF0228A5FFFF9E
:10208000FFFFFF0221C301FFFFFFFFFFFFFFFFFF75
:1020900010201020010105030101FF0F10FEFF4871
:1020A0004E000000007E4D00000000FF000000FF19
:1020B00000010020FD00020000093F00000000A315
:1020C0003E8D3FD93E4B3F0000CD3E00000000005A
:1020D0000000000000000000000000000000000000
:1020E00000000006FFFFFF00035F005F00300058A4
:1020F00000000000000000000000000000000000E0
:1021000000000000000000000000000000000000CF
:1021100000C4261927192719271927212701010487
:10212000009B17000000E8030000FFFF6A1803E8A7
:1021300003000064006400B801A0BB0D00A0BB0D4B
:10214000000202000800000502070401051E020546
:102150001E020A0A01080803B80B02803E0102FEB3
:10216000FFE8030A050001FFFF0A01E0C0E074F286
:10217000122665A2AFE433F508D2AFAFA7AEA1EE49
:102180005F54106006123C2775A1EFEE5F540860A3
:1021900008123C2D75A1F78023EEA2E092F0EFA289
:1021A000E082F05017906198E0F8900778E0C398CB
:1021B000A2D265D0335002E8F075A1FE751A00E591
:1021C000088066C0E074F2122665A2AFE433FED246
:1021D000AF9061A4E0F8759B00E591585408600841
:1021E0007591F7123C758023E5915854106008757D
:1021F00091EF123C7B8014E591A2E092F0E8A2E01E
:1022000082F05007E0C2E0F0123DD19061A3E0F807
:10221000E5E9585404600E123DA775E9FB906193FF
:10222000E0A2E640F2751A00EEA2E092AF7F010252
:102230002721C0E074F2122665A2AFE433FED2AFCC
:102240009061A5E0F8E5BF585404600675BFFB1225
:102250003DE980D1C0E074F1122665E59DA2E6500B
:10226000FA906206E0F9A2E25034AA2CEA90620BDE
:10227000F0F508852D0974047808122DEFE5089013
:102280006207F08A08852D0974097808122DEFE598
:1022900008543E906209F0906201E0D2E0F0E978E3
:1022A0002946F6906202E0F5087509007404780882
:1022B000122D207829E50846F608E50946F69062D1
:1022C00004E0F50875090074097808122D20782AB1
:1022D000E50946F6E9A2E05003752B017406596042
:1022E00003752B00E58BA2E55006758BDF752B007F
:1022F00012431D758B00C2E87F02022721C3E498B8
:10230000F8E499F912233E8026C3E49AFAE49BFB91
:10231000E920E7E912233EE498F8E499F922C3E4BE
:1023200098F8E499F912233EE498F8E499F9C3E4A3
:102330009AFAE49BFB22EB20E7CFE920E7E0B90023
:1023400010BB0008E88AF084F8AAF022E4FBC8FA7F
:1023500022EB70227B10C833C8C933C9335007C37E
:102360009AC3DBF280069A50012ADBEAC833F4C82C
:10237000C933F4C9FA2275F008E4C833C8C933C9AF
:1023800033C99AC99B5004C92AC93BD5F0ECFBC894
:1023900033F4C8E4C9FA2274F51225FF74FA122C3A
:1023A000177508047509007808122BA17404122B04
:1023B000F77AF87B077903123B017402122B6390C2
:1023C00081397808122DE07402122E6D7808122CD3
:1023D0006E70497508027509007808122BA1740205
:1023E000122BF77AF67B077903123B017402122B4A
:1023F00063851882851983E0F47003A3E0F4601C00
:10240000851882851983E0F8A3E0F98882898374AE
:1024100002F0A3F0A37469F0A374A5F0C2AF75D65F
:102420009F0200007406122B637F040228E808084C
:1024300008EAC0E0EBC0E086F0E7A4FA180986F0ED
:10244000E7A42AFA180986F0E7A42AFA180986F000
:10245000E7A42AFA1986F0E7A4FBE5F02AFA19089E
:1024600086F0E7A42BFBE5F03AFA190886F0E7A41A
:102470002BFBE5F03AFA18180986F0E7A4C5F02B13
:10248000FBE43AFA1908E7C5F0C6A426F6E5F03BE6
:10249000FBE43AFA1886F0E7A4F6E5F00826F6E43D
:1024A0003B08F6E43A08F6D0E0FBD0E0FA22122E20
:1024B00062B9000302250EE47921780DB80002808C
:1024C00004F709D8FCE49004D178D779158002F09C
:1024D000A3D8FCD9FA781A9020867A01BA00028033
:1024E00007E493A3F608DAF97AA77B199020947889
:1024F000D979018015E493A3AD82AE838A828B8360
:10250000F0A3AA82AB838D828E83D8E9D9E7758246
:10251000B87583BD7406122B4575827B75834B7429
:1025200000122B45E4CFC0E0E4CEC0E0E4CDC0E033
:10253000E4CCC0E075F020E626F608E633F608E6BF
:1025400033F608E633F6181818EC33FCED33FDEEDD
:1025500033FEEF33FFC3EC9709ED9709EE9709EFD0
:1025600097191919400FFFEC97FC09ED97FD09EE3B
:1025700097FE191906D5F0BFECF709EDF709EEF74C
:1025800009EFF7191919D0E0FCD0E0FDD0E0FED03A
:10259000E0FF222518C582C0E0E51934FFC583C0DD
:1025A000E0E518C3958224F810AF08858319858269
:1025B000188008858319858218D2AFCEF0A3E52054
:1025C000F0A37808E608F0A3DEFAEFF0A3E5812493
:1025D000FAF8E608F0A3E608F0A3E608F0A3080876
:1025E000E608F0A3E608F0A315811581D0E0FED03F
:1025F000E0F8158115811581E8C0E0EEC0E02225E4
:1026000018C582C0E0E51934FFC583C0E0E518C3F2
:10261000958224F910AF0885831985821880088572
:102620008319858218D2AFCEF0A3E520F0A37808F5
:10263000E608F0A3DEFAEFF0A3E58124FBF8E60854
:10264000F0A3E608F0A30808E608F0A3E608F0A364
:1026500015811581D0E0FED0E0F815811581E8C024
:10266000E0EEC0E022C0D02518C582C0E0E51934F4
:10267000FFC583C0E0E518C3958224F310AF088539
:1026800083198582188008858319858218D2AFC87E
:10269000F0A3E9F0A3EAF0A3EBF0A37908E709F0CF
:1026A000A3D8FAECF0A3EDF0A3EEF0A3EFF0A3D0E3
:1026B000E0F0A3D0E0F0A3D0E0F0A3E520F0A3E5A4
:1026C000F0F0A32212010002020000205104A8161B
:1026D00009000102030109024300020100801909F7
:1026E000040000010202010005240010010424027C
:1026F00002052406000105240100010705820340AC
:10270000004009040100020A00000007058402409D
:10271000000007050402400000DF26000002270039
:1027200000851983851882E0C0E0A3E0F9A3E0FAF0
:10273000A3E0FBA37808E0F608A3DFFAE0FCA3E03F
:10274000FDA3E0FEA3E0FFA3E0C0E0A3E0C0E0A3A0
:10275000E0F5D0A3E0F520A3E0A3F5F010AF0885E5
:1027600083198582188008858319858218D2AFD095
:1027700082D083D0E0F8D0E032E4731075F0108E90
:10278000218F22858226858325851882851983E0FD
:10279000CEA3E0CF852682852583EBC9EAC8EDCBA1
:1027A000ECCAC3E833C8E933C9EA33CAEB33CBC355
:1027B000EA9EF524EB9FF523B35004AB23AA24EC47
:1027C00033CCED33CDD5F0DAAE21AF2222D083D099
:1027D00082ECC0E0EDC0E0E493A3FCE493A3FDED44
:1027E0004C600D122928EC24FFFCED34FFFD80EF36
:1027F000E493A3FCE493A3FDED4C600D1229FFECE0
:1028000024FFFCED34FFFD80EFD0E0FDD0E0FCE4E0
:1028100093A3C0E0E493C0E022D083D082E9C0E07B
:10282000E493A3C386F0C5F095F0F908E493A3867A
:10283000F0C5F095F0700BE493A3C3994005E9044B
:102840008002A3E475F002A42582F582E5F03583C9
:10285000F583D0E0F9E493A3C0E0E493C0E02285DF
:102860001983851882E0A3FEE0A3F5207808E0A391
:10287000F608DFFAE0A3FFE0A3C0E0E0A3C0E0E0D9
:10288000A3C0E0E0A3C0E0E0A3C0E010AF088582F1
:10289000188583198008858218858319D2AFD08363
:1028A000D082022B4BC0E074F2122665A2AFE43353
:1028B000FED2AFE58AA2E25007900739E0D2E0F0FD
:1028C000E58AA2E35007900739E0D2E1F0758A006B
:1028D000C2EB7A107B00900735E0F91240BFEEA200
:1028E000E092AF7F01022721851983851882E0A33A
:1028F000FEE0A3F5207808E0A3F608DFFAE0A3FFE6
:10290000E0A3C0E0E0A3C0E0E0A3C0E0E0A3C0E03B
:1029100010AF088582188583198008858218858301
:1029200019D2AFD083D08222C0E0C3E4939608745A
:1029300001939618400FE49366700808740193663B
:102940001870007019A3A3C3E493960874019396BA
:1029500018A3A3400DD0E0D0E0D0E0022809A3A343
:10296000A3A3A3A3D0E022D083D082C5F0E493A395
:10297000C5F0C395F0F5F0E493A3C395F04005E5E9
:10298000F0048001E475F002A42582F582E5F035BB
:1029900083F583E493A3C0E0E493C0E02274048051
:1029A000087403800474028000CCC0E0EDC0E0E550
:1029B00018C39CCCAD1950011D10AF068C188D1991
:1029C00080068C188D19D2AF122AC7D0E0FDD0E056
:1029D000FC2274028000CCC0E0EDC0E0E518C39C8E
:1029E000CCAD1950011D10AF068C188D1980068CC6
:1029F000188D19D2AF122AA5D0E0FDD0E0FC22C07C
:102A0000E0C0F088F0E493667008087401936618DB
:102A10007000A8F0A3A3700BD0F0D0E0D0E0D0E01D
:102A2000022809A3A3D0F0D0E022D083D082CCC06A
:102A3000E0E493A36006122AE81470FAE493A3601A
:102A400006122C431470FAD0E0FCE493A3C0E0E437
:102A500093C0E022C0E0C0D0E8C0E0E9C0E0A9A88F
:102A6000D2AFC2C7751A00E9A2E7E433F8E9A2E7DA
:102A700092AFD0E0F9D0E0F8D0D0D0E032C0E0742E
:102A8000F2122665758900C2C590199FE0700E7A12
:102A9000007B1090080EE0F91240BF80031249CB72
:102AA0007F01022721CAC0E0E493A3C582CCC5827E
:102AB000C583CDC583F0A3C582CCC582C583CDC5F2
:102AC00083DAE5D0E0CA22CAC0E0E0A3C582CCC563
:102AD00082C583CDC583F0A3C582CCC582C583CD15
:102AE000C583DAE6D0E0CA22C0E0E493A3D39C50C9
:102AF00010E493A3C39C400AD0E0D0E0D0E0022AC7
:102B000047A3A3A3D0E022C008C3E096F50808A31A
:102B1000E096420808A3E096420808A3E09645081C
:102B20007001D3D00822700908080822601618180E
:102B300018C6C333C608C633C608C633C608C6336C
:102B4000C6D5E0EA22C09FF59FE473D09F22D083D0
:102B5000D082C09FE493C0E0740193C0E0740293FC
:102B6000F59F2200C0D0251810AF08F518500C05AD
:102B7000198008F51850020519D2AFD0D0222518B7
:102B8000F58210AF08F518400C15198008F51840AB
:102B9000021519D2AF851983227404800A74038048
:102BA00006740280027401C0E0F404122B7ED0E0AF
:102BB000122E0D22BB0102E722C082C08389828AC5
:102BC00083BB0003E08002E493D083D082226016AE
:102BD000080808C6C313C618C613C618C613C618F5
:102BE000C613C6D5E0EA222518F8E43519F92225DE
:102BF00018FAE43519FB222518FCE43519FD22C327
:102C0000E0C696F608A3E0C696F608A3E0C696F6D8
:102C100008A3E0C696F622251810AF08F518400C58
:102C200015198008F51840021519D2AF22BB000E05
:102C3000C082C0838A838982F0D083D08222BB0184
:102C400001F722C0E0E493A36C7009D0E0D0E0D09B
:102C5000E0022A47A3A3D0E022E76670100809E744
:102C600066700A0809E76670040809E76622E066EC
:102C7000701008A3E066700A08A3E066700408A359
:102C8000E06622C3E09608A3E09608A3E09608A3B6
:102C9000E096A2D265D03322C3E697F60809E697FC
:102CA000F60809E697F60809E697F622C3E4939634
:102CB00008740193960874029396087403939622FD
:102CC000C3E096F008A3E096F008A3E096F008A30E
:102CD000E096F022E026F008A3E036F008A3E03604
:102CE000F008A3E036F022E647F60809E647F608C2
:102CF00009E647F60809E647F622E493F608740168
:102D000093F608740293F608740393F622E056F6DD
:102D100008A3E056F608A3E056F608A3E056F6220C
:102D2000700422600D18C6C333C608C633C6D5E08A
:102D3000F41822E056F008A3E056F008A3E056F09D
:102D400008A3E056F022E627F60809E637F6080958
:102D5000E637F60809E637F622E026F608A3E0365D
:102D6000F608A3E036F608A3E036F622E657F608A2
:102D700009E657F60809E657F60809E657F622E489
:102D8000C396F608E496F608E496F608E496F6226A
:102D9000C3E09608A3E09608A3E09608A3E0962275
:102DA000C6F4C608C6F4C608C6F4C608C6F4C622E9
:102DB000600D08C6A2E713C618C613C6D5E0F322F5
:102DC000C3E7960809E7960809E7960809E79622F7
:102DD00075D00075813F7518D1751904000224AEB5
:102DE000E0F608A3E0F608A3E0F608A3E0F6226008
:102DF0000C08C6C313C618C613C6D5E0F422E6F005
:102E000008A3E6F008A3E6F008A3E6F022CAC0E0B3
:102E1000E6F0A308DAFAD0E0FA22E0F8A3E0F9A39A
:102E2000E0FAA3E0FB22E0FCA3E0FDA3E0FEA3E0C8
:102E3000FF22EAF0A3EBF0A3ECF0A3EDF022E0FA1E
:102E4000A3E0FBA3E0FCA3E0FD22ECF0A3EDF0A3E4
:102E5000EEF0A3EFF022E8F0A3E9F0A3EAF0A3EB91
:102E6000F022E5C754F84401F5C77901222518F589
:102E700082E43519F58322122B4EAEA602122B4E98
:102E800088A802122B4E0EAC02122B4E22AC02125C
:102E90002B4E2CAC02122B4E36AC02122B4E40ACF9
:102EA00002122B4E4AAC02122B4E63AC02122B4E76
:102EB0006DAC02122B4EE4AC02122B4EEFAC0212A0
:102EC0002B4E1EAD02122B4E46AD02122B4E51ADB3
:102ED00002122B4EB6AD02122B4EC0AD02122B4E7B
:102EE000CBAD02122B4EEFAD02122B4E13AE0212DF
:102EF0002B4E81AE02122B4ECAAE02122B4EE6AE04
:102F000002122B4E5BAF02122B4EA7AF02122B4EBA
:102F1000F0AF02122B4E75B002122B4E1CB10212F2
:102F20002B4EEDB202122B4E52B302122B4E80B436
:102F300002122B4EA6B402122B4EEEB502122B4EED
:102F400028B902122B4E26BB02122B4EF1BC0212E4
:102F50002B4E8ABD02122B4E88BF02122B4E3DC053
:102F600002122B4E76C002122B4EE6C002122B4EDE
:102F7000F0C002122B4E1DC302122B4E20C40212AF
:102F80002B4E5DC502122B4EB4C502122B4E5FC6EE
:102F900002122B4E0FC802122B4E5CC902122B4E8E
:102FA0007CC902122B4ED1C902122B4ED2CA021278
:102FB0002B4EFACA02122B4E59CB02122B4E51CC79
:102FC00002122B4EC8CC02122B4EDBCD02122B4E1E
:102FD00049CE02122B4E48CF02122B4E9ED1021226
:102FE0002B4EC7D102122B4E2DD302122B4EAFD433
:102FF00002122B4E06D502122B4EB9D502122B4EC1
:1030000056D602122B4EB9D602122B4E77D7021289
:103010002B4E09D802122B4E68D802122B4EAAD87A
:1030200002122B4EE2D802122B4E38DA02122B4E2D
:10303000008003122B4E328003122B4E6B80031242
:103040002B4EB48103122B4EF88103122B4ECA82F1
:1030500003122B4E228303122B4E388403122B4E65
:10306000848403122B4EEA8603122B4E89890312A5
:103070002B4ECC8A03122B4E668B03122B4E728B77
:1030800003122B4EB28B03122B4EF18C03122B4EDC
:10309000EA8D03122B4E148E03122B4E678E0312F1
:1030A0002B4EC08E03122B4E218F03122B4E3C91C0
:1030B00003122B4ECD9203122B4EB99303122B4EBB
:1030C000FB9403122B4E379703122B4E039A0312D5
:1030D0002B4E129A03122B4EA69A03122B4E5A9B7A
:1030E00003122B4E9D9B03122B4EE69B03122B4E7D
:1030F0002F9C03122B4E939C03122B4E019D031207
:103100002B4E1D9D03122B4E4C9D03122B4E8B9D5F
:1031100003122B4E7E9E03122B4E2D9F03122B4E1D
:10312000A5A103122B4EF2A203122B4EC5A303122C
:103130002B4E47A403122B4E3EA803122B4E6DA814
:1031400003122B4EC8A803122B4EFBA803122B4EC2
:103150006BA903122B4E9EA903122B4EFFA903123B
:103160002B4E4FAA03122B4E28AB03122B4EE2AB71
:1031700003122B4EBCAC03122B4E42AF03122B4E4C
:10318000A0B003122B4EF3B103122B4E07B3031260
:103190002B4E0AB303122B4E39B303122B4E0EB52E
:1031A00003122B4ECDB503122B4EFCB503122B4E42
:1031B00019B703122B4EEDB703122B4EAFB9031202
:1031C0002B4E1FBA03122B4E51BA03122B4E71BA5B
:1031D00003122B4EDDBA03122B4ED7BB03122B4E1C
:1031E000FBBB03122B4E6EBC03122B4EC1BE03124F
:1031F0002B4E20BF03122B4E74BF03122B4EAFC1B8
:1032000003122B4E9BC203122B4E23C303122B4ED1
:103210000AC403122B4E94C403122B4EA8C40312EB
:103220002B4EBCC403122B4ED0C403122B4EE4C44D
:1032300003122B4E11C503122B4E41C503122B4E08
:103240001BC703122B4EE2C703122B4E8BC803126F
:103250002B4EE8C803122B4E4BC903122B4E99C9B3
:1032600003122B4EB4C903122B4E7ECA03122B4EEF
:1032700023CB03122B4EA0CC03122B4E2BCD0312CB
:103280002B4E66CD03122B4ED8CD03122B4E2DCFD5
:1032900003122B4EDBCF03122B4E0FD003122B4EFB
:1032A00027D003122B4ECAD003122B4E48D3031241
:1032B0002B4EDCD403122B4EFAD403122B4E18D50E
:1032C00003122B4EE4D503122B4E3DD903122B4E85
:1032D000A68101122B4EE88101122B4EF0860112BD
:1032E0002B4E3C8701122B4E828701122B4EB48845
:1032F00001122B4E198901122B4E5D8901122B4EA2
:10330000E38A01122B4EF28E01122B4E4F900112C6
:103310002B4EDF9B01122B4E629C01122B4E4C9FB9
:1033200001122B4EB1A001122B4E14A101122B4EF3
:1033300036A201122B4EA2A301122B4E87A401121A
:103340002B4EFCA601122B4E8AA801122B4E1BA954
:1033500001122B4E3AAA01122B4EC7AA01122B4E74
:10336000D1AA01122B4EF9AA01122B4E99AB0112D0
:103370002B4E86AC01122B4E4EAD01122B4EDBAD07
:1033800001122B4EF1AD01122B4E0EAE01122B4E3F
:1033900037AE01122B4E64AE01122B4EBFB001129C
:1033A0002B4E9AB101122B4EDEB101122B4E60B2A0
:1033B00001122B4E01B301122B4E33B301122B4ECF
:1033C00087B301122B4EBAB301122B4E18B401125F
:1033D0002B4E67B401122B4E6CB401122B4EC8B4A5
:1033E00001122B4E1AB501122B4E06B601122B4EAE
:1033F0006BB601122B4EC9B601122B4E48B7011203
:103400002B4EB4BA01122B4E99BB01122B4E42BD6A
:1034100001122B4E90C001122B4E32C101122B4EC5
:1034200087C301122B4E42C401122B4E8AC40112D3
:103430002B4E41C601122B4E5EC601122B4E67C6A3
:1034400001122B4E70C601122B4E7BC601122B4E61
:103450009AC601122B4EBEC801122B4E1BC9011277
:103460002B4E25C901122B4E2FC901122B4E8AC992
:1034700001122B4EE6C901122B4EFECA01122B4E31
:103480005FCB01122B4E70CC01122B4EB9CC011226
:103490002B4E67CD01122B4E77CE01122B4E3BCF18
:1034A00001122B4E77D001122B4E88D101122B4ED8
:1034B00093D201122B4EABD201122B4EE2D201124B
:1034C0002B4EECD201122B4EF6D201122B4E01D311
:1034D00001122B4E1FD301122B4E67D301122B4E1C
:1034E000C5D301122B4EEFD301122B4E01D4011282
:1034F0002B4EAAD401122B4EE3D401122B4E0FD621
:1035000001122B4E6CD601122B4E5DD701122B4EA1
:1035100093D701122B4E04D801122B4E80D80112E2
:103520002B4E24DA01122B4E4ADB01122B4E08DC03
:1035300001122B4ED6DC01122B4E5BDD01122B4EFD
:1035400006DE01122B4EEFDE01122B4E88DF011238
:103550002B4E64E001122B4ECCE001122B4E8BE17E
:1035600001122B4EE7E101122B4E4BE201122B4EC2
:1035700011E301122B4E34E301122B4EDEE3011254
:103580002B4E00E401122B4E61E401122B4E91E60A
:1035900001122B4E7AE701122B4E26E801122B4E18
:1035A00053EA01122B4E9CEA01122B4EE7EA01125C
:1035B0002B4E3AEB01122B4E98EB01122B4ECAEB1D
:1035C00001122B4EEEEB01122B4E23EC01122B4E6F
:1035D0004BEC01122B4E90EC01122B4EEEEC011233
:1035E0002B4E4CED01122B4E3FEE01122B4EB3EF42
:1035F00001122B4EF8EF01122B4E21F001122B4E2F
:10360000A6F001122B4E0BF101122B4E19F10112F3
:103610002B4E3DF101122B4E93F101122B4EAEF1C8
:1036200001122B4E69F201122B4E95F201122B4E14
:10363000D8F201122B4E3BF301122B4E37F501123B
:103640002B4E63F501122B4E1EF601122B4E02F784
:1036500001122B4E96F701122B4E0AC705122B4E64
:1036600042C705122B4E63C705122B4EA5C7051284
:103670002B4E09C805122B4E13C805122B4E23C81A
:1036800005122B4E5AC805122B4E03CC05122B4E99
:10369000CBCD05122B4EAFCF05122B4E51D00512BC
:1036A0002B4EDBD005122B4E508004122B4EF9808E
:1036B00004122B4ED88104122B4EE48204122B4E9E
:1036C000048304122B4E268404122B4ED68504123A
:1036D0002B4E438604122B4E148704122B4E1A884D
:1036E00004122B4E928804122B4ECD8804122B4EBE
:1036F000268904122B4E618904122B4EAA890412CA
:103700002B4E3E8A04122B4ED48A04122B4EA98BC8
:1037100004122B4E7C8C04122B4E0A8D04122B4E5D
:10372000308D04122B4E5D8D04122B4E8E8D0412A3
:103730002B4E5B8E04122B4E6B8E04122B4EBE8EC4
:1037400004122B4ECB8E04122B4ED88E04122B4E0D
:10375000E18E04122B4E458F04122B4EA38F0412C0
:103760002B4EEE8F04122B4E099004122B4E3090EC
:1037700004122B4E4D9004122B4E599004122B4ED6
:10378000EA9104122B4E039204122B4E7F920412E4
:103790002B4E929204122B4EA29204122B4E469361
:1037A00004122B4EB29404122B4EC59504122B4ECC
:1037B000659604122B4E6F9604122B4EEE96041251
:1037C0002B4EFF9604122B4E3E9704122B4E6C97F5
:1037D00004122B4E399804122B4E909804122B4E43
:1037E000C99804122B4E1F9904122B4E3D990412B6
:1037F0002B4E8B9904122B4E569A04122B4EA49AE0
:1038000004122B4EF19A04122B4E749B04122B4E71
:103810009E9B04122B4ED49B04122B4EE39B04124E
:103820002B4E429C04122B4EBA9C04122B4EFB9C36
:1038300004122B4E4B9D04122B4E769D04122B4EE0
:10384000909D04122B4EAA9D04122B4E7F9E0412B3
:103850002B4E899E04122B4EC49E04122B4ED49ED6
:1038600004122B4EDD9E04122B4E2E9F04122B4E63
:10387000429F04122B4E64A004122B4E77A0041218
:103880002B4E8EA004122B4EA3A004122B4E36A159
:1038900004122B4EAAA104122B4E4FA204122B4E3F
:1038A0005AA204122B4EBDA304122B4ED9A304120C
:1038B0002B4E25A404122B4E93A404122B4EC5A408
:1038C00004122B4EDFA404122B4E3FA504122B4EE4
:1038D000DEA504122B4E29A604122B4E7CA804123E
:1038E0002B4E14A904122B4E8BA904122B4EE8ABBD
:1038F00004122B4E00AC04122B4E03AC04122B4EC0
:103900000FAC04122B4E23AC04122B4E2BAC041222
:103910002B4E62AC04122B4E56AD04122B4EE0AD72
:1039200004122B4E62AE04122B4EE2AE04122B4E4A
:10393000B9AF04122B4EDBAF04122B4E74B004123D
:103940002B4ED1B004122B4ED4B004122B4E01B129
:1039500004122B4E16B104122B4E85B104122B4EBD
:10396000D1B204122B4EE4B304122B4E6FB40412E6
:103970002B4E82B504122B4E49B604122B4E7AB64A
:1039800004122B4EA0B604122B4EA9B604122B4ED5
:10399000D8B604122B4E88B704122B4E38B8041236
:1039A0002B4EABB804122B4E4EB904122B4EC1B99C
:1039B00004122B4E00BA04122B4E49BA04122B4E9D
:1039C0007EBA04122B4E23A205122B4E90A2051292
:1039D0002B4ED7A205122B4E4DA305122B4E9FA3A3
:1039E00005122B4E25A405122B4E69A605122B4E4F
:1039F00098A805122B4E75AC05122B4EF5AC05128E
:103A00002B4E30AD05122B4E4EAD05122B4EAEADEA
:103A100005122B4ED6AD05122B4E06AE05122B4EBF
:103A200037AE05122B4E64AE05122B4EBDAE0512FD
:103A30002B4E08AF05122B4E3FAF05122B4EBBAFDE
:103A400005122B4EE7AF05122B4E19B005122B4E67
:103A50007BB105122B4E97B105122B4ED5B1051235
:103A60002B4E62B205122B4EBEB205122B4E84B302
:103A700005122B4E43B405122B4E88B405122B4E63
:103A8000E9B405122B4E5EB505122B4E98B5051202
:103A90002B4EF0B505122B4E12B605122B4EAAB6C0
:103AA00005122B4E51B705122B4E9EB705122B4E09
:103AB000C7B705122B4E08B805122B4EB5B9051223
:103AC0002B4E99BA05122B4E4ABB05122B4EA8CB92
:103AD00006122B4EB9CB06122B4E57CC06122B4E8C
:103AE000EE7F00122B4EDBFF02122B4EBFCA0612D6
:103AF0002B4ECFCA06122B4EE7CA06122B4E9BCB7B
:103B000006122B4EC9C806122B4E4DC906122B4E5B
:103B1000B3C906122B4E25CD06122B4E28CD061208
:103B20002B4E61CD06122B4EB7CD06122B4ECACDB1
:103B300006122B4ECDCD06122B4E96A006122B4E02
:103B4000A4A006122B4E1DA106122B4EF2A10612A6
:103B50002B4EB1A306122B4E16A406122B4E75A4A3
:103B600006122B4EF87F00122B4EABBB06122B4ECB
:103B7000E3BB06122B4E31BD06122B4EB5BD06120D
:103B80002B4EEEB106122B4E8FB206122B4EC8B240
:103B900006122B4E13B306122B4EDCB306122B4E1D
:103BA00006B406122B4E2CB406122B4E40B406124D
:103BB0002B4E55B406122B4E5EB406122B4E41FA14
:103BC00003122B4E6DFA03122B4E13FD03122B4ED4
:103BD0006AFD03122B4EA6FD03122B4EBAFD0312F3
:103BE0002B4ED3FD03122B4EC4FE03122B4EA0FF0F
:103BF00003122B4EB4FF03122B4E7CFE05122B4EEC
:103C0000A0FE05122B4EB9FE05122B4EF7FE051233
:103C10002B4E2DFF05122B4E60FF05122B4E6AFF17
:103C200005122B4E4D9E02122B4ED9FF05122B4E24
:103C3000E3FF05122B4EF0FF05122B4E42AF06128A
:103C40002B4E65AF06122B4EB0AF06122B4ECEAFE9
:103C500006122B4EE9AF06122B4E4FB006122B4E1A
:103C60005BB006122B4EB8B006122B4EDCB006121B
:103C70002B4EA2B106122B4EAFB106122B4EC0B185
:103C800006122B4EC1CF06122B4ED9CF06122B4E49
:103C900072A602122B4E6F8506122B4ED386061289
:103CA0002B4EE18606122B4EF58606122B4E1287FE
:103CB00006122B4E278706122B4E3A8706122B4EE2
:103CC000BC8706122B4E228806122B4EAB8806129A
:103CD0002B4E238906122B4EFC8906122B4E0C8A82
:103CE00006122B4E1B8A06122B4E8ACE06122B4E24
:103CF000AECE06122B4ED6CE06122B4EFECE06129E
:103D00002B4E8EB406122B4EB5B406122B4ED4B4E5
:103D100006122B4E49B506122B4E12FD02122B4EE7
:103D20002BFD02122B4E42FD02122B4E4BFD0212B6
:103D30002B4E69FD02122B4E73FD02122B4E7DFDA0
:103D400002122B4E90FD02122B4E1DFE02122B4E24
:103D50008CFE02122B4EBAFE02122B4E0BFF0212E9
:103D60002B4E57FF02122B4E72FF02122B4E7CFF7E
:103D700002122B4E8DFF02122B4ED0FF02122B4E41
:103D8000A5FF01122B4EF0FF01122B4E8AD1051216
:103D90002B4EB6D105122B4ED9D105122B4EECD19C
:103DA00005122B4E07D205122B4E6BD205122B4E4D
:103DB00099D205122B4EA6D605122B4EE8D7051226
:103DC0002B4E1AD805122B4E85D805122B4E09DA28
:103DD00005122B4E31DA05122B4E46DA05122B4E08
:103DE00056DA05122B4E96DA05122B4ED8DA05124A
:103DF0002B4EE8DA05122B4E0DC406122B4E1DC4B5
:103E000006122B4E41C406122B4E6AC406122B4ECC
:103E100094C406122B4EB8C406122B4ECFC4061201
:103E20002B4EFDC406122B4E20C506122B4E71CC14
:103E300006122B4EB7CC06122B4E7BA806122B4E29
:103E40008BA806122B4EA9A906122B4EDDA906122D
:103E50002B4EFFA906122B4E27AA06122B4E40AA64
:103E600006122B4E7CAA06122B4EE2AA06122B4EED
:103E700027AB06122B4E6CAB06122B4E99AB0612DB
:103E80002B4ED1AB06122B4E9B9C06122B4EFD9C4B
:103E900006122B4EA49D06122B4EDC9D06122B4EB5
:103EA000D6F204122B4E85F304122B4EB9F50412F0
:103EB0002B4E8CF804122B4E0CFA04122B4E6EFA79
:103EC00004122B4E79FD04122B4EBDFE04122B4E14
:103ED00058C506122B4EA3C506122B4E00800612A3
:103EE0002B4EBF8206122B4E5C8306122B4E88830C
:103EF00006122B4EB68306122B4EEB8306122B4E68
:103F0000138406122B4E738406122B4E37BC0512F7
:103F10002B4E2FC005122B4E26C205122B4E54C31A
:103F200005122B4E30C405122B4ECBC505122B4E5D
:103F300098C605122B4EECC605122B4E1BB7061267
:103F40002B4E25B706122B4E46B706122B4E129457
:103F500005122B4E369905122B4E659A05122B4EE3
:103F6000419C05122B4ECC9C05122B4E609D0512D8
:103F70002B4E599E05122B4E909F05122B4E9DA045
:103F800005122B4E82A105122B4EE9BA04122B4EBC
:103F900021BB04122B4E7EC504122B4E68C60412A0
:103FA0002B4EB8C704122B4E03C904122B4EAEC9B8
:103FB00004122B4E81CA04122B4E18CB04122B4E26
:103FC000FCCB04122B4EFFCC04122B4EC1CD04129D
:103FD0002B4EEFCD04122B4E67CF04122B4EF0CF99
:103FE00004122B4E09D004122B4E63D104122B4E17
:103FF00015D204122B4EA4D204122B4E53D304120A
:104000002B4EB6D304122B4E52D404122B4ECBD4CB
:1040100004122B4EE9D404122B4EB6D504122B4EAB
:1040200085D604122B4E3BD704122B4E44C10612E8
:104030002B4E6EC106122B4E82C206122B4E85C22B
:1040400006122B4E23CF06122B4E65CF06122B4E97
:10405000A7CF06122B4EB7CF06122B4ECEF205126B
:104060002B4E15F305122B4E7EF305122B4E9FF3AC
:1040700005122B4EB8F305122B4E68F405122B4E89
:1040800071F405122B4EC2F405122B4EF8F40512F2
:104090002B4E0FF505122B4E7CF505122B4E0CF610
:1040A00005122B4E42F605122B4E8BF605122B4EA7
:1040B000ECF605122B4E26F705122B4E8EF7051245
:1040C0002B4EE1F705122B4E24F805122B4E61F80A
:1040D00005122B4E73F805122B4E85F805122B4E48
:1040E000BFF805122B4EFFF805122B4E28F90512CA
:1040F0002B4E4C8A06122B4E928B06122B4EBB8BEC
:1041000006122B4ECC8B06122B4EE48D06122B4E34
:10411000048E06122B4E67B906122B4E9DB906125D
:104120002B4EECB906122B4E48BB06122B4E0080CC
:1041300005122B4E3E8105122B4E7A8105122B4E15
:104140003F8305122B4E698305122B4EEF85051216
:104150002B4E2F8605122B4EC58705122B4E5A88E3
:1041600005122B4EB88805122B4E3E8905122B4E98
:10417000768905122B4EB88905122B4E258B051218
:104180002B4EA98C05122B4EE38E05122B4E118F50
:1041900005122B4E3D8F05122B4E468F05122B4ECE
:1041A0009C8F05122B4E2C9005122B4E339305122B
:1041B0002B4EB59305122B4ED6CD06122B4EECCDC1
:1041C00006122B4EF6CD06122B4E52CE06122B4E59
:1041D000229406122B4E3B9406122B4EE0940612AC
:1041E0002B4E209506122B4E399506122B4E6C95B0
:1041F00006122B4EB99506122B4EED9506122B4E3C
:104200002F9606122B4E089806122B4E7398061204
:104210002B4E8CC606122B4EE1C606122B4E3BC708
:1042200006122B4EB6C706122B4E28C806122B4E6E
:1042300066C806122B4EA7C806122B4E92E3051233
:104240002B4E98E305122B4EDFE305122B4EEBE5C8
:1042500005122B4E1BE605122B4E85E605122B4E42
:1042600040E705122B4E83E705122B4EB4E70512EB
:104270002B4E3EE805122B4E55E805122B4E62E8F8
:1042800005122B4E6CE805122B4E0CEA05122B4E34
:10429000FEEA05122B4E5CEB05122B4E18DB0512C5
:1042A0002B4E2EDB05122B4EE0DB05122B4E0ADDCA
:1042B00005122B4EFFDD05122B4E96DE05122B4EFE
:1042C000D1DE05122B4E43DF05122B4EA1DF051266
:1042D0002B4EB1DF05122B4ED8DF05122B4E2AE0F4
:1042E00005122B4E96E105122B4E9BE105122B4E2B
:1042F000BDE105122B4E46D006122B4E74D006128D
:104300002B4EA9D006122B4EABD006122B4EADD0A1
:1043100006122B4EBED006122B4EC0D006122B4ECC
:10432000C3D006122B4EB5BF06122B4E23C0061269
:104330002B4E45C006122B4E7DC006122B4EB3C02D
:1043400006122B4E25AC06122B4E67AC06122B4ED6
:104350008AAC06122B4EBDAE06122B4ED7AE0612FD
:104360002B4E02AF06122B4EA37F00122B4E57F896
:1043700001122B4E35F901122B4E1BFA01122B4E56
:104380002CFA01122B4E3DFA01122B4E89FA011222
:104390002B4E7AFC01122B4ECFFD01122B4EFFFD4E
:1043A00001122B4EC3FE01122B4E21FF01122B4E88
:1043B00094DA02122B4EEFDA02122B4E8FDB02122E
:1043C0002B4E0CDD02122B4EF8DD02122B4EB5DE09
:1043D00002122B4ECCDE02122B4E1BDF02122B4E92
:1043E0008FDF02122B4EEADF02122B4EFDDF02128C
:1043F0002B4E61E002122B4ED0E002122B4EE8E071
:1044000002122B4E97E302122B4E9CE402122B4E0B
:10441000F7E402122B4E4BE502122B4EFAE7021282
:104420002B4E4AE802122B4ECBE802122B4E0DE91E
:1044300002122B4EE7E902122B4E20EA02122B4EFB
:104440003FEA02122B4E8AEA02122B4EAAEA02120D
:104450002B4E7EEB02122B4E65EC02122B4E70ECB3
:1044600002122B4EBEEC02122B4E13ED02122B4EFB
:104470005FED02122B4EBAEE02122B4EEDEE02123F
:104480002B4E85F102122B4EB8F102122B4ECCF2BC
:1044900002122B4EFBF202122B4E73F302122B4E22
:1044A00037F402122B4E79F402122B4EEDF4021265
:1044B0002B4E0BF602122B4E52F602122B4E5CF6CE
:1044C00002122B4E5FF602122B4E69F602122B4E91
:1044D00085F602122B4EEFF602122B4E28F702122F
:1044E0002B4E44F702122B4E70F702122B4E97F709
:1044F00002122B4EBBF702122B4E34F802122B4E37
:10450000A7F802122B4EEAF802122B4EF4F8021210
:104510002B4E23F902122B4E39F902122B4E55F96C
:1045200002122B4E84F902122B4EA4F902122B4ECA
:10453000EDF902122B4E28FA02122B4E34FB021216
:104540002B4E97FC02122B4EB6FC02122B4ECDFCCA
:1045500002122B4EDFFC02122B4ECCC906122B4E40
:10456000DDC906122B4E66CA06122B4E54F90512EF
:104570002B4E92F905122B4E2BFA05122B4E36FBC1
:1045800005122B4E7EFD05122B4EFBFD05122B4E08
:1045900095EB05122B4EE4EB05122B4EA2ED051206
:1045A0002B4E76EF05122B4EB4EF05122B4E95F0E5
:1045B00005122B4E9FF105122B4EC1F105122B4E09
:1045C0001DF205122B4E9EF205122B4E6551001264
:1045D0002B4E875100122B4EF65200122B4E3F539A
:1045E00000122B4EB05300122B4E335400122B4EA0
:1045F000AA5400122B4EF15400122B4E6855001293
:104600002B4E0C5600122B4E815600122B4EBE56CE
:1046100000122B4E065B00122B4E295D00122B4E12
:10462000625D00122B4EA15D00122B4E97600012AE
:104630002B4E276100122B4EDB6200122B4E1564AD
:1046400000122B4E356500122B4EA66500122B4E24
:10465000876600122B4E0A6700122B4E1E6700124F
:104660002B4EED6700122B4E246900122B4E436B2C
:1046700000122B4E526D00122B4E3E6E00122B4E2E
:10468000D57000122B4EAA7100122B4EE972001247
:104690002B4E197600122B4E297600122B4E5F7787
:1046A00000122B4EF87700122B4E297900122B4E58
:1046B000977900122B4ED07A00122B4E0B7B0012F2
:1046C0002B4EB47B00122B4E00D804122B4EA2D8D6
:1046D00004122B4E0ED904122B4E28D904122B4E45
:1046E000AAD904122B4EE4D904122B4EE6DA041296
:1046F0002B4E28DB04122B4E9ADB04122B4EEADBE6
:1047000004122B4E49DC04122B4EF5DC04122B4E06
:10471000DFDF04122B4EA6E004122B4E0CE1041234
:104720002B4EB4E204122B4E4DE304122B4EE6E363
:1047300004122B4E49E404122B4EBFE404122B4EFC
:10474000C0E504122B4EB1E604122B4EECE6041227
:104750002B4E03E704122B4ED0E704122B4E0EE82B
:1047600004122B4E96E804122B4EE3E904122B4E52
:10477000A7EB04122B4EE5EC04122B4E18EE04129C
:104780002B4E2CEF04122B4EC3EF04122B4E32F0A3
:1047900004122B4E3FF104122B4E5BD903122B4E09
:1047A000C4D903122B4E0CDA03122B4E50DA03122B
:1047B0002B4EC3DA03122B4E1DDB03122B4E58DB9C
:1047C00003122B4EF2DB03122B4E4CDC03122B4E4A
:1047D000B8DD03122B4E31DE03122B4E5BDE0312CB
:1047E0002B4E6FDF03122B4E83E003122B4EABE0F8
:1047F00003122B4EA9E103122B4EBAE103122B4EEA
:10480000D2E103122B4ED8E203122B4EFBE203122D
:104810002B4ECAE303122B4EF4E303122B4E0BE490
:1048200003122B4E31E403122B4E70E403122B4E75
:1048300090E403122B4EB7E403122B4ECFE4031285
:104840002B4EA9E503122B4E03E603122B4E73E702
:1048500003122B4EF1E703122B4E15E803122B4ED9
:104860002CE803122B4E00E903122B4E99E9031298
:104870002B4EBFE903122B4E0FEB03122B4E2EEBE8
:1048800003122B4EADEB03122B4EE4EB03122B4E17
:1048900022EC03122B4EB8EC03122B4E2DED03121B
:1048A0002B4E11EE03122B4EEFEF03122B4EC4F0E2
:1048B00003122B4E10F103122B4E41F203122B4E1A
:1048C000B1F303122B4E10F503122B4E1EF50312FB
:1048D0002B4E1AF603122B4EC1F603122B4E07F77E
:1048E00003122B4E1CF703122B4E2BF803122B4EE8
:1048F00044F903122B4EA0F903122B4E89A4061281
:104900002B4E44A606122B4E0CA706122B4E61A767
:1049100006122B4EE7A706122B4E809806122B4E3E
:104920009E9806122B4EE29806122B4E08990612FC
:104930002B4E2F9906122B4E479906122B4E5F993C
:1049400006122B4E779906122B4E1D9A06122B4EED
:104950005F9A06122B4E749A06122B4E7B9B061200
:104960002B4E969B06122B4E9F9B06122B4EA89BFE
:1049700006122B4EB19B06122B4EBB9B06122B4EE2
:10498000389C06122B4E588F06122B4E9A93061205
:104990002B4EB69306122B4EBB9306122B4E34BEF3
:1049A00006122B4E647C00122B4E7A7C00122B4E8A
:1049B000FB7D00122B4E257E00122B4E6B7E0012CB
:1049C0002B4E747F00122B4EB2C206122B4EE9D032
:1049D00006122B4EC8FF03122B4E319E02122B4E95
:1049E000139E02122B4EFB9C02122B4ED69C0212DF
:1049F0002B4EE69B02122B4E729B02122B4EE19A1B
:104A000002122B4E6F9A02122B4E5E9A02122B4EFE
:104A1000399A02122B4E559902122B4E719802129E
:104A20002B4E8A9502122B4E479402122B4EAE91BA
:104A300002122B4E699102122B4E0F9102122B4E35
:104A4000709002122B4E1D9002122B4E4A8F0212B2
:104A50002B4E848E02122B4E488E02122B4EDB8D73
:104A600002122B4ED38D02122B4E488D02122B4E6A
:104A7000D88C02122B4E41A502122B4E298C021209
:104A80002B4EC2A402122B4E87A302122B4E77A3E9
:104A900002122B4E4BA202122B4E6AA002122B4E78
:104AA00061A002122B4E54A002122B4E579F0212ED
:104AB0002B4E1E8C02122B4E0F8C02122B4EEE8BA5
:104AC00002122B4EBA8B02122B4ECF9E02122B4E8D
:104AD0008E8B02122B4E628A02122B4E4E880212CD
:104AE0002B4E1F8802122B4E05D006122B4E038828
:104AF00002122B4EC09E02122B4EAD8702122B4E7D
:104B0000748702122B4EEC8602122B4EA0860212E4
:104B10002B4E598602122B4E8C8502122B4E10857D
:104B200002122B4E688402122B4EC18302122B4EAE
:104B3000638302122B4E388302122B4EE98202123B
:104B40002B4EAB8202122B4E898202122B4E6682B2
:104B500002122B4E4D8202122B4E058202122B4E58
:104B6000008002122B4E4F8102122B4EC380021284
:104B70002B4E578002122B4ED6FF0500000080FB03
:104B80008F0001009219870001009119350004007F
:104B9000421A25000200461A26000200481A270081
:104BA00002004A1A28000100541A29000100551A6F
:104BB00084000400561A860001005A1A2A000100D7
:104BC0005B1A2B0001005C1A2C000100601A2D00FA
:104BD000080073192E000100611A2F000100621AEB
:104BE00030000100631A31000100641A3200010034
:104BF0007B19330001007C1934000100651A36006E
:104C000001007D1938000100661A390001005F1AA1
:104C1000830002007A1A630001008E19640001000B
:104C20005D1A650001005E1A6D0001008F197100A8
:104C300008006B1966000100791A430001006A1A26
:104C4000440002006B1A450001006D1A4600020084
:104C50006E1A47000800861948000100701A4B00C0
:104C60000100711A040001007C1AA10001007E1AE3
:104C7000370001007D1A8800010093193C000100F3
:104C80007E193D000100671A49000200721A670090
:104C9000010090194D000200741A4E000100761AAE
:104CA0004F000200771A3E000100851951000100F3
:104CB0007F1952000100681A53000100691A54005C
:104CC00001008019000000000000000136360101DB
:104CD00000010201000103010001040106060502B2
:104CE0000000070100340801000F090401010D0153
:104CF00000FF0E08000017020000190100FF1A0152
:104D000000011B0100FE1C0100081D0200001F0124
:104D1000000120010001210200002301000F2402F4
:104D200000002601000127010008280200FF2A01D7
:104D300000072B0102402C0100002D0100012E0173
:104D400000012F0100FF30010B1D310800003A0166
:104D500000083B01000F3C0100013D0100FF3E0443
:104D6000000042040000460400004A0400004E0413
:104D7000000052040000560400005A040000010321
:104D80007103010301030103010301032203020371
:104D900001031003000300030003000300030003EA
:104DA000000342030003240306030003000304037B
:104DB0001203250323032503230304030403000331
:104DC00000030003440300030003230300036503FF
:104DD00021003503810300030503000300030003E2
:104DE0000003250323030304710402046004110477
:104DF00070040204020401040204100461040004AB
:104E0000140463047304720462044304000413046E
:104E10000604000400040404120400040004000456
:104E2000000451046400000400040004440400046D
:104E300000040004000465040004350481046400D7
:104E400005040004830400040300710030016000C5
:104E50001100700031022003500480001000610036
:104E60000000140063007300720062004300000041
:104E70001300060000000000040012000000000003
:104E80000000000004000400370037003C0244002A
:104E900000000000000000006500000035008100F7
:104EA0000000050000008300000001017101010104
:104EB0000101110101013101010101018001100114
:104EC00061013B001400630173017201620143013F
:104ED0000001130106013D0135000401120100012A
:104EE00000010001000104010401330133013C0110
:104EF0004401320136000001000165010001350066
:104F00008101000105018201830100010302710298
:104F100030016002110270020102020202028002EC
:104F2000100261023A0041006302730272026202DF
:104F300043020002130238000002000204021202BF
:104F400000020002000200020402040237003700DF
:104F50003C02440200023900000200026502000225
:104F6000350281020002050282028302000236003D
:104F70000100060000000F0000000000000000001B
:104F80000000000003FFFF00000403FFFF0000FF1C
:104F9000FF0FF4010005C4040320000100000B0012
:104FA0000000000000000003010F000000000000EE
:104FB00000000000000000000000000000000000F1
:104FC0000000000000000000000000000000074793
:104FD000130065461F006B461F807146010007479E
:104FE0000200ED450300F3450400F9450500FF45C7
:104FF00006000B4630002946310023463200354674
:1050000033003B46350041463400474636004D46A6
:105010001100594614005F4615001D46FFFF0000B1
:105020000A00000002000000040000000800000068
:105030001000000020000000400000008000000080
:105040000001000000020000000400000008000051
:105050000010000000200000004000000115330691
:105060004B330845330B633310DF2F0A7533021BB4
:10507000330539330721330CFD320D0933643D4AC2
:10508000FF000007ECFDFDFDECDCDCCCBCACAC9C17
:105090009C8C7C7C6C6C5C5C5C4C4C3C3C2C2C1C80
:1050A0001C03EAF5E5D5D5C5B5A595958585757536
:1050B0006565555545453535252515150500160FEA
:1050C00000000B150B020002220F3300000E5A697C
:1050D00067426565416C6C69616E636530390103D7
:1050E0000507090B0D0F00020406080A0C0D00034A
:1050F0004A49434E181A25050200011916181616BA
:10510000182303000C0E020B040B0A0708000F30D3
:105110003016181920231A1C1E3000393D3F373C29
:105120003C362C442D303017181921301B1D1F30F0
:10513000020402010101010902E803000000BE04AB
:105140000A000000007F00E8030E000C0A030305BC
:10515000090008000CFF1E1E28050803040409109E
:10516000150401080CC082C083901862E4F0A3F01B
:105170007CED7D047A7B7B17124233124A0D12308C
:105180002D124A0702671774F312259374F5122C37
:105190001789098A088B0A8C0BE9705F740265080D
:1051A000703F790812453F750C00780C122BA5E56D
:1051B0000BF50C780C122BA5E50AF50C780C122BCC
:1051C000A590179712299D901A5AE0F97C867D19AF
:1051D000901A7A12715F1249E37407122B6302521C
:1051E000BE7401650860030252C3790812453F7B13
:1051F00000AA0AA90A124A8B0252BE74016509600C
:10520000097402650960030252C3EA60067403650B
:10521000087047790212453F901A5AE0F9901797A3
:10522000122E3E1249F5E9F99017A6E0A2E34010CC
:10523000E9700D901866E004F0640470031252E403
:1052400074036508707A901867E0F8740128F0E834
:10525000C39405406B1252E4806674016508706364
:1052600074016509790A702E12453F7401122E6D82
:10527000E4F07402122E6D7403F004122E6DE4F04B
:10528000A3F0A3F0A3F07408122E6DE4F0AA18ABFB
:1052900019123327804412453F901A5012299D7AE3
:1052A000007B2090179BE0F91241E57404122B63F8
:1052B000901A5AE0F9901797122E3E124AA9E9F96E
:1052C000E9601790811512299D7A017B0090179B48
:1052D000E0F91241E57404122B63740B122B637F07
:1052E0000502285F901797E4F0A374F8F0A374FF09
:1052F000F0A37407F02274F6122593E9FFEAFE7A10
:10530000D1F912409B8A828B83E5824583702A7A89
:10531000027B0012407DEA4B700E7A107B009017E2
:105320009BE0F91240BF80148A828B8374D1F0EF26
:10533000A3F0EEF91240898003EFA3F002556374E5
:10534000F712259389089006FB126682901A3DE0B9
:10535000F47003A3E0F4702D90080EE0901A3DF075
:10536000A3E4F080208E828F83A312640F600F8EDF
:10537000828F83A3A3126409FAA9081245D58E82ED
:105380008F83125426EE4F70DC901A3DE0F47003C8
:10539000A3E0F4600A901A3DE0FAA9081245D5127C
:1053A0003435901765125D5C12342F7F0102285F3F
:1053B00074F0122593890B8C0C7508007509007424
:1053C00010122E6D12549A7412122E6D12542680E1
:1053D0003CA80A12548AF50EA3E0F50FA80912544E
:1053E0007DF583E0650E7004A3E0650F7014125420
:1053F0001DEE28F582EF39F583E50EF0A3E50FF0F9
:105400000508050AE50AC3950C40C60509E509C368
:10541000950B5005750A0080EBA9088011A808E8D3
:1054200028F8E433F922126E38E8FEE9FF227F08FB
:1054300002285F74F4122593890B8C0A7508007496
:105440000C122E6D12549A80020508E508C3950BC4
:10545000502775090080020509E509C3950A50E93E
:10546000A80812547D126680A80912548A6E70032F
:10547000A3E06F70E27901800279008028E828F8C3
:10548000E433F9EA28F582EB3922E828F8E433F925
:10549000EC28F582ED39F583E022126E38E8FCE95C
:1054A000FD22122B637F0402285F74F612259312EB
:1054B000554D7003A3E06D70177508A47509177832
:1054C00008122BA1EEFA12470D7402122B63801FF3
:1054D0007508027509807808122BA18C088D09784F
:1054E00008122BA11255381247317404122B638015
:1054F0007274F612259312554D7003A3E06D701768
:105500007508B17509177808122BA1EEFA12471326
:105510007402122B63801F750803750980780812C6
:105520002BA18C088D097808122BA112553812472F
:10553000317404122B63802B1255463FF583E0FD36
:105540007C801267BF22EE240EF582E422EAFEEB95
:10555000FF1267D4FCE439FD901765E06C227402F9
:10556000122B637F0202285F74F612259374FE12D9
:105570002C17EAFEEBFF851882851983E4F0A3124D
:105580005D0C126705FCA3E0FBECFA88828983A31B
:10559000A3E0F9750900750800600574FF697005DE
:1055A000750882803D901765E06A7003A3E06B7018
:1055B0001AAA18AB19123A05E9F509851882851956
:1055C00083126B36701C7508838017901991E06008
:1055D00004640170057508818008E0640270037539
:1055E0000880851882851983126B1FA908EEFAEFCF
:1055F000FB124719E5096011851882851983126B22
:1056000036600612715912412502555E74F2122558
:1056100093EAFEEBFF7508007509001267D0F50AE2
:10562000E439F50B123435EA650A7003EB650B704B
:1056300012123A17E914F50879017A2E7B18123AFA
:105640001D8003750980126B25F50C780C122BA5B3
:10565000750C2E750D18780C122BA17808122BA53D
:10566000780A122BA1E509F5087808122BA5126516
:105670009B126B28F97A057B8012471F740702780A
:10568000F574F6122593890975080080278A828BA4
:1056900083E0FE127AB8EE28E439FF12541DEC289C
:1056A000F582ED39F583EEF0A3EFF0EA2402FA502B
:1056B000010B0508E508C3950940D202556374E85B
:1056C00012259374FB122C178A168B178518828566
:1056D0001983E4F07403122E6DE4F0A3F004122E8B
:1056E0006DE4F0A3F0125ACF3517125CDEF50B858E
:1056F0000A82F583127BA4FEE439FF850A82850BBA
:1057000083A3A3E0FA850A82850B83A3A3A3E0F910
:10571000EAF508E439F509E50A2404F50A5002051A
:105720000BEEFAEFFB1234D1E964016016EEFAEFEA
:10573000FB1234D1E9703D901765E06E7003A3E071
:105740006F6031126915122BA5E4F508F509780888
:10575000122BA17808122BA59017651229A57508A0
:10576000807808122BA5125AB612471F7407122B05
:1057700063025AAC125AE98810602B127743124127
:105780001F7403122E6D125D5C7403122E6D126B6A
:105790003660137403122E6D125AE1A910124605D9
:1057A0008A0A8B0B8003751000125AE9880F602754
:1057B00012774312411F7401122E6D125D5C740149
:1057C000122E6D126B36600F7401122E6D125AE19B
:1057D000A90F1246058003750F009006FB805C85BB
:1057E0000A82850B83A3A3A3A3A3A3A3A3E4F0A38B
:1057F000F0AA0AAB0B851482851583A3A3E0F812E7
:105800006409F9124089851282851383E0C0E0851E
:105810001882851983E0F8742E28F582E43418F58F
:1058200083D0E0126B3A04F0E511A2E05007AA120F
:10583000AB13124125851482851583E0F514A3E08E
:10584000F515E51445157003025A1985148285155E
:1058500083A312640F60DE851482851583A3A3A33E
:10586000A3A3A3A3A3E0A2E050CB85148285158354
:10587000A3A3A3A3126B36851482851583A3A3600B
:105880001F126410FA7901851482851583A3A3A3DE
:10589000A3125AD41227798A128B13751101801022
:1058A000125AD4A3A3A3E0F512A3E0F513751100D7
:1058B000E51245137003025828851282851383A3CD
:1058C000E065087004A3E06509600F74FF65087067
:1058D0000474FF65096003025828851282851383CA
:1058E000A3A3A3A3A3A3A31229A58512828513832F
:1058F000A3A3A3A3A3A3E0FC7405122E6D12715FF2
:10590000A9101245E77402122B63E9703C851282DC
:10591000851383A3A3A3A3A3A3A3A3A3A31229A52E
:10592000851282851383A3A3A3A3A3A3A3A3A3E0A8
:10593000FC7403122E6D12715FA90F1245E77402F9
:10594000122B63E97003025828E50F2510C3332496
:105950000AFA7B0012407D8A0A8B0BEA450B700322
:105960000258068A828B8374D2126D458A828B8399
:10597000A3A3E8F0A3E9127A1EA3E510127BACE51D
:105980000FF0E510603CEA2405FAE4350BFBE50A6C
:10599000240AF8E4350BF98A828B831262D57403EA
:1059A000122E6D125AF9122B9DAC10EC2CFCE43324
:1059B000FD8A828B8312715F1240597403122B632C
:1059C000800D8A828B83A3A3A3A3A3E4F0A3F0E5B5
:1059D0000F70030257DFA81012541FE50A28F8E5DC
:1059E0000B39F9E8240AFAE439FB850A82850B832E
:1059F000A3A3A3A3A3A3A3A3125D5C7401122E6DA2
:105A0000125AF9122B9DAC0FEC2CFCE433FD124022
:105A1000597403122B630257F1851882851983E0AC
:105A20006027126915122BA575082E7509187808BC
:105A3000122BA17403122E6D12691E122BA5901742
:105A4000651229A57508008029EEFAEFFB1234D102
:105A5000E9702F126915122BA575082E7509187893
:105A600008122BA17508007808122BA59017651253
:105A700029A57808122BA5125AB612471F740712CF
:105A80002B637403122E6D126B36600B7403122E8F
:105A90006D12715F1241257401122E6D126B36600A
:105AA0000B7401122E6D12715F1241257405122BB9
:105AB000637F1002285FE5162402FCE43517FDE53C
:105AC0001612652F3517F583E0F97A067B8022EAF6
