:020000040000FA
:10000000021F3F022003FFFFFFFFFF02200BFFFF45
:10001000FFFFFF022013FFFFFFFFFF02201BFFFF78
:10002000FFFFFF022023FFFFFFFFFF02202BFFFF48
:10003000FFFFFF022033FFFFFFFFFF02203BFFFF18
:10004000FFFFFF022043FFFFFFFFFF02204BFFFFE8
:10005000FFFFFF022053FFFFFFFFFF02205BFFFFB8
:10006000FFFFFF022063FFFFFFFFFF02206BFFFF88
:10007000FFFFFF022073FFFFFFFFFF02207BFFFF58
:10008000FFFFFF022083FFFFFFFFFF02208BFFFF28
:10009000FFFF70DFFFFF040000000002000000C847
:1000A000030002030369A5020269A532730000017F
:1000B00000000000000400FFFFFFFFFFFFFFFF0440
:1000C00003090424035400650078006100730020D4
:1000D0000049006E0073007400720075006D0065C9
:1000E000006E007400730024035400490020004394
:1000F000004300320035003300310020005500532A
:10010000004200200043004400430000035F005F02
:100110000030005800000000000000000000000057
:1001200000000000000000000000000000000000CF
:100130000000000000303132333435363738394171
:100140004243444546331C881C881C881C881C90EC
:100150001C74F8121BCD900391E06015900302749B
:10016000FEF0900304744DF0A37405F07A011207B9
:100170001C7F01021D6C74F8121BCD74FF121EB699
:100180007E00801F851882851983E064FE700690CA
:1001900003877401F0851882851983E0F890038441
:1001A000E068F07901AA18AB191210E9E9700302AE
:1001B0000287851882851983E064EF70027E07E06C
:1001C000C0E0900387E0FA900385E0F8EA28F8E4BD
:1001D0003400F9740228F582740339F583D0E0F015
:1001E000900387E0609E14600E14602B14603B1433
:1001F0006051146067809E900384E4F085188285C6
:100200001983E0900386F0C394809003874003E451
:1002100080827402020194851882851983E090031C
:1002200082F09003877403020194851882851983F4
:10023000E0900383F0900386E060199003877404D4
:10024000020194900385E004F0F8900386E0686072
:10025000030201959003877405020194900385E4DD
:10026000F0900387F0900384E0F885188285198365
:10027000E0686003020195900382E0644D60030230
:1002800001951203BF8002EEF97401121E370201BC
:100290007174F7121BCD74FB121EB6EAFEEBFF75EC
:1002A00008047509007808121ED07402121F377AEC
:1002B000907B0079041218EB7402121E3712070E9D
:1002C000121F88E0687003A3E069701285188285A8
:1002D0001983E0F47003A3E0F4600302039A74044A
:1002E000121F2F1207708A088B09A808A909740227
:1002F000121F88E8F0A3E9F07404121F88E0600878
:1003000079011201510203B3851882851983E068CF
:100310007003A3E0697076851882851983E0F47014
:1003200003A3E0F470197402121F887410F0A37410
:1003300020F08518828519837410F0A37420F0755D
:1003400008017509007808121ED07402121F377A4E
:10035000247B0812196F7402121E3775080478087E
:10036000121ED07402121F377A907B007904121883
:10037000EB7402121E3712070E121F88E06870031A
:10038000A3E069700479028006790480027903127F
:1003900001518E828F83741E80058E828F83E4F0DC
:1003A00012070E121F88E0687003A3E069700479D9
:1003B00001800279007405121E377F02021D6C74E1
:1003C000ED121BCD74F8121EB6900307E0FD9003EA
:1003D00006E0FCFAEDF8E4C8F9EA28FEE93408FF83
:1003E000751001750B00750A068E088F0974027866
:1003F00008121F1CC39508F8E49509F9740228F542
:100400000E740339F50F8E088F0974097808121FCE
:100410004EE508F511EE2410F508E43FF509EEF578
:100420000CEF5401F50D900383E014605914700330
:100430000204FB14700302057614601024FE70039E
:100440000206311470030206E10206F1750A03790F
:100450004E1213BD9003071207047402F0A37440F8
:100460001207027408120702F0A3F07418C394076D
:1004700004F510AA10A90B12071CA90A7408121E71
:10048000377F0C021D6C750A04794E1213BDEE45C0
:100490000D7005A9111219D5C3EE9425EF940850DB
:1004A0003CC3E5089424E50994084031E50E249600
:1004B000F8E50F3420F988828983E0701BA3AA82B3
:1004C000AB83E070139003887401F0888289837491
:1004D000A5F08A828B838004900388E4F07508106D
:1004E0007509007808121ED07C087D03EEFAEFFB38
:1004F00012196F7402121E37020473750A05E51192
:10050000C394794006750B0102047375124075138C
:10051000007812121ED07C097D037402780C121F21
:100520001CAA0CAB0DA9111218EB7402121E379005
:100530000307E0A3F0900306E0A3F0751043C3EEB9
:100540009425EF94084003020473C3E5089424E55E
:100550000994085003020473900388E070030204B6
:1005600073E50E2497F8E50F3420F988828983E437
:10057000F0A3F00204737508047509007808121ED0
:10058000D07402121F377A907B0079041218EB7432
:1005900002121E377402121F88E0F8A3E0F98518D2
:1005A00082851983E0687003A3E069851882851944
:1005B00083700BE0F47003A3E0F470578009E0F45B
:1005C0007003A3E0F4700D8518828519837410F010
:1005D000A37420F012070E121F88E8F0A3E9F0754B
:1005E00008017808121ED07402121F377A247B0883
:1005F00012196F7402121E377508047808121ED083
:100600007402121F377A907B0079041218EB74027F
:10061000121E3712070E121F88E0687003A3E069EC
:100620007006750A01020473750A02750B0702044D
:10063000739003D6E0600764026003020473EDFF69
:100640007A01790012071CE060030206D5800312CC
:10065000118512116CE970F77404121F881206F6E6
:100660007404121F887808121F6C85080C85090D08
:10067000850A0E850B0F9003C2780C121EF67404C7
:10068000121F88780C121F5DE5084509450A450BC5
:1006900070CE8EC2E5C554E04FF5C57404121F88B4
:1006A0001206F67404121F887808121F6C85080C55
:1006B00085090D850A0E850B0F9003C2780C121E5A
:1006C000F67404121F88780C121F5DE50845094571
:1006D0000A450B70CE7A01790012071C79080204D2
:1006E0007CEC900391F07003020473750A09020414
:1006F00073790602047CE4F0A37426F0A3E4F0A36B
:10070000F022F0A3E4F0A3F0A3F0A3F0A322851855
:1007100082851983E0F8A3E0F974022274F8121BB1
:10072000CDEAFE900305E0D2E7F0E9A3F0EE9003F6
:1007300003F08E0874042AFE7C028004E062080C38
:10074000ECFA3395E0FB74022AF58274033BF583DF
:10075000EEF8C3EA98EB9400A2D265D03340DDE511
:1007600008F074012AF97A027B0312112702017141
:1007700074E9121BCD7582007583FE121E198A164C
:100780008B177514007515008A828B83E4F0900333
:10079000D6E07006D2AAD2AF800464027005790058
:1007A000120151750C00750D20750E00750F00902B
:1007B00003D6E0600464027015121185120176E917
:1007C000F874096860030208AC7900120151E06412
:1007D000027007A29240030208877508007509029B
:1007E0007808121ED07402121F37850C08850D0977
:1007F000AA08E5095407FB850E0A850F0B740B78D0
:1008000008121E87A9081218EB7402121E377E0008
:100810007F009003CAC0828E10EFF5113395E0F58A
:1008200012F513850C08850D09850E0A850F0B78C6
:10083000087910121F099003C67808121EF67583F6
:1008400003D0827808121DFA501D851882851983FD
:10085000E5822EF582E5833FF583E0F9AA14AB1516
:100860001208DB8A148B150EEE70010FC3EF940291
:1008700040A09003CE780C121EF69003D2780C1292
:100880001DFA40030207AF7900AA14AB151208DB6A
:1008900079001208DB8B159003D6E07004C2AFC25A
:1008A000AAEA451570277AA57BA58021E870030286
:1008B00007CE74066870030207CE740768700302DF
:1008C00007CE8516828517837401F080BA75820081
:1008D000758302121E197F10021D6CC008C0097CAE
:1008E000088A088B09740F7808121F4EE508F8EA89
:1008F00025E0FAEB33FBE9A2E7500474014AFAE879
:10090000A2E0500874216AFA74106BFBE9C333F952
:100910001CEC70CDD009D00822C082C083120F33E6
:1009200060030209F0A3E0F8A3E060030209F0A36A
:10093000E064027002A3E060030209F09003B8E0F3
:100940002480600914604F14605C0209F0E86003C1
:100950000209F09003B2E060047801800278009010
:1009600003C0E8F0A3E4F09003B1E0600A9003C094
:10097000E04402F0A3E4F09003A6E0640460149065
:1009800003B374C0F0A37403F0A3E4F0A3740212E1
:100990000F95F0020E6E90039FE064047052900376
:1009A000C0E4F0A380D0E8547FFA90039FE0640491
:1009B000703EEAC394065038749F2AF582E43403EB
:1009C000F583E854806018A3A3A3A3A3A3A3E064C2
:1009D0000370047801800278009003C0E88094E5F9
:1009E00082240CF58250020583E0640370E980E301
:1009F0009003A67404809B74F8121BCDE9FE90034B
:100A0000BE120F366003020AD990039FE0640460AF
:100A10000B9003BC120F366003020AD99003B8E0B2
:100A2000541F6009146030146020020AD99003BA80
:100A3000E064017022EE9003B1F060047905800259
:100A400079067A00121BCB020ADF9003BCE0547FC8
:100A5000FA9003BAE060057900020AE1EAC394065D
:100A60005077EA90620EF0749F2AF8E43403F9900C
:100A700003BCE05480602EEE600474108002744069
:100A8000906211F0EE60047B0380027B00EB8882B1
:100A90008983A3A3A3A3A3A3A3F0EE600479088092
:100AA0002F7907802BEE60047B2080027B80EB9007
:100AB0006214F0EE60047B0380027B00E8240CF5F6
:100AC00082E439F583EBF0EE6004790A800279095B
:100AD000121BCB90620EE480059003A67404F0799B
:100AE000017F01021D6C79001209F7E97003121BE6
:100AF000BA2279011209F7E97003121BC922C082D8
:100B0000C0839003BC120F367015A3120F36700FFE
:100B10009003BA120CD95480FAE9FBEA4B600790B3
:100B200003A67404801AE8906200F090039F6009A5
:100B3000E06402700C74038007E0640370037402C5
:100B4000F0020E6E74F5121BCD9003BAE0FAA3E02A
:100B50001460081460101460398057121754120C76
:100B6000B6A37B8080417900121776120CB67B8089
:100B7000E92402F9E43AFA121E6DFC1919E0FAA30D
:100B8000E92403F9E43AFA121E6DF9ECA3F0A3E9A3
:100B9000801CEAF91217E49003B3EAF0A3EBF0A388
:100BA000E4120CC5A37B00121E6DA3F0A3E4F002B7
:100BB0000C709003B3E4F0A3F0A3F0750B00900465
:100BC0007DE0FAA3E0FB020C4E850B08750900746A
:100BD000037808121F1CEA2508F8EB3509F9900381
:100BE000BA120CCFE493C0E0EFFCD0E06C705DA3D0
:100BF000E4936E70579003BC120CCFA3A3E493C090
:100C0000E0EFFCD0E06C704488828983A3A3A3E466
:100C1000936E703888828983A3A3A3A3E493F50815
:100C2000740193F5099003B3E508F0A3E509F0A377
:100C30007480F088828983A3A3A3A3A3A3E493F879
:100C4000740193F99003B6E8F0A3E9F0050B900462
:100C50007F120CD9C39AF508E99BF509740378084B
:100C6000121F4EC3E50B9508E495095003020BC90A
:100C70009003B3E0FCA3E0FDA3E0FEEC4D4E900337
:100C8000A6700474048029E0640460259003BEE02B
:100C9000FAA3E0FB9003B6E0F8A3E0F9C3EA98EB0F
:100CA0009950089003B6EAF0A3EBF09003A6740104
:100CB000F07F04021D6C9003B3EAF0A3EBF0A37481
:100CC00080120CC522F09003B3E0F9A3E0FA22E011
:100CD000FEA3E0FF8882898322E0F8A3E0F9E822FE
:100CE00074EE121BCDEA2404F8E43BF98808890964
:100CF0008882F583E4936025900481120CD9FEE983
:100D0000FF8007EE2404FE50010F8E828F83E49350
:100D1000F8740193F9EA687002EB6970E6750B00EC
:100D2000803F9062147490F07410120E3570037549
:100D30000A408E828F83A3A3A3E493550E6006E539
:100D40000AD2E0F50AE50A906215F0EA906213F023
:100D5000EC240CF582E43DF583E4F090620EF0059E
:100D60000B850882850983E493F8E50BC39840035B
:100D7000020E307A0079051216E78A0C8B0DEA45CF
:100D80000D60DCEA2402F8E4350DF9881089118839
:100D900082F583E493540FF51290620EF0750A0009
:100DA0008A828B83A3A3A3A3E4932407F50EA3E471
:100DB000933400F50F7403780E121F4EAA0EA8127A
:100DC000749F28F8E43403F9E8FCE9FD750E017519
:100DD0000F00E512780E121F1CE50EF50EE50C242F
:100DE00003F8E4350DF9851082851183E493A2E7B9
:100DF0004003020D229062117448F07408120E35FF
:100E00007003750A408E828F83A3A3E493550E600E
:100E100006E50AD2E0F50AE50A906212F0EA90626D
:100E200010F08C828D83A3A3A3A3A3A3A3020D59C7
:100E30007F0B021D6CF088828983E4935403640164
:100E400022C082C083120F337010A3120F36700AB3
:100E5000A3E064017002A3E060079003A67404801D
:100E60000C9003B374A0F0A37403120F8BF0D08323
:100E7000D0822274F3121BCD90039FE064026014B1
:100E80009003BC120F36700CA3120F36700690033D
:100E9000BBE060099003A67404F0020F2E7A00797B
:100EA00001121BCB9003BAE0606F7A00F91217763B
:100EB0008A0A8B0BEA450B605890039F7404F090EC
:100EC00003BAE09003A0F0750800850A82850B83C1
:100ED000A3A3A3A3E493F8E508C398504AA8087411
:100EE000A128F8E43403F9E8FEE9FF8E828F83E459
:100EF000F07A0079041216E78A828B83A3A3A3E415
:100F000093F88E828F83E06870E7120CE00508800A
:100F1000B99003A67404F0800E9003A0F090039F94
:100F20007403F0F91216677A007902121BCB7F0660
:100F3000021D6C9003BAE0F8A3E0F9E8492274F6C8
:100F4000121BCD90039FE0640470199003B8E06415
:100F5000817011120F33700C9003BEE064017002B7
:100F6000A3E060079003A67404801A9003BCE024F9
:100F7000A1F508A3E03403F5099003B3E508F0A355
:100F8000E509120F8BF07F03021D6CF0A3E4F0A3C0
:100F900004120F9522F0A3E4F09003A6042274F744
:100FA000121BCD90039FE0640470649003B8E0646A
:100FB00001705C9003BE120F3670549003BAE0FBD0
:100FC0009003BCE0FA9003A0E0F91217AE8A088BF8
:100FD00009AE08AF09EE4F60369003BCE0FA790322
:100FE000121BCB9003BAE0C0E09003BCE024A1F850
:100FF000A3E03403F988828983D0E0F0EEFAEFFBB6
:10100000120CE09003BCE0FA7904121BCB8006902E
:1010100003A67404F07F02021D6CC082C0838003AB
:10102000121A31A2E840F9A823E854046009782391
:10103000E654FBF612140EA823E854106009782336
:10104000E654EFF612142FA823E8A2E05005782307
:1010500054FCF690620EE0FA7404F0906214E0A280
:10106000E05039A9A8C2AF906216E0F8A3E0E8FB0F
:10107000E9A2E792AF8017906228E0C0E090039366
:10108000E0F812111CD0E0F0900393E004F0EBFDC7
:1010900074FF2DFB0470E0906214E4F0EA90620E9D
:1010A000F0E0FC7404F0906211E0A2E040319003A3
:1010B00095E0F8900394E06860257A4090039412DC
:1010C000115FE0906228F0900394E004F008900330
:1010D00095E06860041AEA70E39062117401F0EC24
:1010E00090620EF0D083D0822274F8121BCDE9FEFC
:1010F0007900801212111CE08A828B83F090039297
:10110000E00412115409900392E0F8900393E06810
:101110006005E9C39E40DD7F01021D6C748528F5E2
:1011200082E43404F58322C082C083E9FC80188AFB
:10113000828B83E0C0E090039512115FD0E0121122
:1011400054900395E004F0ECF874FF28FC0470DF81
:1011500079018090F08A828B83A3AA82AB8322E0FC
:10116000F8748528F582E43405F58322C082C083B3
:10117000900395E0F8900394E068600479018002A0
:1011800079000210E402101A74FB121EB67E009061
:1011900006857808121F6C794A1213BD9006857473
:1011A00001F0A3F0A37469F0A374A5F09003D778BD
:1011B00008121EE170047E0180159003DB7808128E
:1011C0001EE16008E59D541864107003022000EED3
:1011D000F9121334C280D291EEA2E050030212E75A
:1011E000AA18AB19120291E970030212E7C29185A5
:1011F0001882851983E0C3943C500EE0F8743CC318
:1012000098F50895E0F5098006750800750900E471
:10121000F50AF50B9003DF780C121F6C7808790C37
:10122000121AD1790612015112101A120176E9F838
:101230007409687007790612015180277407686085
:1012400016A2935012E8600874066860030212E761
:10125000A292400F0212E7750800750900750A0096
:10126000750B0085080C85090D850A0E850B0F90FE
:1012700003C27808121EF6E50C450D450E450F70A9
:10128000A7D2807907120151800312101A12116C33
:10129000E970F77E007F007401121F88E4F0A374E8
:1012A00026F0A3E4F0A3F07401121F887808121F3F
:1012B0006C85080C85090D850A0E850B0F9003C2FD
:1012C000780C121EF67401121F88780C121F5DE54F
:1012D000084509450A450B70CEA29250FCA29350D6
:1012E000F81213B8022000D280D291794E1213BDA9
:1012F000750800750900750A00750B007905120163
:101300005112101A120176E9F874096860EE74013E
:101310006870EE12101A9003E37808121EF690031C
:10132000E77808121DFA50EB1213B802200074057A
:10133000121E372274F8121BCDE9FE53BEFBE59D49
:10134000A2E650FA0078F8790100E824FF18E934A1
:10135000FFF9E84970F375C6807480659E70FA43A2
:10136000BE049062707408F01213ADEE700853F46E
:10137000FEC29043FE017403F5D575D4899003969F
:10138000E4F0A374C2F0A37401F0A3E4F0A3F0A30B
:10139000F0A37408F01213D37AFF7BFF1219EC53F9
:1013A000F4FED29043FE011213AD021117D2804316
:1013B000FD01C29143FE0222D280C29122781075B3
:1013C000B60FE5B4A2E750FAE5BBC39940F118E8BF
:1013D00070ED2274F7121BCD7A0079011217768A0C
:1013E000828B83A3A3A3A3A3A3A3E493A2E6900366
:1013F000B2500474018001E4F09003B1E4F0906213
:101400000F7403F0E0A2E750FB7F02021D6CC08264
:10141000C08390039F7402F0A3E4F09003A6F079D8
:1014200003121667752100752200D083D0822274C2
:10143000F6121BCD90620EE0FEE4F0906211E0FF28
:10144000A2E4501D7480F09003A67407F0E52145D6
:10145000226009852182852283121F979003A6E4CA
:10146000F0EFA2E2500B906211E4F09003A6F0803E
:10147000679003A6E0F87402687046906216E0FF79
:101480009003B3121DACEFF97A207B6212168174BF
:1014900003121E37EFF89003B612164512164F2F9F
:1014A000121657A3E0F8A3E0F9E8496004744080FD
:1014B000027448906211F0E849600302163B02167C
:1014C000177406687009852182852283121F979000
:1014D00003A6E060030215C2EFA2E0400302163B40
:1014E0007508B8750903750A007808121ECC7908CA
:1014F0007A207B621216817403121E3775210075E3
:1015000022009003B8E054E0601D24E0700302154F
:101510009D24E0607224C0604824E070030215A896
:1015200024E0606E0215B3A3E014602624FE601D63
:1015300024FE600A24FC601F24FE60208075120ACD
:10154000FE9003A6E06404707278608070120AF264
:1015500080EF120AE680EA120E7380E5120F9E8079
:10156000E0A3E0600E24FA600F24FE601024FE6009
:1015700011804012091980C9120B4480C4120E4117
:1015800080BF120F3E80BA7521B675221B121BB6A2
:1015900080AF7521B875221B121BB880A47521512C
:1015A00075221B121B51809975218175221B121BFC
:1015B00081808E9003A67404F0808E7840E890625B
:1015C00011F09003A6E0F874016870617F02900347
:1015D000B6E0F8A3E0F9C3E89420E994005007E8E6
:1015E000F5087F0A80037508209003B3121DACA98B
:1015F000087A207B621216AC7403121E37AC0812F4
:10160000164F2C121657A808A3121645EF90621118
:10161000F0E8C394205024E5214522600985218209
:10162000852283121F979003A6E4F0800E7405684C
:101630007009852182852283121F97EE90620EF039
:101640007F03021D6CC3E098F0A3E09400F02290A9
:1016500003B31216D9E922F9E43AFA9003B3E9F098
:10166000A3EAF0A3EBF022C082C083E99003A7783D
:1016700005F0A3D8FC9003AC7805F0A3D8FC0214C5
:101680002A74F8121BCDEAFCEBFDE9F87408121F6E
:10169000881216D460118C828D83E0121EA0E9247A
:1016A0000109E43AFAD8EF7F01021D6C74F8121BAD
:1016B000CDEAFCEBFDE9F87408121F881216D4601D
:1016C00011121E6D8C828D83F0E9240109E43AFA2F
:1016D000D8EF80D31216D9E822E0F9A3E0FAA3E00C
:1016E000FB22D083D08222C082C083E9FCEAFD7A4B
:1016F000007B00800312173290039DE0F8A3E0F90D
:1017000090047BE0687003A3E069602490039EE08E
:10171000F5838882A3E493F8EC68700D90039DE054
:10172000FAA3E0FB1217328007ED6870C8ED60C5C0
:1017300080B090039DE0F8A3E0F5838882E493F8FD
:1017400090039DE028F8A3E03400F990039DE8F0B1
:10175000A3E9F022C082C0831217657A00790112D2
:1017600016E70216E2900479E0F8A3E0F990039DF1
:10177000E8F0A3E9F02274F7121BCDE9FFEAFE12AC
:1017800017657A0079021216E7EA4B601CEF6010C9
:101790008A828B83A3A3A3A3A3E4936F70E480093D
:1017A000EEF874FF28FE0470D97F02021D6C74F5F8
:1017B000121BCDEAFF8B087A001217767A027904A1
:1017C0001216E7EA4B60188A828B83A3A3E4936F17
:1017D00070EA8A828B83A3A3A3E493650870DD7FFC
:1017E00004021D6C74F7121BCD74F0121EB6E97A58
:1017F000007B00600C146010146014146018021850
:10180000D47AF37B030218D47AF77B030218D47AD4
:101810001B7B040218D490043FE060030218D090B0
:1018200003EB7408121F377408121DD9750808F5E8
:10183000097808121ED07402121F377AE87B0779E4
:101840007F1218EB7402121E377808121ED0740A29
:10185000121F377402121F2F121C907402121E37AF
:101860008B09EA450970197509007808121ED07CA9
:101870000C7D787402121F2F121D267402121E375F
:101880007C287D00EDF8851882851983E58228F58E
:1018900082E43583F583E0FFECF8743F28F8E43404
:1018A00004F9EF1218DC88828983F0EFC41218DC87
:1018B000C0E0E824FEF582E934FFF583D0E0F00DC6
:1018C00074FC2CFCEDC3940840BA90043F742AF0D9
:1018D0007A3F7B047410121E370217A9540FFA7452
:1018E000692AF582E43404F583E02274F6121BCDF4
:1018F000890A740F550AF508750900740B780812E7
:101900001F1CEA2400F8EB3480F9E82400E93509CB
:10191000F985C709A2AFE433F508C2AFE50AC4549C
:101920000FFAE5C754F84AF5C7740A121F88E0FA9F
:10193000A3E0FB801C88828983E08C828D83F08801
:10194000828983A3A882A9838C828D83A3AC82AD74
:1019500083EAFEEBFFEE24FF1AEF34FFFBEE4F703D
:10196000D48509C7E508A2E092AF7F03021D6C741D
:10197000F7121BCDED900389F0ECA3F0A37462F095
:10198000A37473F0A3E0541FF07409121F88E0F5EC
:1019900008A3E0F509E508333354FC90038EF07496
:1019A000067808121F4EE50890038DF090038F749F
:1019B00012F0A37442F075D1FE75D601EA906271FF
:1019C000F0EBA3F0906270E0D2E1F0E0A2E740FB20
:1019D0007F02021D6CC082C083E9C333906272F043
:1019E000906270E0D2E0F0D083D0822274F7121BB4
:1019F000CD7523007524007525008A268B27EA9073
:101A0000620BF08A088B0974047808121F4EE508EF
:101A1000906207F08A088B0974097808121F4EE556
:101A200008543E906209F0758B00C2E87F02021DE7
:101A30006C74F7121BCDE59DA2E650FA906206E0A9
:101A4000F9A2E25034AA26EA90620BF0F508852745
:101A50000974047808121F4EE508906207F08A089E
:101A600085270974097808121F4EE508543E9062D4
:101A700009F0906201E0D2E0F0E9782346F6906246
:101A800002E0F50875090074047808121F1C782319
:101A9000E50846F608E50946F6906204E0F50875A3
:101AA000090074097808121F1C7824E50946F6E934
:101AB000A2E050037525017406596003752500E501
:101AC0008BA2E55006758BDF752500121BCC021A20
:101AD00027080808EAC0E0EBC0E086F0E7A4FA189F
:101AE0000986F0E7A42AFA180986F0E7A42AFA186A
:101AF0000986F0E7A42AFA1986F0E7A4FBE5F02AA4
:101B0000FA190886F0E7A42BFBE5F03AFA190886E3
:101B1000F0E7A42BFBE5F03AFA18180986F0E7A4E1
:101B2000C5F02BFBE43AFA1908E7C5F0C6A426F67F
:101B3000E5F03BFBE43AFA1886F0E7A4F6E5F00896
:101B400026F6E43B08F6E43A08F6D0E0FBD0E0FAEB
:101B500022C082C0839003B9E0F8742268700890B4
:101B600003A6E0701A80117420689003A6700DE03F
:101B7000700D121BA89003A6740280027404F080FA
:101B800043C082C0839003B9E064219003A6701320
:101B9000E07013121BA8A37407F0A3E4F09003A64F
:101BA0000480027404F0801C9003B37496F0A37454
:101BB00003F0A3E4F02280028000C082C08390037F
:101BC000A67404F0D083D0822280EF22222518C58B
:101BD00082C0E0E51934FFC583C0E0E518C39582F3
:101BE00024F910AF08858319858218800885831928
:101BF000858218D2AFCEF0A3E520F0A37808E608DE
:101C0000F0A3DEFAEFF0A3E58124FBF8E608F0A3E9
:101C1000E608F0A30808E608F0A3E608F0A315819B
:101C20001581D0E0FED0E0F815811581E8C0E0EE26
:101C3000C0E02212010002020000205104A816098F
:101C40000001020301090243000201008019090496
:101C50000000010202010005240010010424020218
:101C60000524060001052401000107058203400048
:101C70004009040100020A00000007058402400038
:101C800000070504024000004E1C0000711C00000B
:101C900074F8121BCD7408121F88E0FEA3E08015B3
:101CA000A3AA82AB838C828D83A3AC82AD83EE2406
:101CB000FF1EEF34FFFFEE4F60198C828D83E0F83A
:101CC0008A828B83E0F9E86960D6E9C398FA95E0E7
:101CD000FB80047A007B007F01021D6CE47921788F
:101CE00007B800028004F709D8FCE490030278C129
:101CF00079018002F0A3D8FCD9FA7AC27B03900064
:101D00008E78C479018015E493A3AD82AE838A8274
:101D10008B83F0A3AA82AB838D828E83D8E9D9E727
:101D2000121188121F9274F7121BCDEAF8EBF974A6
:101D300009121F88E0FEA3E0FF80188C828D83E0EB
:101D400088828983F0A3A882A9838C828D83A3AC27
:101D500082AD838E088F09E50824FF1EE50934FF54
:101D6000FFE508450970D47F02021D6C8519838543
:101D70001882E0A3FEE0A3F5207808E0A3F608DFD0
:101D8000FAE0A3FFE0A3C0E0E0A3C0E0E0A3C0E06E
:101D9000E0A3C0E010AF088582188583198008850C
:101DA0008218858319D2AFD083D082227403800039
:101DB000CCC0E0EDC0E0E518C39CCCAD1950011DCE
:101DC00010AF068C188D1980068C188D19D2AF12A1
:101DD0001DD9D0E0FDD0E0FC22CAC0E0E0A3C5825E
:101DE000CCC582C583CDC583F0A3C582CCC582C5D1
:101DF00083CDC583DAE6D0E0CA22C008C3E096F5F9
:101E00000808A3E096420808A3E096420808A3E069
:101E10009645087001D3D00822C5822518C582C511
:101E200083351910AF07F5198582188007F51985D4
:101E30008218D2AFC5832200C0D0251810AF08F594
:101E400018500C05198008F51850020519D2AFD0AA
:101E5000D0222518F58210AF08F518400C1519800E
:101E600008F51840021519D2AF85198322BB01026B
:101E7000E722C082C08389828A83BB0003E080029C
:101E8000E493D083D082226016080808C6C313C624
:101E900018C613C618C613C618C613C6D5E0EA225C
:101EA000BB000EC082C0838A838982F0D083D08237
:101EB00022BB0101F722251810AF08F518400C15B8
:101EC000198008F51840021519D2AF227403800456
:101ED00074028000C0E0F404121E52D0E0121F7B96
:101EE00022E066701008A3E066700A08A3E066703E
:101EF0000408A3E06622E026F608A3E036F608A36D
:101F0000E036F608A3E036F622E627F60809E637BB
:101F1000F60809E637F60809E637F622700422606B
:101F20000D18C6C333C608C633C6D5E0F41822253B
:101F300018FAE43519FB222518FCE43519FD227541
:101F4000D00075813F751802751903021CDC600C06
:101F500008C6C313C618C613C6D5E0F422E6F008B7
:101F6000A3E6F008A3E6F008A3E6F022E0F608A353
:101F7000E0F608A3E0F608A3E0F622CAC0E0E6F027
:101F8000A308DAFAD0E0FA222518F582E43519F52B
:101F9000832200000080FBE473FFFFFFFFFFFFFFD1
:101FA000FFFFFFFFFFFFFFFFFFFFFFFFFFFFFFFF41
:101FB000FFFFFFFFFFFFFFFFFFFFFFFFFFFFFFFF31
:101FC000FFFFFFFFFFFFFFFFFFFFFFFFFFFFFFFF21
:101FD000FFFFFFFFFFFFFFFFFFFFFFFFFFFFFFFF11
:101FE000FFFFFFFFFFFFFFFFFFFFFFFFFFFFFFFF01
:0A1FF600850609433886000000004C
:020000040003F7
:01FFF000F020
:020000040000FA
:10200000022DCC022231FFFFFFFFFFFFFFFFFFFF8A
:10201000FFFFFFFFFFFFFFFFFFFFFFFFFFFFFFFFD0
:10202000FFFFFFFFFFFFFFFFFFFFFF022A50FFFF41
:10203000FFFFFF022253FFFFFFFFFFFFFFFFFFFF36
:10204000FFFFFFFFFFFFFFFFFFFFFFFFFFFFFFFFA0
:10205000FFFFFF02216BFFFFFFFFFFFFFFFFFFFFFF
:10206000FFFFFFFFFFFFFFFFFFFFFF022A79FFFFD8
:10207000FFFFFFFFFFFFFFFFFFFFFF0228A1FFFFA2
:10208000FFFFFF0221C201FFFFFFFFFFFFFFFFFF76
:1020900010201020010105030101FF0F10FEFFB603
:1020A0004D00000000EC4C00000000FF000000FFAD
:1020B00000010020FD00020000B13E000000004BC6
:1020C0003E353F813EF33E0000753E0000000000BB
:1020D0000000000000000000000000000000000000
:1020E00000000006FFFFFF00035F005F00300058A4
:1020F00000000000000000000000000000000000E0
:1021000000000000000000000000000000000000CF
:1021100000C326182718271827182720270101048D
:10212000002618000000E8030000FFFFF518E80390
:10213000000064006400B801A0BB0D00A0BB0D004E
:102140000202000800000502070101051E02051E2B
:10215000020A0A01080803B80B02803E0102FEFFD2
:10216000E8030A050001FFFF0A01E0C0E074F21273
:102170002664A2AFE433F508D2AFAFA7AEA1EE5FFD
:1021800054106006123BCF75A1EFEE5F5408600853
:10219000124AE175A1F78023EEA2E092F0EFA2E0EF
:1021A00082F05017906198E0F8900777E0C398A20A
:1021B000D265D0335002E8F075A1FE751A00E5082B
:1021C0008066C0E074F2122664A2AFE433FED2AFA0
:1021D0009061A4E0F8759B00E5915854086008757B
:1021E00091F7123C1D8023E59158541060087591B9
:1021F000EF123C238014E591A2E092F0E8A2E08285
:10220000F05007E0C2E0F0123D799061A3E0F8E5FC
:10221000E9585404600E123D4F75E9FB906193E05C
:10222000A2E640F2751A00EEA2E092AF7F0102270B
:1022300020C0E074F2122664A2AFE433FED2AF9065
:1022400061A5E0F8E5BF585404600675BFFB123D78
:102250009180D1C0E074F1122664E59DA2E650FAA7
:10226000906206E0F9A2E25034AA2CEA90620BF0E8
:10227000F508852D0974047808122DEBE5089062A5
:1022800007F08A08852D0974097808122DEBE508F6
:10229000543E906209F0906201E0D2E0F0E97829C2
:1022A00046F6906202E0F508750900740478081299
:1022B0002D1C7829E50846F608E50946F6906204E3
:1022C000E0F50875090074097808122D1C782AE5D4
:1022D0000946F6E9A2E05003752B01740659600324
:1022E000752B00E58BA2E55006758BDF752B001270
:1022F00042C5758B00C2E87F02022720C3E498F82C
:10230000E499F912233D8026C3E49AFAE49BFBE9A1
:1023100020E7E912233DE498F8E499F922C3E49810
:10232000F8E499F912233DE498F8E499F9C3E49AA2
:10233000FAE49BFB22EB20E7CFE920E7E0B90010AD
:10234000BB0008E88AF084F8AAF022E4FBC8FA226D
:10235000EB70227B10C833C8C933C9335007C39A06
:10236000C3DBF280069A50012ADBEAC833F4C8C9FD
:1023700033F4C9FA2275F008E4C833C8C933C93345
:10238000C99AC99B5004C92AC93BD5F0ECFBC83394
:10239000F4C8E4C9FA2274F51225FE74FA122C135B
:1023A0007508047509007808122B9D7404122BF32C
:1023B0007AF87B077903123AA97402122B5F908195
:1023C000397808122DDC7402122E697808122C6AF2
:1023D00070497508027509007808122B9D74021265
:1023E0002BF37AF67B077903123AA97402122B5F5A
:1023F000851882851983E0F47003A3E0F4601C85DE
:102400001882851983E0F8A3E0F988828983740231
:10241000F0A3F0A37469F0A374A5F0C2AF75D69FC2
:102420000200007406122B5F7F040228E4080808EB
:10243000EAC0E0EBC0E086F0E7A4FA180986F0E70E
:10244000A42AFA180986F0E7A42AFA180986F0E700
:10245000A42AFA1986F0E7A4FBE5F02AFA190886FF
:10246000F0E7A42BFBE5F03AFA190886F0E7A42B75
:10247000FBE5F03AFA18180986F0E7A4C5F02BFB43
:10248000E43AFA1908E7C5F0C6A426F6E5F03BFBE6
:10249000E43AFA1886F0E7A4F6E5F00826F6E43BFD
:1024A00008F6E43A08F6D0E0FBD0E0FA22122E5EFD
:1024B000B9000302250DE47921780DB800028004EB
:1024C000F709D8FCE49004D178DB79158002F0A3F9
:1024D000D8FCD9FA781A9020867A01BA00028007CF
:1024E000E493A3F608DAF97AAB7B1990209478D8B4
:1024F00079018015E493A3AD82AE838A828B83F049
:10250000A3AA82AB838D828E83D8E9D9E77582171F
:102510007583A47406122B417582E775834A740093
:10252000122B41E4CFC0E0E4CEC0E0E4CDC0E0E453
:10253000CCC0E075F020E626F608E633F608E63370
:10254000F608E633F6181818EC33FCED33FDEE33DD
:10255000FEEF33FFC3EC9709ED9709EE9709EF976C
:10256000191919400FFFEC97FC09ED97FD09EE973B
:10257000FE191906D5F0BFECF709EDF709EEF709DA
:10258000EFF7191919D0E0FCD0E0FDD0E0FED0E063
:10259000FF222518C582C0E0E51934FFC583C0E0DD
:1025A000E518C3958224F810AF0885831985821831
:1025B0008008858319858218D2AFCEF0A3E520F07C
:1025C000A37808E608F0A3DEFAEFF0A3E58124FA89
:1025D000F8E608F0A3E608F0A3E608F0A30808E68A
:1025E00008F0A3E608F0A315811581D0E0FED0E045
:1025F000F8158115811581E8C0E0EEC0E0222518AC
:10260000C582C0E0E51934FFC583C0E0E518C39575
:102610008224F910AF088583198582188008858384
:1026200019858218D2AFCEF0A3E520F0A37808E692
:1026300008F0A3DEFAEFF0A3E58124FBF8E608F04A
:10264000A3E608F0A30808E608F0A3E608F0A3153F
:10265000811581D0E0FED0E0F815811581E8C0E059
:10266000EEC0E022C0D02518C582C0E0E51934FFD5
:10267000C583C0E0E518C3958224F310AF088583B5
:10268000198582188008858319858218D2AFC8F011
:10269000A3E9F0A3EAF0A3EBF0A37908E709F0A31C
:1026A000D8FAECF0A3EDF0A3EEF0A3EFF0A3D0E0A6
:1026B000F0A3D0E0F0A3D0E0F0A3E520F0A3E5F094
:1026C000F0A32212010002020000205104A8160902
:1026D00000010203010902430002010080190904FC
:1026E000000001020201000524001001042402027E
:1026F00005240600010524010001070582034000AE
:102700004009040100020A0000000705840240009D
:102710000007050402400000DE260000012700003B
:10272000851983851882E0C0E0A3E0F9A3E0FAA34D
:10273000E0FBA37808E0F608A3DFFAE0FCA3E0FDE5
:10274000A3E0FEA3E0FFA3E0C0E0A3E0C0E0A3E0BD
:10275000F5D0A3E0F520A3E0A3F5F010AF08858342
:10276000198582188008858319858218D2AFD08296
:10277000D083D0E0F8D0E03275F0108E218F228522
:102780008226858325851882851983E0CEA3E0CF34
:10279000852682852583EBC9EAC8EDCBECCAC3E860
:1027A00033C8E933C9EA33CAEB33CBC3EA9EF52415
:1027B000EB9FF523B35004AB23AA24EC33CCED33C9
:1027C000CDD5F0DAAE21AF2222D083D082ECC0E0AA
:1027D000EDC0E0E493A3FCE493A3FDED4C600D1287
:1027E0002924EC24FFFCED34FFFD80EFE493A3FCEF
:1027F000E493A3FDED4C600D1229FBEC24FFFCEDEE
:1028000034FFFD80EFD0E0FDD0E0FCE493A3C0E016
:10281000E493C0E022D083D082E9C0E0E493A3C374
:1028200086F0C5F095F0F908E493A386F0C5F0951D
:10283000F0700BE493A3C3994005E9048002A3E47C
:1028400075F002A42582F582E5F03583F583D0E0AA
:10285000F9E493A3C0E0E493C0E0228519838518CE
:1028600082E0A3FEE0A3F5207808E0A3F608DFFAF3
:10287000E0A3FFE0A3C0E0E0A3C0E0E0A3C0E0E08D
:10288000A3C0E0E0A3C0E010AF08858218858319DB
:102890008008858218858319D2AFD083D082022B1D
:1028A00047C0E074F2122664A2AFE433FED2AFE573
:1028B0008AA2E25007900738E0D2E0F0E58AA2E36E
:1028C0005007900738E0D2E1F0758A00C2EB7A1029
:1028D0007B00900734E0F9124067EEA2E092AF7FF0
:1028E00001022720851983851882E0A3FEE0A3F565
:1028F000207808E0A3F608DFFAE0A3FFE0A3C0E039
:10290000E0A3C0E0E0A3C0E0E0A3C0E010AF088512
:1029100082188583198008858218858319D2AFD0E3
:1029200083D08222C0E0C3E4939608740193961882
:10293000400FE49366700808740193661870007085
:1029400019A3A3C3E49396087401939618A3A34014
:102950000DD0E0D0E0D0E0022805A3A3A3A3A3A359
:10296000D0E022D083D082C5F0E493A3C5F0C39514
:10297000F0F5F0E493A3C395F04005E5F004800181
:10298000E475F002A42582F582E5F03583F583E451
:1029900093A3C0E0E493C0E0227404800874038031
:1029A0000474028000CCC0E0EDC0E0E518C39CCC0C
:1029B000AD1950011D10AF068C188D1980068C18AA
:1029C0008D19D2AF122AC3D0E0FDD0E0FC227402F0
:1029D0008000CCC0E0EDC0E0E518C39CCCAD195040
:1029E000011D10AF068C188D1980068C188D19D218
:1029F000AF122AA1D0E0FDD0E0FC22C0E0C0F088F8
:102A0000F0E4936670080874019366187000A8F0EB
:102A1000A3A3700BD0F0D0E0D0E0D0E0022805A353
:102A2000A3D0F0D0E022D083D082CCC0E0E493A346
:102A30006006122AE41470FAE493A36006122C3F95
:102A40001470FAD0E0FCE493A3C0E0E493C0E02269
:102A5000C0E0C0D0E8C0E0E9C0E0A9A8D2AFC2C7DA
:102A6000751A00E9A2E7E433F8E9A2E792AFD0E0F3
:102A7000F9D0E0F8D0D0D0E032C0E074F212266491
:102A8000758900C2C59019A3E0700E7A007B109082
:102A9000080DE0F912406780031249377F010227D1
:102AA00020CAC0E0E493A3C582CCC582C583CDC54E
:102AB00083F0A3C582CCC582C583CDC583DAE5D0BA
:102AC000E0CA22CAC0E0E0A3C582CCC582C583CDDE
:102AD000C583F0A3C582CCC582C583CDC583DAE6A4
:102AE000D0E0CA22C0E0E493A3D39C5010E493A3A7
:102AF000C39C400AD0E0D0E0D0E0022A43A3A3A3C5
:102B0000D0E022C008C3E096F50808A3E09642088A
:102B100008A3E096420808A3E09645087001D3D0C8
:102B200008227009080808226016181818C6C3334E
:102B3000C608C633C608C633C608C633C6D5E0EADB
:102B400022C09FF59FE473D09F22D083D082C09F84
:102B5000E493C0E0740193C0E0740293F59F2200F7
:102B6000C0D0251810AF08F518500C05198008F5CD
:102B70001850020519D2AFD0D0222518F58210AF17
:102B800008F518400C15198008F51840021519D2DF
:102B9000AF851983227404800A740380067402804E
:102BA000027401C0E0F404122B7AD0E0122E092244
:102BB000BB0102E722C082C08389828A83BB0003F3
:102BC000E08002E493D083D082226016080808C611
:102BD000C313C618C613C618C613C618C613C6D55F
:102BE000E0EA222518F8E43519F9222518FAE43527
:102BF00019FB222518FCE43519FD22C3E0C696F620
:102C000008A3E0C696F608A3E0C696F608A3E0C6B9
:102C100096F622251810AF08F518400C15198008F3
:102C2000F51840021519D2AF22BB000EC082C08336
:102C30008A838982F0D083D08222BB0101F722C02F
:102C4000E0E493A36C7009D0E0D0E0D0E0022A4326
:102C5000A3A3D0E022E76670100809E766700A08AF
:102C600009E76670040809E76622E066701008A3A9
:102C7000E066700A08A3E066700408A3E06622C359
:102C8000E09608A3E09608A3E09608A3E096A2D2F7
:102C900065D03322C3E697F60809E697F60809E6F9
:102CA00097F60809E697F622C3E493960874019311
:102CB000960874029396087403939622C3E096F0E4
:102CC00008A3E096F008A3E096F008A3E096F022AF
:102CD000E026F008A3E036F008A3E036F008A3E011
:102CE00036F022E647F60809E647F60809E647F611
:102CF0000809E647F622E493F608740193F608748F
:102D00000293F608740393F622E056F608A3E05601
:102D1000F608A3E056F608A3E056F62270042260F7
:102D20000D18C6C333C608C633C6D5E0F41822E072
:102D300056F008A3E056F008A3E056F008A3E056CA
:102D4000F022E627F60809E637F60809E637F6081E
:102D500009E637F622E026F608A3E036F608A3E0F7
:102D600036F608A3E036F622E657F60809E657F6E7
:102D70000809E657F60809E657F622E4C396F6086E
:102D8000E496F608E496F608E496F622C3E0960880
:102D9000A3E09608A3E09608A3E09622C6F4C6082E
:102DA000C6F4C608C6F4C608C6F4C622600D08C636
:102DB000A2E713C618C613C6D5E0F322C3E79608E8
:102DC00009E7960809E7960809E7962275D0007585
:102DD000813F7518D1751904000224ADE0F608A3EF
:102DE000E0F608A3E0F608A3E0F622600C08C6C3EC
:102DF00013C618C613C6D5E0F422E6F008A3E6F021
:102E000008A3E6F008A3E6F022CAC0E0E6F0A308B3
:102E1000DAFAD0E0FA22E0F8A3E0F9A3E0FAA3E0BE
:102E2000FB22E0FCA3E0FDA3E0FEA3E0FF22EAF02A
:102E3000A3EBF0A3ECF0A3EDF022E0FAA3E0FBA3F8
:102E4000E0FCA3E0FD22ECF0A3EDF0A3EEF0A3EF95
:102E5000F022E8F0A3E9F0A3EAF0A3EBF022E5C743
:102E600054F84401F5C77901222518F582E4351993
:102E7000F58322122B4A66A802122B4AECAB0212EF
:102E80002B4A00AC02122B4A0AAC02122B4A14AC99
:102E900002122B4A1EAC02122B4A28AC02122B4AF9
:102EA00041AC02122B4A4BAC02122B4AC2AC0212AA
:102EB0002B4ACDAC02122B4AFCAC02122B4A24AD99
:102EC00002122B4A2FAD02122B4A94AD02122B4A4A
:102ED0009EAD02122B4AA9AD02122B4ACDAD0212B1
:102EE0002B4AF1AD02122B4A5FAE02122B4AA8AE5A
:102EF00002122B4AC4AE02122B4A39AF02122B4ADD
:102F000085AF02122B4ACEAF02122B4A53B00212E7
:102F10002B4AFAB002122B4ACBB202122B4A30B320
:102F200002122B4A5EB402122B4A84B402122B4ABC
:102F3000CCB502122B4A06B902122B4A04BB02126C
:102F40002B4ACFBC02122B4A68BD02122B4A66BF25
:102F500002122B4A1BC002122B4A54C002122B4AE7
:102F6000C4C002122B4ACEC002122B4AFBC202126C
:102F70002B4AFEC302122B4A3BC502122B4A92C5B2
:102F800002122B4A3DC602122B4AEDC702122B4AEF
:102F90003AC902122B4A5AC902122B4AAFC902126D
:102FA0002B4AB0CA02122B4AD8CA02122B4A37CB7C
:102FB00002122B4A2FCC02122B4AA6CC02122B4A09
:102FC000B9CD02122B4A27CE02122B4A26CF02126B
:102FD0002B4A7CD102122B4AA5D102122B4A0BD3C9
:102FE00002122B4A8DD402122B4AE4D402122B4A2D
:102FF00097D502122B4A34D602122B4A97D60212C8
:103000002B4A55D702122B4AE7D702122B4A46D831
:1030100002122B4A88D802122B4AC0D802122B4A1D
:1030200016DA02122B4A008003122B4A3280031256
:103030002B4A6B8003122B4AB48103122B4AF8816E
:1030400003122B4ACA8203122B4A228303122B4AF1
:10305000388403122B4A848403122B4AEA86031213
:103060002B4A898903122B4ACC8A03122B4A668B7E
:1030700003122B4A728B03122B4AB28B03122B4A78
:10308000F18C03122B4AEA8D03122B4A148E031281
:103090002B4A678E03122B4AC08E03122B4A218FB4
:1030A00003122B4A3C9103122B4ACD9203122B4A56
:1030B000B79303122B4AF99403122B4A3597031244
:1030C0002B4A019A03122B4A109A03122B4AA49AF4
:1030D00003122B4A589B03122B4A9B9B03122B4A29
:1030E000E49B03122B4A2D9C03122B4A919C031242
:1030F0002B4AFF9C03122B4A1B9D03122B4A4A9D0D
:1031000003122B4A899D03122B4A7C9E03122B4AE1
:103110002B9F03122B4AA3A103122B4AF0A20312E6
:103120002B4AC3A303122B4A45A403122B4A3CA8E3
:1031300003122B4A6BA803122B4AC6A803122B4A70
:10314000F9A803122B4A69A903122B4AA1A9031259
:103150002B4AF1A903122B4A99AB03122B4ABDABA0
:1031600003122B4AE4AB03122B4AF1AB03122B4A96
:10317000F4AB03122B4A23AC03122B4AF8AD031213
:103180002B4AB7AE03122B4AE6AE03122B4A03B00A
:1031900003122B4AD7B003122B4A99B203122B4ABF
:1031A00009B303122B4A3BB303122B4AA1B30312F8
:1031B0002B4AB0B303122B4ADDB303122B4AF7B3E9
:1031C00003122B4A6AB403122B4AB8B603122B4AD5
:1031D00017B703122B4A6BB703122B4AA6B9031277
:1031E0002B4A92BA03122B4A1ABB03122B4A01BC78
:1031F00003122B4A8BBC03122B4A9FBC03122B4A8F
:10320000B3BC03122B4AC7BC03122B4ADBBC03120C
:103210002B4A08BD03122B4A38BD03122B4A12BF9A
:1032200003122B4AD9BF03122B4A82C003122B4A26
:10323000DFC003122B4A2DC103122B4AA7C1031270
:103240002B4AE2C103122B4A54C203122B4AA9C3D0
:1032500003122B4A57C403122B4A6FC403122B4A82
:1032600012C503122B4A90C703122B4A24C903121A
:103270002B4A42C903122B4A9E8101122B4AE0813C
:1032800001122B4AE88601122B4A348701122B4A7D
:103290007A8701122B4AAC8801122B4A118901123C
:1032A0002B4A558901122B4ADB8A01122B4AEA8EDE
:1032B00001122B4A479001122B4AD79B01122B4A2D
:1032C0005A9C01122B4A449F01122B4AA9A00112B9
:1032D0002B4A0CA101122B4A2EA201122B4A9AA3AF
:1032E00001122B4A7FA401122B4AF4A601122B4A89
:1032F00082A801122B4A13A901122B4A32AA0112E9
:103300002B4ABFAA01122B4AC9AA01122B4AF1AAC1
:1033100001122B4A91AB01122B4A7EAC01122B4AAF
:1033200046AD01122B4AD3AD01122B4AE9AD011271
:103330002B4A06AE01122B4A2FAE01122B4A5CAE6D
:1033400001122B4AB7B001122B4A92B101122B4A3B
:10335000D6B101122B4A58B201122B4AF9B201120E
:103360002B4A2BB301122B4A7FB301122B4AB2B363
:1033700001122B4A10B401122B4A5FB401122B4ADE
:1033800064B401122B4AC0B401122B4A12B50112C7
:103390002B4AFEB501122B4A63B601122B4AC1B665
:1033A00001122B4A40B701122B4AACBA01122B4A28
:1033B00091BB01122B4A3ABD01122B4A88C001125F
:1033C0002B4A2AC101122B4A7FC301122B4A3AC44D
:1033D00001122B4A82C401122B4A39C601122B4A10
:1033E00056C601122B4A5FC601122B4A68C601124B
:1033F0002B4A73C601122B4A92C601122B4AB6C839
:1034000001122B4A13C901122B4A1DC901122B4A62
:1034100027C901122B4A82C901122B4ADEC90112A7
:103420002B4AF6CA01122B4A57CB01122B4A68CC01
:1034300001122B4AB1CC01122B4A5FCD01122B4A4B
:103440006FCE01122B4A33CF01122B4A6FD00112DB
:103450002B4A80D101122B4A8BD201122B4AA3D2C4
:1034600001122B4ADAD201122B4AE4D201122B4A62
:10347000EED201122B4AF9D201122B4A17D30112B4
:103480002B4A5FD301122B4ABDD301122B4AE7D33B
:1034900001122B4AF9D301122B4AA2D401122B4A52
:1034A000DBD401122B4A07D601122B4A64D6011233
:1034B0002B4A55D701122B4A8BD701122B4AFCD726
:1034C00001122B4A78D801122B4A1CDA01122B4A1E
:1034D00042DB01122B4A00DC01122B4ACEDC011226
:1034E0002B4A53DD01122B4AFEDD01122B4AE7DE87
:1034F00001122B4A80DF01122B4A5CE001122B4A99
:10350000C4E001122B4A83E101122B4ADFE10112D0
:103510002B4A43E201122B4A09E301122B4A2CE306
:1035200001122B4AD6E301122B4AF8E301122B4A6F
:1035300059E401122B4A89E601122B4A72E7011263
:103540002B4A1EE801122B4A4BEA01122B4A94EA3D
:1035500001122B4ADFEA01122B4A32EB01122B4AED
:1035600090EB01122B4AC2EB01122B4AE6EB01123F
:103570002B4A1BEC01122B4A43EC01122B4A88EC1C
:1035800001122B4AE6EC01122B4A44ED01122B4AA0
:1035900037EE01122B4AABEF01122B4AF0EF01126A
:1035A0002B4A19F001122B4A9EF001122B4A03F10B
:1035B00001122B4A11F101122B4A35F101122B4A4B
:1035C0008BF101122B4AA6F101122B4A61F2011272
:1035D0002B4A8DF201122B4AD0F201122B4A33F3FF
:1035E00001122B4A2FF501122B4A5BF501122B4ACF
:1035F00016F601122B4AFAF601122B4A8EF7011227
:103600002B4A0CB205122B4A44B205122B4A65B262
:1036100005122B4AA7B205122B4A0BB305122B4AEF
:1036200015B305122B4A25B305122B4A5CB30512BC
:103630002B4A05B705122B4ACDB805122B4AB1BA51
:1036400005122B4A53BB05122B4ADDBB05122B4A30
:10365000508004122B4AF98004122B4AD88104129C
:103660002B4AE48204122B4A048304122B4A268438
:1036700004122B4AD68504122B4A438604122B4A85
:10368000148704122B4A1A8804122B4A92880412B7
:103690002B4ACD8804122B4A268904122B4A6189B1
:1036A00004122B4AAA8904122B4A3E8A04122B4A7E
:1036B000D48A04122B4AA98B04122B4A7C8C041244
:1036C0002B4A0A8D04122B4A308D04122B4A5D8D31
:1036D00004122B4A8E8D04122B4A5B8E04122B4A45
:1036E0006B8E04122B4ABE8E04122B4ACB8E041210
:1036F0002B4AD88E04122B4AE18E04122B4A458F96
:1037000004122B4AA38F04122B4AEE8F04122B4A69
:10371000099004122B4A309004122B4A4D90041247
:103720002B4A599004122B4AEA9104122B4A039215
:1037300004122B4A7F9204122B4A929204122B4AB3
:10374000A29204122B4A469304122B4AB2940412FA
:103750002B4AC59504122B4A659604122B4A6F9684
:1037600004122B4AEE9604122B4AFF9604122B4A9F
:103770003E9704122B4A6C9704122B4A3998041274
:103780002B4A909804122B4AC99804122B4A1F996D
:1037900004122B4A3D9904122B4A8B9904122B4A8E
:1037A000569A04122B4AA49A04122B4AF19A041234
:1037B0002B4A749B04122B4A9E9B04122B4AD49BC7
:1037C00004122B4AE39B04122B4A429C04122B4AFC
:1037D000BA9C04122B4AFB9C04122B4A4B9D0412E8
:1037E0002B4A769D04122B4A909D04122B4AAA9DC7
:1037F00004122B4A7F9E04122B4A899E04122B4AE4
:10380000C49E04122B4AD49E04122B4ADD9E04123D
:103810002B4A2E9F04122B4A429F04122B4A64A06B
:1038200004122B4A77A004122B4A8EA004122B4AB2
:10383000A3A004122B4A36A104122B4AAAA10412F7
:103840002B4A4FA204122B4A5AA204122B4ABDA3A0
:1038500004122B4AD9A304122B4A25A404122B4A82
:1038600093A404122B4AC5A404122B4ADFA4041209
:103870002B4A3FA504122B4ADEA504122B4A29A687
:1038800004122B4A7CA804122B4A14A904122B4AB6
:103890008BA904122B4AE8AB04122B4A00AC041289
:1038A0002B4A03AC04122B4A0FAC04122B4A23AC54
:1038B00004122B4A2BAC04122B4A62AC04122B4A82
:1038C00056AD04122B4AE0AD04122B4A62AE04122C
:1038D0002B4AE2AE04122B4AB9AF04122B4ADBAFDB
:1038E00004122B4A74B004122B4AD1B004122B4A92
:1038F000D4B004122B4A01B104122B4A16B104129F
:103900002B4A85B104122B4AD1B204122B4AE4B3DC
:1039100004122B4A6FB404122B4A82B504122B4AAC
:1039200049B604122B4A7AB604122B4AA0B60412E6
:103930002B4AA9B604122B4AD8B604122B4A88B7D0
:1039400004122B4A38B804122B4AABB804122B4A83
:103950004EB904122B4AC1B904122B4A00BA041200
:103960002B4A49BA04122B4A7EBA04122B4A258DDF
:1039700005122B4A928D05122B4AD98D05122B4A1E
:103980004F8E05122B4AA18E05122B4A278F051246
:103990002B4A6B9105122B4A9A9305122B4A779763
:1039A00005122B4AF79705122B4A329805122B4A1B
:1039B000509805122B4AB09805122B4AD898051238
:1039C0002B4A089905122B4A399905122B4A6699F8
:1039D00005122B4ABF9905122B4A0A9A05122B4A47
:1039E000419A05122B4ABD9A05122B4AE99A0512F3
:1039F0002B4A1B9B05122B4A7D9C05122B4A999C36
:103A000005122B4AD79C05122B4A649D05122B4A9E
:103A1000C09D05122B4A869E05122B4A459F051212
:103A20002B4A8A9F05122B4AEB9F05122B4A60A056
:103A300005122B4A9AA005122B4AF2A005122B4A16
:103A400014A105122B4AACA105122B4A53A2051250
:103A50002B4AA0A205122B4AC9A205122B4A0AA37F
:103A600005122B4AB7A405122B4A9BA505122B4A17
:103A70004CA605122B4AEFB106122B4A00B20612D1
:103A80002B4A9EB206122B4AE97F00122B4AE2FF14
:103A900002122B4A06B106122B4A16B106122B4A05
:103AA0002EB106122B4AE2B106122B4A10AF0612B3
:103AB0002B4A94AF06122B4AFAAF06122B4A6CB36C
:103AC00006122B4A6FB306122B4AA8B306122B4AD2
:103AD000FEB306122B4A11B406122B4A14B4061276
:103AE0002B4A008406122B4A0E8406122B4A878426
:103AF00006122B4A5C8506122B4A1B8706122B4A9C
:103B0000808706122B4ADF8706122B4AF87F0012A5
:103B10002B4A0AA206122B4A42A206122B4A90A353
:103B200006122B4A14A406122B4A4D9806122B4A51
:103B3000EE9806122B4A279906122B4A7299061202
:103B40002B4A3B9A06122B4A659A06122B4A8B9AED
:103B500006122B4A9F9A06122B4AB49A06122B4A37
:103B6000BD9A06122B4A53DC05122B4A7FDC051244
:103B70002B4A25DF05122B4A7CDF05122B4AB8DFC2
:103B800005122B4ACCDF05122B4AE5DF05122B4A22
:103B9000D6E005122B4AB2E105122B4AC6E1051206
:103BA0002B4A0DA606122B4A31A606122B4A4AA60C
:103BB00006122B4A88A606122B4ABEA606122B4ACC
:103BC000F1A606122B4AFBA606122B4A67A706127D
:103BD0002B4A6AA706122B4A9E9E02122B4A81A7E5
:103BE00006122B4AA19506122B4AC49506122B4A9F
:103BF0000F9606122B4A2D9606122B4A489606124D
:103C00002B4AAE9606122B4ABA9606122B4A1797E3
:103C100006122B4A3B9706122B4A019806122B4A92
:103C20000E9806122B4A1F9806122B4A08B6061247
:103C30002B4A20B606122B4A4CB606122B4A71ECC0
:103C400005122B4A8CA602122B4AE3ED05122B4AD1
:103C5000F7ED05122B4A14EE05122B4A29EE051238
:103C60002B4A3CEE05122B4ABEEE05122B4A24EFDE
:103C700005122B4AADEF05122B4A25F005122B4AEF
:103C8000FEF005122B4A0EF105122B4A1DF105120A
:103C90002B4AD1B406122B4AF5B406122B4A1DB595
:103CA00006122B4A45B506122B4AED9A06122B4AEC
:103CB000149B06122B4A339B06122B4AA89B061212
:103CC0002B4ACE9206122B4AE79206122B4AFE92FC
:103CD00006122B4A079306122B4A259306122B4AEB
:103CE0002F9306122B4A399306122B4A4C93061235
:103CF0002B4AD99306122B4A489406122B4A7694E3
:103D000006122B4AC79406122B4A139506122B4A09
:103D10002E9506122B4A389506122B4A4995061203
:103D20002B4A8C9506122B4A9DFF01122B4AE8FF65
:103D300001122B4A8CBC05122B4AB8BC05122B4A27
:103D4000DBBC05122B4AEEBC05122B4A09BD05123D
:103D50002B4A6DBD05122B4A9BBD05122B4AA8C1EB
:103D600005122B4AEAC205122B4A1CC305122B4A24
:103D700087C305122B4A0BC505122B4A33C5051202
:103D80002B4A48C505122B4A58C505122B4A98C51F
:103D900005122B4ADAC505122B4AEAC505122B4A31
:103DA00054AA06122B4A64AA06122B4A88AA0612A3
:103DB0002B4AB1AA06122B4ADBAA06122B4AFFAAEB
:103DC00006122B4A16AB06122B4A44AB06122B4A9C
:103DD00067AB06122B4AB8B206122B4AFEB2061285
:103DE0002B4AE58B06122B4AF58B06122B4A138DB4
:103DF00006122B4A478D06122B4A698D06122B4A52
:103E0000918D06122B4AAA8D06122B4AE68D0612B8
:103E10002B4A4C8E06122B4A918E06122B4AD68EB6
:103E200006122B4A038F06122B4A3B8F06122B4A8F
:103E3000058006122B4A678006122B4A0E81061255
:103E40002B4A468106122B4A008005122B4AAF806E
:103E500005122B4AE38205122B4AB68505122B4A1E
:103E6000368705122B4A988705122B4AA38A05121A
:103E70002B4AE78B05122B4A9FAB06122B4AEAAB63
:103E800006122B4A02E705122B4AC1E905122B4AFA
:103E90005EEA05122B4A8AEA05122B4AB8EA051295
:103EA0002B4AEDEA05122B4A15EB05122B4A75EB4E
:103EB00005122B4A39A705122B4A31AB05122B4AA2
:103EC00028AD05122B4A56AE05122B4A32AF051209
:103ED0002B4ACDB005122B4A9AB105122B4AEEB1EE
:103EE00005122B4A7A9D06122B4A849D06122B4AF4
:103EF000A59D06122B4AD1E904122B4AF5EE0412B5
:103F00002B4A24F004122B4A00F204122B4A8BF2A3
:103F100004122B4A1FF304122B4A18F404122B4AE2
:103F20004FF504122B4A5CF604122B4A41F7041297
:103F30002B4A8DC903122B4AC5C903122B4A22D41E
:103F400003122B4A0CD503122B4A5CD603122B4AC0
:103F5000A7D703122B4A52D803122B4A25D9031292
:103F60002B4ABCD903122B4AA0DA03122B4AA3DB3B
:103F700003122B4A65DC03122B4A93DC03122B4AF3
:103F80000BDE03122B4A94DE03122B4AADDE031222
:103F90002B4A07E003122B4AB9E003122B4A48E1EF
:103FA00003122B4AF7E103122B4A5AE203122B4A5F
:103FB000F6E203122B4A6FE303122B4A8DE303123E
:103FC0002B4A5AE403122B4A29E503122B4ADFE558
:103FD00003122B4A8BA706122B4AB5A706122B4AAF
:103FE000C9A806122B4ACCA806122B4A6AB506129B
:103FF0002B4AACB506122B4AEEB506122B4AFEB57B
:1040000006122B4ACDD505122B4A14D605122B4A7F
:104010007DD605122B4A9ED605122B4AB7D605121D
:104020002B4A67D705122B4A70D705122B4AC1D7E6
:1040300005122B4AF7D705122B4A0ED805122B4A28
:104040007BD805122B4A0BD905122B4A41D90512F0
:104050002B4A8AD905122B4AEBD905122B4A25DAAD
:1040600005122B4A8DDA05122B4AE0DA05122B4A8B
:1040700023DB05122B4A60DB05122B4A72DB05128B
:104080002B4A84DB05122B4ABEDB05122B4AFEDBD2
:1040900005122B4A27DC05122B4A4EF105122B4A3A
:1040A00094F205122B4ABDF205122B4ACEF20512EC
:1040B0002B4AE6F405122B4A06F505122B4AC69F39
:1040C00006122B4AFC9F06122B4A4BA006122B4AC3
:1040D000A7A106122B4ABFD504122B4AFDD6041203
:1040E0002B4A39D704122B4AFED804122B4A28D95E
:1040F00004122B4AAEDB04122B4AEEDB04122B4ACD
:1041000084DD04122B4A19DE04122B4A77DE0412D6
:104110002B4AFDDE04122B4A35DF04122B4A77DFCF
:1041200004122B4AE4E004122B4A68E204122B4AE0
:10413000A2E404122B4AD0E404122B4AFCE4041239
:104140002B4A05E504122B4A5BE504122B4AEBE5EA
:1041500004122B4AF2E804122B4A74E904122B4A87
:104160001DB406122B4A33B406122B4A3DB4061274
:104170002B4A99B406122B4A24FB05122B4A3DFB0D
:1041800005122B4AE2FB05122B4A22FC05122B4A90
:104190003BFC05122B4A6EFC05122B4ABBFC051298
:1041A0002B4AEFFC05122B4A31FD05122B4A0AFF60
:1041B00005122B4A75FF05122B4AD3AC06122B4A67
:1041C00028AD06122B4A82AD06122B4AFDAD06120F
:1041D0002B4A6FAE06122B4AADAE06122B4AEEAE3C
:1041E00006122B4AE2F704122B4AE8F704122B4A74
:1041F0002FF804122B4A3BFA04122B4A6BFA0412D2
:104200002B4AD5FA04122B4A90FB04122B4AD3FBFB
:1042100004122B4A04FC04122B4A8EFC04122B4A73
:10422000A5FC04122B4AB2FC04122B4ABCFC04125B
:104230002B4A5CFE04122B4A4EFF04122B4AACFFA1
:1042400004122B4A1AC605122B4A30C605122B4AF5
:10425000E2C605122B4A0CC805122B4A01C90512E9
:104260002B4A98C905122B4AD3C905122B4A45CAB5
:1042700005122B4AA3CA05122B4AB3CA05122B4AB0
:10428000DACA05122B4A2CCB05122B4A98CC051200
:104290002B4A9DCC05122B4ABFCC05122B4A8DB65A
:1042A00006122B4ABBB606122B4AF0B606122B4A50
:1042B000F2B606122B4AF4B606122B4A05B70612BE
:1042C0002B4A07B706122B4A0AB706122B4A48FE9A
:1042D00003122B4AB6FE03122B4AD8FE03122B4AB6
:1042E00010FF03122B4A46FF03122B4ACFFC021287
:1042F0002B4A11FD02122B4A34FD02122B4A67FF92
:1043000002122B4A81FF02122B4AACFF02122B4AE7
:1043100082FF05122B4A4FF801122B4A2DF9011288
:104320002B4A13FA01122B4A24FA01122B4A35FAAE
:1043300001122B4A81FA01122B4A72FC01122B4AFC
:10434000C7FD01122B4AF7FD01122B4ABBFE0112D9
:104350002B4A19FF01122B4A72DA02122B4ACDDACC
:1043600002122B4A6DDB02122B4AEADC02122B4AA4
:10437000D6DD02122B4A93DE02122B4AAADE02126B
:104380002B4AF9DE02122B4A6DDF02122B4AC8DFDC
:1043900002122B4ADBDF02122B4A3FE002122B4AA9
:1043A000AEE002122B4AC6E002122B4A79E3021257
:1043B0002B4A7EE402122B4AD9E402122B4A1FE553
:1043C00002122B4AD0E702122B4A20E802122B4A93
:1043D000A1E802122B4AE3E802122B4ABDE90212BD
:1043E0002B4AF6E902122B4A15EA02122B4A60EA1E
:1043F00002122B4A80EA02122B4A54EB02122B4A79
:1044000022EC02122B4A2DEC02122B4A7BEC0212F8
:104410002B4AD0EC02122B4A1CED02122B4A77EEEB
:1044200002122B4AAAEE02122B4A42F102122B4A26
:1044300075F102122B4A89F202122B4AB8F20212CB
:104440002B4A30F302122B4AF4F302122B4A36F4B1
:1044500002122B4AAAF402122B4AC8F502122B4A66
:104460000FF602122B4A19F602122B4A1CF6021200
:104470002B4A26F602122B4A42F602122B4AACF6BF
:1044800002122B4AE5F602122B4A01F702122B4ABE
:104490002DF702122B4A54F702122B4A78F7021218
:1044A0002B4AF1F702122B4A64F802122B4AA7F8A2
:1044B00002122B4AB1F802122B4AE0F802122B4AE0
:1044C000F6F802122B4A12F902122B4A41F9021293
:1044D0002B4A61F902122B4AAAF902122B4AE5F97A
:1044E00002122B4AF1FA02122B4A54FC02122B4AF6
:1044F00073FC02122B4A8AFC02122B4A9CFC021209
:104500002B4A13B006122B4A24B006122B4AADB028
:1045100006122B4ADAE105122B4A18E205122B4A41
:10452000B1E205122B4ABCE305122B4A04E6051240
:104530002B4A81E605122B4A94CE05122B4AE3CE74
:1045400005122B4AA1D005122B4A75D205122B4A0F
:10455000B3D205122B4A94D305122B4A9ED40512CE
:104560002B4AC0D405122B4A1CD505122B4A9DD5C7
:1045700005122B4AD45000122B4AF65000122B4A37
:10458000655200122B4AAE5200122B4A1F530012E2
:104590002B4AA25300122B4A195400122B4A605482
:1045A00000122B4AD75400122B4A7B5500122B4A7B
:1045B000F05500122B4A2D5600122B4A755A001244
:1045C0002B4A985C00122B4AD15C00122B4A105DDA
:1045D00000122B4A066000122B4A966000122B4AEA
:1045E0004A6200122B4A846300122B4AA464001210
:1045F0002B4A156500122B4AF66500122B4A796684
:1046000000122B4A8D6600122B4A5C6700122B4A5F
:10461000936800122B4AB26A00122B4AC16C001236
:104620002B4AAD6D00122B4A447000122B4A1971AF
:1046300000122B4A587200122B4A887500122B4A1E
:10464000987500122B4ACE7600122B4A677700121B
:104650002B4A987800122B4A067900122B4A3F7A8F
:1046600000122B4A7A7A00122B4A237B00122B4A23
:10467000E9BA04122B4A8BBB04122B4AF7BB041273
:104680002B4A11BC04122B4A93BC04122B4ACDBCFA
:1046900004122B4ACFBD04122B4A11BE04122B4A1E
:1046A00083BE04122B4AD3BE04122B4A32BF04121B
:1046B0002B4ADEBF04122B4AC8C204122B4A8FC3F6
:1046C00004122B4AF5C304122B4A9DC504122B4A2F
:1046D00036C604122B4ACFC604122B4A32C7041224
:1046E0002B4AA8C704122B4AA9C804122B4A9AC9FC
:1046F00004122B4AD5C904122B4AECC904122B4AC6
:10470000B9CA04122B4AF7CA04122B4A7FCB0412EF
:104710002B4ACCCC04122B4A90CE04122B4ACECF7B
:1047200004122B4A01D104122B4A15D204122B4A2F
:10473000ACD204122B4A1BD304122B4A28D40412E5
:104740002B4AA4E603122B4A0FE703122B4A57E722
:1047500003122B4ABEE703122B4A1AE803122B4A14
:1047600055E803122B4AF1E803122B4A4BE90312D6
:104770002B4AB7EA03122B4A30EB03122B4A67ECA1
:1047800003122B4A8FEC03122B4A6DED03122B4AB6
:104790007EED03122B4A96ED03122B4A8DEE031287
:1047A0002B4AB0EE03122B4A79EF03122B4AA3EFE8
:1047B00003122B4ABAEF03122B4AD4EF03122B4AEF
:1047C00000F003122B4A20F003122B4A46F003128A
:1047D0002B4A5DF003122B4A32F103122B4A8CF163
:1047E00003122B4A5DF203122B4AD9F203122B4A11
:1047F000F0F203122B4A73F303122B4ABBF303129A
:104800002B4AE1F303122B4A39F503122B4A3EF5EA
:1048100003122B4A7CF503122B4AF3F503122B4AA1
:104820005FF603122B4A5AF703122B4A34F803128D
:104830002B4A80F803122B4A98F903122B4A94FA58
:1048400003122B4A36FB03122B4A7CFB03122B4A22
:1048500091FB03122B4AA3FC03122B4A44FD0312C3
:104860002B4AA0FD03122B4AF38706122B4AAE896E
:1048700006122B4A768A06122B4ACB8A06122B4A3C
:10488000518B06122B4AD37B00122B4AF17B00126C
:104890002B4A357C00122B4A5B7C00122B4A827C0F
:1048A00000122B4A9A7C00122B4AB27C00122B4A2F
:1048B000CA7C00122B4A707D00122B4AB27D001276
:1048C0002B4AC77D00122B4ACE7E00122B4AE97E6E
:1048D00000122B4AF27E00122B4AFB7E00122B4A5A
:1048E000047F00122B4A0E7F00122B4A8B7F00128E
:1048F0002B4A5AF605122B4A9CFA05122B4AB8FA93
:1049000005122B4ABDFA05122B4A93A406122B4A14
:104910008F8F06122B4AA58F06122B4A269106125C
:104920002B4A509106122B4A969106122B4A9F92BF
:1049300006122B4AF9A806122B4A30B706122B4A48
:10494000CDFF05122B4A2B9E02122B4A0F9E0212FC
:104950002B4AF19D02122B4AD99C02122B4AB49C7D
:1049600002122B4AC49B02122B4A509B02122B4A62
:10497000BF9A02122B4A4D9A02122B4A3C9A0212FB
:104980002B4A179A02122B4A339902122B4A4F983C
:1049900002122B4A689502122B4A259402122B4AC6
:1049A0008C9102122B4A479102122B4AED9002126F
:1049B0002B4A4E9002122B4AFB8F02122B4A288F51
:1049C00002122B4A628E02122B4A268E02122B4AA8
:1049D000B98D02122B4AB18D02122B4A268D02127A
:1049E0002B4A50A602122B4AB68C02122B4A1FA544
:1049F00002122B4AA0A402122B4A65A302122B4AD0
:104A000055A302122B4A29A202122B4A48A00212D5
:104A10002B4A3FA002122B4A32A002122B4A078CCB
:104A200002122B4AFC8B02122B4AED8B02122B4AEC
:104A3000CC8B02122B4A359F02122B4A988B021202
:104A40002B4A6C8B02122B4A408A02122B4A2C886A
:104A500002122B4AD5ED05122B4AFD8702122B4A72
:104A6000AD9E02122B4AE18702122B4A8B8702125B
:104A70002B4A528702122B4ACA8602122B4A7E8682
:104A800002122B4A378602122B4A6A8502122B4ADF
:104A9000EE8402122B4A468402122B4A9F83021292
:104AA0002B4A418302122B4A168302122B4AC782D9
:104AB00002122B4A898202122B4A668202122B4A68
:104AC0004D8202122B4A058202122B4A00800212EA
:104AD0002B4A4F8102122B4AC38002122B4A578065
:104AE00002122B4A74A70600000080FBE4738F00BB
:104AF0000100961987000100951935000400451A38
:104B000025000200491A260002004B1A2700020065
:104B10004D1A28000100571A29000100581A840074
:104B20000400591A860001005D1A2A0001005E1A6D
:104B30002B0001005F1A2C000100631A2D000800F1
:104B400077192E000100641A2F000100651A300049
:104B50000100661A31000100671A320001007F1956
:104B600033000100801934000100681A360001008A
:104B7000811938000100691A39000100621A8300A6
:104B800002007D1A63000100921964000100601A9E
:104B900065000100611A6D000100931971000800A1
:104BA0006F19660001007C1A430001006D1A440071
:104BB00002006E1A45000100701A46000200711AC8
:104BC000470008008A1948000100731A4B000100D1
:104BD000741A040001007F1AA1000100811A370035
:104BE0000100801A8800010097193C000100821919
:104BF0003D0001006A1A49000200751A67000100B1
:104C000094194D000200771A4E000100791A4F00E6
:104C100002007A1A3E00010089195100010083192F
:104C2000520001006B1A530001006C1A540001007D
:104C30008419000000000000000136360101000167
:104C40000201000103010001040106060502000043
:104C5000070100340801000F090401010D0100FFE4
:104C60000E08000017020000190100FF1A010001E0
:104C70001B0100FE1C0100081D0200001F010001B5
:104C800020010001210200002301000F2402000086
:104C90002601000127010008280200FF2A01000761
:104CA0002B0102402C0100002D0100012E0100010A
:104CB0002F0100FF30010B1D310800003A010008F0
:104CC0003B01000F3C0100013D0100FF3E040000DC
:104CD00042040000460400004A0400004E040000A4
:104CE00052040000560400005A040000010371033E
:104CF0000103010301030103010322030203010372
:104D0000100300030003000300030003000300037B
:104D100042030003240306030003000304031203F9
:104D200025032303250323030403040300030003D3
:104D30000003440300030003230300036503210071
:104D40003503810300030503000300030003000390
:104D50002503230303047104020460041104700496
:104D60000204020401040204100461040004140497
:104D7000630473047204620443040004130406040D
:104D800000040004040412040004000400040004ED
:104D900051046400000400040004440400040004FE
:104DA0000004000465040004350481046400050463
:104DB000000483040004030071003001600011004E
:104DC00070003102200350048000100061000000D8
:104DD00014006300730072006200430000001300BF
:104DE00006000000000004001200000000000000A7
:104DF000000004000400370037003C0244000000BB
:104E00000000000000006500000035008100000087
:104E10000500000083000000010171010101010192
:104E20001101010131010101010180011001610144
:104E30003B00140063017301720162014301000130
:104E4000130106013D0135000401120100010001BA
:104E50000001000104010401330133013C0144015C
:104E600032013600000100016501000135008101B9
:104E7000000105018201830100010302710230017A
:104E8000600211027002010202020202800210029C
:104E900061023A004100630273027202620243023D
:104EA0000002130238000002000204021202000293
:104EB00000020002000204020402370037003C0234
:104EC00044020002390000020002650200023502BD
:104ED0008102000205028202830200023600010004
:104EE000060000000F0000000000000000000000AD
:104EF000000003FFFF00000403FFFF0000FFFF0F9F
:104F0000F4010005C4040320000100000B000000B0
:104F1000000000000003010F00000000000000007E
:104F20000000000000000000000000000000000081
:104F3000000000000000000000000000AF46130069
:104F40000D461F0013461F8019460100AF460200A0
:104F5000954503009B450400A1450500A7450600B3
:104F6000B3453000D1453100CB453200DD4533003B
:104F7000E3453500E9453400EF453600F5451100BD
:104F80000146140007461500C545FFFF00000A0052
:104F900000000200000004000000080000001000F3
:104FA0000000200000004000000080000000000120
:104FB00000000002000000040000000800000010D3
:104FC0000000002000000040000001BD3206F33266
:104FD00008ED320B0B3310D52F0A1D3302C33205F7
:104FE000E13207C9320CA5320DB13264AF49FF007E
:104FF0000007ECFDFDFDECDCDCCCBCACAC9C9C8C7F
:105000007C7C6C6C5C5C5C4C4C3C3C2C2C1C1C0319
:10501000EAF5E5D5D5C5B5A595958585757565651B
:10502000555545453535252515150500160F000044
:105030000B150B020002220F3300000E5A69674263
:105040006565416C6C69616E636530390103050704
:10505000090B0D0F00020406080A0C0D00034A4953
:10506000434E181A250502000119161816161823A2
:1050700003000C0E020B040B0A0708000F30301659
:10508000181920231A1C1E3000393D3F373C3C368E
:105090002C442D303017181921301B1D1F300204ED
:1050A00002010101010902E803000000BE040A0038
:1050B0000000007F00E8030E00100C0A030305093E
:1050C0000008000CFF1E1E28050803040409101523
:1050D0000401080CC082C0839018EDE4F0A3F07CBA
:1050E000ED7D047A067B181241DB12497F123023D2
:1050F00012497902668674F312259274F5122C1304
:1051000089098A088B0A8C0BE9705F740265087044
:105110003F79081244E7750C00780C122BA1E50BBF
:10512000F50C780C122BA1E50AF50C780C122BA1CA
:10513000901822122999901A5DE0F97C8A7D1990C5
:105140001A7D1270CE1249557407122B5F02522D30
:1051500074016508600302523279081244E77B004B
:10516000AA0AA90A1249FD02522D740165096009B3
:10517000740265096003025232EA6006740365082E
:10518000704779021244E7901A5DE0F990182212F4
:105190002E3A124967E9F9901831E0A2E34010E98C
:1051A000700D9018F1E004F064047003125253740F
:1051B000036508707A9018F2E0F8740128F0E8C3EB
:1051C0009405406B125253806674016508706374D5
:1051D000016509790A702E1244E77401122E69E400
:1051E000F07402122E697403F004122E69E4F0A325
:1051F000F0A3F0A3F07408122E69E4F0AA18AB191A
:105200001232CF80441244E7901A531229997A003F
:105210007B20901826E0F912418D7404122B5F90C8
:105220001A5DE0F9901822122E3A124A33E9F9E990
:1052300060179081151229997A017B00901826E059
:10524000F912418D7404122B5F740B122B5F7F05D2
:1052500002285B901822E4F0A374F8F0A374FFF026
:10526000A37407F02274F6122592E9FFEAFE7AD1C0
:10527000F91240438A828B83E5824583702A7A0241
:105280007B00124025EA4B700E7A107B00901826A6
:10529000E0F912406780148A828B8374D1F0EFA307
:1052A000F0EEF91240318003EFA3F00254D274F70C
:1052B00012259289089006FA1265F1901A41E0F4DD
:1052C0007003A3E0F4702D90080DE0901A41F0A354
:1052D000E4F080208E828F83A312637E600F8E8223
:1052E0008F83A3A3126378FAA90812457D8E828F5B
:1052F00083125395EE4F70DC901A41E0F47003A3D3
:10530000E0F4600A901A41E0FAA90812457D1233D0
:10531000DD9017F0125CCB1233D77F0102285B744B
:10532000F0122592890B8C0C750800750900741019
:10533000122E691254097412122E69125395803C70
:10534000A80A1253F9F50EA3E0F50FA8091253ECC1
:10535000F583E0650E7004A3E0650F701412538CA2
:10536000EE28F582EF39F583E50EF0A3E50FF005A1
:1053700008050AE50AC3950C40C60509E509C39569
:105380000B5005750A0080EBA9088011A808E828D1
:10539000F8E433F922126DA7E8FEE9FF227F080244
:1053A000285B74F4122592890B8C0A750800740C22
:1053B000122E6912540980020508E508C3950B50A6
:1053C0002775090080020509E509C3950A50E9A877
:1053D000081253EC1265EFA8091253F96E7003A37B
:1053E000E06F70E27901800279008028E828F8E413
:1053F00033F9EA28F582EB3922E828F8E433F9ECAE
:1054000028F582ED39F583E022126DA7E8FCE9FD6D
:1054100022122B5F7F0402285B74F612259212542D
:10542000BC7003A3E06D701775082F750918780814
:10543000122B9DEEFA1246B57402122B5F801F7577
:1054400008027509807808122B9D8C088D09780850
:10545000122B9D1254A71246D97404122B5F80722E
:1054600074F61225921254BC7003A3E06D70177588
:10547000083C7509187808122B9DEEFA1246BB7489
:1054800002122B5F801F7508037509807808122BA4
:105490009D8C088D097808122B9D1254A71246D9AD
:1054A0007404122B5F802B1254B53FF583E0FD7C12
:1054B0008012672E22EE240EF582E422EAFEEBFF34
:1054C000126743FCE439FD9017F0E06C227402127D
:1054D0002B5F7F0202285B74F612259274FE122C59
:1054E00013EAFEEBFF851882851983E4F0A3125CB2
:1054F0007B126674FCA3E0FBECFA88828983A3A389
:10550000E0F9750900750800600574FF697005759C
:105510000882803D9017F0E06A7003A3E06B701A78
:10552000AA18AB191239ADE9F509851882851983D6
:10553000126AA5701C7508838017901995E06004A5
:10554000640170057508818008E0640270037508C5
:1055500080851882851983126A8EA908EEFAEFFBFE
:105560001246C1E5096011851882851983126AA562
:1055700060061270C81240CD0254CD74F21225920A
:10558000EAFEEBFF75080075090012673FF50AE4B3
:1055900039F50B1233DDEA650A7003EB650B701207
:1055A0001239BFE914F50879017AB97B181239C5A7
:1055B0008003750980126A94F50C780C122BA17582
:1055C0000CB9750D18780C122B9D7808122BA17848
:1055D0000A122B9DE509F5087808122BA112650A1D
:1055E000126A97F97A057B801246C77407027864BD
:1055F00074F6122592890975080080278A828B83A8
:10560000E0FE127A27EE28E439FF12538CEC28F5DD
:1056100082ED39F583EEF0A3EFF0EA2402FA5001AF
:105620000B0508E508C3950940D20254D274E8126C
:10563000259274FB122C138A168B178518828519F4
:1056400083E4F07403122E69E4F0A3F004122E69CF
:10565000E4F0A3F0125A3E3517125C4DF50B850AA3
:1056600082F583127B13FEE439FF850A82850B8362
:10567000A3A3E0FA850A82850B83A3A3A3E0F9EA3A
:10568000F508E439F509E50A2404F50A5002050B8A
:10569000EEFAEFFB123479E964016016EEFAEFFBE3
:1056A000123479E9703D9017F0E06E7003A3E06F5B
:1056B0006031126884122BA1E4F508F5097808120C
:1056C0002B9D7808122BA19017F01229A175088044
:1056D0007808122BA1125A251246C77407122B5FA5
:1056E000025A1B125A588810602B1276B21240C709
:1056F0007403122E69125CCB7403122E69126AA510
:1057000060137403122E69125A50A9101245AD8A03
:105710000A8B0B8003751000125A58880F602712ED
:1057200076B21240C77401122E69125CCB7401125A
:105730002E69126AA5600F7401122E69125A50A9BF
:105740000F1245AD8003750F009006FA805C850A44
:1057500082850B83A3A3A3A3A3A3A3A3E4F0A3F035
:10576000AA0AAB0B851482851583A3A3E0F8126304
:1057700078F9124031851282851383E0C0E08518E4
:1057800082851983E0F874B928F582E43418F5832A
:10579000D0E0126AA904F0E511A2E05007AA12AB0A
:1057A000131240CD851482851583E0F514A3E0F52E
:1057B00015E51445157003025988851482851583F3
:1057C000A312637E60DE851482851583A3A3A3A341
:1057D000A3A3A3A3E0A2E050CB851482851583A3E5
:1057E000A3A3A3126AA5851482851583A3A3601FB2
:1057F00012637FFA7901851482851583A3A3A3A37D
:10580000125A43124AEC8A128B137511018010123E
:105810005A43A3A3A3E0F512A3E0F513751100E525
:105820001245137003025797851282851383A3E0F4
:1058300065087004A3E06509600F74FF65087004D3
:1058400074FF65096003025797851282851383A34D
:10585000A3A3A3A3A3A31229A1851282851383A3C3
:10586000A3A3A3A3A3E0FC7405122E691270CEA912
:105870001012458F7402122B5FE9703C85128285ED
:105880001383A3A3A3A3A3A3A3A3A3A31229A185C3
:105890001282851383A3A3A3A3A3A3A3A3A3E0FCC2
:1058A0007403122E691270CEA90F12458F74021262
:1058B0002B5FE97003025797E50F2510C333240AC5
:1058C000FA7B001240258A0A8B0BEA450B70030213
:1058D00057758A828B8374D2126CB48A828B83A3AD
:1058E000A3E8F0A3E912798DA3E510127B1BE50F65
:1058F000F0E510603CEA2405FAE4350BFBE50A24E8
:105900000AF8E4350BF98A828B831262447403121D
:105910002E69125A68122B99AC10EC2CFCE433FD62
:105920008A828B831270CE1240017403122B5F8027
:105930000D8A828B83A3A3A3A3A3E4F0A3F0E50FB6
:10594000700302574EA81012538EE50A28F8E50B93
:1059500039F9E8240AFAE439FB850A82850B83A326
:10596000A3A3A3A3A3A3A3125CCB7401122E691259
:105970005A68122B99AC0FEC2CFCE433FD12400159
:105980007403122B5F025760851882851983E060CB
:1059900027126884122BA17508B9750918780812A6
:1059A0002B9D7403122E6912688D122BA19017F093
:1059B0001229A17508008029EEFAEFFB123479E96B
:1059C000702F126884122BA17508B9750918780810
:1059D000122B9D7508007808122BA19017F0122940
:1059E000A17808122BA1125A251246C77407122B50
:1059F0005F7403122E69126AA5600B7403122E697C
:105A00001270CE1240CD7401122E69126AA5600B7D
:105A10007401122E691270CE1240CD7405122B5FE4
:105A20007F1002285BE5162402FCE43517FDE5161D
:105A300012649E3517F583E0F97A067B8022EA121C
:105A4000666B22125A4722E0F8A3E0F5838882228F
:105A5000126A8EAA0AAB0B22850A82850B83E0F8B4
:105A6000A385820A85830B22E0F50CA3E0F50D7572
:105A70000E00780C2274F112259274F4122C138A01
:105A8000088B09ECFEEDFF740B122E697403F01203
:105A90002BEB1241DB1233D78A0A8B0BAC0AAD0B0E
:105AA0007403122BEB1241D5E9600A125C476010B7
:105AB000E06401600B8518828519837484025BF5AC
:105AC0008E828F83A3A3A3A3A3A3A3A3E06013F455
