:020000040000FA
:10000000021F3F022003FFFFFFFFFF02200BFFFF45
:10001000FFFFFF022013FFFFFFFFFF02201BFFFF78
:10002000FFFFFF022023FFFFFFFFFF02202BFFFF48
:10003000FFFFFF022033FFFFFFFFFF02203BFFFF18
:10004000FFFFFF022043FFFFFFFFFF02204BFFFFE8
:10005000FFFFFF022053FFFFFFFFFF02205BFFFFB8
:10006000FFFFFF022063FFFFFFFFFF02206BFFFF88
:10007000FFFFFF022073FFFFFFFFFF02207BFFFF58
:10008000FFFFFF022083FFFFFFFFFF02208BFFFF28
:10009000FFFF70DFFFFF040000000002000000C847
:1000A000030002030369A5020269A532730000017F
:1000B00000000000000400FFFFFFFFFFFFFFFF0440
:1000C00003090424035400650078006100730020D4
:1000D0000049006E0073007400720075006D0065C9
:1000E000006E007400730024035400490020004394
:1000F000004300320035003300310020005500532A
:10010000004200200043004400430000035F005F02
:100110000030005800000000000000000000000057
:1001200000000000000000000000000000000000CF
:100130000000000000303132333435363738394171
:100140004243444546331C881C881C881C881C90EC
:100150001C74F8121BCD900391E06015900302749B
:10016000FEF0900304744DF0A37405F07A011207B9
:100170001C7F01021D6C74F8121BCD74FF121EB699
:100180007E00801F851882851983E064FE700690CA
:1001900003877401F0851882851983E0F890038441
:1001A000E068F07901AA18AB191210E9E9700302AE
:1001B0000287851882851983E064EF70027E07E06C
:1001C000C0E0900387E0FA900385E0F8EA28F8E4BD
:1001D0003400F9740228F582740339F583D0E0F015
:1001E000900387E0609E14600E14602B14603B1433
:1001F0006051146067809E900384E4F085188285C6
:100200001983E0900386F0C394809003874003E451
:1002100080827402020194851882851983E090031C
:1002200082F09003877403020194851882851983F4
:10023000E0900383F0900386E060199003877404D4
:10024000020194900385E004F0F8900386E0686072
:10025000030201959003877405020194900385E4DD
:10026000F0900387F0900384E0F885188285198365
:10027000E0686003020195900382E0644D60030230
:1002800001951203BF8002EEF97401121E370201BC
:100290007174F7121BCD74FB121EB6EAFEEBFF75EC
:1002A00008047509007808121ED07402121F377AEC
:1002B000907B0079041218EB7402121E3712070E9D
:1002C000121F88E0687003A3E069701285188285A8
:1002D0001983E0F47003A3E0F4600302039A74044A
:1002E000121F2F1207708A088B09A808A909740227
:1002F000121F88E8F0A3E9F07404121F88E0600878
:1003000079011201510203B3851882851983E068CF
:100310007003A3E0697076851882851983E0F47014
:1003200003A3E0F470197402121F887410F0A37410
:1003300020F08518828519837410F0A37420F0755D
:1003400008017509007808121ED07402121F377A4E
:10035000247B0812196F7402121E3775080478087E
:10036000121ED07402121F377A907B007904121883
:10037000EB7402121E3712070E121F88E06870031A
:10038000A3E069700479028006790480027903127F
:1003900001518E828F83741E80058E828F83E4F0DC
:1003A00012070E121F88E0687003A3E069700479D9
:1003B00001800279007405121E377F02021D6C74E1
:1003C000ED121BCD74F8121EB6900307E0FD9003EA
:1003D00006E0FCFAEDF8E4C8F9EA28FEE93408FF83
:1003E000751001750B00750A068E088F0974027866
:1003F00008121F1CC39508F8E49509F9740228F542
:100400000E740339F50F8E088F0974097808121FCE
:100410004EE508F511EE2410F508E43FF509EEF578
:100420000CEF5401F50D900383E014605914700330
:100430000204FB14700302057614601024FE70039E
:100440000206311470030206E10206F1750A03790F
:100450004E1213BD9003071207047402F0A37440F8
:100460001207027408120702F0A3F07418C394076D
:1004700004F510AA10A90B12071CA90A7408121E71
:10048000377F0C021D6C750A04794E1213BDEE45C0
:100490000D7005A9111219D5C3EE9425EF940850DB
:1004A0003CC3E5089424E50994084031E50E249600
:1004B000F8E50F3420F988828983E0701BA3AA82B3
:1004C000AB83E070139003887401F0888289837491
:1004D000A5F08A828B838004900388E4F07508106D
:1004E0007509007808121ED07C087D03EEFAEFFB38
:1004F00012196F7402121E37020473750A05E51192
:10050000C394794006750B0102047375124075138C
:10051000007812121ED07C097D037402780C121F21
:100520001CAA0CAB0DA9111218EB7402121E379005
:100530000307E0A3F0900306E0A3F0751043C3EEB9
:100540009425EF94084003020473C3E5089424E55E
:100550000994085003020473900388E070030204B6
:1005600073E50E2497F8E50F3420F988828983E437
:10057000F0A3F00204737508047509007808121ED0
:10058000D07402121F377A907B0079041218EB7432
:1005900002121E377402121F88E0F8A3E0F98518D2
:1005A00082851983E0687003A3E069851882851944
:1005B00083700BE0F47003A3E0F470578009E0F45B
:1005C0007003A3E0F4700D8518828519837410F010
:1005D000A37420F012070E121F88E8F0A3E9F0754B
:1005E00008017808121ED07402121F377A247B0883
:1005F00012196F7402121E377508047808121ED083
:100600007402121F377A907B0079041218EB74027F
:10061000121E3712070E121F88E0687003A3E069EC
:100620007006750A01020473750A02750B0702044D
:10063000739003D6E0600764026003020473EDFF69
:100640007A01790012071CE060030206D5800312CC
:10065000118512116CE970F77404121F881206F6E6
:100660007404121F887808121F6C85080C85090D08
:10067000850A0E850B0F9003C2780C121EF67404C7
:10068000121F88780C121F5DE5084509450A450BC5
:1006900070CE8EC2E5C554E04FF5C57404121F88B4
:1006A0001206F67404121F887808121F6C85080C55
:1006B00085090D850A0E850B0F9003C2780C121E5A
:1006C000F67404121F88780C121F5DE50845094571
:1006D0000A450B70CE7A01790012071C79080204D2
:1006E0007CEC900391F07003020473750A09020414
:1006F00073790602047CE4F0A37426F0A3E4F0A36B
:10070000F022F0A3E4F0A3F0A3F0A3F0A322851855
:1007100082851983E0F8A3E0F974022274F8121BB1
:10072000CDEAFE900305E0D2E7F0E9A3F0EE9003F6
:1007300003F08E0874042AFE7C028004E062080C38
:10074000ECFA3395E0FB74022AF58274033BF583DF
:10075000EEF8C3EA98EB9400A2D265D03340DDE511
:1007600008F074012AF97A027B0312112702017141
:1007700074E9121BCD7582007583FE121E198A164C
:100780008B177514007515008A828B83E4F0900333
:10079000D6E07006D2AAD2AF800464027005790058
:1007A000120151750C00750D20750E00750F00902B
:1007B00003D6E0600464027015121185120176E917
:1007C000F874096860030208AC7900120151E06412
:1007D000027007A29240030208877508007509029B
:1007E0007808121ED07402121F37850C08850D0977
:1007F000AA08E5095407FB850E0A850F0B740B78D0
:1008000008121E87A9081218EB7402121E377E0008
:100810007F009003CAC0828E10EFF5113395E0F58A
:1008200012F513850C08850D09850E0A850F0B78C6
:10083000087910121F099003C67808121EF67583F6
:1008400003D0827808121DFA501D851882851983FD
:10085000E5822EF582E5833FF583E0F9AA14AB1516
:100860001208DB8A148B150EEE70010FC3EF940291
:1008700040A09003CE780C121EF69003D2780C1292
:100880001DFA40030207AF7900AA14AB151208DB6A
:1008900079001208DB8B159003D6E07004C2AFC25A
:1008A000AAEA451570277AA57BA58021E870030286
:1008B00007CE74066870030207CE740768700302DF
:1008C00007CE8516828517837401F080BA75820081
:1008D000758302121E197F10021D6CC008C0097CAE
:1008E000088A088B09740F7808121F4EE508F8EA89
:1008F00025E0FAEB33FBE9A2E7500474014AFAE879
:10090000A2E0500874216AFA74106BFBE9C333F952
:100910001CEC70CDD009D00822C082C083120F33E6
:1009200060030209F0A3E0F8A3E060030209F0A36A
:10093000E064027002A3E060030209F09003B8E0F3
:100940002480600914604F14605C0209F0E86003C1
:100950000209F09003B2E060047801800278009010
:1009600003C0E8F0A3E4F09003B1E0600A9003C094
:10097000E04402F0A3E4F09003A6E0640460149065
:1009800003B374C0F0A37403F0A3E4F0A3740212E1
:100990000F95F0020E6E90039FE064047052900376
:1009A000C0E4F0A380D0E8547FFA90039FE0640491
:1009B000703EEAC394065038749F2AF582E43403EB
:1009C000F583E854806018A3A3A3A3A3A3A3E064C2
:1009D0000370047801800278009003C0E88094E5F9
:1009E00082240CF58250020583E0640370E980E301
:1009F0009003A67404809B74F8121BCDE9FE90034B
:100A0000BE120F366003020AD990039FE0640460AF
:100A10000B9003BC120F366003020AD99003B8E0B2
:100A2000541F6009146030146020020AD99003BA80
:100A3000E064017022EE9003B1F060047905800259
:100A400079067A00121BCB020ADF9003BCE0547FC8
:100A5000FA9003BAE060057900020AE1EAC394065D
:100A60005077EA90620EF0749F2AF8E43403F9900C
:100A700003BCE05480602EEE600474108002744069
:100A8000906211F0EE60047B0380027B00EB8882B1
:100A90008983A3A3A3A3A3A3A3F0EE600479088092
:100AA0002F7907802BEE60047B2080027B80EB9007
:100AB0006214F0EE60047B0380027B00E8240CF5F6
:100AC00082E439F583EBF0EE6004790A800279095B
:100AD000121BCB90620EE480059003A67404F0799B
:100AE000017F01021D6C79001209F7E97003121BE6
:100AF000BA2279011209F7E97003121BC922C082D8
:100B0000C0839003BC120F367015A3120F36700FFE
:100B10009003BA120CD95480FAE9FBEA4B600790B3
:100B200003A67404801AE8906200F090039F6009A5
:100B3000E06402700C74038007E0640370037402C5
:100B4000F0020E6E74F5121BCD9003BAE0FAA3E02A
:100B50001460081460101460398057121754120C76
:100B6000B6A37B8080417900121776120CB67B8089
:100B7000E92402F9E43AFA121E6DFC1919E0FAA30D
:100B8000E92403F9E43AFA121E6DF9ECA3F0A3E9A3
:100B9000801CEAF91217E49003B3EAF0A3EBF0A388
:100BA000E4120CC5A37B00121E6DA3F0A3E4F002B7
:100BB0000C709003B3E4F0A3F0A3F0750B00900465
:100BC0007DE0FAA3E0FB020C4E850B08750900746A
:100BD000037808121F1CEA2508F8EB3509F9900381
:100BE000BA120CCFE493C0E0EFFCD0E06C705DA3D0
:100BF000E4936E70579003BC120CCFA3A3E493C090
:100C0000E0EFFCD0E06C704488828983A3A3A3E466
:100C1000936E703888828983A3A3A3A3E493F50815
:100C2000740193F5099003B3E508F0A3E509F0A377
:100C30007480F088828983A3A3A3A3A3A3E493F879
:100C4000740193F99003B6E8F0A3E9F0050B900462
:100C50007F120CD9C39AF508E99BF509740378084B
:100C6000121F4EC3E50B9508E495095003020BC90A
:100C70009003B3E0FCA3E0FDA3E0FEEC4D4E900337
:100C8000A6700474048029E0640460259003BEE02B
:100C9000FAA3E0FB9003B6E0F8A3E0F9C3EA98EB0F
:100CA0009950089003B6EAF0A3EBF09003A6740104
:100CB000F07F04021D6C9003B3EAF0A3EBF0A37481
:100CC00080120CC522F09003B3E0F9A3E0FA22E011
:100CD000FEA3E0FF8882898322E0F8A3E0F9E822FE
:100CE00074EE121BCDEA2404F8E43BF98808890964
:100CF0008882F583E4936025900481120CD9FEE983
:100D0000FF8007EE2404FE50010F8E828F83E49350
:100D1000F8740193F9EA687002EB6970E6750B00EC
:100D2000803F9062147490F07410120E3570037549
:100D30000A408E828F83A3A3A3E493550E6006E539
:100D40000AD2E0F50AE50A906215F0EA906213F023
:100D5000EC240CF582E43DF583E4F090620EF0059E
:100D60000B850882850983E493F8E50BC39840035B
:100D7000020E307A0079051216E78A0C8B0DEA45CF
:100D80000D60DCEA2402F8E4350DF9881089118839
:100D900082F583E493540FF51290620EF0750A0009
:100DA0008A828B83A3A3A3A3E4932407F50EA3E471
:100DB000933400F50F7403780E121F4EAA0EA8127A
:100DC000749F28F8E43403F9E8FCE9FD750E017519
:100DD0000F00E512780E121F1CE50EF50EE50C242F
:100DE00003F8E4350DF9851082851183E493A2E7B9
:100DF0004003020D229062117448F07408120E35FF
:100E00007003750A408E828F83A3A3E493550E600E
:100E100006E50AD2E0F50AE50A906212F0EA90626D
:100E200010F08C828D83A3A3A3A3A3A3A3020D59C7
:100E30007F0B021D6CF088828983E4935403640164
:100E400022C082C083120F337010A3120F36700AB3
:100E5000A3E064017002A3E060079003A67404801D
:100E60000C9003B374A0F0A37403120F8BF0D08323
:100E7000D0822274F3121BCD90039FE064026014B1
:100E80009003BC120F36700CA3120F36700690033D
:100E9000BBE060099003A67404F0020F2E7A00797B
:100EA00001121BCB9003BAE0606F7A00F91217763B
:100EB0008A0A8B0BEA450B605890039F7404F090EC
:100EC00003BAE09003A0F0750800850A82850B83C1
:100ED000A3A3A3A3E493F8E508C398504AA8087411
:100EE000A128F8E43403F9E8FEE9FF8E828F83E459
:100EF000F07A0079041216E78A828B83A3A3A3E415
:100F000093F88E828F83E06870E7120CE00508800A
:100F1000B99003A67404F0800E9003A0F090039F94
:100F20007403F0F91216677A007902121BCB7F0660
:100F3000021D6C9003BAE0F8A3E0F9E8492274F6C8
:100F4000121BCD90039FE0640470199003B8E06415
:100F5000817011120F33700C9003BEE064017002B7
:100F6000A3E060079003A67404801A9003BCE024F9
:100F7000A1F508A3E03403F5099003B3E508F0A355
:100F8000E509120F8BF07F03021D6CF0A3E4F0A3C0
:100F900004120F9522F0A3E4F09003A6042274F744
:100FA000121BCD90039FE0640470649003B8E0646A
:100FB00001705C9003BE120F3670549003BAE0FBD0
:100FC0009003BCE0FA9003A0E0F91217AE8A088BF8
:100FD00009AE08AF09EE4F60369003BCE0FA790322
:100FE000121BCB9003BAE0C0E09003BCE024A1F850
:100FF000A3E03403F988828983D0E0F0EEFAEFFBB6
:10100000120CE09003BCE0FA7904121BCB8006902E
:1010100003A67404F07F02021D6CC082C0838003AB
:10102000121A31A2E840F9A823E854046009782391
:10103000E654FBF612140EA823E854106009782336
:10104000E654EFF612142FA823E8A2E05005782307
:1010500054FCF690620EE0FA7404F0906214E0A280
:10106000E05039A9A8C2AF906216E0F8A3E0E8FB0F
:10107000E9A2E792AF8017906228E0C0E090039366
:10108000E0F812111CD0E0F0900393E004F0EBFDC7
:1010900074FF2DFB0470E0906214E4F0EA90620E9D
:1010A000F0E0FC7404F0906211E0A2E040319003A3
:1010B00095E0F8900394E06860257A4090039412DC
:1010C000115FE0906228F0900394E004F008900330
:1010D00095E06860041AEA70E39062117401F0EC24
:1010E00090620EF0D083D0822274F8121BCDE9FEFC
:1010F0007900801212111CE08A828B83F090039297
:10110000E00412115409900392E0F8900393E06810
:101110006005E9C39E40DD7F01021D6C748528F5E2
:1011200082E43404F58322C082C083E9FC80188AFB
:10113000828B83E0C0E090039512115FD0E0121122
:1011400054900395E004F0ECF874FF28FC0470DF81
:1011500079018090F08A828B83A3AA82AB8322E0FC
:10116000F8748528F582E43405F58322C082C083B3
:10117000900395E0F8900394E068600479018002A0
:1011800079000210E402101A74FB121EB67E009061
:1011900006857808121F6C794A1213BD9006857473
:1011A00001F0A3F0A37469F0A374A5F09003D778BD
:1011B00008121EE170047E0180159003DB7808128E
:1011C0001EE16008E59D541864107003022000EED3
:1011D000F9121334C280D291EEA2E050030212E75A
:1011E000AA18AB19120291E970030212E7C29185A5
:1011F0001882851983E0C3943C500EE0F8743CC318
:1012000098F50895E0F5098006750800750900E471
:10121000F50AF50B9003DF780C121F6C7808790C37
:10122000121AD1790612015112101A120176E9F838
:101230007409687007790612015180277407686085
:1012400016A2935012E8600874066860030212E761
:10125000A292400F0212E7750800750900750A0096
:10126000750B0085080C85090D850A0E850B0F90FE
:1012700003C27808121EF6E50C450D450E450F70A9
:10128000A7D2807907120151800312101A12116C33
:10129000E970F77E007F007401121F88E4F0A374E8
:1012A00026F0A3E4F0A3F07401121F887808121F3F
:1012B0006C85080C85090D850A0E850B0F9003C2FD
:1012C000780C121EF67401121F88780C121F5DE54F
:1012D000084509450A450B70CEA29250FCA29350D6
:1012E000F81213B8022000D280D291794E1213BDA9
:1012F000750800750900750A00750B007905120163
:101300005112101A120176E9F874096860EE74013E
:101310006870EE12101A9003E37808121EF690031C
:10132000E77808121DFA50EB1213B802200074057A
:10133000121E372274F8121BCDE9FE53BEFBE59D49
:10134000A2E650FA0078F8790100E824FF18E934A1
:10135000FFF9E84970F375C6807480659E70FA43A2
:10136000BE049062707408F01213ADEE700853F46E
:10137000FEC29043FE017403F5D575D4899003969F
:10138000E4F0A374C2F0A37401F0A3E4F0A3F0A30B
:10139000F0A37408F01213D37AFF7BFF1219EC53F9
:1013A000F4FED29043FE011213AD021117D2804316
:1013B000FD01C29143FE0222D280C29122781075B3
:1013C000B60FE5B4A2E750FAE5BBC39940F118E8BF
:1013D00070ED2274F7121BCD7A0079011217768A0C
:1013E000828B83A3A3A3A3A3A3A3E493A2E6900366
:1013F000B2500474018001E4F09003B1E4F0906213
:101400000F7403F0E0A2E750FB7F02021D6CC08264
:10141000C08390039F7402F0A3E4F09003A6F079D8
:1014200003121667752100752200D083D0822274C2
:10143000F6121BCD90620EE0FEE4F0906211E0FF28
:10144000A2E4501D7480F09003A67407F0E52145D6
:10145000226009852182852283121F979003A6E4CA
:10146000F0EFA2E2500B906211E4F09003A6F0803E
:10147000679003A6E0F87402687046906216E0FF79
:101480009003B3121DACEFF97A207B6212168174BF
:1014900003121E37EFF89003B612164512164F2F9F
:1014A000121657A3E0F8A3E0F9E8496004744080FD
:1014B000027448906211F0E849600302163B02167C
:1014C000177406687009852182852283121F979000
:1014D00003A6E060030215C2EFA2E0400302163B40
:1014E0007508B8750903750A007808121ECC7908CA
:1014F0007A207B621216817403121E3775210075E3
:1015000022009003B8E054E0601D24E0700302154F
:101510009D24E0607224C0604824E070030215A896
:1015200024E0606E0215B3A3E014602624FE601D63
:1015300024FE600A24FC601F24FE60208075120ACD
:10154000FE9003A6E06404707278608070120AF264
:1015500080EF120AE680EA120E7380E5120F9E8079
:10156000E0A3E0600E24FA600F24FE601024FE6009
:1015700011804012091980C9120B4480C4120E4117
:1015800080BF120F3E80BA7521B675221B121BB6A2
:1015900080AF7521B875221B121BB880A47521512C
:1015A00075221B121B51809975218175221B121BFC
:1015B00081808E9003A67404F0808E7840E890625B
:1015C00011F09003A6E0F874016870617F02900347
:1015D000B6E0F8A3E0F9C3E89420E994005007E8E6
:1015E000F5087F0A80037508209003B3121DACA98B
:1015F000087A207B621216AC7403121E37AC0812F4
:10160000164F2C121657A808A3121645EF90621118
:10161000F0E8C394205024E5214522600985218209
:10162000852283121F979003A6E4F0800E7405684C
:101630007009852182852283121F97EE90620EF039
:101640007F03021D6CC3E098F0A3E09400F02290A9
:1016500003B31216D9E922F9E43AFA9003B3E9F098
:10166000A3EAF0A3EBF022C082C083E99003A7783D
:1016700005F0A3D8FC9003AC7805F0A3D8FC0214C5
:101680002A74F8121BCDEAFCEBFDE9F87408121F6E
:10169000881216D460118C828D83E0121EA0E9247A
:1016A0000109E43AFAD8EF7F01021D6C74F8121BAD
:1016B000CDEAFCEBFDE9F87408121F881216D4601D
:1016C00011121E6D8C828D83F0E9240109E43AFA2F
:1016D000D8EF80D31216D9E822E0F9A3E0FAA3E00C
:1016E000FB22D083D08222C082C083E9FCEAFD7A4B
:1016F000007B00800312173290039DE0F8A3E0F90D
:1017000090047BE0687003A3E069602490039EE08E
:10171000F5838882A3E493F8EC68700D90039DE054
:10172000FAA3E0FB1217328007ED6870C8ED60C5C0
:1017300080B090039DE0F8A3E0F5838882E493F8FD
:1017400090039DE028F8A3E03400F990039DE8F0B1
:10175000A3E9F022C082C0831217657A00790112D2
:1017600016E70216E2900479E0F8A3E0F990039DF1
:10177000E8F0A3E9F02274F7121BCDE9FFEAFE12AC
:1017800017657A0079021216E7EA4B601CEF6010C9
:101790008A828B83A3A3A3A3A3E4936F70E480093D
:1017A000EEF874FF28FE0470D97F02021D6C74F5F8
:1017B000121BCDEAFF8B087A001217767A027904A1
:1017C0001216E7EA4B60188A828B83A3A3E4936F17
:1017D00070EA8A828B83A3A3A3E493650870DD7FFC
:1017E00004021D6C74F7121BCD74F0121EB6E97A58
:1017F000007B00600C146010146014146018021850
:10180000D47AF37B030218D47AF77B030218D47AD4
:101810001B7B040218D490043FE060030218D090B0
:1018200003EB7408121F377408121DD9750808F5E8
:10183000097808121ED07402121F377AE87B0779E4
:101840007F1218EB7402121E377808121ED0740A29
:10185000121F377402121F2F121C907402121E37AF
:101860008B09EA450970197509007808121ED07CA9
:101870000C7D787402121F2F121D267402121E375F
:101880007C287D00EDF8851882851983E58228F58E
:1018900082E43583F583E0FFECF8743F28F8E43404
:1018A00004F9EF1218DC88828983F0EFC41218DC87
:1018B000C0E0E824FEF582E934FFF583D0E0F00DC6
:1018C00074FC2CFCEDC3940840BA90043F742AF0D9
:1018D0007A3F7B047410121E370217A9540FFA7452
:1018E000692AF582E43404F583E02274F6121BCDF4
:1018F000890A740F550AF508750900740B780812E7
:101900001F1CEA2400F8EB3480F9E82400E93509CB
:10191000F985C709A2AFE433F508C2AFE50AC4549C
:101920000FFAE5C754F84AF5C7740A121F88E0FA9F
:10193000A3E0FB801C88828983E08C828D83F08801
:10194000828983A3A882A9838C828D83A3AC82AD74
:1019500083EAFEEBFFEE24FF1AEF34FFFBEE4F703D
:10196000D48509C7E508A2E092AF7F03021D6C741D
:10197000F7121BCDED900389F0ECA3F0A37462F095
:10198000A37473F0A3E0541FF07409121F88E0F5EC
:1019900008A3E0F509E508333354FC90038EF07496
:1019A000067808121F4EE50890038DF090038F749F
:1019B00012F0A37442F075D1FE75D601EA906271FF
:1019C000F0EBA3F0906270E0D2E1F0E0A2E740FB20
:1019D0007F02021D6CC082C083E9C333906272F043
:1019E000906270E0D2E0F0D083D0822274F7121BB4
:1019F000CD7523007524007525008A268B27EA9073
:101A0000620BF08A088B0974047808121F4EE508EF
:101A1000906207F08A088B0974097808121F4EE556
:101A200008543E906209F0758B00C2E87F02021DE7
:101A30006C74F7121BCDE59DA2E650FA906206E0A9
:101A4000F9A2E25034AA26EA90620BF0F508852745
:101A50000974047808121F4EE508906207F08A089E
:101A600085270974097808121F4EE508543E9062D4
:101A700009F0906201E0D2E0F0E9782346F6906246
:101A800002E0F50875090074047808121F1C782319
:101A9000E50846F608E50946F6906204E0F50875A3
:101AA000090074097808121F1C7824E50946F6E934
:101AB000A2E050037525017406596003752500E501
:101AC0008BA2E55006758BDF752500121BCC021A20
:101AD00027080808EAC0E0EBC0E086F0E7A4FA189F
:101AE0000986F0E7A42AFA180986F0E7A42AFA186A
:101AF0000986F0E7A42AFA1986F0E7A4FBE5F02AA4
:101B0000FA190886F0E7A42BFBE5F03AFA190886E3
:101B1000F0E7A42BFBE5F03AFA18180986F0E7A4E1
:101B2000C5F02BFBE43AFA1908E7C5F0C6A426F67F
:101B3000E5F03BFBE43AFA1886F0E7A4F6E5F00896
:101B400026F6E43B08F6E43A08F6D0E0FBD0E0FAEB
:101B500022C082C0839003B9E0F8742268700890B4
:101B600003A6E0701A80117420689003A6700DE03F
:101B7000700D121BA89003A6740280027404F080FA
:101B800043C082C0839003B9E064219003A6701320
:101B9000E07013121BA8A37407F0A3E4F09003A64F
:101BA0000480027404F0801C9003B37496F0A37454
:101BB00003F0A3E4F02280028000C082C08390037F
:101BC000A67404F0D083D0822280EF22222518C58B
:101BD00082C0E0E51934FFC583C0E0E518C39582F3
:101BE00024F910AF08858319858218800885831928
:101BF000858218D2AFCEF0A3E520F0A37808E608DE
:101C0000F0A3DEFAEFF0A3E58124FBF8E608F0A3E9
:101C1000E608F0A30808E608F0A3E608F0A315819B
:101C20001581D0E0FED0E0F815811581E8C0E0EE26
:101C3000C0E02212010002020000205104A816098F
:101C40000001020301090243000201008019090496
:101C50000000010202010005240010010424020218
:101C60000524060001052401000107058203400048
:101C70004009040100020A00000007058402400038
:101C800000070504024000004E1C0000711C00000B
:101C900074F8121BCD7408121F88E0FEA3E08015B3
:101CA000A3AA82AB838C828D83A3AC82AD83EE2406
:101CB000FF1EEF34FFFFEE4F60198C828D83E0F83A
:101CC0008A828B83E0F9E86960D6E9C398FA95E0E7
:101CD000FB80047A007B007F01021D6CE47921788F
:101CE00007B800028004F709D8FCE490030278C129
:101CF00079018002F0A3D8FCD9FA7AC27B03900064
:101D00008E78C479018015E493A3AD82AE838A8274
:101D10008B83F0A3AA82AB838D828E83D8E9D9E727
:101D2000121188121F9274F7121BCDEAF8EBF974A6
:101D300009121F88E0FEA3E0FF80188C828D83E0EB
:101D400088828983F0A3A882A9838C828D83A3AC27
:101D500082AD838E088F09E50824FF1EE50934FF54
:101D6000FFE508450970D47F02021D6C8519838543
:101D70001882E0A3FEE0A3F5207808E0A3F608DFD0
:101D8000FAE0A3FFE0A3C0E0E0A3C0E0E0A3C0E06E
:101D9000E0A3C0E010AF088582188583198008850C
:101DA0008218858319D2AFD083D082227403800039
:101DB000CCC0E0EDC0E0E518C39CCCAD1950011DCE
:101DC00010AF068C188D1980068C188D19D2AF12A1
:101DD0001DD9D0E0FDD0E0FC22CAC0E0E0A3C5825E
:101DE000CCC582C583CDC583F0A3C582CCC582C5D1
:101DF00083CDC583DAE6D0E0CA22C008C3E096F5F9
:101E00000808A3E096420808A3E096420808A3E069
:101E10009645087001D3D00822C5822518C582C511
:101E200083351910AF07F5198582188007F51985D4
:101E30008218D2AFC5832200C0D0251810AF08F594
:101E400018500C05198008F51850020519D2AFD0AA
:101E5000D0222518F58210AF08F518400C1519800E
:101E600008F51840021519D2AF85198322BB01026B
:101E7000E722C082C08389828A83BB0003E080029C
:101E8000E493D083D082226016080808C6C313C624
:101E900018C613C618C613C618C613C6D5E0EA225C
:101EA000BB000EC082C0838A838982F0D083D08237
:101EB00022BB0101F722251810AF08F518400C15B8
:101EC000198008F51840021519D2AF227403800456
:101ED00074028000C0E0F404121E52D0E0121F7B96
:101EE00022E066701008A3E066700A08A3E066703E
:101EF0000408A3E06622E026F608A3E036F608A36D
:101F0000E036F608A3E036F622E627F60809E637BB
:101F1000F60809E637F60809E637F622700422606B
:101F20000D18C6C333C608C633C6D5E0F41822253B
:101F300018FAE43519FB222518FCE43519FD227541
:101F4000D00075813F751802751903021CDC600C06
:101F500008C6C313C618C613C6D5E0F422E6F008B7
:101F6000A3E6F008A3E6F008A3E6F022E0F608A353
:101F7000E0F608A3E0F608A3E0F622CAC0E0E6F027
:101F8000A308DAFAD0E0FA222518F582E43519F52B
:101F9000832200000080FBE473FFFFFFFFFFFFFFD1
:101FA000FFFFFFFFFFFFFFFFFFFFFFFFFFFFFFFF41
:101FB000FFFFFFFFFFFFFFFFFFFFFFFFFFFFFFFF31
:101FC000FFFFFFFFFFFFFFFFFFFFFFFFFFFFFFFF21
:101FD000FFFFFFFFFFFFFFFFFFFFFFFFFFFFFFFF11
:101FE000FFFFFFFFFFFFFFFFFFFFFFFFFFFFFFFF01
:0A1FF600850609433886000000004C
:020000040003F7
:01FFF000F020
:020000040000FA
:10200000022DB8022230FFFFFFFFFFFFFFFFFFFF9F
:10201000FFFFFFFFFFFFFFFFFFFFFFFFFFFFFFFFD0
:10202000FFFFFFFFFFFFFFFFFFFFFF022A50FFFF41
:10203000FFFFFF022252FFFFFFFFFFFFFFFFFFFF37
:10204000FFFFFFFFFFFFFFFFFFFFFFFFFFFFFFFFA0
:10205000FFFFFF02216AFFFFFFFFFFFFFFFFFFFF00
:10206000FFFFFFFFFFFFFFFFFFFFFF022A79FFFFD8
:10207000FFFFFFFFFFFFFFFFFFFFFF0228A1FFFFA2
:10208000FFFFFF0221C101FFFFFFFFFFFFFFFFFF77
:1020900010201020010105030101FF0F10FEFFF8C1
:1020A0004B000000002E4B00000000FF000000FF6E
:1020B00000010020FD00020000CB3D000000006593
:1020C0003D4F3E9B3D0D3E00008F3D000000000057
:1020D0000000000000000000000000000000000000
:1020E00000000006FFFFFF00035F005F00300058A4
:1020F00000000000000000000000000000000000E0
:1021000000000000000000000000000000000000CF
:1021100000C22617271727172717271F2701010493
:10212000002418000000E8030000FFFFF118E80396
:10213000000064006400B801A0BB0D00A0BB0D004E
:1021400002020008000005020701051E02051E022A
:102150000A0A01080803B80B02803E0102FEFFE8EC
:10216000030A050001FFFF0A01E0C0E074F2122635
:1021700063A2AFE433F508D2AFAFA7AEA1EE5F54D0
:10218000106006123AE975A1EFEE5F54086008127C
:10219000492375A1F78023EEA2E092F0EFA2E0823E
:1021A000F05017906198E0F8900775E0C398A2D2BC
:1021B00065D0335002E8F075A1FE751A00E508807D
:1021C00066C0E074F2122663A2AFE433FED2AF9091
:1021D00061A4E0F8759B00E591585408600875917A
:1021E000F7123B378023E59158541060087591EF42
:1021F000123B3D8014E591A2E092F0E8A2E082F06B
:102200005007E0C2E0F0123C939061A3E0F8E5E9EA
:10221000585404600E123C6975E9FB906193E0A28A
:10222000E640F2751A00EEA2E092AF7F0102271F8E
:10223000C0E074F2122663A2AFE433FED2AF906125
:10224000A5E0F8E5BF585404600675BFFB123CAB2F
:1022500080D1C0E074F1122663E59DA2E650FA90A9
:102260006206E0F9A2E25034AA2CEA90620BF0F583
:1022700008852D0974047808122DD7E508906207A7
:10228000F08A08852D0974097808122DD7E50854BD
:102290003E906209F0906201E0D2E0F0E9782946D0
:1022A000F6906202E0F50875090074047808122DB2
:1022B000547829E50846F608E50946F6906204E0F8
:1022C000F50875090074097808122D54782AE50973
:1022D00046F6E9A2E05003752B01740659600375B8
:1022E0002B00E58BA2E55006758BDF752B001241A4
:1022F000D9758B00C2E87F0202271FC3E498F8E477
:1023000099F912233C8026C3E49AFAE49BFBE92066
:10231000E7E912233CE498F8E499F922C3E498F839
:10232000E499F912233CE498F8E499F9C3E49AFAA1
:10233000E49BFB22EB20E7CFE920E7E0B90010BBEC
:102340000008E88AF084F8AAF022E4FBC8FA22EB3D
:1023500070227B10C833C8C933C9335007C39AC32E
:10236000DBF280069A50012ADBEAC833F4C8C9338D
:10237000F4C9FA2275F008E4C833C8C933C933C9AF
:102380009AC99B5004C92AC93BD5F0ECFBC833F469
:10239000C8E4C9FA2274F51225FD74FA122C3F75AF
:1023A00008047509007808122B9D7404122C0B7A0E
:1023B000F87B0779031239C37402122B5F908135C1
:1023C0007808122DC87402122E557808122C5570F8
:1023D000497508027509007808122B9D7402122CA9
:1023E0000B7AF67B0779031239C37402122B5F85CF
:1023F0001882851983E0F47003A3E0F4601C85184B
:1024000082851983E0F8A3E0F9888289837402F059
:10241000A3F0A37469F0A374A5F0C2AF75D69F02B0
:1024200000007406122B5F7F040228E4080808EA03
:10243000C0E0EBC0E086F0E7A4FA180986F0E7A454
:102440002AFA180986F0E7A42AFA180986F0E7A400
:102450002AFA1986F0E7A4FBE5F02AFA190886F0B3
:10246000E7A42BFBE5F03AFA190886F0E7A42BFB6A
:10247000E5F03AFA18180986F0E7A4C5F02BFBE45A
:102480003AFA1908E7C5F0C6A426F6E5F03BFBE4E6
:102490003AFA1886F0E7A4F6E5F00826F6E43B08D9
:1024A000F6E43A08F6D0E0FBD0E0FA22122E4AB960
:1024B000000302250CE47921780DB800028004F7AE
:1024C00009D8FCE49004D178CD79158002F0A3D826
:1024D000FCD9FA781A9020867A01BA00028007E4C3
:1024E00093A3F608DAF97A9D7B1990209478D7792E
:1024F000018015E493A3AD82AE838A828B83F0A31F
:10250000AA82AB838D828E83D8E9D9E775826D75F7
:1025100083F97405122B4175822975834974001261
:102520002B41E4CFC0E0E4CEC0E0E4CDC0E0E4CC99
:10253000C0E075F020E626F608E633F608E633F646
:1025400008E633F6181818EC33FCED33FDEE33FED5
:10255000EF33FFC3EC9709ED9709EE9709EF971951
:102560001919400FFFEC97FC09ED97FD09EE97FE56
:10257000191906D5F0BFECF709EDF709EEF709EFE9
:10258000F7191919D0E0FCD0E0FDD0E0FED0E0FF53
:10259000222518C582C0E0E51934FFC583C0E0E5F7
:1025A00018C3958224F810AF088583198582188096
:1025B00008858319858218D2AFCEF0A3E520F0A359
:1025C0007808E608F0A3DEFAEFF0A3E58124FAF834
:1025D000E608F0A3E608F0A3E608F0A30808E6087A
:1025E000F0A3E608F0A315811581D0E0FED0E0F855
:1025F000158115811581E8C0E0EEC0E0222518C5DF
:1026000082C0E0E51934FFC583C0E0E518C39582B8
:1026100024F910AF088583198582188008858319ED
:10262000858218D2AFCEF0A3E520F0A37808E608A3
:10263000F0A3DEFAEFF0A3E58124FBF8E608F0A3AF
:10264000E608F0A30808E608F0A3E608F0A3158161
:102650001581D0E0FED0E0F815811581E8C0E0EEEC
:10266000C0E022C0D02518C582C0E0E51934FFC5FE
:1026700083C0E0E518C3958224F310AF0885831961
:102680008582188008858319858218D2AFC8F0A387
:10269000E9F0A3EAF0A3EBF0A37908E709F0A3D8E7
:1026A000FAECF0A3EDF0A3EEF0A3EFF0A3D0E0F08E
:1026B000A3D0E0F0A3D0E0F0A3E520F0A3E5F0F094
:1026C000A32212010002020000205104A8160900F2
:1026D00001020301090243000201008019090400FC
:1026E0000001020201000524001001042402020579
:1026F0002406000105240100010705820340004073
:1027000009040100020A00000007058402400000DD
:1027100007050402400000DD2600000027000085B8
:102720001983851882E0C0E0A3E0F9A3E0FAA3E0F2
:10273000FBA37808E0F608A3DFFAE0FCA3E0FDA322
:10274000E0FEA3E0FFA3E0C0E0A3E0C0E0A3E0F56B
:10275000D0A3E0F520A3E0A3F5F010AF088583191E
:102760008582188008858319858218D2AFD082D0DF
:1027700083D0E0F8D0E0320875F0108E218F2285EA
:102780008226858325851882851983E0CEA3E0CF34
:10279000852682852583EBC9EAC8EDCBECCAC3E860
:1027A00033C8E933C9EA33CAEB33CBC3EA9EF52415
:1027B000EB9FF523B35004AB23AA24EC33CCED33C9
:1027C000CDD5F0DAAE21AF2222D083D082ECC0E0AA
:1027D000EDC0E0E493A3FCE493A3FDED4C600D1287
:1027E0002924EC24FFFCED34FFFD80EFE493A3FCEF
:1027F000E493A3FDED4C600D1229FBEC24FFFCEDEE
:1028000034FFFD80EFD0E0FDD0E0FCE493A3C0E016
:10281000E493C0E022D083D082E9C0E0E493A3C374
:1028200086F0C5F095F0F908E493A386F0C5F0951D
:10283000F0700BE493A3C3994005E9048002A3E47C
:1028400075F002A42582F582E5F03583F583D0E0AA
:10285000F9E493A3C0E0E493C0E0228519838518CE
:1028600082E0A3FEE0A3F5207808E0A3F608DFFAF3
:10287000E0A3FFE0A3C0E0E0A3C0E0E0A3C0E0E08D
:10288000A3C0E0E0A3C0E010AF08858218858319DB
:102890008008858218858319D2AFD083D082022B1D
:1028A00047C0E074F2122663A2AFE433FED2AFE574
:1028B0008AA2E25007900736E0D2E0F0E58AA2E370
:1028C0005007900736E0D2E1F0758A00C2EB7A102B
:1028D0007B00900732E0F9123F81EEA2E092AF7FD9
:1028E0000102271F851983851882E0A3FEE0A3F566
:1028F000207808E0A3F608DFFAE0A3FFE0A3C0E039
:10290000E0A3C0E0E0A3C0E0E0A3C0E010AF088512
:1029100082188583198008858218858319D2AFD0E3
:1029200083D08222C0E0C3E4939608740193961882
:10293000400FE49366700808740193661870007085
:1029400019A3A3C3E49396087401939618A3A34014
:102950000DD0E0D0E0D0E0022805A3A3A3A3A3A359
:10296000D0E022D083D082C5F0E493A3C5F0C39514
:10297000F0F5F0E493A3C395F04005E5F004800181
:10298000E475F002A42582F582E5F03583F583E451
:1029900093A3C0E0E493C0E0227404800874038031
:1029A0000474028000CCC0E0EDC0E0E518C39CCC0C
:1029B000AD1950011D10AF068C188D1980068C18AA
:1029C0008D19D2AF122AC3D0E0FDD0E0FC227402F0
:1029D0008000CCC0E0EDC0E0E518C39CCCAD195040
:1029E000011D10AF068C188D1980068C188D19D218
:1029F000AF122AA1D0E0FDD0E0FC22C0E0C0F088F8
:102A0000F0E4936670080874019366187000A8F0EB
:102A1000A3A3700BD0F0D0E0D0E0D0E0022805A353
:102A2000A3D0F0D0E022D083D082CCC0E0E493A346
:102A30006006122B031470FAE493A36006122C298B
:102A40001470FAD0E0FCE493A3C0E0E493C0E02269
:102A5000C0E0C0D0E8C0E0E9C0E0A9A8D2AFC2C7DA
:102A6000751A00E9A2E7E433F8E9A2E792AFD0E0F3
:102A7000F9D0E0F8D0D0D0E032C0E074F212266392
:102A8000758900C2C5901995E0700E7A007B109090
:102A9000080BE0F9123F81800312477F7F01022774
:102AA0001FCAC0E0E493A3C582CCC582C583CDC54F
:102AB00083F0A3C582CCC582C583CDC583DAE5D0BA
:102AC000E0CA22CAC0E0E0A3C582CCC582C583CDDE
:102AD000C583F0A3C582CCC582C583CDC583DAE6A4
:102AE000D0E0CA22C008C3E096F50808A3E09642E9
:102AF0000808A3E096420808A3E09645087001D3B1
:102B0000D00822C0E0E493A3D39C5010E493A3C365
:102B10009C400AD0E0D0E0D0E0022A43A3A3A3D097
:102B2000E0227009080808226016181818C6C33376
:102B3000C608C633C608C633C608C633C6D5E0EADB
:102B400022C09FF59FE473D09F22D083D082C09F84
:102B5000E493C0E0740193C0E0740293F59F2200F7
:102B6000C0D0251810AF08F518500C05198008F5CD
:102B70001850020519D2AFD0D0222518F58210AF17
:102B800008F518400C15198008F51840021519D2DF
:102B9000AF851983227404800A740380067402804E
:102BA000027401C0E0F404122B7AD0E0122DF52259
:102BB000BB0102E722C082C08389828A83BB0003F3
:102BC000E08002E493D083D082226016080808C611
:102BD000C313C618C613C618C613C618C613C6D55F
:102BE000E0EA22C3E0C696F608A3E0C696F608A37C
:102BF000E0C696F608A3E0C696F6222518F8E43556
:102C000019F9222518FAE43519FB222518FCE435B8
:102C100019FD22BB000EC082C0838A838982F0D056
:102C200083D08222BB0101F722C0E0E493A36C7041
:102C300009D0E0D0E0D0E0022A43A3A3D0E02225CF
:102C40001810AF08F518400C15198008F518400247
:102C50001519D2AF22E066701008A3E066700A086A
:102C6000A3E066700408A3E06622C3E09608A3E030
:102C70009608A3E09608A3E096A2D265D03322E797
:102C80006670100809E766700A0809E766700408AC
:102C900009E76622C3E697F60809E697F60809E60B
:102CA00097F60809E697F622C3E096F008A3E096A7
:102CB000F008A3E096F008A3E096F022E627F608D5
:102CC00009E637F60809E637F60809E637F622E09E
:102CD00026F608A3E036F608A3E036F608A3E036A9
:102CE000F622E026F008A3E036F008A3E036F0086C
:102CF000A3E036F022E056F008A3E056F008A3E087
:102D000056F008A3E056F022E056F608A3E056F687
:102D100008A3E056F608A3E056F622E647F60809AF
:102D2000E647F60809E647F60809E647F622E4937F
:102D3000F608740193F608740293F608740393F688
:102D400022E657F60809E657F60809E657F6080995
:102D5000E657F622700422600D18C6C333C608C6B3
:102D600033C6D5E0F41822E4C396F608E496F608D4
:102D7000E496F608E496F622C6F4C608C6F4C60839
:102D8000C6F4C608C6F4C622600D08C6A2E713C67C
:102D900018C613C6D5E0F322C3E7960809E79608DC
:102DA00009E7960809E79622C3E09608A3E096088B
:102DB000A3E09608A3E0962275D00075813F7518B0
:102DC000D1751904000224ACE0F608A3E0F608A3CC
:102DD000E0F608A3E0F622600C08C6C313C618C6C6
:102DE00013C6D5E0F422E6F008A3E6F008A3E6F067
:102DF00008A3E6F022CAC0E0E6F0A308DAFAD0E0C1
:102E0000FA22E0F8A3E0F9A3E0FAA3E0FB22E0FC59
:102E1000A3E0FDA3E0FEA3E0FF22EAF0A3EBF0A312
:102E2000ECF0A3EDF022E0FAA3E0FBA3E0FCA3E0CA
:102E3000FD22ECF0A3EDF0A3EEF0A3EFF022E8F01A
:102E4000A3E9F0A3EAF0A3EBF022E5C754F84401AC
:102E5000F5C77901222518F582E43519F583221288
:102E60002B4A5FA802122B4AE5AB02122B4AF9ABA0
:102E700002122B4A03AC02122B4A0DAC02122B4A4F
:102E800017AC02122B4A21AC02122B4A3AAC0212A6
:102E90002B4A44AC02122B4ABBAC02122B4AC6ACE2
:102EA00002122B4AF5AC02122B4A1DAD02122B4A1C
:102EB00028AD02122B4A8DAD02122B4A97AD021299
:102EC0002B4AA2AD02122B4AC6AD02122B4AEAAD22
:102ED00002122B4A58AE02122B4AA1AE02122B4A02
:102EE000BDAE02122B4A32AF02122B4A7EAF021243
:102EF0002B4AC7AF02122B4A4CB002122B4AF3B036
:102F000002122B4AC4B202122B4A29B302122B4AD4
:102F100057B402122B4A7DB402122B4AC5B50212D5
:102F20002B4AFFB802122B4AFDBA02122B4AC8BC28
:102F300002122B4A61BD02122B4A5FBF02122B4ABA
:102F400014C002122B4A4DC002122B4ABDC00212FD
:102F50002B4AC7C002122B4AF4C202122B4AF7C3F3
:102F600002122B4A34C502122B4A8BC502122B4A7D
:102F700036C602122B4AE6C702122B4A33C9021286
:102F80002B4A53C902122B4AA8C902122B4AA9CABA
:102F900002122B4AD1CA02122B4A30CB02122B4A00
:102FA00028CC02122B4A9FCC02122B4AB2CD02121D
:102FB0002B4A20CE02122B4A1FCF02122B4A75D168
:102FC00002122B4A9ED102122B4A04D302122B4A20
:102FD00086D402122B4ADDD402122B4A90D502125B
:102FE0002B4A2DD602122B4A90D602122B4A4ED7CC
:102FF00002122B4AE0D702122B4A3FD802122B4A68
:1030000081D802122B4AB9D802122B4A0FDA0212C7
:103010002B4A008003122B4A328003122B4A6B800A
:1030200003122B4AB48103122B4AF88103122B4A54
:10303000C88203122B4A208303122B4A36840312C0
:103040002B4A828403122B4AE88603122B4A878973
:1030500003122B4ACA8A03122B4A648B03122B4A8F
:10306000708B03122B4AB08B03122B4AEF8C031286
:103070002B4AE58D03122B4A0F8E03122B4A628EC8
:1030800003122B4ABB8E03122B4A1C8F03122B4AAE
:10309000379103122B4AC89203122B4AAE930312A4
:1030A0002B4AF09403122B4A2C9703122B4AF899BF
:1030B00003122B4A079A03122B4A9B9A03122B4A9C
:1030C0004F9B03122B4A929B03122B4ADB9B03124A
:1030D0002B4A249C03122B4A889C03122B4AF69CF1
:1030E00003122B4A129D03122B4A419D03122B4AB5
:1030F000809D03122B4A739E03122B4A229F0312B8
:103100002B4A9AA103122B4AE7A203122B4ABAA315
:1031100003122B4A3CA403122B4A33A803122B4A56
:1031200062A803122B4ABDA803122B4AF0A803126F
:103130002B4A6CA903122B4ABCA903122B4A5EAB83
:1031400003122B4A82AB03122B4AA6AB03122B4A63
:10315000B3AB03122B4AB6AB03122B4AE5AB0312F7
:103160002B4ABAAD03122B4A79AE03122B4AA5AEF5
:1031700003122B4A5EB003122B4A61B003122B4A92
:10318000D4B003122B4A22B303122B4A81B3031289
:103190002B4AD5B303122B4A06B603122B4A0DB79E
:1031A00003122B4AF4B703122B4A7EB803122B4AA0
:1031B00092B803122B4ABFB803122B4AEFB803127E
:1031C0002B4AA4BB03122B4A16BC03122B4A7BBD0D
:1031D00003122B4A99BD03122B4A8E8101122B4AEE
:1031E000D08101122B4AD88601122B4A2487011262
:1031F0002B4A6A8701122B4A9C8801122B4A0189AB
:1032000001122B4A458901122B4ACB8A01122B4A03
:10321000DA8E01122B4A379001122B4AC79B0112FA
:103220002B4A4A9C01122B4A349F01122B4A99A027
:1032300001122B4AFCA001122B4A1EA201122B4A9A
:103240008AA301122B4A6FA401122B4AE4A6011291
:103250002B4A72A801122B4A03A901122B4A22AA57
:1032600001122B4AAFAA01122B4AB9AA01122B4A0A
:10327000E1AA01122B4A81AB01122B4A6EAC01125A
:103280002B4A36AD01122B4AC3AD01122B4AD9ADE0
:1032900001122B4AF6AD01122B4A1FAE01122B4A26
:1032A0004CAE01122B4AA7B001122B4A82B1011277
:1032B0002B4AC6B101122B4A48B201122B4AE9B27D
:1032C00001122B4A1BB301122B4A6FB301122B4A76
:1032D000A2B301122B4A00B401122B4A4FB40112BF
:1032E0002B4A54B401122B4AB0B401122B4A02B536
:1032F00001122B4AEEB501122B4A53B601122B4A8A
:10330000B1B601122B4A30B701122B4A9CBA0112F6
:103310002B4A81BB01122B4A2ABD01122B4A78C0CD
:1033200001122B4A1AC101122B4A6FC301122B4AF8
:103330002AC401122B4A72C401122B4A29C6011257
:103340002B4A46C601122B4A4FC601122B4A58C6B9
:1033500001122B4A63C601122B4A82C601122B4A64
:10336000A6C801122B4A03C901122B4A0DC901122A
:103370002B4A17C901122B4A72C901122B4ACEC916
:1033800001122B4AE6CA01122B4A47CB01122B4AE3
:1033900058CC01122B4AA1CC01122B4A4FCD01125D
:1033A0002B4A5FCE01122B4A23CF01122B4A5FD04A
:1033B00001122B4A70D101122B4A7BD201122B4AE7
:1033C00093D201122B4ACAD201122B4AD4D2011233
:1033D0002B4ADED201122B4AE9D201122B4A07D323
:1033E00001122B4A4FD301122B4AADD301122B4AA3
:1033F000D7D301122B4AE9D301122B4A92D40112DE
:103400002B4ACBD401122B4AF7D501122B4A54D6A2
:1034100001122B4A45D701122B4A7BD701122B4AA6
:10342000ECD701122B4A68D801122B4A0CDA011290
:103430002B4A32DB01122B4AF0DB01122B4ABEDC95
:1034400001122B4A43DD01122B4AEEDD01122B4AF9
:10345000D7DE01122B4A70DF01122B4A4CE0011219
:103460002B4AB4E001122B4A73E101122B4ACFE13F
:1034700001122B4A33E201122B4AF9E201122B4AC4
:103480001CE301122B4AC6E301122B4AE8E30112A6
:103490002B4A49E401122B4A79E601122B4A62E7D2
:1034A00001122B4A0EE801122B4A3BEA01122B4A69
:1034B00084EA01122B4ACFEA01122B4A22EB0112B5
:1034C0002B4A80EB01122B4AB2EB01122B4AD6EBAE
:1034D00001122B4A0BEC01122B4A33EC01122B4A3E
:1034E00078EC01122B4AD6EC01122B4A34ED011272
:1034F0002B4A27EE01122B4A9BEF01122B4AE0EFD9
:1035000001122B4A09F001122B4A8EF001122B4AAC
:10351000F3F001122B4A01F101122B4A25F101129D
:103520002B4A7BF101122B4A96F101122B4A51F2E0
:1035300001122B4A7DF201122B4AE0F201122B4AB2
:10354000DCF401122B4A08F501122B4AC3F50112D3
:103550002B4AA7F601122B4A3BF701122B4A6F8C1C
:1035600006122B4AAE8C06122B4A25BE03122B4A9A
:10357000CEBE03122B4AADBF03122B4AB9C00312B1
:103580002B4AD9C003122B4AFBC103122B4AABC3EF
:1035900003122B4A18C403122B4AE9C403122B4A04
:1035A000EFC503122B4A67C603122B4AA2C60312A9
:1035B0002B4AFBC603122B4A36C703122B4A7FC77E
:1035C00003122B4A13C803122B4AA9C803122B4A11
:1035D0007EC903122B4A51CA03122B4ADFCA0312B7
:1035E0002B4A05CB03122B4A32CB03122B4A63CB57
:1035F00003122B4A30CC03122B4A40CC03122B4A25
:1036000093CC03122B4AA0CC03122B4AADCC03124D
:103610002B4AB6CC03122B4A1ACD03122B4A78CD73
:1036200003122B4AC3CD03122B4ADECD03122B4AC1
:1036300005CE03122B4A22CE03122B4A2ECE0312A2
:103640002B4ABFCF03122B4AD8CF03122B4A54D098
:1036500003122B4A67D003122B4A77D003122B4A4E
:103660001BD103122B4A87D203122B4A9AD303127F
:103670002B4A3AD403122B4A44D403122B4AC3D404
:1036800003122B4AD4D403122B4A13D503122B4A0C
:1036900041D503122B4A0ED603122B4A65D60312CC
:1036A0002B4A9ED603122B4AF4D603122B4A12D76A
:1036B00003122B4A60D703122B4A2BD803122B4A32
:1036C00079D803122B4AC6D803122B4A49D90312C0
:1036D0002B4A73D903122B4AA9D903122B4AB8D902
:1036E00003122B4A17DA03122B4A8FDA03122B4AE2
:1036F000D0DA03122B4A20DB03122B4A4BDB0312D6
:103700002B4A65DB03122B4A7FDB03122B4A54DC66
:1037100003122B4A5EDC03122B4A99DC03122B4A5C
:10372000A9DC03122B4AB2DC03122B4A03DD03127D
:103730002B4A17DD03122B4A39DE03122B4A4CDECB
:1037400003122B4A63DE03122B4A78DE03122B4A44
:103750000BDF03122B4A7FDF03122B4A24E00312F4
:103760002B4A2FE003122B4A92E103122B4AAEE1BF
:1037700003122B4AFAE103122B4A68E203122B4A86
:103780009AE203122B4AB4E203122B4A14E3031207
:103790002B4AB3E303122B4AFEE303122B4A51E6F2
:1037A00003122B4AE9E603122B4A60E703122B4A65
:1037B000BDE903122B4AD5E903122B4AD8E90312BB
:1037C0002B4AE4E903122B4AF8E903122B4A00EAD8
:1037D00003122B4A37EA03122B4A2BEB03122B4A14
:1037E000B5EB03122B4A37EC03122B4AB7EC03124A
:1037F0002B4A8EED03122B4AB0ED03122B4A49EEF1
:1038000003122B4AA6EE03122B4AA9EE03122B4AEF
:10381000D6EE03122B4AEBEE03122B4A5AEF031299
:103820002B4AA6F003122B4AB9F103122B4A44F299
:1038300003122B4A57F303122B4A1EF403122B4A8E
:103840004FF403122B4A75F403122B4A7EF4031231
:103850002B4AADF403122B4A5DF503122B4A0DF6E9
:1038600003122B4A80F603122B4A23F703122B4A2A
:1038700096F703122B4AD5F703122B4A1EF80312B0
:103880002B4A53F803122B4AE4E604122B4A51E761
:1038900004122B4A98E704122B4A0EE804122B4A12
:1038A00060E804122B4AE6E804122B4A2AEB0412C1
:1038B0002B4A59ED04122B4A36F104122B4AB6F169
:1038C00004122B4AF1F104122B4A0FF204122B4A74
:1038D0006FF204122B4A97F204122B4AC7F2041219
:1038E0002B4AF8F204122B4A25F304122B4A7EF3DA
:1038F00004122B4AC9F304122B4A008005122B4AEA
:103900007C8005122B4AA88005122B4ADA8005120A
:103910002B4A3C8205122B4A588205122B4A96826A
:1039200005122B4A238305122B4A7F8305122B4A4B
:10393000458405122B4A048505122B4A4985051238
:103940002B4AAA8505122B4A1F8605122B4A598637
:1039500005122B4AB18605122B4AD38605122B4A33
:103960006B8705122B4A128805122B4A5F880512B5
:103970002B4A888805122B4AC98805122B4A768A59
:1039800005122B4A5A8B05122B4A0B8C05122B4A17
:10399000CC8706122B4ADD8706122B4A7B8806123B
:1039A0002B4AF27F00122B4AE17F00122B4AE3865A
:1039B00006122B4AF38606122B4A0B8706122B4A55
:1039C000BF8706122B4AED8406122B4A7185061218
:1039D0002B4AD78506122B4A498906122B4A4C8955
:1039E00006122B4A858906122B4ADB8906122B4ABE
:1039F000EE8906122B4AF18906122B4ABBD6051214
:103A00002B4AC9D605122B4A42D705122B4A17D882
:103A100005122B4AD6D905122B4A3BDA05122B4A3E
:103A20009ADA05122B4AF87F00122B4A60F705122A
:103A30002B4A98F705122B4AE6F805122B4A6AF929
:103A400005122B4AA3ED05122B4A44EE05122B4A10
:103A50007DEE05122B4AC8EE05122B4A91EF051296
:103A60002B4ABBEF05122B4AE1EF05122B4AF5EF6B
:103A700005122B4A0AF005122B4A13F005122B4AA5
:103A8000D57900122B4A017A00122B4AA77C00122A
:103A90002B4AFE7C00122B4A3A7D00122B4A4E7DA7
:103AA00000122B4A677D00122B4A587E00122B4AC7
:103AB000347F00122B4A487F00122B4AF9FC051272
:103AC0002B4A1DFD05122B4A36FD05122B4A74FDAB
:103AD00005122B4AAAFD05122B4ADDFD05122B4AC1
:103AE000E7FD05122B4A53FE05122B4A56FE05121E
:103AF0002B4A2B9E02122B4A6DFE05122B4AF7EA27
:103B000005122B4A1AEB05122B4A65EB05122B4ABC
:103B100083EB05122B4A9EEB05122B4A04EC05128F
:103B20002B4A10EC05122B4A6DEC05122B4A91EC36
:103B300005122B4A57ED05122B4A64ED05122B4A4C
:103B400075ED05122B4A5C7F00122B4A747F001220
:103B50002B4AA07F00122B4A85A602122B4AF8BCE2
:103B600005122B4A06BD05122B4A1ABD05122B4A17
:103B700037BD05122B4A4CBD05122B4A5FBD0512FD
:103B80002B4AE1BD05122B4A47BE05122B4AD0BE77
:103B900005122B4A48BF05122B4A21C005122B4A99
:103BA00031C005122B4A40C005122B4A66FF021293
:103BB0002B4A8AFF02122B4AB2FF02122B4ADAFF6B
:103BC00002122B4A43F005122B4A6AF005122B4AC7
:103BD00089F005122B4AFEF005122B4A24E8051243
:103BE0002B4A3DE805122B4A54E805122B4A5DE8A2
:103BF00005122B4A7BE805122B4A85E805122B4A51
:103C00008FE805122B4AA2E805122B4A2FE905126C
:103C10002B4A9EE905122B4ACCE905122B4A1DEAD4
:103C200005122B4A69EA05122B4A84EA05122B4A2F
:103C30008EEA05122B4A9FEA05122B4AE2EA051288
:103C40002B4ACD8B06122B4A188C06122B4AAF97A3
:103C500005122B4ADB9705122B4AFE9705122B4AB9
:103C6000119805122B4A2C9805122B4A9098051290
:103C70002B4ABE9805122B4ACB9C05122B4A0D9E4F
:103C800005122B4A3F9E05122B4AAA9E05122B4A6B
:103C90002EA005122B4A56A005122B4A6BA0051226
:103CA0002B4A7BA005122B4ABBA005122B4AFDA074
:103CB00005122B4A0DA105122B4A5B8106122B4AD5
:103CC0006B8106122B4A8F8106122B4AB88106128D
:103CD0002B4AE28106122B4A068206122B4A1D82CB
:103CE00006122B4A4B8206122B4A6E8206122B4A70
:103CF000958806122B4ADB8806122B4AAEDA05128B
:103D00002B4ABEDA05122B4ADCDB05122B4A10DCEB
:103D100005122B4A32DC05122B4A5ADC05122B4ABB
:103D200073DC05122B4AAFDC05122B4A15DD051298
:103D30002B4A5ADD05122B4A9FDD05122B4ACCDD9A
:103D400005122B4A04DE05122B4AC0D205122B4A5B
:103D500022D305122B4AC9D305122B4A01D40512CE
:103D60002B4ABFD904122B4A6EDA04122B4AA2DC6A
:103D700004122B4A75DF04122B4AF5E004122B4A79
:103D800057E104122B4A62E404122B4AA6E50412FE
:103D90002B4AA68206122B4AF18206122B4A25B61E
:103DA00005122B4AE4B805122B4A81B905122B4A99
:103DB000ADB905122B4ADBB905122B4A10BA051210
:103DC0002B4A38BA05122B4A98BA05122B4A00F42E
:103DD00004122B4AF8F704122B4AEFF904122B4A6B
:103DE0001DFB04122B4AF9FB04122B4A94FD04120A
:103DF0002B4A61FE04122B4AB5FE04122B4AD0F264
:103E000005122B4ADAF205122B4AFBF205122B4A55
:103E1000AECB04122B4AD2D004122B4A01D2041288
:103E20002B4ADDD304122B4A68D404122B4AFCD44B
:103E300004122B4AF5D504122B4A2CD704122B4A14
:103E400039D804122B4A1ED904122B4A00800412BE
:103E50002B4A388004122B4A448A04122B4A2E8B98
:103E600004122B4A7E8C04122B4AC98D04122B4A51
:103E7000748E04122B4A478F04122B4ADE8F0412D1
:103E80002B4AC29004122B4AC59104122B4A8792E6
:103E900004122B4AB59204122B4A2D9404122B4A79
:103EA000B69404122B4ACF9404122B4A299604127A
:103EB0002B4ADB9604122B4A6A9704122B4A199854
:103EC00004122B4A7C9804122B4A189904122B4A8C
:103ED000919904122B4AAF9904122B4A7C9A04122E
:103EE0002B4A4B9B04122B4A019C04122B4A77FE4F
:103EF00005122B4AA1FE05122B4AB3FF05122B4ACD
:103F0000B6FF05122B4AA78A06122B4AE98A061227
:103F10002B4A2B8B06122B4A3B8B06122B4A05F998
:103F200002122B4A4CF902122B4AB5F902122B4A03
:103F3000D6F902122B4AEFF902122B4A9FFA02120B
:103F40002B4AA8FA02122B4AF9FA02122B4A2FFB2B
:103F500002122B4A46FB02122B4AB3FB02122B4AD7
:103F600043FC02122B4A79FC02122B4AC2FC0212B9
:103F70002B4A23FD02122B4A5DFD02122B4AC5FD7E
:103F800002122B4A18FE02122B4A5BFE02122B4A27
:103F900098FE02122B4AAAFE02122B4ABCFE021203
:103FA0002B4AF6FE02122B4A36FF02122B4A71C030
:103FB00005122B4AB7C105122B4AE0C105122B4A44
:103FC000F1C105122B4A09C405122B4A29C4051256
:103FD0002B4A1CF505122B4A52F505122B4AA1F566
:103FE00005122B4AFDF605122B4A9CB704122B4AE8
:103FF000DAB804122B4A16B904122B4ADBBA04129F
:104000002B4A05BB04122B4A8BBD04122B4ACBBD95
:1040100004122B4A61BF04122B4AF6BF04122B4A2A
:1040200054C004122B4ADAC004122B4A12C10412E3
:104030002B4A54C104122B4AC1C204122B4A45C454
:1040400004122B4A7FC604122B4AADC604122B4A17
:10405000D9C604122B4AE2C604122B4A38C70412EE
:104060002B4AC8C704122B4ACFCA04122B4A51CB81
:1040700004122B4AFA8906122B4A108A06122B4A7E
:104080001A8A06122B4A768A06122B4A47CA05124A
:104090002B4A60CA05122B4A05CB05122B4A45CB89
:1040A00005122B4A5ECB05122B4A91CB05122B4AE7
:1040B000DECB05122B4A12CC05122B4A54CC05122A
:1040C0002B4A2DCE05122B4A98CE05122B4AD3FE31
:1040D00004122B4A28FF04122B4A82FF04122B4A97
:1040E000DA8306122B4A4C8406122B4A8A84061263
:1040F0002B4ACB8406122B4AFCF701122B4A02F8FA
:1041000001122B4A49F801122B4A55FA01122B4A87
:1041100085FA01122B4AEFFA01122B4AAAFB01126F
:104120002B4AEDFB01122B4A1EFC01122B4AA8FC64
:1041300001122B4ABFFC01122B4ACCFC01122B4A64
:10414000D6FC01122B4A76FE01122B4A68FF01129F
:104150002B4AC6FF01122B4A3DA105122B4A53A13F
:1041600005122B4A05A205122B4A2FA305122B4A32
:1041700024A405122B4ABBA405122B4AF6A405124F
:104180002B4A68A505122B4AC6A505122B4AD6A5AF
:1041900005122B4AFDA505122B4A4FA605122B4AE4
:1041A000BBA705122B4AC0A705122B4AE2A705128E
:1041B0002B4A458B06122B4A738B06122B4AA88B6F
:1041C00006122B4AAA8B06122B4AAC8B06122B4ADC
:1041D000BD8B06122B4ABF8B06122B4AC28B0612CE
:1041E0002B4A6AFB05122B4AD8FB05122B4AFAFB15
:1041F00005122B4A32FC05122B4A68FC05122B4A89
:1042000011E505122B4A53E505122B4A76E50512F6
:104210002B4AA9E705122B4AC3E705122B4AEEE702
:1042200005122B4A248C06122B4AB7A905122B4AD9
:1042300095AA05122B4A7BAB05122B4A8CAB0512B3
:104240002B4A9DAB05122B4AE9AB05122B4ADAAD7E
:1042500005122B4A2FAF05122B4A5FAF05122B4ACE
:1042600023B005122B4A81B005122B4A6BDA0212D9
:104270002B4AC6DA02122B4A43DC02122B4A00DD1B
:1042800002122B4A17DD02122B4A66DD02122B4A5C
:10429000DADD02122B4AEDDD02122B4A3BDE02125E
:1042A0002B4AAADE02122B4AC2DE02122B4A33E14B
:1042B00002122B4A40E202122B4A9BE202122B4AC4
:1042C0002AE502122B4AABE502122B4AEDE5021257
:1042D0002B4AC7E602122B4A00E702122B4A4BE791
:1042E00002122B4A61E702122B4A35E802122B4ACE
:1042F00007E902122B4A12E902122B4A60E9021264
:104300002B4AB5E902122B4A01EA02122B4A5EEB54
:1043100002122B4A91EB02122B4A1AEE02122B4A7E
:104320004DEE02122B4A70EF02122B4A9FEF02123F
:104330002B4A11F002122B4A26F002122B4A68F087
:1043400002122B4ADCF002122B4AF4F102122B4A21
:104350003BF202122B4A45F202122B4A48F2021299
:104360002B4A52F202122B4A6EF202122B4AEAF246
:1043700002122B4A23F302122B4A3FF302122B4A5A
:104380006BF302122B4A92F302122B4AB6F302127B
:104390002B4A2FF402122B4AA2F402122B4AE5F404
:1043A00002122B4AEFF402122B4A1EF502122B4A7C
:1043B00034F502122B4A50F502122B4A7FF50212F5
:1043C0002B4A9FF502122B4AE8F502122B4A23F6DC
:1043D00002122B4A2FF702122B4A89F802122B4A9B
:1043E000A8F802122B4AC0F802122B4AD2F8021285
:1043F0002B4AF08506122B4A018606122B4A8A8622
:1044000006122B4AFDB005122B4A3BB105122B4A6E
:10441000D4B105122B4ADFB205122B4A27B505127B
:104420002B4AA4B505122B4ABEF803122B4A0DF9EC
:1044300003122B4ACBFA03122B4A9FFC03122B4A7E
:10444000DDFC03122B4ABEFD03122B4AC8FE0312E9
:104450002B4AEAFE03122B4A46FF03122B4AC7FFE0
:1044600003122B4AF14E00122B4A134F00122B4A13
:10447000825000122B4ACB5000122B4A3C510012A2
:104480002B4ABF5100122B4A365200122B4A7D5242
:1044900000122B4AF45200122B4A955300122B4A59
:1044A0000A5400122B4A475400122B4A8A58001211
:1044B0002B4AAB5A00122B4AE45A00122B4A365BA5
:1044C00000122B4A315E00122B4AC15E00122B4AA9
:1044D0006E6000122B4A9C6100122B4AC8620012C7
:1044E0002B4A336300122B4A146400122B4A726465
:1044F00000122B4A756400122B4A3B6500122B4AAE
:10450000846600122B4AA36800122B4AB26A00127A
:104510002B4A9A6B00122B4A316E00122B4A0A6FFB
:1045200000122B4A497000122B4A797300122B4A51
:10453000897300122B4ACF7400122B4A6D7500123A
:104540002B4AA87600122B4A167700122B4A417884
:1045500000122B4A7C7800122B4A257900122B4A34
:10456000C69C04122B4A689D04122B4AD49D041247
:104570002B4AEE9D04122B4A709E04122B4AAA9ECF
:1045800004122B4AAC9F04122B4AEE9F04122B4AB2
:1045900060A004122B4AB0A004122B4A0FA10412EF
:1045A0002B4ABBA104122B4AA5A404122B4A6CA5CA
:1045B00004122B4AD2A504122B4A7AA704122B4AC2
:1045C00013A804122B4AACA804122B4A0FA90412F8
:1045D0002B4A85A904122B4A86AA04122B4A77ABD0
:1045E00004122B4AB2AB04122B4AC9AB04122B4A59
:1045F00096AC04122B4AD4AC04122B4A5CAD0412C4
:104600002B4AA9AE04122B4A6DB004122B4AABB14F
:1046100004122B4ADEB204122B4AF2B304122B4AC4
:1046200089B404122B4AF8B404122B4A05B60412BA
:104630002B4AF88C05122B4A638D05122B4AAB8D41
:1046400005122B4A128E05122B4A6E8E05122B4A2A
:10465000A98E05122B4A458F05122B4A9F8F0512F2
:104660002B4A0B9105122B4A929105122B4AD3919A
:1046700005122B4AFE9105122B4A7F9205122B4AF6
:10468000C79205122B4AED9205122B4A3F94051250
:104690002B4A449405122B4ABB9405122B4A2795AA
:1046A00005122B4A229605122B4A0E9705122B4A09
:1046B00058DE05122B4A9BDF05122B4A63E00512D8
:1046C0002B4AB8E005122B4A3EE105122B4AA5CE33
:1046D00005122B4AC3CE05122B4A07CF05122B4ACF
:1046E0002DCF05122B4A54CF05122B4A6CCF051241
:1046F0002B4A84CF05122B4A9CCF05122B4A42D05D
:1047000005122B4A84D005122B4A99D005122B4A48
:10471000A0D105122B4ABBD105122B4AC4D10512D8
:104720002B4ACDD105122B4AD6D105122B4AE0D106
:1047300005122B4A5DD205122B4A7DC505122B4A64
:10474000BFC905122B4ADBC905122B4AE0C9051265
:104750002B4AE9F905122B4AD2E105122B4AE8E16E
:1047600005122B4A69E305122B4A93E305122B4AE3
:10477000D9E305122B4AE2E405122B4A0080061207
:104780002B4ADB8C06122B4A008D06122B4A0F9EF9
:1047900002122B4AF19D02122B4AD99C02122B4A7B
:1047A000B49C02122B4AC49B02122B4A509B021249
:1047B0002B4ABF9A02122B4A4D9A02122B4A3C9A5C
:1047C00002122B4A179A02122B4A339902122B4AD1
:1047D0004F9802122B4A689502122B4A2594021216
:1047E0002B4A8C9102122B4A479102122B4AED90D0
:1047F00002122B4A4E9002122B4AFB8F02122B4AB6
:10480000288F02122B4A628E02122B4A268E021227
:104810002B4AB98D02122B4AB18D02122B4A268DDA
:1048200002122B4A49A602122B4AB68C02122B4ABC
:1048300018A502122B4A99A402122B4A5EA3021257
:104840002B4A4EA302122B4A22A202122B4A41A04B
:1048500002122B4A38A002122B4A359F02122B4A11
:10486000078C02122B4AFC8B02122B4AED8B021290
:104870002B4ACC8B02122B4AAD9E02122B4A988BEC
:1048800002122B4A6C8B02122B4A408A02122B4ACC
:104890002C8802122B4A94BB05122B4AFD87021268
:1048A0002B4A9E9E02122B4AE18702122B4A8B87CB
:1048B00002122B4A528702122B4ACA8602122B4A34
:1048C0007E8602122B4A378602122B4A6A85021212
:1048D0002B4AEE8402122B4A468402122B4A9F83F3
:1048E00002122B4A418302122B4A168302122B4AD0
:1048F000C78202122B4A898202122B4A6682021256
:104900002B4A4D8202122B4A058202122B4A00804A
:1049100002122B4A4F8102122B4AC38002122B4AE9
:10492000578002122B4A60FE0500000080FBE473F2
:104930008F000100881987000100871935000400E5
:10494000371A250002003B1A260002003D1A2700F4
:1049500002003F1A28000100491A290001004A1AE2
:10496000840004004B1A860001004F1A2A0001003F
:10497000501A2B000100511A2C000100541A2D006E
:10498000080069192E000100551A2F000100561A5F
:1049900030000100571A31000100581A320001009E
:1049A000711933000100721934000100591A3600E0
:1049B00001007319380001005A1A39000100531A16
:1049C000830002006E1A6300010084196400010074
:1049D000601965000100521A6D000100851971000F
:1049E00008006119660001006D1A430001005E1A9B
:1049F000440002005F1A45000100611A46000200EF
:104A0000621A470008007C1948000100641A4B0034
:104A10000100651A04000100701AA1000100721A59
:104A200037000100711A8800010089193C0001005B
:104A300074193D0001005B1A49000200661A670004
:104A4000010086194D000200681A4E0001006A1A22
:104A50004F0002006B1A3E0001007B19510001005B
:104A60007519520001005C1A530001005D1A5400D0
:104A70000100761900000000000000013636010137
:104A80000001020100010301000104010606050204
:104A90000000070100340801000F090401010D01A5
:104AA00000FF0E08000017020000190100FF1A01A4
:104AB00000011B0100FE1C0100081D0200001F0177
:104AC000000120010001210200002301000F240247
:104AD00000002601000127010008280200FF2A012A
:104AE00000072B0102402C0100002D0100012E01C6
:104AF00000012F0100FF30010B1D310800003A01B9
:104B000000083B01000F3C0100013D0100FF3E0495
:104B1000000042040000460400004A0400004E0465
:104B2000000052040000560400005A040000010373
:104B300071030103010301030103010322030203C3
:104B4000010310030003000300030003000300033C
:104B500000034203000324030603000300030403CD
:104B60001203250323032503230304030403000383
:104B70000003000344030003000323030003650351
:104B80002100350381030003050300030003000334
:104B900000032503230303047104020460041104C9
:104BA00070040204020401040204100461040004FD
:104BB00014046304730472046204430400041304C1
:104BC00006040004000404041204000400040004A9
:104BD00000045104640000040004000444040004C0
:104BE000000400040004650400043504810464002A
:104BF0000504000483040004030071003001600018
:104C00001100700031022003500480001000610088
:104C10000000140063007300720062004300000093
:104C20001300060000000000040012000000000055
:104C30000000000004000400370037003C0244007C
:104C40000000000000000000650000003500810049
:104C50000000050000008300000001017101010156
:104C60000101110101013101010101018001100166
:104C700061013B0014006301730172016201430191
:104C80000001130106013D0135000401120100017C
:104C900000010001000104010401330133013C0162
:104CA00044013201360000010001650100013500B8
:104CB00081010001050182018301000103027102EB
:104CC000300160021102700201020202020280023F
:104CD000100261023A004100630273027202620232
:104CE0004302000213023800000200020402120212
:104CF0000002000200020002040204023700370032
:104D00003C02440200023900000200026502000277
:104D1000350281020002050282028302000236008F
:104D20000100060000000F0000000000000000006D
:104D30000000000003FFFF00000403FFFF0000FF6E
:104D4000FF0FF4010005C4040320000100000B0064
:104D50000000000000000003010F00000000000040
:104D60000000000000000000000000000000000043
:104D700000000000000000000000000000009F454F
:104D80001300FD441F0003451F80094501009F4596
:104D90000200854403008B440400914405009744BD
:104DA0000600A3443000C1443100BB443200CD446E
:104DB0003300D3443500D9443400DF443600E544A1
:104DC0001100F1441400F7441500B544FFFF000042
:104DD0000A000000020000000400000008000000BB
:104DE00010000000200000004000000080000000D3
:104DF00000010000000200000004000000080000A4
:104E0000001000000020000000400000011F3206DA
:104E10005532084F320B6D3210C12F0A7F320225F6
:104E200032054332072B320C07320D133264F1473F
:104E3000FF000007ECFDFDFDECDCDCCCBCACAC9C69
:104E40009C8C7C7C6C6C5C5C5C4C4C3C3C2C2C1CD2
:104E50001C03EAF5E5D5D5C5B5A595958585757588
:104E60006565555545453535252515150500160F3C
:104E700000000B150B020002220F3300000E0C0E77
:104E8000020B040B0A0708000F000119161816166A
:104E90001823030000034A49434E181A250502301F
:104EA0003016181920231A1C1E3000393D3F373C9C
:104EB0003C362C442D303017181921301B1D1F3063
:104EC00002040201010101090200BE040A7F00E898
:104ED000030E00000000000C08100C0A150309095D
:104EE00000040003FF1E1E01050C04040810050346
:104EF00028C082C0839018E9E4F0A3F07CED7D0423
:104F00007A047B181240EF1247C112300F1247BBD0
:104F1000026EB274F312259174F5122C3F89098A3E
:104F2000088B0A8C0BE9705F74026508703F790882
:104F30001243D7750C00780C122BA1E50BF50C78F9
:104F40000C122BA1E50AF50C780C122BA19018205D
:104F5000122999901A4FE0F97C7C7D19901A6E12F3
:104F60006EBF1247977407122B5F02504A74016597
:104F700008600302504F79081243D77B00AA0AA9A0
:104F80000A12483F02504A740165096009740265BB
:104F900009600302504FEA600674036508704779A0
:104FA000021243D7901A4FE0F9901820122E2612C1
:104FB00047A9E9F990182DE0A2E34010E9700D909F
:104FC00018EDE004F0640470031250707403650877
:104FD000707A9018EEE0F8740128F0E8C394054068
:104FE0006B12507080667401650870637401650906
:104FF000790A702E1243D77401122E55E4F0740210
:10500000122E557403F004122E55E4F0A3F0A3F011
:10501000A3F07408122E55E4F0AA18AB191232311D
:1050200080441243D7901A451229997A007B209028
:105030001824E0F91240A17404122B5F901A4FE07B
:10504000F9901820122E26124857E9F9E9601790B6
:1050500081111229997A017B00901824E0F91240FD
:10506000A17404122B5F740B122B5F7F0502285B67
:10507000901820E4F0A374F8F0A374FFF0A3740771
:10508000F02274F6122591E9FFEAFE7AD1F9123F77
:105090005D8A828B83E5824583702A7A027B0012C7
:1050A0003F3FEA4B700E7A107B00901824E0F91213
:1050B0003F8180148A828B8374D1F0EFA3F0EEF9E4
:1050C000123F4B8003EFA3F00252EF74F7122591C9
:1050D00089089006F812640F901A33E0F47003A365
:1050E000E0F4702D90080BE0901A33F0A3E4F08008
:1050F000208E828F83A31262C2600F8E828F83A361
:10510000A31262BCFAA90812446D8E828F831251D9
:10511000B2EE4F70DC901A33E0F47003A3E0F46059
:105120000A901A33E0FAA90812446D12333F90171F
:10513000EE125ADE1233397F0102285B74F0122519
:1051400091890B8C0C7508007509007410122E558E
:105150001252267412122E551251B2803CA80A1215
:105160005216F50EA3E0F50FA809125209F583E0D7
:10517000650E7004A3E0650F70141251A9EE28F5B6
:1051800082EF39F583E50EF0A3E50FF00508050A77
:10519000E50AC3950C40C60509E509C3950B500502
:1051A000750A0080EBA9088011A808E828F8E43304
:1051B000F922127492E8FEE9FF227F0802285B744C
:1051C000F4122591890B8C0A750800740C122E5567
:1051D00012522680020508E508C3950B5027750971
:1051E0000080020509E509C3950A50E9A808125292
:1051F0000912640DA8091252166E7003A3E06F70B5
:10520000E27901800279008028E828F8E433F9EA9D
:1052100028F582EB3922E828F8E433F9EC28F58206
:10522000ED39F583E022127492E8FCE9FD22122B9D
:105230005F7F0402285B74F61225911252D9700325
:10524000A3E06D701775082B7509187808122B9D4F
:10525000EEFA1245A57402122B5F801F75080275C5
:1052600009807808122B9D8C088D097808122B9DD7
:105270001252C41245C97404122B5F807274F61264
:1052800025911252D97003A3E06D70177508387517
:1052900009187808122B9DEEFA1245AB7402122BF6
:1052A0005F801F7508037509807808122B9D8C0894
:1052B0008D097808122B9D1252C41245C97404122C
:1052C0002B5F802B1252D23FF583E0FD7C8012656C
:1052D0001622EE240EF582E422EAFEEBFF12652B85
:1052E000FCE439FD9017EEE06C227402122B5F7F14
:1052F0000202285B74F612259174FE122C3FEAFE1E
:10530000EBFF851882851983E4F0A3125A90126688
:1053100064FBECFA88828983A3A3E0F97509007520
:105320000800600574FF697005750882803D90175C
:10533000EEE06A7003A3E06B701AAA18AB1912387A
:10534000C7E9F509851882851983126896701C755E
:1053500008838017901987E0600464017005750860
:10536000818008E0640270037508808518828519C1
:105370008312687FA908EEFAEFFB1245B1E50960D8
:10538000118518828519831268966006126EB9120B
:105390003FE10252EA74F2122591EAFEEBFF750832
:1053A00000750900126527F50AE439F50B12333F41
:1053B000EA650A7003EB650B70121238D9E914F52F
:1053C0000879017AB57B181238DF800375098012DD
:1053D0006885F50C780C122BA1750CB5750D187835
:1053E0000C122B9D7808122BA1780A122B9DE5092F
:1053F000F5087808122BA1126328126888F97A053B
:105400007B801245B7740702767474F61225918971
:105410000975080080278A828B83E0FE127829EEC6
:1054200028E439FF1251A9EC28F582ED39F583EE15
:10543000F0A3EFF0EA2402FA50010B0508E508C3D7
:10544000950940D20252EF74E812259174FB122C98
:105450003F8A168B17851882851983E4F07403122E
:105460002E55E4F0A3F004122E55E4F0A3F0125DE3
:10547000E73517125A62F50B850A82F58312791502
:10548000FEE439FF850A82850B83A3A3E0FA850A2F
:1054900082850B83A3A3A3E0F9EAF508E439F509B3
:1054A000E50A2404F50A5002050BEEFAEFFB12336D
:1054B000DBE964016016EEFAEFFB1233DBE9703DC5
:1054C0009017EEE06E7003A3E06F60311266751204
:1054D0002BA1E4F508F5097808122B9D7808122B0A
:1054E000A19017EE1229A17508807808122BA1123D
:1054F000583F1245B77407122B5F02583512586D8A
:105500008810602B1274B3123FDB7403122E5512F5
:105510005ADE7403122E5512689660137403122E0D
:1055200055125865A91012449D8A0A8B0B80037589
:10553000100012586D880F60271274B3123FDB748D
:1055400001122E55125ADE7401122E551268966001
:105550000F7401122E55125865A90F12449D800335
:10556000750F009006F8805C850A82850B83A3A3E3
:10557000A3A3A3A3A3A3E4F0A3F0AA0AAB0B8514EF
:1055800082851583A3A3E0F81262BCF9123F4B8514
:105590001282851383E0C0E0851882851983E0F8C4
:1055A00074B528F582E43418F583D0E012689A04C3
:1055B000F0E511A2E05007AA12AB13123FE18514E7
:1055C00082851583E0F514A3E0F515E51445157003
:1055D000030257A2851482851583A31262C260DE7E
:1055E000851482851583A3A3A3A3A3A3A3A3E0A2E9
:1055F000E050CB851482851583A3A3A3A3126896DC
:10560000851482851583A3A3601F1262C3FA7901F2
:10561000851482851583A3A3A3A312585812492E7B
:105620008A128B137511018010125858A3A3A3E09E
:10563000F512A3E0F513751100E51245137003028E
:1056400055B1851282851383A3E065087004A3E039
:105650006509600F74FF6508700474FF65096003D5
:105660000255B1851282851383A3A3A3A3A3A3A389
:105670001229A1851282851383A3A3A3A3A3A3E068
:10568000FC7405122E55126EBFA91012447F7402CD
:10569000122B5FE9703C851282851383A3A3A3A319
:1056A000A3A3A3A3A3A31229A1851282851383A375
:1056B000A3A3A3A3A3A3A3A3E0FC7403122E5512D8
:1056C0006EBFA90F12447F7402122B5FE9700302B0
:1056D00055B1E50F2510C333240AFA7B00123F3F72
:1056E0008A0A8B0BEA450B700302558F8A828B83E3
:1056F00074D2126AA58A828B83A3A3E8F0A3E9126D
:1057000077A7A3E51012791DE50FF0E510603CEADC
:105710002405FAE4350BFBE50A240AF8E4350BF915
:105720008A828B831260687403122E5512587D1280
:105730002B99AC10EC2CFCE433FD8A828B83126E27
:10574000BF123F1B7403122B5F800D8A828B83A3D1
:10575000A3A3A3A3E4F0A3F0E50F7003025568A888
:10576000101251ABE50A28F8E50B39F9E8240AFADA
:10577000E439FB850A82850B83A3A3A3A3A3A3A378
:10578000A3125ADE7401122E5512587D122B99ACB9
:105790000FEC2CFCE433FD123F1B7403122B5F0251
:1057A000557A851882851983E06027126675122B59
:1057B000A17508B57509187808122B9D7403122E6F
:1057C0005512667E122BA19017EE1229A1750800C2
:1057D0008029EEFAEFFB1233DBE9702F12667512A7
:1057E0002BA17508B57509187808122B9D7508004E
:1057F0007808122BA19017EE1229A17808122BA17C
:1058000012583F1245B77407122B5F7403122E55BE
:10581000126896600B7403122E55126EBF123FE190
:105820007401122E55126896600B7401122E5512D7
:105830006EBF123FE17405122B5F7F1002285BE5FB
:10584000162402FCE43517FDE5161262B63517F58D
:1058500083E0F97A067B802212585C22E0F8A3E00C
:10586000F58388822212687FAA0AAB0B22850A82FE
:10587000850B83E0F8A385820A85830B22E0F50C73
:10588000A3E0F50D750E00780C2274F112259174C9
:10589000F4122C3F8A088B09ECFEEDFF740B122EDC
:1058A000557403F0122C031240EF1233398A0A8B1D
:1058B0000BAC0AAD0B7403122C031240E9E9600A29
:1058C000125A5C6010E06401600B851882851983B0
:1058D0007484025A0A8E828F83A3A3A3A3A3A3A3D3
:1058E000A3E06013F46010125A5C7016EE241412D8
:1058F00068886003F4700B851882851983748202AE
:105900005A0A127639E064217002A3E0600302595A
:10591000E1851882851983748C125A9064036003A0
:105920000259CB7401122C0B12605412312FE96012
:10593000030259CB1243C58A0A8B0BEA450B70034D
:10594000025A0B8E0C8F0D750E00780C122B997C61
:10595000157D00123F1B7403122B5F850882850999
:1059600083A3A3E50A2415FCE4350BFD7409122A70
:10597000C31272B2C0E0E50A241E125A4AD0E012E5
:105980005EBBC0E0E50A241F125A4AD0E0F0E50AE7
:105990002420125A4A7405F0EE240BFE50010FFA2F
:1059A000EFFB12395D7D007C007900EEFAEFFB120F
:1059B000456F9081111229997A007B10901824E08C
:1059C000F91240A17404122B5F8078125A52122BE4
:1059D000A1125A6A12311D7401122B5FE9702C80DA
:1059E00014125A52122BA1125A6A12312374011244
:1059F0002B5FE9700D851882851983E4F0124395B9
:105A000080098518828519837488F01272B2F50AAC
:105A1000780A122BA17401122BFB880A890B780AD1
:105A2000122B9DE508240CF582E43509125A6244D4
:105A300080F50B780A122B9D1263F81245637405EA
:105A4000122B5F740C122B5F805CF582E4350BF532
:105A50008322EE126061E0F50A780A22125A9564F8
:105A60000322F583E0F50AA3E022EE240BFCE43FD9
:105A7000FD8E828F83A3A3A3A3A3A3A3A3A3126ECC
:105A8000FC8E828F83A3A3A3A3A3A3A3A3E0F922E5
:105A9000F0125A9522125A9922EE126B823FF58328
:105AA000E022EEFAEFFB7F0702285BC082C083741E
:105AB000F3122C3F851882851983E4F004122E55C9
:105AC000125ADE7403122E55AA82AB831248FFAA23
